{
	"Expense_Tracker.sol": {
		"ExpenseTracker": {
			"abi": [
				{
					"inputs": [],
					"stateMutability": "nonpayable",
					"type": "constructor"
				},
				{
					"inputs": [
						{
							"internalType": "string",
							"name": "_description",
							"type": "string"
						},
						{
							"internalType": "uint256",
							"name": "_amount",
							"type": "uint256"
						}
					],
					"name": "addExpense",
					"outputs": [],
					"stateMutability": "nonpayable",
					"type": "function"
				},
				{
					"inputs": [
						{
							"internalType": "uint256",
							"name": "",
							"type": "uint256"
						}
					],
					"name": "expenses",
					"outputs": [
						{
							"internalType": "address",
							"name": "user",
							"type": "address"
						},
						{
							"internalType": "string",
							"name": "description",
							"type": "string"
						},
						{
							"internalType": "uint256",
							"name": "amount",
							"type": "uint256"
						}
					],
					"stateMutability": "view",
					"type": "function"
				},
				{
					"inputs": [],
					"name": "getAllExpenses",
					"outputs": [
						{
							"components": [
								{
									"internalType": "address",
									"name": "user",
									"type": "address"
								},
								{
									"internalType": "string",
									"name": "description",
									"type": "string"
								},
								{
									"internalType": "uint256",
									"name": "amount",
									"type": "uint256"
								}
							],
							"internalType": "struct ExpenseTracker.Expense[]",
							"name": "",
							"type": "tuple[]"
						}
					],
					"stateMutability": "view",
					"type": "function"
				},
				{
					"inputs": [
						{
							"internalType": "address",
							"name": "_user",
							"type": "address"
						}
					],
					"name": "getTotalExpenses",
					"outputs": [
						{
							"internalType": "uint256",
							"name": "",
							"type": "uint256"
						}
					],
					"stateMutability": "view",
					"type": "function"
				}
			],
			"devdoc": {
				"kind": "dev",
				"methods": {},
				"version": 1
			},
			"evm": {
				"assembly": "    /* \"Expense_Tracker.sol\":298:1241  contract ExpenseTracker {... */\n  mstore(0x40, 0x80)\n    /* \"Expense_Tracker.sol\":470:677  constructor(){... */\n  callvalue\n  dup1\n  iszero\n  tag_1\n  jumpi\n  0x00\n  dup1\n  revert\ntag_1:\n  pop\n    /* \"Expense_Tracker.sol\":494:502  expenses */\n  0x00\n    /* \"Expense_Tracker.sol\":508:542  Expense(msg.sender,\"Groceries\",50) */\n  mload(0x40)\n  dup1\n  0x60\n  add\n  0x40\n  mstore\n  dup1\n    /* \"Expense_Tracker.sol\":516:526  msg.sender */\n  caller\n    /* \"Expense_Tracker.sol\":508:542  Expense(msg.sender,\"Groceries\",50) */\n  0xffffffffffffffffffffffffffffffffffffffff\n  and\n  dup2\n  mstore\n  0x20\n  add\n  mload(0x40)\n  dup1\n  0x40\n  add\n  0x40\n  mstore\n  dup1\n  0x09\n  dup2\n  mstore\n  0x20\n  add\n  0x47726f6365726965730000000000000000000000000000000000000000000000\n  dup2\n  mstore\n  pop\n  dup2\n  mstore\n  0x20\n  add\n    /* \"Expense_Tracker.sol\":539:541  50 */\n  0x32\n    /* \"Expense_Tracker.sol\":508:542  Expense(msg.sender,\"Groceries\",50) */\n  dup2\n  mstore\n  pop\n    /* \"Expense_Tracker.sol\":494:543  expenses.push(Expense(msg.sender,\"Groceries\",50)) */\n  swap1\n  dup1\n  0x01\n  dup2\n  sload\n  add\n  dup1\n  dup3\n  sstore\n  dup1\n  swap2\n  pop\n  pop\n  0x01\n  swap1\n  sub\n  swap1\n  0x00\n  mstore\n  keccak256(0x00, 0x20)\n  swap1\n  0x03\n  mul\n  add\n  0x00\n  swap1\n  swap2\n  swap1\n  swap2\n  swap1\n  swap2\n  pop\n  0x00\n  dup3\n  add\n  mload\n  dup2\n  0x00\n  add\n  exp(0x0100, 0x00)\n  dup2\n  sload\n  dup2\n  0xffffffffffffffffffffffffffffffffffffffff\n  mul\n  not\n  and\n  swap1\n  dup4\n  0xffffffffffffffffffffffffffffffffffffffff\n  and\n  mul\n  or\n  swap1\n  sstore\n  pop\n  0x20\n  dup3\n  add\n  mload\n  dup2\n  0x01\n  add\n  swap1\n  dup2\n  tag_5\n  swap2\n  swap1\n  tag_6\n  jump\t// in\ntag_5:\n  pop\n  0x40\n  dup3\n  add\n  mload\n  dup2\n  0x02\n  add\n  sstore\n  pop\n  pop\n    /* \"Expense_Tracker.sol\":554:562  expenses */\n  0x00\n    /* \"Expense_Tracker.sol\":568:607  Expense(msg.sender,\"Transportation\",30) */\n  mload(0x40)\n  dup1\n  0x60\n  add\n  0x40\n  mstore\n  dup1\n    /* \"Expense_Tracker.sol\":576:586  msg.sender */\n  caller\n    /* \"Expense_Tracker.sol\":568:607  Expense(msg.sender,\"Transportation\",30) */\n  0xffffffffffffffffffffffffffffffffffffffff\n  and\n  dup2\n  mstore\n  0x20\n  add\n  mload(0x40)\n  dup1\n  0x40\n  add\n  0x40\n  mstore\n  dup1\n  0x0e\n  dup2\n  mstore\n  0x20\n  add\n  0x5472616e73706f72746174696f6e000000000000000000000000000000000000\n  dup2\n  mstore\n  pop\n  dup2\n  mstore\n  0x20\n  add\n    /* \"Expense_Tracker.sol\":604:606  30 */\n  0x1e\n    /* \"Expense_Tracker.sol\":568:607  Expense(msg.sender,\"Transportation\",30) */\n  dup2\n  mstore\n  pop\n    /* \"Expense_Tracker.sol\":554:608  expenses.push(Expense(msg.sender,\"Transportation\",30)) */\n  swap1\n  dup1\n  0x01\n  dup2\n  sload\n  add\n  dup1\n  dup3\n  sstore\n  dup1\n  swap2\n  pop\n  pop\n  0x01\n  swap1\n  sub\n  swap1\n  0x00\n  mstore\n  keccak256(0x00, 0x20)\n  swap1\n  0x03\n  mul\n  add\n  0x00\n  swap1\n  swap2\n  swap1\n  swap2\n  swap1\n  swap2\n  pop\n  0x00\n  dup3\n  add\n  mload\n  dup2\n  0x00\n  add\n  exp(0x0100, 0x00)\n  dup2\n  sload\n  dup2\n  0xffffffffffffffffffffffffffffffffffffffff\n  mul\n  not\n  and\n  swap1\n  dup4\n  0xffffffffffffffffffffffffffffffffffffffff\n  and\n  mul\n  or\n  swap1\n  sstore\n  pop\n  0x20\n  dup3\n  add\n  mload\n  dup2\n  0x01\n  add\n  swap1\n  dup2\n  tag_8\n  swap2\n  swap1\n  tag_6\n  jump\t// in\ntag_8:\n  pop\n  0x40\n  dup3\n  add\n  mload\n  dup2\n  0x02\n  add\n  sstore\n  pop\n  pop\n    /* \"Expense_Tracker.sol\":619:627  expenses */\n  0x00\n    /* \"Expense_Tracker.sol\":633:668  Expense(msg.sender,\"Dining Out\",25) */\n  mload(0x40)\n  dup1\n  0x60\n  add\n  0x40\n  mstore\n  dup1\n    /* \"Expense_Tracker.sol\":641:651  msg.sender */\n  caller\n    /* \"Expense_Tracker.sol\":633:668  Expense(msg.sender,\"Dining Out\",25) */\n  0xffffffffffffffffffffffffffffffffffffffff\n  and\n  dup2\n  mstore\n  0x20\n  add\n  mload(0x40)\n  dup1\n  0x40\n  add\n  0x40\n  mstore\n  dup1\n  0x0a\n  dup2\n  mstore\n  0x20\n  add\n  0x44696e696e67204f757400000000000000000000000000000000000000000000\n  dup2\n  mstore\n  pop\n  dup2\n  mstore\n  0x20\n  add\n    /* \"Expense_Tracker.sol\":665:667  25 */\n  0x19\n    /* \"Expense_Tracker.sol\":633:668  Expense(msg.sender,\"Dining Out\",25) */\n  dup2\n  mstore\n  pop\n    /* \"Expense_Tracker.sol\":619:669  expenses.push(Expense(msg.sender,\"Dining Out\",25)) */\n  swap1\n  dup1\n  0x01\n  dup2\n  sload\n  add\n  dup1\n  dup3\n  sstore\n  dup1\n  swap2\n  pop\n  pop\n  0x01\n  swap1\n  sub\n  swap1\n  0x00\n  mstore\n  keccak256(0x00, 0x20)\n  swap1\n  0x03\n  mul\n  add\n  0x00\n  swap1\n  swap2\n  swap1\n  swap2\n  swap1\n  swap2\n  pop\n  0x00\n  dup3\n  add\n  mload\n  dup2\n  0x00\n  add\n  exp(0x0100, 0x00)\n  dup2\n  sload\n  dup2\n  0xffffffffffffffffffffffffffffffffffffffff\n  mul\n  not\n  and\n  swap1\n  dup4\n  0xffffffffffffffffffffffffffffffffffffffff\n  and\n  mul\n  or\n  swap1\n  sstore\n  pop\n  0x20\n  dup3\n  add\n  mload\n  dup2\n  0x01\n  add\n  swap1\n  dup2\n  tag_10\n  swap2\n  swap1\n  tag_6\n  jump\t// in\ntag_10:\n  pop\n  0x40\n  dup3\n  add\n  mload\n  dup2\n  0x02\n  add\n  sstore\n  pop\n  pop\n    /* \"Expense_Tracker.sol\":298:1241  contract ExpenseTracker {... */\n  jump(tag_11)\n    /* \"#utility.yul\":7:106   */\ntag_12:\n    /* \"#utility.yul\":59:65   */\n  0x00\n    /* \"#utility.yul\":93:98   */\n  dup2\n    /* \"#utility.yul\":87:99   */\n  mload\n    /* \"#utility.yul\":77:99   */\n  swap1\n  pop\n    /* \"#utility.yul\":7:106   */\n  swap2\n  swap1\n  pop\n  jump\t// out\n    /* \"#utility.yul\":112:292   */\ntag_13:\n    /* \"#utility.yul\":160:237   */\n  0x4e487b7100000000000000000000000000000000000000000000000000000000\n    /* \"#utility.yul\":157:158   */\n  0x00\n    /* \"#utility.yul\":150:238   */\n  mstore\n    /* \"#utility.yul\":257:261   */\n  0x41\n    /* \"#utility.yul\":254:255   */\n  0x04\n    /* \"#utility.yul\":247:262   */\n  mstore\n    /* \"#utility.yul\":281:285   */\n  0x24\n    /* \"#utility.yul\":278:279   */\n  0x00\n    /* \"#utility.yul\":271:286   */\n  revert\n    /* \"#utility.yul\":298:478   */\ntag_14:\n    /* \"#utility.yul\":346:423   */\n  0x4e487b7100000000000000000000000000000000000000000000000000000000\n    /* \"#utility.yul\":343:344   */\n  0x00\n    /* \"#utility.yul\":336:424   */\n  mstore\n    /* \"#utility.yul\":443:447   */\n  0x22\n    /* \"#utility.yul\":440:441   */\n  0x04\n    /* \"#utility.yul\":433:448   */\n  mstore\n    /* \"#utility.yul\":467:471   */\n  0x24\n    /* \"#utility.yul\":464:465   */\n  0x00\n    /* \"#utility.yul\":457:472   */\n  revert\n    /* \"#utility.yul\":484:804   */\ntag_15:\n    /* \"#utility.yul\":528:534   */\n  0x00\n    /* \"#utility.yul\":565:566   */\n  0x02\n    /* \"#utility.yul\":559:563   */\n  dup3\n    /* \"#utility.yul\":555:567   */\n  div\n    /* \"#utility.yul\":545:567   */\n  swap1\n  pop\n    /* \"#utility.yul\":612:613   */\n  0x01\n    /* \"#utility.yul\":606:610   */\n  dup3\n    /* \"#utility.yul\":602:614   */\n  and\n    /* \"#utility.yul\":633:651   */\n  dup1\n    /* \"#utility.yul\":623:704   */\n  tag_37\n  jumpi\n    /* \"#utility.yul\":689:693   */\n  0x7f\n    /* \"#utility.yul\":681:687   */\n  dup3\n    /* \"#utility.yul\":677:694   */\n  and\n    /* \"#utility.yul\":667:694   */\n  swap2\n  pop\n    /* \"#utility.yul\":623:704   */\ntag_37:\n    /* \"#utility.yul\":751:753   */\n  0x20\n    /* \"#utility.yul\":743:749   */\n  dup3\n    /* \"#utility.yul\":740:754   */\n  lt\n    /* \"#utility.yul\":720:738   */\n  dup2\n    /* \"#utility.yul\":717:755   */\n  sub\n    /* \"#utility.yul\":714:798   */\n  tag_38\n  jumpi\n    /* \"#utility.yul\":770:788   */\n  tag_39\n  tag_14\n  jump\t// in\ntag_39:\n    /* \"#utility.yul\":714:798   */\ntag_38:\n    /* \"#utility.yul\":535:804   */\n  pop\n    /* \"#utility.yul\":484:804   */\n  swap2\n  swap1\n  pop\n  jump\t// out\n    /* \"#utility.yul\":810:951   */\ntag_16:\n    /* \"#utility.yul\":859:863   */\n  0x00\n    /* \"#utility.yul\":882:885   */\n  dup2\n    /* \"#utility.yul\":874:885   */\n  swap1\n  pop\n    /* \"#utility.yul\":905:908   */\n  dup2\n    /* \"#utility.yul\":902:903   */\n  0x00\n    /* \"#utility.yul\":895:909   */\n  mstore\n    /* \"#utility.yul\":939:943   */\n  0x20\n    /* \"#utility.yul\":936:937   */\n  0x00\n    /* \"#utility.yul\":926:944   */\n  keccak256\n    /* \"#utility.yul\":918:944   */\n  swap1\n  pop\n    /* \"#utility.yul\":810:951   */\n  swap2\n  swap1\n  pop\n  jump\t// out\n    /* \"#utility.yul\":957:1050   */\ntag_17:\n    /* \"#utility.yul\":994:1000   */\n  0x00\n    /* \"#utility.yul\":1041:1043   */\n  0x20\n    /* \"#utility.yul\":1036:1038   */\n  0x1f\n    /* \"#utility.yul\":1029:1034   */\n  dup4\n    /* \"#utility.yul\":1025:1039   */\n  add\n    /* \"#utility.yul\":1021:1044   */\n  div\n    /* \"#utility.yul\":1011:1044   */\n  swap1\n  pop\n    /* \"#utility.yul\":957:1050   */\n  swap2\n  swap1\n  pop\n  jump\t// out\n    /* \"#utility.yul\":1056:1163   */\ntag_18:\n    /* \"#utility.yul\":1100:1108   */\n  0x00\n    /* \"#utility.yul\":1150:1155   */\n  dup3\n    /* \"#utility.yul\":1144:1148   */\n  dup3\n    /* \"#utility.yul\":1140:1156   */\n  shl\n    /* \"#utility.yul\":1119:1156   */\n  swap1\n  pop\n    /* \"#utility.yul\":1056:1163   */\n  swap3\n  swap2\n  pop\n  pop\n  jump\t// out\n    /* \"#utility.yul\":1169:1562   */\ntag_19:\n    /* \"#utility.yul\":1238:1244   */\n  0x00\n    /* \"#utility.yul\":1288:1289   */\n  0x08\n    /* \"#utility.yul\":1276:1286   */\n  dup4\n    /* \"#utility.yul\":1272:1290   */\n  mul\n    /* \"#utility.yul\":1311:1408   */\n  tag_44\n    /* \"#utility.yul\":1341:1407   */\n  0xffffffffffffffffffffffffffffffffffffffffffffffffffffffffffffffff\n    /* \"#utility.yul\":1330:1339   */\n  dup3\n    /* \"#utility.yul\":1311:1408   */\n  tag_18\n  jump\t// in\ntag_44:\n    /* \"#utility.yul\":1429:1468   */\n  tag_45\n    /* \"#utility.yul\":1459:1467   */\n  dup7\n    /* \"#utility.yul\":1448:1457   */\n  dup4\n    /* \"#utility.yul\":1429:1468   */\n  tag_18\n  jump\t// in\ntag_45:\n    /* \"#utility.yul\":1417:1468   */\n  swap6\n  pop\n    /* \"#utility.yul\":1501:1505   */\n  dup1\n    /* \"#utility.yul\":1497:1506   */\n  not\n    /* \"#utility.yul\":1490:1495   */\n  dup5\n    /* \"#utility.yul\":1486:1507   */\n  and\n    /* \"#utility.yul\":1477:1507   */\n  swap4\n  pop\n    /* \"#utility.yul\":1550:1554   */\n  dup1\n    /* \"#utility.yul\":1540:1548   */\n  dup7\n    /* \"#utility.yul\":1536:1555   */\n  and\n    /* \"#utility.yul\":1529:1534   */\n  dup5\n    /* \"#utility.yul\":1526:1556   */\n  or\n    /* \"#utility.yul\":1516:1556   */\n  swap3\n  pop\n    /* \"#utility.yul\":1245:1562   */\n  pop\n  pop\n    /* \"#utility.yul\":1169:1562   */\n  swap4\n  swap3\n  pop\n  pop\n  pop\n  jump\t// out\n    /* \"#utility.yul\":1568:1645   */\ntag_20:\n    /* \"#utility.yul\":1605:1612   */\n  0x00\n    /* \"#utility.yul\":1634:1639   */\n  dup2\n    /* \"#utility.yul\":1623:1639   */\n  swap1\n  pop\n    /* \"#utility.yul\":1568:1645   */\n  swap2\n  swap1\n  pop\n  jump\t// out\n    /* \"#utility.yul\":1651:1711   */\ntag_21:\n    /* \"#utility.yul\":1679:1682   */\n  0x00\n    /* \"#utility.yul\":1700:1705   */\n  dup2\n    /* \"#utility.yul\":1693:1705   */\n  swap1\n  pop\n    /* \"#utility.yul\":1651:1711   */\n  swap2\n  swap1\n  pop\n  jump\t// out\n    /* \"#utility.yul\":1717:1859   */\ntag_22:\n    /* \"#utility.yul\":1767:1776   */\n  0x00\n    /* \"#utility.yul\":1800:1853   */\n  tag_49\n    /* \"#utility.yul\":1818:1852   */\n  tag_50\n    /* \"#utility.yul\":1827:1851   */\n  tag_51\n    /* \"#utility.yul\":1845:1850   */\n  dup5\n    /* \"#utility.yul\":1827:1851   */\n  tag_20\n  jump\t// in\ntag_51:\n    /* \"#utility.yul\":1818:1852   */\n  tag_21\n  jump\t// in\ntag_50:\n    /* \"#utility.yul\":1800:1853   */\n  tag_20\n  jump\t// in\ntag_49:\n    /* \"#utility.yul\":1787:1853   */\n  swap1\n  pop\n    /* \"#utility.yul\":1717:1859   */\n  swap2\n  swap1\n  pop\n  jump\t// out\n    /* \"#utility.yul\":1865:1940   */\ntag_23:\n    /* \"#utility.yul\":1908:1911   */\n  0x00\n    /* \"#utility.yul\":1929:1934   */\n  dup2\n    /* \"#utility.yul\":1922:1934   */\n  swap1\n  pop\n    /* \"#utility.yul\":1865:1940   */\n  swap2\n  swap1\n  pop\n  jump\t// out\n    /* \"#utility.yul\":1946:2215   */\ntag_24:\n    /* \"#utility.yul\":2056:2095   */\n  tag_54\n    /* \"#utility.yul\":2087:2094   */\n  dup4\n    /* \"#utility.yul\":2056:2095   */\n  tag_22\n  jump\t// in\ntag_54:\n    /* \"#utility.yul\":2117:2208   */\n  tag_55\n    /* \"#utility.yul\":2166:2207   */\n  tag_56\n    /* \"#utility.yul\":2190:2206   */\n  dup3\n    /* \"#utility.yul\":2166:2207   */\n  tag_23\n  jump\t// in\ntag_56:\n    /* \"#utility.yul\":2158:2164   */\n  dup5\n    /* \"#utility.yul\":2151:2155   */\n  dup5\n    /* \"#utility.yul\":2145:2156   */\n  sload\n    /* \"#utility.yul\":2117:2208   */\n  tag_19\n  jump\t// in\ntag_55:\n    /* \"#utility.yul\":2111:2115   */\n  dup3\n    /* \"#utility.yul\":2104:2209   */\n  sstore\n    /* \"#utility.yul\":2022:2215   */\n  pop\n    /* \"#utility.yul\":1946:2215   */\n  pop\n  pop\n  pop\n  jump\t// out\n    /* \"#utility.yul\":2221:2294   */\ntag_25:\n    /* \"#utility.yul\":2266:2269   */\n  0x00\n    /* \"#utility.yul\":2221:2294   */\n  swap1\n  jump\t// out\n    /* \"#utility.yul\":2300:2489   */\ntag_26:\n    /* \"#utility.yul\":2377:2409   */\n  tag_59\n  tag_25\n  jump\t// in\ntag_59:\n    /* \"#utility.yul\":2418:2483   */\n  tag_60\n    /* \"#utility.yul\":2476:2482   */\n  dup2\n    /* \"#utility.yul\":2468:2474   */\n  dup5\n    /* \"#utility.yul\":2462:2466   */\n  dup5\n    /* \"#utility.yul\":2418:2483   */\n  tag_24\n  jump\t// in\ntag_60:\n    /* \"#utility.yul\":2353:2489   */\n  pop\n    /* \"#utility.yul\":2300:2489   */\n  pop\n  pop\n  jump\t// out\n    /* \"#utility.yul\":2495:2681   */\ntag_27:\n    /* \"#utility.yul\":2555:2675   */\ntag_62:\n    /* \"#utility.yul\":2572:2575   */\n  dup2\n    /* \"#utility.yul\":2565:2570   */\n  dup2\n    /* \"#utility.yul\":2562:2576   */\n  lt\n    /* \"#utility.yul\":2555:2675   */\n  iszero\n  tag_64\n  jumpi\n    /* \"#utility.yul\":2626:2665   */\n  tag_65\n    /* \"#utility.yul\":2663:2664   */\n  0x00\n    /* \"#utility.yul\":2656:2661   */\n  dup3\n    /* \"#utility.yul\":2626:2665   */\n  tag_26\n  jump\t// in\ntag_65:\n    /* \"#utility.yul\":2599:2600   */\n  0x01\n    /* \"#utility.yul\":2592:2597   */\n  dup2\n    /* \"#utility.yul\":2588:2601   */\n  add\n    /* \"#utility.yul\":2579:2601   */\n  swap1\n  pop\n    /* \"#utility.yul\":2555:2675   */\n  jump(tag_62)\ntag_64:\n    /* \"#utility.yul\":2495:2681   */\n  pop\n  pop\n  jump\t// out\n    /* \"#utility.yul\":2687:3230   */\ntag_28:\n    /* \"#utility.yul\":2788:2790   */\n  0x1f\n    /* \"#utility.yul\":2783:2786   */\n  dup3\n    /* \"#utility.yul\":2780:2791   */\n  gt\n    /* \"#utility.yul\":2777:3223   */\n  iszero\n  tag_67\n  jumpi\n    /* \"#utility.yul\":2822:2860   */\n  tag_68\n    /* \"#utility.yul\":2854:2859   */\n  dup2\n    /* \"#utility.yul\":2822:2860   */\n  tag_16\n  jump\t// in\ntag_68:\n    /* \"#utility.yul\":2906:2935   */\n  tag_69\n    /* \"#utility.yul\":2924:2934   */\n  dup5\n    /* \"#utility.yul\":2906:2935   */\n  tag_17\n  jump\t// in\ntag_69:\n    /* \"#utility.yul\":2896:2904   */\n  dup2\n    /* \"#utility.yul\":2892:2936   */\n  add\n    /* \"#utility.yul\":3089:3091   */\n  0x20\n    /* \"#utility.yul\":3077:3087   */\n  dup6\n    /* \"#utility.yul\":3074:3092   */\n  lt\n    /* \"#utility.yul\":3071:3120   */\n  iszero\n  tag_70\n  jumpi\n    /* \"#utility.yul\":3110:3118   */\n  dup2\n    /* \"#utility.yul\":3095:3118   */\n  swap1\n  pop\n    /* \"#utility.yul\":3071:3120   */\ntag_70:\n    /* \"#utility.yul\":3133:3213   */\n  tag_71\n    /* \"#utility.yul\":3189:3211   */\n  tag_72\n    /* \"#utility.yul\":3207:3210   */\n  dup6\n    /* \"#utility.yul\":3189:3211   */\n  tag_17\n  jump\t// in\ntag_72:\n    /* \"#utility.yul\":3179:3187   */\n  dup4\n    /* \"#utility.yul\":3175:3212   */\n  add\n    /* \"#utility.yul\":3162:3173   */\n  dup3\n    /* \"#utility.yul\":3133:3213   */\n  tag_27\n  jump\t// in\ntag_71:\n    /* \"#utility.yul\":2792:3223   */\n  pop\n  pop\n    /* \"#utility.yul\":2777:3223   */\ntag_67:\n    /* \"#utility.yul\":2687:3230   */\n  pop\n  pop\n  pop\n  jump\t// out\n    /* \"#utility.yul\":3236:3353   */\ntag_29:\n    /* \"#utility.yul\":3290:3298   */\n  0x00\n    /* \"#utility.yul\":3340:3345   */\n  dup3\n    /* \"#utility.yul\":3334:3338   */\n  dup3\n    /* \"#utility.yul\":3330:3346   */\n  shr\n    /* \"#utility.yul\":3309:3346   */\n  swap1\n  pop\n    /* \"#utility.yul\":3236:3353   */\n  swap3\n  swap2\n  pop\n  pop\n  jump\t// out\n    /* \"#utility.yul\":3359:3528   */\ntag_30:\n    /* \"#utility.yul\":3403:3409   */\n  0x00\n    /* \"#utility.yul\":3436:3487   */\n  tag_75\n    /* \"#utility.yul\":3484:3485   */\n  0x00\n    /* \"#utility.yul\":3480:3486   */\n  not\n    /* \"#utility.yul\":3472:3477   */\n  dup5\n    /* \"#utility.yul\":3469:3470   */\n  0x08\n    /* \"#utility.yul\":3465:3478   */\n  mul\n    /* \"#utility.yul\":3436:3487   */\n  tag_29\n  jump\t// in\ntag_75:\n    /* \"#utility.yul\":3432:3488   */\n  not\n    /* \"#utility.yul\":3517:3521   */\n  dup1\n    /* \"#utility.yul\":3511:3515   */\n  dup4\n    /* \"#utility.yul\":3507:3522   */\n  and\n    /* \"#utility.yul\":3497:3522   */\n  swap2\n  pop\n    /* \"#utility.yul\":3410:3528   */\n  pop\n    /* \"#utility.yul\":3359:3528   */\n  swap3\n  swap2\n  pop\n  pop\n  jump\t// out\n    /* \"#utility.yul\":3533:3828   */\ntag_31:\n    /* \"#utility.yul\":3609:3613   */\n  0x00\n    /* \"#utility.yul\":3755:3784   */\n  tag_77\n    /* \"#utility.yul\":3780:3783   */\n  dup4\n    /* \"#utility.yul\":3774:3778   */\n  dup4\n    /* \"#utility.yul\":3755:3784   */\n  tag_30\n  jump\t// in\ntag_77:\n    /* \"#utility.yul\":3747:3784   */\n  swap2\n  pop\n    /* \"#utility.yul\":3817:3820   */\n  dup3\n    /* \"#utility.yul\":3814:3815   */\n  0x02\n    /* \"#utility.yul\":3810:3821   */\n  mul\n    /* \"#utility.yul\":3804:3808   */\n  dup3\n    /* \"#utility.yul\":3801:3822   */\n  or\n    /* \"#utility.yul\":3793:3822   */\n  swap1\n  pop\n    /* \"#utility.yul\":3533:3828   */\n  swap3\n  swap2\n  pop\n  pop\n  jump\t// out\n    /* \"#utility.yul\":3833:5228   */\ntag_6:\n    /* \"#utility.yul\":3950:3987   */\n  tag_79\n    /* \"#utility.yul\":3983:3986   */\n  dup3\n    /* \"#utility.yul\":3950:3987   */\n  tag_12\n  jump\t// in\ntag_79:\n    /* \"#utility.yul\":4052:4070   */\n  0xffffffffffffffff\n    /* \"#utility.yul\":4044:4050   */\n  dup2\n    /* \"#utility.yul\":4041:4071   */\n  gt\n    /* \"#utility.yul\":4038:4094   */\n  iszero\n  tag_80\n  jumpi\n    /* \"#utility.yul\":4074:4092   */\n  tag_81\n  tag_13\n  jump\t// in\ntag_81:\n    /* \"#utility.yul\":4038:4094   */\ntag_80:\n    /* \"#utility.yul\":4118:4156   */\n  tag_82\n    /* \"#utility.yul\":4150:4154   */\n  dup3\n    /* \"#utility.yul\":4144:4155   */\n  sload\n    /* \"#utility.yul\":4118:4156   */\n  tag_15\n  jump\t// in\ntag_82:\n    /* \"#utility.yul\":4203:4270   */\n  tag_83\n    /* \"#utility.yul\":4263:4269   */\n  dup3\n    /* \"#utility.yul\":4255:4261   */\n  dup3\n    /* \"#utility.yul\":4249:4253   */\n  dup6\n    /* \"#utility.yul\":4203:4270   */\n  tag_28\n  jump\t// in\ntag_83:\n    /* \"#utility.yul\":4297:4298   */\n  0x00\n    /* \"#utility.yul\":4321:4325   */\n  0x20\n    /* \"#utility.yul\":4308:4325   */\n  swap1\n  pop\n    /* \"#utility.yul\":4353:4355   */\n  0x1f\n    /* \"#utility.yul\":4345:4351   */\n  dup4\n    /* \"#utility.yul\":4342:4356   */\n  gt\n    /* \"#utility.yul\":4370:4371   */\n  0x01\n    /* \"#utility.yul\":4365:4983   */\n  dup2\n  eq\n  tag_85\n  jumpi\n    /* \"#utility.yul\":5027:5028   */\n  0x00\n    /* \"#utility.yul\":5044:5050   */\n  dup5\n    /* \"#utility.yul\":5041:5118   */\n  iszero\n  tag_86\n  jumpi\n    /* \"#utility.yul\":5093:5102   */\n  dup3\n    /* \"#utility.yul\":5088:5091   */\n  dup8\n    /* \"#utility.yul\":5084:5103   */\n  add\n    /* \"#utility.yul\":5078:5104   */\n  mload\n    /* \"#utility.yul\":5069:5104   */\n  swap1\n  pop\n    /* \"#utility.yul\":5041:5118   */\ntag_86:\n    /* \"#utility.yul\":5144:5211   */\n  tag_87\n    /* \"#utility.yul\":5204:5210   */\n  dup6\n    /* \"#utility.yul\":5197:5202   */\n  dup3\n    /* \"#utility.yul\":5144:5211   */\n  tag_31\n  jump\t// in\ntag_87:\n    /* \"#utility.yul\":5138:5142   */\n  dup7\n    /* \"#utility.yul\":5131:5212   */\n  sstore\n    /* \"#utility.yul\":5000:5222   */\n  pop\n    /* \"#utility.yul\":4335:5222   */\n  jump(tag_84)\n    /* \"#utility.yul\":4365:4983   */\ntag_85:\n    /* \"#utility.yul\":4417:4421   */\n  0x1f\n    /* \"#utility.yul\":4413:4422   */\n  not\n    /* \"#utility.yul\":4405:4411   */\n  dup5\n    /* \"#utility.yul\":4401:4423   */\n  and\n    /* \"#utility.yul\":4451:4488   */\n  tag_88\n    /* \"#utility.yul\":4483:4487   */\n  dup7\n    /* \"#utility.yul\":4451:4488   */\n  tag_16\n  jump\t// in\ntag_88:\n    /* \"#utility.yul\":4510:4511   */\n  0x00\n    /* \"#utility.yul\":4524:4732   */\ntag_89:\n    /* \"#utility.yul\":4538:4545   */\n  dup3\n    /* \"#utility.yul\":4535:4536   */\n  dup2\n    /* \"#utility.yul\":4532:4546   */\n  lt\n    /* \"#utility.yul\":4524:4732   */\n  iszero\n  tag_91\n  jumpi\n    /* \"#utility.yul\":4617:4626   */\n  dup5\n    /* \"#utility.yul\":4612:4615   */\n  dup10\n    /* \"#utility.yul\":4608:4627   */\n  add\n    /* \"#utility.yul\":4602:4628   */\n  mload\n    /* \"#utility.yul\":4594:4600   */\n  dup3\n    /* \"#utility.yul\":4587:4629   */\n  sstore\n    /* \"#utility.yul\":4668:4669   */\n  0x01\n    /* \"#utility.yul\":4660:4666   */\n  dup3\n    /* \"#utility.yul\":4656:4670   */\n  add\n    /* \"#utility.yul\":4646:4670   */\n  swap2\n  pop\n    /* \"#utility.yul\":4715:4717   */\n  0x20\n    /* \"#utility.yul\":4704:4713   */\n  dup6\n    /* \"#utility.yul\":4700:4718   */\n  add\n    /* \"#utility.yul\":4687:4718   */\n  swap5\n  pop\n    /* \"#utility.yul\":4561:4565   */\n  0x20\n    /* \"#utility.yul\":4558:4559   */\n  dup2\n    /* \"#utility.yul\":4554:4566   */\n  add\n    /* \"#utility.yul\":4549:4566   */\n  swap1\n  pop\n    /* \"#utility.yul\":4524:4732   */\n  jump(tag_89)\ntag_91:\n    /* \"#utility.yul\":4760:4766   */\n  dup7\n    /* \"#utility.yul\":4751:4758   */\n  dup4\n    /* \"#utility.yul\":4748:4767   */\n  lt\n    /* \"#utility.yul\":4745:4924   */\n  iszero\n  tag_92\n  jumpi\n    /* \"#utility.yul\":4818:4827   */\n  dup5\n    /* \"#utility.yul\":4813:4816   */\n  dup10\n    /* \"#utility.yul\":4809:4828   */\n  add\n    /* \"#utility.yul\":4803:4829   */\n  mload\n    /* \"#utility.yul\":4861:4909   */\n  tag_93\n    /* \"#utility.yul\":4903:4907   */\n  0x1f\n    /* \"#utility.yul\":4895:4901   */\n  dup10\n    /* \"#utility.yul\":4891:4908   */\n  and\n    /* \"#utility.yul\":4880:4889   */\n  dup3\n    /* \"#utility.yul\":4861:4909   */\n  tag_30\n  jump\t// in\ntag_93:\n    /* \"#utility.yul\":4853:4859   */\n  dup4\n    /* \"#utility.yul\":4846:4910   */\n  sstore\n    /* \"#utility.yul\":4768:4924   */\n  pop\n    /* \"#utility.yul\":4745:4924   */\ntag_92:\n    /* \"#utility.yul\":4970:4971   */\n  0x01\n    /* \"#utility.yul\":4966:4967   */\n  0x02\n    /* \"#utility.yul\":4958:4964   */\n  dup9\n    /* \"#utility.yul\":4954:4968   */\n  mul\n    /* \"#utility.yul\":4950:4972   */\n  add\n    /* \"#utility.yul\":4944:4948   */\n  dup9\n    /* \"#utility.yul\":4937:4973   */\n  sstore\n    /* \"#utility.yul\":4372:4983   */\n  pop\n  pop\n  pop\n    /* \"#utility.yul\":4335:5222   */\ntag_84:\n  pop\n    /* \"#utility.yul\":3925:5228   */\n  pop\n  pop\n  pop\n    /* \"#utility.yul\":3833:5228   */\n  pop\n  pop\n  jump\t// out\n    /* \"Expense_Tracker.sol\":298:1241  contract ExpenseTracker {... */\ntag_11:\n  dataSize(sub_0)\n  dup1\n  dataOffset(sub_0)\n  0x00\n  codecopy\n  0x00\n  return\nstop\n\nsub_0: assembly {\n        /* \"Expense_Tracker.sol\":298:1241  contract ExpenseTracker {... */\n      mstore(0x40, 0x80)\n      callvalue\n      dup1\n      iszero\n      tag_1\n      jumpi\n      0x00\n      dup1\n      revert\n    tag_1:\n      pop\n      jumpi(tag_2, lt(calldatasize, 0x04))\n      shr(0xe0, calldataload(0x00))\n      dup1\n      0x3fb457e4\n      eq\n      tag_3\n      jumpi\n      dup1\n      0xa4df1f5a\n      eq\n      tag_4\n      jumpi\n      dup1\n      0xaf4afe0a\n      eq\n      tag_5\n      jumpi\n      dup1\n      0xdd53ff6c\n      eq\n      tag_6\n      jumpi\n    tag_2:\n      0x00\n      dup1\n      revert\n        /* \"Expense_Tracker.sol\":846:1130  function getTotalExpenses(address _user) public view returns (uint){... */\n    tag_3:\n      tag_7\n      0x04\n      dup1\n      calldatasize\n      sub\n      dup2\n      add\n      swap1\n      tag_8\n      swap2\n      swap1\n      tag_9\n      jump\t// in\n    tag_8:\n      tag_10\n      jump\t// in\n    tag_7:\n      mload(0x40)\n      tag_11\n      swap2\n      swap1\n      tag_12\n      jump\t// in\n    tag_11:\n      mload(0x40)\n      dup1\n      swap2\n      sub\n      swap1\n      return\n        /* \"Expense_Tracker.sol\":685:838  function addExpense(string memory _description, uint _amount) public  {... */\n    tag_4:\n      tag_13\n      0x04\n      dup1\n      calldatasize\n      sub\n      dup2\n      add\n      swap1\n      tag_14\n      swap2\n      swap1\n      tag_15\n      jump\t// in\n    tag_14:\n      tag_16\n      jump\t// in\n    tag_13:\n      stop\n        /* \"Expense_Tracker.sol\":436:461  Expense[] public expenses */\n    tag_5:\n      tag_17\n      0x04\n      dup1\n      calldatasize\n      sub\n      dup2\n      add\n      swap1\n      tag_18\n      swap2\n      swap1\n      tag_19\n      jump\t// in\n    tag_18:\n      tag_20\n      jump\t// in\n    tag_17:\n      mload(0x40)\n      tag_21\n      swap4\n      swap3\n      swap2\n      swap1\n      tag_22\n      jump\t// in\n    tag_21:\n      mload(0x40)\n      dup1\n      swap2\n      sub\n      swap1\n      return\n        /* \"Expense_Tracker.sol\":1138:1236  function getAllExpenses() public view returns (Expense[] memory){... */\n    tag_6:\n      tag_23\n      tag_24\n      jump\t// in\n    tag_23:\n      mload(0x40)\n      tag_25\n      swap2\n      swap1\n      tag_26\n      jump\t// in\n    tag_25:\n      mload(0x40)\n      dup1\n      swap2\n      sub\n      swap1\n      return\n        /* \"Expense_Tracker.sol\":846:1130  function getTotalExpenses(address _user) public view returns (uint){... */\n    tag_10:\n        /* \"Expense_Tracker.sol\":908:912  uint */\n      0x00\n        /* \"Expense_Tracker.sol\":924:937  uint256 total */\n      dup1\n        /* \"Expense_Tracker.sol\":938:939  0 */\n      0x00\n        /* \"Expense_Tracker.sol\":924:939  uint256 total=0 */\n      swap1\n      pop\n        /* \"Expense_Tracker.sol\":954:960  uint i */\n      0x00\n        /* \"Expense_Tracker.sol\":950:1100  for(uint i=0;i<expenses.length;i++){... */\n    tag_28:\n        /* \"Expense_Tracker.sol\":965:973  expenses */\n      0x00\n        /* \"Expense_Tracker.sol\":965:980  expenses.length */\n      dup1\n      sload\n      swap1\n      pop\n        /* \"Expense_Tracker.sol\":963:964  i */\n      dup2\n        /* \"Expense_Tracker.sol\":963:980  i<expenses.length */\n      lt\n        /* \"Expense_Tracker.sol\":950:1100  for(uint i=0;i<expenses.length;i++){... */\n      iszero\n      tag_29\n      jumpi\n        /* \"Expense_Tracker.sol\":1023:1028  _user */\n      dup4\n        /* \"Expense_Tracker.sol\":1003:1028  expenses[i].user == _user */\n      0xffffffffffffffffffffffffffffffffffffffff\n      and\n        /* \"Expense_Tracker.sol\":1003:1011  expenses */\n      0x00\n        /* \"Expense_Tracker.sol\":1012:1013  i */\n      dup3\n        /* \"Expense_Tracker.sol\":1003:1014  expenses[i] */\n      dup2\n      sload\n      dup2\n      lt\n      tag_31\n      jumpi\n      tag_32\n      tag_33\n      jump\t// in\n    tag_32:\n    tag_31:\n      swap1\n      0x00\n      mstore\n      keccak256(0x00, 0x20)\n      swap1\n      0x03\n      mul\n      add\n        /* \"Expense_Tracker.sol\":1003:1019  expenses[i].user */\n      0x00\n      add\n      0x00\n      swap1\n      sload\n      swap1\n      0x0100\n      exp\n      swap1\n      div\n      0xffffffffffffffffffffffffffffffffffffffff\n      and\n        /* \"Expense_Tracker.sol\":1003:1028  expenses[i].user == _user */\n      0xffffffffffffffffffffffffffffffffffffffff\n      and\n      sub\n        /* \"Expense_Tracker.sol\":1000:1089  if(expenses[i].user == _user){... */\n      tag_35\n      jumpi\n        /* \"Expense_Tracker.sol\":1055:1063  expenses */\n      0x00\n        /* \"Expense_Tracker.sol\":1064:1065  i */\n      dup2\n        /* \"Expense_Tracker.sol\":1055:1066  expenses[i] */\n      dup2\n      sload\n      dup2\n      lt\n      tag_36\n      jumpi\n      tag_37\n      tag_33\n      jump\t// in\n    tag_37:\n    tag_36:\n      swap1\n      0x00\n      mstore\n      keccak256(0x00, 0x20)\n      swap1\n      0x03\n      mul\n      add\n        /* \"Expense_Tracker.sol\":1055:1073  expenses[i].amount */\n      0x02\n      add\n      sload\n        /* \"Expense_Tracker.sol\":1048:1073  total+=expenses[i].amount */\n      dup3\n      tag_39\n      swap2\n      swap1\n      tag_40\n      jump\t// in\n    tag_39:\n      swap2\n      pop\n        /* \"Expense_Tracker.sol\":1000:1089  if(expenses[i].user == _user){... */\n    tag_35:\n        /* \"Expense_Tracker.sol\":981:984  i++ */\n      dup1\n      dup1\n      0x01\n      add\n      swap2\n      pop\n      pop\n        /* \"Expense_Tracker.sol\":950:1100  for(uint i=0;i<expenses.length;i++){... */\n      jump(tag_28)\n    tag_29:\n      pop\n        /* \"Expense_Tracker.sol\":1117:1122  total */\n      dup1\n        /* \"Expense_Tracker.sol\":1110:1122  return total */\n      swap2\n      pop\n      pop\n        /* \"Expense_Tracker.sol\":846:1130  function getTotalExpenses(address _user) public view returns (uint){... */\n      swap2\n      swap1\n      pop\n      jump\t// out\n        /* \"Expense_Tracker.sol\":685:838  function addExpense(string memory _description, uint _amount) public  {... */\n    tag_16:\n        /* \"Expense_Tracker.sol\":773:781  expenses */\n      0x00\n        /* \"Expense_Tracker.sol\":787:829  Expense(msg.sender, _description, _amount) */\n      mload(0x40)\n      dup1\n      0x60\n      add\n      0x40\n      mstore\n      dup1\n        /* \"Expense_Tracker.sol\":795:805  msg.sender */\n      caller\n        /* \"Expense_Tracker.sol\":787:829  Expense(msg.sender, _description, _amount) */\n      0xffffffffffffffffffffffffffffffffffffffff\n      and\n      dup2\n      mstore\n      0x20\n      add\n        /* \"Expense_Tracker.sol\":807:819  _description */\n      dup5\n        /* \"Expense_Tracker.sol\":787:829  Expense(msg.sender, _description, _amount) */\n      dup2\n      mstore\n      0x20\n      add\n        /* \"Expense_Tracker.sol\":821:828  _amount */\n      dup4\n        /* \"Expense_Tracker.sol\":787:829  Expense(msg.sender, _description, _amount) */\n      dup2\n      mstore\n      pop\n        /* \"Expense_Tracker.sol\":773:830  expenses.push(Expense(msg.sender, _description, _amount)) */\n      swap1\n      dup1\n      0x01\n      dup2\n      sload\n      add\n      dup1\n      dup3\n      sstore\n      dup1\n      swap2\n      pop\n      pop\n      0x01\n      swap1\n      sub\n      swap1\n      0x00\n      mstore\n      keccak256(0x00, 0x20)\n      swap1\n      0x03\n      mul\n      add\n      0x00\n      swap1\n      swap2\n      swap1\n      swap2\n      swap1\n      swap2\n      pop\n      0x00\n      dup3\n      add\n      mload\n      dup2\n      0x00\n      add\n      exp(0x0100, 0x00)\n      dup2\n      sload\n      dup2\n      0xffffffffffffffffffffffffffffffffffffffff\n      mul\n      not\n      and\n      swap1\n      dup4\n      0xffffffffffffffffffffffffffffffffffffffff\n      and\n      mul\n      or\n      swap1\n      sstore\n      pop\n      0x20\n      dup3\n      add\n      mload\n      dup2\n      0x01\n      add\n      swap1\n      dup2\n      tag_43\n      swap2\n      swap1\n      tag_44\n      jump\t// in\n    tag_43:\n      pop\n      0x40\n      dup3\n      add\n      mload\n      dup2\n      0x02\n      add\n      sstore\n      pop\n      pop\n        /* \"Expense_Tracker.sol\":685:838  function addExpense(string memory _description, uint _amount) public  {... */\n      pop\n      pop\n      jump\t// out\n        /* \"Expense_Tracker.sol\":436:461  Expense[] public expenses */\n    tag_20:\n      0x00\n      dup2\n      dup2\n      sload\n      dup2\n      lt\n      tag_45\n      jumpi\n      0x00\n      dup1\n      revert\n    tag_45:\n      swap1\n      0x00\n      mstore\n      keccak256(0x00, 0x20)\n      swap1\n      0x03\n      mul\n      add\n      0x00\n      swap2\n      pop\n      swap1\n      pop\n      dup1\n      0x00\n      add\n      0x00\n      swap1\n      sload\n      swap1\n      0x0100\n      exp\n      swap1\n      div\n      0xffffffffffffffffffffffffffffffffffffffff\n      and\n      swap1\n      dup1\n      0x01\n      add\n      dup1\n      sload\n      tag_47\n      swap1\n      tag_48\n      jump\t// in\n    tag_47:\n      dup1\n      0x1f\n      add\n      0x20\n      dup1\n      swap2\n      div\n      mul\n      0x20\n      add\n      mload(0x40)\n      swap1\n      dup2\n      add\n      0x40\n      mstore\n      dup1\n      swap3\n      swap2\n      swap1\n      dup2\n      dup2\n      mstore\n      0x20\n      add\n      dup3\n      dup1\n      sload\n      tag_49\n      swap1\n      tag_48\n      jump\t// in\n    tag_49:\n      dup1\n      iszero\n      tag_50\n      jumpi\n      dup1\n      0x1f\n      lt\n      tag_51\n      jumpi\n      0x0100\n      dup1\n      dup4\n      sload\n      div\n      mul\n      dup4\n      mstore\n      swap2\n      0x20\n      add\n      swap2\n      jump(tag_50)\n    tag_51:\n      dup3\n      add\n      swap2\n      swap1\n      0x00\n      mstore\n      keccak256(0x00, 0x20)\n      swap1\n    tag_52:\n      dup2\n      sload\n      dup2\n      mstore\n      swap1\n      0x01\n      add\n      swap1\n      0x20\n      add\n      dup1\n      dup4\n      gt\n      tag_52\n      jumpi\n      dup3\n      swap1\n      sub\n      0x1f\n      and\n      dup3\n      add\n      swap2\n    tag_50:\n      pop\n      pop\n      pop\n      pop\n      pop\n      swap1\n      dup1\n      0x02\n      add\n      sload\n      swap1\n      pop\n      dup4\n      jump\t// out\n        /* \"Expense_Tracker.sol\":1138:1236  function getAllExpenses() public view returns (Expense[] memory){... */\n    tag_24:\n        /* \"Expense_Tracker.sol\":1185:1201  Expense[] memory */\n      0x60\n        /* \"Expense_Tracker.sol\":1220:1228  expenses */\n      0x00\n        /* \"Expense_Tracker.sol\":1213:1228  return expenses */\n      dup1\n      sload\n      dup1\n      0x20\n      mul\n      0x20\n      add\n      mload(0x40)\n      swap1\n      dup2\n      add\n      0x40\n      mstore\n      dup1\n      swap3\n      swap2\n      swap1\n      dup2\n      dup2\n      mstore\n      0x20\n      add\n      0x00\n      swap1\n    tag_54:\n      dup3\n      dup3\n      lt\n      iszero\n      tag_55\n      jumpi\n      dup4\n      dup3\n      swap1\n      0x00\n      mstore\n      keccak256(0x00, 0x20)\n      swap1\n      0x03\n      mul\n      add\n      mload(0x40)\n      dup1\n      0x60\n      add\n      0x40\n      mstore\n      swap1\n      dup2\n      0x00\n      dup3\n      add\n      0x00\n      swap1\n      sload\n      swap1\n      0x0100\n      exp\n      swap1\n      div\n      0xffffffffffffffffffffffffffffffffffffffff\n      and\n      0xffffffffffffffffffffffffffffffffffffffff\n      and\n      0xffffffffffffffffffffffffffffffffffffffff\n      and\n      dup2\n      mstore\n      0x20\n      add\n      0x01\n      dup3\n      add\n      dup1\n      sload\n      tag_57\n      swap1\n      tag_48\n      jump\t// in\n    tag_57:\n      dup1\n      0x1f\n      add\n      0x20\n      dup1\n      swap2\n      div\n      mul\n      0x20\n      add\n      mload(0x40)\n      swap1\n      dup2\n      add\n      0x40\n      mstore\n      dup1\n      swap3\n      swap2\n      swap1\n      dup2\n      dup2\n      mstore\n      0x20\n      add\n      dup3\n      dup1\n      sload\n      tag_58\n      swap1\n      tag_48\n      jump\t// in\n    tag_58:\n      dup1\n      iszero\n      tag_59\n      jumpi\n      dup1\n      0x1f\n      lt\n      tag_60\n      jumpi\n      0x0100\n      dup1\n      dup4\n      sload\n      div\n      mul\n      dup4\n      mstore\n      swap2\n      0x20\n      add\n      swap2\n      jump(tag_59)\n    tag_60:\n      dup3\n      add\n      swap2\n      swap1\n      0x00\n      mstore\n      keccak256(0x00, 0x20)\n      swap1\n    tag_61:\n      dup2\n      sload\n      dup2\n      mstore\n      swap1\n      0x01\n      add\n      swap1\n      0x20\n      add\n      dup1\n      dup4\n      gt\n      tag_61\n      jumpi\n      dup3\n      swap1\n      sub\n      0x1f\n      and\n      dup3\n      add\n      swap2\n    tag_59:\n      pop\n      pop\n      pop\n      pop\n      pop\n      dup2\n      mstore\n      0x20\n      add\n      0x02\n      dup3\n      add\n      sload\n      dup2\n      mstore\n      pop\n      pop\n      dup2\n      mstore\n      0x20\n      add\n      swap1\n      0x01\n      add\n      swap1\n      jump(tag_54)\n    tag_55:\n      pop\n      pop\n      pop\n      pop\n      swap1\n      pop\n        /* \"Expense_Tracker.sol\":1138:1236  function getAllExpenses() public view returns (Expense[] memory){... */\n      swap1\n      jump\t// out\n        /* \"#utility.yul\":7:82   */\n    tag_62:\n        /* \"#utility.yul\":40:46   */\n      0x00\n        /* \"#utility.yul\":73:75   */\n      0x40\n        /* \"#utility.yul\":67:76   */\n      mload\n        /* \"#utility.yul\":57:76   */\n      swap1\n      pop\n        /* \"#utility.yul\":7:82   */\n      swap1\n      jump\t// out\n        /* \"#utility.yul\":88:205   */\n    tag_63:\n        /* \"#utility.yul\":197:198   */\n      0x00\n        /* \"#utility.yul\":194:195   */\n      dup1\n        /* \"#utility.yul\":187:199   */\n      revert\n        /* \"#utility.yul\":211:328   */\n    tag_64:\n        /* \"#utility.yul\":320:321   */\n      0x00\n        /* \"#utility.yul\":317:318   */\n      dup1\n        /* \"#utility.yul\":310:322   */\n      revert\n        /* \"#utility.yul\":334:460   */\n    tag_65:\n        /* \"#utility.yul\":371:378   */\n      0x00\n        /* \"#utility.yul\":411:453   */\n      0xffffffffffffffffffffffffffffffffffffffff\n        /* \"#utility.yul\":404:409   */\n      dup3\n        /* \"#utility.yul\":400:454   */\n      and\n        /* \"#utility.yul\":389:454   */\n      swap1\n      pop\n        /* \"#utility.yul\":334:460   */\n      swap2\n      swap1\n      pop\n      jump\t// out\n        /* \"#utility.yul\":466:562   */\n    tag_66:\n        /* \"#utility.yul\":503:510   */\n      0x00\n        /* \"#utility.yul\":532:556   */\n      tag_122\n        /* \"#utility.yul\":550:555   */\n      dup3\n        /* \"#utility.yul\":532:556   */\n      tag_65\n      jump\t// in\n    tag_122:\n        /* \"#utility.yul\":521:556   */\n      swap1\n      pop\n        /* \"#utility.yul\":466:562   */\n      swap2\n      swap1\n      pop\n      jump\t// out\n        /* \"#utility.yul\":568:690   */\n    tag_67:\n        /* \"#utility.yul\":641:665   */\n      tag_124\n        /* \"#utility.yul\":659:664   */\n      dup2\n        /* \"#utility.yul\":641:665   */\n      tag_66\n      jump\t// in\n    tag_124:\n        /* \"#utility.yul\":634:639   */\n      dup2\n        /* \"#utility.yul\":631:666   */\n      eq\n        /* \"#utility.yul\":621:684   */\n      tag_125\n      jumpi\n        /* \"#utility.yul\":680:681   */\n      0x00\n        /* \"#utility.yul\":677:678   */\n      dup1\n        /* \"#utility.yul\":670:682   */\n      revert\n        /* \"#utility.yul\":621:684   */\n    tag_125:\n        /* \"#utility.yul\":568:690   */\n      pop\n      jump\t// out\n        /* \"#utility.yul\":696:835   */\n    tag_68:\n        /* \"#utility.yul\":742:747   */\n      0x00\n        /* \"#utility.yul\":780:786   */\n      dup2\n        /* \"#utility.yul\":767:787   */\n      calldataload\n        /* \"#utility.yul\":758:787   */\n      swap1\n      pop\n        /* \"#utility.yul\":796:829   */\n      tag_127\n        /* \"#utility.yul\":823:828   */\n      dup2\n        /* \"#utility.yul\":796:829   */\n      tag_67\n      jump\t// in\n    tag_127:\n        /* \"#utility.yul\":696:835   */\n      swap3\n      swap2\n      pop\n      pop\n      jump\t// out\n        /* \"#utility.yul\":841:1170   */\n    tag_9:\n        /* \"#utility.yul\":900:906   */\n      0x00\n        /* \"#utility.yul\":949:951   */\n      0x20\n        /* \"#utility.yul\":937:946   */\n      dup3\n        /* \"#utility.yul\":928:935   */\n      dup5\n        /* \"#utility.yul\":924:947   */\n      sub\n        /* \"#utility.yul\":920:952   */\n      slt\n        /* \"#utility.yul\":917:1036   */\n      iszero\n      tag_129\n      jumpi\n        /* \"#utility.yul\":955:1034   */\n      tag_130\n      tag_63\n      jump\t// in\n    tag_130:\n        /* \"#utility.yul\":917:1036   */\n    tag_129:\n        /* \"#utility.yul\":1075:1076   */\n      0x00\n        /* \"#utility.yul\":1100:1153   */\n      tag_131\n        /* \"#utility.yul\":1145:1152   */\n      dup5\n        /* \"#utility.yul\":1136:1142   */\n      dup3\n        /* \"#utility.yul\":1125:1134   */\n      dup6\n        /* \"#utility.yul\":1121:1143   */\n      add\n        /* \"#utility.yul\":1100:1153   */\n      tag_68\n      jump\t// in\n    tag_131:\n        /* \"#utility.yul\":1090:1153   */\n      swap2\n      pop\n        /* \"#utility.yul\":1046:1163   */\n      pop\n        /* \"#utility.yul\":841:1170   */\n      swap3\n      swap2\n      pop\n      pop\n      jump\t// out\n        /* \"#utility.yul\":1176:1253   */\n    tag_69:\n        /* \"#utility.yul\":1213:1220   */\n      0x00\n        /* \"#utility.yul\":1242:1247   */\n      dup2\n        /* \"#utility.yul\":1231:1247   */\n      swap1\n      pop\n        /* \"#utility.yul\":1176:1253   */\n      swap2\n      swap1\n      pop\n      jump\t// out\n        /* \"#utility.yul\":1259:1377   */\n    tag_70:\n        /* \"#utility.yul\":1346:1370   */\n      tag_134\n        /* \"#utility.yul\":1364:1369   */\n      dup2\n        /* \"#utility.yul\":1346:1370   */\n      tag_69\n      jump\t// in\n    tag_134:\n        /* \"#utility.yul\":1341:1344   */\n      dup3\n        /* \"#utility.yul\":1334:1371   */\n      mstore\n        /* \"#utility.yul\":1259:1377   */\n      pop\n      pop\n      jump\t// out\n        /* \"#utility.yul\":1383:1605   */\n    tag_12:\n        /* \"#utility.yul\":1476:1480   */\n      0x00\n        /* \"#utility.yul\":1514:1516   */\n      0x20\n        /* \"#utility.yul\":1503:1512   */\n      dup3\n        /* \"#utility.yul\":1499:1517   */\n      add\n        /* \"#utility.yul\":1491:1517   */\n      swap1\n      pop\n        /* \"#utility.yul\":1527:1598   */\n      tag_136\n        /* \"#utility.yul\":1595:1596   */\n      0x00\n        /* \"#utility.yul\":1584:1593   */\n      dup4\n        /* \"#utility.yul\":1580:1597   */\n      add\n        /* \"#utility.yul\":1571:1577   */\n      dup5\n        /* \"#utility.yul\":1527:1598   */\n      tag_70\n      jump\t// in\n    tag_136:\n        /* \"#utility.yul\":1383:1605   */\n      swap3\n      swap2\n      pop\n      pop\n      jump\t// out\n        /* \"#utility.yul\":1611:1728   */\n    tag_71:\n        /* \"#utility.yul\":1720:1721   */\n      0x00\n        /* \"#utility.yul\":1717:1718   */\n      dup1\n        /* \"#utility.yul\":1710:1722   */\n      revert\n        /* \"#utility.yul\":1734:1851   */\n    tag_72:\n        /* \"#utility.yul\":1843:1844   */\n      0x00\n        /* \"#utility.yul\":1840:1841   */\n      dup1\n        /* \"#utility.yul\":1833:1845   */\n      revert\n        /* \"#utility.yul\":1857:1959   */\n    tag_73:\n        /* \"#utility.yul\":1898:1904   */\n      0x00\n        /* \"#utility.yul\":1949:1951   */\n      0x1f\n        /* \"#utility.yul\":1945:1952   */\n      not\n        /* \"#utility.yul\":1940:1942   */\n      0x1f\n        /* \"#utility.yul\":1933:1938   */\n      dup4\n        /* \"#utility.yul\":1929:1943   */\n      add\n        /* \"#utility.yul\":1925:1953   */\n      and\n        /* \"#utility.yul\":1915:1953   */\n      swap1\n      pop\n        /* \"#utility.yul\":1857:1959   */\n      swap2\n      swap1\n      pop\n      jump\t// out\n        /* \"#utility.yul\":1965:2145   */\n    tag_74:\n        /* \"#utility.yul\":2013:2090   */\n      0x4e487b7100000000000000000000000000000000000000000000000000000000\n        /* \"#utility.yul\":2010:2011   */\n      0x00\n        /* \"#utility.yul\":2003:2091   */\n      mstore\n        /* \"#utility.yul\":2110:2114   */\n      0x41\n        /* \"#utility.yul\":2107:2108   */\n      0x04\n        /* \"#utility.yul\":2100:2115   */\n      mstore\n        /* \"#utility.yul\":2134:2138   */\n      0x24\n        /* \"#utility.yul\":2131:2132   */\n      0x00\n        /* \"#utility.yul\":2124:2139   */\n      revert\n        /* \"#utility.yul\":2151:2432   */\n    tag_75:\n        /* \"#utility.yul\":2234:2261   */\n      tag_142\n        /* \"#utility.yul\":2256:2260   */\n      dup3\n        /* \"#utility.yul\":2234:2261   */\n      tag_73\n      jump\t// in\n    tag_142:\n        /* \"#utility.yul\":2226:2232   */\n      dup2\n        /* \"#utility.yul\":2222:2262   */\n      add\n        /* \"#utility.yul\":2364:2370   */\n      dup2\n        /* \"#utility.yul\":2352:2362   */\n      dup2\n        /* \"#utility.yul\":2349:2371   */\n      lt\n        /* \"#utility.yul\":2328:2346   */\n      0xffffffffffffffff\n        /* \"#utility.yul\":2316:2326   */\n      dup3\n        /* \"#utility.yul\":2313:2347   */\n      gt\n        /* \"#utility.yul\":2310:2372   */\n      or\n        /* \"#utility.yul\":2307:2395   */\n      iszero\n      tag_143\n      jumpi\n        /* \"#utility.yul\":2375:2393   */\n      tag_144\n      tag_74\n      jump\t// in\n    tag_144:\n        /* \"#utility.yul\":2307:2395   */\n    tag_143:\n        /* \"#utility.yul\":2415:2425   */\n      dup1\n        /* \"#utility.yul\":2411:2413   */\n      0x40\n        /* \"#utility.yul\":2404:2426   */\n      mstore\n        /* \"#utility.yul\":2194:2432   */\n      pop\n        /* \"#utility.yul\":2151:2432   */\n      pop\n      pop\n      jump\t// out\n        /* \"#utility.yul\":2438:2567   */\n    tag_76:\n        /* \"#utility.yul\":2472:2478   */\n      0x00\n        /* \"#utility.yul\":2499:2519   */\n      tag_146\n      tag_62\n      jump\t// in\n    tag_146:\n        /* \"#utility.yul\":2489:2519   */\n      swap1\n      pop\n        /* \"#utility.yul\":2528:2561   */\n      tag_147\n        /* \"#utility.yul\":2556:2560   */\n      dup3\n        /* \"#utility.yul\":2548:2554   */\n      dup3\n        /* \"#utility.yul\":2528:2561   */\n      tag_75\n      jump\t// in\n    tag_147:\n        /* \"#utility.yul\":2438:2567   */\n      swap2\n      swap1\n      pop\n      jump\t// out\n        /* \"#utility.yul\":2573:2881   */\n    tag_77:\n        /* \"#utility.yul\":2635:2639   */\n      0x00\n        /* \"#utility.yul\":2725:2743   */\n      0xffffffffffffffff\n        /* \"#utility.yul\":2717:2723   */\n      dup3\n        /* \"#utility.yul\":2714:2744   */\n      gt\n        /* \"#utility.yul\":2711:2767   */\n      iszero\n      tag_149\n      jumpi\n        /* \"#utility.yul\":2747:2765   */\n      tag_150\n      tag_74\n      jump\t// in\n    tag_150:\n        /* \"#utility.yul\":2711:2767   */\n    tag_149:\n        /* \"#utility.yul\":2785:2814   */\n      tag_151\n        /* \"#utility.yul\":2807:2813   */\n      dup3\n        /* \"#utility.yul\":2785:2814   */\n      tag_73\n      jump\t// in\n    tag_151:\n        /* \"#utility.yul\":2777:2814   */\n      swap1\n      pop\n        /* \"#utility.yul\":2869:2873   */\n      0x20\n        /* \"#utility.yul\":2863:2867   */\n      dup2\n        /* \"#utility.yul\":2859:2874   */\n      add\n        /* \"#utility.yul\":2851:2874   */\n      swap1\n      pop\n        /* \"#utility.yul\":2573:2881   */\n      swap2\n      swap1\n      pop\n      jump\t// out\n        /* \"#utility.yul\":2887:3033   */\n    tag_78:\n        /* \"#utility.yul\":2984:2990   */\n      dup3\n        /* \"#utility.yul\":2979:2982   */\n      dup2\n        /* \"#utility.yul\":2974:2977   */\n      dup4\n        /* \"#utility.yul\":2961:2991   */\n      calldatacopy\n        /* \"#utility.yul\":3025:3026   */\n      0x00\n        /* \"#utility.yul\":3016:3022   */\n      dup4\n        /* \"#utility.yul\":3011:3014   */\n      dup4\n        /* \"#utility.yul\":3007:3023   */\n      add\n        /* \"#utility.yul\":3000:3027   */\n      mstore\n        /* \"#utility.yul\":2887:3033   */\n      pop\n      pop\n      pop\n      jump\t// out\n        /* \"#utility.yul\":3039:3464   */\n    tag_79:\n        /* \"#utility.yul\":3117:3122   */\n      0x00\n        /* \"#utility.yul\":3142:3208   */\n      tag_154\n        /* \"#utility.yul\":3158:3207   */\n      tag_155\n        /* \"#utility.yul\":3200:3206   */\n      dup5\n        /* \"#utility.yul\":3158:3207   */\n      tag_77\n      jump\t// in\n    tag_155:\n        /* \"#utility.yul\":3142:3208   */\n      tag_76\n      jump\t// in\n    tag_154:\n        /* \"#utility.yul\":3133:3208   */\n      swap1\n      pop\n        /* \"#utility.yul\":3231:3237   */\n      dup3\n        /* \"#utility.yul\":3224:3229   */\n      dup2\n        /* \"#utility.yul\":3217:3238   */\n      mstore\n        /* \"#utility.yul\":3269:3273   */\n      0x20\n        /* \"#utility.yul\":3262:3267   */\n      dup2\n        /* \"#utility.yul\":3258:3274   */\n      add\n        /* \"#utility.yul\":3307:3310   */\n      dup5\n        /* \"#utility.yul\":3298:3304   */\n      dup5\n        /* \"#utility.yul\":3293:3296   */\n      dup5\n        /* \"#utility.yul\":3289:3305   */\n      add\n        /* \"#utility.yul\":3286:3311   */\n      gt\n        /* \"#utility.yul\":3283:3395   */\n      iszero\n      tag_156\n      jumpi\n        /* \"#utility.yul\":3314:3393   */\n      tag_157\n      tag_72\n      jump\t// in\n    tag_157:\n        /* \"#utility.yul\":3283:3395   */\n    tag_156:\n        /* \"#utility.yul\":3404:3458   */\n      tag_158\n        /* \"#utility.yul\":3451:3457   */\n      dup5\n        /* \"#utility.yul\":3446:3449   */\n      dup3\n        /* \"#utility.yul\":3441:3444   */\n      dup6\n        /* \"#utility.yul\":3404:3458   */\n      tag_78\n      jump\t// in\n    tag_158:\n        /* \"#utility.yul\":3123:3464   */\n      pop\n        /* \"#utility.yul\":3039:3464   */\n      swap4\n      swap3\n      pop\n      pop\n      pop\n      jump\t// out\n        /* \"#utility.yul\":3484:3824   */\n    tag_80:\n        /* \"#utility.yul\":3540:3545   */\n      0x00\n        /* \"#utility.yul\":3589:3592   */\n      dup3\n        /* \"#utility.yul\":3582:3586   */\n      0x1f\n        /* \"#utility.yul\":3574:3580   */\n      dup4\n        /* \"#utility.yul\":3570:3587   */\n      add\n        /* \"#utility.yul\":3566:3593   */\n      slt\n        /* \"#utility.yul\":3556:3678   */\n      tag_160\n      jumpi\n        /* \"#utility.yul\":3597:3676   */\n      tag_161\n      tag_71\n      jump\t// in\n    tag_161:\n        /* \"#utility.yul\":3556:3678   */\n    tag_160:\n        /* \"#utility.yul\":3714:3720   */\n      dup2\n        /* \"#utility.yul\":3701:3721   */\n      calldataload\n        /* \"#utility.yul\":3739:3818   */\n      tag_162\n        /* \"#utility.yul\":3814:3817   */\n      dup5\n        /* \"#utility.yul\":3806:3812   */\n      dup3\n        /* \"#utility.yul\":3799:3803   */\n      0x20\n        /* \"#utility.yul\":3791:3797   */\n      dup7\n        /* \"#utility.yul\":3787:3804   */\n      add\n        /* \"#utility.yul\":3739:3818   */\n      tag_79\n      jump\t// in\n    tag_162:\n        /* \"#utility.yul\":3730:3818   */\n      swap2\n      pop\n        /* \"#utility.yul\":3546:3824   */\n      pop\n        /* \"#utility.yul\":3484:3824   */\n      swap3\n      swap2\n      pop\n      pop\n      jump\t// out\n        /* \"#utility.yul\":3830:3952   */\n    tag_81:\n        /* \"#utility.yul\":3903:3927   */\n      tag_164\n        /* \"#utility.yul\":3921:3926   */\n      dup2\n        /* \"#utility.yul\":3903:3927   */\n      tag_69\n      jump\t// in\n    tag_164:\n        /* \"#utility.yul\":3896:3901   */\n      dup2\n        /* \"#utility.yul\":3893:3928   */\n      eq\n        /* \"#utility.yul\":3883:3946   */\n      tag_165\n      jumpi\n        /* \"#utility.yul\":3942:3943   */\n      0x00\n        /* \"#utility.yul\":3939:3940   */\n      dup1\n        /* \"#utility.yul\":3932:3944   */\n      revert\n        /* \"#utility.yul\":3883:3946   */\n    tag_165:\n        /* \"#utility.yul\":3830:3952   */\n      pop\n      jump\t// out\n        /* \"#utility.yul\":3958:4097   */\n    tag_82:\n        /* \"#utility.yul\":4004:4009   */\n      0x00\n        /* \"#utility.yul\":4042:4048   */\n      dup2\n        /* \"#utility.yul\":4029:4049   */\n      calldataload\n        /* \"#utility.yul\":4020:4049   */\n      swap1\n      pop\n        /* \"#utility.yul\":4058:4091   */\n      tag_167\n        /* \"#utility.yul\":4085:4090   */\n      dup2\n        /* \"#utility.yul\":4058:4091   */\n      tag_81\n      jump\t// in\n    tag_167:\n        /* \"#utility.yul\":3958:4097   */\n      swap3\n      swap2\n      pop\n      pop\n      jump\t// out\n        /* \"#utility.yul\":4103:4757   */\n    tag_15:\n        /* \"#utility.yul\":4181:4187   */\n      0x00\n        /* \"#utility.yul\":4189:4195   */\n      dup1\n        /* \"#utility.yul\":4238:4240   */\n      0x40\n        /* \"#utility.yul\":4226:4235   */\n      dup4\n        /* \"#utility.yul\":4217:4224   */\n      dup6\n        /* \"#utility.yul\":4213:4236   */\n      sub\n        /* \"#utility.yul\":4209:4241   */\n      slt\n        /* \"#utility.yul\":4206:4325   */\n      iszero\n      tag_169\n      jumpi\n        /* \"#utility.yul\":4244:4323   */\n      tag_170\n      tag_63\n      jump\t// in\n    tag_170:\n        /* \"#utility.yul\":4206:4325   */\n    tag_169:\n        /* \"#utility.yul\":4392:4393   */\n      0x00\n        /* \"#utility.yul\":4381:4390   */\n      dup4\n        /* \"#utility.yul\":4377:4394   */\n      add\n        /* \"#utility.yul\":4364:4395   */\n      calldataload\n        /* \"#utility.yul\":4422:4440   */\n      0xffffffffffffffff\n        /* \"#utility.yul\":4414:4420   */\n      dup2\n        /* \"#utility.yul\":4411:4441   */\n      gt\n        /* \"#utility.yul\":4408:4525   */\n      iszero\n      tag_171\n      jumpi\n        /* \"#utility.yul\":4444:4523   */\n      tag_172\n      tag_64\n      jump\t// in\n    tag_172:\n        /* \"#utility.yul\":4408:4525   */\n    tag_171:\n        /* \"#utility.yul\":4549:4612   */\n      tag_173\n        /* \"#utility.yul\":4604:4611   */\n      dup6\n        /* \"#utility.yul\":4595:4601   */\n      dup3\n        /* \"#utility.yul\":4584:4593   */\n      dup7\n        /* \"#utility.yul\":4580:4602   */\n      add\n        /* \"#utility.yul\":4549:4612   */\n      tag_80\n      jump\t// in\n    tag_173:\n        /* \"#utility.yul\":4539:4612   */\n      swap3\n      pop\n        /* \"#utility.yul\":4335:4622   */\n      pop\n        /* \"#utility.yul\":4661:4663   */\n      0x20\n        /* \"#utility.yul\":4687:4740   */\n      tag_174\n        /* \"#utility.yul\":4732:4739   */\n      dup6\n        /* \"#utility.yul\":4723:4729   */\n      dup3\n        /* \"#utility.yul\":4712:4721   */\n      dup7\n        /* \"#utility.yul\":4708:4730   */\n      add\n        /* \"#utility.yul\":4687:4740   */\n      tag_82\n      jump\t// in\n    tag_174:\n        /* \"#utility.yul\":4677:4740   */\n      swap2\n      pop\n        /* \"#utility.yul\":4632:4750   */\n      pop\n        /* \"#utility.yul\":4103:4757   */\n      swap3\n      pop\n      swap3\n      swap1\n      pop\n      jump\t// out\n        /* \"#utility.yul\":4763:5092   */\n    tag_19:\n        /* \"#utility.yul\":4822:4828   */\n      0x00\n        /* \"#utility.yul\":4871:4873   */\n      0x20\n        /* \"#utility.yul\":4859:4868   */\n      dup3\n        /* \"#utility.yul\":4850:4857   */\n      dup5\n        /* \"#utility.yul\":4846:4869   */\n      sub\n        /* \"#utility.yul\":4842:4874   */\n      slt\n        /* \"#utility.yul\":4839:4958   */\n      iszero\n      tag_176\n      jumpi\n        /* \"#utility.yul\":4877:4956   */\n      tag_177\n      tag_63\n      jump\t// in\n    tag_177:\n        /* \"#utility.yul\":4839:4958   */\n    tag_176:\n        /* \"#utility.yul\":4997:4998   */\n      0x00\n        /* \"#utility.yul\":5022:5075   */\n      tag_178\n        /* \"#utility.yul\":5067:5074   */\n      dup5\n        /* \"#utility.yul\":5058:5064   */\n      dup3\n        /* \"#utility.yul\":5047:5056   */\n      dup6\n        /* \"#utility.yul\":5043:5065   */\n      add\n        /* \"#utility.yul\":5022:5075   */\n      tag_82\n      jump\t// in\n    tag_178:\n        /* \"#utility.yul\":5012:5075   */\n      swap2\n      pop\n        /* \"#utility.yul\":4968:5085   */\n      pop\n        /* \"#utility.yul\":4763:5092   */\n      swap3\n      swap2\n      pop\n      pop\n      jump\t// out\n        /* \"#utility.yul\":5098:5216   */\n    tag_83:\n        /* \"#utility.yul\":5185:5209   */\n      tag_180\n        /* \"#utility.yul\":5203:5208   */\n      dup2\n        /* \"#utility.yul\":5185:5209   */\n      tag_66\n      jump\t// in\n    tag_180:\n        /* \"#utility.yul\":5180:5183   */\n      dup3\n        /* \"#utility.yul\":5173:5210   */\n      mstore\n        /* \"#utility.yul\":5098:5216   */\n      pop\n      pop\n      jump\t// out\n        /* \"#utility.yul\":5222:5321   */\n    tag_84:\n        /* \"#utility.yul\":5274:5280   */\n      0x00\n        /* \"#utility.yul\":5308:5313   */\n      dup2\n        /* \"#utility.yul\":5302:5314   */\n      mload\n        /* \"#utility.yul\":5292:5314   */\n      swap1\n      pop\n        /* \"#utility.yul\":5222:5321   */\n      swap2\n      swap1\n      pop\n      jump\t// out\n        /* \"#utility.yul\":5327:5496   */\n    tag_85:\n        /* \"#utility.yul\":5411:5422   */\n      0x00\n        /* \"#utility.yul\":5445:5451   */\n      dup3\n        /* \"#utility.yul\":5440:5443   */\n      dup3\n        /* \"#utility.yul\":5433:5452   */\n      mstore\n        /* \"#utility.yul\":5485:5489   */\n      0x20\n        /* \"#utility.yul\":5480:5483   */\n      dup3\n        /* \"#utility.yul\":5476:5490   */\n      add\n        /* \"#utility.yul\":5461:5490   */\n      swap1\n      pop\n        /* \"#utility.yul\":5327:5496   */\n      swap3\n      swap2\n      pop\n      pop\n      jump\t// out\n        /* \"#utility.yul\":5502:5748   */\n    tag_86:\n        /* \"#utility.yul\":5583:5584   */\n      0x00\n        /* \"#utility.yul\":5593:5706   */\n    tag_184:\n        /* \"#utility.yul\":5607:5613   */\n      dup4\n        /* \"#utility.yul\":5604:5605   */\n      dup2\n        /* \"#utility.yul\":5601:5614   */\n      lt\n        /* \"#utility.yul\":5593:5706   */\n      iszero\n      tag_186\n      jumpi\n        /* \"#utility.yul\":5692:5693   */\n      dup1\n        /* \"#utility.yul\":5687:5690   */\n      dup3\n        /* \"#utility.yul\":5683:5694   */\n      add\n        /* \"#utility.yul\":5677:5695   */\n      mload\n        /* \"#utility.yul\":5673:5674   */\n      dup2\n        /* \"#utility.yul\":5668:5671   */\n      dup5\n        /* \"#utility.yul\":5664:5675   */\n      add\n        /* \"#utility.yul\":5657:5696   */\n      mstore\n        /* \"#utility.yul\":5629:5631   */\n      0x20\n        /* \"#utility.yul\":5626:5627   */\n      dup2\n        /* \"#utility.yul\":5622:5632   */\n      add\n        /* \"#utility.yul\":5617:5632   */\n      swap1\n      pop\n        /* \"#utility.yul\":5593:5706   */\n      jump(tag_184)\n    tag_186:\n        /* \"#utility.yul\":5740:5741   */\n      0x00\n        /* \"#utility.yul\":5731:5737   */\n      dup5\n        /* \"#utility.yul\":5726:5729   */\n      dup5\n        /* \"#utility.yul\":5722:5738   */\n      add\n        /* \"#utility.yul\":5715:5742   */\n      mstore\n        /* \"#utility.yul\":5564:5748   */\n      pop\n        /* \"#utility.yul\":5502:5748   */\n      pop\n      pop\n      pop\n      jump\t// out\n        /* \"#utility.yul\":5754:6131   */\n    tag_87:\n        /* \"#utility.yul\":5842:5845   */\n      0x00\n        /* \"#utility.yul\":5870:5909   */\n      tag_188\n        /* \"#utility.yul\":5903:5908   */\n      dup3\n        /* \"#utility.yul\":5870:5909   */\n      tag_84\n      jump\t// in\n    tag_188:\n        /* \"#utility.yul\":5925:5996   */\n      tag_189\n        /* \"#utility.yul\":5989:5995   */\n      dup2\n        /* \"#utility.yul\":5984:5987   */\n      dup6\n        /* \"#utility.yul\":5925:5996   */\n      tag_85\n      jump\t// in\n    tag_189:\n        /* \"#utility.yul\":5918:5996   */\n      swap4\n      pop\n        /* \"#utility.yul\":6005:6070   */\n      tag_190\n        /* \"#utility.yul\":6063:6069   */\n      dup2\n        /* \"#utility.yul\":6058:6061   */\n      dup6\n        /* \"#utility.yul\":6051:6055   */\n      0x20\n        /* \"#utility.yul\":6044:6049   */\n      dup7\n        /* \"#utility.yul\":6040:6056   */\n      add\n        /* \"#utility.yul\":6005:6070   */\n      tag_86\n      jump\t// in\n    tag_190:\n        /* \"#utility.yul\":6095:6124   */\n      tag_191\n        /* \"#utility.yul\":6117:6123   */\n      dup2\n        /* \"#utility.yul\":6095:6124   */\n      tag_73\n      jump\t// in\n    tag_191:\n        /* \"#utility.yul\":6090:6093   */\n      dup5\n        /* \"#utility.yul\":6086:6125   */\n      add\n        /* \"#utility.yul\":6079:6125   */\n      swap2\n      pop\n        /* \"#utility.yul\":5846:6131   */\n      pop\n        /* \"#utility.yul\":5754:6131   */\n      swap3\n      swap2\n      pop\n      pop\n      jump\t// out\n        /* \"#utility.yul\":6137:6670   */\n    tag_22:\n        /* \"#utility.yul\":6306:6310   */\n      0x00\n        /* \"#utility.yul\":6344:6346   */\n      0x60\n        /* \"#utility.yul\":6333:6342   */\n      dup3\n        /* \"#utility.yul\":6329:6347   */\n      add\n        /* \"#utility.yul\":6321:6347   */\n      swap1\n      pop\n        /* \"#utility.yul\":6357:6428   */\n      tag_193\n        /* \"#utility.yul\":6425:6426   */\n      0x00\n        /* \"#utility.yul\":6414:6423   */\n      dup4\n        /* \"#utility.yul\":6410:6427   */\n      add\n        /* \"#utility.yul\":6401:6407   */\n      dup7\n        /* \"#utility.yul\":6357:6428   */\n      tag_83\n      jump\t// in\n    tag_193:\n        /* \"#utility.yul\":6475:6484   */\n      dup2\n        /* \"#utility.yul\":6469:6473   */\n      dup2\n        /* \"#utility.yul\":6465:6485   */\n      sub\n        /* \"#utility.yul\":6460:6462   */\n      0x20\n        /* \"#utility.yul\":6449:6458   */\n      dup4\n        /* \"#utility.yul\":6445:6463   */\n      add\n        /* \"#utility.yul\":6438:6486   */\n      mstore\n        /* \"#utility.yul\":6503:6581   */\n      tag_194\n        /* \"#utility.yul\":6576:6580   */\n      dup2\n        /* \"#utility.yul\":6567:6573   */\n      dup6\n        /* \"#utility.yul\":6503:6581   */\n      tag_87\n      jump\t// in\n    tag_194:\n        /* \"#utility.yul\":6495:6581   */\n      swap1\n      pop\n        /* \"#utility.yul\":6591:6663   */\n      tag_195\n        /* \"#utility.yul\":6659:6661   */\n      0x40\n        /* \"#utility.yul\":6648:6657   */\n      dup4\n        /* \"#utility.yul\":6644:6662   */\n      add\n        /* \"#utility.yul\":6635:6641   */\n      dup5\n        /* \"#utility.yul\":6591:6663   */\n      tag_70\n      jump\t// in\n    tag_195:\n        /* \"#utility.yul\":6137:6670   */\n      swap5\n      swap4\n      pop\n      pop\n      pop\n      pop\n      jump\t// out\n        /* \"#utility.yul\":6676:6812   */\n    tag_88:\n        /* \"#utility.yul\":6765:6771   */\n      0x00\n        /* \"#utility.yul\":6799:6804   */\n      dup2\n        /* \"#utility.yul\":6793:6805   */\n      mload\n        /* \"#utility.yul\":6783:6805   */\n      swap1\n      pop\n        /* \"#utility.yul\":6676:6812   */\n      swap2\n      swap1\n      pop\n      jump\t// out\n        /* \"#utility.yul\":6818:7024   */\n    tag_89:\n        /* \"#utility.yul\":6939:6950   */\n      0x00\n        /* \"#utility.yul\":6973:6979   */\n      dup3\n        /* \"#utility.yul\":6968:6971   */\n      dup3\n        /* \"#utility.yul\":6961:6980   */\n      mstore\n        /* \"#utility.yul\":7013:7017   */\n      0x20\n        /* \"#utility.yul\":7008:7011   */\n      dup3\n        /* \"#utility.yul\":7004:7018   */\n      add\n        /* \"#utility.yul\":6989:7018   */\n      swap1\n      pop\n        /* \"#utility.yul\":6818:7024   */\n      swap3\n      swap2\n      pop\n      pop\n      jump\t// out\n        /* \"#utility.yul\":7030:7184   */\n    tag_90:\n        /* \"#utility.yul\":7119:7123   */\n      0x00\n        /* \"#utility.yul\":7142:7145   */\n      dup2\n        /* \"#utility.yul\":7134:7145   */\n      swap1\n      pop\n        /* \"#utility.yul\":7172:7176   */\n      0x20\n        /* \"#utility.yul\":7167:7170   */\n      dup3\n        /* \"#utility.yul\":7163:7177   */\n      add\n        /* \"#utility.yul\":7155:7177   */\n      swap1\n      pop\n        /* \"#utility.yul\":7030:7184   */\n      swap2\n      swap1\n      pop\n      jump\t// out\n        /* \"#utility.yul\":7190:7298   */\n    tag_91:\n        /* \"#utility.yul\":7267:7291   */\n      tag_200\n        /* \"#utility.yul\":7285:7290   */\n      dup2\n        /* \"#utility.yul\":7267:7291   */\n      tag_66\n      jump\t// in\n    tag_200:\n        /* \"#utility.yul\":7262:7265   */\n      dup3\n        /* \"#utility.yul\":7255:7292   */\n      mstore\n        /* \"#utility.yul\":7190:7298   */\n      pop\n      pop\n      jump\t// out\n        /* \"#utility.yul\":7304:7463   */\n    tag_92:\n        /* \"#utility.yul\":7378:7389   */\n      0x00\n        /* \"#utility.yul\":7412:7418   */\n      dup3\n        /* \"#utility.yul\":7407:7410   */\n      dup3\n        /* \"#utility.yul\":7400:7419   */\n      mstore\n        /* \"#utility.yul\":7452:7456   */\n      0x20\n        /* \"#utility.yul\":7447:7450   */\n      dup3\n        /* \"#utility.yul\":7443:7457   */\n      add\n        /* \"#utility.yul\":7428:7457   */\n      swap1\n      pop\n        /* \"#utility.yul\":7304:7463   */\n      swap3\n      swap2\n      pop\n      pop\n      jump\t// out\n        /* \"#utility.yul\":7469:7826   */\n    tag_93:\n        /* \"#utility.yul\":7547:7550   */\n      0x00\n        /* \"#utility.yul\":7575:7614   */\n      tag_203\n        /* \"#utility.yul\":7608:7613   */\n      dup3\n        /* \"#utility.yul\":7575:7614   */\n      tag_84\n      jump\t// in\n    tag_203:\n        /* \"#utility.yul\":7630:7691   */\n      tag_204\n        /* \"#utility.yul\":7684:7690   */\n      dup2\n        /* \"#utility.yul\":7679:7682   */\n      dup6\n        /* \"#utility.yul\":7630:7691   */\n      tag_92\n      jump\t// in\n    tag_204:\n        /* \"#utility.yul\":7623:7691   */\n      swap4\n      pop\n        /* \"#utility.yul\":7700:7765   */\n      tag_205\n        /* \"#utility.yul\":7758:7764   */\n      dup2\n        /* \"#utility.yul\":7753:7756   */\n      dup6\n        /* \"#utility.yul\":7746:7750   */\n      0x20\n        /* \"#utility.yul\":7739:7744   */\n      dup7\n        /* \"#utility.yul\":7735:7751   */\n      add\n        /* \"#utility.yul\":7700:7765   */\n      tag_86\n      jump\t// in\n    tag_205:\n        /* \"#utility.yul\":7790:7819   */\n      tag_206\n        /* \"#utility.yul\":7812:7818   */\n      dup2\n        /* \"#utility.yul\":7790:7819   */\n      tag_73\n      jump\t// in\n    tag_206:\n        /* \"#utility.yul\":7785:7788   */\n      dup5\n        /* \"#utility.yul\":7781:7820   */\n      add\n        /* \"#utility.yul\":7774:7820   */\n      swap2\n      pop\n        /* \"#utility.yul\":7551:7826   */\n      pop\n        /* \"#utility.yul\":7469:7826   */\n      swap3\n      swap2\n      pop\n      pop\n      jump\t// out\n        /* \"#utility.yul\":7832:7940   */\n    tag_94:\n        /* \"#utility.yul\":7909:7933   */\n      tag_208\n        /* \"#utility.yul\":7927:7932   */\n      dup2\n        /* \"#utility.yul\":7909:7933   */\n      tag_69\n      jump\t// in\n    tag_208:\n        /* \"#utility.yul\":7904:7907   */\n      dup3\n        /* \"#utility.yul\":7897:7934   */\n      mstore\n        /* \"#utility.yul\":7832:7940   */\n      pop\n      pop\n      jump\t// out\n        /* \"#utility.yul\":8016:8789   */\n    tag_95:\n        /* \"#utility.yul\":8119:8122   */\n      0x00\n        /* \"#utility.yul\":8155:8159   */\n      0x60\n        /* \"#utility.yul\":8150:8153   */\n      dup4\n        /* \"#utility.yul\":8146:8160   */\n      add\n        /* \"#utility.yul\":8242:8246   */\n      0x00\n        /* \"#utility.yul\":8235:8240   */\n      dup4\n        /* \"#utility.yul\":8231:8247   */\n      add\n        /* \"#utility.yul\":8225:8248   */\n      mload\n        /* \"#utility.yul\":8261:8324   */\n      tag_210\n        /* \"#utility.yul\":8318:8322   */\n      0x00\n        /* \"#utility.yul\":8313:8316   */\n      dup7\n        /* \"#utility.yul\":8309:8323   */\n      add\n        /* \"#utility.yul\":8295:8307   */\n      dup3\n        /* \"#utility.yul\":8261:8324   */\n      tag_91\n      jump\t// in\n    tag_210:\n        /* \"#utility.yul\":8170:8334   */\n      pop\n        /* \"#utility.yul\":8423:8427   */\n      0x20\n        /* \"#utility.yul\":8416:8421   */\n      dup4\n        /* \"#utility.yul\":8412:8428   */\n      add\n        /* \"#utility.yul\":8406:8429   */\n      mload\n        /* \"#utility.yul\":8476:8479   */\n      dup5\n        /* \"#utility.yul\":8470:8474   */\n      dup3\n        /* \"#utility.yul\":8466:8480   */\n      sub\n        /* \"#utility.yul\":8459:8463   */\n      0x20\n        /* \"#utility.yul\":8454:8457   */\n      dup7\n        /* \"#utility.yul\":8450:8464   */\n      add\n        /* \"#utility.yul\":8443:8481   */\n      mstore\n        /* \"#utility.yul\":8502:8575   */\n      tag_211\n        /* \"#utility.yul\":8570:8574   */\n      dup3\n        /* \"#utility.yul\":8556:8568   */\n      dup3\n        /* \"#utility.yul\":8502:8575   */\n      tag_93\n      jump\t// in\n    tag_211:\n        /* \"#utility.yul\":8494:8575   */\n      swap2\n      pop\n        /* \"#utility.yul\":8344:8586   */\n      pop\n        /* \"#utility.yul\":8670:8674   */\n      0x40\n        /* \"#utility.yul\":8663:8668   */\n      dup4\n        /* \"#utility.yul\":8659:8675   */\n      add\n        /* \"#utility.yul\":8653:8676   */\n      mload\n        /* \"#utility.yul\":8689:8752   */\n      tag_212\n        /* \"#utility.yul\":8746:8750   */\n      0x40\n        /* \"#utility.yul\":8741:8744   */\n      dup7\n        /* \"#utility.yul\":8737:8751   */\n      add\n        /* \"#utility.yul\":8723:8735   */\n      dup3\n        /* \"#utility.yul\":8689:8752   */\n      tag_94\n      jump\t// in\n    tag_212:\n        /* \"#utility.yul\":8596:8762   */\n      pop\n        /* \"#utility.yul\":8779:8783   */\n      dup1\n        /* \"#utility.yul\":8772:8783   */\n      swap2\n      pop\n        /* \"#utility.yul\":8124:8789   */\n      pop\n        /* \"#utility.yul\":8016:8789   */\n      swap3\n      swap2\n      pop\n      pop\n      jump\t// out\n        /* \"#utility.yul\":8795:9039   */\n    tag_96:\n        /* \"#utility.yul\":8908:8918   */\n      0x00\n        /* \"#utility.yul\":8943:9033   */\n      tag_214\n        /* \"#utility.yul\":9029:9032   */\n      dup4\n        /* \"#utility.yul\":9021:9027   */\n      dup4\n        /* \"#utility.yul\":8943:9033   */\n      tag_95\n      jump\t// in\n    tag_214:\n        /* \"#utility.yul\":8929:9033   */\n      swap1\n      pop\n        /* \"#utility.yul\":8795:9039   */\n      swap3\n      swap2\n      pop\n      pop\n      jump\t// out\n        /* \"#utility.yul\":9045:9180   */\n    tag_97:\n        /* \"#utility.yul\":9137:9141   */\n      0x00\n        /* \"#utility.yul\":9169:9173   */\n      0x20\n        /* \"#utility.yul\":9164:9167   */\n      dup3\n        /* \"#utility.yul\":9160:9174   */\n      add\n        /* \"#utility.yul\":9152:9174   */\n      swap1\n      pop\n        /* \"#utility.yul\":9045:9180   */\n      swap2\n      swap1\n      pop\n      jump\t// out\n        /* \"#utility.yul\":9260:10347   */\n    tag_98:\n        /* \"#utility.yul\":9423:9426   */\n      0x00\n        /* \"#utility.yul\":9452:9528   */\n      tag_217\n        /* \"#utility.yul\":9522:9527   */\n      dup3\n        /* \"#utility.yul\":9452:9528   */\n      tag_88\n      jump\t// in\n    tag_217:\n        /* \"#utility.yul\":9544:9652   */\n      tag_218\n        /* \"#utility.yul\":9645:9651   */\n      dup2\n        /* \"#utility.yul\":9640:9643   */\n      dup6\n        /* \"#utility.yul\":9544:9652   */\n      tag_89\n      jump\t// in\n    tag_218:\n        /* \"#utility.yul\":9537:9652   */\n      swap4\n      pop\n        /* \"#utility.yul\":9678:9681   */\n      dup4\n        /* \"#utility.yul\":9723:9727   */\n      0x20\n        /* \"#utility.yul\":9715:9721   */\n      dup3\n        /* \"#utility.yul\":9711:9728   */\n      mul\n        /* \"#utility.yul\":9706:9709   */\n      dup6\n        /* \"#utility.yul\":9702:9729   */\n      add\n        /* \"#utility.yul\":9753:9831   */\n      tag_219\n        /* \"#utility.yul\":9825:9830   */\n      dup6\n        /* \"#utility.yul\":9753:9831   */\n      tag_90\n      jump\t// in\n    tag_219:\n        /* \"#utility.yul\":9854:9861   */\n      dup1\n        /* \"#utility.yul\":9885:9886   */\n      0x00\n        /* \"#utility.yul\":9870:10302   */\n    tag_220:\n        /* \"#utility.yul\":9895:9901   */\n      dup6\n        /* \"#utility.yul\":9892:9893   */\n      dup2\n        /* \"#utility.yul\":9889:9902   */\n      lt\n        /* \"#utility.yul\":9870:10302   */\n      iszero\n      tag_222\n      jumpi\n        /* \"#utility.yul\":9966:9975   */\n      dup5\n        /* \"#utility.yul\":9960:9964   */\n      dup5\n        /* \"#utility.yul\":9956:9976   */\n      sub\n        /* \"#utility.yul\":9951:9954   */\n      dup10\n        /* \"#utility.yul\":9944:9977   */\n      mstore\n        /* \"#utility.yul\":10017:10023   */\n      dup2\n        /* \"#utility.yul\":10011:10024   */\n      mload\n        /* \"#utility.yul\":10045:10153   */\n      tag_223\n        /* \"#utility.yul\":10148:10152   */\n      dup6\n        /* \"#utility.yul\":10133:10146   */\n      dup3\n        /* \"#utility.yul\":10045:10153   */\n      tag_96\n      jump\t// in\n    tag_223:\n        /* \"#utility.yul\":10037:10153   */\n      swap5\n      pop\n        /* \"#utility.yul\":10176:10258   */\n      tag_224\n        /* \"#utility.yul\":10251:10257   */\n      dup4\n        /* \"#utility.yul\":10176:10258   */\n      tag_97\n      jump\t// in\n    tag_224:\n        /* \"#utility.yul\":10166:10258   */\n      swap3\n      pop\n        /* \"#utility.yul\":10287:10291   */\n      0x20\n        /* \"#utility.yul\":10282:10285   */\n      dup11\n        /* \"#utility.yul\":10278:10292   */\n      add\n        /* \"#utility.yul\":10271:10292   */\n      swap10\n      pop\n        /* \"#utility.yul\":9930:10302   */\n      pop\n        /* \"#utility.yul\":9917:9918   */\n      0x01\n        /* \"#utility.yul\":9914:9915   */\n      dup2\n        /* \"#utility.yul\":9910:9919   */\n      add\n        /* \"#utility.yul\":9905:9919   */\n      swap1\n      pop\n        /* \"#utility.yul\":9870:10302   */\n      jump(tag_220)\n    tag_222:\n        /* \"#utility.yul\":9874:9888   */\n      pop\n        /* \"#utility.yul\":10318:10322   */\n      dup3\n        /* \"#utility.yul\":10311:10322   */\n      swap8\n      pop\n        /* \"#utility.yul\":10338:10341   */\n      dup8\n        /* \"#utility.yul\":10331:10341   */\n      swap6\n      pop\n        /* \"#utility.yul\":9428:10347   */\n      pop\n      pop\n      pop\n      pop\n      pop\n        /* \"#utility.yul\":9260:10347   */\n      swap3\n      swap2\n      pop\n      pop\n      jump\t// out\n        /* \"#utility.yul\":10353:10814   */\n    tag_26:\n        /* \"#utility.yul\":10540:10544   */\n      0x00\n        /* \"#utility.yul\":10578:10580   */\n      0x20\n        /* \"#utility.yul\":10567:10576   */\n      dup3\n        /* \"#utility.yul\":10563:10581   */\n      add\n        /* \"#utility.yul\":10555:10581   */\n      swap1\n      pop\n        /* \"#utility.yul\":10627:10636   */\n      dup2\n        /* \"#utility.yul\":10621:10625   */\n      dup2\n        /* \"#utility.yul\":10617:10637   */\n      sub\n        /* \"#utility.yul\":10613:10614   */\n      0x00\n        /* \"#utility.yul\":10602:10611   */\n      dup4\n        /* \"#utility.yul\":10598:10615   */\n      add\n        /* \"#utility.yul\":10591:10638   */\n      mstore\n        /* \"#utility.yul\":10655:10807   */\n      tag_226\n        /* \"#utility.yul\":10802:10806   */\n      dup2\n        /* \"#utility.yul\":10793:10799   */\n      dup5\n        /* \"#utility.yul\":10655:10807   */\n      tag_98\n      jump\t// in\n    tag_226:\n        /* \"#utility.yul\":10647:10807   */\n      swap1\n      pop\n        /* \"#utility.yul\":10353:10814   */\n      swap3\n      swap2\n      pop\n      pop\n      jump\t// out\n        /* \"#utility.yul\":10820:11000   */\n    tag_33:\n        /* \"#utility.yul\":10868:10945   */\n      0x4e487b7100000000000000000000000000000000000000000000000000000000\n        /* \"#utility.yul\":10865:10866   */\n      0x00\n        /* \"#utility.yul\":10858:10946   */\n      mstore\n        /* \"#utility.yul\":10965:10969   */\n      0x32\n        /* \"#utility.yul\":10962:10963   */\n      0x04\n        /* \"#utility.yul\":10955:10970   */\n      mstore\n        /* \"#utility.yul\":10989:10993   */\n      0x24\n        /* \"#utility.yul\":10986:10987   */\n      0x00\n        /* \"#utility.yul\":10979:10994   */\n      revert\n        /* \"#utility.yul\":11006:11186   */\n    tag_99:\n        /* \"#utility.yul\":11054:11131   */\n      0x4e487b7100000000000000000000000000000000000000000000000000000000\n        /* \"#utility.yul\":11051:11052   */\n      0x00\n        /* \"#utility.yul\":11044:11132   */\n      mstore\n        /* \"#utility.yul\":11151:11155   */\n      0x11\n        /* \"#utility.yul\":11148:11149   */\n      0x04\n        /* \"#utility.yul\":11141:11156   */\n      mstore\n        /* \"#utility.yul\":11175:11179   */\n      0x24\n        /* \"#utility.yul\":11172:11173   */\n      0x00\n        /* \"#utility.yul\":11165:11180   */\n      revert\n        /* \"#utility.yul\":11192:11383   */\n    tag_40:\n        /* \"#utility.yul\":11232:11235   */\n      0x00\n        /* \"#utility.yul\":11251:11271   */\n      tag_230\n        /* \"#utility.yul\":11269:11270   */\n      dup3\n        /* \"#utility.yul\":11251:11271   */\n      tag_69\n      jump\t// in\n    tag_230:\n        /* \"#utility.yul\":11246:11271   */\n      swap2\n      pop\n        /* \"#utility.yul\":11285:11305   */\n      tag_231\n        /* \"#utility.yul\":11303:11304   */\n      dup4\n        /* \"#utility.yul\":11285:11305   */\n      tag_69\n      jump\t// in\n    tag_231:\n        /* \"#utility.yul\":11280:11305   */\n      swap3\n      pop\n        /* \"#utility.yul\":11328:11329   */\n      dup3\n        /* \"#utility.yul\":11325:11326   */\n      dup3\n        /* \"#utility.yul\":11321:11330   */\n      add\n        /* \"#utility.yul\":11314:11330   */\n      swap1\n      pop\n        /* \"#utility.yul\":11349:11352   */\n      dup1\n        /* \"#utility.yul\":11346:11347   */\n      dup3\n        /* \"#utility.yul\":11343:11353   */\n      gt\n        /* \"#utility.yul\":11340:11376   */\n      iszero\n      tag_232\n      jumpi\n        /* \"#utility.yul\":11356:11374   */\n      tag_233\n      tag_99\n      jump\t// in\n    tag_233:\n        /* \"#utility.yul\":11340:11376   */\n    tag_232:\n        /* \"#utility.yul\":11192:11383   */\n      swap3\n      swap2\n      pop\n      pop\n      jump\t// out\n        /* \"#utility.yul\":11389:11569   */\n    tag_100:\n        /* \"#utility.yul\":11437:11514   */\n      0x4e487b7100000000000000000000000000000000000000000000000000000000\n        /* \"#utility.yul\":11434:11435   */\n      0x00\n        /* \"#utility.yul\":11427:11515   */\n      mstore\n        /* \"#utility.yul\":11534:11538   */\n      0x22\n        /* \"#utility.yul\":11531:11532   */\n      0x04\n        /* \"#utility.yul\":11524:11539   */\n      mstore\n        /* \"#utility.yul\":11558:11562   */\n      0x24\n        /* \"#utility.yul\":11555:11556   */\n      0x00\n        /* \"#utility.yul\":11548:11563   */\n      revert\n        /* \"#utility.yul\":11575:11895   */\n    tag_48:\n        /* \"#utility.yul\":11619:11625   */\n      0x00\n        /* \"#utility.yul\":11656:11657   */\n      0x02\n        /* \"#utility.yul\":11650:11654   */\n      dup3\n        /* \"#utility.yul\":11646:11658   */\n      div\n        /* \"#utility.yul\":11636:11658   */\n      swap1\n      pop\n        /* \"#utility.yul\":11703:11704   */\n      0x01\n        /* \"#utility.yul\":11697:11701   */\n      dup3\n        /* \"#utility.yul\":11693:11705   */\n      and\n        /* \"#utility.yul\":11724:11742   */\n      dup1\n        /* \"#utility.yul\":11714:11795   */\n      tag_236\n      jumpi\n        /* \"#utility.yul\":11780:11784   */\n      0x7f\n        /* \"#utility.yul\":11772:11778   */\n      dup3\n        /* \"#utility.yul\":11768:11785   */\n      and\n        /* \"#utility.yul\":11758:11785   */\n      swap2\n      pop\n        /* \"#utility.yul\":11714:11795   */\n    tag_236:\n        /* \"#utility.yul\":11842:11844   */\n      0x20\n        /* \"#utility.yul\":11834:11840   */\n      dup3\n        /* \"#utility.yul\":11831:11845   */\n      lt\n        /* \"#utility.yul\":11811:11829   */\n      dup2\n        /* \"#utility.yul\":11808:11846   */\n      sub\n        /* \"#utility.yul\":11805:11889   */\n      tag_237\n      jumpi\n        /* \"#utility.yul\":11861:11879   */\n      tag_238\n      tag_100\n      jump\t// in\n    tag_238:\n        /* \"#utility.yul\":11805:11889   */\n    tag_237:\n        /* \"#utility.yul\":11626:11895   */\n      pop\n        /* \"#utility.yul\":11575:11895   */\n      swap2\n      swap1\n      pop\n      jump\t// out\n        /* \"#utility.yul\":11901:12042   */\n    tag_101:\n        /* \"#utility.yul\":11950:11954   */\n      0x00\n        /* \"#utility.yul\":11973:11976   */\n      dup2\n        /* \"#utility.yul\":11965:11976   */\n      swap1\n      pop\n        /* \"#utility.yul\":11996:11999   */\n      dup2\n        /* \"#utility.yul\":11993:11994   */\n      0x00\n        /* \"#utility.yul\":11986:12000   */\n      mstore\n        /* \"#utility.yul\":12030:12034   */\n      0x20\n        /* \"#utility.yul\":12027:12028   */\n      0x00\n        /* \"#utility.yul\":12017:12035   */\n      keccak256\n        /* \"#utility.yul\":12009:12035   */\n      swap1\n      pop\n        /* \"#utility.yul\":11901:12042   */\n      swap2\n      swap1\n      pop\n      jump\t// out\n        /* \"#utility.yul\":12048:12141   */\n    tag_102:\n        /* \"#utility.yul\":12085:12091   */\n      0x00\n        /* \"#utility.yul\":12132:12134   */\n      0x20\n        /* \"#utility.yul\":12127:12129   */\n      0x1f\n        /* \"#utility.yul\":12120:12125   */\n      dup4\n        /* \"#utility.yul\":12116:12130   */\n      add\n        /* \"#utility.yul\":12112:12135   */\n      div\n        /* \"#utility.yul\":12102:12135   */\n      swap1\n      pop\n        /* \"#utility.yul\":12048:12141   */\n      swap2\n      swap1\n      pop\n      jump\t// out\n        /* \"#utility.yul\":12147:12254   */\n    tag_103:\n        /* \"#utility.yul\":12191:12199   */\n      0x00\n        /* \"#utility.yul\":12241:12246   */\n      dup3\n        /* \"#utility.yul\":12235:12239   */\n      dup3\n        /* \"#utility.yul\":12231:12247   */\n      shl\n        /* \"#utility.yul\":12210:12247   */\n      swap1\n      pop\n        /* \"#utility.yul\":12147:12254   */\n      swap3\n      swap2\n      pop\n      pop\n      jump\t// out\n        /* \"#utility.yul\":12260:12653   */\n    tag_104:\n        /* \"#utility.yul\":12329:12335   */\n      0x00\n        /* \"#utility.yul\":12379:12380   */\n      0x08\n        /* \"#utility.yul\":12367:12377   */\n      dup4\n        /* \"#utility.yul\":12363:12381   */\n      mul\n        /* \"#utility.yul\":12402:12499   */\n      tag_243\n        /* \"#utility.yul\":12432:12498   */\n      0xffffffffffffffffffffffffffffffffffffffffffffffffffffffffffffffff\n        /* \"#utility.yul\":12421:12430   */\n      dup3\n        /* \"#utility.yul\":12402:12499   */\n      tag_103\n      jump\t// in\n    tag_243:\n        /* \"#utility.yul\":12520:12559   */\n      tag_244\n        /* \"#utility.yul\":12550:12558   */\n      dup7\n        /* \"#utility.yul\":12539:12548   */\n      dup4\n        /* \"#utility.yul\":12520:12559   */\n      tag_103\n      jump\t// in\n    tag_244:\n        /* \"#utility.yul\":12508:12559   */\n      swap6\n      pop\n        /* \"#utility.yul\":12592:12596   */\n      dup1\n        /* \"#utility.yul\":12588:12597   */\n      not\n        /* \"#utility.yul\":12581:12586   */\n      dup5\n        /* \"#utility.yul\":12577:12598   */\n      and\n        /* \"#utility.yul\":12568:12598   */\n      swap4\n      pop\n        /* \"#utility.yul\":12641:12645   */\n      dup1\n        /* \"#utility.yul\":12631:12639   */\n      dup7\n        /* \"#utility.yul\":12627:12646   */\n      and\n        /* \"#utility.yul\":12620:12625   */\n      dup5\n        /* \"#utility.yul\":12617:12647   */\n      or\n        /* \"#utility.yul\":12607:12647   */\n      swap3\n      pop\n        /* \"#utility.yul\":12336:12653   */\n      pop\n      pop\n        /* \"#utility.yul\":12260:12653   */\n      swap4\n      swap3\n      pop\n      pop\n      pop\n      jump\t// out\n        /* \"#utility.yul\":12659:12719   */\n    tag_105:\n        /* \"#utility.yul\":12687:12690   */\n      0x00\n        /* \"#utility.yul\":12708:12713   */\n      dup2\n        /* \"#utility.yul\":12701:12713   */\n      swap1\n      pop\n        /* \"#utility.yul\":12659:12719   */\n      swap2\n      swap1\n      pop\n      jump\t// out\n        /* \"#utility.yul\":12725:12867   */\n    tag_106:\n        /* \"#utility.yul\":12775:12784   */\n      0x00\n        /* \"#utility.yul\":12808:12861   */\n      tag_247\n        /* \"#utility.yul\":12826:12860   */\n      tag_248\n        /* \"#utility.yul\":12835:12859   */\n      tag_249\n        /* \"#utility.yul\":12853:12858   */\n      dup5\n        /* \"#utility.yul\":12835:12859   */\n      tag_69\n      jump\t// in\n    tag_249:\n        /* \"#utility.yul\":12826:12860   */\n      tag_105\n      jump\t// in\n    tag_248:\n        /* \"#utility.yul\":12808:12861   */\n      tag_69\n      jump\t// in\n    tag_247:\n        /* \"#utility.yul\":12795:12861   */\n      swap1\n      pop\n        /* \"#utility.yul\":12725:12867   */\n      swap2\n      swap1\n      pop\n      jump\t// out\n        /* \"#utility.yul\":12873:12948   */\n    tag_107:\n        /* \"#utility.yul\":12916:12919   */\n      0x00\n        /* \"#utility.yul\":12937:12942   */\n      dup2\n        /* \"#utility.yul\":12930:12942   */\n      swap1\n      pop\n        /* \"#utility.yul\":12873:12948   */\n      swap2\n      swap1\n      pop\n      jump\t// out\n        /* \"#utility.yul\":12954:13223   */\n    tag_108:\n        /* \"#utility.yul\":13064:13103   */\n      tag_252\n        /* \"#utility.yul\":13095:13102   */\n      dup4\n        /* \"#utility.yul\":13064:13103   */\n      tag_106\n      jump\t// in\n    tag_252:\n        /* \"#utility.yul\":13125:13216   */\n      tag_253\n        /* \"#utility.yul\":13174:13215   */\n      tag_254\n        /* \"#utility.yul\":13198:13214   */\n      dup3\n        /* \"#utility.yul\":13174:13215   */\n      tag_107\n      jump\t// in\n    tag_254:\n        /* \"#utility.yul\":13166:13172   */\n      dup5\n        /* \"#utility.yul\":13159:13163   */\n      dup5\n        /* \"#utility.yul\":13153:13164   */\n      sload\n        /* \"#utility.yul\":13125:13216   */\n      tag_104\n      jump\t// in\n    tag_253:\n        /* \"#utility.yul\":13119:13123   */\n      dup3\n        /* \"#utility.yul\":13112:13217   */\n      sstore\n        /* \"#utility.yul\":13030:13223   */\n      pop\n        /* \"#utility.yul\":12954:13223   */\n      pop\n      pop\n      pop\n      jump\t// out\n        /* \"#utility.yul\":13229:13302   */\n    tag_109:\n        /* \"#utility.yul\":13274:13277   */\n      0x00\n        /* \"#utility.yul\":13229:13302   */\n      swap1\n      jump\t// out\n        /* \"#utility.yul\":13308:13497   */\n    tag_110:\n        /* \"#utility.yul\":13385:13417   */\n      tag_257\n      tag_109\n      jump\t// in\n    tag_257:\n        /* \"#utility.yul\":13426:13491   */\n      tag_258\n        /* \"#utility.yul\":13484:13490   */\n      dup2\n        /* \"#utility.yul\":13476:13482   */\n      dup5\n        /* \"#utility.yul\":13470:13474   */\n      dup5\n        /* \"#utility.yul\":13426:13491   */\n      tag_108\n      jump\t// in\n    tag_258:\n        /* \"#utility.yul\":13361:13497   */\n      pop\n        /* \"#utility.yul\":13308:13497   */\n      pop\n      pop\n      jump\t// out\n        /* \"#utility.yul\":13503:13689   */\n    tag_111:\n        /* \"#utility.yul\":13563:13683   */\n    tag_260:\n        /* \"#utility.yul\":13580:13583   */\n      dup2\n        /* \"#utility.yul\":13573:13578   */\n      dup2\n        /* \"#utility.yul\":13570:13584   */\n      lt\n        /* \"#utility.yul\":13563:13683   */\n      iszero\n      tag_262\n      jumpi\n        /* \"#utility.yul\":13634:13673   */\n      tag_263\n        /* \"#utility.yul\":13671:13672   */\n      0x00\n        /* \"#utility.yul\":13664:13669   */\n      dup3\n        /* \"#utility.yul\":13634:13673   */\n      tag_110\n      jump\t// in\n    tag_263:\n        /* \"#utility.yul\":13607:13608   */\n      0x01\n        /* \"#utility.yul\":13600:13605   */\n      dup2\n        /* \"#utility.yul\":13596:13609   */\n      add\n        /* \"#utility.yul\":13587:13609   */\n      swap1\n      pop\n        /* \"#utility.yul\":13563:13683   */\n      jump(tag_260)\n    tag_262:\n        /* \"#utility.yul\":13503:13689   */\n      pop\n      pop\n      jump\t// out\n        /* \"#utility.yul\":13695:14238   */\n    tag_112:\n        /* \"#utility.yul\":13796:13798   */\n      0x1f\n        /* \"#utility.yul\":13791:13794   */\n      dup3\n        /* \"#utility.yul\":13788:13799   */\n      gt\n        /* \"#utility.yul\":13785:14231   */\n      iszero\n      tag_265\n      jumpi\n        /* \"#utility.yul\":13830:13868   */\n      tag_266\n        /* \"#utility.yul\":13862:13867   */\n      dup2\n        /* \"#utility.yul\":13830:13868   */\n      tag_101\n      jump\t// in\n    tag_266:\n        /* \"#utility.yul\":13914:13943   */\n      tag_267\n        /* \"#utility.yul\":13932:13942   */\n      dup5\n        /* \"#utility.yul\":13914:13943   */\n      tag_102\n      jump\t// in\n    tag_267:\n        /* \"#utility.yul\":13904:13912   */\n      dup2\n        /* \"#utility.yul\":13900:13944   */\n      add\n        /* \"#utility.yul\":14097:14099   */\n      0x20\n        /* \"#utility.yul\":14085:14095   */\n      dup6\n        /* \"#utility.yul\":14082:14100   */\n      lt\n        /* \"#utility.yul\":14079:14128   */\n      iszero\n      tag_268\n      jumpi\n        /* \"#utility.yul\":14118:14126   */\n      dup2\n        /* \"#utility.yul\":14103:14126   */\n      swap1\n      pop\n        /* \"#utility.yul\":14079:14128   */\n    tag_268:\n        /* \"#utility.yul\":14141:14221   */\n      tag_269\n        /* \"#utility.yul\":14197:14219   */\n      tag_270\n        /* \"#utility.yul\":14215:14218   */\n      dup6\n        /* \"#utility.yul\":14197:14219   */\n      tag_102\n      jump\t// in\n    tag_270:\n        /* \"#utility.yul\":14187:14195   */\n      dup4\n        /* \"#utility.yul\":14183:14220   */\n      add\n        /* \"#utility.yul\":14170:14181   */\n      dup3\n        /* \"#utility.yul\":14141:14221   */\n      tag_111\n      jump\t// in\n    tag_269:\n        /* \"#utility.yul\":13800:14231   */\n      pop\n      pop\n        /* \"#utility.yul\":13785:14231   */\n    tag_265:\n        /* \"#utility.yul\":13695:14238   */\n      pop\n      pop\n      pop\n      jump\t// out\n        /* \"#utility.yul\":14244:14361   */\n    tag_113:\n        /* \"#utility.yul\":14298:14306   */\n      0x00\n        /* \"#utility.yul\":14348:14353   */\n      dup3\n        /* \"#utility.yul\":14342:14346   */\n      dup3\n        /* \"#utility.yul\":14338:14354   */\n      shr\n        /* \"#utility.yul\":14317:14354   */\n      swap1\n      pop\n        /* \"#utility.yul\":14244:14361   */\n      swap3\n      swap2\n      pop\n      pop\n      jump\t// out\n        /* \"#utility.yul\":14367:14536   */\n    tag_114:\n        /* \"#utility.yul\":14411:14417   */\n      0x00\n        /* \"#utility.yul\":14444:14495   */\n      tag_273\n        /* \"#utility.yul\":14492:14493   */\n      0x00\n        /* \"#utility.yul\":14488:14494   */\n      not\n        /* \"#utility.yul\":14480:14485   */\n      dup5\n        /* \"#utility.yul\":14477:14478   */\n      0x08\n        /* \"#utility.yul\":14473:14486   */\n      mul\n        /* \"#utility.yul\":14444:14495   */\n      tag_113\n      jump\t// in\n    tag_273:\n        /* \"#utility.yul\":14440:14496   */\n      not\n        /* \"#utility.yul\":14525:14529   */\n      dup1\n        /* \"#utility.yul\":14519:14523   */\n      dup4\n        /* \"#utility.yul\":14515:14530   */\n      and\n        /* \"#utility.yul\":14505:14530   */\n      swap2\n      pop\n        /* \"#utility.yul\":14418:14536   */\n      pop\n        /* \"#utility.yul\":14367:14536   */\n      swap3\n      swap2\n      pop\n      pop\n      jump\t// out\n        /* \"#utility.yul\":14541:14836   */\n    tag_115:\n        /* \"#utility.yul\":14617:14621   */\n      0x00\n        /* \"#utility.yul\":14763:14792   */\n      tag_275\n        /* \"#utility.yul\":14788:14791   */\n      dup4\n        /* \"#utility.yul\":14782:14786   */\n      dup4\n        /* \"#utility.yul\":14763:14792   */\n      tag_114\n      jump\t// in\n    tag_275:\n        /* \"#utility.yul\":14755:14792   */\n      swap2\n      pop\n        /* \"#utility.yul\":14825:14828   */\n      dup3\n        /* \"#utility.yul\":14822:14823   */\n      0x02\n        /* \"#utility.yul\":14818:14829   */\n      mul\n        /* \"#utility.yul\":14812:14816   */\n      dup3\n        /* \"#utility.yul\":14809:14830   */\n      or\n        /* \"#utility.yul\":14801:14830   */\n      swap1\n      pop\n        /* \"#utility.yul\":14541:14836   */\n      swap3\n      swap2\n      pop\n      pop\n      jump\t// out\n        /* \"#utility.yul\":14841:16236   */\n    tag_44:\n        /* \"#utility.yul\":14958:14995   */\n      tag_277\n        /* \"#utility.yul\":14991:14994   */\n      dup3\n        /* \"#utility.yul\":14958:14995   */\n      tag_84\n      jump\t// in\n    tag_277:\n        /* \"#utility.yul\":15060:15078   */\n      0xffffffffffffffff\n        /* \"#utility.yul\":15052:15058   */\n      dup2\n        /* \"#utility.yul\":15049:15079   */\n      gt\n        /* \"#utility.yul\":15046:15102   */\n      iszero\n      tag_278\n      jumpi\n        /* \"#utility.yul\":15082:15100   */\n      tag_279\n      tag_74\n      jump\t// in\n    tag_279:\n        /* \"#utility.yul\":15046:15102   */\n    tag_278:\n        /* \"#utility.yul\":15126:15164   */\n      tag_280\n        /* \"#utility.yul\":15158:15162   */\n      dup3\n        /* \"#utility.yul\":15152:15163   */\n      sload\n        /* \"#utility.yul\":15126:15164   */\n      tag_48\n      jump\t// in\n    tag_280:\n        /* \"#utility.yul\":15211:15278   */\n      tag_281\n        /* \"#utility.yul\":15271:15277   */\n      dup3\n        /* \"#utility.yul\":15263:15269   */\n      dup3\n        /* \"#utility.yul\":15257:15261   */\n      dup6\n        /* \"#utility.yul\":15211:15278   */\n      tag_112\n      jump\t// in\n    tag_281:\n        /* \"#utility.yul\":15305:15306   */\n      0x00\n        /* \"#utility.yul\":15329:15333   */\n      0x20\n        /* \"#utility.yul\":15316:15333   */\n      swap1\n      pop\n        /* \"#utility.yul\":15361:15363   */\n      0x1f\n        /* \"#utility.yul\":15353:15359   */\n      dup4\n        /* \"#utility.yul\":15350:15364   */\n      gt\n        /* \"#utility.yul\":15378:15379   */\n      0x01\n        /* \"#utility.yul\":15373:15991   */\n      dup2\n      eq\n      tag_283\n      jumpi\n        /* \"#utility.yul\":16035:16036   */\n      0x00\n        /* \"#utility.yul\":16052:16058   */\n      dup5\n        /* \"#utility.yul\":16049:16126   */\n      iszero\n      tag_284\n      jumpi\n        /* \"#utility.yul\":16101:16110   */\n      dup3\n        /* \"#utility.yul\":16096:16099   */\n      dup8\n        /* \"#utility.yul\":16092:16111   */\n      add\n        /* \"#utility.yul\":16086:16112   */\n      mload\n        /* \"#utility.yul\":16077:16112   */\n      swap1\n      pop\n        /* \"#utility.yul\":16049:16126   */\n    tag_284:\n        /* \"#utility.yul\":16152:16219   */\n      tag_285\n        /* \"#utility.yul\":16212:16218   */\n      dup6\n        /* \"#utility.yul\":16205:16210   */\n      dup3\n        /* \"#utility.yul\":16152:16219   */\n      tag_115\n      jump\t// in\n    tag_285:\n        /* \"#utility.yul\":16146:16150   */\n      dup7\n        /* \"#utility.yul\":16139:16220   */\n      sstore\n        /* \"#utility.yul\":16008:16230   */\n      pop\n        /* \"#utility.yul\":15343:16230   */\n      jump(tag_282)\n        /* \"#utility.yul\":15373:15991   */\n    tag_283:\n        /* \"#utility.yul\":15425:15429   */\n      0x1f\n        /* \"#utility.yul\":15421:15430   */\n      not\n        /* \"#utility.yul\":15413:15419   */\n      dup5\n        /* \"#utility.yul\":15409:15431   */\n      and\n        /* \"#utility.yul\":15459:15496   */\n      tag_286\n        /* \"#utility.yul\":15491:15495   */\n      dup7\n        /* \"#utility.yul\":15459:15496   */\n      tag_101\n      jump\t// in\n    tag_286:\n        /* \"#utility.yul\":15518:15519   */\n      0x00\n        /* \"#utility.yul\":15532:15740   */\n    tag_287:\n        /* \"#utility.yul\":15546:15553   */\n      dup3\n        /* \"#utility.yul\":15543:15544   */\n      dup2\n        /* \"#utility.yul\":15540:15554   */\n      lt\n        /* \"#utility.yul\":15532:15740   */\n      iszero\n      tag_289\n      jumpi\n        /* \"#utility.yul\":15625:15634   */\n      dup5\n        /* \"#utility.yul\":15620:15623   */\n      dup10\n        /* \"#utility.yul\":15616:15635   */\n      add\n        /* \"#utility.yul\":15610:15636   */\n      mload\n        /* \"#utility.yul\":15602:15608   */\n      dup3\n        /* \"#utility.yul\":15595:15637   */\n      sstore\n        /* \"#utility.yul\":15676:15677   */\n      0x01\n        /* \"#utility.yul\":15668:15674   */\n      dup3\n        /* \"#utility.yul\":15664:15678   */\n      add\n        /* \"#utility.yul\":15654:15678   */\n      swap2\n      pop\n        /* \"#utility.yul\":15723:15725   */\n      0x20\n        /* \"#utility.yul\":15712:15721   */\n      dup6\n        /* \"#utility.yul\":15708:15726   */\n      add\n        /* \"#utility.yul\":15695:15726   */\n      swap5\n      pop\n        /* \"#utility.yul\":15569:15573   */\n      0x20\n        /* \"#utility.yul\":15566:15567   */\n      dup2\n        /* \"#utility.yul\":15562:15574   */\n      add\n        /* \"#utility.yul\":15557:15574   */\n      swap1\n      pop\n        /* \"#utility.yul\":15532:15740   */\n      jump(tag_287)\n    tag_289:\n        /* \"#utility.yul\":15768:15774   */\n      dup7\n        /* \"#utility.yul\":15759:15766   */\n      dup4\n        /* \"#utility.yul\":15756:15775   */\n      lt\n        /* \"#utility.yul\":15753:15932   */\n      iszero\n      tag_290\n      jumpi\n        /* \"#utility.yul\":15826:15835   */\n      dup5\n        /* \"#utility.yul\":15821:15824   */\n      dup10\n        /* \"#utility.yul\":15817:15836   */\n      add\n        /* \"#utility.yul\":15811:15837   */\n      mload\n        /* \"#utility.yul\":15869:15917   */\n      tag_291\n        /* \"#utility.yul\":15911:15915   */\n      0x1f\n        /* \"#utility.yul\":15903:15909   */\n      dup10\n        /* \"#utility.yul\":15899:15916   */\n      and\n        /* \"#utility.yul\":15888:15897   */\n      dup3\n        /* \"#utility.yul\":15869:15917   */\n      tag_114\n      jump\t// in\n    tag_291:\n        /* \"#utility.yul\":15861:15867   */\n      dup4\n        /* \"#utility.yul\":15854:15918   */\n      sstore\n        /* \"#utility.yul\":15776:15932   */\n      pop\n        /* \"#utility.yul\":15753:15932   */\n    tag_290:\n        /* \"#utility.yul\":15978:15979   */\n      0x01\n        /* \"#utility.yul\":15974:15975   */\n      0x02\n        /* \"#utility.yul\":15966:15972   */\n      dup9\n        /* \"#utility.yul\":15962:15976   */\n      mul\n        /* \"#utility.yul\":15958:15980   */\n      add\n        /* \"#utility.yul\":15952:15956   */\n      dup9\n        /* \"#utility.yul\":15945:15981   */\n      sstore\n        /* \"#utility.yul\":15380:15991   */\n      pop\n      pop\n      pop\n        /* \"#utility.yul\":15343:16230   */\n    tag_282:\n      pop\n        /* \"#utility.yul\":14933:16236   */\n      pop\n      pop\n      pop\n        /* \"#utility.yul\":14841:16236   */\n      pop\n      pop\n      jump\t// out\n\n    auxdata: 0xa26469706673582212204b24d83c4896fda60ac74405ea64b2941a96fd0f83d936ae28f9fecac15274e364736f6c63430008160033\n}\n",
				"bytecode": {
					"linkReferences": {},
					"object": "608060405234801562000010575f80fd5b505f60405180606001604052803373ffffffffffffffffffffffffffffffffffffffff1681526020016040518060400160405280600981526020017f47726f636572696573000000000000000000000000000000000000000000000081525081526020016032815250908060018154018082558091505060019003905f5260205f2090600302015f909190919091505f820151815f015f6101000a81548173ffffffffffffffffffffffffffffffffffffffff021916908373ffffffffffffffffffffffffffffffffffffffff1602179055506020820151816001019081620000fa91906200055d565b506040820151816002015550505f60405180606001604052803373ffffffffffffffffffffffffffffffffffffffff1681526020016040518060400160405280600e81526020017f5472616e73706f72746174696f6e0000000000000000000000000000000000008152508152602001601e815250908060018154018082558091505060019003905f5260205f2090600302015f909190919091505f820151815f015f6101000a81548173ffffffffffffffffffffffffffffffffffffffff021916908373ffffffffffffffffffffffffffffffffffffffff1602179055506020820151816001019081620001f091906200055d565b506040820151816002015550505f60405180606001604052803373ffffffffffffffffffffffffffffffffffffffff1681526020016040518060400160405280600a81526020017f44696e696e67204f75740000000000000000000000000000000000000000000081525081526020016019815250908060018154018082558091505060019003905f5260205f2090600302015f909190919091505f820151815f015f6101000a81548173ffffffffffffffffffffffffffffffffffffffff021916908373ffffffffffffffffffffffffffffffffffffffff1602179055506020820151816001019081620002e691906200055d565b5060408201518160020155505062000641565b5f81519050919050565b7f4e487b71000000000000000000000000000000000000000000000000000000005f52604160045260245ffd5b7f4e487b71000000000000000000000000000000000000000000000000000000005f52602260045260245ffd5b5f60028204905060018216806200037557607f821691505b6020821081036200038b576200038a62000330565b5b50919050565b5f819050815f5260205f209050919050565b5f6020601f8301049050919050565b5f82821b905092915050565b5f60088302620003ef7fffffffffffffffffffffffffffffffffffffffffffffffffffffffffffffffff82620003b2565b620003fb8683620003b2565b95508019841693508086168417925050509392505050565b5f819050919050565b5f819050919050565b5f620004456200043f620004398462000413565b6200041c565b62000413565b9050919050565b5f819050919050565b620004608362000425565b620004786200046f826200044c565b848454620003be565b825550505050565b5f90565b6200048e62000480565b6200049b81848462000455565b505050565b5b81811015620004c257620004b65f8262000484565b600181019050620004a1565b5050565b601f8211156200051157620004db8162000391565b620004e684620003a3565b81016020851015620004f6578190505b6200050e6200050585620003a3565b830182620004a0565b50505b505050565b5f82821c905092915050565b5f620005335f198460080262000516565b1980831691505092915050565b5f6200054d838362000522565b9150826002028217905092915050565b6200056882620002f9565b67ffffffffffffffff81111562000584576200058362000303565b5b6200059082546200035d565b6200059d828285620004c6565b5f60209050601f831160018114620005d3575f8415620005be578287015190505b620005ca858262000540565b86555062000639565b601f198416620005e38662000391565b5f5b828110156200060c57848901518255600182019150602085019450602081019050620005e5565b868310156200062c578489015162000628601f89168262000522565b8355505b6001600288020188555050505b505050505050565b610d2d806200064f5f395ff3fe608060405234801561000f575f80fd5b506004361061004a575f3560e01c80633fb457e41461004e578063a4df1f5a1461007e578063af4afe0a1461009a578063dd53ff6c146100cc575b5f80fd5b61006860048036038101906100639190610507565b6100ea565b604051610075919061054a565b60405180910390f35b610098600480360381019061009391906106c9565b6101b8565b005b6100b460048036038101906100af9190610723565b61027a565b6040516100c3939291906107d7565b60405180910390f35b6100d4610353565b6040516100e19190610981565b60405180910390f35b5f805f90505f5b5f805490508110156101ae578373ffffffffffffffffffffffffffffffffffffffff165f8281548110610127576101266109a1565b5b905f5260205f2090600302015f015f9054906101000a900473ffffffffffffffffffffffffffffffffffffffff1673ffffffffffffffffffffffffffffffffffffffff16036101a1575f8181548110610183576101826109a1565b5b905f5260205f209060030201600201548261019e91906109fb565b91505b80806001019150506100f1565b5080915050919050565b5f60405180606001604052803373ffffffffffffffffffffffffffffffffffffffff16815260200184815260200183815250908060018154018082558091505060019003905f5260205f2090600302015f909190919091505f820151815f015f6101000a81548173ffffffffffffffffffffffffffffffffffffffff021916908373ffffffffffffffffffffffffffffffffffffffff16021790555060208201518160010190816102699190610c28565b506040820151816002015550505050565b5f8181548110610288575f80fd5b905f5260205f2090600302015f91509050805f015f9054906101000a900473ffffffffffffffffffffffffffffffffffffffff16908060010180546102cc90610a5b565b80601f01602080910402602001604051908101604052809291908181526020018280546102f890610a5b565b80156103435780601f1061031a57610100808354040283529160200191610343565b820191905f5260205f20905b81548152906001019060200180831161032657829003601f168201915b5050505050908060020154905083565b60605f805480602002602001604051908101604052809291908181526020015f905b82821015610493578382905f5260205f2090600302016040518060600160405290815f82015f9054906101000a900473ffffffffffffffffffffffffffffffffffffffff1673ffffffffffffffffffffffffffffffffffffffff1673ffffffffffffffffffffffffffffffffffffffff1681526020016001820180546103fa90610a5b565b80601f016020809104026020016040519081016040528092919081815260200182805461042690610a5b565b80156104715780601f1061044857610100808354040283529160200191610471565b820191905f5260205f20905b81548152906001019060200180831161045457829003601f168201915b5050505050815260200160028201548152505081526020019060010190610375565b50505050905090565b5f604051905090565b5f80fd5b5f80fd5b5f73ffffffffffffffffffffffffffffffffffffffff82169050919050565b5f6104d6826104ad565b9050919050565b6104e6816104cc565b81146104f0575f80fd5b50565b5f81359050610501816104dd565b92915050565b5f6020828403121561051c5761051b6104a5565b5b5f610529848285016104f3565b91505092915050565b5f819050919050565b61054481610532565b82525050565b5f60208201905061055d5f83018461053b565b92915050565b5f80fd5b5f80fd5b5f601f19601f8301169050919050565b7f4e487b71000000000000000000000000000000000000000000000000000000005f52604160045260245ffd5b6105b18261056b565b810181811067ffffffffffffffff821117156105d0576105cf61057b565b5b80604052505050565b5f6105e261049c565b90506105ee82826105a8565b919050565b5f67ffffffffffffffff82111561060d5761060c61057b565b5b6106168261056b565b9050602081019050919050565b828183375f83830152505050565b5f61064361063e846105f3565b6105d9565b90508281526020810184848401111561065f5761065e610567565b5b61066a848285610623565b509392505050565b5f82601f83011261068657610685610563565b5b8135610696848260208601610631565b91505092915050565b6106a881610532565b81146106b2575f80fd5b50565b5f813590506106c38161069f565b92915050565b5f80604083850312156106df576106de6104a5565b5b5f83013567ffffffffffffffff8111156106fc576106fb6104a9565b5b61070885828601610672565b9250506020610719858286016106b5565b9150509250929050565b5f60208284031215610738576107376104a5565b5b5f610745848285016106b5565b91505092915050565b610757816104cc565b82525050565b5f81519050919050565b5f82825260208201905092915050565b5f5b83811015610794578082015181840152602081019050610779565b5f8484015250505050565b5f6107a98261075d565b6107b38185610767565b93506107c3818560208601610777565b6107cc8161056b565b840191505092915050565b5f6060820190506107ea5f83018661074e565b81810360208301526107fc818561079f565b905061080b604083018461053b565b949350505050565b5f81519050919050565b5f82825260208201905092915050565b5f819050602082019050919050565b610845816104cc565b82525050565b5f82825260208201905092915050565b5f6108658261075d565b61086f818561084b565b935061087f818560208601610777565b6108888161056b565b840191505092915050565b61089c81610532565b82525050565b5f606083015f8301516108b75f86018261083c565b50602083015184820360208601526108cf828261085b565b91505060408301516108e46040860182610893565b508091505092915050565b5f6108fa83836108a2565b905092915050565b5f602082019050919050565b5f61091882610813565b610922818561081d565b9350836020820285016109348561082d565b805f5b8581101561096f578484038952815161095085826108ef565b945061095b83610902565b925060208a01995050600181019050610937565b50829750879550505050505092915050565b5f6020820190508181035f830152610999818461090e565b905092915050565b7f4e487b71000000000000000000000000000000000000000000000000000000005f52603260045260245ffd5b7f4e487b71000000000000000000000000000000000000000000000000000000005f52601160045260245ffd5b5f610a0582610532565b9150610a1083610532565b9250828201905080821115610a2857610a276109ce565b5b92915050565b7f4e487b71000000000000000000000000000000000000000000000000000000005f52602260045260245ffd5b5f6002820490506001821680610a7257607f821691505b602082108103610a8557610a84610a2e565b5b50919050565b5f819050815f5260205f209050919050565b5f6020601f8301049050919050565b5f82821b905092915050565b5f60088302610ae77fffffffffffffffffffffffffffffffffffffffffffffffffffffffffffffffff82610aac565b610af18683610aac565b95508019841693508086168417925050509392505050565b5f819050919050565b5f610b2c610b27610b2284610532565b610b09565b610532565b9050919050565b5f819050919050565b610b4583610b12565b610b59610b5182610b33565b848454610ab8565b825550505050565b5f90565b610b6d610b61565b610b78818484610b3c565b505050565b5b81811015610b9b57610b905f82610b65565b600181019050610b7e565b5050565b601f821115610be057610bb181610a8b565b610bba84610a9d565b81016020851015610bc9578190505b610bdd610bd585610a9d565b830182610b7d565b50505b505050565b5f82821c905092915050565b5f610c005f1984600802610be5565b1980831691505092915050565b5f610c188383610bf1565b9150826002028217905092915050565b610c318261075d565b67ffffffffffffffff811115610c4a57610c4961057b565b5b610c548254610a5b565b610c5f828285610b9f565b5f60209050601f831160018114610c90575f8415610c7e578287015190505b610c888582610c0d565b865550610cef565b601f198416610c9e86610a8b565b5f5b82811015610cc557848901518255600182019150602085019450602081019050610ca0565b86831015610ce25784890151610cde601f891682610bf1565b8355505b6001600288020188555050505b50505050505056fea26469706673582212204b24d83c4896fda60ac74405ea64b2941a96fd0f83d936ae28f9fecac15274e364736f6c63430008160033",
					"opcodes": "PUSH1 0x80 PUSH1 0x40 MSTORE CALLVALUE DUP1 ISZERO PUSH3 0x10 JUMPI PUSH0 DUP1 REVERT JUMPDEST POP PUSH0 PUSH1 0x40 MLOAD DUP1 PUSH1 0x60 ADD PUSH1 0x40 MSTORE DUP1 CALLER PUSH20 0xFFFFFFFFFFFFFFFFFFFFFFFFFFFFFFFFFFFFFFFF AND DUP2 MSTORE PUSH1 0x20 ADD PUSH1 0x40 MLOAD DUP1 PUSH1 0x40 ADD PUSH1 0x40 MSTORE DUP1 PUSH1 0x9 DUP2 MSTORE PUSH1 0x20 ADD PUSH32 0x47726F6365726965730000000000000000000000000000000000000000000000 DUP2 MSTORE POP DUP2 MSTORE PUSH1 0x20 ADD PUSH1 0x32 DUP2 MSTORE POP SWAP1 DUP1 PUSH1 0x1 DUP2 SLOAD ADD DUP1 DUP3 SSTORE DUP1 SWAP2 POP POP PUSH1 0x1 SWAP1 SUB SWAP1 PUSH0 MSTORE PUSH1 0x20 PUSH0 KECCAK256 SWAP1 PUSH1 0x3 MUL ADD PUSH0 SWAP1 SWAP2 SWAP1 SWAP2 SWAP1 SWAP2 POP PUSH0 DUP3 ADD MLOAD DUP2 PUSH0 ADD PUSH0 PUSH2 0x100 EXP DUP2 SLOAD DUP2 PUSH20 0xFFFFFFFFFFFFFFFFFFFFFFFFFFFFFFFFFFFFFFFF MUL NOT AND SWAP1 DUP4 PUSH20 0xFFFFFFFFFFFFFFFFFFFFFFFFFFFFFFFFFFFFFFFF AND MUL OR SWAP1 SSTORE POP PUSH1 0x20 DUP3 ADD MLOAD DUP2 PUSH1 0x1 ADD SWAP1 DUP2 PUSH3 0xFA SWAP2 SWAP1 PUSH3 0x55D JUMP JUMPDEST POP PUSH1 0x40 DUP3 ADD MLOAD DUP2 PUSH1 0x2 ADD SSTORE POP POP PUSH0 PUSH1 0x40 MLOAD DUP1 PUSH1 0x60 ADD PUSH1 0x40 MSTORE DUP1 CALLER PUSH20 0xFFFFFFFFFFFFFFFFFFFFFFFFFFFFFFFFFFFFFFFF AND DUP2 MSTORE PUSH1 0x20 ADD PUSH1 0x40 MLOAD DUP1 PUSH1 0x40 ADD PUSH1 0x40 MSTORE DUP1 PUSH1 0xE DUP2 MSTORE PUSH1 0x20 ADD PUSH32 0x5472616E73706F72746174696F6E000000000000000000000000000000000000 DUP2 MSTORE POP DUP2 MSTORE PUSH1 0x20 ADD PUSH1 0x1E DUP2 MSTORE POP SWAP1 DUP1 PUSH1 0x1 DUP2 SLOAD ADD DUP1 DUP3 SSTORE DUP1 SWAP2 POP POP PUSH1 0x1 SWAP1 SUB SWAP1 PUSH0 MSTORE PUSH1 0x20 PUSH0 KECCAK256 SWAP1 PUSH1 0x3 MUL ADD PUSH0 SWAP1 SWAP2 SWAP1 SWAP2 SWAP1 SWAP2 POP PUSH0 DUP3 ADD MLOAD DUP2 PUSH0 ADD PUSH0 PUSH2 0x100 EXP DUP2 SLOAD DUP2 PUSH20 0xFFFFFFFFFFFFFFFFFFFFFFFFFFFFFFFFFFFFFFFF MUL NOT AND SWAP1 DUP4 PUSH20 0xFFFFFFFFFFFFFFFFFFFFFFFFFFFFFFFFFFFFFFFF AND MUL OR SWAP1 SSTORE POP PUSH1 0x20 DUP3 ADD MLOAD DUP2 PUSH1 0x1 ADD SWAP1 DUP2 PUSH3 0x1F0 SWAP2 SWAP1 PUSH3 0x55D JUMP JUMPDEST POP PUSH1 0x40 DUP3 ADD MLOAD DUP2 PUSH1 0x2 ADD SSTORE POP POP PUSH0 PUSH1 0x40 MLOAD DUP1 PUSH1 0x60 ADD PUSH1 0x40 MSTORE DUP1 CALLER PUSH20 0xFFFFFFFFFFFFFFFFFFFFFFFFFFFFFFFFFFFFFFFF AND DUP2 MSTORE PUSH1 0x20 ADD PUSH1 0x40 MLOAD DUP1 PUSH1 0x40 ADD PUSH1 0x40 MSTORE DUP1 PUSH1 0xA DUP2 MSTORE PUSH1 0x20 ADD PUSH32 0x44696E696E67204F757400000000000000000000000000000000000000000000 DUP2 MSTORE POP DUP2 MSTORE PUSH1 0x20 ADD PUSH1 0x19 DUP2 MSTORE POP SWAP1 DUP1 PUSH1 0x1 DUP2 SLOAD ADD DUP1 DUP3 SSTORE DUP1 SWAP2 POP POP PUSH1 0x1 SWAP1 SUB SWAP1 PUSH0 MSTORE PUSH1 0x20 PUSH0 KECCAK256 SWAP1 PUSH1 0x3 MUL ADD PUSH0 SWAP1 SWAP2 SWAP1 SWAP2 SWAP1 SWAP2 POP PUSH0 DUP3 ADD MLOAD DUP2 PUSH0 ADD PUSH0 PUSH2 0x100 EXP DUP2 SLOAD DUP2 PUSH20 0xFFFFFFFFFFFFFFFFFFFFFFFFFFFFFFFFFFFFFFFF MUL NOT AND SWAP1 DUP4 PUSH20 0xFFFFFFFFFFFFFFFFFFFFFFFFFFFFFFFFFFFFFFFF AND MUL OR SWAP1 SSTORE POP PUSH1 0x20 DUP3 ADD MLOAD DUP2 PUSH1 0x1 ADD SWAP1 DUP2 PUSH3 0x2E6 SWAP2 SWAP1 PUSH3 0x55D JUMP JUMPDEST POP PUSH1 0x40 DUP3 ADD MLOAD DUP2 PUSH1 0x2 ADD SSTORE POP POP PUSH3 0x641 JUMP JUMPDEST PUSH0 DUP2 MLOAD SWAP1 POP SWAP2 SWAP1 POP JUMP JUMPDEST PUSH32 0x4E487B7100000000000000000000000000000000000000000000000000000000 PUSH0 MSTORE PUSH1 0x41 PUSH1 0x4 MSTORE PUSH1 0x24 PUSH0 REVERT JUMPDEST PUSH32 0x4E487B7100000000000000000000000000000000000000000000000000000000 PUSH0 MSTORE PUSH1 0x22 PUSH1 0x4 MSTORE PUSH1 0x24 PUSH0 REVERT JUMPDEST PUSH0 PUSH1 0x2 DUP3 DIV SWAP1 POP PUSH1 0x1 DUP3 AND DUP1 PUSH3 0x375 JUMPI PUSH1 0x7F DUP3 AND SWAP2 POP JUMPDEST PUSH1 0x20 DUP3 LT DUP2 SUB PUSH3 0x38B JUMPI PUSH3 0x38A PUSH3 0x330 JUMP JUMPDEST JUMPDEST POP SWAP2 SWAP1 POP JUMP JUMPDEST PUSH0 DUP2 SWAP1 POP DUP2 PUSH0 MSTORE PUSH1 0x20 PUSH0 KECCAK256 SWAP1 POP SWAP2 SWAP1 POP JUMP JUMPDEST PUSH0 PUSH1 0x20 PUSH1 0x1F DUP4 ADD DIV SWAP1 POP SWAP2 SWAP1 POP JUMP JUMPDEST PUSH0 DUP3 DUP3 SHL SWAP1 POP SWAP3 SWAP2 POP POP JUMP JUMPDEST PUSH0 PUSH1 0x8 DUP4 MUL PUSH3 0x3EF PUSH32 0xFFFFFFFFFFFFFFFFFFFFFFFFFFFFFFFFFFFFFFFFFFFFFFFFFFFFFFFFFFFFFFFF DUP3 PUSH3 0x3B2 JUMP JUMPDEST PUSH3 0x3FB DUP7 DUP4 PUSH3 0x3B2 JUMP JUMPDEST SWAP6 POP DUP1 NOT DUP5 AND SWAP4 POP DUP1 DUP7 AND DUP5 OR SWAP3 POP POP POP SWAP4 SWAP3 POP POP POP JUMP JUMPDEST PUSH0 DUP2 SWAP1 POP SWAP2 SWAP1 POP JUMP JUMPDEST PUSH0 DUP2 SWAP1 POP SWAP2 SWAP1 POP JUMP JUMPDEST PUSH0 PUSH3 0x445 PUSH3 0x43F PUSH3 0x439 DUP5 PUSH3 0x413 JUMP JUMPDEST PUSH3 0x41C JUMP JUMPDEST PUSH3 0x413 JUMP JUMPDEST SWAP1 POP SWAP2 SWAP1 POP JUMP JUMPDEST PUSH0 DUP2 SWAP1 POP SWAP2 SWAP1 POP JUMP JUMPDEST PUSH3 0x460 DUP4 PUSH3 0x425 JUMP JUMPDEST PUSH3 0x478 PUSH3 0x46F DUP3 PUSH3 0x44C JUMP JUMPDEST DUP5 DUP5 SLOAD PUSH3 0x3BE JUMP JUMPDEST DUP3 SSTORE POP POP POP POP JUMP JUMPDEST PUSH0 SWAP1 JUMP JUMPDEST PUSH3 0x48E PUSH3 0x480 JUMP JUMPDEST PUSH3 0x49B DUP2 DUP5 DUP5 PUSH3 0x455 JUMP JUMPDEST POP POP POP JUMP JUMPDEST JUMPDEST DUP2 DUP2 LT ISZERO PUSH3 0x4C2 JUMPI PUSH3 0x4B6 PUSH0 DUP3 PUSH3 0x484 JUMP JUMPDEST PUSH1 0x1 DUP2 ADD SWAP1 POP PUSH3 0x4A1 JUMP JUMPDEST POP POP JUMP JUMPDEST PUSH1 0x1F DUP3 GT ISZERO PUSH3 0x511 JUMPI PUSH3 0x4DB DUP2 PUSH3 0x391 JUMP JUMPDEST PUSH3 0x4E6 DUP5 PUSH3 0x3A3 JUMP JUMPDEST DUP2 ADD PUSH1 0x20 DUP6 LT ISZERO PUSH3 0x4F6 JUMPI DUP2 SWAP1 POP JUMPDEST PUSH3 0x50E PUSH3 0x505 DUP6 PUSH3 0x3A3 JUMP JUMPDEST DUP4 ADD DUP3 PUSH3 0x4A0 JUMP JUMPDEST POP POP JUMPDEST POP POP POP JUMP JUMPDEST PUSH0 DUP3 DUP3 SHR SWAP1 POP SWAP3 SWAP2 POP POP JUMP JUMPDEST PUSH0 PUSH3 0x533 PUSH0 NOT DUP5 PUSH1 0x8 MUL PUSH3 0x516 JUMP JUMPDEST NOT DUP1 DUP4 AND SWAP2 POP POP SWAP3 SWAP2 POP POP JUMP JUMPDEST PUSH0 PUSH3 0x54D DUP4 DUP4 PUSH3 0x522 JUMP JUMPDEST SWAP2 POP DUP3 PUSH1 0x2 MUL DUP3 OR SWAP1 POP SWAP3 SWAP2 POP POP JUMP JUMPDEST PUSH3 0x568 DUP3 PUSH3 0x2F9 JUMP JUMPDEST PUSH8 0xFFFFFFFFFFFFFFFF DUP2 GT ISZERO PUSH3 0x584 JUMPI PUSH3 0x583 PUSH3 0x303 JUMP JUMPDEST JUMPDEST PUSH3 0x590 DUP3 SLOAD PUSH3 0x35D JUMP JUMPDEST PUSH3 0x59D DUP3 DUP3 DUP6 PUSH3 0x4C6 JUMP JUMPDEST PUSH0 PUSH1 0x20 SWAP1 POP PUSH1 0x1F DUP4 GT PUSH1 0x1 DUP2 EQ PUSH3 0x5D3 JUMPI PUSH0 DUP5 ISZERO PUSH3 0x5BE JUMPI DUP3 DUP8 ADD MLOAD SWAP1 POP JUMPDEST PUSH3 0x5CA DUP6 DUP3 PUSH3 0x540 JUMP JUMPDEST DUP7 SSTORE POP PUSH3 0x639 JUMP JUMPDEST PUSH1 0x1F NOT DUP5 AND PUSH3 0x5E3 DUP7 PUSH3 0x391 JUMP JUMPDEST PUSH0 JUMPDEST DUP3 DUP2 LT ISZERO PUSH3 0x60C JUMPI DUP5 DUP10 ADD MLOAD DUP3 SSTORE PUSH1 0x1 DUP3 ADD SWAP2 POP PUSH1 0x20 DUP6 ADD SWAP5 POP PUSH1 0x20 DUP2 ADD SWAP1 POP PUSH3 0x5E5 JUMP JUMPDEST DUP7 DUP4 LT ISZERO PUSH3 0x62C JUMPI DUP5 DUP10 ADD MLOAD PUSH3 0x628 PUSH1 0x1F DUP10 AND DUP3 PUSH3 0x522 JUMP JUMPDEST DUP4 SSTORE POP JUMPDEST PUSH1 0x1 PUSH1 0x2 DUP9 MUL ADD DUP9 SSTORE POP POP POP JUMPDEST POP POP POP POP POP POP JUMP JUMPDEST PUSH2 0xD2D DUP1 PUSH3 0x64F PUSH0 CODECOPY PUSH0 RETURN INVALID PUSH1 0x80 PUSH1 0x40 MSTORE CALLVALUE DUP1 ISZERO PUSH2 0xF JUMPI PUSH0 DUP1 REVERT JUMPDEST POP PUSH1 0x4 CALLDATASIZE LT PUSH2 0x4A JUMPI PUSH0 CALLDATALOAD PUSH1 0xE0 SHR DUP1 PUSH4 0x3FB457E4 EQ PUSH2 0x4E JUMPI DUP1 PUSH4 0xA4DF1F5A EQ PUSH2 0x7E JUMPI DUP1 PUSH4 0xAF4AFE0A EQ PUSH2 0x9A JUMPI DUP1 PUSH4 0xDD53FF6C EQ PUSH2 0xCC JUMPI JUMPDEST PUSH0 DUP1 REVERT JUMPDEST PUSH2 0x68 PUSH1 0x4 DUP1 CALLDATASIZE SUB DUP2 ADD SWAP1 PUSH2 0x63 SWAP2 SWAP1 PUSH2 0x507 JUMP JUMPDEST PUSH2 0xEA JUMP JUMPDEST PUSH1 0x40 MLOAD PUSH2 0x75 SWAP2 SWAP1 PUSH2 0x54A JUMP JUMPDEST PUSH1 0x40 MLOAD DUP1 SWAP2 SUB SWAP1 RETURN JUMPDEST PUSH2 0x98 PUSH1 0x4 DUP1 CALLDATASIZE SUB DUP2 ADD SWAP1 PUSH2 0x93 SWAP2 SWAP1 PUSH2 0x6C9 JUMP JUMPDEST PUSH2 0x1B8 JUMP JUMPDEST STOP JUMPDEST PUSH2 0xB4 PUSH1 0x4 DUP1 CALLDATASIZE SUB DUP2 ADD SWAP1 PUSH2 0xAF SWAP2 SWAP1 PUSH2 0x723 JUMP JUMPDEST PUSH2 0x27A JUMP JUMPDEST PUSH1 0x40 MLOAD PUSH2 0xC3 SWAP4 SWAP3 SWAP2 SWAP1 PUSH2 0x7D7 JUMP JUMPDEST PUSH1 0x40 MLOAD DUP1 SWAP2 SUB SWAP1 RETURN JUMPDEST PUSH2 0xD4 PUSH2 0x353 JUMP JUMPDEST PUSH1 0x40 MLOAD PUSH2 0xE1 SWAP2 SWAP1 PUSH2 0x981 JUMP JUMPDEST PUSH1 0x40 MLOAD DUP1 SWAP2 SUB SWAP1 RETURN JUMPDEST PUSH0 DUP1 PUSH0 SWAP1 POP PUSH0 JUMPDEST PUSH0 DUP1 SLOAD SWAP1 POP DUP2 LT ISZERO PUSH2 0x1AE JUMPI DUP4 PUSH20 0xFFFFFFFFFFFFFFFFFFFFFFFFFFFFFFFFFFFFFFFF AND PUSH0 DUP3 DUP2 SLOAD DUP2 LT PUSH2 0x127 JUMPI PUSH2 0x126 PUSH2 0x9A1 JUMP JUMPDEST JUMPDEST SWAP1 PUSH0 MSTORE PUSH1 0x20 PUSH0 KECCAK256 SWAP1 PUSH1 0x3 MUL ADD PUSH0 ADD PUSH0 SWAP1 SLOAD SWAP1 PUSH2 0x100 EXP SWAP1 DIV PUSH20 0xFFFFFFFFFFFFFFFFFFFFFFFFFFFFFFFFFFFFFFFF AND PUSH20 0xFFFFFFFFFFFFFFFFFFFFFFFFFFFFFFFFFFFFFFFF AND SUB PUSH2 0x1A1 JUMPI PUSH0 DUP2 DUP2 SLOAD DUP2 LT PUSH2 0x183 JUMPI PUSH2 0x182 PUSH2 0x9A1 JUMP JUMPDEST JUMPDEST SWAP1 PUSH0 MSTORE PUSH1 0x20 PUSH0 KECCAK256 SWAP1 PUSH1 0x3 MUL ADD PUSH1 0x2 ADD SLOAD DUP3 PUSH2 0x19E SWAP2 SWAP1 PUSH2 0x9FB JUMP JUMPDEST SWAP2 POP JUMPDEST DUP1 DUP1 PUSH1 0x1 ADD SWAP2 POP POP PUSH2 0xF1 JUMP JUMPDEST POP DUP1 SWAP2 POP POP SWAP2 SWAP1 POP JUMP JUMPDEST PUSH0 PUSH1 0x40 MLOAD DUP1 PUSH1 0x60 ADD PUSH1 0x40 MSTORE DUP1 CALLER PUSH20 0xFFFFFFFFFFFFFFFFFFFFFFFFFFFFFFFFFFFFFFFF AND DUP2 MSTORE PUSH1 0x20 ADD DUP5 DUP2 MSTORE PUSH1 0x20 ADD DUP4 DUP2 MSTORE POP SWAP1 DUP1 PUSH1 0x1 DUP2 SLOAD ADD DUP1 DUP3 SSTORE DUP1 SWAP2 POP POP PUSH1 0x1 SWAP1 SUB SWAP1 PUSH0 MSTORE PUSH1 0x20 PUSH0 KECCAK256 SWAP1 PUSH1 0x3 MUL ADD PUSH0 SWAP1 SWAP2 SWAP1 SWAP2 SWAP1 SWAP2 POP PUSH0 DUP3 ADD MLOAD DUP2 PUSH0 ADD PUSH0 PUSH2 0x100 EXP DUP2 SLOAD DUP2 PUSH20 0xFFFFFFFFFFFFFFFFFFFFFFFFFFFFFFFFFFFFFFFF MUL NOT AND SWAP1 DUP4 PUSH20 0xFFFFFFFFFFFFFFFFFFFFFFFFFFFFFFFFFFFFFFFF AND MUL OR SWAP1 SSTORE POP PUSH1 0x20 DUP3 ADD MLOAD DUP2 PUSH1 0x1 ADD SWAP1 DUP2 PUSH2 0x269 SWAP2 SWAP1 PUSH2 0xC28 JUMP JUMPDEST POP PUSH1 0x40 DUP3 ADD MLOAD DUP2 PUSH1 0x2 ADD SSTORE POP POP POP POP JUMP JUMPDEST PUSH0 DUP2 DUP2 SLOAD DUP2 LT PUSH2 0x288 JUMPI PUSH0 DUP1 REVERT JUMPDEST SWAP1 PUSH0 MSTORE PUSH1 0x20 PUSH0 KECCAK256 SWAP1 PUSH1 0x3 MUL ADD PUSH0 SWAP2 POP SWAP1 POP DUP1 PUSH0 ADD PUSH0 SWAP1 SLOAD SWAP1 PUSH2 0x100 EXP SWAP1 DIV PUSH20 0xFFFFFFFFFFFFFFFFFFFFFFFFFFFFFFFFFFFFFFFF AND SWAP1 DUP1 PUSH1 0x1 ADD DUP1 SLOAD PUSH2 0x2CC SWAP1 PUSH2 0xA5B JUMP JUMPDEST DUP1 PUSH1 0x1F ADD PUSH1 0x20 DUP1 SWAP2 DIV MUL PUSH1 0x20 ADD PUSH1 0x40 MLOAD SWAP1 DUP2 ADD PUSH1 0x40 MSTORE DUP1 SWAP3 SWAP2 SWAP1 DUP2 DUP2 MSTORE PUSH1 0x20 ADD DUP3 DUP1 SLOAD PUSH2 0x2F8 SWAP1 PUSH2 0xA5B JUMP JUMPDEST DUP1 ISZERO PUSH2 0x343 JUMPI DUP1 PUSH1 0x1F LT PUSH2 0x31A JUMPI PUSH2 0x100 DUP1 DUP4 SLOAD DIV MUL DUP4 MSTORE SWAP2 PUSH1 0x20 ADD SWAP2 PUSH2 0x343 JUMP JUMPDEST DUP3 ADD SWAP2 SWAP1 PUSH0 MSTORE PUSH1 0x20 PUSH0 KECCAK256 SWAP1 JUMPDEST DUP2 SLOAD DUP2 MSTORE SWAP1 PUSH1 0x1 ADD SWAP1 PUSH1 0x20 ADD DUP1 DUP4 GT PUSH2 0x326 JUMPI DUP3 SWAP1 SUB PUSH1 0x1F AND DUP3 ADD SWAP2 JUMPDEST POP POP POP POP POP SWAP1 DUP1 PUSH1 0x2 ADD SLOAD SWAP1 POP DUP4 JUMP JUMPDEST PUSH1 0x60 PUSH0 DUP1 SLOAD DUP1 PUSH1 0x20 MUL PUSH1 0x20 ADD PUSH1 0x40 MLOAD SWAP1 DUP2 ADD PUSH1 0x40 MSTORE DUP1 SWAP3 SWAP2 SWAP1 DUP2 DUP2 MSTORE PUSH1 0x20 ADD PUSH0 SWAP1 JUMPDEST DUP3 DUP3 LT ISZERO PUSH2 0x493 JUMPI DUP4 DUP3 SWAP1 PUSH0 MSTORE PUSH1 0x20 PUSH0 KECCAK256 SWAP1 PUSH1 0x3 MUL ADD PUSH1 0x40 MLOAD DUP1 PUSH1 0x60 ADD PUSH1 0x40 MSTORE SWAP1 DUP2 PUSH0 DUP3 ADD PUSH0 SWAP1 SLOAD SWAP1 PUSH2 0x100 EXP SWAP1 DIV PUSH20 0xFFFFFFFFFFFFFFFFFFFFFFFFFFFFFFFFFFFFFFFF AND PUSH20 0xFFFFFFFFFFFFFFFFFFFFFFFFFFFFFFFFFFFFFFFF AND PUSH20 0xFFFFFFFFFFFFFFFFFFFFFFFFFFFFFFFFFFFFFFFF AND DUP2 MSTORE PUSH1 0x20 ADD PUSH1 0x1 DUP3 ADD DUP1 SLOAD PUSH2 0x3FA SWAP1 PUSH2 0xA5B JUMP JUMPDEST DUP1 PUSH1 0x1F ADD PUSH1 0x20 DUP1 SWAP2 DIV MUL PUSH1 0x20 ADD PUSH1 0x40 MLOAD SWAP1 DUP2 ADD PUSH1 0x40 MSTORE DUP1 SWAP3 SWAP2 SWAP1 DUP2 DUP2 MSTORE PUSH1 0x20 ADD DUP3 DUP1 SLOAD PUSH2 0x426 SWAP1 PUSH2 0xA5B JUMP JUMPDEST DUP1 ISZERO PUSH2 0x471 JUMPI DUP1 PUSH1 0x1F LT PUSH2 0x448 JUMPI PUSH2 0x100 DUP1 DUP4 SLOAD DIV MUL DUP4 MSTORE SWAP2 PUSH1 0x20 ADD SWAP2 PUSH2 0x471 JUMP JUMPDEST DUP3 ADD SWAP2 SWAP1 PUSH0 MSTORE PUSH1 0x20 PUSH0 KECCAK256 SWAP1 JUMPDEST DUP2 SLOAD DUP2 MSTORE SWAP1 PUSH1 0x1 ADD SWAP1 PUSH1 0x20 ADD DUP1 DUP4 GT PUSH2 0x454 JUMPI DUP3 SWAP1 SUB PUSH1 0x1F AND DUP3 ADD SWAP2 JUMPDEST POP POP POP POP POP DUP2 MSTORE PUSH1 0x20 ADD PUSH1 0x2 DUP3 ADD SLOAD DUP2 MSTORE POP POP DUP2 MSTORE PUSH1 0x20 ADD SWAP1 PUSH1 0x1 ADD SWAP1 PUSH2 0x375 JUMP JUMPDEST POP POP POP POP SWAP1 POP SWAP1 JUMP JUMPDEST PUSH0 PUSH1 0x40 MLOAD SWAP1 POP SWAP1 JUMP JUMPDEST PUSH0 DUP1 REVERT JUMPDEST PUSH0 DUP1 REVERT JUMPDEST PUSH0 PUSH20 0xFFFFFFFFFFFFFFFFFFFFFFFFFFFFFFFFFFFFFFFF DUP3 AND SWAP1 POP SWAP2 SWAP1 POP JUMP JUMPDEST PUSH0 PUSH2 0x4D6 DUP3 PUSH2 0x4AD JUMP JUMPDEST SWAP1 POP SWAP2 SWAP1 POP JUMP JUMPDEST PUSH2 0x4E6 DUP2 PUSH2 0x4CC JUMP JUMPDEST DUP2 EQ PUSH2 0x4F0 JUMPI PUSH0 DUP1 REVERT JUMPDEST POP JUMP JUMPDEST PUSH0 DUP2 CALLDATALOAD SWAP1 POP PUSH2 0x501 DUP2 PUSH2 0x4DD JUMP JUMPDEST SWAP3 SWAP2 POP POP JUMP JUMPDEST PUSH0 PUSH1 0x20 DUP3 DUP5 SUB SLT ISZERO PUSH2 0x51C JUMPI PUSH2 0x51B PUSH2 0x4A5 JUMP JUMPDEST JUMPDEST PUSH0 PUSH2 0x529 DUP5 DUP3 DUP6 ADD PUSH2 0x4F3 JUMP JUMPDEST SWAP2 POP POP SWAP3 SWAP2 POP POP JUMP JUMPDEST PUSH0 DUP2 SWAP1 POP SWAP2 SWAP1 POP JUMP JUMPDEST PUSH2 0x544 DUP2 PUSH2 0x532 JUMP JUMPDEST DUP3 MSTORE POP POP JUMP JUMPDEST PUSH0 PUSH1 0x20 DUP3 ADD SWAP1 POP PUSH2 0x55D PUSH0 DUP4 ADD DUP5 PUSH2 0x53B JUMP JUMPDEST SWAP3 SWAP2 POP POP JUMP JUMPDEST PUSH0 DUP1 REVERT JUMPDEST PUSH0 DUP1 REVERT JUMPDEST PUSH0 PUSH1 0x1F NOT PUSH1 0x1F DUP4 ADD AND SWAP1 POP SWAP2 SWAP1 POP JUMP JUMPDEST PUSH32 0x4E487B7100000000000000000000000000000000000000000000000000000000 PUSH0 MSTORE PUSH1 0x41 PUSH1 0x4 MSTORE PUSH1 0x24 PUSH0 REVERT JUMPDEST PUSH2 0x5B1 DUP3 PUSH2 0x56B JUMP JUMPDEST DUP2 ADD DUP2 DUP2 LT PUSH8 0xFFFFFFFFFFFFFFFF DUP3 GT OR ISZERO PUSH2 0x5D0 JUMPI PUSH2 0x5CF PUSH2 0x57B JUMP JUMPDEST JUMPDEST DUP1 PUSH1 0x40 MSTORE POP POP POP JUMP JUMPDEST PUSH0 PUSH2 0x5E2 PUSH2 0x49C JUMP JUMPDEST SWAP1 POP PUSH2 0x5EE DUP3 DUP3 PUSH2 0x5A8 JUMP JUMPDEST SWAP2 SWAP1 POP JUMP JUMPDEST PUSH0 PUSH8 0xFFFFFFFFFFFFFFFF DUP3 GT ISZERO PUSH2 0x60D JUMPI PUSH2 0x60C PUSH2 0x57B JUMP JUMPDEST JUMPDEST PUSH2 0x616 DUP3 PUSH2 0x56B JUMP JUMPDEST SWAP1 POP PUSH1 0x20 DUP2 ADD SWAP1 POP SWAP2 SWAP1 POP JUMP JUMPDEST DUP3 DUP2 DUP4 CALLDATACOPY PUSH0 DUP4 DUP4 ADD MSTORE POP POP POP JUMP JUMPDEST PUSH0 PUSH2 0x643 PUSH2 0x63E DUP5 PUSH2 0x5F3 JUMP JUMPDEST PUSH2 0x5D9 JUMP JUMPDEST SWAP1 POP DUP3 DUP2 MSTORE PUSH1 0x20 DUP2 ADD DUP5 DUP5 DUP5 ADD GT ISZERO PUSH2 0x65F JUMPI PUSH2 0x65E PUSH2 0x567 JUMP JUMPDEST JUMPDEST PUSH2 0x66A DUP5 DUP3 DUP6 PUSH2 0x623 JUMP JUMPDEST POP SWAP4 SWAP3 POP POP POP JUMP JUMPDEST PUSH0 DUP3 PUSH1 0x1F DUP4 ADD SLT PUSH2 0x686 JUMPI PUSH2 0x685 PUSH2 0x563 JUMP JUMPDEST JUMPDEST DUP2 CALLDATALOAD PUSH2 0x696 DUP5 DUP3 PUSH1 0x20 DUP7 ADD PUSH2 0x631 JUMP JUMPDEST SWAP2 POP POP SWAP3 SWAP2 POP POP JUMP JUMPDEST PUSH2 0x6A8 DUP2 PUSH2 0x532 JUMP JUMPDEST DUP2 EQ PUSH2 0x6B2 JUMPI PUSH0 DUP1 REVERT JUMPDEST POP JUMP JUMPDEST PUSH0 DUP2 CALLDATALOAD SWAP1 POP PUSH2 0x6C3 DUP2 PUSH2 0x69F JUMP JUMPDEST SWAP3 SWAP2 POP POP JUMP JUMPDEST PUSH0 DUP1 PUSH1 0x40 DUP4 DUP6 SUB SLT ISZERO PUSH2 0x6DF JUMPI PUSH2 0x6DE PUSH2 0x4A5 JUMP JUMPDEST JUMPDEST PUSH0 DUP4 ADD CALLDATALOAD PUSH8 0xFFFFFFFFFFFFFFFF DUP2 GT ISZERO PUSH2 0x6FC JUMPI PUSH2 0x6FB PUSH2 0x4A9 JUMP JUMPDEST JUMPDEST PUSH2 0x708 DUP6 DUP3 DUP7 ADD PUSH2 0x672 JUMP JUMPDEST SWAP3 POP POP PUSH1 0x20 PUSH2 0x719 DUP6 DUP3 DUP7 ADD PUSH2 0x6B5 JUMP JUMPDEST SWAP2 POP POP SWAP3 POP SWAP3 SWAP1 POP JUMP JUMPDEST PUSH0 PUSH1 0x20 DUP3 DUP5 SUB SLT ISZERO PUSH2 0x738 JUMPI PUSH2 0x737 PUSH2 0x4A5 JUMP JUMPDEST JUMPDEST PUSH0 PUSH2 0x745 DUP5 DUP3 DUP6 ADD PUSH2 0x6B5 JUMP JUMPDEST SWAP2 POP POP SWAP3 SWAP2 POP POP JUMP JUMPDEST PUSH2 0x757 DUP2 PUSH2 0x4CC JUMP JUMPDEST DUP3 MSTORE POP POP JUMP JUMPDEST PUSH0 DUP2 MLOAD SWAP1 POP SWAP2 SWAP1 POP JUMP JUMPDEST PUSH0 DUP3 DUP3 MSTORE PUSH1 0x20 DUP3 ADD SWAP1 POP SWAP3 SWAP2 POP POP JUMP JUMPDEST PUSH0 JUMPDEST DUP4 DUP2 LT ISZERO PUSH2 0x794 JUMPI DUP1 DUP3 ADD MLOAD DUP2 DUP5 ADD MSTORE PUSH1 0x20 DUP2 ADD SWAP1 POP PUSH2 0x779 JUMP JUMPDEST PUSH0 DUP5 DUP5 ADD MSTORE POP POP POP POP JUMP JUMPDEST PUSH0 PUSH2 0x7A9 DUP3 PUSH2 0x75D JUMP JUMPDEST PUSH2 0x7B3 DUP2 DUP6 PUSH2 0x767 JUMP JUMPDEST SWAP4 POP PUSH2 0x7C3 DUP2 DUP6 PUSH1 0x20 DUP7 ADD PUSH2 0x777 JUMP JUMPDEST PUSH2 0x7CC DUP2 PUSH2 0x56B JUMP JUMPDEST DUP5 ADD SWAP2 POP POP SWAP3 SWAP2 POP POP JUMP JUMPDEST PUSH0 PUSH1 0x60 DUP3 ADD SWAP1 POP PUSH2 0x7EA PUSH0 DUP4 ADD DUP7 PUSH2 0x74E JUMP JUMPDEST DUP2 DUP2 SUB PUSH1 0x20 DUP4 ADD MSTORE PUSH2 0x7FC DUP2 DUP6 PUSH2 0x79F JUMP JUMPDEST SWAP1 POP PUSH2 0x80B PUSH1 0x40 DUP4 ADD DUP5 PUSH2 0x53B JUMP JUMPDEST SWAP5 SWAP4 POP POP POP POP JUMP JUMPDEST PUSH0 DUP2 MLOAD SWAP1 POP SWAP2 SWAP1 POP JUMP JUMPDEST PUSH0 DUP3 DUP3 MSTORE PUSH1 0x20 DUP3 ADD SWAP1 POP SWAP3 SWAP2 POP POP JUMP JUMPDEST PUSH0 DUP2 SWAP1 POP PUSH1 0x20 DUP3 ADD SWAP1 POP SWAP2 SWAP1 POP JUMP JUMPDEST PUSH2 0x845 DUP2 PUSH2 0x4CC JUMP JUMPDEST DUP3 MSTORE POP POP JUMP JUMPDEST PUSH0 DUP3 DUP3 MSTORE PUSH1 0x20 DUP3 ADD SWAP1 POP SWAP3 SWAP2 POP POP JUMP JUMPDEST PUSH0 PUSH2 0x865 DUP3 PUSH2 0x75D JUMP JUMPDEST PUSH2 0x86F DUP2 DUP6 PUSH2 0x84B JUMP JUMPDEST SWAP4 POP PUSH2 0x87F DUP2 DUP6 PUSH1 0x20 DUP7 ADD PUSH2 0x777 JUMP JUMPDEST PUSH2 0x888 DUP2 PUSH2 0x56B JUMP JUMPDEST DUP5 ADD SWAP2 POP POP SWAP3 SWAP2 POP POP JUMP JUMPDEST PUSH2 0x89C DUP2 PUSH2 0x532 JUMP JUMPDEST DUP3 MSTORE POP POP JUMP JUMPDEST PUSH0 PUSH1 0x60 DUP4 ADD PUSH0 DUP4 ADD MLOAD PUSH2 0x8B7 PUSH0 DUP7 ADD DUP3 PUSH2 0x83C JUMP JUMPDEST POP PUSH1 0x20 DUP4 ADD MLOAD DUP5 DUP3 SUB PUSH1 0x20 DUP7 ADD MSTORE PUSH2 0x8CF DUP3 DUP3 PUSH2 0x85B JUMP JUMPDEST SWAP2 POP POP PUSH1 0x40 DUP4 ADD MLOAD PUSH2 0x8E4 PUSH1 0x40 DUP7 ADD DUP3 PUSH2 0x893 JUMP JUMPDEST POP DUP1 SWAP2 POP POP SWAP3 SWAP2 POP POP JUMP JUMPDEST PUSH0 PUSH2 0x8FA DUP4 DUP4 PUSH2 0x8A2 JUMP JUMPDEST SWAP1 POP SWAP3 SWAP2 POP POP JUMP JUMPDEST PUSH0 PUSH1 0x20 DUP3 ADD SWAP1 POP SWAP2 SWAP1 POP JUMP JUMPDEST PUSH0 PUSH2 0x918 DUP3 PUSH2 0x813 JUMP JUMPDEST PUSH2 0x922 DUP2 DUP6 PUSH2 0x81D JUMP JUMPDEST SWAP4 POP DUP4 PUSH1 0x20 DUP3 MUL DUP6 ADD PUSH2 0x934 DUP6 PUSH2 0x82D JUMP JUMPDEST DUP1 PUSH0 JUMPDEST DUP6 DUP2 LT ISZERO PUSH2 0x96F JUMPI DUP5 DUP5 SUB DUP10 MSTORE DUP2 MLOAD PUSH2 0x950 DUP6 DUP3 PUSH2 0x8EF JUMP JUMPDEST SWAP5 POP PUSH2 0x95B DUP4 PUSH2 0x902 JUMP JUMPDEST SWAP3 POP PUSH1 0x20 DUP11 ADD SWAP10 POP POP PUSH1 0x1 DUP2 ADD SWAP1 POP PUSH2 0x937 JUMP JUMPDEST POP DUP3 SWAP8 POP DUP8 SWAP6 POP POP POP POP POP POP SWAP3 SWAP2 POP POP JUMP JUMPDEST PUSH0 PUSH1 0x20 DUP3 ADD SWAP1 POP DUP2 DUP2 SUB PUSH0 DUP4 ADD MSTORE PUSH2 0x999 DUP2 DUP5 PUSH2 0x90E JUMP JUMPDEST SWAP1 POP SWAP3 SWAP2 POP POP JUMP JUMPDEST PUSH32 0x4E487B7100000000000000000000000000000000000000000000000000000000 PUSH0 MSTORE PUSH1 0x32 PUSH1 0x4 MSTORE PUSH1 0x24 PUSH0 REVERT JUMPDEST PUSH32 0x4E487B7100000000000000000000000000000000000000000000000000000000 PUSH0 MSTORE PUSH1 0x11 PUSH1 0x4 MSTORE PUSH1 0x24 PUSH0 REVERT JUMPDEST PUSH0 PUSH2 0xA05 DUP3 PUSH2 0x532 JUMP JUMPDEST SWAP2 POP PUSH2 0xA10 DUP4 PUSH2 0x532 JUMP JUMPDEST SWAP3 POP DUP3 DUP3 ADD SWAP1 POP DUP1 DUP3 GT ISZERO PUSH2 0xA28 JUMPI PUSH2 0xA27 PUSH2 0x9CE JUMP JUMPDEST JUMPDEST SWAP3 SWAP2 POP POP JUMP JUMPDEST PUSH32 0x4E487B7100000000000000000000000000000000000000000000000000000000 PUSH0 MSTORE PUSH1 0x22 PUSH1 0x4 MSTORE PUSH1 0x24 PUSH0 REVERT JUMPDEST PUSH0 PUSH1 0x2 DUP3 DIV SWAP1 POP PUSH1 0x1 DUP3 AND DUP1 PUSH2 0xA72 JUMPI PUSH1 0x7F DUP3 AND SWAP2 POP JUMPDEST PUSH1 0x20 DUP3 LT DUP2 SUB PUSH2 0xA85 JUMPI PUSH2 0xA84 PUSH2 0xA2E JUMP JUMPDEST JUMPDEST POP SWAP2 SWAP1 POP JUMP JUMPDEST PUSH0 DUP2 SWAP1 POP DUP2 PUSH0 MSTORE PUSH1 0x20 PUSH0 KECCAK256 SWAP1 POP SWAP2 SWAP1 POP JUMP JUMPDEST PUSH0 PUSH1 0x20 PUSH1 0x1F DUP4 ADD DIV SWAP1 POP SWAP2 SWAP1 POP JUMP JUMPDEST PUSH0 DUP3 DUP3 SHL SWAP1 POP SWAP3 SWAP2 POP POP JUMP JUMPDEST PUSH0 PUSH1 0x8 DUP4 MUL PUSH2 0xAE7 PUSH32 0xFFFFFFFFFFFFFFFFFFFFFFFFFFFFFFFFFFFFFFFFFFFFFFFFFFFFFFFFFFFFFFFF DUP3 PUSH2 0xAAC JUMP JUMPDEST PUSH2 0xAF1 DUP7 DUP4 PUSH2 0xAAC JUMP JUMPDEST SWAP6 POP DUP1 NOT DUP5 AND SWAP4 POP DUP1 DUP7 AND DUP5 OR SWAP3 POP POP POP SWAP4 SWAP3 POP POP POP JUMP JUMPDEST PUSH0 DUP2 SWAP1 POP SWAP2 SWAP1 POP JUMP JUMPDEST PUSH0 PUSH2 0xB2C PUSH2 0xB27 PUSH2 0xB22 DUP5 PUSH2 0x532 JUMP JUMPDEST PUSH2 0xB09 JUMP JUMPDEST PUSH2 0x532 JUMP JUMPDEST SWAP1 POP SWAP2 SWAP1 POP JUMP JUMPDEST PUSH0 DUP2 SWAP1 POP SWAP2 SWAP1 POP JUMP JUMPDEST PUSH2 0xB45 DUP4 PUSH2 0xB12 JUMP JUMPDEST PUSH2 0xB59 PUSH2 0xB51 DUP3 PUSH2 0xB33 JUMP JUMPDEST DUP5 DUP5 SLOAD PUSH2 0xAB8 JUMP JUMPDEST DUP3 SSTORE POP POP POP POP JUMP JUMPDEST PUSH0 SWAP1 JUMP JUMPDEST PUSH2 0xB6D PUSH2 0xB61 JUMP JUMPDEST PUSH2 0xB78 DUP2 DUP5 DUP5 PUSH2 0xB3C JUMP JUMPDEST POP POP POP JUMP JUMPDEST JUMPDEST DUP2 DUP2 LT ISZERO PUSH2 0xB9B JUMPI PUSH2 0xB90 PUSH0 DUP3 PUSH2 0xB65 JUMP JUMPDEST PUSH1 0x1 DUP2 ADD SWAP1 POP PUSH2 0xB7E JUMP JUMPDEST POP POP JUMP JUMPDEST PUSH1 0x1F DUP3 GT ISZERO PUSH2 0xBE0 JUMPI PUSH2 0xBB1 DUP2 PUSH2 0xA8B JUMP JUMPDEST PUSH2 0xBBA DUP5 PUSH2 0xA9D JUMP JUMPDEST DUP2 ADD PUSH1 0x20 DUP6 LT ISZERO PUSH2 0xBC9 JUMPI DUP2 SWAP1 POP JUMPDEST PUSH2 0xBDD PUSH2 0xBD5 DUP6 PUSH2 0xA9D JUMP JUMPDEST DUP4 ADD DUP3 PUSH2 0xB7D JUMP JUMPDEST POP POP JUMPDEST POP POP POP JUMP JUMPDEST PUSH0 DUP3 DUP3 SHR SWAP1 POP SWAP3 SWAP2 POP POP JUMP JUMPDEST PUSH0 PUSH2 0xC00 PUSH0 NOT DUP5 PUSH1 0x8 MUL PUSH2 0xBE5 JUMP JUMPDEST NOT DUP1 DUP4 AND SWAP2 POP POP SWAP3 SWAP2 POP POP JUMP JUMPDEST PUSH0 PUSH2 0xC18 DUP4 DUP4 PUSH2 0xBF1 JUMP JUMPDEST SWAP2 POP DUP3 PUSH1 0x2 MUL DUP3 OR SWAP1 POP SWAP3 SWAP2 POP POP JUMP JUMPDEST PUSH2 0xC31 DUP3 PUSH2 0x75D JUMP JUMPDEST PUSH8 0xFFFFFFFFFFFFFFFF DUP2 GT ISZERO PUSH2 0xC4A JUMPI PUSH2 0xC49 PUSH2 0x57B JUMP JUMPDEST JUMPDEST PUSH2 0xC54 DUP3 SLOAD PUSH2 0xA5B JUMP JUMPDEST PUSH2 0xC5F DUP3 DUP3 DUP6 PUSH2 0xB9F JUMP JUMPDEST PUSH0 PUSH1 0x20 SWAP1 POP PUSH1 0x1F DUP4 GT PUSH1 0x1 DUP2 EQ PUSH2 0xC90 JUMPI PUSH0 DUP5 ISZERO PUSH2 0xC7E JUMPI DUP3 DUP8 ADD MLOAD SWAP1 POP JUMPDEST PUSH2 0xC88 DUP6 DUP3 PUSH2 0xC0D JUMP JUMPDEST DUP7 SSTORE POP PUSH2 0xCEF JUMP JUMPDEST PUSH1 0x1F NOT DUP5 AND PUSH2 0xC9E DUP7 PUSH2 0xA8B JUMP JUMPDEST PUSH0 JUMPDEST DUP3 DUP2 LT ISZERO PUSH2 0xCC5 JUMPI DUP5 DUP10 ADD MLOAD DUP3 SSTORE PUSH1 0x1 DUP3 ADD SWAP2 POP PUSH1 0x20 DUP6 ADD SWAP5 POP PUSH1 0x20 DUP2 ADD SWAP1 POP PUSH2 0xCA0 JUMP JUMPDEST DUP7 DUP4 LT ISZERO PUSH2 0xCE2 JUMPI DUP5 DUP10 ADD MLOAD PUSH2 0xCDE PUSH1 0x1F DUP10 AND DUP3 PUSH2 0xBF1 JUMP JUMPDEST DUP4 SSTORE POP JUMPDEST PUSH1 0x1 PUSH1 0x2 DUP9 MUL ADD DUP9 SSTORE POP POP POP JUMPDEST POP POP POP POP POP POP JUMP INVALID LOG2 PUSH5 0x6970667358 0x22 SLT KECCAK256 0x4B 0x24 0xD8 EXTCODECOPY BASEFEE SWAP7 REVERT 0xA6 EXP 0xC7 PREVRANDAO SDIV 0xEA PUSH5 0xB2941A96FD 0xF DUP4 0xD9 CALLDATASIZE 0xAE 0x28 0xF9 INVALID 0xCA 0xC1 MSTORE PUSH21 0xE364736F6C63430008160033000000000000000000 "
				},
				"gasEstimates": {
					"creation": {
						"codeDepositCost": "674600",
						"executionCost": "infinite",
						"totalCost": "infinite"
					},
					"external": {
						"addExpense(string,uint256)": "infinite",
						"expenses(uint256)": "infinite",
						"getAllExpenses()": "infinite",
						"getTotalExpenses(address)": "infinite"
					}
				},
				"methodIdentifiers": {
					"addExpense(string,uint256)": "a4df1f5a",
					"expenses(uint256)": "af4afe0a",
					"getAllExpenses()": "dd53ff6c",
					"getTotalExpenses(address)": "3fb457e4"
				}
			},
			"storageLayout": {
				"storage": [
					{
						"astId": 12,
						"contract": "Expense_Tracker.sol:ExpenseTracker",
						"label": "expenses",
						"offset": 0,
						"slot": "0",
						"type": "t_array(t_struct(Expense)8_storage)dyn_storage"
					}
				],
				"types": {
					"t_address": {
						"encoding": "inplace",
						"label": "address",
						"numberOfBytes": "20"
					},
					"t_array(t_struct(Expense)8_storage)dyn_storage": {
						"base": "t_struct(Expense)8_storage",
						"encoding": "dynamic_array",
						"label": "struct ExpenseTracker.Expense[]",
						"numberOfBytes": "32"
					},
					"t_string_storage": {
						"encoding": "bytes",
						"label": "string",
						"numberOfBytes": "32"
					},
					"t_struct(Expense)8_storage": {
						"encoding": "inplace",
						"label": "struct ExpenseTracker.Expense",
						"members": [
							{
								"astId": 3,
								"contract": "Expense_Tracker.sol:ExpenseTracker",
								"label": "user",
								"offset": 0,
								"slot": "0",
								"type": "t_address"
							},
							{
								"astId": 5,
								"contract": "Expense_Tracker.sol:ExpenseTracker",
								"label": "description",
								"offset": 0,
								"slot": "1",
								"type": "t_string_storage"
							},
							{
								"astId": 7,
								"contract": "Expense_Tracker.sol:ExpenseTracker",
								"label": "amount",
								"offset": 0,
								"slot": "2",
								"type": "t_uint256"
							}
						],
						"numberOfBytes": "96"
					},
					"t_uint256": {
						"encoding": "inplace",
						"label": "uint256",
						"numberOfBytes": "32"
					}
				}
			},
			"userdoc": {
				"kind": "user",
				"methods": {},
				"version": 1
			}
		}
	}
}