{
	"Twitter_4.sol": {
		"Twitter": {
			"abi": [
				{
					"inputs": [],
					"stateMutability": "nonpayable",
					"type": "constructor"
				},
				{
					"inputs": [],
					"name": "MAX_TWEET_LENGTH",
					"outputs": [
						{
							"internalType": "uint16",
							"name": "",
							"type": "uint16"
						}
					],
					"stateMutability": "view",
					"type": "function"
				},
				{
					"inputs": [
						{
							"internalType": "uint16",
							"name": "newTweetLength",
							"type": "uint16"
						}
					],
					"name": "changeTweetLength",
					"outputs": [],
					"stateMutability": "nonpayable",
					"type": "function"
				},
				{
					"inputs": [
						{
							"internalType": "string",
							"name": "_tweet",
							"type": "string"
						}
					],
					"name": "createTweet",
					"outputs": [],
					"stateMutability": "nonpayable",
					"type": "function"
				},
				{
					"inputs": [
						{
							"internalType": "address",
							"name": "_owner",
							"type": "address"
						}
					],
					"name": "getAllTweets",
					"outputs": [
						{
							"components": [
								{
									"internalType": "address",
									"name": "author",
									"type": "address"
								},
								{
									"internalType": "string",
									"name": "content",
									"type": "string"
								},
								{
									"internalType": "uint256",
									"name": "timestamp",
									"type": "uint256"
								},
								{
									"internalType": "uint256",
									"name": "likes",
									"type": "uint256"
								}
							],
							"internalType": "struct Twitter.Tweet[]",
							"name": "",
							"type": "tuple[]"
						}
					],
					"stateMutability": "view",
					"type": "function"
				},
				{
					"inputs": [
						{
							"internalType": "uint256",
							"name": "_i",
							"type": "uint256"
						}
					],
					"name": "getTweet",
					"outputs": [
						{
							"components": [
								{
									"internalType": "address",
									"name": "author",
									"type": "address"
								},
								{
									"internalType": "string",
									"name": "content",
									"type": "string"
								},
								{
									"internalType": "uint256",
									"name": "timestamp",
									"type": "uint256"
								},
								{
									"internalType": "uint256",
									"name": "likes",
									"type": "uint256"
								}
							],
							"internalType": "struct Twitter.Tweet",
							"name": "",
							"type": "tuple"
						}
					],
					"stateMutability": "view",
					"type": "function"
				},
				{
					"inputs": [],
					"name": "owner",
					"outputs": [
						{
							"internalType": "address",
							"name": "",
							"type": "address"
						}
					],
					"stateMutability": "view",
					"type": "function"
				},
				{
					"inputs": [
						{
							"internalType": "address",
							"name": "",
							"type": "address"
						},
						{
							"internalType": "uint256",
							"name": "",
							"type": "uint256"
						}
					],
					"name": "tweets",
					"outputs": [
						{
							"internalType": "address",
							"name": "author",
							"type": "address"
						},
						{
							"internalType": "string",
							"name": "content",
							"type": "string"
						},
						{
							"internalType": "uint256",
							"name": "timestamp",
							"type": "uint256"
						},
						{
							"internalType": "uint256",
							"name": "likes",
							"type": "uint256"
						}
					],
					"stateMutability": "view",
					"type": "function"
				}
			],
			"devdoc": {
				"kind": "dev",
				"methods": {},
				"version": 1
			},
			"evm": {
				"assembly": "    /* \"Twitter_4.sol\":358:1666  contract Twitter {... */\n  mstore(0x40, 0x80)\n    /* \"Twitter_4.sol\":416:419  280 */\n  0x0118\n    /* \"Twitter_4.sol\":384:419  uint16 public MAX_TWEET_LENGTH =280 */\n  0x00\n  dup1\n  0x0100\n  exp\n  dup2\n  sload\n  dup2\n  0xffff\n  mul\n  not\n  and\n  swap1\n  dup4\n  0xffff\n  and\n  mul\n  or\n  swap1\n  sstore\n  pop\n    /* \"Twitter_4.sol\":662:712  constructor(){... */\n  callvalue\n  dup1\n  iszero\n  tag_1\n  jumpi\n  0x00\n  dup1\n  revert\ntag_1:\n  pop\n    /* \"Twitter_4.sol\":694:704  msg.sender */\n  caller\n    /* \"Twitter_4.sol\":686:691  owner */\n  0x02\n  0x00\n    /* \"Twitter_4.sol\":686:704  owner = msg.sender */\n  0x0100\n  exp\n  dup2\n  sload\n  dup2\n  0xffffffffffffffffffffffffffffffffffffffff\n  mul\n  not\n  and\n  swap1\n  dup4\n  0xffffffffffffffffffffffffffffffffffffffff\n  and\n  mul\n  or\n  swap1\n  sstore\n  pop\n    /* \"Twitter_4.sol\":358:1666  contract Twitter {... */\n  dataSize(sub_0)\n  dup1\n  dataOffset(sub_0)\n  0x00\n  codecopy\n  0x00\n  return\nstop\n\nsub_0: assembly {\n        /* \"Twitter_4.sol\":358:1666  contract Twitter {... */\n      mstore(0x40, 0x80)\n      callvalue\n      dup1\n      iszero\n      tag_1\n      jumpi\n      0x00\n      dup1\n      revert\n    tag_1:\n      pop\n      jumpi(tag_2, lt(calldatasize, 0x04))\n      shr(0xe0, calldataload(0x00))\n      dup1\n      0x6eb10797\n      gt\n      tag_10\n      jumpi\n      dup1\n      0x6eb10797\n      eq\n      tag_6\n      jumpi\n      dup1\n      0x7c9cd2bc\n      eq\n      tag_7\n      jumpi\n      dup1\n      0x8da5cb5b\n      eq\n      tag_8\n      jumpi\n      dup1\n      0xc3ad5ecb\n      eq\n      tag_9\n      jumpi\n      jump(tag_2)\n    tag_10:\n      dup1\n      0x05a1b4a9\n      eq\n      tag_3\n      jumpi\n      dup1\n      0x12e7ee1c\n      eq\n      tag_4\n      jumpi\n      dup1\n      0x58bfa4ab\n      eq\n      tag_5\n      jumpi\n    tag_2:\n      0x00\n      dup1\n      revert\n        /* \"Twitter_4.sol\":585:626  mapping(address => Tweet[]) public tweets */\n    tag_3:\n      tag_11\n      0x04\n      dup1\n      calldatasize\n      sub\n      dup2\n      add\n      swap1\n      tag_12\n      swap2\n      swap1\n      tag_13\n      jump\t// in\n    tag_12:\n      tag_14\n      jump\t// in\n    tag_11:\n      mload(0x40)\n      tag_15\n      swap5\n      swap4\n      swap3\n      swap2\n      swap1\n      tag_16\n      jump\t// in\n    tag_15:\n      mload(0x40)\n      dup1\n      swap2\n      sub\n      swap1\n      return\n        /* \"Twitter_4.sol\":1548:1663  function getAllTweets(address _owner) public view returns (Tweet[] memory) {... */\n    tag_4:\n      tag_17\n      0x04\n      dup1\n      calldatasize\n      sub\n      dup2\n      add\n      swap1\n      tag_18\n      swap2\n      swap1\n      tag_19\n      jump\t// in\n    tag_18:\n      tag_20\n      jump\t// in\n    tag_17:\n      mload(0x40)\n      tag_21\n      swap2\n      swap1\n      tag_22\n      jump\t// in\n    tag_21:\n      mload(0x40)\n      dup1\n      swap2\n      sub\n      swap1\n      return\n        /* \"Twitter_4.sol\":829:946  function changeTweetLength(uint16 newTweetLength) public onlyOwner{... */\n    tag_5:\n      tag_23\n      0x04\n      dup1\n      calldatasize\n      sub\n      dup2\n      add\n      swap1\n      tag_24\n      swap2\n      swap1\n      tag_25\n      jump\t// in\n    tag_24:\n      tag_26\n      jump\t// in\n    tag_23:\n      stop\n        /* \"Twitter_4.sol\":384:419  uint16 public MAX_TWEET_LENGTH =280 */\n    tag_6:\n      tag_27\n      tag_28\n      jump\t// in\n    tag_27:\n      mload(0x40)\n      tag_29\n      swap2\n      swap1\n      tag_30\n      jump\t// in\n    tag_29:\n      mload(0x40)\n      dup1\n      swap2\n      sub\n      swap1\n      return\n        /* \"Twitter_4.sol\":954:1418  function createTweet(string memory _tweet) public {... */\n    tag_7:\n      tag_31\n      0x04\n      dup1\n      calldatasize\n      sub\n      dup2\n      add\n      swap1\n      tag_32\n      swap2\n      swap1\n      tag_33\n      jump\t// in\n    tag_32:\n      tag_34\n      jump\t// in\n    tag_31:\n      stop\n        /* \"Twitter_4.sol\":633:653  address public owner */\n    tag_8:\n      tag_35\n      tag_36\n      jump\t// in\n    tag_35:\n      mload(0x40)\n      tag_37\n      swap2\n      swap1\n      tag_38\n      jump\t// in\n    tag_37:\n      mload(0x40)\n      dup1\n      swap2\n      sub\n      swap1\n      return\n        /* \"Twitter_4.sol\":1426:1540  function getTweet( uint256 _i) public view returns (Tweet memory) {... */\n    tag_9:\n      tag_39\n      0x04\n      dup1\n      calldatasize\n      sub\n      dup2\n      add\n      swap1\n      tag_40\n      swap2\n      swap1\n      tag_41\n      jump\t// in\n    tag_40:\n      tag_42\n      jump\t// in\n    tag_39:\n      mload(0x40)\n      tag_43\n      swap2\n      swap1\n      tag_44\n      jump\t// in\n    tag_43:\n      mload(0x40)\n      dup1\n      swap2\n      sub\n      swap1\n      return\n        /* \"Twitter_4.sol\":585:626  mapping(address => Tweet[]) public tweets */\n    tag_14:\n      mstore(0x20, 0x01)\n      dup2\n      0x00\n      mstore\n      keccak256(0x00, 0x40)\n      dup2\n      dup2\n      sload\n      dup2\n      lt\n      tag_45\n      jumpi\n      0x00\n      dup1\n      revert\n    tag_45:\n      swap1\n      0x00\n      mstore\n      keccak256(0x00, 0x20)\n      swap1\n      0x04\n      mul\n      add\n      0x00\n      swap2\n      pop\n      swap2\n      pop\n      pop\n      dup1\n      0x00\n      add\n      0x00\n      swap1\n      sload\n      swap1\n      0x0100\n      exp\n      swap1\n      div\n      0xffffffffffffffffffffffffffffffffffffffff\n      and\n      swap1\n      dup1\n      0x01\n      add\n      dup1\n      sload\n      tag_47\n      swap1\n      tag_48\n      jump\t// in\n    tag_47:\n      dup1\n      0x1f\n      add\n      0x20\n      dup1\n      swap2\n      div\n      mul\n      0x20\n      add\n      mload(0x40)\n      swap1\n      dup2\n      add\n      0x40\n      mstore\n      dup1\n      swap3\n      swap2\n      swap1\n      dup2\n      dup2\n      mstore\n      0x20\n      add\n      dup3\n      dup1\n      sload\n      tag_49\n      swap1\n      tag_48\n      jump\t// in\n    tag_49:\n      dup1\n      iszero\n      tag_50\n      jumpi\n      dup1\n      0x1f\n      lt\n      tag_51\n      jumpi\n      0x0100\n      dup1\n      dup4\n      sload\n      div\n      mul\n      dup4\n      mstore\n      swap2\n      0x20\n      add\n      swap2\n      jump(tag_50)\n    tag_51:\n      dup3\n      add\n      swap2\n      swap1\n      0x00\n      mstore\n      keccak256(0x00, 0x20)\n      swap1\n    tag_52:\n      dup2\n      sload\n      dup2\n      mstore\n      swap1\n      0x01\n      add\n      swap1\n      0x20\n      add\n      dup1\n      dup4\n      gt\n      tag_52\n      jumpi\n      dup3\n      swap1\n      sub\n      0x1f\n      and\n      dup3\n      add\n      swap2\n    tag_50:\n      pop\n      pop\n      pop\n      pop\n      pop\n      swap1\n      dup1\n      0x02\n      add\n      sload\n      swap1\n      dup1\n      0x03\n      add\n      sload\n      swap1\n      pop\n      dup5\n      jump\t// out\n        /* \"Twitter_4.sol\":1548:1663  function getAllTweets(address _owner) public view returns (Tweet[] memory) {... */\n    tag_20:\n        /* \"Twitter_4.sol\":1607:1621  Tweet[] memory */\n      0x60\n        /* \"Twitter_4.sol\":1641:1647  tweets */\n      0x01\n        /* \"Twitter_4.sol\":1641:1655  tweets[_owner] */\n      0x00\n        /* \"Twitter_4.sol\":1648:1654  _owner */\n      dup4\n        /* \"Twitter_4.sol\":1641:1655  tweets[_owner] */\n      0xffffffffffffffffffffffffffffffffffffffff\n      and\n      0xffffffffffffffffffffffffffffffffffffffff\n      and\n      dup2\n      mstore\n      0x20\n      add\n      swap1\n      dup2\n      mstore\n      0x20\n      add\n      0x00\n      keccak256\n        /* \"Twitter_4.sol\":1634:1655  return tweets[_owner] */\n      dup1\n      sload\n      dup1\n      0x20\n      mul\n      0x20\n      add\n      mload(0x40)\n      swap1\n      dup2\n      add\n      0x40\n      mstore\n      dup1\n      swap3\n      swap2\n      swap1\n      dup2\n      dup2\n      mstore\n      0x20\n      add\n      0x00\n      swap1\n    tag_54:\n      dup3\n      dup3\n      lt\n      iszero\n      tag_55\n      jumpi\n      dup4\n      dup3\n      swap1\n      0x00\n      mstore\n      keccak256(0x00, 0x20)\n      swap1\n      0x04\n      mul\n      add\n      mload(0x40)\n      dup1\n      0x80\n      add\n      0x40\n      mstore\n      swap1\n      dup2\n      0x00\n      dup3\n      add\n      0x00\n      swap1\n      sload\n      swap1\n      0x0100\n      exp\n      swap1\n      div\n      0xffffffffffffffffffffffffffffffffffffffff\n      and\n      0xffffffffffffffffffffffffffffffffffffffff\n      and\n      0xffffffffffffffffffffffffffffffffffffffff\n      and\n      dup2\n      mstore\n      0x20\n      add\n      0x01\n      dup3\n      add\n      dup1\n      sload\n      tag_57\n      swap1\n      tag_48\n      jump\t// in\n    tag_57:\n      dup1\n      0x1f\n      add\n      0x20\n      dup1\n      swap2\n      div\n      mul\n      0x20\n      add\n      mload(0x40)\n      swap1\n      dup2\n      add\n      0x40\n      mstore\n      dup1\n      swap3\n      swap2\n      swap1\n      dup2\n      dup2\n      mstore\n      0x20\n      add\n      dup3\n      dup1\n      sload\n      tag_58\n      swap1\n      tag_48\n      jump\t// in\n    tag_58:\n      dup1\n      iszero\n      tag_59\n      jumpi\n      dup1\n      0x1f\n      lt\n      tag_60\n      jumpi\n      0x0100\n      dup1\n      dup4\n      sload\n      div\n      mul\n      dup4\n      mstore\n      swap2\n      0x20\n      add\n      swap2\n      jump(tag_59)\n    tag_60:\n      dup3\n      add\n      swap2\n      swap1\n      0x00\n      mstore\n      keccak256(0x00, 0x20)\n      swap1\n    tag_61:\n      dup2\n      sload\n      dup2\n      mstore\n      swap1\n      0x01\n      add\n      swap1\n      0x20\n      add\n      dup1\n      dup4\n      gt\n      tag_61\n      jumpi\n      dup3\n      swap1\n      sub\n      0x1f\n      and\n      dup3\n      add\n      swap2\n    tag_59:\n      pop\n      pop\n      pop\n      pop\n      pop\n      dup2\n      mstore\n      0x20\n      add\n      0x02\n      dup3\n      add\n      sload\n      dup2\n      mstore\n      0x20\n      add\n      0x03\n      dup3\n      add\n      sload\n      dup2\n      mstore\n      pop\n      pop\n      dup2\n      mstore\n      0x20\n      add\n      swap1\n      0x01\n      add\n      swap1\n      jump(tag_54)\n    tag_55:\n      pop\n      pop\n      pop\n      pop\n      swap1\n      pop\n        /* \"Twitter_4.sol\":1548:1663  function getAllTweets(address _owner) public view returns (Tweet[] memory) {... */\n      swap2\n      swap1\n      pop\n      jump\t// out\n        /* \"Twitter_4.sol\":829:946  function changeTweetLength(uint16 newTweetLength) public onlyOwner{... */\n    tag_26:\n        /* \"Twitter_4.sol\":771:776  owner */\n      0x02\n      0x00\n      swap1\n      sload\n      swap1\n      0x0100\n      exp\n      swap1\n      div\n      0xffffffffffffffffffffffffffffffffffffffff\n      and\n        /* \"Twitter_4.sol\":759:776  msg.sender==owner */\n      0xffffffffffffffffffffffffffffffffffffffff\n      and\n        /* \"Twitter_4.sol\":759:769  msg.sender */\n      caller\n        /* \"Twitter_4.sol\":759:776  msg.sender==owner */\n      0xffffffffffffffffffffffffffffffffffffffff\n      and\n      eq\n        /* \"Twitter_4.sol\":751:801  require(msg.sender==owner,\"YOU ARE NOT THE OWNER\") */\n      tag_63\n      jumpi\n      mload(0x40)\n      0x08c379a000000000000000000000000000000000000000000000000000000000\n      dup2\n      mstore\n      0x04\n      add\n      tag_64\n      swap1\n      tag_65\n      jump\t// in\n    tag_64:\n      mload(0x40)\n      dup1\n      swap2\n      sub\n      swap1\n      revert\n    tag_63:\n        /* \"Twitter_4.sol\":924:938  newTweetLength */\n      dup1\n        /* \"Twitter_4.sol\":906:922  MAX_TWEET_LENGTH */\n      0x00\n      dup1\n        /* \"Twitter_4.sol\":906:938  MAX_TWEET_LENGTH= newTweetLength */\n      0x0100\n      exp\n      dup2\n      sload\n      dup2\n      0xffff\n      mul\n      not\n      and\n      swap1\n      dup4\n      0xffff\n      and\n      mul\n      or\n      swap1\n      sstore\n      pop\n        /* \"Twitter_4.sol\":829:946  function changeTweetLength(uint16 newTweetLength) public onlyOwner{... */\n      pop\n      jump\t// out\n        /* \"Twitter_4.sol\":384:419  uint16 public MAX_TWEET_LENGTH =280 */\n    tag_28:\n      0x00\n      dup1\n      sload\n      swap1\n      0x0100\n      exp\n      swap1\n      div\n      0xffff\n      and\n      dup2\n      jump\t// out\n        /* \"Twitter_4.sol\":954:1418  function createTweet(string memory _tweet) public {... */\n    tag_34:\n        /* \"Twitter_4.sol\":1140:1156  MAX_TWEET_LENGTH */\n      0x00\n      dup1\n      sload\n      swap1\n      0x0100\n      exp\n      swap1\n      div\n      0xffff\n      and\n        /* \"Twitter_4.sol\":1118:1156  bytes(_tweet).length<=MAX_TWEET_LENGTH */\n      0xffff\n      and\n        /* \"Twitter_4.sol\":1124:1130  _tweet */\n      dup2\n        /* \"Twitter_4.sol\":1118:1138  bytes(_tweet).length */\n      mload\n        /* \"Twitter_4.sol\":1118:1156  bytes(_tweet).length<=MAX_TWEET_LENGTH */\n      gt\n      iszero\n        /* \"Twitter_4.sol\":1110:1184  require(bytes(_tweet).length<=MAX_TWEET_LENGTH, \"Tweet is too long bro!!\") */\n      tag_68\n      jumpi\n      mload(0x40)\n      0x08c379a000000000000000000000000000000000000000000000000000000000\n      dup2\n      mstore\n      0x04\n      add\n      tag_69\n      swap1\n      tag_70\n      jump\t// in\n    tag_69:\n      mload(0x40)\n      dup1\n      swap2\n      sub\n      swap1\n      revert\n    tag_68:\n        /* \"Twitter_4.sol\":1195:1216  Tweet memory newTweet */\n      0x00\n        /* \"Twitter_4.sol\":1219:1364  Tweet({... */\n      mload(0x40)\n      dup1\n      0x80\n      add\n      0x40\n      mstore\n      dup1\n        /* \"Twitter_4.sol\":1248:1258  msg.sender */\n      caller\n        /* \"Twitter_4.sol\":1219:1364  Tweet({... */\n      0xffffffffffffffffffffffffffffffffffffffff\n      and\n      dup2\n      mstore\n      0x20\n      add\n        /* \"Twitter_4.sol\":1282:1288  _tweet */\n      dup4\n        /* \"Twitter_4.sol\":1219:1364  Tweet({... */\n      dup2\n      mstore\n      0x20\n      add\n        /* \"Twitter_4.sol\":1314:1329  block.timestamp */\n      timestamp\n        /* \"Twitter_4.sol\":1219:1364  Tweet({... */\n      dup2\n      mstore\n      0x20\n      add\n        /* \"Twitter_4.sol\":1351:1352  0 */\n      0x00\n        /* \"Twitter_4.sol\":1219:1364  Tweet({... */\n      dup2\n      mstore\n      pop\n        /* \"Twitter_4.sol\":1195:1364  Tweet memory newTweet = Tweet({... */\n      swap1\n      pop\n        /* \"Twitter_4.sol\":1377:1383  tweets */\n      0x01\n        /* \"Twitter_4.sol\":1377:1395  tweets[msg.sender] */\n      0x00\n        /* \"Twitter_4.sol\":1384:1394  msg.sender */\n      caller\n        /* \"Twitter_4.sol\":1377:1395  tweets[msg.sender] */\n      0xffffffffffffffffffffffffffffffffffffffff\n      and\n      0xffffffffffffffffffffffffffffffffffffffff\n      and\n      dup2\n      mstore\n      0x20\n      add\n      swap1\n      dup2\n      mstore\n      0x20\n      add\n      0x00\n      keccak256\n        /* \"Twitter_4.sol\":1401:1409  newTweet */\n      dup2\n        /* \"Twitter_4.sol\":1377:1410  tweets[msg.sender].push(newTweet) */\n      swap1\n      dup1\n      0x01\n      dup2\n      sload\n      add\n      dup1\n      dup3\n      sstore\n      dup1\n      swap2\n      pop\n      pop\n      0x01\n      swap1\n      sub\n      swap1\n      0x00\n      mstore\n      keccak256(0x00, 0x20)\n      swap1\n      0x04\n      mul\n      add\n      0x00\n      swap1\n      swap2\n      swap1\n      swap2\n      swap1\n      swap2\n      pop\n      0x00\n      dup3\n      add\n      mload\n      dup2\n      0x00\n      add\n      exp(0x0100, 0x00)\n      dup2\n      sload\n      dup2\n      0xffffffffffffffffffffffffffffffffffffffff\n      mul\n      not\n      and\n      swap1\n      dup4\n      0xffffffffffffffffffffffffffffffffffffffff\n      and\n      mul\n      or\n      swap1\n      sstore\n      pop\n      0x20\n      dup3\n      add\n      mload\n      dup2\n      0x01\n      add\n      swap1\n      dup2\n      tag_72\n      swap2\n      swap1\n      tag_73\n      jump\t// in\n    tag_72:\n      pop\n      0x40\n      dup3\n      add\n      mload\n      dup2\n      0x02\n      add\n      sstore\n      0x60\n      dup3\n      add\n      mload\n      dup2\n      0x03\n      add\n      sstore\n      pop\n      pop\n        /* \"Twitter_4.sol\":1004:1418  {... */\n      pop\n        /* \"Twitter_4.sol\":954:1418  function createTweet(string memory _tweet) public {... */\n      pop\n      jump\t// out\n        /* \"Twitter_4.sol\":633:653  address public owner */\n    tag_36:\n      0x02\n      0x00\n      swap1\n      sload\n      swap1\n      0x0100\n      exp\n      swap1\n      div\n      0xffffffffffffffffffffffffffffffffffffffff\n      and\n      dup2\n      jump\t// out\n        /* \"Twitter_4.sol\":1426:1540  function getTweet( uint256 _i) public view returns (Tweet memory) {... */\n    tag_42:\n        /* \"Twitter_4.sol\":1478:1490  Tweet memory */\n      tag_74\n      tag_75\n      jump\t// in\n    tag_74:\n        /* \"Twitter_4.sol\":1510:1516  tweets */\n      0x01\n        /* \"Twitter_4.sol\":1510:1528  tweets[msg.sender] */\n      0x00\n        /* \"Twitter_4.sol\":1517:1527  msg.sender */\n      caller\n        /* \"Twitter_4.sol\":1510:1528  tweets[msg.sender] */\n      0xffffffffffffffffffffffffffffffffffffffff\n      and\n      0xffffffffffffffffffffffffffffffffffffffff\n      and\n      dup2\n      mstore\n      0x20\n      add\n      swap1\n      dup2\n      mstore\n      0x20\n      add\n      0x00\n      keccak256\n        /* \"Twitter_4.sol\":1529:1531  _i */\n      dup3\n        /* \"Twitter_4.sol\":1510:1532  tweets[msg.sender][_i] */\n      dup2\n      sload\n      dup2\n      lt\n      tag_77\n      jumpi\n      tag_78\n      tag_79\n      jump\t// in\n    tag_78:\n    tag_77:\n      swap1\n      0x00\n      mstore\n      keccak256(0x00, 0x20)\n      swap1\n      0x04\n      mul\n      add\n        /* \"Twitter_4.sol\":1503:1532  return tweets[msg.sender][_i] */\n      mload(0x40)\n      dup1\n      0x80\n      add\n      0x40\n      mstore\n      swap1\n      dup2\n      0x00\n      dup3\n      add\n      0x00\n      swap1\n      sload\n      swap1\n      0x0100\n      exp\n      swap1\n      div\n      0xffffffffffffffffffffffffffffffffffffffff\n      and\n      0xffffffffffffffffffffffffffffffffffffffff\n      and\n      0xffffffffffffffffffffffffffffffffffffffff\n      and\n      dup2\n      mstore\n      0x20\n      add\n      0x01\n      dup3\n      add\n      dup1\n      sload\n      tag_81\n      swap1\n      tag_48\n      jump\t// in\n    tag_81:\n      dup1\n      0x1f\n      add\n      0x20\n      dup1\n      swap2\n      div\n      mul\n      0x20\n      add\n      mload(0x40)\n      swap1\n      dup2\n      add\n      0x40\n      mstore\n      dup1\n      swap3\n      swap2\n      swap1\n      dup2\n      dup2\n      mstore\n      0x20\n      add\n      dup3\n      dup1\n      sload\n      tag_82\n      swap1\n      tag_48\n      jump\t// in\n    tag_82:\n      dup1\n      iszero\n      tag_83\n      jumpi\n      dup1\n      0x1f\n      lt\n      tag_84\n      jumpi\n      0x0100\n      dup1\n      dup4\n      sload\n      div\n      mul\n      dup4\n      mstore\n      swap2\n      0x20\n      add\n      swap2\n      jump(tag_83)\n    tag_84:\n      dup3\n      add\n      swap2\n      swap1\n      0x00\n      mstore\n      keccak256(0x00, 0x20)\n      swap1\n    tag_85:\n      dup2\n      sload\n      dup2\n      mstore\n      swap1\n      0x01\n      add\n      swap1\n      0x20\n      add\n      dup1\n      dup4\n      gt\n      tag_85\n      jumpi\n      dup3\n      swap1\n      sub\n      0x1f\n      and\n      dup3\n      add\n      swap2\n    tag_83:\n      pop\n      pop\n      pop\n      pop\n      pop\n      dup2\n      mstore\n      0x20\n      add\n      0x02\n      dup3\n      add\n      sload\n      dup2\n      mstore\n      0x20\n      add\n      0x03\n      dup3\n      add\n      sload\n      dup2\n      mstore\n      pop\n      pop\n      swap1\n      pop\n        /* \"Twitter_4.sol\":1426:1540  function getTweet( uint256 _i) public view returns (Tweet memory) {... */\n      swap2\n      swap1\n      pop\n      jump\t// out\n    tag_75:\n      mload(0x40)\n      dup1\n      0x80\n      add\n      0x40\n      mstore\n      dup1\n      and(0xffffffffffffffffffffffffffffffffffffffff, 0x00)\n      dup2\n      mstore\n      0x20\n      add\n      0x60\n      dup2\n      mstore\n      0x20\n      add\n      0x00\n      dup2\n      mstore\n      0x20\n      add\n      0x00\n      dup2\n      mstore\n      pop\n      swap1\n      jump\t// out\n        /* \"#utility.yul\":7:82   */\n    tag_86:\n        /* \"#utility.yul\":40:46   */\n      0x00\n        /* \"#utility.yul\":73:75   */\n      0x40\n        /* \"#utility.yul\":67:76   */\n      mload\n        /* \"#utility.yul\":57:76   */\n      swap1\n      pop\n        /* \"#utility.yul\":7:82   */\n      swap1\n      jump\t// out\n        /* \"#utility.yul\":88:205   */\n    tag_87:\n        /* \"#utility.yul\":197:198   */\n      0x00\n        /* \"#utility.yul\":194:195   */\n      dup1\n        /* \"#utility.yul\":187:199   */\n      revert\n        /* \"#utility.yul\":211:328   */\n    tag_88:\n        /* \"#utility.yul\":320:321   */\n      0x00\n        /* \"#utility.yul\":317:318   */\n      dup1\n        /* \"#utility.yul\":310:322   */\n      revert\n        /* \"#utility.yul\":334:460   */\n    tag_89:\n        /* \"#utility.yul\":371:378   */\n      0x00\n        /* \"#utility.yul\":411:453   */\n      0xffffffffffffffffffffffffffffffffffffffff\n        /* \"#utility.yul\":404:409   */\n      dup3\n        /* \"#utility.yul\":400:454   */\n      and\n        /* \"#utility.yul\":389:454   */\n      swap1\n      pop\n        /* \"#utility.yul\":334:460   */\n      swap2\n      swap1\n      pop\n      jump\t// out\n        /* \"#utility.yul\":466:562   */\n    tag_90:\n        /* \"#utility.yul\":503:510   */\n      0x00\n        /* \"#utility.yul\":532:556   */\n      tag_154\n        /* \"#utility.yul\":550:555   */\n      dup3\n        /* \"#utility.yul\":532:556   */\n      tag_89\n      jump\t// in\n    tag_154:\n        /* \"#utility.yul\":521:556   */\n      swap1\n      pop\n        /* \"#utility.yul\":466:562   */\n      swap2\n      swap1\n      pop\n      jump\t// out\n        /* \"#utility.yul\":568:690   */\n    tag_91:\n        /* \"#utility.yul\":641:665   */\n      tag_156\n        /* \"#utility.yul\":659:664   */\n      dup2\n        /* \"#utility.yul\":641:665   */\n      tag_90\n      jump\t// in\n    tag_156:\n        /* \"#utility.yul\":634:639   */\n      dup2\n        /* \"#utility.yul\":631:666   */\n      eq\n        /* \"#utility.yul\":621:684   */\n      tag_157\n      jumpi\n        /* \"#utility.yul\":680:681   */\n      0x00\n        /* \"#utility.yul\":677:678   */\n      dup1\n        /* \"#utility.yul\":670:682   */\n      revert\n        /* \"#utility.yul\":621:684   */\n    tag_157:\n        /* \"#utility.yul\":568:690   */\n      pop\n      jump\t// out\n        /* \"#utility.yul\":696:835   */\n    tag_92:\n        /* \"#utility.yul\":742:747   */\n      0x00\n        /* \"#utility.yul\":780:786   */\n      dup2\n        /* \"#utility.yul\":767:787   */\n      calldataload\n        /* \"#utility.yul\":758:787   */\n      swap1\n      pop\n        /* \"#utility.yul\":796:829   */\n      tag_159\n        /* \"#utility.yul\":823:828   */\n      dup2\n        /* \"#utility.yul\":796:829   */\n      tag_91\n      jump\t// in\n    tag_159:\n        /* \"#utility.yul\":696:835   */\n      swap3\n      swap2\n      pop\n      pop\n      jump\t// out\n        /* \"#utility.yul\":841:918   */\n    tag_93:\n        /* \"#utility.yul\":878:885   */\n      0x00\n        /* \"#utility.yul\":907:912   */\n      dup2\n        /* \"#utility.yul\":896:912   */\n      swap1\n      pop\n        /* \"#utility.yul\":841:918   */\n      swap2\n      swap1\n      pop\n      jump\t// out\n        /* \"#utility.yul\":924:1046   */\n    tag_94:\n        /* \"#utility.yul\":997:1021   */\n      tag_162\n        /* \"#utility.yul\":1015:1020   */\n      dup2\n        /* \"#utility.yul\":997:1021   */\n      tag_93\n      jump\t// in\n    tag_162:\n        /* \"#utility.yul\":990:995   */\n      dup2\n        /* \"#utility.yul\":987:1022   */\n      eq\n        /* \"#utility.yul\":977:1040   */\n      tag_163\n      jumpi\n        /* \"#utility.yul\":1036:1037   */\n      0x00\n        /* \"#utility.yul\":1033:1034   */\n      dup1\n        /* \"#utility.yul\":1026:1038   */\n      revert\n        /* \"#utility.yul\":977:1040   */\n    tag_163:\n        /* \"#utility.yul\":924:1046   */\n      pop\n      jump\t// out\n        /* \"#utility.yul\":1052:1191   */\n    tag_95:\n        /* \"#utility.yul\":1098:1103   */\n      0x00\n        /* \"#utility.yul\":1136:1142   */\n      dup2\n        /* \"#utility.yul\":1123:1143   */\n      calldataload\n        /* \"#utility.yul\":1114:1143   */\n      swap1\n      pop\n        /* \"#utility.yul\":1152:1185   */\n      tag_165\n        /* \"#utility.yul\":1179:1184   */\n      dup2\n        /* \"#utility.yul\":1152:1185   */\n      tag_94\n      jump\t// in\n    tag_165:\n        /* \"#utility.yul\":1052:1191   */\n      swap3\n      swap2\n      pop\n      pop\n      jump\t// out\n        /* \"#utility.yul\":1197:1671   */\n    tag_13:\n        /* \"#utility.yul\":1265:1271   */\n      0x00\n        /* \"#utility.yul\":1273:1279   */\n      dup1\n        /* \"#utility.yul\":1322:1324   */\n      0x40\n        /* \"#utility.yul\":1310:1319   */\n      dup4\n        /* \"#utility.yul\":1301:1308   */\n      dup6\n        /* \"#utility.yul\":1297:1320   */\n      sub\n        /* \"#utility.yul\":1293:1325   */\n      slt\n        /* \"#utility.yul\":1290:1409   */\n      iszero\n      tag_167\n      jumpi\n        /* \"#utility.yul\":1328:1407   */\n      tag_168\n      tag_87\n      jump\t// in\n    tag_168:\n        /* \"#utility.yul\":1290:1409   */\n    tag_167:\n        /* \"#utility.yul\":1448:1449   */\n      0x00\n        /* \"#utility.yul\":1473:1526   */\n      tag_169\n        /* \"#utility.yul\":1518:1525   */\n      dup6\n        /* \"#utility.yul\":1509:1515   */\n      dup3\n        /* \"#utility.yul\":1498:1507   */\n      dup7\n        /* \"#utility.yul\":1494:1516   */\n      add\n        /* \"#utility.yul\":1473:1526   */\n      tag_92\n      jump\t// in\n    tag_169:\n        /* \"#utility.yul\":1463:1526   */\n      swap3\n      pop\n        /* \"#utility.yul\":1419:1536   */\n      pop\n        /* \"#utility.yul\":1575:1577   */\n      0x20\n        /* \"#utility.yul\":1601:1654   */\n      tag_170\n        /* \"#utility.yul\":1646:1653   */\n      dup6\n        /* \"#utility.yul\":1637:1643   */\n      dup3\n        /* \"#utility.yul\":1626:1635   */\n      dup7\n        /* \"#utility.yul\":1622:1644   */\n      add\n        /* \"#utility.yul\":1601:1654   */\n      tag_95\n      jump\t// in\n    tag_170:\n        /* \"#utility.yul\":1591:1654   */\n      swap2\n      pop\n        /* \"#utility.yul\":1546:1664   */\n      pop\n        /* \"#utility.yul\":1197:1671   */\n      swap3\n      pop\n      swap3\n      swap1\n      pop\n      jump\t// out\n        /* \"#utility.yul\":1677:1795   */\n    tag_96:\n        /* \"#utility.yul\":1764:1788   */\n      tag_172\n        /* \"#utility.yul\":1782:1787   */\n      dup2\n        /* \"#utility.yul\":1764:1788   */\n      tag_90\n      jump\t// in\n    tag_172:\n        /* \"#utility.yul\":1759:1762   */\n      dup3\n        /* \"#utility.yul\":1752:1789   */\n      mstore\n        /* \"#utility.yul\":1677:1795   */\n      pop\n      pop\n      jump\t// out\n        /* \"#utility.yul\":1801:1900   */\n    tag_97:\n        /* \"#utility.yul\":1853:1859   */\n      0x00\n        /* \"#utility.yul\":1887:1892   */\n      dup2\n        /* \"#utility.yul\":1881:1893   */\n      mload\n        /* \"#utility.yul\":1871:1893   */\n      swap1\n      pop\n        /* \"#utility.yul\":1801:1900   */\n      swap2\n      swap1\n      pop\n      jump\t// out\n        /* \"#utility.yul\":1906:2075   */\n    tag_98:\n        /* \"#utility.yul\":1990:2001   */\n      0x00\n        /* \"#utility.yul\":2024:2030   */\n      dup3\n        /* \"#utility.yul\":2019:2022   */\n      dup3\n        /* \"#utility.yul\":2012:2031   */\n      mstore\n        /* \"#utility.yul\":2064:2068   */\n      0x20\n        /* \"#utility.yul\":2059:2062   */\n      dup3\n        /* \"#utility.yul\":2055:2069   */\n      add\n        /* \"#utility.yul\":2040:2069   */\n      swap1\n      pop\n        /* \"#utility.yul\":1906:2075   */\n      swap3\n      swap2\n      pop\n      pop\n      jump\t// out\n        /* \"#utility.yul\":2081:2327   */\n    tag_99:\n        /* \"#utility.yul\":2162:2163   */\n      0x00\n        /* \"#utility.yul\":2172:2285   */\n    tag_176:\n        /* \"#utility.yul\":2186:2192   */\n      dup4\n        /* \"#utility.yul\":2183:2184   */\n      dup2\n        /* \"#utility.yul\":2180:2193   */\n      lt\n        /* \"#utility.yul\":2172:2285   */\n      iszero\n      tag_178\n      jumpi\n        /* \"#utility.yul\":2271:2272   */\n      dup1\n        /* \"#utility.yul\":2266:2269   */\n      dup3\n        /* \"#utility.yul\":2262:2273   */\n      add\n        /* \"#utility.yul\":2256:2274   */\n      mload\n        /* \"#utility.yul\":2252:2253   */\n      dup2\n        /* \"#utility.yul\":2247:2250   */\n      dup5\n        /* \"#utility.yul\":2243:2254   */\n      add\n        /* \"#utility.yul\":2236:2275   */\n      mstore\n        /* \"#utility.yul\":2208:2210   */\n      0x20\n        /* \"#utility.yul\":2205:2206   */\n      dup2\n        /* \"#utility.yul\":2201:2211   */\n      add\n        /* \"#utility.yul\":2196:2211   */\n      swap1\n      pop\n        /* \"#utility.yul\":2172:2285   */\n      jump(tag_176)\n    tag_178:\n        /* \"#utility.yul\":2319:2320   */\n      0x00\n        /* \"#utility.yul\":2310:2316   */\n      dup5\n        /* \"#utility.yul\":2305:2308   */\n      dup5\n        /* \"#utility.yul\":2301:2317   */\n      add\n        /* \"#utility.yul\":2294:2321   */\n      mstore\n        /* \"#utility.yul\":2143:2327   */\n      pop\n        /* \"#utility.yul\":2081:2327   */\n      pop\n      pop\n      pop\n      jump\t// out\n        /* \"#utility.yul\":2333:2435   */\n    tag_100:\n        /* \"#utility.yul\":2374:2380   */\n      0x00\n        /* \"#utility.yul\":2425:2427   */\n      0x1f\n        /* \"#utility.yul\":2421:2428   */\n      not\n        /* \"#utility.yul\":2416:2418   */\n      0x1f\n        /* \"#utility.yul\":2409:2414   */\n      dup4\n        /* \"#utility.yul\":2405:2419   */\n      add\n        /* \"#utility.yul\":2401:2429   */\n      and\n        /* \"#utility.yul\":2391:2429   */\n      swap1\n      pop\n        /* \"#utility.yul\":2333:2435   */\n      swap2\n      swap1\n      pop\n      jump\t// out\n        /* \"#utility.yul\":2441:2818   */\n    tag_101:\n        /* \"#utility.yul\":2529:2532   */\n      0x00\n        /* \"#utility.yul\":2557:2596   */\n      tag_181\n        /* \"#utility.yul\":2590:2595   */\n      dup3\n        /* \"#utility.yul\":2557:2596   */\n      tag_97\n      jump\t// in\n    tag_181:\n        /* \"#utility.yul\":2612:2683   */\n      tag_182\n        /* \"#utility.yul\":2676:2682   */\n      dup2\n        /* \"#utility.yul\":2671:2674   */\n      dup6\n        /* \"#utility.yul\":2612:2683   */\n      tag_98\n      jump\t// in\n    tag_182:\n        /* \"#utility.yul\":2605:2683   */\n      swap4\n      pop\n        /* \"#utility.yul\":2692:2757   */\n      tag_183\n        /* \"#utility.yul\":2750:2756   */\n      dup2\n        /* \"#utility.yul\":2745:2748   */\n      dup6\n        /* \"#utility.yul\":2738:2742   */\n      0x20\n        /* \"#utility.yul\":2731:2736   */\n      dup7\n        /* \"#utility.yul\":2727:2743   */\n      add\n        /* \"#utility.yul\":2692:2757   */\n      tag_99\n      jump\t// in\n    tag_183:\n        /* \"#utility.yul\":2782:2811   */\n      tag_184\n        /* \"#utility.yul\":2804:2810   */\n      dup2\n        /* \"#utility.yul\":2782:2811   */\n      tag_100\n      jump\t// in\n    tag_184:\n        /* \"#utility.yul\":2777:2780   */\n      dup5\n        /* \"#utility.yul\":2773:2812   */\n      add\n        /* \"#utility.yul\":2766:2812   */\n      swap2\n      pop\n        /* \"#utility.yul\":2533:2818   */\n      pop\n        /* \"#utility.yul\":2441:2818   */\n      swap3\n      swap2\n      pop\n      pop\n      jump\t// out\n        /* \"#utility.yul\":2824:2942   */\n    tag_102:\n        /* \"#utility.yul\":2911:2935   */\n      tag_186\n        /* \"#utility.yul\":2929:2934   */\n      dup2\n        /* \"#utility.yul\":2911:2935   */\n      tag_93\n      jump\t// in\n    tag_186:\n        /* \"#utility.yul\":2906:2909   */\n      dup3\n        /* \"#utility.yul\":2899:2936   */\n      mstore\n        /* \"#utility.yul\":2824:2942   */\n      pop\n      pop\n      jump\t// out\n        /* \"#utility.yul\":2948:3592   */\n    tag_16:\n        /* \"#utility.yul\":3145:3149   */\n      0x00\n        /* \"#utility.yul\":3183:3186   */\n      0x80\n        /* \"#utility.yul\":3172:3181   */\n      dup3\n        /* \"#utility.yul\":3168:3187   */\n      add\n        /* \"#utility.yul\":3160:3187   */\n      swap1\n      pop\n        /* \"#utility.yul\":3197:3268   */\n      tag_188\n        /* \"#utility.yul\":3265:3266   */\n      0x00\n        /* \"#utility.yul\":3254:3263   */\n      dup4\n        /* \"#utility.yul\":3250:3267   */\n      add\n        /* \"#utility.yul\":3241:3247   */\n      dup8\n        /* \"#utility.yul\":3197:3268   */\n      tag_96\n      jump\t// in\n    tag_188:\n        /* \"#utility.yul\":3315:3324   */\n      dup2\n        /* \"#utility.yul\":3309:3313   */\n      dup2\n        /* \"#utility.yul\":3305:3325   */\n      sub\n        /* \"#utility.yul\":3300:3302   */\n      0x20\n        /* \"#utility.yul\":3289:3298   */\n      dup4\n        /* \"#utility.yul\":3285:3303   */\n      add\n        /* \"#utility.yul\":3278:3326   */\n      mstore\n        /* \"#utility.yul\":3343:3421   */\n      tag_189\n        /* \"#utility.yul\":3416:3420   */\n      dup2\n        /* \"#utility.yul\":3407:3413   */\n      dup7\n        /* \"#utility.yul\":3343:3421   */\n      tag_101\n      jump\t// in\n    tag_189:\n        /* \"#utility.yul\":3335:3421   */\n      swap1\n      pop\n        /* \"#utility.yul\":3431:3503   */\n      tag_190\n        /* \"#utility.yul\":3499:3501   */\n      0x40\n        /* \"#utility.yul\":3488:3497   */\n      dup4\n        /* \"#utility.yul\":3484:3502   */\n      add\n        /* \"#utility.yul\":3475:3481   */\n      dup6\n        /* \"#utility.yul\":3431:3503   */\n      tag_102\n      jump\t// in\n    tag_190:\n        /* \"#utility.yul\":3513:3585   */\n      tag_191\n        /* \"#utility.yul\":3581:3583   */\n      0x60\n        /* \"#utility.yul\":3570:3579   */\n      dup4\n        /* \"#utility.yul\":3566:3584   */\n      add\n        /* \"#utility.yul\":3557:3563   */\n      dup5\n        /* \"#utility.yul\":3513:3585   */\n      tag_102\n      jump\t// in\n    tag_191:\n        /* \"#utility.yul\":2948:3592   */\n      swap6\n      swap5\n      pop\n      pop\n      pop\n      pop\n      pop\n      jump\t// out\n        /* \"#utility.yul\":3598:3927   */\n    tag_19:\n        /* \"#utility.yul\":3657:3663   */\n      0x00\n        /* \"#utility.yul\":3706:3708   */\n      0x20\n        /* \"#utility.yul\":3694:3703   */\n      dup3\n        /* \"#utility.yul\":3685:3692   */\n      dup5\n        /* \"#utility.yul\":3681:3704   */\n      sub\n        /* \"#utility.yul\":3677:3709   */\n      slt\n        /* \"#utility.yul\":3674:3793   */\n      iszero\n      tag_193\n      jumpi\n        /* \"#utility.yul\":3712:3791   */\n      tag_194\n      tag_87\n      jump\t// in\n    tag_194:\n        /* \"#utility.yul\":3674:3793   */\n    tag_193:\n        /* \"#utility.yul\":3832:3833   */\n      0x00\n        /* \"#utility.yul\":3857:3910   */\n      tag_195\n        /* \"#utility.yul\":3902:3909   */\n      dup5\n        /* \"#utility.yul\":3893:3899   */\n      dup3\n        /* \"#utility.yul\":3882:3891   */\n      dup6\n        /* \"#utility.yul\":3878:3900   */\n      add\n        /* \"#utility.yul\":3857:3910   */\n      tag_92\n      jump\t// in\n    tag_195:\n        /* \"#utility.yul\":3847:3910   */\n      swap2\n      pop\n        /* \"#utility.yul\":3803:3920   */\n      pop\n        /* \"#utility.yul\":3598:3927   */\n      swap3\n      swap2\n      pop\n      pop\n      jump\t// out\n        /* \"#utility.yul\":3933:4068   */\n    tag_103:\n        /* \"#utility.yul\":4021:4027   */\n      0x00\n        /* \"#utility.yul\":4055:4060   */\n      dup2\n        /* \"#utility.yul\":4049:4061   */\n      mload\n        /* \"#utility.yul\":4039:4061   */\n      swap1\n      pop\n        /* \"#utility.yul\":3933:4068   */\n      swap2\n      swap1\n      pop\n      jump\t// out\n        /* \"#utility.yul\":4074:4279   */\n    tag_104:\n        /* \"#utility.yul\":4194:4205   */\n      0x00\n        /* \"#utility.yul\":4228:4234   */\n      dup3\n        /* \"#utility.yul\":4223:4226   */\n      dup3\n        /* \"#utility.yul\":4216:4235   */\n      mstore\n        /* \"#utility.yul\":4268:4272   */\n      0x20\n        /* \"#utility.yul\":4263:4266   */\n      dup3\n        /* \"#utility.yul\":4259:4273   */\n      add\n        /* \"#utility.yul\":4244:4273   */\n      swap1\n      pop\n        /* \"#utility.yul\":4074:4279   */\n      swap3\n      swap2\n      pop\n      pop\n      jump\t// out\n        /* \"#utility.yul\":4285:4438   */\n    tag_105:\n        /* \"#utility.yul\":4373:4377   */\n      0x00\n        /* \"#utility.yul\":4396:4399   */\n      dup2\n        /* \"#utility.yul\":4388:4399   */\n      swap1\n      pop\n        /* \"#utility.yul\":4426:4430   */\n      0x20\n        /* \"#utility.yul\":4421:4424   */\n      dup3\n        /* \"#utility.yul\":4417:4431   */\n      add\n        /* \"#utility.yul\":4409:4431   */\n      swap1\n      pop\n        /* \"#utility.yul\":4285:4438   */\n      swap2\n      swap1\n      pop\n      jump\t// out\n        /* \"#utility.yul\":4444:4552   */\n    tag_106:\n        /* \"#utility.yul\":4521:4545   */\n      tag_200\n        /* \"#utility.yul\":4539:4544   */\n      dup2\n        /* \"#utility.yul\":4521:4545   */\n      tag_90\n      jump\t// in\n    tag_200:\n        /* \"#utility.yul\":4516:4519   */\n      dup3\n        /* \"#utility.yul\":4509:4546   */\n      mstore\n        /* \"#utility.yul\":4444:4552   */\n      pop\n      pop\n      jump\t// out\n        /* \"#utility.yul\":4558:4717   */\n    tag_107:\n        /* \"#utility.yul\":4632:4643   */\n      0x00\n        /* \"#utility.yul\":4666:4672   */\n      dup3\n        /* \"#utility.yul\":4661:4664   */\n      dup3\n        /* \"#utility.yul\":4654:4673   */\n      mstore\n        /* \"#utility.yul\":4706:4710   */\n      0x20\n        /* \"#utility.yul\":4701:4704   */\n      dup3\n        /* \"#utility.yul\":4697:4711   */\n      add\n        /* \"#utility.yul\":4682:4711   */\n      swap1\n      pop\n        /* \"#utility.yul\":4558:4717   */\n      swap3\n      swap2\n      pop\n      pop\n      jump\t// out\n        /* \"#utility.yul\":4723:5080   */\n    tag_108:\n        /* \"#utility.yul\":4801:4804   */\n      0x00\n        /* \"#utility.yul\":4829:4868   */\n      tag_203\n        /* \"#utility.yul\":4862:4867   */\n      dup3\n        /* \"#utility.yul\":4829:4868   */\n      tag_97\n      jump\t// in\n    tag_203:\n        /* \"#utility.yul\":4884:4945   */\n      tag_204\n        /* \"#utility.yul\":4938:4944   */\n      dup2\n        /* \"#utility.yul\":4933:4936   */\n      dup6\n        /* \"#utility.yul\":4884:4945   */\n      tag_107\n      jump\t// in\n    tag_204:\n        /* \"#utility.yul\":4877:4945   */\n      swap4\n      pop\n        /* \"#utility.yul\":4954:5019   */\n      tag_205\n        /* \"#utility.yul\":5012:5018   */\n      dup2\n        /* \"#utility.yul\":5007:5010   */\n      dup6\n        /* \"#utility.yul\":5000:5004   */\n      0x20\n        /* \"#utility.yul\":4993:4998   */\n      dup7\n        /* \"#utility.yul\":4989:5005   */\n      add\n        /* \"#utility.yul\":4954:5019   */\n      tag_99\n      jump\t// in\n    tag_205:\n        /* \"#utility.yul\":5044:5073   */\n      tag_206\n        /* \"#utility.yul\":5066:5072   */\n      dup2\n        /* \"#utility.yul\":5044:5073   */\n      tag_100\n      jump\t// in\n    tag_206:\n        /* \"#utility.yul\":5039:5042   */\n      dup5\n        /* \"#utility.yul\":5035:5074   */\n      add\n        /* \"#utility.yul\":5028:5074   */\n      swap2\n      pop\n        /* \"#utility.yul\":4805:5080   */\n      pop\n        /* \"#utility.yul\":4723:5080   */\n      swap3\n      swap2\n      pop\n      pop\n      jump\t// out\n        /* \"#utility.yul\":5086:5194   */\n    tag_109:\n        /* \"#utility.yul\":5163:5187   */\n      tag_208\n        /* \"#utility.yul\":5181:5186   */\n      dup2\n        /* \"#utility.yul\":5163:5187   */\n      tag_93\n      jump\t// in\n    tag_208:\n        /* \"#utility.yul\":5158:5161   */\n      dup3\n        /* \"#utility.yul\":5151:5188   */\n      mstore\n        /* \"#utility.yul\":5086:5194   */\n      pop\n      pop\n      jump\t// out\n        /* \"#utility.yul\":5252:6199   */\n    tag_110:\n        /* \"#utility.yul\":5353:5356   */\n      0x00\n        /* \"#utility.yul\":5389:5393   */\n      0x80\n        /* \"#utility.yul\":5384:5387   */\n      dup4\n        /* \"#utility.yul\":5380:5394   */\n      add\n        /* \"#utility.yul\":5478:5482   */\n      0x00\n        /* \"#utility.yul\":5471:5476   */\n      dup4\n        /* \"#utility.yul\":5467:5483   */\n      add\n        /* \"#utility.yul\":5461:5484   */\n      mload\n        /* \"#utility.yul\":5497:5560   */\n      tag_210\n        /* \"#utility.yul\":5554:5558   */\n      0x00\n        /* \"#utility.yul\":5549:5552   */\n      dup7\n        /* \"#utility.yul\":5545:5559   */\n      add\n        /* \"#utility.yul\":5531:5543   */\n      dup3\n        /* \"#utility.yul\":5497:5560   */\n      tag_106\n      jump\t// in\n    tag_210:\n        /* \"#utility.yul\":5404:5570   */\n      pop\n        /* \"#utility.yul\":5655:5659   */\n      0x20\n        /* \"#utility.yul\":5648:5653   */\n      dup4\n        /* \"#utility.yul\":5644:5660   */\n      add\n        /* \"#utility.yul\":5638:5661   */\n      mload\n        /* \"#utility.yul\":5708:5711   */\n      dup5\n        /* \"#utility.yul\":5702:5706   */\n      dup3\n        /* \"#utility.yul\":5698:5712   */\n      sub\n        /* \"#utility.yul\":5691:5695   */\n      0x20\n        /* \"#utility.yul\":5686:5689   */\n      dup7\n        /* \"#utility.yul\":5682:5696   */\n      add\n        /* \"#utility.yul\":5675:5713   */\n      mstore\n        /* \"#utility.yul\":5734:5807   */\n      tag_211\n        /* \"#utility.yul\":5802:5806   */\n      dup3\n        /* \"#utility.yul\":5788:5800   */\n      dup3\n        /* \"#utility.yul\":5734:5807   */\n      tag_108\n      jump\t// in\n    tag_211:\n        /* \"#utility.yul\":5726:5807   */\n      swap2\n      pop\n        /* \"#utility.yul\":5580:5818   */\n      pop\n        /* \"#utility.yul\":5905:5909   */\n      0x40\n        /* \"#utility.yul\":5898:5903   */\n      dup4\n        /* \"#utility.yul\":5894:5910   */\n      add\n        /* \"#utility.yul\":5888:5911   */\n      mload\n        /* \"#utility.yul\":5924:5987   */\n      tag_212\n        /* \"#utility.yul\":5981:5985   */\n      0x40\n        /* \"#utility.yul\":5976:5979   */\n      dup7\n        /* \"#utility.yul\":5972:5986   */\n      add\n        /* \"#utility.yul\":5958:5970   */\n      dup3\n        /* \"#utility.yul\":5924:5987   */\n      tag_109\n      jump\t// in\n    tag_212:\n        /* \"#utility.yul\":5828:5997   */\n      pop\n        /* \"#utility.yul\":6080:6084   */\n      0x60\n        /* \"#utility.yul\":6073:6078   */\n      dup4\n        /* \"#utility.yul\":6069:6085   */\n      add\n        /* \"#utility.yul\":6063:6086   */\n      mload\n        /* \"#utility.yul\":6099:6162   */\n      tag_213\n        /* \"#utility.yul\":6156:6160   */\n      0x60\n        /* \"#utility.yul\":6151:6154   */\n      dup7\n        /* \"#utility.yul\":6147:6161   */\n      add\n        /* \"#utility.yul\":6133:6145   */\n      dup3\n        /* \"#utility.yul\":6099:6162   */\n      tag_109\n      jump\t// in\n    tag_213:\n        /* \"#utility.yul\":6007:6172   */\n      pop\n        /* \"#utility.yul\":6189:6193   */\n      dup1\n        /* \"#utility.yul\":6182:6193   */\n      swap2\n      pop\n        /* \"#utility.yul\":5358:6199   */\n      pop\n        /* \"#utility.yul\":5252:6199   */\n      swap3\n      swap2\n      pop\n      pop\n      jump\t// out\n        /* \"#utility.yul\":6205:6445   */\n    tag_111:\n        /* \"#utility.yul\":6316:6326   */\n      0x00\n        /* \"#utility.yul\":6351:6439   */\n      tag_215\n        /* \"#utility.yul\":6435:6438   */\n      dup4\n        /* \"#utility.yul\":6427:6433   */\n      dup4\n        /* \"#utility.yul\":6351:6439   */\n      tag_110\n      jump\t// in\n    tag_215:\n        /* \"#utility.yul\":6337:6439   */\n      swap1\n      pop\n        /* \"#utility.yul\":6205:6445   */\n      swap3\n      swap2\n      pop\n      pop\n      jump\t// out\n        /* \"#utility.yul\":6451:6585   */\n    tag_112:\n        /* \"#utility.yul\":6542:6546   */\n      0x00\n        /* \"#utility.yul\":6574:6578   */\n      0x20\n        /* \"#utility.yul\":6569:6572   */\n      dup3\n        /* \"#utility.yul\":6565:6579   */\n      add\n        /* \"#utility.yul\":6557:6579   */\n      swap1\n      pop\n        /* \"#utility.yul\":6451:6585   */\n      swap2\n      swap1\n      pop\n      jump\t// out\n        /* \"#utility.yul\":6647:7726   */\n    tag_113:\n        /* \"#utility.yul\":6808:6811   */\n      0x00\n        /* \"#utility.yul\":6837:6912   */\n      tag_218\n        /* \"#utility.yul\":6906:6911   */\n      dup3\n        /* \"#utility.yul\":6837:6912   */\n      tag_103\n      jump\t// in\n    tag_218:\n        /* \"#utility.yul\":6928:7035   */\n      tag_219\n        /* \"#utility.yul\":7028:7034   */\n      dup2\n        /* \"#utility.yul\":7023:7026   */\n      dup6\n        /* \"#utility.yul\":6928:7035   */\n      tag_104\n      jump\t// in\n    tag_219:\n        /* \"#utility.yul\":6921:7035   */\n      swap4\n      pop\n        /* \"#utility.yul\":7061:7064   */\n      dup4\n        /* \"#utility.yul\":7106:7110   */\n      0x20\n        /* \"#utility.yul\":7098:7104   */\n      dup3\n        /* \"#utility.yul\":7094:7111   */\n      mul\n        /* \"#utility.yul\":7089:7092   */\n      dup6\n        /* \"#utility.yul\":7085:7112   */\n      add\n        /* \"#utility.yul\":7136:7213   */\n      tag_220\n        /* \"#utility.yul\":7207:7212   */\n      dup6\n        /* \"#utility.yul\":7136:7213   */\n      tag_105\n      jump\t// in\n    tag_220:\n        /* \"#utility.yul\":7236:7243   */\n      dup1\n        /* \"#utility.yul\":7267:7268   */\n      0x00\n        /* \"#utility.yul\":7252:7681   */\n    tag_221:\n        /* \"#utility.yul\":7277:7283   */\n      dup6\n        /* \"#utility.yul\":7274:7275   */\n      dup2\n        /* \"#utility.yul\":7271:7284   */\n      lt\n        /* \"#utility.yul\":7252:7681   */\n      iszero\n      tag_223\n      jumpi\n        /* \"#utility.yul\":7348:7357   */\n      dup5\n        /* \"#utility.yul\":7342:7346   */\n      dup5\n        /* \"#utility.yul\":7338:7358   */\n      sub\n        /* \"#utility.yul\":7333:7336   */\n      dup10\n        /* \"#utility.yul\":7326:7359   */\n      mstore\n        /* \"#utility.yul\":7399:7405   */\n      dup2\n        /* \"#utility.yul\":7393:7406   */\n      mload\n        /* \"#utility.yul\":7427:7533   */\n      tag_224\n        /* \"#utility.yul\":7528:7532   */\n      dup6\n        /* \"#utility.yul\":7513:7526   */\n      dup3\n        /* \"#utility.yul\":7427:7533   */\n      tag_111\n      jump\t// in\n    tag_224:\n        /* \"#utility.yul\":7419:7533   */\n      swap5\n      pop\n        /* \"#utility.yul\":7556:7637   */\n      tag_225\n        /* \"#utility.yul\":7630:7636   */\n      dup4\n        /* \"#utility.yul\":7556:7637   */\n      tag_112\n      jump\t// in\n    tag_225:\n        /* \"#utility.yul\":7546:7637   */\n      swap3\n      pop\n        /* \"#utility.yul\":7666:7670   */\n      0x20\n        /* \"#utility.yul\":7661:7664   */\n      dup11\n        /* \"#utility.yul\":7657:7671   */\n      add\n        /* \"#utility.yul\":7650:7671   */\n      swap10\n      pop\n        /* \"#utility.yul\":7312:7681   */\n      pop\n        /* \"#utility.yul\":7299:7300   */\n      0x01\n        /* \"#utility.yul\":7296:7297   */\n      dup2\n        /* \"#utility.yul\":7292:7301   */\n      add\n        /* \"#utility.yul\":7287:7301   */\n      swap1\n      pop\n        /* \"#utility.yul\":7252:7681   */\n      jump(tag_221)\n    tag_223:\n        /* \"#utility.yul\":7256:7270   */\n      pop\n        /* \"#utility.yul\":7697:7701   */\n      dup3\n        /* \"#utility.yul\":7690:7701   */\n      swap8\n      pop\n        /* \"#utility.yul\":7717:7720   */\n      dup8\n        /* \"#utility.yul\":7710:7720   */\n      swap6\n      pop\n        /* \"#utility.yul\":6813:7726   */\n      pop\n      pop\n      pop\n      pop\n      pop\n        /* \"#utility.yul\":6647:7726   */\n      swap3\n      swap2\n      pop\n      pop\n      jump\t// out\n        /* \"#utility.yul\":7732:8189   */\n    tag_22:\n        /* \"#utility.yul\":7917:7921   */\n      0x00\n        /* \"#utility.yul\":7955:7957   */\n      0x20\n        /* \"#utility.yul\":7944:7953   */\n      dup3\n        /* \"#utility.yul\":7940:7958   */\n      add\n        /* \"#utility.yul\":7932:7958   */\n      swap1\n      pop\n        /* \"#utility.yul\":8004:8013   */\n      dup2\n        /* \"#utility.yul\":7998:8002   */\n      dup2\n        /* \"#utility.yul\":7994:8014   */\n      sub\n        /* \"#utility.yul\":7990:7991   */\n      0x00\n        /* \"#utility.yul\":7979:7988   */\n      dup4\n        /* \"#utility.yul\":7975:7992   */\n      add\n        /* \"#utility.yul\":7968:8015   */\n      mstore\n        /* \"#utility.yul\":8032:8182   */\n      tag_227\n        /* \"#utility.yul\":8177:8181   */\n      dup2\n        /* \"#utility.yul\":8168:8174   */\n      dup5\n        /* \"#utility.yul\":8032:8182   */\n      tag_113\n      jump\t// in\n    tag_227:\n        /* \"#utility.yul\":8024:8182   */\n      swap1\n      pop\n        /* \"#utility.yul\":7732:8189   */\n      swap3\n      swap2\n      pop\n      pop\n      jump\t// out\n        /* \"#utility.yul\":8195:8284   */\n    tag_114:\n        /* \"#utility.yul\":8231:8238   */\n      0x00\n        /* \"#utility.yul\":8271:8277   */\n      0xffff\n        /* \"#utility.yul\":8264:8269   */\n      dup3\n        /* \"#utility.yul\":8260:8278   */\n      and\n        /* \"#utility.yul\":8249:8278   */\n      swap1\n      pop\n        /* \"#utility.yul\":8195:8284   */\n      swap2\n      swap1\n      pop\n      jump\t// out\n        /* \"#utility.yul\":8290:8410   */\n    tag_115:\n        /* \"#utility.yul\":8362:8385   */\n      tag_230\n        /* \"#utility.yul\":8379:8384   */\n      dup2\n        /* \"#utility.yul\":8362:8385   */\n      tag_114\n      jump\t// in\n    tag_230:\n        /* \"#utility.yul\":8355:8360   */\n      dup2\n        /* \"#utility.yul\":8352:8386   */\n      eq\n        /* \"#utility.yul\":8342:8404   */\n      tag_231\n      jumpi\n        /* \"#utility.yul\":8400:8401   */\n      0x00\n        /* \"#utility.yul\":8397:8398   */\n      dup1\n        /* \"#utility.yul\":8390:8402   */\n      revert\n        /* \"#utility.yul\":8342:8404   */\n    tag_231:\n        /* \"#utility.yul\":8290:8410   */\n      pop\n      jump\t// out\n        /* \"#utility.yul\":8416:8553   */\n    tag_116:\n        /* \"#utility.yul\":8461:8466   */\n      0x00\n        /* \"#utility.yul\":8499:8505   */\n      dup2\n        /* \"#utility.yul\":8486:8506   */\n      calldataload\n        /* \"#utility.yul\":8477:8506   */\n      swap1\n      pop\n        /* \"#utility.yul\":8515:8547   */\n      tag_233\n        /* \"#utility.yul\":8541:8546   */\n      dup2\n        /* \"#utility.yul\":8515:8547   */\n      tag_115\n      jump\t// in\n    tag_233:\n        /* \"#utility.yul\":8416:8553   */\n      swap3\n      swap2\n      pop\n      pop\n      jump\t// out\n        /* \"#utility.yul\":8559:8886   */\n    tag_25:\n        /* \"#utility.yul\":8617:8623   */\n      0x00\n        /* \"#utility.yul\":8666:8668   */\n      0x20\n        /* \"#utility.yul\":8654:8663   */\n      dup3\n        /* \"#utility.yul\":8645:8652   */\n      dup5\n        /* \"#utility.yul\":8641:8664   */\n      sub\n        /* \"#utility.yul\":8637:8669   */\n      slt\n        /* \"#utility.yul\":8634:8753   */\n      iszero\n      tag_235\n      jumpi\n        /* \"#utility.yul\":8672:8751   */\n      tag_236\n      tag_87\n      jump\t// in\n    tag_236:\n        /* \"#utility.yul\":8634:8753   */\n    tag_235:\n        /* \"#utility.yul\":8792:8793   */\n      0x00\n        /* \"#utility.yul\":8817:8869   */\n      tag_237\n        /* \"#utility.yul\":8861:8868   */\n      dup5\n        /* \"#utility.yul\":8852:8858   */\n      dup3\n        /* \"#utility.yul\":8841:8850   */\n      dup6\n        /* \"#utility.yul\":8837:8859   */\n      add\n        /* \"#utility.yul\":8817:8869   */\n      tag_116\n      jump\t// in\n    tag_237:\n        /* \"#utility.yul\":8807:8869   */\n      swap2\n      pop\n        /* \"#utility.yul\":8763:8879   */\n      pop\n        /* \"#utility.yul\":8559:8886   */\n      swap3\n      swap2\n      pop\n      pop\n      jump\t// out\n        /* \"#utility.yul\":8892:9007   */\n    tag_117:\n        /* \"#utility.yul\":8977:9000   */\n      tag_239\n        /* \"#utility.yul\":8994:8999   */\n      dup2\n        /* \"#utility.yul\":8977:9000   */\n      tag_114\n      jump\t// in\n    tag_239:\n        /* \"#utility.yul\":8972:8975   */\n      dup3\n        /* \"#utility.yul\":8965:9001   */\n      mstore\n        /* \"#utility.yul\":8892:9007   */\n      pop\n      pop\n      jump\t// out\n        /* \"#utility.yul\":9013:9231   */\n    tag_30:\n        /* \"#utility.yul\":9104:9108   */\n      0x00\n        /* \"#utility.yul\":9142:9144   */\n      0x20\n        /* \"#utility.yul\":9131:9140   */\n      dup3\n        /* \"#utility.yul\":9127:9145   */\n      add\n        /* \"#utility.yul\":9119:9145   */\n      swap1\n      pop\n        /* \"#utility.yul\":9155:9224   */\n      tag_241\n        /* \"#utility.yul\":9221:9222   */\n      0x00\n        /* \"#utility.yul\":9210:9219   */\n      dup4\n        /* \"#utility.yul\":9206:9223   */\n      add\n        /* \"#utility.yul\":9197:9203   */\n      dup5\n        /* \"#utility.yul\":9155:9224   */\n      tag_117\n      jump\t// in\n    tag_241:\n        /* \"#utility.yul\":9013:9231   */\n      swap3\n      swap2\n      pop\n      pop\n      jump\t// out\n        /* \"#utility.yul\":9237:9354   */\n    tag_118:\n        /* \"#utility.yul\":9346:9347   */\n      0x00\n        /* \"#utility.yul\":9343:9344   */\n      dup1\n        /* \"#utility.yul\":9336:9348   */\n      revert\n        /* \"#utility.yul\":9360:9477   */\n    tag_119:\n        /* \"#utility.yul\":9469:9470   */\n      0x00\n        /* \"#utility.yul\":9466:9467   */\n      dup1\n        /* \"#utility.yul\":9459:9471   */\n      revert\n        /* \"#utility.yul\":9483:9663   */\n    tag_120:\n        /* \"#utility.yul\":9531:9608   */\n      0x4e487b7100000000000000000000000000000000000000000000000000000000\n        /* \"#utility.yul\":9528:9529   */\n      0x00\n        /* \"#utility.yul\":9521:9609   */\n      mstore\n        /* \"#utility.yul\":9628:9632   */\n      0x41\n        /* \"#utility.yul\":9625:9626   */\n      0x04\n        /* \"#utility.yul\":9618:9633   */\n      mstore\n        /* \"#utility.yul\":9652:9656   */\n      0x24\n        /* \"#utility.yul\":9649:9650   */\n      0x00\n        /* \"#utility.yul\":9642:9657   */\n      revert\n        /* \"#utility.yul\":9669:9950   */\n    tag_121:\n        /* \"#utility.yul\":9752:9779   */\n      tag_246\n        /* \"#utility.yul\":9774:9778   */\n      dup3\n        /* \"#utility.yul\":9752:9779   */\n      tag_100\n      jump\t// in\n    tag_246:\n        /* \"#utility.yul\":9744:9750   */\n      dup2\n        /* \"#utility.yul\":9740:9780   */\n      add\n        /* \"#utility.yul\":9882:9888   */\n      dup2\n        /* \"#utility.yul\":9870:9880   */\n      dup2\n        /* \"#utility.yul\":9867:9889   */\n      lt\n        /* \"#utility.yul\":9846:9864   */\n      0xffffffffffffffff\n        /* \"#utility.yul\":9834:9844   */\n      dup3\n        /* \"#utility.yul\":9831:9865   */\n      gt\n        /* \"#utility.yul\":9828:9890   */\n      or\n        /* \"#utility.yul\":9825:9913   */\n      iszero\n      tag_247\n      jumpi\n        /* \"#utility.yul\":9893:9911   */\n      tag_248\n      tag_120\n      jump\t// in\n    tag_248:\n        /* \"#utility.yul\":9825:9913   */\n    tag_247:\n        /* \"#utility.yul\":9933:9943   */\n      dup1\n        /* \"#utility.yul\":9929:9931   */\n      0x40\n        /* \"#utility.yul\":9922:9944   */\n      mstore\n        /* \"#utility.yul\":9712:9950   */\n      pop\n        /* \"#utility.yul\":9669:9950   */\n      pop\n      pop\n      jump\t// out\n        /* \"#utility.yul\":9956:10085   */\n    tag_122:\n        /* \"#utility.yul\":9990:9996   */\n      0x00\n        /* \"#utility.yul\":10017:10037   */\n      tag_250\n      tag_86\n      jump\t// in\n    tag_250:\n        /* \"#utility.yul\":10007:10037   */\n      swap1\n      pop\n        /* \"#utility.yul\":10046:10079   */\n      tag_251\n        /* \"#utility.yul\":10074:10078   */\n      dup3\n        /* \"#utility.yul\":10066:10072   */\n      dup3\n        /* \"#utility.yul\":10046:10079   */\n      tag_121\n      jump\t// in\n    tag_251:\n        /* \"#utility.yul\":9956:10085   */\n      swap2\n      swap1\n      pop\n      jump\t// out\n        /* \"#utility.yul\":10091:10399   */\n    tag_123:\n        /* \"#utility.yul\":10153:10157   */\n      0x00\n        /* \"#utility.yul\":10243:10261   */\n      0xffffffffffffffff\n        /* \"#utility.yul\":10235:10241   */\n      dup3\n        /* \"#utility.yul\":10232:10262   */\n      gt\n        /* \"#utility.yul\":10229:10285   */\n      iszero\n      tag_253\n      jumpi\n        /* \"#utility.yul\":10265:10283   */\n      tag_254\n      tag_120\n      jump\t// in\n    tag_254:\n        /* \"#utility.yul\":10229:10285   */\n    tag_253:\n        /* \"#utility.yul\":10303:10332   */\n      tag_255\n        /* \"#utility.yul\":10325:10331   */\n      dup3\n        /* \"#utility.yul\":10303:10332   */\n      tag_100\n      jump\t// in\n    tag_255:\n        /* \"#utility.yul\":10295:10332   */\n      swap1\n      pop\n        /* \"#utility.yul\":10387:10391   */\n      0x20\n        /* \"#utility.yul\":10381:10385   */\n      dup2\n        /* \"#utility.yul\":10377:10392   */\n      add\n        /* \"#utility.yul\":10369:10392   */\n      swap1\n      pop\n        /* \"#utility.yul\":10091:10399   */\n      swap2\n      swap1\n      pop\n      jump\t// out\n        /* \"#utility.yul\":10405:10551   */\n    tag_124:\n        /* \"#utility.yul\":10502:10508   */\n      dup3\n        /* \"#utility.yul\":10497:10500   */\n      dup2\n        /* \"#utility.yul\":10492:10495   */\n      dup4\n        /* \"#utility.yul\":10479:10509   */\n      calldatacopy\n        /* \"#utility.yul\":10543:10544   */\n      0x00\n        /* \"#utility.yul\":10534:10540   */\n      dup4\n        /* \"#utility.yul\":10529:10532   */\n      dup4\n        /* \"#utility.yul\":10525:10541   */\n      add\n        /* \"#utility.yul\":10518:10545   */\n      mstore\n        /* \"#utility.yul\":10405:10551   */\n      pop\n      pop\n      pop\n      jump\t// out\n        /* \"#utility.yul\":10557:10982   */\n    tag_125:\n        /* \"#utility.yul\":10635:10640   */\n      0x00\n        /* \"#utility.yul\":10660:10726   */\n      tag_258\n        /* \"#utility.yul\":10676:10725   */\n      tag_259\n        /* \"#utility.yul\":10718:10724   */\n      dup5\n        /* \"#utility.yul\":10676:10725   */\n      tag_123\n      jump\t// in\n    tag_259:\n        /* \"#utility.yul\":10660:10726   */\n      tag_122\n      jump\t// in\n    tag_258:\n        /* \"#utility.yul\":10651:10726   */\n      swap1\n      pop\n        /* \"#utility.yul\":10749:10755   */\n      dup3\n        /* \"#utility.yul\":10742:10747   */\n      dup2\n        /* \"#utility.yul\":10735:10756   */\n      mstore\n        /* \"#utility.yul\":10787:10791   */\n      0x20\n        /* \"#utility.yul\":10780:10785   */\n      dup2\n        /* \"#utility.yul\":10776:10792   */\n      add\n        /* \"#utility.yul\":10825:10828   */\n      dup5\n        /* \"#utility.yul\":10816:10822   */\n      dup5\n        /* \"#utility.yul\":10811:10814   */\n      dup5\n        /* \"#utility.yul\":10807:10823   */\n      add\n        /* \"#utility.yul\":10804:10829   */\n      gt\n        /* \"#utility.yul\":10801:10913   */\n      iszero\n      tag_260\n      jumpi\n        /* \"#utility.yul\":10832:10911   */\n      tag_261\n      tag_119\n      jump\t// in\n    tag_261:\n        /* \"#utility.yul\":10801:10913   */\n    tag_260:\n        /* \"#utility.yul\":10922:10976   */\n      tag_262\n        /* \"#utility.yul\":10969:10975   */\n      dup5\n        /* \"#utility.yul\":10964:10967   */\n      dup3\n        /* \"#utility.yul\":10959:10962   */\n      dup6\n        /* \"#utility.yul\":10922:10976   */\n      tag_124\n      jump\t// in\n    tag_262:\n        /* \"#utility.yul\":10641:10982   */\n      pop\n        /* \"#utility.yul\":10557:10982   */\n      swap4\n      swap3\n      pop\n      pop\n      pop\n      jump\t// out\n        /* \"#utility.yul\":11002:11342   */\n    tag_126:\n        /* \"#utility.yul\":11058:11063   */\n      0x00\n        /* \"#utility.yul\":11107:11110   */\n      dup3\n        /* \"#utility.yul\":11100:11104   */\n      0x1f\n        /* \"#utility.yul\":11092:11098   */\n      dup4\n        /* \"#utility.yul\":11088:11105   */\n      add\n        /* \"#utility.yul\":11084:11111   */\n      slt\n        /* \"#utility.yul\":11074:11196   */\n      tag_264\n      jumpi\n        /* \"#utility.yul\":11115:11194   */\n      tag_265\n      tag_118\n      jump\t// in\n    tag_265:\n        /* \"#utility.yul\":11074:11196   */\n    tag_264:\n        /* \"#utility.yul\":11232:11238   */\n      dup2\n        /* \"#utility.yul\":11219:11239   */\n      calldataload\n        /* \"#utility.yul\":11257:11336   */\n      tag_266\n        /* \"#utility.yul\":11332:11335   */\n      dup5\n        /* \"#utility.yul\":11324:11330   */\n      dup3\n        /* \"#utility.yul\":11317:11321   */\n      0x20\n        /* \"#utility.yul\":11309:11315   */\n      dup7\n        /* \"#utility.yul\":11305:11322   */\n      add\n        /* \"#utility.yul\":11257:11336   */\n      tag_125\n      jump\t// in\n    tag_266:\n        /* \"#utility.yul\":11248:11336   */\n      swap2\n      pop\n        /* \"#utility.yul\":11064:11342   */\n      pop\n        /* \"#utility.yul\":11002:11342   */\n      swap3\n      swap2\n      pop\n      pop\n      jump\t// out\n        /* \"#utility.yul\":11348:11857   */\n    tag_33:\n        /* \"#utility.yul\":11417:11423   */\n      0x00\n        /* \"#utility.yul\":11466:11468   */\n      0x20\n        /* \"#utility.yul\":11454:11463   */\n      dup3\n        /* \"#utility.yul\":11445:11452   */\n      dup5\n        /* \"#utility.yul\":11441:11464   */\n      sub\n        /* \"#utility.yul\":11437:11469   */\n      slt\n        /* \"#utility.yul\":11434:11553   */\n      iszero\n      tag_268\n      jumpi\n        /* \"#utility.yul\":11472:11551   */\n      tag_269\n      tag_87\n      jump\t// in\n    tag_269:\n        /* \"#utility.yul\":11434:11553   */\n    tag_268:\n        /* \"#utility.yul\":11620:11621   */\n      0x00\n        /* \"#utility.yul\":11609:11618   */\n      dup3\n        /* \"#utility.yul\":11605:11622   */\n      add\n        /* \"#utility.yul\":11592:11623   */\n      calldataload\n        /* \"#utility.yul\":11650:11668   */\n      0xffffffffffffffff\n        /* \"#utility.yul\":11642:11648   */\n      dup2\n        /* \"#utility.yul\":11639:11669   */\n      gt\n        /* \"#utility.yul\":11636:11753   */\n      iszero\n      tag_270\n      jumpi\n        /* \"#utility.yul\":11672:11751   */\n      tag_271\n      tag_88\n      jump\t// in\n    tag_271:\n        /* \"#utility.yul\":11636:11753   */\n    tag_270:\n        /* \"#utility.yul\":11777:11840   */\n      tag_272\n        /* \"#utility.yul\":11832:11839   */\n      dup5\n        /* \"#utility.yul\":11823:11829   */\n      dup3\n        /* \"#utility.yul\":11812:11821   */\n      dup6\n        /* \"#utility.yul\":11808:11830   */\n      add\n        /* \"#utility.yul\":11777:11840   */\n      tag_126\n      jump\t// in\n    tag_272:\n        /* \"#utility.yul\":11767:11840   */\n      swap2\n      pop\n        /* \"#utility.yul\":11563:11850   */\n      pop\n        /* \"#utility.yul\":11348:11857   */\n      swap3\n      swap2\n      pop\n      pop\n      jump\t// out\n        /* \"#utility.yul\":11863:12085   */\n    tag_38:\n        /* \"#utility.yul\":11956:11960   */\n      0x00\n        /* \"#utility.yul\":11994:11996   */\n      0x20\n        /* \"#utility.yul\":11983:11992   */\n      dup3\n        /* \"#utility.yul\":11979:11997   */\n      add\n        /* \"#utility.yul\":11971:11997   */\n      swap1\n      pop\n        /* \"#utility.yul\":12007:12078   */\n      tag_274\n        /* \"#utility.yul\":12075:12076   */\n      0x00\n        /* \"#utility.yul\":12064:12073   */\n      dup4\n        /* \"#utility.yul\":12060:12077   */\n      add\n        /* \"#utility.yul\":12051:12057   */\n      dup5\n        /* \"#utility.yul\":12007:12078   */\n      tag_96\n      jump\t// in\n    tag_274:\n        /* \"#utility.yul\":11863:12085   */\n      swap3\n      swap2\n      pop\n      pop\n      jump\t// out\n        /* \"#utility.yul\":12091:12420   */\n    tag_41:\n        /* \"#utility.yul\":12150:12156   */\n      0x00\n        /* \"#utility.yul\":12199:12201   */\n      0x20\n        /* \"#utility.yul\":12187:12196   */\n      dup3\n        /* \"#utility.yul\":12178:12185   */\n      dup5\n        /* \"#utility.yul\":12174:12197   */\n      sub\n        /* \"#utility.yul\":12170:12202   */\n      slt\n        /* \"#utility.yul\":12167:12286   */\n      iszero\n      tag_276\n      jumpi\n        /* \"#utility.yul\":12205:12284   */\n      tag_277\n      tag_87\n      jump\t// in\n    tag_277:\n        /* \"#utility.yul\":12167:12286   */\n    tag_276:\n        /* \"#utility.yul\":12325:12326   */\n      0x00\n        /* \"#utility.yul\":12350:12403   */\n      tag_278\n        /* \"#utility.yul\":12395:12402   */\n      dup5\n        /* \"#utility.yul\":12386:12392   */\n      dup3\n        /* \"#utility.yul\":12375:12384   */\n      dup6\n        /* \"#utility.yul\":12371:12393   */\n      add\n        /* \"#utility.yul\":12350:12403   */\n      tag_95\n      jump\t// in\n    tag_278:\n        /* \"#utility.yul\":12340:12403   */\n      swap2\n      pop\n        /* \"#utility.yul\":12296:12413   */\n      pop\n        /* \"#utility.yul\":12091:12420   */\n      swap3\n      swap2\n      pop\n      pop\n      jump\t// out\n        /* \"#utility.yul\":12478:13435   */\n    tag_127:\n        /* \"#utility.yul\":12589:12592   */\n      0x00\n        /* \"#utility.yul\":12625:12629   */\n      0x80\n        /* \"#utility.yul\":12620:12623   */\n      dup4\n        /* \"#utility.yul\":12616:12630   */\n      add\n        /* \"#utility.yul\":12714:12718   */\n      0x00\n        /* \"#utility.yul\":12707:12712   */\n      dup4\n        /* \"#utility.yul\":12703:12719   */\n      add\n        /* \"#utility.yul\":12697:12720   */\n      mload\n        /* \"#utility.yul\":12733:12796   */\n      tag_280\n        /* \"#utility.yul\":12790:12794   */\n      0x00\n        /* \"#utility.yul\":12785:12788   */\n      dup7\n        /* \"#utility.yul\":12781:12795   */\n      add\n        /* \"#utility.yul\":12767:12779   */\n      dup3\n        /* \"#utility.yul\":12733:12796   */\n      tag_106\n      jump\t// in\n    tag_280:\n        /* \"#utility.yul\":12640:12806   */\n      pop\n        /* \"#utility.yul\":12891:12895   */\n      0x20\n        /* \"#utility.yul\":12884:12889   */\n      dup4\n        /* \"#utility.yul\":12880:12896   */\n      add\n        /* \"#utility.yul\":12874:12897   */\n      mload\n        /* \"#utility.yul\":12944:12947   */\n      dup5\n        /* \"#utility.yul\":12938:12942   */\n      dup3\n        /* \"#utility.yul\":12934:12948   */\n      sub\n        /* \"#utility.yul\":12927:12931   */\n      0x20\n        /* \"#utility.yul\":12922:12925   */\n      dup7\n        /* \"#utility.yul\":12918:12932   */\n      add\n        /* \"#utility.yul\":12911:12949   */\n      mstore\n        /* \"#utility.yul\":12970:13043   */\n      tag_281\n        /* \"#utility.yul\":13038:13042   */\n      dup3\n        /* \"#utility.yul\":13024:13036   */\n      dup3\n        /* \"#utility.yul\":12970:13043   */\n      tag_108\n      jump\t// in\n    tag_281:\n        /* \"#utility.yul\":12962:13043   */\n      swap2\n      pop\n        /* \"#utility.yul\":12816:13054   */\n      pop\n        /* \"#utility.yul\":13141:13145   */\n      0x40\n        /* \"#utility.yul\":13134:13139   */\n      dup4\n        /* \"#utility.yul\":13130:13146   */\n      add\n        /* \"#utility.yul\":13124:13147   */\n      mload\n        /* \"#utility.yul\":13160:13223   */\n      tag_282\n        /* \"#utility.yul\":13217:13221   */\n      0x40\n        /* \"#utility.yul\":13212:13215   */\n      dup7\n        /* \"#utility.yul\":13208:13222   */\n      add\n        /* \"#utility.yul\":13194:13206   */\n      dup3\n        /* \"#utility.yul\":13160:13223   */\n      tag_109\n      jump\t// in\n    tag_282:\n        /* \"#utility.yul\":13064:13233   */\n      pop\n        /* \"#utility.yul\":13316:13320   */\n      0x60\n        /* \"#utility.yul\":13309:13314   */\n      dup4\n        /* \"#utility.yul\":13305:13321   */\n      add\n        /* \"#utility.yul\":13299:13322   */\n      mload\n        /* \"#utility.yul\":13335:13398   */\n      tag_283\n        /* \"#utility.yul\":13392:13396   */\n      0x60\n        /* \"#utility.yul\":13387:13390   */\n      dup7\n        /* \"#utility.yul\":13383:13397   */\n      add\n        /* \"#utility.yul\":13369:13381   */\n      dup3\n        /* \"#utility.yul\":13335:13398   */\n      tag_109\n      jump\t// in\n    tag_283:\n        /* \"#utility.yul\":13243:13408   */\n      pop\n        /* \"#utility.yul\":13425:13429   */\n      dup1\n        /* \"#utility.yul\":13418:13429   */\n      swap2\n      pop\n        /* \"#utility.yul\":12594:13435   */\n      pop\n        /* \"#utility.yul\":12478:13435   */\n      swap3\n      swap2\n      pop\n      pop\n      jump\t// out\n        /* \"#utility.yul\":13441:13798   */\n    tag_44:\n        /* \"#utility.yul\":13576:13580   */\n      0x00\n        /* \"#utility.yul\":13614:13616   */\n      0x20\n        /* \"#utility.yul\":13603:13612   */\n      dup3\n        /* \"#utility.yul\":13599:13617   */\n      add\n        /* \"#utility.yul\":13591:13617   */\n      swap1\n      pop\n        /* \"#utility.yul\":13663:13672   */\n      dup2\n        /* \"#utility.yul\":13657:13661   */\n      dup2\n        /* \"#utility.yul\":13653:13673   */\n      sub\n        /* \"#utility.yul\":13649:13650   */\n      0x00\n        /* \"#utility.yul\":13638:13647   */\n      dup4\n        /* \"#utility.yul\":13634:13651   */\n      add\n        /* \"#utility.yul\":13627:13674   */\n      mstore\n        /* \"#utility.yul\":13691:13791   */\n      tag_285\n        /* \"#utility.yul\":13786:13790   */\n      dup2\n        /* \"#utility.yul\":13777:13783   */\n      dup5\n        /* \"#utility.yul\":13691:13791   */\n      tag_127\n      jump\t// in\n    tag_285:\n        /* \"#utility.yul\":13683:13791   */\n      swap1\n      pop\n        /* \"#utility.yul\":13441:13798   */\n      swap3\n      swap2\n      pop\n      pop\n      jump\t// out\n        /* \"#utility.yul\":13804:13984   */\n    tag_128:\n        /* \"#utility.yul\":13852:13929   */\n      0x4e487b7100000000000000000000000000000000000000000000000000000000\n        /* \"#utility.yul\":13849:13850   */\n      0x00\n        /* \"#utility.yul\":13842:13930   */\n      mstore\n        /* \"#utility.yul\":13949:13953   */\n      0x22\n        /* \"#utility.yul\":13946:13947   */\n      0x04\n        /* \"#utility.yul\":13939:13954   */\n      mstore\n        /* \"#utility.yul\":13973:13977   */\n      0x24\n        /* \"#utility.yul\":13970:13971   */\n      0x00\n        /* \"#utility.yul\":13963:13978   */\n      revert\n        /* \"#utility.yul\":13990:14310   */\n    tag_48:\n        /* \"#utility.yul\":14034:14040   */\n      0x00\n        /* \"#utility.yul\":14071:14072   */\n      0x02\n        /* \"#utility.yul\":14065:14069   */\n      dup3\n        /* \"#utility.yul\":14061:14073   */\n      div\n        /* \"#utility.yul\":14051:14073   */\n      swap1\n      pop\n        /* \"#utility.yul\":14118:14119   */\n      0x01\n        /* \"#utility.yul\":14112:14116   */\n      dup3\n        /* \"#utility.yul\":14108:14120   */\n      and\n        /* \"#utility.yul\":14139:14157   */\n      dup1\n        /* \"#utility.yul\":14129:14210   */\n      tag_288\n      jumpi\n        /* \"#utility.yul\":14195:14199   */\n      0x7f\n        /* \"#utility.yul\":14187:14193   */\n      dup3\n        /* \"#utility.yul\":14183:14200   */\n      and\n        /* \"#utility.yul\":14173:14200   */\n      swap2\n      pop\n        /* \"#utility.yul\":14129:14210   */\n    tag_288:\n        /* \"#utility.yul\":14257:14259   */\n      0x20\n        /* \"#utility.yul\":14249:14255   */\n      dup3\n        /* \"#utility.yul\":14246:14260   */\n      lt\n        /* \"#utility.yul\":14226:14244   */\n      dup2\n        /* \"#utility.yul\":14223:14261   */\n      sub\n        /* \"#utility.yul\":14220:14304   */\n      tag_289\n      jumpi\n        /* \"#utility.yul\":14276:14294   */\n      tag_290\n      tag_128\n      jump\t// in\n    tag_290:\n        /* \"#utility.yul\":14220:14304   */\n    tag_289:\n        /* \"#utility.yul\":14041:14310   */\n      pop\n        /* \"#utility.yul\":13990:14310   */\n      swap2\n      swap1\n      pop\n      jump\t// out\n        /* \"#utility.yul\":14316:14487   */\n    tag_129:\n        /* \"#utility.yul\":14456:14479   */\n      0x594f5520415245204e4f5420544845204f574e45520000000000000000000000\n        /* \"#utility.yul\":14452:14453   */\n      0x00\n        /* \"#utility.yul\":14444:14450   */\n      dup3\n        /* \"#utility.yul\":14440:14454   */\n      add\n        /* \"#utility.yul\":14433:14480   */\n      mstore\n        /* \"#utility.yul\":14316:14487   */\n      pop\n      jump\t// out\n        /* \"#utility.yul\":14493:14859   */\n    tag_130:\n        /* \"#utility.yul\":14635:14638   */\n      0x00\n        /* \"#utility.yul\":14656:14723   */\n      tag_293\n        /* \"#utility.yul\":14720:14722   */\n      0x15\n        /* \"#utility.yul\":14715:14718   */\n      dup4\n        /* \"#utility.yul\":14656:14723   */\n      tag_98\n      jump\t// in\n    tag_293:\n        /* \"#utility.yul\":14649:14723   */\n      swap2\n      pop\n        /* \"#utility.yul\":14732:14825   */\n      tag_294\n        /* \"#utility.yul\":14821:14824   */\n      dup3\n        /* \"#utility.yul\":14732:14825   */\n      tag_129\n      jump\t// in\n    tag_294:\n        /* \"#utility.yul\":14850:14852   */\n      0x20\n        /* \"#utility.yul\":14845:14848   */\n      dup3\n        /* \"#utility.yul\":14841:14853   */\n      add\n        /* \"#utility.yul\":14834:14853   */\n      swap1\n      pop\n        /* \"#utility.yul\":14493:14859   */\n      swap2\n      swap1\n      pop\n      jump\t// out\n        /* \"#utility.yul\":14865:15284   */\n    tag_65:\n        /* \"#utility.yul\":15031:15035   */\n      0x00\n        /* \"#utility.yul\":15069:15071   */\n      0x20\n        /* \"#utility.yul\":15058:15067   */\n      dup3\n        /* \"#utility.yul\":15054:15072   */\n      add\n        /* \"#utility.yul\":15046:15072   */\n      swap1\n      pop\n        /* \"#utility.yul\":15118:15127   */\n      dup2\n        /* \"#utility.yul\":15112:15116   */\n      dup2\n        /* \"#utility.yul\":15108:15128   */\n      sub\n        /* \"#utility.yul\":15104:15105   */\n      0x00\n        /* \"#utility.yul\":15093:15102   */\n      dup4\n        /* \"#utility.yul\":15089:15106   */\n      add\n        /* \"#utility.yul\":15082:15129   */\n      mstore\n        /* \"#utility.yul\":15146:15277   */\n      tag_296\n        /* \"#utility.yul\":15272:15276   */\n      dup2\n        /* \"#utility.yul\":15146:15277   */\n      tag_130\n      jump\t// in\n    tag_296:\n        /* \"#utility.yul\":15138:15277   */\n      swap1\n      pop\n        /* \"#utility.yul\":14865:15284   */\n      swap2\n      swap1\n      pop\n      jump\t// out\n        /* \"#utility.yul\":15290:15463   */\n    tag_131:\n        /* \"#utility.yul\":15430:15455   */\n      0x547765657420697320746f6f206c6f6e672062726f2121000000000000000000\n        /* \"#utility.yul\":15426:15427   */\n      0x00\n        /* \"#utility.yul\":15418:15424   */\n      dup3\n        /* \"#utility.yul\":15414:15428   */\n      add\n        /* \"#utility.yul\":15407:15456   */\n      mstore\n        /* \"#utility.yul\":15290:15463   */\n      pop\n      jump\t// out\n        /* \"#utility.yul\":15469:15835   */\n    tag_132:\n        /* \"#utility.yul\":15611:15614   */\n      0x00\n        /* \"#utility.yul\":15632:15699   */\n      tag_299\n        /* \"#utility.yul\":15696:15698   */\n      0x17\n        /* \"#utility.yul\":15691:15694   */\n      dup4\n        /* \"#utility.yul\":15632:15699   */\n      tag_98\n      jump\t// in\n    tag_299:\n        /* \"#utility.yul\":15625:15699   */\n      swap2\n      pop\n        /* \"#utility.yul\":15708:15801   */\n      tag_300\n        /* \"#utility.yul\":15797:15800   */\n      dup3\n        /* \"#utility.yul\":15708:15801   */\n      tag_131\n      jump\t// in\n    tag_300:\n        /* \"#utility.yul\":15826:15828   */\n      0x20\n        /* \"#utility.yul\":15821:15824   */\n      dup3\n        /* \"#utility.yul\":15817:15829   */\n      add\n        /* \"#utility.yul\":15810:15829   */\n      swap1\n      pop\n        /* \"#utility.yul\":15469:15835   */\n      swap2\n      swap1\n      pop\n      jump\t// out\n        /* \"#utility.yul\":15841:16260   */\n    tag_70:\n        /* \"#utility.yul\":16007:16011   */\n      0x00\n        /* \"#utility.yul\":16045:16047   */\n      0x20\n        /* \"#utility.yul\":16034:16043   */\n      dup3\n        /* \"#utility.yul\":16030:16048   */\n      add\n        /* \"#utility.yul\":16022:16048   */\n      swap1\n      pop\n        /* \"#utility.yul\":16094:16103   */\n      dup2\n        /* \"#utility.yul\":16088:16092   */\n      dup2\n        /* \"#utility.yul\":16084:16104   */\n      sub\n        /* \"#utility.yul\":16080:16081   */\n      0x00\n        /* \"#utility.yul\":16069:16078   */\n      dup4\n        /* \"#utility.yul\":16065:16082   */\n      add\n        /* \"#utility.yul\":16058:16105   */\n      mstore\n        /* \"#utility.yul\":16122:16253   */\n      tag_302\n        /* \"#utility.yul\":16248:16252   */\n      dup2\n        /* \"#utility.yul\":16122:16253   */\n      tag_132\n      jump\t// in\n    tag_302:\n        /* \"#utility.yul\":16114:16253   */\n      swap1\n      pop\n        /* \"#utility.yul\":15841:16260   */\n      swap2\n      swap1\n      pop\n      jump\t// out\n        /* \"#utility.yul\":16266:16407   */\n    tag_133:\n        /* \"#utility.yul\":16315:16319   */\n      0x00\n        /* \"#utility.yul\":16338:16341   */\n      dup2\n        /* \"#utility.yul\":16330:16341   */\n      swap1\n      pop\n        /* \"#utility.yul\":16361:16364   */\n      dup2\n        /* \"#utility.yul\":16358:16359   */\n      0x00\n        /* \"#utility.yul\":16351:16365   */\n      mstore\n        /* \"#utility.yul\":16395:16399   */\n      0x20\n        /* \"#utility.yul\":16392:16393   */\n      0x00\n        /* \"#utility.yul\":16382:16400   */\n      keccak256\n        /* \"#utility.yul\":16374:16400   */\n      swap1\n      pop\n        /* \"#utility.yul\":16266:16407   */\n      swap2\n      swap1\n      pop\n      jump\t// out\n        /* \"#utility.yul\":16413:16506   */\n    tag_134:\n        /* \"#utility.yul\":16450:16456   */\n      0x00\n        /* \"#utility.yul\":16497:16499   */\n      0x20\n        /* \"#utility.yul\":16492:16494   */\n      0x1f\n        /* \"#utility.yul\":16485:16490   */\n      dup4\n        /* \"#utility.yul\":16481:16495   */\n      add\n        /* \"#utility.yul\":16477:16500   */\n      div\n        /* \"#utility.yul\":16467:16500   */\n      swap1\n      pop\n        /* \"#utility.yul\":16413:16506   */\n      swap2\n      swap1\n      pop\n      jump\t// out\n        /* \"#utility.yul\":16512:16619   */\n    tag_135:\n        /* \"#utility.yul\":16556:16564   */\n      0x00\n        /* \"#utility.yul\":16606:16611   */\n      dup3\n        /* \"#utility.yul\":16600:16604   */\n      dup3\n        /* \"#utility.yul\":16596:16612   */\n      shl\n        /* \"#utility.yul\":16575:16612   */\n      swap1\n      pop\n        /* \"#utility.yul\":16512:16619   */\n      swap3\n      swap2\n      pop\n      pop\n      jump\t// out\n        /* \"#utility.yul\":16625:17018   */\n    tag_136:\n        /* \"#utility.yul\":16694:16700   */\n      0x00\n        /* \"#utility.yul\":16744:16745   */\n      0x08\n        /* \"#utility.yul\":16732:16742   */\n      dup4\n        /* \"#utility.yul\":16728:16746   */\n      mul\n        /* \"#utility.yul\":16767:16864   */\n      tag_307\n        /* \"#utility.yul\":16797:16863   */\n      0xffffffffffffffffffffffffffffffffffffffffffffffffffffffffffffffff\n        /* \"#utility.yul\":16786:16795   */\n      dup3\n        /* \"#utility.yul\":16767:16864   */\n      tag_135\n      jump\t// in\n    tag_307:\n        /* \"#utility.yul\":16885:16924   */\n      tag_308\n        /* \"#utility.yul\":16915:16923   */\n      dup7\n        /* \"#utility.yul\":16904:16913   */\n      dup4\n        /* \"#utility.yul\":16885:16924   */\n      tag_135\n      jump\t// in\n    tag_308:\n        /* \"#utility.yul\":16873:16924   */\n      swap6\n      pop\n        /* \"#utility.yul\":16957:16961   */\n      dup1\n        /* \"#utility.yul\":16953:16962   */\n      not\n        /* \"#utility.yul\":16946:16951   */\n      dup5\n        /* \"#utility.yul\":16942:16963   */\n      and\n        /* \"#utility.yul\":16933:16963   */\n      swap4\n      pop\n        /* \"#utility.yul\":17006:17010   */\n      dup1\n        /* \"#utility.yul\":16996:17004   */\n      dup7\n        /* \"#utility.yul\":16992:17011   */\n      and\n        /* \"#utility.yul\":16985:16990   */\n      dup5\n        /* \"#utility.yul\":16982:17012   */\n      or\n        /* \"#utility.yul\":16972:17012   */\n      swap3\n      pop\n        /* \"#utility.yul\":16701:17018   */\n      pop\n      pop\n        /* \"#utility.yul\":16625:17018   */\n      swap4\n      swap3\n      pop\n      pop\n      pop\n      jump\t// out\n        /* \"#utility.yul\":17024:17084   */\n    tag_137:\n        /* \"#utility.yul\":17052:17055   */\n      0x00\n        /* \"#utility.yul\":17073:17078   */\n      dup2\n        /* \"#utility.yul\":17066:17078   */\n      swap1\n      pop\n        /* \"#utility.yul\":17024:17084   */\n      swap2\n      swap1\n      pop\n      jump\t// out\n        /* \"#utility.yul\":17090:17232   */\n    tag_138:\n        /* \"#utility.yul\":17140:17149   */\n      0x00\n        /* \"#utility.yul\":17173:17226   */\n      tag_311\n        /* \"#utility.yul\":17191:17225   */\n      tag_312\n        /* \"#utility.yul\":17200:17224   */\n      tag_313\n        /* \"#utility.yul\":17218:17223   */\n      dup5\n        /* \"#utility.yul\":17200:17224   */\n      tag_93\n      jump\t// in\n    tag_313:\n        /* \"#utility.yul\":17191:17225   */\n      tag_137\n      jump\t// in\n    tag_312:\n        /* \"#utility.yul\":17173:17226   */\n      tag_93\n      jump\t// in\n    tag_311:\n        /* \"#utility.yul\":17160:17226   */\n      swap1\n      pop\n        /* \"#utility.yul\":17090:17232   */\n      swap2\n      swap1\n      pop\n      jump\t// out\n        /* \"#utility.yul\":17238:17313   */\n    tag_139:\n        /* \"#utility.yul\":17281:17284   */\n      0x00\n        /* \"#utility.yul\":17302:17307   */\n      dup2\n        /* \"#utility.yul\":17295:17307   */\n      swap1\n      pop\n        /* \"#utility.yul\":17238:17313   */\n      swap2\n      swap1\n      pop\n      jump\t// out\n        /* \"#utility.yul\":17319:17588   */\n    tag_140:\n        /* \"#utility.yul\":17429:17468   */\n      tag_316\n        /* \"#utility.yul\":17460:17467   */\n      dup4\n        /* \"#utility.yul\":17429:17468   */\n      tag_138\n      jump\t// in\n    tag_316:\n        /* \"#utility.yul\":17490:17581   */\n      tag_317\n        /* \"#utility.yul\":17539:17580   */\n      tag_318\n        /* \"#utility.yul\":17563:17579   */\n      dup3\n        /* \"#utility.yul\":17539:17580   */\n      tag_139\n      jump\t// in\n    tag_318:\n        /* \"#utility.yul\":17531:17537   */\n      dup5\n        /* \"#utility.yul\":17524:17528   */\n      dup5\n        /* \"#utility.yul\":17518:17529   */\n      sload\n        /* \"#utility.yul\":17490:17581   */\n      tag_136\n      jump\t// in\n    tag_317:\n        /* \"#utility.yul\":17484:17488   */\n      dup3\n        /* \"#utility.yul\":17477:17582   */\n      sstore\n        /* \"#utility.yul\":17395:17588   */\n      pop\n        /* \"#utility.yul\":17319:17588   */\n      pop\n      pop\n      pop\n      jump\t// out\n        /* \"#utility.yul\":17594:17667   */\n    tag_141:\n        /* \"#utility.yul\":17639:17642   */\n      0x00\n        /* \"#utility.yul\":17594:17667   */\n      swap1\n      jump\t// out\n        /* \"#utility.yul\":17673:17862   */\n    tag_142:\n        /* \"#utility.yul\":17750:17782   */\n      tag_321\n      tag_141\n      jump\t// in\n    tag_321:\n        /* \"#utility.yul\":17791:17856   */\n      tag_322\n        /* \"#utility.yul\":17849:17855   */\n      dup2\n        /* \"#utility.yul\":17841:17847   */\n      dup5\n        /* \"#utility.yul\":17835:17839   */\n      dup5\n        /* \"#utility.yul\":17791:17856   */\n      tag_140\n      jump\t// in\n    tag_322:\n        /* \"#utility.yul\":17726:17862   */\n      pop\n        /* \"#utility.yul\":17673:17862   */\n      pop\n      pop\n      jump\t// out\n        /* \"#utility.yul\":17868:18054   */\n    tag_143:\n        /* \"#utility.yul\":17928:18048   */\n    tag_324:\n        /* \"#utility.yul\":17945:17948   */\n      dup2\n        /* \"#utility.yul\":17938:17943   */\n      dup2\n        /* \"#utility.yul\":17935:17949   */\n      lt\n        /* \"#utility.yul\":17928:18048   */\n      iszero\n      tag_326\n      jumpi\n        /* \"#utility.yul\":17999:18038   */\n      tag_327\n        /* \"#utility.yul\":18036:18037   */\n      0x00\n        /* \"#utility.yul\":18029:18034   */\n      dup3\n        /* \"#utility.yul\":17999:18038   */\n      tag_142\n      jump\t// in\n    tag_327:\n        /* \"#utility.yul\":17972:17973   */\n      0x01\n        /* \"#utility.yul\":17965:17970   */\n      dup2\n        /* \"#utility.yul\":17961:17974   */\n      add\n        /* \"#utility.yul\":17952:17974   */\n      swap1\n      pop\n        /* \"#utility.yul\":17928:18048   */\n      jump(tag_324)\n    tag_326:\n        /* \"#utility.yul\":17868:18054   */\n      pop\n      pop\n      jump\t// out\n        /* \"#utility.yul\":18060:18603   */\n    tag_144:\n        /* \"#utility.yul\":18161:18163   */\n      0x1f\n        /* \"#utility.yul\":18156:18159   */\n      dup3\n        /* \"#utility.yul\":18153:18164   */\n      gt\n        /* \"#utility.yul\":18150:18596   */\n      iszero\n      tag_329\n      jumpi\n        /* \"#utility.yul\":18195:18233   */\n      tag_330\n        /* \"#utility.yul\":18227:18232   */\n      dup2\n        /* \"#utility.yul\":18195:18233   */\n      tag_133\n      jump\t// in\n    tag_330:\n        /* \"#utility.yul\":18279:18308   */\n      tag_331\n        /* \"#utility.yul\":18297:18307   */\n      dup5\n        /* \"#utility.yul\":18279:18308   */\n      tag_134\n      jump\t// in\n    tag_331:\n        /* \"#utility.yul\":18269:18277   */\n      dup2\n        /* \"#utility.yul\":18265:18309   */\n      add\n        /* \"#utility.yul\":18462:18464   */\n      0x20\n        /* \"#utility.yul\":18450:18460   */\n      dup6\n        /* \"#utility.yul\":18447:18465   */\n      lt\n        /* \"#utility.yul\":18444:18493   */\n      iszero\n      tag_332\n      jumpi\n        /* \"#utility.yul\":18483:18491   */\n      dup2\n        /* \"#utility.yul\":18468:18491   */\n      swap1\n      pop\n        /* \"#utility.yul\":18444:18493   */\n    tag_332:\n        /* \"#utility.yul\":18506:18586   */\n      tag_333\n        /* \"#utility.yul\":18562:18584   */\n      tag_334\n        /* \"#utility.yul\":18580:18583   */\n      dup6\n        /* \"#utility.yul\":18562:18584   */\n      tag_134\n      jump\t// in\n    tag_334:\n        /* \"#utility.yul\":18552:18560   */\n      dup4\n        /* \"#utility.yul\":18548:18585   */\n      add\n        /* \"#utility.yul\":18535:18546   */\n      dup3\n        /* \"#utility.yul\":18506:18586   */\n      tag_143\n      jump\t// in\n    tag_333:\n        /* \"#utility.yul\":18165:18596   */\n      pop\n      pop\n        /* \"#utility.yul\":18150:18596   */\n    tag_329:\n        /* \"#utility.yul\":18060:18603   */\n      pop\n      pop\n      pop\n      jump\t// out\n        /* \"#utility.yul\":18609:18726   */\n    tag_145:\n        /* \"#utility.yul\":18663:18671   */\n      0x00\n        /* \"#utility.yul\":18713:18718   */\n      dup3\n        /* \"#utility.yul\":18707:18711   */\n      dup3\n        /* \"#utility.yul\":18703:18719   */\n      shr\n        /* \"#utility.yul\":18682:18719   */\n      swap1\n      pop\n        /* \"#utility.yul\":18609:18726   */\n      swap3\n      swap2\n      pop\n      pop\n      jump\t// out\n        /* \"#utility.yul\":18732:18901   */\n    tag_146:\n        /* \"#utility.yul\":18776:18782   */\n      0x00\n        /* \"#utility.yul\":18809:18860   */\n      tag_337\n        /* \"#utility.yul\":18857:18858   */\n      0x00\n        /* \"#utility.yul\":18853:18859   */\n      not\n        /* \"#utility.yul\":18845:18850   */\n      dup5\n        /* \"#utility.yul\":18842:18843   */\n      0x08\n        /* \"#utility.yul\":18838:18851   */\n      mul\n        /* \"#utility.yul\":18809:18860   */\n      tag_145\n      jump\t// in\n    tag_337:\n        /* \"#utility.yul\":18805:18861   */\n      not\n        /* \"#utility.yul\":18890:18894   */\n      dup1\n        /* \"#utility.yul\":18884:18888   */\n      dup4\n        /* \"#utility.yul\":18880:18895   */\n      and\n        /* \"#utility.yul\":18870:18895   */\n      swap2\n      pop\n        /* \"#utility.yul\":18783:18901   */\n      pop\n        /* \"#utility.yul\":18732:18901   */\n      swap3\n      swap2\n      pop\n      pop\n      jump\t// out\n        /* \"#utility.yul\":18906:19201   */\n    tag_147:\n        /* \"#utility.yul\":18982:18986   */\n      0x00\n        /* \"#utility.yul\":19128:19157   */\n      tag_339\n        /* \"#utility.yul\":19153:19156   */\n      dup4\n        /* \"#utility.yul\":19147:19151   */\n      dup4\n        /* \"#utility.yul\":19128:19157   */\n      tag_146\n      jump\t// in\n    tag_339:\n        /* \"#utility.yul\":19120:19157   */\n      swap2\n      pop\n        /* \"#utility.yul\":19190:19193   */\n      dup3\n        /* \"#utility.yul\":19187:19188   */\n      0x02\n        /* \"#utility.yul\":19183:19194   */\n      mul\n        /* \"#utility.yul\":19177:19181   */\n      dup3\n        /* \"#utility.yul\":19174:19195   */\n      or\n        /* \"#utility.yul\":19166:19195   */\n      swap1\n      pop\n        /* \"#utility.yul\":18906:19201   */\n      swap3\n      swap2\n      pop\n      pop\n      jump\t// out\n        /* \"#utility.yul\":19206:20601   */\n    tag_73:\n        /* \"#utility.yul\":19323:19360   */\n      tag_341\n        /* \"#utility.yul\":19356:19359   */\n      dup3\n        /* \"#utility.yul\":19323:19360   */\n      tag_97\n      jump\t// in\n    tag_341:\n        /* \"#utility.yul\":19425:19443   */\n      0xffffffffffffffff\n        /* \"#utility.yul\":19417:19423   */\n      dup2\n        /* \"#utility.yul\":19414:19444   */\n      gt\n        /* \"#utility.yul\":19411:19467   */\n      iszero\n      tag_342\n      jumpi\n        /* \"#utility.yul\":19447:19465   */\n      tag_343\n      tag_120\n      jump\t// in\n    tag_343:\n        /* \"#utility.yul\":19411:19467   */\n    tag_342:\n        /* \"#utility.yul\":19491:19529   */\n      tag_344\n        /* \"#utility.yul\":19523:19527   */\n      dup3\n        /* \"#utility.yul\":19517:19528   */\n      sload\n        /* \"#utility.yul\":19491:19529   */\n      tag_48\n      jump\t// in\n    tag_344:\n        /* \"#utility.yul\":19576:19643   */\n      tag_345\n        /* \"#utility.yul\":19636:19642   */\n      dup3\n        /* \"#utility.yul\":19628:19634   */\n      dup3\n        /* \"#utility.yul\":19622:19626   */\n      dup6\n        /* \"#utility.yul\":19576:19643   */\n      tag_144\n      jump\t// in\n    tag_345:\n        /* \"#utility.yul\":19670:19671   */\n      0x00\n        /* \"#utility.yul\":19694:19698   */\n      0x20\n        /* \"#utility.yul\":19681:19698   */\n      swap1\n      pop\n        /* \"#utility.yul\":19726:19728   */\n      0x1f\n        /* \"#utility.yul\":19718:19724   */\n      dup4\n        /* \"#utility.yul\":19715:19729   */\n      gt\n        /* \"#utility.yul\":19743:19744   */\n      0x01\n        /* \"#utility.yul\":19738:20356   */\n      dup2\n      eq\n      tag_347\n      jumpi\n        /* \"#utility.yul\":20400:20401   */\n      0x00\n        /* \"#utility.yul\":20417:20423   */\n      dup5\n        /* \"#utility.yul\":20414:20491   */\n      iszero\n      tag_348\n      jumpi\n        /* \"#utility.yul\":20466:20475   */\n      dup3\n        /* \"#utility.yul\":20461:20464   */\n      dup8\n        /* \"#utility.yul\":20457:20476   */\n      add\n        /* \"#utility.yul\":20451:20477   */\n      mload\n        /* \"#utility.yul\":20442:20477   */\n      swap1\n      pop\n        /* \"#utility.yul\":20414:20491   */\n    tag_348:\n        /* \"#utility.yul\":20517:20584   */\n      tag_349\n        /* \"#utility.yul\":20577:20583   */\n      dup6\n        /* \"#utility.yul\":20570:20575   */\n      dup3\n        /* \"#utility.yul\":20517:20584   */\n      tag_147\n      jump\t// in\n    tag_349:\n        /* \"#utility.yul\":20511:20515   */\n      dup7\n        /* \"#utility.yul\":20504:20585   */\n      sstore\n        /* \"#utility.yul\":20373:20595   */\n      pop\n        /* \"#utility.yul\":19708:20595   */\n      jump(tag_346)\n        /* \"#utility.yul\":19738:20356   */\n    tag_347:\n        /* \"#utility.yul\":19790:19794   */\n      0x1f\n        /* \"#utility.yul\":19786:19795   */\n      not\n        /* \"#utility.yul\":19778:19784   */\n      dup5\n        /* \"#utility.yul\":19774:19796   */\n      and\n        /* \"#utility.yul\":19824:19861   */\n      tag_350\n        /* \"#utility.yul\":19856:19860   */\n      dup7\n        /* \"#utility.yul\":19824:19861   */\n      tag_133\n      jump\t// in\n    tag_350:\n        /* \"#utility.yul\":19883:19884   */\n      0x00\n        /* \"#utility.yul\":19897:20105   */\n    tag_351:\n        /* \"#utility.yul\":19911:19918   */\n      dup3\n        /* \"#utility.yul\":19908:19909   */\n      dup2\n        /* \"#utility.yul\":19905:19919   */\n      lt\n        /* \"#utility.yul\":19897:20105   */\n      iszero\n      tag_353\n      jumpi\n        /* \"#utility.yul\":19990:19999   */\n      dup5\n        /* \"#utility.yul\":19985:19988   */\n      dup10\n        /* \"#utility.yul\":19981:20000   */\n      add\n        /* \"#utility.yul\":19975:20001   */\n      mload\n        /* \"#utility.yul\":19967:19973   */\n      dup3\n        /* \"#utility.yul\":19960:20002   */\n      sstore\n        /* \"#utility.yul\":20041:20042   */\n      0x01\n        /* \"#utility.yul\":20033:20039   */\n      dup3\n        /* \"#utility.yul\":20029:20043   */\n      add\n        /* \"#utility.yul\":20019:20043   */\n      swap2\n      pop\n        /* \"#utility.yul\":20088:20090   */\n      0x20\n        /* \"#utility.yul\":20077:20086   */\n      dup6\n        /* \"#utility.yul\":20073:20091   */\n      add\n        /* \"#utility.yul\":20060:20091   */\n      swap5\n      pop\n        /* \"#utility.yul\":19934:19938   */\n      0x20\n        /* \"#utility.yul\":19931:19932   */\n      dup2\n        /* \"#utility.yul\":19927:19939   */\n      add\n        /* \"#utility.yul\":19922:19939   */\n      swap1\n      pop\n        /* \"#utility.yul\":19897:20105   */\n      jump(tag_351)\n    tag_353:\n        /* \"#utility.yul\":20133:20139   */\n      dup7\n        /* \"#utility.yul\":20124:20131   */\n      dup4\n        /* \"#utility.yul\":20121:20140   */\n      lt\n        /* \"#utility.yul\":20118:20297   */\n      iszero\n      tag_354\n      jumpi\n        /* \"#utility.yul\":20191:20200   */\n      dup5\n        /* \"#utility.yul\":20186:20189   */\n      dup10\n        /* \"#utility.yul\":20182:20201   */\n      add\n        /* \"#utility.yul\":20176:20202   */\n      mload\n        /* \"#utility.yul\":20234:20282   */\n      tag_355\n        /* \"#utility.yul\":20276:20280   */\n      0x1f\n        /* \"#utility.yul\":20268:20274   */\n      dup10\n        /* \"#utility.yul\":20264:20281   */\n      and\n        /* \"#utility.yul\":20253:20262   */\n      dup3\n        /* \"#utility.yul\":20234:20282   */\n      tag_146\n      jump\t// in\n    tag_355:\n        /* \"#utility.yul\":20226:20232   */\n      dup4\n        /* \"#utility.yul\":20219:20283   */\n      sstore\n        /* \"#utility.yul\":20141:20297   */\n      pop\n        /* \"#utility.yul\":20118:20297   */\n    tag_354:\n        /* \"#utility.yul\":20343:20344   */\n      0x01\n        /* \"#utility.yul\":20339:20340   */\n      0x02\n        /* \"#utility.yul\":20331:20337   */\n      dup9\n        /* \"#utility.yul\":20327:20341   */\n      mul\n        /* \"#utility.yul\":20323:20345   */\n      add\n        /* \"#utility.yul\":20317:20321   */\n      dup9\n        /* \"#utility.yul\":20310:20346   */\n      sstore\n        /* \"#utility.yul\":19745:20356   */\n      pop\n      pop\n      pop\n        /* \"#utility.yul\":19708:20595   */\n    tag_346:\n      pop\n        /* \"#utility.yul\":19298:20601   */\n      pop\n      pop\n      pop\n        /* \"#utility.yul\":19206:20601   */\n      pop\n      pop\n      jump\t// out\n        /* \"#utility.yul\":20607:20787   */\n    tag_79:\n        /* \"#utility.yul\":20655:20732   */\n      0x4e487b7100000000000000000000000000000000000000000000000000000000\n        /* \"#utility.yul\":20652:20653   */\n      0x00\n        /* \"#utility.yul\":20645:20733   */\n      mstore\n        /* \"#utility.yul\":20752:20756   */\n      0x32\n        /* \"#utility.yul\":20749:20750   */\n      0x04\n        /* \"#utility.yul\":20742:20757   */\n      mstore\n        /* \"#utility.yul\":20776:20780   */\n      0x24\n        /* \"#utility.yul\":20773:20774   */\n      0x00\n        /* \"#utility.yul\":20766:20781   */\n      revert\n\n    auxdata: 0xa2646970667358221220ad237a6ecaa8018a212ba1a6dcbb3b3337c6514a56a6ef0f00bcf869afb2896964736f6c63430008160033\n}\n",
				"bytecode": {
					"linkReferences": {},
					"object": "60806040526101185f806101000a81548161ffff021916908361ffff16021790555034801561002c575f80fd5b503360025f6101000a81548173ffffffffffffffffffffffffffffffffffffffff021916908373ffffffffffffffffffffffffffffffffffffffff16021790555061124b8061007a5f395ff3fe608060405234801561000f575f80fd5b506004361061007b575f3560e01c80636eb10797116100595780636eb10797146100fe5780637c9cd2bc1461011c5780638da5cb5b14610138578063c3ad5ecb146101565761007b565b806305a1b4a91461007f57806312e7ee1c146100b257806358bfa4ab146100e2575b5f80fd5b61009960048036038101906100949190610892565b610186565b6040516100a99493929190610978565b60405180910390f35b6100cc60048036038101906100c791906109c2565b610271565b6040516100d99190610b6e565b60405180910390f35b6100fc60048036038101906100f79190610bc5565b610402565b005b6101066104af565b6040516101139190610bff565b60405180910390f35b61013660048036038101906101319190610d44565b6104c0565b005b610140610627565b60405161014d9190610d8b565b60405180910390f35b610170600480360381019061016b9190610da4565b61064c565b60405161017d9190610e2f565b60405180910390f35b6001602052815f5260405f20818154811061019f575f80fd5b905f5260205f2090600402015f9150915050805f015f9054906101000a900473ffffffffffffffffffffffffffffffffffffffff16908060010180546101e490610e7c565b80601f016020809104026020016040519081016040528092919081815260200182805461021090610e7c565b801561025b5780601f106102325761010080835404028352916020019161025b565b820191905f5260205f20905b81548152906001019060200180831161023e57829003601f168201915b5050505050908060020154908060030154905084565b606060015f8373ffffffffffffffffffffffffffffffffffffffff1673ffffffffffffffffffffffffffffffffffffffff1681526020019081526020015f20805480602002602001604051908101604052809291908181526020015f905b828210156103f7578382905f5260205f2090600402016040518060800160405290815f82015f9054906101000a900473ffffffffffffffffffffffffffffffffffffffff1673ffffffffffffffffffffffffffffffffffffffff1673ffffffffffffffffffffffffffffffffffffffff16815260200160018201805461035490610e7c565b80601f016020809104026020016040519081016040528092919081815260200182805461038090610e7c565b80156103cb5780601f106103a2576101008083540402835291602001916103cb565b820191905f5260205f20905b8154815290600101906020018083116103ae57829003601f168201915b5050505050815260200160028201548152602001600382015481525050815260200190600101906102cf565b505050509050919050565b60025f9054906101000a900473ffffffffffffffffffffffffffffffffffffffff1673ffffffffffffffffffffffffffffffffffffffff163373ffffffffffffffffffffffffffffffffffffffff1614610491576040517f08c379a000000000000000000000000000000000000000000000000000000000815260040161048890610ef6565b60405180910390fd5b805f806101000a81548161ffff021916908361ffff16021790555050565b5f8054906101000a900461ffff1681565b5f8054906101000a900461ffff1661ffff1681511115610515576040517f08c379a000000000000000000000000000000000000000000000000000000000815260040161050c90610f5e565b60405180910390fd5b5f60405180608001604052803373ffffffffffffffffffffffffffffffffffffffff1681526020018381526020014281526020015f815250905060015f3373ffffffffffffffffffffffffffffffffffffffff1673ffffffffffffffffffffffffffffffffffffffff1681526020019081526020015f2081908060018154018082558091505060019003905f5260205f2090600402015f909190919091505f820151815f015f6101000a81548173ffffffffffffffffffffffffffffffffffffffff021916908373ffffffffffffffffffffffffffffffffffffffff160217905550602082015181600101908161060c9190611119565b50604082015181600201556060820151816003015550505050565b60025f9054906101000a900473ffffffffffffffffffffffffffffffffffffffff1681565b6106546107b9565b60015f3373ffffffffffffffffffffffffffffffffffffffff1673ffffffffffffffffffffffffffffffffffffffff1681526020019081526020015f2082815481106106a3576106a26111e8565b5b905f5260205f2090600402016040518060800160405290815f82015f9054906101000a900473ffffffffffffffffffffffffffffffffffffffff1673ffffffffffffffffffffffffffffffffffffffff1673ffffffffffffffffffffffffffffffffffffffff16815260200160018201805461071e90610e7c565b80601f016020809104026020016040519081016040528092919081815260200182805461074a90610e7c565b80156107955780601f1061076c57610100808354040283529160200191610795565b820191905f5260205f20905b81548152906001019060200180831161077857829003601f168201915b50505050508152602001600282015481526020016003820154815250509050919050565b60405180608001604052805f73ffffffffffffffffffffffffffffffffffffffff168152602001606081526020015f81526020015f81525090565b5f604051905090565b5f80fd5b5f80fd5b5f73ffffffffffffffffffffffffffffffffffffffff82169050919050565b5f61082e82610805565b9050919050565b61083e81610824565b8114610848575f80fd5b50565b5f8135905061085981610835565b92915050565b5f819050919050565b6108718161085f565b811461087b575f80fd5b50565b5f8135905061088c81610868565b92915050565b5f80604083850312156108a8576108a76107fd565b5b5f6108b58582860161084b565b92505060206108c68582860161087e565b9150509250929050565b6108d981610824565b82525050565b5f81519050919050565b5f82825260208201905092915050565b5f5b838110156109165780820151818401526020810190506108fb565b5f8484015250505050565b5f601f19601f8301169050919050565b5f61093b826108df565b61094581856108e9565b93506109558185602086016108f9565b61095e81610921565b840191505092915050565b6109728161085f565b82525050565b5f60808201905061098b5f8301876108d0565b818103602083015261099d8186610931565b90506109ac6040830185610969565b6109b96060830184610969565b95945050505050565b5f602082840312156109d7576109d66107fd565b5b5f6109e48482850161084b565b91505092915050565b5f81519050919050565b5f82825260208201905092915050565b5f819050602082019050919050565b610a1f81610824565b82525050565b5f82825260208201905092915050565b5f610a3f826108df565b610a498185610a25565b9350610a598185602086016108f9565b610a6281610921565b840191505092915050565b610a768161085f565b82525050565b5f608083015f830151610a915f860182610a16565b5060208301518482036020860152610aa98282610a35565b9150506040830151610abe6040860182610a6d565b506060830151610ad16060860182610a6d565b508091505092915050565b5f610ae78383610a7c565b905092915050565b5f602082019050919050565b5f610b05826109ed565b610b0f81856109f7565b935083602082028501610b2185610a07565b805f5b85811015610b5c5784840389528151610b3d8582610adc565b9450610b4883610aef565b925060208a01995050600181019050610b24565b50829750879550505050505092915050565b5f6020820190508181035f830152610b868184610afb565b905092915050565b5f61ffff82169050919050565b610ba481610b8e565b8114610bae575f80fd5b50565b5f81359050610bbf81610b9b565b92915050565b5f60208284031215610bda57610bd96107fd565b5b5f610be784828501610bb1565b91505092915050565b610bf981610b8e565b82525050565b5f602082019050610c125f830184610bf0565b92915050565b5f80fd5b5f80fd5b7f4e487b71000000000000000000000000000000000000000000000000000000005f52604160045260245ffd5b610c5682610921565b810181811067ffffffffffffffff82111715610c7557610c74610c20565b5b80604052505050565b5f610c876107f4565b9050610c938282610c4d565b919050565b5f67ffffffffffffffff821115610cb257610cb1610c20565b5b610cbb82610921565b9050602081019050919050565b828183375f83830152505050565b5f610ce8610ce384610c98565b610c7e565b905082815260208101848484011115610d0457610d03610c1c565b5b610d0f848285610cc8565b509392505050565b5f82601f830112610d2b57610d2a610c18565b5b8135610d3b848260208601610cd6565b91505092915050565b5f60208284031215610d5957610d586107fd565b5b5f82013567ffffffffffffffff811115610d7657610d75610801565b5b610d8284828501610d17565b91505092915050565b5f602082019050610d9e5f8301846108d0565b92915050565b5f60208284031215610db957610db86107fd565b5b5f610dc68482850161087e565b91505092915050565b5f608083015f830151610de45f860182610a16565b5060208301518482036020860152610dfc8282610a35565b9150506040830151610e116040860182610a6d565b506060830151610e246060860182610a6d565b508091505092915050565b5f6020820190508181035f830152610e478184610dcf565b905092915050565b7f4e487b71000000000000000000000000000000000000000000000000000000005f52602260045260245ffd5b5f6002820490506001821680610e9357607f821691505b602082108103610ea657610ea5610e4f565b5b50919050565b7f594f5520415245204e4f5420544845204f574e455200000000000000000000005f82015250565b5f610ee06015836108e9565b9150610eeb82610eac565b602082019050919050565b5f6020820190508181035f830152610f0d81610ed4565b9050919050565b7f547765657420697320746f6f206c6f6e672062726f21210000000000000000005f82015250565b5f610f486017836108e9565b9150610f5382610f14565b602082019050919050565b5f6020820190508181035f830152610f7581610f3c565b9050919050565b5f819050815f5260205f209050919050565b5f6020601f8301049050919050565b5f82821b905092915050565b5f60088302610fd87fffffffffffffffffffffffffffffffffffffffffffffffffffffffffffffffff82610f9d565b610fe28683610f9d565b95508019841693508086168417925050509392505050565b5f819050919050565b5f61101d6110186110138461085f565b610ffa565b61085f565b9050919050565b5f819050919050565b61103683611003565b61104a61104282611024565b848454610fa9565b825550505050565b5f90565b61105e611052565b61106981848461102d565b505050565b5b8181101561108c576110815f82611056565b60018101905061106f565b5050565b601f8211156110d1576110a281610f7c565b6110ab84610f8e565b810160208510156110ba578190505b6110ce6110c685610f8e565b83018261106e565b50505b505050565b5f82821c905092915050565b5f6110f15f19846008026110d6565b1980831691505092915050565b5f61110983836110e2565b9150826002028217905092915050565b611122826108df565b67ffffffffffffffff81111561113b5761113a610c20565b5b6111458254610e7c565b611150828285611090565b5f60209050601f831160018114611181575f841561116f578287015190505b61117985826110fe565b8655506111e0565b601f19841661118f86610f7c565b5f5b828110156111b657848901518255600182019150602085019450602081019050611191565b868310156111d357848901516111cf601f8916826110e2565b8355505b6001600288020188555050505b505050505050565b7f4e487b71000000000000000000000000000000000000000000000000000000005f52603260045260245ffdfea2646970667358221220ad237a6ecaa8018a212ba1a6dcbb3b3337c6514a56a6ef0f00bcf869afb2896964736f6c63430008160033",
					"opcodes": "PUSH1 0x80 PUSH1 0x40 MSTORE PUSH2 0x118 PUSH0 DUP1 PUSH2 0x100 EXP DUP2 SLOAD DUP2 PUSH2 0xFFFF MUL NOT AND SWAP1 DUP4 PUSH2 0xFFFF AND MUL OR SWAP1 SSTORE POP CALLVALUE DUP1 ISZERO PUSH2 0x2C JUMPI PUSH0 DUP1 REVERT JUMPDEST POP CALLER PUSH1 0x2 PUSH0 PUSH2 0x100 EXP DUP2 SLOAD DUP2 PUSH20 0xFFFFFFFFFFFFFFFFFFFFFFFFFFFFFFFFFFFFFFFF MUL NOT AND SWAP1 DUP4 PUSH20 0xFFFFFFFFFFFFFFFFFFFFFFFFFFFFFFFFFFFFFFFF AND MUL OR SWAP1 SSTORE POP PUSH2 0x124B DUP1 PUSH2 0x7A PUSH0 CODECOPY PUSH0 RETURN INVALID PUSH1 0x80 PUSH1 0x40 MSTORE CALLVALUE DUP1 ISZERO PUSH2 0xF JUMPI PUSH0 DUP1 REVERT JUMPDEST POP PUSH1 0x4 CALLDATASIZE LT PUSH2 0x7B JUMPI PUSH0 CALLDATALOAD PUSH1 0xE0 SHR DUP1 PUSH4 0x6EB10797 GT PUSH2 0x59 JUMPI DUP1 PUSH4 0x6EB10797 EQ PUSH2 0xFE JUMPI DUP1 PUSH4 0x7C9CD2BC EQ PUSH2 0x11C JUMPI DUP1 PUSH4 0x8DA5CB5B EQ PUSH2 0x138 JUMPI DUP1 PUSH4 0xC3AD5ECB EQ PUSH2 0x156 JUMPI PUSH2 0x7B JUMP JUMPDEST DUP1 PUSH4 0x5A1B4A9 EQ PUSH2 0x7F JUMPI DUP1 PUSH4 0x12E7EE1C EQ PUSH2 0xB2 JUMPI DUP1 PUSH4 0x58BFA4AB EQ PUSH2 0xE2 JUMPI JUMPDEST PUSH0 DUP1 REVERT JUMPDEST PUSH2 0x99 PUSH1 0x4 DUP1 CALLDATASIZE SUB DUP2 ADD SWAP1 PUSH2 0x94 SWAP2 SWAP1 PUSH2 0x892 JUMP JUMPDEST PUSH2 0x186 JUMP JUMPDEST PUSH1 0x40 MLOAD PUSH2 0xA9 SWAP5 SWAP4 SWAP3 SWAP2 SWAP1 PUSH2 0x978 JUMP JUMPDEST PUSH1 0x40 MLOAD DUP1 SWAP2 SUB SWAP1 RETURN JUMPDEST PUSH2 0xCC PUSH1 0x4 DUP1 CALLDATASIZE SUB DUP2 ADD SWAP1 PUSH2 0xC7 SWAP2 SWAP1 PUSH2 0x9C2 JUMP JUMPDEST PUSH2 0x271 JUMP JUMPDEST PUSH1 0x40 MLOAD PUSH2 0xD9 SWAP2 SWAP1 PUSH2 0xB6E JUMP JUMPDEST PUSH1 0x40 MLOAD DUP1 SWAP2 SUB SWAP1 RETURN JUMPDEST PUSH2 0xFC PUSH1 0x4 DUP1 CALLDATASIZE SUB DUP2 ADD SWAP1 PUSH2 0xF7 SWAP2 SWAP1 PUSH2 0xBC5 JUMP JUMPDEST PUSH2 0x402 JUMP JUMPDEST STOP JUMPDEST PUSH2 0x106 PUSH2 0x4AF JUMP JUMPDEST PUSH1 0x40 MLOAD PUSH2 0x113 SWAP2 SWAP1 PUSH2 0xBFF JUMP JUMPDEST PUSH1 0x40 MLOAD DUP1 SWAP2 SUB SWAP1 RETURN JUMPDEST PUSH2 0x136 PUSH1 0x4 DUP1 CALLDATASIZE SUB DUP2 ADD SWAP1 PUSH2 0x131 SWAP2 SWAP1 PUSH2 0xD44 JUMP JUMPDEST PUSH2 0x4C0 JUMP JUMPDEST STOP JUMPDEST PUSH2 0x140 PUSH2 0x627 JUMP JUMPDEST PUSH1 0x40 MLOAD PUSH2 0x14D SWAP2 SWAP1 PUSH2 0xD8B JUMP JUMPDEST PUSH1 0x40 MLOAD DUP1 SWAP2 SUB SWAP1 RETURN JUMPDEST PUSH2 0x170 PUSH1 0x4 DUP1 CALLDATASIZE SUB DUP2 ADD SWAP1 PUSH2 0x16B SWAP2 SWAP1 PUSH2 0xDA4 JUMP JUMPDEST PUSH2 0x64C JUMP JUMPDEST PUSH1 0x40 MLOAD PUSH2 0x17D SWAP2 SWAP1 PUSH2 0xE2F JUMP JUMPDEST PUSH1 0x40 MLOAD DUP1 SWAP2 SUB SWAP1 RETURN JUMPDEST PUSH1 0x1 PUSH1 0x20 MSTORE DUP2 PUSH0 MSTORE PUSH1 0x40 PUSH0 KECCAK256 DUP2 DUP2 SLOAD DUP2 LT PUSH2 0x19F JUMPI PUSH0 DUP1 REVERT JUMPDEST SWAP1 PUSH0 MSTORE PUSH1 0x20 PUSH0 KECCAK256 SWAP1 PUSH1 0x4 MUL ADD PUSH0 SWAP2 POP SWAP2 POP POP DUP1 PUSH0 ADD PUSH0 SWAP1 SLOAD SWAP1 PUSH2 0x100 EXP SWAP1 DIV PUSH20 0xFFFFFFFFFFFFFFFFFFFFFFFFFFFFFFFFFFFFFFFF AND SWAP1 DUP1 PUSH1 0x1 ADD DUP1 SLOAD PUSH2 0x1E4 SWAP1 PUSH2 0xE7C JUMP JUMPDEST DUP1 PUSH1 0x1F ADD PUSH1 0x20 DUP1 SWAP2 DIV MUL PUSH1 0x20 ADD PUSH1 0x40 MLOAD SWAP1 DUP2 ADD PUSH1 0x40 MSTORE DUP1 SWAP3 SWAP2 SWAP1 DUP2 DUP2 MSTORE PUSH1 0x20 ADD DUP3 DUP1 SLOAD PUSH2 0x210 SWAP1 PUSH2 0xE7C JUMP JUMPDEST DUP1 ISZERO PUSH2 0x25B JUMPI DUP1 PUSH1 0x1F LT PUSH2 0x232 JUMPI PUSH2 0x100 DUP1 DUP4 SLOAD DIV MUL DUP4 MSTORE SWAP2 PUSH1 0x20 ADD SWAP2 PUSH2 0x25B JUMP JUMPDEST DUP3 ADD SWAP2 SWAP1 PUSH0 MSTORE PUSH1 0x20 PUSH0 KECCAK256 SWAP1 JUMPDEST DUP2 SLOAD DUP2 MSTORE SWAP1 PUSH1 0x1 ADD SWAP1 PUSH1 0x20 ADD DUP1 DUP4 GT PUSH2 0x23E JUMPI DUP3 SWAP1 SUB PUSH1 0x1F AND DUP3 ADD SWAP2 JUMPDEST POP POP POP POP POP SWAP1 DUP1 PUSH1 0x2 ADD SLOAD SWAP1 DUP1 PUSH1 0x3 ADD SLOAD SWAP1 POP DUP5 JUMP JUMPDEST PUSH1 0x60 PUSH1 0x1 PUSH0 DUP4 PUSH20 0xFFFFFFFFFFFFFFFFFFFFFFFFFFFFFFFFFFFFFFFF AND PUSH20 0xFFFFFFFFFFFFFFFFFFFFFFFFFFFFFFFFFFFFFFFF AND DUP2 MSTORE PUSH1 0x20 ADD SWAP1 DUP2 MSTORE PUSH1 0x20 ADD PUSH0 KECCAK256 DUP1 SLOAD DUP1 PUSH1 0x20 MUL PUSH1 0x20 ADD PUSH1 0x40 MLOAD SWAP1 DUP2 ADD PUSH1 0x40 MSTORE DUP1 SWAP3 SWAP2 SWAP1 DUP2 DUP2 MSTORE PUSH1 0x20 ADD PUSH0 SWAP1 JUMPDEST DUP3 DUP3 LT ISZERO PUSH2 0x3F7 JUMPI DUP4 DUP3 SWAP1 PUSH0 MSTORE PUSH1 0x20 PUSH0 KECCAK256 SWAP1 PUSH1 0x4 MUL ADD PUSH1 0x40 MLOAD DUP1 PUSH1 0x80 ADD PUSH1 0x40 MSTORE SWAP1 DUP2 PUSH0 DUP3 ADD PUSH0 SWAP1 SLOAD SWAP1 PUSH2 0x100 EXP SWAP1 DIV PUSH20 0xFFFFFFFFFFFFFFFFFFFFFFFFFFFFFFFFFFFFFFFF AND PUSH20 0xFFFFFFFFFFFFFFFFFFFFFFFFFFFFFFFFFFFFFFFF AND PUSH20 0xFFFFFFFFFFFFFFFFFFFFFFFFFFFFFFFFFFFFFFFF AND DUP2 MSTORE PUSH1 0x20 ADD PUSH1 0x1 DUP3 ADD DUP1 SLOAD PUSH2 0x354 SWAP1 PUSH2 0xE7C JUMP JUMPDEST DUP1 PUSH1 0x1F ADD PUSH1 0x20 DUP1 SWAP2 DIV MUL PUSH1 0x20 ADD PUSH1 0x40 MLOAD SWAP1 DUP2 ADD PUSH1 0x40 MSTORE DUP1 SWAP3 SWAP2 SWAP1 DUP2 DUP2 MSTORE PUSH1 0x20 ADD DUP3 DUP1 SLOAD PUSH2 0x380 SWAP1 PUSH2 0xE7C JUMP JUMPDEST DUP1 ISZERO PUSH2 0x3CB JUMPI DUP1 PUSH1 0x1F LT PUSH2 0x3A2 JUMPI PUSH2 0x100 DUP1 DUP4 SLOAD DIV MUL DUP4 MSTORE SWAP2 PUSH1 0x20 ADD SWAP2 PUSH2 0x3CB JUMP JUMPDEST DUP3 ADD SWAP2 SWAP1 PUSH0 MSTORE PUSH1 0x20 PUSH0 KECCAK256 SWAP1 JUMPDEST DUP2 SLOAD DUP2 MSTORE SWAP1 PUSH1 0x1 ADD SWAP1 PUSH1 0x20 ADD DUP1 DUP4 GT PUSH2 0x3AE JUMPI DUP3 SWAP1 SUB PUSH1 0x1F AND DUP3 ADD SWAP2 JUMPDEST POP POP POP POP POP DUP2 MSTORE PUSH1 0x20 ADD PUSH1 0x2 DUP3 ADD SLOAD DUP2 MSTORE PUSH1 0x20 ADD PUSH1 0x3 DUP3 ADD SLOAD DUP2 MSTORE POP POP DUP2 MSTORE PUSH1 0x20 ADD SWAP1 PUSH1 0x1 ADD SWAP1 PUSH2 0x2CF JUMP JUMPDEST POP POP POP POP SWAP1 POP SWAP2 SWAP1 POP JUMP JUMPDEST PUSH1 0x2 PUSH0 SWAP1 SLOAD SWAP1 PUSH2 0x100 EXP SWAP1 DIV PUSH20 0xFFFFFFFFFFFFFFFFFFFFFFFFFFFFFFFFFFFFFFFF AND PUSH20 0xFFFFFFFFFFFFFFFFFFFFFFFFFFFFFFFFFFFFFFFF AND CALLER PUSH20 0xFFFFFFFFFFFFFFFFFFFFFFFFFFFFFFFFFFFFFFFF AND EQ PUSH2 0x491 JUMPI PUSH1 0x40 MLOAD PUSH32 0x8C379A000000000000000000000000000000000000000000000000000000000 DUP2 MSTORE PUSH1 0x4 ADD PUSH2 0x488 SWAP1 PUSH2 0xEF6 JUMP JUMPDEST PUSH1 0x40 MLOAD DUP1 SWAP2 SUB SWAP1 REVERT JUMPDEST DUP1 PUSH0 DUP1 PUSH2 0x100 EXP DUP2 SLOAD DUP2 PUSH2 0xFFFF MUL NOT AND SWAP1 DUP4 PUSH2 0xFFFF AND MUL OR SWAP1 SSTORE POP POP JUMP JUMPDEST PUSH0 DUP1 SLOAD SWAP1 PUSH2 0x100 EXP SWAP1 DIV PUSH2 0xFFFF AND DUP2 JUMP JUMPDEST PUSH0 DUP1 SLOAD SWAP1 PUSH2 0x100 EXP SWAP1 DIV PUSH2 0xFFFF AND PUSH2 0xFFFF AND DUP2 MLOAD GT ISZERO PUSH2 0x515 JUMPI PUSH1 0x40 MLOAD PUSH32 0x8C379A000000000000000000000000000000000000000000000000000000000 DUP2 MSTORE PUSH1 0x4 ADD PUSH2 0x50C SWAP1 PUSH2 0xF5E JUMP JUMPDEST PUSH1 0x40 MLOAD DUP1 SWAP2 SUB SWAP1 REVERT JUMPDEST PUSH0 PUSH1 0x40 MLOAD DUP1 PUSH1 0x80 ADD PUSH1 0x40 MSTORE DUP1 CALLER PUSH20 0xFFFFFFFFFFFFFFFFFFFFFFFFFFFFFFFFFFFFFFFF AND DUP2 MSTORE PUSH1 0x20 ADD DUP4 DUP2 MSTORE PUSH1 0x20 ADD TIMESTAMP DUP2 MSTORE PUSH1 0x20 ADD PUSH0 DUP2 MSTORE POP SWAP1 POP PUSH1 0x1 PUSH0 CALLER PUSH20 0xFFFFFFFFFFFFFFFFFFFFFFFFFFFFFFFFFFFFFFFF AND PUSH20 0xFFFFFFFFFFFFFFFFFFFFFFFFFFFFFFFFFFFFFFFF AND DUP2 MSTORE PUSH1 0x20 ADD SWAP1 DUP2 MSTORE PUSH1 0x20 ADD PUSH0 KECCAK256 DUP2 SWAP1 DUP1 PUSH1 0x1 DUP2 SLOAD ADD DUP1 DUP3 SSTORE DUP1 SWAP2 POP POP PUSH1 0x1 SWAP1 SUB SWAP1 PUSH0 MSTORE PUSH1 0x20 PUSH0 KECCAK256 SWAP1 PUSH1 0x4 MUL ADD PUSH0 SWAP1 SWAP2 SWAP1 SWAP2 SWAP1 SWAP2 POP PUSH0 DUP3 ADD MLOAD DUP2 PUSH0 ADD PUSH0 PUSH2 0x100 EXP DUP2 SLOAD DUP2 PUSH20 0xFFFFFFFFFFFFFFFFFFFFFFFFFFFFFFFFFFFFFFFF MUL NOT AND SWAP1 DUP4 PUSH20 0xFFFFFFFFFFFFFFFFFFFFFFFFFFFFFFFFFFFFFFFF AND MUL OR SWAP1 SSTORE POP PUSH1 0x20 DUP3 ADD MLOAD DUP2 PUSH1 0x1 ADD SWAP1 DUP2 PUSH2 0x60C SWAP2 SWAP1 PUSH2 0x1119 JUMP JUMPDEST POP PUSH1 0x40 DUP3 ADD MLOAD DUP2 PUSH1 0x2 ADD SSTORE PUSH1 0x60 DUP3 ADD MLOAD DUP2 PUSH1 0x3 ADD SSTORE POP POP POP POP JUMP JUMPDEST PUSH1 0x2 PUSH0 SWAP1 SLOAD SWAP1 PUSH2 0x100 EXP SWAP1 DIV PUSH20 0xFFFFFFFFFFFFFFFFFFFFFFFFFFFFFFFFFFFFFFFF AND DUP2 JUMP JUMPDEST PUSH2 0x654 PUSH2 0x7B9 JUMP JUMPDEST PUSH1 0x1 PUSH0 CALLER PUSH20 0xFFFFFFFFFFFFFFFFFFFFFFFFFFFFFFFFFFFFFFFF AND PUSH20 0xFFFFFFFFFFFFFFFFFFFFFFFFFFFFFFFFFFFFFFFF AND DUP2 MSTORE PUSH1 0x20 ADD SWAP1 DUP2 MSTORE PUSH1 0x20 ADD PUSH0 KECCAK256 DUP3 DUP2 SLOAD DUP2 LT PUSH2 0x6A3 JUMPI PUSH2 0x6A2 PUSH2 0x11E8 JUMP JUMPDEST JUMPDEST SWAP1 PUSH0 MSTORE PUSH1 0x20 PUSH0 KECCAK256 SWAP1 PUSH1 0x4 MUL ADD PUSH1 0x40 MLOAD DUP1 PUSH1 0x80 ADD PUSH1 0x40 MSTORE SWAP1 DUP2 PUSH0 DUP3 ADD PUSH0 SWAP1 SLOAD SWAP1 PUSH2 0x100 EXP SWAP1 DIV PUSH20 0xFFFFFFFFFFFFFFFFFFFFFFFFFFFFFFFFFFFFFFFF AND PUSH20 0xFFFFFFFFFFFFFFFFFFFFFFFFFFFFFFFFFFFFFFFF AND PUSH20 0xFFFFFFFFFFFFFFFFFFFFFFFFFFFFFFFFFFFFFFFF AND DUP2 MSTORE PUSH1 0x20 ADD PUSH1 0x1 DUP3 ADD DUP1 SLOAD PUSH2 0x71E SWAP1 PUSH2 0xE7C JUMP JUMPDEST DUP1 PUSH1 0x1F ADD PUSH1 0x20 DUP1 SWAP2 DIV MUL PUSH1 0x20 ADD PUSH1 0x40 MLOAD SWAP1 DUP2 ADD PUSH1 0x40 MSTORE DUP1 SWAP3 SWAP2 SWAP1 DUP2 DUP2 MSTORE PUSH1 0x20 ADD DUP3 DUP1 SLOAD PUSH2 0x74A SWAP1 PUSH2 0xE7C JUMP JUMPDEST DUP1 ISZERO PUSH2 0x795 JUMPI DUP1 PUSH1 0x1F LT PUSH2 0x76C JUMPI PUSH2 0x100 DUP1 DUP4 SLOAD DIV MUL DUP4 MSTORE SWAP2 PUSH1 0x20 ADD SWAP2 PUSH2 0x795 JUMP JUMPDEST DUP3 ADD SWAP2 SWAP1 PUSH0 MSTORE PUSH1 0x20 PUSH0 KECCAK256 SWAP1 JUMPDEST DUP2 SLOAD DUP2 MSTORE SWAP1 PUSH1 0x1 ADD SWAP1 PUSH1 0x20 ADD DUP1 DUP4 GT PUSH2 0x778 JUMPI DUP3 SWAP1 SUB PUSH1 0x1F AND DUP3 ADD SWAP2 JUMPDEST POP POP POP POP POP DUP2 MSTORE PUSH1 0x20 ADD PUSH1 0x2 DUP3 ADD SLOAD DUP2 MSTORE PUSH1 0x20 ADD PUSH1 0x3 DUP3 ADD SLOAD DUP2 MSTORE POP POP SWAP1 POP SWAP2 SWAP1 POP JUMP JUMPDEST PUSH1 0x40 MLOAD DUP1 PUSH1 0x80 ADD PUSH1 0x40 MSTORE DUP1 PUSH0 PUSH20 0xFFFFFFFFFFFFFFFFFFFFFFFFFFFFFFFFFFFFFFFF AND DUP2 MSTORE PUSH1 0x20 ADD PUSH1 0x60 DUP2 MSTORE PUSH1 0x20 ADD PUSH0 DUP2 MSTORE PUSH1 0x20 ADD PUSH0 DUP2 MSTORE POP SWAP1 JUMP JUMPDEST PUSH0 PUSH1 0x40 MLOAD SWAP1 POP SWAP1 JUMP JUMPDEST PUSH0 DUP1 REVERT JUMPDEST PUSH0 DUP1 REVERT JUMPDEST PUSH0 PUSH20 0xFFFFFFFFFFFFFFFFFFFFFFFFFFFFFFFFFFFFFFFF DUP3 AND SWAP1 POP SWAP2 SWAP1 POP JUMP JUMPDEST PUSH0 PUSH2 0x82E DUP3 PUSH2 0x805 JUMP JUMPDEST SWAP1 POP SWAP2 SWAP1 POP JUMP JUMPDEST PUSH2 0x83E DUP2 PUSH2 0x824 JUMP JUMPDEST DUP2 EQ PUSH2 0x848 JUMPI PUSH0 DUP1 REVERT JUMPDEST POP JUMP JUMPDEST PUSH0 DUP2 CALLDATALOAD SWAP1 POP PUSH2 0x859 DUP2 PUSH2 0x835 JUMP JUMPDEST SWAP3 SWAP2 POP POP JUMP JUMPDEST PUSH0 DUP2 SWAP1 POP SWAP2 SWAP1 POP JUMP JUMPDEST PUSH2 0x871 DUP2 PUSH2 0x85F JUMP JUMPDEST DUP2 EQ PUSH2 0x87B JUMPI PUSH0 DUP1 REVERT JUMPDEST POP JUMP JUMPDEST PUSH0 DUP2 CALLDATALOAD SWAP1 POP PUSH2 0x88C DUP2 PUSH2 0x868 JUMP JUMPDEST SWAP3 SWAP2 POP POP JUMP JUMPDEST PUSH0 DUP1 PUSH1 0x40 DUP4 DUP6 SUB SLT ISZERO PUSH2 0x8A8 JUMPI PUSH2 0x8A7 PUSH2 0x7FD JUMP JUMPDEST JUMPDEST PUSH0 PUSH2 0x8B5 DUP6 DUP3 DUP7 ADD PUSH2 0x84B JUMP JUMPDEST SWAP3 POP POP PUSH1 0x20 PUSH2 0x8C6 DUP6 DUP3 DUP7 ADD PUSH2 0x87E JUMP JUMPDEST SWAP2 POP POP SWAP3 POP SWAP3 SWAP1 POP JUMP JUMPDEST PUSH2 0x8D9 DUP2 PUSH2 0x824 JUMP JUMPDEST DUP3 MSTORE POP POP JUMP JUMPDEST PUSH0 DUP2 MLOAD SWAP1 POP SWAP2 SWAP1 POP JUMP JUMPDEST PUSH0 DUP3 DUP3 MSTORE PUSH1 0x20 DUP3 ADD SWAP1 POP SWAP3 SWAP2 POP POP JUMP JUMPDEST PUSH0 JUMPDEST DUP4 DUP2 LT ISZERO PUSH2 0x916 JUMPI DUP1 DUP3 ADD MLOAD DUP2 DUP5 ADD MSTORE PUSH1 0x20 DUP2 ADD SWAP1 POP PUSH2 0x8FB JUMP JUMPDEST PUSH0 DUP5 DUP5 ADD MSTORE POP POP POP POP JUMP JUMPDEST PUSH0 PUSH1 0x1F NOT PUSH1 0x1F DUP4 ADD AND SWAP1 POP SWAP2 SWAP1 POP JUMP JUMPDEST PUSH0 PUSH2 0x93B DUP3 PUSH2 0x8DF JUMP JUMPDEST PUSH2 0x945 DUP2 DUP6 PUSH2 0x8E9 JUMP JUMPDEST SWAP4 POP PUSH2 0x955 DUP2 DUP6 PUSH1 0x20 DUP7 ADD PUSH2 0x8F9 JUMP JUMPDEST PUSH2 0x95E DUP2 PUSH2 0x921 JUMP JUMPDEST DUP5 ADD SWAP2 POP POP SWAP3 SWAP2 POP POP JUMP JUMPDEST PUSH2 0x972 DUP2 PUSH2 0x85F JUMP JUMPDEST DUP3 MSTORE POP POP JUMP JUMPDEST PUSH0 PUSH1 0x80 DUP3 ADD SWAP1 POP PUSH2 0x98B PUSH0 DUP4 ADD DUP8 PUSH2 0x8D0 JUMP JUMPDEST DUP2 DUP2 SUB PUSH1 0x20 DUP4 ADD MSTORE PUSH2 0x99D DUP2 DUP7 PUSH2 0x931 JUMP JUMPDEST SWAP1 POP PUSH2 0x9AC PUSH1 0x40 DUP4 ADD DUP6 PUSH2 0x969 JUMP JUMPDEST PUSH2 0x9B9 PUSH1 0x60 DUP4 ADD DUP5 PUSH2 0x969 JUMP JUMPDEST SWAP6 SWAP5 POP POP POP POP POP JUMP JUMPDEST PUSH0 PUSH1 0x20 DUP3 DUP5 SUB SLT ISZERO PUSH2 0x9D7 JUMPI PUSH2 0x9D6 PUSH2 0x7FD JUMP JUMPDEST JUMPDEST PUSH0 PUSH2 0x9E4 DUP5 DUP3 DUP6 ADD PUSH2 0x84B JUMP JUMPDEST SWAP2 POP POP SWAP3 SWAP2 POP POP JUMP JUMPDEST PUSH0 DUP2 MLOAD SWAP1 POP SWAP2 SWAP1 POP JUMP JUMPDEST PUSH0 DUP3 DUP3 MSTORE PUSH1 0x20 DUP3 ADD SWAP1 POP SWAP3 SWAP2 POP POP JUMP JUMPDEST PUSH0 DUP2 SWAP1 POP PUSH1 0x20 DUP3 ADD SWAP1 POP SWAP2 SWAP1 POP JUMP JUMPDEST PUSH2 0xA1F DUP2 PUSH2 0x824 JUMP JUMPDEST DUP3 MSTORE POP POP JUMP JUMPDEST PUSH0 DUP3 DUP3 MSTORE PUSH1 0x20 DUP3 ADD SWAP1 POP SWAP3 SWAP2 POP POP JUMP JUMPDEST PUSH0 PUSH2 0xA3F DUP3 PUSH2 0x8DF JUMP JUMPDEST PUSH2 0xA49 DUP2 DUP6 PUSH2 0xA25 JUMP JUMPDEST SWAP4 POP PUSH2 0xA59 DUP2 DUP6 PUSH1 0x20 DUP7 ADD PUSH2 0x8F9 JUMP JUMPDEST PUSH2 0xA62 DUP2 PUSH2 0x921 JUMP JUMPDEST DUP5 ADD SWAP2 POP POP SWAP3 SWAP2 POP POP JUMP JUMPDEST PUSH2 0xA76 DUP2 PUSH2 0x85F JUMP JUMPDEST DUP3 MSTORE POP POP JUMP JUMPDEST PUSH0 PUSH1 0x80 DUP4 ADD PUSH0 DUP4 ADD MLOAD PUSH2 0xA91 PUSH0 DUP7 ADD DUP3 PUSH2 0xA16 JUMP JUMPDEST POP PUSH1 0x20 DUP4 ADD MLOAD DUP5 DUP3 SUB PUSH1 0x20 DUP7 ADD MSTORE PUSH2 0xAA9 DUP3 DUP3 PUSH2 0xA35 JUMP JUMPDEST SWAP2 POP POP PUSH1 0x40 DUP4 ADD MLOAD PUSH2 0xABE PUSH1 0x40 DUP7 ADD DUP3 PUSH2 0xA6D JUMP JUMPDEST POP PUSH1 0x60 DUP4 ADD MLOAD PUSH2 0xAD1 PUSH1 0x60 DUP7 ADD DUP3 PUSH2 0xA6D JUMP JUMPDEST POP DUP1 SWAP2 POP POP SWAP3 SWAP2 POP POP JUMP JUMPDEST PUSH0 PUSH2 0xAE7 DUP4 DUP4 PUSH2 0xA7C JUMP JUMPDEST SWAP1 POP SWAP3 SWAP2 POP POP JUMP JUMPDEST PUSH0 PUSH1 0x20 DUP3 ADD SWAP1 POP SWAP2 SWAP1 POP JUMP JUMPDEST PUSH0 PUSH2 0xB05 DUP3 PUSH2 0x9ED JUMP JUMPDEST PUSH2 0xB0F DUP2 DUP6 PUSH2 0x9F7 JUMP JUMPDEST SWAP4 POP DUP4 PUSH1 0x20 DUP3 MUL DUP6 ADD PUSH2 0xB21 DUP6 PUSH2 0xA07 JUMP JUMPDEST DUP1 PUSH0 JUMPDEST DUP6 DUP2 LT ISZERO PUSH2 0xB5C JUMPI DUP5 DUP5 SUB DUP10 MSTORE DUP2 MLOAD PUSH2 0xB3D DUP6 DUP3 PUSH2 0xADC JUMP JUMPDEST SWAP5 POP PUSH2 0xB48 DUP4 PUSH2 0xAEF JUMP JUMPDEST SWAP3 POP PUSH1 0x20 DUP11 ADD SWAP10 POP POP PUSH1 0x1 DUP2 ADD SWAP1 POP PUSH2 0xB24 JUMP JUMPDEST POP DUP3 SWAP8 POP DUP8 SWAP6 POP POP POP POP POP POP SWAP3 SWAP2 POP POP JUMP JUMPDEST PUSH0 PUSH1 0x20 DUP3 ADD SWAP1 POP DUP2 DUP2 SUB PUSH0 DUP4 ADD MSTORE PUSH2 0xB86 DUP2 DUP5 PUSH2 0xAFB JUMP JUMPDEST SWAP1 POP SWAP3 SWAP2 POP POP JUMP JUMPDEST PUSH0 PUSH2 0xFFFF DUP3 AND SWAP1 POP SWAP2 SWAP1 POP JUMP JUMPDEST PUSH2 0xBA4 DUP2 PUSH2 0xB8E JUMP JUMPDEST DUP2 EQ PUSH2 0xBAE JUMPI PUSH0 DUP1 REVERT JUMPDEST POP JUMP JUMPDEST PUSH0 DUP2 CALLDATALOAD SWAP1 POP PUSH2 0xBBF DUP2 PUSH2 0xB9B JUMP JUMPDEST SWAP3 SWAP2 POP POP JUMP JUMPDEST PUSH0 PUSH1 0x20 DUP3 DUP5 SUB SLT ISZERO PUSH2 0xBDA JUMPI PUSH2 0xBD9 PUSH2 0x7FD JUMP JUMPDEST JUMPDEST PUSH0 PUSH2 0xBE7 DUP5 DUP3 DUP6 ADD PUSH2 0xBB1 JUMP JUMPDEST SWAP2 POP POP SWAP3 SWAP2 POP POP JUMP JUMPDEST PUSH2 0xBF9 DUP2 PUSH2 0xB8E JUMP JUMPDEST DUP3 MSTORE POP POP JUMP JUMPDEST PUSH0 PUSH1 0x20 DUP3 ADD SWAP1 POP PUSH2 0xC12 PUSH0 DUP4 ADD DUP5 PUSH2 0xBF0 JUMP JUMPDEST SWAP3 SWAP2 POP POP JUMP JUMPDEST PUSH0 DUP1 REVERT JUMPDEST PUSH0 DUP1 REVERT JUMPDEST PUSH32 0x4E487B7100000000000000000000000000000000000000000000000000000000 PUSH0 MSTORE PUSH1 0x41 PUSH1 0x4 MSTORE PUSH1 0x24 PUSH0 REVERT JUMPDEST PUSH2 0xC56 DUP3 PUSH2 0x921 JUMP JUMPDEST DUP2 ADD DUP2 DUP2 LT PUSH8 0xFFFFFFFFFFFFFFFF DUP3 GT OR ISZERO PUSH2 0xC75 JUMPI PUSH2 0xC74 PUSH2 0xC20 JUMP JUMPDEST JUMPDEST DUP1 PUSH1 0x40 MSTORE POP POP POP JUMP JUMPDEST PUSH0 PUSH2 0xC87 PUSH2 0x7F4 JUMP JUMPDEST SWAP1 POP PUSH2 0xC93 DUP3 DUP3 PUSH2 0xC4D JUMP JUMPDEST SWAP2 SWAP1 POP JUMP JUMPDEST PUSH0 PUSH8 0xFFFFFFFFFFFFFFFF DUP3 GT ISZERO PUSH2 0xCB2 JUMPI PUSH2 0xCB1 PUSH2 0xC20 JUMP JUMPDEST JUMPDEST PUSH2 0xCBB DUP3 PUSH2 0x921 JUMP JUMPDEST SWAP1 POP PUSH1 0x20 DUP2 ADD SWAP1 POP SWAP2 SWAP1 POP JUMP JUMPDEST DUP3 DUP2 DUP4 CALLDATACOPY PUSH0 DUP4 DUP4 ADD MSTORE POP POP POP JUMP JUMPDEST PUSH0 PUSH2 0xCE8 PUSH2 0xCE3 DUP5 PUSH2 0xC98 JUMP JUMPDEST PUSH2 0xC7E JUMP JUMPDEST SWAP1 POP DUP3 DUP2 MSTORE PUSH1 0x20 DUP2 ADD DUP5 DUP5 DUP5 ADD GT ISZERO PUSH2 0xD04 JUMPI PUSH2 0xD03 PUSH2 0xC1C JUMP JUMPDEST JUMPDEST PUSH2 0xD0F DUP5 DUP3 DUP6 PUSH2 0xCC8 JUMP JUMPDEST POP SWAP4 SWAP3 POP POP POP JUMP JUMPDEST PUSH0 DUP3 PUSH1 0x1F DUP4 ADD SLT PUSH2 0xD2B JUMPI PUSH2 0xD2A PUSH2 0xC18 JUMP JUMPDEST JUMPDEST DUP2 CALLDATALOAD PUSH2 0xD3B DUP5 DUP3 PUSH1 0x20 DUP7 ADD PUSH2 0xCD6 JUMP JUMPDEST SWAP2 POP POP SWAP3 SWAP2 POP POP JUMP JUMPDEST PUSH0 PUSH1 0x20 DUP3 DUP5 SUB SLT ISZERO PUSH2 0xD59 JUMPI PUSH2 0xD58 PUSH2 0x7FD JUMP JUMPDEST JUMPDEST PUSH0 DUP3 ADD CALLDATALOAD PUSH8 0xFFFFFFFFFFFFFFFF DUP2 GT ISZERO PUSH2 0xD76 JUMPI PUSH2 0xD75 PUSH2 0x801 JUMP JUMPDEST JUMPDEST PUSH2 0xD82 DUP5 DUP3 DUP6 ADD PUSH2 0xD17 JUMP JUMPDEST SWAP2 POP POP SWAP3 SWAP2 POP POP JUMP JUMPDEST PUSH0 PUSH1 0x20 DUP3 ADD SWAP1 POP PUSH2 0xD9E PUSH0 DUP4 ADD DUP5 PUSH2 0x8D0 JUMP JUMPDEST SWAP3 SWAP2 POP POP JUMP JUMPDEST PUSH0 PUSH1 0x20 DUP3 DUP5 SUB SLT ISZERO PUSH2 0xDB9 JUMPI PUSH2 0xDB8 PUSH2 0x7FD JUMP JUMPDEST JUMPDEST PUSH0 PUSH2 0xDC6 DUP5 DUP3 DUP6 ADD PUSH2 0x87E JUMP JUMPDEST SWAP2 POP POP SWAP3 SWAP2 POP POP JUMP JUMPDEST PUSH0 PUSH1 0x80 DUP4 ADD PUSH0 DUP4 ADD MLOAD PUSH2 0xDE4 PUSH0 DUP7 ADD DUP3 PUSH2 0xA16 JUMP JUMPDEST POP PUSH1 0x20 DUP4 ADD MLOAD DUP5 DUP3 SUB PUSH1 0x20 DUP7 ADD MSTORE PUSH2 0xDFC DUP3 DUP3 PUSH2 0xA35 JUMP JUMPDEST SWAP2 POP POP PUSH1 0x40 DUP4 ADD MLOAD PUSH2 0xE11 PUSH1 0x40 DUP7 ADD DUP3 PUSH2 0xA6D JUMP JUMPDEST POP PUSH1 0x60 DUP4 ADD MLOAD PUSH2 0xE24 PUSH1 0x60 DUP7 ADD DUP3 PUSH2 0xA6D JUMP JUMPDEST POP DUP1 SWAP2 POP POP SWAP3 SWAP2 POP POP JUMP JUMPDEST PUSH0 PUSH1 0x20 DUP3 ADD SWAP1 POP DUP2 DUP2 SUB PUSH0 DUP4 ADD MSTORE PUSH2 0xE47 DUP2 DUP5 PUSH2 0xDCF JUMP JUMPDEST SWAP1 POP SWAP3 SWAP2 POP POP JUMP JUMPDEST PUSH32 0x4E487B7100000000000000000000000000000000000000000000000000000000 PUSH0 MSTORE PUSH1 0x22 PUSH1 0x4 MSTORE PUSH1 0x24 PUSH0 REVERT JUMPDEST PUSH0 PUSH1 0x2 DUP3 DIV SWAP1 POP PUSH1 0x1 DUP3 AND DUP1 PUSH2 0xE93 JUMPI PUSH1 0x7F DUP3 AND SWAP2 POP JUMPDEST PUSH1 0x20 DUP3 LT DUP2 SUB PUSH2 0xEA6 JUMPI PUSH2 0xEA5 PUSH2 0xE4F JUMP JUMPDEST JUMPDEST POP SWAP2 SWAP1 POP JUMP JUMPDEST PUSH32 0x594F5520415245204E4F5420544845204F574E45520000000000000000000000 PUSH0 DUP3 ADD MSTORE POP JUMP JUMPDEST PUSH0 PUSH2 0xEE0 PUSH1 0x15 DUP4 PUSH2 0x8E9 JUMP JUMPDEST SWAP2 POP PUSH2 0xEEB DUP3 PUSH2 0xEAC JUMP JUMPDEST PUSH1 0x20 DUP3 ADD SWAP1 POP SWAP2 SWAP1 POP JUMP JUMPDEST PUSH0 PUSH1 0x20 DUP3 ADD SWAP1 POP DUP2 DUP2 SUB PUSH0 DUP4 ADD MSTORE PUSH2 0xF0D DUP2 PUSH2 0xED4 JUMP JUMPDEST SWAP1 POP SWAP2 SWAP1 POP JUMP JUMPDEST PUSH32 0x547765657420697320746F6F206C6F6E672062726F2121000000000000000000 PUSH0 DUP3 ADD MSTORE POP JUMP JUMPDEST PUSH0 PUSH2 0xF48 PUSH1 0x17 DUP4 PUSH2 0x8E9 JUMP JUMPDEST SWAP2 POP PUSH2 0xF53 DUP3 PUSH2 0xF14 JUMP JUMPDEST PUSH1 0x20 DUP3 ADD SWAP1 POP SWAP2 SWAP1 POP JUMP JUMPDEST PUSH0 PUSH1 0x20 DUP3 ADD SWAP1 POP DUP2 DUP2 SUB PUSH0 DUP4 ADD MSTORE PUSH2 0xF75 DUP2 PUSH2 0xF3C JUMP JUMPDEST SWAP1 POP SWAP2 SWAP1 POP JUMP JUMPDEST PUSH0 DUP2 SWAP1 POP DUP2 PUSH0 MSTORE PUSH1 0x20 PUSH0 KECCAK256 SWAP1 POP SWAP2 SWAP1 POP JUMP JUMPDEST PUSH0 PUSH1 0x20 PUSH1 0x1F DUP4 ADD DIV SWAP1 POP SWAP2 SWAP1 POP JUMP JUMPDEST PUSH0 DUP3 DUP3 SHL SWAP1 POP SWAP3 SWAP2 POP POP JUMP JUMPDEST PUSH0 PUSH1 0x8 DUP4 MUL PUSH2 0xFD8 PUSH32 0xFFFFFFFFFFFFFFFFFFFFFFFFFFFFFFFFFFFFFFFFFFFFFFFFFFFFFFFFFFFFFFFF DUP3 PUSH2 0xF9D JUMP JUMPDEST PUSH2 0xFE2 DUP7 DUP4 PUSH2 0xF9D JUMP JUMPDEST SWAP6 POP DUP1 NOT DUP5 AND SWAP4 POP DUP1 DUP7 AND DUP5 OR SWAP3 POP POP POP SWAP4 SWAP3 POP POP POP JUMP JUMPDEST PUSH0 DUP2 SWAP1 POP SWAP2 SWAP1 POP JUMP JUMPDEST PUSH0 PUSH2 0x101D PUSH2 0x1018 PUSH2 0x1013 DUP5 PUSH2 0x85F JUMP JUMPDEST PUSH2 0xFFA JUMP JUMPDEST PUSH2 0x85F JUMP JUMPDEST SWAP1 POP SWAP2 SWAP1 POP JUMP JUMPDEST PUSH0 DUP2 SWAP1 POP SWAP2 SWAP1 POP JUMP JUMPDEST PUSH2 0x1036 DUP4 PUSH2 0x1003 JUMP JUMPDEST PUSH2 0x104A PUSH2 0x1042 DUP3 PUSH2 0x1024 JUMP JUMPDEST DUP5 DUP5 SLOAD PUSH2 0xFA9 JUMP JUMPDEST DUP3 SSTORE POP POP POP POP JUMP JUMPDEST PUSH0 SWAP1 JUMP JUMPDEST PUSH2 0x105E PUSH2 0x1052 JUMP JUMPDEST PUSH2 0x1069 DUP2 DUP5 DUP5 PUSH2 0x102D JUMP JUMPDEST POP POP POP JUMP JUMPDEST JUMPDEST DUP2 DUP2 LT ISZERO PUSH2 0x108C JUMPI PUSH2 0x1081 PUSH0 DUP3 PUSH2 0x1056 JUMP JUMPDEST PUSH1 0x1 DUP2 ADD SWAP1 POP PUSH2 0x106F JUMP JUMPDEST POP POP JUMP JUMPDEST PUSH1 0x1F DUP3 GT ISZERO PUSH2 0x10D1 JUMPI PUSH2 0x10A2 DUP2 PUSH2 0xF7C JUMP JUMPDEST PUSH2 0x10AB DUP5 PUSH2 0xF8E JUMP JUMPDEST DUP2 ADD PUSH1 0x20 DUP6 LT ISZERO PUSH2 0x10BA JUMPI DUP2 SWAP1 POP JUMPDEST PUSH2 0x10CE PUSH2 0x10C6 DUP6 PUSH2 0xF8E JUMP JUMPDEST DUP4 ADD DUP3 PUSH2 0x106E JUMP JUMPDEST POP POP JUMPDEST POP POP POP JUMP JUMPDEST PUSH0 DUP3 DUP3 SHR SWAP1 POP SWAP3 SWAP2 POP POP JUMP JUMPDEST PUSH0 PUSH2 0x10F1 PUSH0 NOT DUP5 PUSH1 0x8 MUL PUSH2 0x10D6 JUMP JUMPDEST NOT DUP1 DUP4 AND SWAP2 POP POP SWAP3 SWAP2 POP POP JUMP JUMPDEST PUSH0 PUSH2 0x1109 DUP4 DUP4 PUSH2 0x10E2 JUMP JUMPDEST SWAP2 POP DUP3 PUSH1 0x2 MUL DUP3 OR SWAP1 POP SWAP3 SWAP2 POP POP JUMP JUMPDEST PUSH2 0x1122 DUP3 PUSH2 0x8DF JUMP JUMPDEST PUSH8 0xFFFFFFFFFFFFFFFF DUP2 GT ISZERO PUSH2 0x113B JUMPI PUSH2 0x113A PUSH2 0xC20 JUMP JUMPDEST JUMPDEST PUSH2 0x1145 DUP3 SLOAD PUSH2 0xE7C JUMP JUMPDEST PUSH2 0x1150 DUP3 DUP3 DUP6 PUSH2 0x1090 JUMP JUMPDEST PUSH0 PUSH1 0x20 SWAP1 POP PUSH1 0x1F DUP4 GT PUSH1 0x1 DUP2 EQ PUSH2 0x1181 JUMPI PUSH0 DUP5 ISZERO PUSH2 0x116F JUMPI DUP3 DUP8 ADD MLOAD SWAP1 POP JUMPDEST PUSH2 0x1179 DUP6 DUP3 PUSH2 0x10FE JUMP JUMPDEST DUP7 SSTORE POP PUSH2 0x11E0 JUMP JUMPDEST PUSH1 0x1F NOT DUP5 AND PUSH2 0x118F DUP7 PUSH2 0xF7C JUMP JUMPDEST PUSH0 JUMPDEST DUP3 DUP2 LT ISZERO PUSH2 0x11B6 JUMPI DUP5 DUP10 ADD MLOAD DUP3 SSTORE PUSH1 0x1 DUP3 ADD SWAP2 POP PUSH1 0x20 DUP6 ADD SWAP5 POP PUSH1 0x20 DUP2 ADD SWAP1 POP PUSH2 0x1191 JUMP JUMPDEST DUP7 DUP4 LT ISZERO PUSH2 0x11D3 JUMPI DUP5 DUP10 ADD MLOAD PUSH2 0x11CF PUSH1 0x1F DUP10 AND DUP3 PUSH2 0x10E2 JUMP JUMPDEST DUP4 SSTORE POP JUMPDEST PUSH1 0x1 PUSH1 0x2 DUP9 MUL ADD DUP9 SSTORE POP POP POP JUMPDEST POP POP POP POP POP POP JUMP JUMPDEST PUSH32 0x4E487B7100000000000000000000000000000000000000000000000000000000 PUSH0 MSTORE PUSH1 0x32 PUSH1 0x4 MSTORE PUSH1 0x24 PUSH0 REVERT INVALID LOG2 PUSH5 0x6970667358 0x22 SLT KECCAK256 0xAD 0x23 PUSH27 0x6ECAA8018A212BA1A6DCBB3B3337C6514A56A6EF0F00BCF869AFB2 DUP10 PUSH10 0x64736F6C634300081600 CALLER "
				},
				"gasEstimates": {
					"creation": {
						"codeDepositCost": "936600",
						"executionCost": "49504",
						"totalCost": "986104"
					},
					"external": {
						"MAX_TWEET_LENGTH()": "2463",
						"changeTweetLength(uint16)": "26887",
						"createTweet(string)": "infinite",
						"getAllTweets(address)": "infinite",
						"getTweet(uint256)": "infinite",
						"owner()": "2552",
						"tweets(address,uint256)": "infinite"
					}
				},
				"methodIdentifiers": {
					"MAX_TWEET_LENGTH()": "6eb10797",
					"changeTweetLength(uint16)": "58bfa4ab",
					"createTweet(string)": "7c9cd2bc",
					"getAllTweets(address)": "12e7ee1c",
					"getTweet(uint256)": "c3ad5ecb",
					"owner()": "8da5cb5b",
					"tweets(address,uint256)": "05a1b4a9"
				}
			},
			"storageLayout": {
				"storage": [
					{
						"astId": 4,
						"contract": "Twitter_4.sol:Twitter",
						"label": "MAX_TWEET_LENGTH",
						"offset": 0,
						"slot": "0",
						"type": "t_uint16"
					},
					{
						"astId": 19,
						"contract": "Twitter_4.sol:Twitter",
						"label": "tweets",
						"offset": 0,
						"slot": "1",
						"type": "t_mapping(t_address,t_array(t_struct(Tweet)13_storage)dyn_storage)"
					},
					{
						"astId": 21,
						"contract": "Twitter_4.sol:Twitter",
						"label": "owner",
						"offset": 0,
						"slot": "2",
						"type": "t_address"
					}
				],
				"types": {
					"t_address": {
						"encoding": "inplace",
						"label": "address",
						"numberOfBytes": "20"
					},
					"t_array(t_struct(Tweet)13_storage)dyn_storage": {
						"base": "t_struct(Tweet)13_storage",
						"encoding": "dynamic_array",
						"label": "struct Twitter.Tweet[]",
						"numberOfBytes": "32"
					},
					"t_mapping(t_address,t_array(t_struct(Tweet)13_storage)dyn_storage)": {
						"encoding": "mapping",
						"key": "t_address",
						"label": "mapping(address => struct Twitter.Tweet[])",
						"numberOfBytes": "32",
						"value": "t_array(t_struct(Tweet)13_storage)dyn_storage"
					},
					"t_string_storage": {
						"encoding": "bytes",
						"label": "string",
						"numberOfBytes": "32"
					},
					"t_struct(Tweet)13_storage": {
						"encoding": "inplace",
						"label": "struct Twitter.Tweet",
						"members": [
							{
								"astId": 6,
								"contract": "Twitter_4.sol:Twitter",
								"label": "author",
								"offset": 0,
								"slot": "0",
								"type": "t_address"
							},
							{
								"astId": 8,
								"contract": "Twitter_4.sol:Twitter",
								"label": "content",
								"offset": 0,
								"slot": "1",
								"type": "t_string_storage"
							},
							{
								"astId": 10,
								"contract": "Twitter_4.sol:Twitter",
								"label": "timestamp",
								"offset": 0,
								"slot": "2",
								"type": "t_uint256"
							},
							{
								"astId": 12,
								"contract": "Twitter_4.sol:Twitter",
								"label": "likes",
								"offset": 0,
								"slot": "3",
								"type": "t_uint256"
							}
						],
						"numberOfBytes": "128"
					},
					"t_uint16": {
						"encoding": "inplace",
						"label": "uint16",
						"numberOfBytes": "2"
					},
					"t_uint256": {
						"encoding": "inplace",
						"label": "uint256",
						"numberOfBytes": "32"
					}
				}
			},
			"userdoc": {
				"kind": "user",
				"methods": {},
				"version": 1
			}
		}
	}
}