{
	"23_jan.sol": {
		"Marketplace": {
			"abi": [
				{
					"inputs": [],
					"stateMutability": "nonpayable",
					"type": "constructor"
				},
				{
					"anonymous": false,
					"inputs": [
						{
							"indexed": false,
							"internalType": "uint256",
							"name": "orderId",
							"type": "uint256"
						}
					],
					"name": "OrderAccepted",
					"type": "event"
				},
				{
					"anonymous": false,
					"inputs": [
						{
							"indexed": false,
							"internalType": "uint256",
							"name": "orderId",
							"type": "uint256"
						}
					],
					"name": "OrderCompleted",
					"type": "event"
				},
				{
					"anonymous": false,
					"inputs": [
						{
							"indexed": false,
							"internalType": "uint256",
							"name": "orderId",
							"type": "uint256"
						},
						{
							"indexed": false,
							"internalType": "uint256",
							"name": "productId",
							"type": "uint256"
						},
						{
							"indexed": false,
							"internalType": "address",
							"name": "buyer",
							"type": "address"
						}
					],
					"name": "OrderPlaced",
					"type": "event"
				},
				{
					"anonymous": false,
					"inputs": [
						{
							"indexed": false,
							"internalType": "uint256",
							"name": "productId",
							"type": "uint256"
						},
						{
							"indexed": false,
							"internalType": "string",
							"name": "name",
							"type": "string"
						},
						{
							"indexed": false,
							"internalType": "uint256",
							"name": "price",
							"type": "uint256"
						},
						{
							"indexed": false,
							"internalType": "address",
							"name": "seller",
							"type": "address"
						}
					],
					"name": "ProductAdded",
					"type": "event"
				},
				{
					"inputs": [
						{
							"internalType": "uint256",
							"name": "_orderId",
							"type": "uint256"
						}
					],
					"name": "acceptOrder",
					"outputs": [],
					"stateMutability": "nonpayable",
					"type": "function"
				},
				{
					"inputs": [
						{
							"internalType": "string",
							"name": "_name",
							"type": "string"
						},
						{
							"internalType": "uint256",
							"name": "_price",
							"type": "uint256"
						}
					],
					"name": "addProduct",
					"outputs": [],
					"stateMutability": "nonpayable",
					"type": "function"
				},
				{
					"inputs": [],
					"name": "admin",
					"outputs": [
						{
							"internalType": "address",
							"name": "",
							"type": "address"
						}
					],
					"stateMutability": "view",
					"type": "function"
				},
				{
					"inputs": [
						{
							"internalType": "address",
							"name": "",
							"type": "address"
						},
						{
							"internalType": "uint256",
							"name": "",
							"type": "uint256"
						}
					],
					"name": "buyerOrders",
					"outputs": [
						{
							"internalType": "uint256",
							"name": "productId",
							"type": "uint256"
						},
						{
							"internalType": "address",
							"name": "buyer",
							"type": "address"
						},
						{
							"internalType": "bool",
							"name": "isAccepted",
							"type": "bool"
						},
						{
							"internalType": "bool",
							"name": "isCompleted",
							"type": "bool"
						}
					],
					"stateMutability": "view",
					"type": "function"
				},
				{
					"inputs": [
						{
							"internalType": "uint256",
							"name": "_orderId",
							"type": "uint256"
						}
					],
					"name": "completeOrder",
					"outputs": [],
					"stateMutability": "nonpayable",
					"type": "function"
				},
				{
					"inputs": [
						{
							"internalType": "uint256",
							"name": "_productId",
							"type": "uint256"
						}
					],
					"name": "placeOrder",
					"outputs": [],
					"stateMutability": "nonpayable",
					"type": "function"
				},
				{
					"inputs": [],
					"name": "productCounter",
					"outputs": [
						{
							"internalType": "uint256",
							"name": "",
							"type": "uint256"
						}
					],
					"stateMutability": "view",
					"type": "function"
				},
				{
					"inputs": [
						{
							"internalType": "uint256",
							"name": "",
							"type": "uint256"
						}
					],
					"name": "products",
					"outputs": [
						{
							"internalType": "string",
							"name": "name",
							"type": "string"
						},
						{
							"internalType": "uint256",
							"name": "price",
							"type": "uint256"
						},
						{
							"internalType": "address",
							"name": "seller",
							"type": "address"
						},
						{
							"internalType": "bool",
							"name": "isAvailable",
							"type": "bool"
						}
					],
					"stateMutability": "view",
					"type": "function"
				},
				{
					"inputs": [
						{
							"internalType": "address",
							"name": "",
							"type": "address"
						},
						{
							"internalType": "uint256",
							"name": "",
							"type": "uint256"
						}
					],
					"name": "sellerProducts",
					"outputs": [
						{
							"internalType": "uint256",
							"name": "",
							"type": "uint256"
						}
					],
					"stateMutability": "view",
					"type": "function"
				},
				{
					"inputs": [
						{
							"internalType": "enum Marketplace.Role",
							"name": "_role",
							"type": "uint8"
						}
					],
					"name": "setRole",
					"outputs": [],
					"stateMutability": "nonpayable",
					"type": "function"
				},
				{
					"inputs": [
						{
							"internalType": "address",
							"name": "",
							"type": "address"
						}
					],
					"name": "userRoles",
					"outputs": [
						{
							"internalType": "enum Marketplace.Role",
							"name": "",
							"type": "uint8"
						}
					],
					"stateMutability": "view",
					"type": "function"
				}
			],
			"devdoc": {
				"kind": "dev",
				"methods": {},
				"version": 1
			},
			"evm": {
				"assembly": "    /* \"23_jan.sol\":68:2950  contract Marketplace {... */\n  mstore(0x40, 0x80)\n    /* \"23_jan.sol\":1350:1401  constructor() {... */\n  callvalue\n  dup1\n  iszero\n  tag_1\n  jumpi\n  0x00\n  dup1\n  revert\ntag_1:\n  pop\n    /* \"23_jan.sol\":1383:1393  msg.sender */\n  caller\n    /* \"23_jan.sol\":1375:1380  admin */\n  0x00\n  dup1\n    /* \"23_jan.sol\":1375:1393  admin = msg.sender */\n  0x0100\n  exp\n  dup2\n  sload\n  dup2\n  0xffffffffffffffffffffffffffffffffffffffff\n  mul\n  not\n  and\n  swap1\n  dup4\n  0xffffffffffffffffffffffffffffffffffffffff\n  and\n  mul\n  or\n  swap1\n  sstore\n  pop\n    /* \"23_jan.sol\":68:2950  contract Marketplace {... */\n  dataSize(sub_0)\n  dup1\n  dataOffset(sub_0)\n  0x00\n  codecopy\n  0x00\n  return\nstop\n\nsub_0: assembly {\n        /* \"23_jan.sol\":68:2950  contract Marketplace {... */\n      mstore(0x40, 0x80)\n      callvalue\n      dup1\n      iszero\n      tag_1\n      jumpi\n      0x00\n      dup1\n      revert\n    tag_1:\n      pop\n      jumpi(tag_2, lt(calldatasize, 0x04))\n      shr(0xe0, calldataload(0x00))\n      dup1\n      0xb15247d9\n      gt\n      tag_14\n      jumpi\n      dup1\n      0xb15247d9\n      eq\n      tag_8\n      jumpi\n      dup1\n      0xb6adaaff\n      eq\n      tag_9\n      jumpi\n      dup1\n      0xba2255f4\n      eq\n      tag_10\n      jumpi\n      dup1\n      0xc1302b34\n      eq\n      tag_11\n      jumpi\n      dup1\n      0xef18e9ed\n      eq\n      tag_12\n      jumpi\n      dup1\n      0xf851a440\n      eq\n      tag_13\n      jumpi\n      jump(tag_2)\n    tag_14:\n      dup1\n      0x07f6af8a\n      eq\n      tag_3\n      jumpi\n      dup1\n      0x1f16653b\n      eq\n      tag_4\n      jumpi\n      dup1\n      0x4500cb60\n      eq\n      tag_5\n      jumpi\n      dup1\n      0x74d5e100\n      eq\n      tag_6\n      jumpi\n      dup1\n      0x7acc0b20\n      eq\n      tag_7\n      jumpi\n    tag_2:\n      0x00\n      dup1\n      revert\n        /* \"23_jan.sol\":1409:1574  function setRole(Role _role) external {... */\n    tag_3:\n      tag_15\n      0x04\n      dup1\n      calldatasize\n      sub\n      dup2\n      add\n      swap1\n      tag_16\n      swap2\n      swap1\n      tag_17\n      jump\t// in\n    tag_16:\n      tag_18\n      jump\t// in\n    tag_15:\n      stop\n        /* \"23_jan.sol\":650:679  uint256 public productCounter */\n    tag_4:\n      tag_19\n      tag_20\n      jump\t// in\n    tag_19:\n      mload(0x40)\n      tag_21\n      swap2\n      swap1\n      tag_22\n      jump\t// in\n    tag_21:\n      mload(0x40)\n      dup1\n      swap2\n      sub\n      swap1\n      return\n        /* \"23_jan.sol\":595:641  mapping(address => Order[]) public buyerOrders */\n    tag_5:\n      tag_23\n      0x04\n      dup1\n      calldatasize\n      sub\n      dup2\n      add\n      swap1\n      tag_24\n      swap2\n      swap1\n      tag_25\n      jump\t// in\n    tag_24:\n      tag_26\n      jump\t// in\n    tag_23:\n      mload(0x40)\n      tag_27\n      swap5\n      swap4\n      swap3\n      swap2\n      swap1\n      tag_28\n      jump\t// in\n    tag_27:\n      mload(0x40)\n      dup1\n      swap2\n      sub\n      swap1\n      return\n        /* \"23_jan.sol\":439:480  mapping(address => Role) public userRoles */\n    tag_6:\n      tag_29\n      0x04\n      dup1\n      calldatasize\n      sub\n      dup2\n      add\n      swap1\n      tag_30\n      swap2\n      swap1\n      tag_31\n      jump\t// in\n    tag_30:\n      tag_32\n      jump\t// in\n    tag_29:\n      mload(0x40)\n      tag_33\n      swap2\n      swap1\n      tag_34\n      jump\t// in\n    tag_33:\n      mload(0x40)\n      dup1\n      swap2\n      sub\n      swap1\n      return\n        /* \"23_jan.sol\":487:530  mapping(uint256 => Product) public products */\n    tag_7:\n      tag_35\n      0x04\n      dup1\n      calldatasize\n      sub\n      dup2\n      add\n      swap1\n      tag_36\n      swap2\n      swap1\n      tag_37\n      jump\t// in\n    tag_36:\n      tag_38\n      jump\t// in\n    tag_35:\n      mload(0x40)\n      tag_39\n      swap5\n      swap4\n      swap3\n      swap2\n      swap1\n      tag_40\n      jump\t// in\n    tag_39:\n      mload(0x40)\n      dup1\n      swap2\n      sub\n      swap1\n      return\n        /* \"23_jan.sol\":1582:1955  function addProduct(string memory _name, uint256 _price) external onlySeller {... */\n    tag_8:\n      tag_41\n      0x04\n      dup1\n      calldatasize\n      sub\n      dup2\n      add\n      swap1\n      tag_42\n      swap2\n      swap1\n      tag_43\n      jump\t// in\n    tag_42:\n      tag_44\n      jump\t// in\n    tag_41:\n      stop\n        /* \"23_jan.sol\":2606:2947  function completeOrder(uint256 _orderId) external onlySeller {... */\n    tag_9:\n      tag_45\n      0x04\n      dup1\n      calldatasize\n      sub\n      dup2\n      add\n      swap1\n      tag_46\n      swap2\n      swap1\n      tag_37\n      jump\t// in\n    tag_46:\n      tag_47\n      jump\t// in\n    tag_45:\n      stop\n        /* \"23_jan.sol\":1963:2321  function placeOrder(uint256 _productId) external onlyBuyer {... */\n    tag_10:\n      tag_48\n      0x04\n      dup1\n      calldatasize\n      sub\n      dup2\n      add\n      swap1\n      tag_49\n      swap2\n      swap1\n      tag_37\n      jump\t// in\n    tag_49:\n      tag_50\n      jump\t// in\n    tag_48:\n      stop\n        /* \"23_jan.sol\":537:588  mapping(address => uint256[]) public sellerProducts */\n    tag_11:\n      tag_51\n      0x04\n      dup1\n      calldatasize\n      sub\n      dup2\n      add\n      swap1\n      tag_52\n      swap2\n      swap1\n      tag_25\n      jump\t// in\n    tag_52:\n      tag_53\n      jump\t// in\n    tag_51:\n      mload(0x40)\n      tag_54\n      swap2\n      swap1\n      tag_22\n      jump\t// in\n    tag_54:\n      mload(0x40)\n      dup1\n      swap2\n      sub\n      swap1\n      return\n        /* \"23_jan.sol\":2329:2598  function acceptOrder(uint256 _orderId) external onlySeller {... */\n    tag_12:\n      tag_55\n      0x04\n      dup1\n      calldatasize\n      sub\n      dup2\n      add\n      swap1\n      tag_56\n      swap2\n      swap1\n      tag_37\n      jump\t// in\n    tag_56:\n      tag_57\n      jump\t// in\n    tag_55:\n      stop\n        /* \"23_jan.sol\":96:116  address public admin */\n    tag_13:\n      tag_58\n      tag_59\n      jump\t// in\n    tag_58:\n      mload(0x40)\n      tag_60\n      swap2\n      swap1\n      tag_61\n      jump\t// in\n    tag_60:\n      mload(0x40)\n      dup1\n      swap2\n      sub\n      swap1\n      return\n        /* \"23_jan.sol\":1409:1574  function setRole(Role _role) external {... */\n    tag_18:\n        /* \"23_jan.sol\":1491:1500  Role.None */\n      0x00\n        /* \"23_jan.sol\":1466:1500  userRoles[msg.sender] == Role.None */\n      0x02\n      dup2\n      gt\n      iszero\n      tag_63\n      jumpi\n      tag_64\n      tag_65\n      jump\t// in\n    tag_64:\n    tag_63:\n        /* \"23_jan.sol\":1466:1475  userRoles */\n      0x01\n        /* \"23_jan.sol\":1466:1487  userRoles[msg.sender] */\n      0x00\n        /* \"23_jan.sol\":1476:1486  msg.sender */\n      caller\n        /* \"23_jan.sol\":1466:1487  userRoles[msg.sender] */\n      0xffffffffffffffffffffffffffffffffffffffff\n      and\n      0xffffffffffffffffffffffffffffffffffffffff\n      and\n      dup2\n      mstore\n      0x20\n      add\n      swap1\n      dup2\n      mstore\n      0x20\n      add\n      0x00\n      keccak256\n      0x00\n      swap1\n      sload\n      swap1\n      0x0100\n      exp\n      swap1\n      div\n      0xff\n      and\n        /* \"23_jan.sol\":1466:1500  userRoles[msg.sender] == Role.None */\n      0x02\n      dup2\n      gt\n      iszero\n      tag_66\n      jumpi\n      tag_67\n      tag_65\n      jump\t// in\n    tag_67:\n    tag_66:\n      eq\n        /* \"23_jan.sol\":1458:1526  require(userRoles[msg.sender] == Role.None, \"User role already set\") */\n      tag_68\n      jumpi\n      mload(0x40)\n      0x08c379a000000000000000000000000000000000000000000000000000000000\n      dup2\n      mstore\n      0x04\n      add\n      tag_69\n      swap1\n      tag_70\n      jump\t// in\n    tag_69:\n      mload(0x40)\n      dup1\n      swap2\n      sub\n      swap1\n      revert\n    tag_68:\n        /* \"23_jan.sol\":1561:1566  _role */\n      dup1\n        /* \"23_jan.sol\":1537:1546  userRoles */\n      0x01\n        /* \"23_jan.sol\":1537:1558  userRoles[msg.sender] */\n      0x00\n        /* \"23_jan.sol\":1547:1557  msg.sender */\n      caller\n        /* \"23_jan.sol\":1537:1558  userRoles[msg.sender] */\n      0xffffffffffffffffffffffffffffffffffffffff\n      and\n      0xffffffffffffffffffffffffffffffffffffffff\n      and\n      dup2\n      mstore\n      0x20\n      add\n      swap1\n      dup2\n      mstore\n      0x20\n      add\n      0x00\n      keccak256\n      0x00\n        /* \"23_jan.sol\":1537:1566  userRoles[msg.sender] = _role */\n      0x0100\n      exp\n      dup2\n      sload\n      dup2\n      0xff\n      mul\n      not\n      and\n      swap1\n      dup4\n      0x02\n      dup2\n      gt\n      iszero\n      tag_71\n      jumpi\n      tag_72\n      tag_65\n      jump\t// in\n    tag_72:\n    tag_71:\n      mul\n      or\n      swap1\n      sstore\n      pop\n        /* \"23_jan.sol\":1409:1574  function setRole(Role _role) external {... */\n      pop\n      jump\t// out\n        /* \"23_jan.sol\":650:679  uint256 public productCounter */\n    tag_20:\n      sload(0x05)\n      dup2\n      jump\t// out\n        /* \"23_jan.sol\":595:641  mapping(address => Order[]) public buyerOrders */\n    tag_26:\n      mstore(0x20, 0x04)\n      dup2\n      0x00\n      mstore\n      keccak256(0x00, 0x40)\n      dup2\n      dup2\n      sload\n      dup2\n      lt\n      tag_73\n      jumpi\n      0x00\n      dup1\n      revert\n    tag_73:\n      swap1\n      0x00\n      mstore\n      keccak256(0x00, 0x20)\n      swap1\n      0x02\n      mul\n      add\n      0x00\n      swap2\n      pop\n      swap2\n      pop\n      pop\n      dup1\n      0x00\n      add\n      sload\n      swap1\n      dup1\n      0x01\n      add\n      0x00\n      swap1\n      sload\n      swap1\n      0x0100\n      exp\n      swap1\n      div\n      0xffffffffffffffffffffffffffffffffffffffff\n      and\n      swap1\n      dup1\n      0x01\n      add\n      0x14\n      swap1\n      sload\n      swap1\n      0x0100\n      exp\n      swap1\n      div\n      0xff\n      and\n      swap1\n      dup1\n      0x01\n      add\n      0x15\n      swap1\n      sload\n      swap1\n      0x0100\n      exp\n      swap1\n      div\n      0xff\n      and\n      swap1\n      pop\n      dup5\n      jump\t// out\n        /* \"23_jan.sol\":439:480  mapping(address => Role) public userRoles */\n    tag_32:\n      mstore(0x20, 0x01)\n      dup1\n      0x00\n      mstore\n      keccak256(0x00, 0x40)\n      0x00\n      swap2\n      pop\n      sload\n      swap1\n      0x0100\n      exp\n      swap1\n      div\n      0xff\n      and\n      dup2\n      jump\t// out\n        /* \"23_jan.sol\":487:530  mapping(uint256 => Product) public products */\n    tag_38:\n      mstore(0x20, 0x02)\n      dup1\n      0x00\n      mstore\n      keccak256(0x00, 0x40)\n      0x00\n      swap2\n      pop\n      swap1\n      pop\n      dup1\n      0x00\n      add\n      dup1\n      sload\n      tag_75\n      swap1\n      tag_76\n      jump\t// in\n    tag_75:\n      dup1\n      0x1f\n      add\n      0x20\n      dup1\n      swap2\n      div\n      mul\n      0x20\n      add\n      mload(0x40)\n      swap1\n      dup2\n      add\n      0x40\n      mstore\n      dup1\n      swap3\n      swap2\n      swap1\n      dup2\n      dup2\n      mstore\n      0x20\n      add\n      dup3\n      dup1\n      sload\n      tag_77\n      swap1\n      tag_76\n      jump\t// in\n    tag_77:\n      dup1\n      iszero\n      tag_78\n      jumpi\n      dup1\n      0x1f\n      lt\n      tag_79\n      jumpi\n      0x0100\n      dup1\n      dup4\n      sload\n      div\n      mul\n      dup4\n      mstore\n      swap2\n      0x20\n      add\n      swap2\n      jump(tag_78)\n    tag_79:\n      dup3\n      add\n      swap2\n      swap1\n      0x00\n      mstore\n      keccak256(0x00, 0x20)\n      swap1\n    tag_80:\n      dup2\n      sload\n      dup2\n      mstore\n      swap1\n      0x01\n      add\n      swap1\n      0x20\n      add\n      dup1\n      dup4\n      gt\n      tag_80\n      jumpi\n      dup3\n      swap1\n      sub\n      0x1f\n      and\n      dup3\n      add\n      swap2\n    tag_78:\n      pop\n      pop\n      pop\n      pop\n      pop\n      swap1\n      dup1\n      0x01\n      add\n      sload\n      swap1\n      dup1\n      0x02\n      add\n      0x00\n      swap1\n      sload\n      swap1\n      0x0100\n      exp\n      swap1\n      div\n      0xffffffffffffffffffffffffffffffffffffffff\n      and\n      swap1\n      dup1\n      0x02\n      add\n      0x14\n      swap1\n      sload\n      swap1\n      0x0100\n      exp\n      swap1\n      div\n      0xff\n      and\n      swap1\n      pop\n      dup5\n      jump\t// out\n        /* \"23_jan.sol\":1582:1955  function addProduct(string memory _name, uint256 _price) external onlySeller {... */\n    tag_44:\n        /* \"23_jan.sol\":1131:1142  Role.Seller */\n      0x02\n        /* \"23_jan.sol\":1106:1142  userRoles[msg.sender] == Role.Seller */\n      dup1\n      dup2\n      gt\n      iszero\n      tag_82\n      jumpi\n      tag_83\n      tag_65\n      jump\t// in\n    tag_83:\n    tag_82:\n        /* \"23_jan.sol\":1106:1115  userRoles */\n      0x01\n        /* \"23_jan.sol\":1106:1127  userRoles[msg.sender] */\n      0x00\n        /* \"23_jan.sol\":1116:1126  msg.sender */\n      caller\n        /* \"23_jan.sol\":1106:1127  userRoles[msg.sender] */\n      0xffffffffffffffffffffffffffffffffffffffff\n      and\n      0xffffffffffffffffffffffffffffffffffffffff\n      and\n      dup2\n      mstore\n      0x20\n      add\n      swap1\n      dup2\n      mstore\n      0x20\n      add\n      0x00\n      keccak256\n      0x00\n      swap1\n      sload\n      swap1\n      0x0100\n      exp\n      swap1\n      div\n      0xff\n      and\n        /* \"23_jan.sol\":1106:1142  userRoles[msg.sender] == Role.Seller */\n      0x02\n      dup2\n      gt\n      iszero\n      tag_84\n      jumpi\n      tag_85\n      tag_65\n      jump\t// in\n    tag_85:\n    tag_84:\n      eq\n        /* \"23_jan.sol\":1098:1181  require(userRoles[msg.sender] == Role.Seller, \"Only seller can call this function\") */\n      tag_86\n      jumpi\n      mload(0x40)\n      0x08c379a000000000000000000000000000000000000000000000000000000000\n      dup2\n      mstore\n      0x04\n      add\n      tag_87\n      swap1\n      tag_88\n      jump\t// in\n    tag_87:\n      mload(0x40)\n      dup1\n      swap2\n      sub\n      swap1\n      revert\n    tag_86:\n        /* \"23_jan.sol\":1670:1687  uint256 productId */\n      0x00\n        /* \"23_jan.sol\":1690:1704  productCounter */\n      0x05\n      0x00\n        /* \"23_jan.sol\":1690:1706  productCounter++ */\n      dup2\n      sload\n      dup1\n      swap3\n      swap2\n      swap1\n      tag_90\n      swap1\n      tag_91\n      jump\t// in\n    tag_90:\n      swap2\n      swap1\n      pop\n      sstore\n        /* \"23_jan.sol\":1670:1706  uint256 productId = productCounter++ */\n      swap1\n      pop\n        /* \"23_jan.sol\":1717:1742  Product memory newProduct */\n      0x00\n        /* \"23_jan.sol\":1745:1785  Product(_name, _price, msg.sender, true) */\n      mload(0x40)\n      dup1\n      0x80\n      add\n      0x40\n      mstore\n      dup1\n        /* \"23_jan.sol\":1753:1758  _name */\n      dup6\n        /* \"23_jan.sol\":1745:1785  Product(_name, _price, msg.sender, true) */\n      dup2\n      mstore\n      0x20\n      add\n        /* \"23_jan.sol\":1760:1766  _price */\n      dup5\n        /* \"23_jan.sol\":1745:1785  Product(_name, _price, msg.sender, true) */\n      dup2\n      mstore\n      0x20\n      add\n        /* \"23_jan.sol\":1768:1778  msg.sender */\n      caller\n        /* \"23_jan.sol\":1745:1785  Product(_name, _price, msg.sender, true) */\n      0xffffffffffffffffffffffffffffffffffffffff\n      and\n      dup2\n      mstore\n      0x20\n      add\n        /* \"23_jan.sol\":1780:1784  true */\n      0x01\n        /* \"23_jan.sol\":1745:1785  Product(_name, _price, msg.sender, true) */\n      iszero\n      iszero\n      dup2\n      mstore\n      pop\n        /* \"23_jan.sol\":1717:1785  Product memory newProduct = Product(_name, _price, msg.sender, true) */\n      swap1\n      pop\n        /* \"23_jan.sol\":1818:1828  newProduct */\n      dup1\n        /* \"23_jan.sol\":1796:1804  products */\n      0x02\n        /* \"23_jan.sol\":1796:1815  products[productId] */\n      0x00\n        /* \"23_jan.sol\":1805:1814  productId */\n      dup5\n        /* \"23_jan.sol\":1796:1815  products[productId] */\n      dup2\n      mstore\n      0x20\n      add\n      swap1\n      dup2\n      mstore\n      0x20\n      add\n      0x00\n      keccak256\n        /* \"23_jan.sol\":1796:1828  products[productId] = newProduct */\n      0x00\n      dup3\n      add\n      mload\n      dup2\n      0x00\n      add\n      swap1\n      dup2\n      tag_92\n      swap2\n      swap1\n      tag_93\n      jump\t// in\n    tag_92:\n      pop\n      0x20\n      dup3\n      add\n      mload\n      dup2\n      0x01\n      add\n      sstore\n      0x40\n      dup3\n      add\n      mload\n      dup2\n      0x02\n      add\n      exp(0x0100, 0x00)\n      dup2\n      sload\n      dup2\n      0xffffffffffffffffffffffffffffffffffffffff\n      mul\n      not\n      and\n      swap1\n      dup4\n      0xffffffffffffffffffffffffffffffffffffffff\n      and\n      mul\n      or\n      swap1\n      sstore\n      pop\n      0x60\n      dup3\n      add\n      mload\n      dup2\n      0x02\n      add\n      exp(0x0100, 0x14)\n      dup2\n      sload\n      dup2\n      0xff\n      mul\n      not\n      and\n      swap1\n      dup4\n      iszero\n      iszero\n      mul\n      or\n      swap1\n      sstore\n      pop\n      swap1\n      pop\n      pop\n        /* \"23_jan.sol\":1839:1853  sellerProducts */\n      0x03\n        /* \"23_jan.sol\":1839:1865  sellerProducts[msg.sender] */\n      0x00\n        /* \"23_jan.sol\":1854:1864  msg.sender */\n      caller\n        /* \"23_jan.sol\":1839:1865  sellerProducts[msg.sender] */\n      0xffffffffffffffffffffffffffffffffffffffff\n      and\n      0xffffffffffffffffffffffffffffffffffffffff\n      and\n      dup2\n      mstore\n      0x20\n      add\n      swap1\n      dup2\n      mstore\n      0x20\n      add\n      0x00\n      keccak256\n        /* \"23_jan.sol\":1871:1880  productId */\n      dup3\n        /* \"23_jan.sol\":1839:1881  sellerProducts[msg.sender].push(productId) */\n      swap1\n      dup1\n      0x01\n      dup2\n      sload\n      add\n      dup1\n      dup3\n      sstore\n      dup1\n      swap2\n      pop\n      pop\n      0x01\n      swap1\n      sub\n      swap1\n      0x00\n      mstore\n      keccak256(0x00, 0x20)\n      add\n      0x00\n      swap1\n      swap2\n      swap1\n      swap2\n      swap1\n      swap2\n      pop\n      sstore\n        /* \"23_jan.sol\":1897:1947  ProductAdded(productId, _name, _price, msg.sender) */\n      0x52402cafb2ecec722b103e8f203f83362148c168659dc96678c2c6850d12dd9f\n        /* \"23_jan.sol\":1910:1919  productId */\n      dup3\n        /* \"23_jan.sol\":1921:1926  _name */\n      dup6\n        /* \"23_jan.sol\":1928:1934  _price */\n      dup6\n        /* \"23_jan.sol\":1936:1946  msg.sender */\n      caller\n        /* \"23_jan.sol\":1897:1947  ProductAdded(productId, _name, _price, msg.sender) */\n      mload(0x40)\n      tag_95\n      swap5\n      swap4\n      swap3\n      swap2\n      swap1\n      tag_96\n      jump\t// in\n    tag_95:\n      mload(0x40)\n      dup1\n      swap2\n      sub\n      swap1\n      log1\n        /* \"23_jan.sol\":1659:1955  {... */\n      pop\n      pop\n        /* \"23_jan.sol\":1582:1955  function addProduct(string memory _name, uint256 _price) external onlySeller {... */\n      pop\n      pop\n      jump\t// out\n        /* \"23_jan.sol\":2606:2947  function completeOrder(uint256 _orderId) external onlySeller {... */\n    tag_47:\n        /* \"23_jan.sol\":1131:1142  Role.Seller */\n      0x02\n        /* \"23_jan.sol\":1106:1142  userRoles[msg.sender] == Role.Seller */\n      dup1\n      dup2\n      gt\n      iszero\n      tag_98\n      jumpi\n      tag_99\n      tag_65\n      jump\t// in\n    tag_99:\n    tag_98:\n        /* \"23_jan.sol\":1106:1115  userRoles */\n      0x01\n        /* \"23_jan.sol\":1106:1127  userRoles[msg.sender] */\n      0x00\n        /* \"23_jan.sol\":1116:1126  msg.sender */\n      caller\n        /* \"23_jan.sol\":1106:1127  userRoles[msg.sender] */\n      0xffffffffffffffffffffffffffffffffffffffff\n      and\n      0xffffffffffffffffffffffffffffffffffffffff\n      and\n      dup2\n      mstore\n      0x20\n      add\n      swap1\n      dup2\n      mstore\n      0x20\n      add\n      0x00\n      keccak256\n      0x00\n      swap1\n      sload\n      swap1\n      0x0100\n      exp\n      swap1\n      div\n      0xff\n      and\n        /* \"23_jan.sol\":1106:1142  userRoles[msg.sender] == Role.Seller */\n      0x02\n      dup2\n      gt\n      iszero\n      tag_100\n      jumpi\n      tag_101\n      tag_65\n      jump\t// in\n    tag_101:\n    tag_100:\n      eq\n        /* \"23_jan.sol\":1098:1181  require(userRoles[msg.sender] == Role.Seller, \"Only seller can call this function\") */\n      tag_102\n      jumpi\n      mload(0x40)\n      0x08c379a000000000000000000000000000000000000000000000000000000000\n      dup2\n      mstore\n      0x04\n      add\n      tag_103\n      swap1\n      tag_88\n      jump\t// in\n    tag_103:\n      mload(0x40)\n      dup1\n      swap2\n      sub\n      swap1\n      revert\n    tag_102:\n        /* \"23_jan.sol\":2678:2697  Order storage order */\n      0x00\n        /* \"23_jan.sol\":2700:2711  buyerOrders */\n      0x04\n        /* \"23_jan.sol\":2700:2723  buyerOrders[msg.sender] */\n      0x00\n        /* \"23_jan.sol\":2712:2722  msg.sender */\n      caller\n        /* \"23_jan.sol\":2700:2723  buyerOrders[msg.sender] */\n      0xffffffffffffffffffffffffffffffffffffffff\n      and\n      0xffffffffffffffffffffffffffffffffffffffff\n      and\n      dup2\n      mstore\n      0x20\n      add\n      swap1\n      dup2\n      mstore\n      0x20\n      add\n      0x00\n      keccak256\n        /* \"23_jan.sol\":2724:2732  _orderId */\n      dup3\n        /* \"23_jan.sol\":2700:2733  buyerOrders[msg.sender][_orderId] */\n      dup2\n      sload\n      dup2\n      lt\n      tag_105\n      jumpi\n      tag_106\n      tag_107\n      jump\t// in\n    tag_106:\n    tag_105:\n      swap1\n      0x00\n      mstore\n      keccak256(0x00, 0x20)\n      swap1\n      0x02\n      mul\n      add\n        /* \"23_jan.sol\":2678:2733  Order storage order = buyerOrders[msg.sender][_orderId] */\n      swap1\n      pop\n        /* \"23_jan.sol\":2752:2757  order */\n      dup1\n        /* \"23_jan.sol\":2752:2768  order.isAccepted */\n      0x01\n      add\n      0x14\n      swap1\n      sload\n      swap1\n      0x0100\n      exp\n      swap1\n      div\n      0xff\n      and\n        /* \"23_jan.sol\":2752:2790  order.isAccepted && !order.isCompleted */\n      dup1\n      iszero\n      tag_109\n      jumpi\n      pop\n        /* \"23_jan.sol\":2773:2778  order */\n      dup1\n        /* \"23_jan.sol\":2773:2790  order.isCompleted */\n      0x01\n      add\n      0x15\n      swap1\n      sload\n      swap1\n      0x0100\n      exp\n      swap1\n      div\n      0xff\n      and\n        /* \"23_jan.sol\":2772:2790  !order.isCompleted */\n      iszero\n        /* \"23_jan.sol\":2752:2790  order.isAccepted && !order.isCompleted */\n    tag_109:\n        /* \"23_jan.sol\":2744:2808  require(order.isAccepted && !order.isCompleted, \"Invalid order\") */\n      tag_110\n      jumpi\n      mload(0x40)\n      0x08c379a000000000000000000000000000000000000000000000000000000000\n      dup2\n      mstore\n      0x04\n      add\n      tag_111\n      swap1\n      tag_112\n      jump\t// in\n    tag_111:\n      mload(0x40)\n      dup1\n      swap2\n      sub\n      swap1\n      revert\n    tag_110:\n        /* \"23_jan.sol\":2839:2843  true */\n      0x01\n        /* \"23_jan.sol\":2819:2824  order */\n      dup2\n        /* \"23_jan.sol\":2819:2836  order.isCompleted */\n      0x01\n      add\n      0x15\n        /* \"23_jan.sol\":2819:2843  order.isCompleted = true */\n      0x0100\n      exp\n      dup2\n      sload\n      dup2\n      0xff\n      mul\n      not\n      and\n      swap1\n      dup4\n      iszero\n      iszero\n      mul\n      or\n      swap1\n      sstore\n      pop\n        /* \"23_jan.sol\":2894:2899  false */\n      0x00\n        /* \"23_jan.sol\":2854:2862  products */\n      0x02\n        /* \"23_jan.sol\":2854:2879  products[order.productId] */\n      0x00\n        /* \"23_jan.sol\":2863:2868  order */\n      dup4\n        /* \"23_jan.sol\":2863:2878  order.productId */\n      0x00\n      add\n      sload\n        /* \"23_jan.sol\":2854:2879  products[order.productId] */\n      dup2\n      mstore\n      0x20\n      add\n      swap1\n      dup2\n      mstore\n      0x20\n      add\n      0x00\n      keccak256\n        /* \"23_jan.sol\":2854:2891  products[order.productId].isAvailable */\n      0x02\n      add\n      0x14\n        /* \"23_jan.sol\":2854:2899  products[order.productId].isAvailable = false */\n      0x0100\n      exp\n      dup2\n      sload\n      dup2\n      0xff\n      mul\n      not\n      and\n      swap1\n      dup4\n      iszero\n      iszero\n      mul\n      or\n      swap1\n      sstore\n      pop\n        /* \"23_jan.sol\":2915:2939  OrderCompleted(_orderId) */\n      0x02a7d4d9472af7118644884b9a0ee443540c0027e938dd0aa35be8ecbe946c0a\n        /* \"23_jan.sol\":2930:2938  _orderId */\n      dup3\n        /* \"23_jan.sol\":2915:2939  OrderCompleted(_orderId) */\n      mload(0x40)\n      tag_113\n      swap2\n      swap1\n      tag_22\n      jump\t// in\n    tag_113:\n      mload(0x40)\n      dup1\n      swap2\n      sub\n      swap1\n      log1\n        /* \"23_jan.sol\":2667:2947  {... */\n      pop\n        /* \"23_jan.sol\":2606:2947  function completeOrder(uint256 _orderId) external onlySeller {... */\n      pop\n      jump\t// out\n        /* \"23_jan.sol\":1963:2321  function placeOrder(uint256 _productId) external onlyBuyer {... */\n    tag_50:\n        /* \"23_jan.sol\":1274:1284  Role.Buyer */\n      0x01\n        /* \"23_jan.sol\":1249:1284  userRoles[msg.sender] == Role.Buyer */\n      0x02\n      dup2\n      gt\n      iszero\n      tag_115\n      jumpi\n      tag_116\n      tag_65\n      jump\t// in\n    tag_116:\n    tag_115:\n        /* \"23_jan.sol\":1249:1258  userRoles */\n      0x01\n        /* \"23_jan.sol\":1249:1270  userRoles[msg.sender] */\n      0x00\n        /* \"23_jan.sol\":1259:1269  msg.sender */\n      caller\n        /* \"23_jan.sol\":1249:1270  userRoles[msg.sender] */\n      0xffffffffffffffffffffffffffffffffffffffff\n      and\n      0xffffffffffffffffffffffffffffffffffffffff\n      and\n      dup2\n      mstore\n      0x20\n      add\n      swap1\n      dup2\n      mstore\n      0x20\n      add\n      0x00\n      keccak256\n      0x00\n      swap1\n      sload\n      swap1\n      0x0100\n      exp\n      swap1\n      div\n      0xff\n      and\n        /* \"23_jan.sol\":1249:1284  userRoles[msg.sender] == Role.Buyer */\n      0x02\n      dup2\n      gt\n      iszero\n      tag_117\n      jumpi\n      tag_118\n      tag_65\n      jump\t// in\n    tag_118:\n    tag_117:\n      eq\n        /* \"23_jan.sol\":1241:1322  require(userRoles[msg.sender] == Role.Buyer, \"Only buyer can call this function\") */\n      tag_119\n      jumpi\n      mload(0x40)\n      0x08c379a000000000000000000000000000000000000000000000000000000000\n      dup2\n      mstore\n      0x04\n      add\n      tag_120\n      swap1\n      tag_121\n      jump\t// in\n    tag_120:\n      mload(0x40)\n      dup1\n      swap2\n      sub\n      swap1\n      revert\n    tag_119:\n        /* \"23_jan.sol\":2041:2049  products */\n      0x02\n        /* \"23_jan.sol\":2041:2061  products[_productId] */\n      0x00\n        /* \"23_jan.sol\":2050:2060  _productId */\n      dup3\n        /* \"23_jan.sol\":2041:2061  products[_productId] */\n      dup2\n      mstore\n      0x20\n      add\n      swap1\n      dup2\n      mstore\n      0x20\n      add\n      0x00\n      keccak256\n        /* \"23_jan.sol\":2041:2073  products[_productId].isAvailable */\n      0x02\n      add\n      0x14\n      swap1\n      sload\n      swap1\n      0x0100\n      exp\n      swap1\n      div\n      0xff\n      and\n        /* \"23_jan.sol\":2033:2099  require(products[_productId].isAvailable, \"Product not available\") */\n      tag_123\n      jumpi\n      mload(0x40)\n      0x08c379a000000000000000000000000000000000000000000000000000000000\n      dup2\n      mstore\n      0x04\n      add\n      tag_124\n      swap1\n      tag_125\n      jump\t// in\n    tag_124:\n      mload(0x40)\n      dup1\n      swap2\n      sub\n      swap1\n      revert\n    tag_123:\n        /* \"23_jan.sol\":2110:2131  Order memory newOrder */\n      0x00\n        /* \"23_jan.sol\":2134:2177  Order(_productId, msg.sender, false, false) */\n      mload(0x40)\n      dup1\n      0x80\n      add\n      0x40\n      mstore\n      dup1\n        /* \"23_jan.sol\":2140:2150  _productId */\n      dup4\n        /* \"23_jan.sol\":2134:2177  Order(_productId, msg.sender, false, false) */\n      dup2\n      mstore\n      0x20\n      add\n        /* \"23_jan.sol\":2152:2162  msg.sender */\n      caller\n        /* \"23_jan.sol\":2134:2177  Order(_productId, msg.sender, false, false) */\n      0xffffffffffffffffffffffffffffffffffffffff\n      and\n      dup2\n      mstore\n      0x20\n      add\n        /* \"23_jan.sol\":2164:2169  false */\n      0x00\n        /* \"23_jan.sol\":2134:2177  Order(_productId, msg.sender, false, false) */\n      iszero\n      iszero\n      dup2\n      mstore\n      0x20\n      add\n        /* \"23_jan.sol\":2171:2176  false */\n      0x00\n        /* \"23_jan.sol\":2134:2177  Order(_productId, msg.sender, false, false) */\n      iszero\n      iszero\n      dup2\n      mstore\n      pop\n        /* \"23_jan.sol\":2110:2177  Order memory newOrder = Order(_productId, msg.sender, false, false) */\n      swap1\n      pop\n        /* \"23_jan.sol\":2188:2199  buyerOrders */\n      0x04\n        /* \"23_jan.sol\":2188:2211  buyerOrders[msg.sender] */\n      0x00\n        /* \"23_jan.sol\":2200:2210  msg.sender */\n      caller\n        /* \"23_jan.sol\":2188:2211  buyerOrders[msg.sender] */\n      0xffffffffffffffffffffffffffffffffffffffff\n      and\n      0xffffffffffffffffffffffffffffffffffffffff\n      and\n      dup2\n      mstore\n      0x20\n      add\n      swap1\n      dup2\n      mstore\n      0x20\n      add\n      0x00\n      keccak256\n        /* \"23_jan.sol\":2217:2225  newOrder */\n      dup2\n        /* \"23_jan.sol\":2188:2226  buyerOrders[msg.sender].push(newOrder) */\n      swap1\n      dup1\n      0x01\n      dup2\n      sload\n      add\n      dup1\n      dup3\n      sstore\n      dup1\n      swap2\n      pop\n      pop\n      0x01\n      swap1\n      sub\n      swap1\n      0x00\n      mstore\n      keccak256(0x00, 0x20)\n      swap1\n      0x02\n      mul\n      add\n      0x00\n      swap1\n      swap2\n      swap1\n      swap2\n      swap1\n      swap2\n      pop\n      0x00\n      dup3\n      add\n      mload\n      dup2\n      0x00\n      add\n      sstore\n      0x20\n      dup3\n      add\n      mload\n      dup2\n      0x01\n      add\n      exp(0x0100, 0x00)\n      dup2\n      sload\n      dup2\n      0xffffffffffffffffffffffffffffffffffffffff\n      mul\n      not\n      and\n      swap1\n      dup4\n      0xffffffffffffffffffffffffffffffffffffffff\n      and\n      mul\n      or\n      swap1\n      sstore\n      pop\n      0x40\n      dup3\n      add\n      mload\n      dup2\n      0x01\n      add\n      exp(0x0100, 0x14)\n      dup2\n      sload\n      dup2\n      0xff\n      mul\n      not\n      and\n      swap1\n      dup4\n      iszero\n      iszero\n      mul\n      or\n      swap1\n      sstore\n      pop\n      0x60\n      dup3\n      add\n      mload\n      dup2\n      0x01\n      add\n      exp(0x0100, 0x15)\n      dup2\n      sload\n      dup2\n      0xff\n      mul\n      not\n      and\n      swap1\n      dup4\n      iszero\n      iszero\n      mul\n      or\n      swap1\n      sstore\n      pop\n      pop\n      pop\n        /* \"23_jan.sol\":2242:2313  OrderPlaced(buyerOrders[msg.sender].length - 1, _productId, msg.sender) */\n      0xf4ae361d67df8ff151337122b70e54414e64545e71dd154d79408677451fd874\n        /* \"23_jan.sol\":2287:2288  1 */\n      0x01\n        /* \"23_jan.sol\":2254:2265  buyerOrders */\n      0x04\n        /* \"23_jan.sol\":2254:2277  buyerOrders[msg.sender] */\n      0x00\n        /* \"23_jan.sol\":2266:2276  msg.sender */\n      caller\n        /* \"23_jan.sol\":2254:2277  buyerOrders[msg.sender] */\n      0xffffffffffffffffffffffffffffffffffffffff\n      and\n      0xffffffffffffffffffffffffffffffffffffffff\n      and\n      dup2\n      mstore\n      0x20\n      add\n      swap1\n      dup2\n      mstore\n      0x20\n      add\n      0x00\n      keccak256\n        /* \"23_jan.sol\":2254:2284  buyerOrders[msg.sender].length */\n      dup1\n      sload\n      swap1\n      pop\n        /* \"23_jan.sol\":2254:2288  buyerOrders[msg.sender].length - 1 */\n      tag_127\n      swap2\n      swap1\n      tag_128\n      jump\t// in\n    tag_127:\n        /* \"23_jan.sol\":2290:2300  _productId */\n      dup4\n        /* \"23_jan.sol\":2302:2312  msg.sender */\n      caller\n        /* \"23_jan.sol\":2242:2313  OrderPlaced(buyerOrders[msg.sender].length - 1, _productId, msg.sender) */\n      mload(0x40)\n      tag_129\n      swap4\n      swap3\n      swap2\n      swap1\n      tag_130\n      jump\t// in\n    tag_129:\n      mload(0x40)\n      dup1\n      swap2\n      sub\n      swap1\n      log1\n        /* \"23_jan.sol\":2022:2321  {... */\n      pop\n        /* \"23_jan.sol\":1963:2321  function placeOrder(uint256 _productId) external onlyBuyer {... */\n      pop\n      jump\t// out\n        /* \"23_jan.sol\":537:588  mapping(address => uint256[]) public sellerProducts */\n    tag_53:\n      mstore(0x20, 0x03)\n      dup2\n      0x00\n      mstore\n      keccak256(0x00, 0x40)\n      dup2\n      dup2\n      sload\n      dup2\n      lt\n      tag_131\n      jumpi\n      0x00\n      dup1\n      revert\n    tag_131:\n      swap1\n      0x00\n      mstore\n      keccak256(0x00, 0x20)\n      add\n      0x00\n      swap2\n      pop\n      swap2\n      pop\n      pop\n      sload\n      dup2\n      jump\t// out\n        /* \"23_jan.sol\":2329:2598  function acceptOrder(uint256 _orderId) external onlySeller {... */\n    tag_57:\n        /* \"23_jan.sol\":1131:1142  Role.Seller */\n      0x02\n        /* \"23_jan.sol\":1106:1142  userRoles[msg.sender] == Role.Seller */\n      dup1\n      dup2\n      gt\n      iszero\n      tag_134\n      jumpi\n      tag_135\n      tag_65\n      jump\t// in\n    tag_135:\n    tag_134:\n        /* \"23_jan.sol\":1106:1115  userRoles */\n      0x01\n        /* \"23_jan.sol\":1106:1127  userRoles[msg.sender] */\n      0x00\n        /* \"23_jan.sol\":1116:1126  msg.sender */\n      caller\n        /* \"23_jan.sol\":1106:1127  userRoles[msg.sender] */\n      0xffffffffffffffffffffffffffffffffffffffff\n      and\n      0xffffffffffffffffffffffffffffffffffffffff\n      and\n      dup2\n      mstore\n      0x20\n      add\n      swap1\n      dup2\n      mstore\n      0x20\n      add\n      0x00\n      keccak256\n      0x00\n      swap1\n      sload\n      swap1\n      0x0100\n      exp\n      swap1\n      div\n      0xff\n      and\n        /* \"23_jan.sol\":1106:1142  userRoles[msg.sender] == Role.Seller */\n      0x02\n      dup2\n      gt\n      iszero\n      tag_136\n      jumpi\n      tag_137\n      tag_65\n      jump\t// in\n    tag_137:\n    tag_136:\n      eq\n        /* \"23_jan.sol\":1098:1181  require(userRoles[msg.sender] == Role.Seller, \"Only seller can call this function\") */\n      tag_138\n      jumpi\n      mload(0x40)\n      0x08c379a000000000000000000000000000000000000000000000000000000000\n      dup2\n      mstore\n      0x04\n      add\n      tag_139\n      swap1\n      tag_88\n      jump\t// in\n    tag_139:\n      mload(0x40)\n      dup1\n      swap2\n      sub\n      swap1\n      revert\n    tag_138:\n        /* \"23_jan.sol\":2399:2418  Order storage order */\n      0x00\n        /* \"23_jan.sol\":2421:2432  buyerOrders */\n      0x04\n        /* \"23_jan.sol\":2421:2444  buyerOrders[msg.sender] */\n      0x00\n        /* \"23_jan.sol\":2433:2443  msg.sender */\n      caller\n        /* \"23_jan.sol\":2421:2444  buyerOrders[msg.sender] */\n      0xffffffffffffffffffffffffffffffffffffffff\n      and\n      0xffffffffffffffffffffffffffffffffffffffff\n      and\n      dup2\n      mstore\n      0x20\n      add\n      swap1\n      dup2\n      mstore\n      0x20\n      add\n      0x00\n      keccak256\n        /* \"23_jan.sol\":2445:2453  _orderId */\n      dup3\n        /* \"23_jan.sol\":2421:2454  buyerOrders[msg.sender][_orderId] */\n      dup2\n      sload\n      dup2\n      lt\n      tag_141\n      jumpi\n      tag_142\n      tag_107\n      jump\t// in\n    tag_142:\n    tag_141:\n      swap1\n      0x00\n      mstore\n      keccak256(0x00, 0x20)\n      swap1\n      0x02\n      mul\n      add\n        /* \"23_jan.sol\":2399:2454  Order storage order = buyerOrders[msg.sender][_orderId] */\n      swap1\n      pop\n        /* \"23_jan.sol\":2474:2479  order */\n      dup1\n        /* \"23_jan.sol\":2474:2490  order.isAccepted */\n      0x01\n      add\n      0x14\n      swap1\n      sload\n      swap1\n      0x0100\n      exp\n      swap1\n      div\n      0xff\n      and\n        /* \"23_jan.sol\":2473:2490  !order.isAccepted */\n      iszero\n        /* \"23_jan.sol\":2465:2517  require(!order.isAccepted, \"Order already accepted\") */\n      tag_144\n      jumpi\n      mload(0x40)\n      0x08c379a000000000000000000000000000000000000000000000000000000000\n      dup2\n      mstore\n      0x04\n      add\n      tag_145\n      swap1\n      tag_146\n      jump\t// in\n    tag_145:\n      mload(0x40)\n      dup1\n      swap2\n      sub\n      swap1\n      revert\n    tag_144:\n        /* \"23_jan.sol\":2547:2551  true */\n      0x01\n        /* \"23_jan.sol\":2528:2533  order */\n      dup2\n        /* \"23_jan.sol\":2528:2544  order.isAccepted */\n      0x01\n      add\n      0x14\n        /* \"23_jan.sol\":2528:2551  order.isAccepted = true */\n      0x0100\n      exp\n      dup2\n      sload\n      dup2\n      0xff\n      mul\n      not\n      and\n      swap1\n      dup4\n      iszero\n      iszero\n      mul\n      or\n      swap1\n      sstore\n      pop\n        /* \"23_jan.sol\":2567:2590  OrderAccepted(_orderId) */\n      0x262f7ad1922bdcf27203585ef3238620589ce6f74721d45bff6897a19e4f94a1\n        /* \"23_jan.sol\":2581:2589  _orderId */\n      dup3\n        /* \"23_jan.sol\":2567:2590  OrderAccepted(_orderId) */\n      mload(0x40)\n      tag_147\n      swap2\n      swap1\n      tag_22\n      jump\t// in\n    tag_147:\n      mload(0x40)\n      dup1\n      swap2\n      sub\n      swap1\n      log1\n        /* \"23_jan.sol\":2388:2598  {... */\n      pop\n        /* \"23_jan.sol\":2329:2598  function acceptOrder(uint256 _orderId) external onlySeller {... */\n      pop\n      jump\t// out\n        /* \"23_jan.sol\":96:116  address public admin */\n    tag_59:\n      0x00\n      dup1\n      sload\n      swap1\n      0x0100\n      exp\n      swap1\n      div\n      0xffffffffffffffffffffffffffffffffffffffff\n      and\n      dup2\n      jump\t// out\n        /* \"#utility.yul\":7:82   */\n    tag_148:\n        /* \"#utility.yul\":40:46   */\n      0x00\n        /* \"#utility.yul\":73:75   */\n      0x40\n        /* \"#utility.yul\":67:76   */\n      mload\n        /* \"#utility.yul\":57:76   */\n      swap1\n      pop\n        /* \"#utility.yul\":7:82   */\n      swap1\n      jump\t// out\n        /* \"#utility.yul\":88:205   */\n    tag_149:\n        /* \"#utility.yul\":197:198   */\n      0x00\n        /* \"#utility.yul\":194:195   */\n      dup1\n        /* \"#utility.yul\":187:199   */\n      revert\n        /* \"#utility.yul\":211:328   */\n    tag_150:\n        /* \"#utility.yul\":320:321   */\n      0x00\n        /* \"#utility.yul\":317:318   */\n      dup1\n        /* \"#utility.yul\":310:322   */\n      revert\n        /* \"#utility.yul\":334:439   */\n    tag_151:\n        /* \"#utility.yul\":413:414   */\n      0x03\n        /* \"#utility.yul\":406:411   */\n      dup2\n        /* \"#utility.yul\":403:415   */\n      lt\n        /* \"#utility.yul\":393:433   */\n      tag_216\n      jumpi\n        /* \"#utility.yul\":429:430   */\n      0x00\n        /* \"#utility.yul\":426:427   */\n      dup1\n        /* \"#utility.yul\":419:431   */\n      revert\n        /* \"#utility.yul\":393:433   */\n    tag_216:\n        /* \"#utility.yul\":334:439   */\n      pop\n      jump\t// out\n        /* \"#utility.yul\":445:596   */\n    tag_152:\n        /* \"#utility.yul\":497:502   */\n      0x00\n        /* \"#utility.yul\":535:541   */\n      dup2\n        /* \"#utility.yul\":522:542   */\n      calldataload\n        /* \"#utility.yul\":513:542   */\n      swap1\n      pop\n        /* \"#utility.yul\":551:590   */\n      tag_218\n        /* \"#utility.yul\":584:589   */\n      dup2\n        /* \"#utility.yul\":551:590   */\n      tag_151\n      jump\t// in\n    tag_218:\n        /* \"#utility.yul\":445:596   */\n      swap3\n      swap2\n      pop\n      pop\n      jump\t// out\n        /* \"#utility.yul\":602:943   */\n    tag_17:\n        /* \"#utility.yul\":667:673   */\n      0x00\n        /* \"#utility.yul\":716:718   */\n      0x20\n        /* \"#utility.yul\":704:713   */\n      dup3\n        /* \"#utility.yul\":695:702   */\n      dup5\n        /* \"#utility.yul\":691:714   */\n      sub\n        /* \"#utility.yul\":687:719   */\n      slt\n        /* \"#utility.yul\":684:803   */\n      iszero\n      tag_220\n      jumpi\n        /* \"#utility.yul\":722:801   */\n      tag_221\n      tag_149\n      jump\t// in\n    tag_221:\n        /* \"#utility.yul\":684:803   */\n    tag_220:\n        /* \"#utility.yul\":842:843   */\n      0x00\n        /* \"#utility.yul\":867:926   */\n      tag_222\n        /* \"#utility.yul\":918:925   */\n      dup5\n        /* \"#utility.yul\":909:915   */\n      dup3\n        /* \"#utility.yul\":898:907   */\n      dup6\n        /* \"#utility.yul\":894:916   */\n      add\n        /* \"#utility.yul\":867:926   */\n      tag_152\n      jump\t// in\n    tag_222:\n        /* \"#utility.yul\":857:926   */\n      swap2\n      pop\n        /* \"#utility.yul\":813:936   */\n      pop\n        /* \"#utility.yul\":602:943   */\n      swap3\n      swap2\n      pop\n      pop\n      jump\t// out\n        /* \"#utility.yul\":949:1026   */\n    tag_153:\n        /* \"#utility.yul\":986:993   */\n      0x00\n        /* \"#utility.yul\":1015:1020   */\n      dup2\n        /* \"#utility.yul\":1004:1020   */\n      swap1\n      pop\n        /* \"#utility.yul\":949:1026   */\n      swap2\n      swap1\n      pop\n      jump\t// out\n        /* \"#utility.yul\":1032:1150   */\n    tag_154:\n        /* \"#utility.yul\":1119:1143   */\n      tag_225\n        /* \"#utility.yul\":1137:1142   */\n      dup2\n        /* \"#utility.yul\":1119:1143   */\n      tag_153\n      jump\t// in\n    tag_225:\n        /* \"#utility.yul\":1114:1117   */\n      dup3\n        /* \"#utility.yul\":1107:1144   */\n      mstore\n        /* \"#utility.yul\":1032:1150   */\n      pop\n      pop\n      jump\t// out\n        /* \"#utility.yul\":1156:1378   */\n    tag_22:\n        /* \"#utility.yul\":1249:1253   */\n      0x00\n        /* \"#utility.yul\":1287:1289   */\n      0x20\n        /* \"#utility.yul\":1276:1285   */\n      dup3\n        /* \"#utility.yul\":1272:1290   */\n      add\n        /* \"#utility.yul\":1264:1290   */\n      swap1\n      pop\n        /* \"#utility.yul\":1300:1371   */\n      tag_227\n        /* \"#utility.yul\":1368:1369   */\n      0x00\n        /* \"#utility.yul\":1357:1366   */\n      dup4\n        /* \"#utility.yul\":1353:1370   */\n      add\n        /* \"#utility.yul\":1344:1350   */\n      dup5\n        /* \"#utility.yul\":1300:1371   */\n      tag_154\n      jump\t// in\n    tag_227:\n        /* \"#utility.yul\":1156:1378   */\n      swap3\n      swap2\n      pop\n      pop\n      jump\t// out\n        /* \"#utility.yul\":1384:1510   */\n    tag_155:\n        /* \"#utility.yul\":1421:1428   */\n      0x00\n        /* \"#utility.yul\":1461:1503   */\n      0xffffffffffffffffffffffffffffffffffffffff\n        /* \"#utility.yul\":1454:1459   */\n      dup3\n        /* \"#utility.yul\":1450:1504   */\n      and\n        /* \"#utility.yul\":1439:1504   */\n      swap1\n      pop\n        /* \"#utility.yul\":1384:1510   */\n      swap2\n      swap1\n      pop\n      jump\t// out\n        /* \"#utility.yul\":1516:1612   */\n    tag_156:\n        /* \"#utility.yul\":1553:1560   */\n      0x00\n        /* \"#utility.yul\":1582:1606   */\n      tag_230\n        /* \"#utility.yul\":1600:1605   */\n      dup3\n        /* \"#utility.yul\":1582:1606   */\n      tag_155\n      jump\t// in\n    tag_230:\n        /* \"#utility.yul\":1571:1606   */\n      swap1\n      pop\n        /* \"#utility.yul\":1516:1612   */\n      swap2\n      swap1\n      pop\n      jump\t// out\n        /* \"#utility.yul\":1618:1740   */\n    tag_157:\n        /* \"#utility.yul\":1691:1715   */\n      tag_232\n        /* \"#utility.yul\":1709:1714   */\n      dup2\n        /* \"#utility.yul\":1691:1715   */\n      tag_156\n      jump\t// in\n    tag_232:\n        /* \"#utility.yul\":1684:1689   */\n      dup2\n        /* \"#utility.yul\":1681:1716   */\n      eq\n        /* \"#utility.yul\":1671:1734   */\n      tag_233\n      jumpi\n        /* \"#utility.yul\":1730:1731   */\n      0x00\n        /* \"#utility.yul\":1727:1728   */\n      dup1\n        /* \"#utility.yul\":1720:1732   */\n      revert\n        /* \"#utility.yul\":1671:1734   */\n    tag_233:\n        /* \"#utility.yul\":1618:1740   */\n      pop\n      jump\t// out\n        /* \"#utility.yul\":1746:1885   */\n    tag_158:\n        /* \"#utility.yul\":1792:1797   */\n      0x00\n        /* \"#utility.yul\":1830:1836   */\n      dup2\n        /* \"#utility.yul\":1817:1837   */\n      calldataload\n        /* \"#utility.yul\":1808:1837   */\n      swap1\n      pop\n        /* \"#utility.yul\":1846:1879   */\n      tag_235\n        /* \"#utility.yul\":1873:1878   */\n      dup2\n        /* \"#utility.yul\":1846:1879   */\n      tag_157\n      jump\t// in\n    tag_235:\n        /* \"#utility.yul\":1746:1885   */\n      swap3\n      swap2\n      pop\n      pop\n      jump\t// out\n        /* \"#utility.yul\":1891:2013   */\n    tag_159:\n        /* \"#utility.yul\":1964:1988   */\n      tag_237\n        /* \"#utility.yul\":1982:1987   */\n      dup2\n        /* \"#utility.yul\":1964:1988   */\n      tag_153\n      jump\t// in\n    tag_237:\n        /* \"#utility.yul\":1957:1962   */\n      dup2\n        /* \"#utility.yul\":1954:1989   */\n      eq\n        /* \"#utility.yul\":1944:2007   */\n      tag_238\n      jumpi\n        /* \"#utility.yul\":2003:2004   */\n      0x00\n        /* \"#utility.yul\":2000:2001   */\n      dup1\n        /* \"#utility.yul\":1993:2005   */\n      revert\n        /* \"#utility.yul\":1944:2007   */\n    tag_238:\n        /* \"#utility.yul\":1891:2013   */\n      pop\n      jump\t// out\n        /* \"#utility.yul\":2019:2158   */\n    tag_160:\n        /* \"#utility.yul\":2065:2070   */\n      0x00\n        /* \"#utility.yul\":2103:2109   */\n      dup2\n        /* \"#utility.yul\":2090:2110   */\n      calldataload\n        /* \"#utility.yul\":2081:2110   */\n      swap1\n      pop\n        /* \"#utility.yul\":2119:2152   */\n      tag_240\n        /* \"#utility.yul\":2146:2151   */\n      dup2\n        /* \"#utility.yul\":2119:2152   */\n      tag_159\n      jump\t// in\n    tag_240:\n        /* \"#utility.yul\":2019:2158   */\n      swap3\n      swap2\n      pop\n      pop\n      jump\t// out\n        /* \"#utility.yul\":2164:2638   */\n    tag_25:\n        /* \"#utility.yul\":2232:2238   */\n      0x00\n        /* \"#utility.yul\":2240:2246   */\n      dup1\n        /* \"#utility.yul\":2289:2291   */\n      0x40\n        /* \"#utility.yul\":2277:2286   */\n      dup4\n        /* \"#utility.yul\":2268:2275   */\n      dup6\n        /* \"#utility.yul\":2264:2287   */\n      sub\n        /* \"#utility.yul\":2260:2292   */\n      slt\n        /* \"#utility.yul\":2257:2376   */\n      iszero\n      tag_242\n      jumpi\n        /* \"#utility.yul\":2295:2374   */\n      tag_243\n      tag_149\n      jump\t// in\n    tag_243:\n        /* \"#utility.yul\":2257:2376   */\n    tag_242:\n        /* \"#utility.yul\":2415:2416   */\n      0x00\n        /* \"#utility.yul\":2440:2493   */\n      tag_244\n        /* \"#utility.yul\":2485:2492   */\n      dup6\n        /* \"#utility.yul\":2476:2482   */\n      dup3\n        /* \"#utility.yul\":2465:2474   */\n      dup7\n        /* \"#utility.yul\":2461:2483   */\n      add\n        /* \"#utility.yul\":2440:2493   */\n      tag_158\n      jump\t// in\n    tag_244:\n        /* \"#utility.yul\":2430:2493   */\n      swap3\n      pop\n        /* \"#utility.yul\":2386:2503   */\n      pop\n        /* \"#utility.yul\":2542:2544   */\n      0x20\n        /* \"#utility.yul\":2568:2621   */\n      tag_245\n        /* \"#utility.yul\":2613:2620   */\n      dup6\n        /* \"#utility.yul\":2604:2610   */\n      dup3\n        /* \"#utility.yul\":2593:2602   */\n      dup7\n        /* \"#utility.yul\":2589:2611   */\n      add\n        /* \"#utility.yul\":2568:2621   */\n      tag_160\n      jump\t// in\n    tag_245:\n        /* \"#utility.yul\":2558:2621   */\n      swap2\n      pop\n        /* \"#utility.yul\":2513:2631   */\n      pop\n        /* \"#utility.yul\":2164:2638   */\n      swap3\n      pop\n      swap3\n      swap1\n      pop\n      jump\t// out\n        /* \"#utility.yul\":2644:2762   */\n    tag_161:\n        /* \"#utility.yul\":2731:2755   */\n      tag_247\n        /* \"#utility.yul\":2749:2754   */\n      dup2\n        /* \"#utility.yul\":2731:2755   */\n      tag_156\n      jump\t// in\n    tag_247:\n        /* \"#utility.yul\":2726:2729   */\n      dup3\n        /* \"#utility.yul\":2719:2756   */\n      mstore\n        /* \"#utility.yul\":2644:2762   */\n      pop\n      pop\n      jump\t// out\n        /* \"#utility.yul\":2768:2858   */\n    tag_162:\n        /* \"#utility.yul\":2802:2809   */\n      0x00\n        /* \"#utility.yul\":2845:2850   */\n      dup2\n        /* \"#utility.yul\":2838:2851   */\n      iszero\n        /* \"#utility.yul\":2831:2852   */\n      iszero\n        /* \"#utility.yul\":2820:2852   */\n      swap1\n      pop\n        /* \"#utility.yul\":2768:2858   */\n      swap2\n      swap1\n      pop\n      jump\t// out\n        /* \"#utility.yul\":2864:2973   */\n    tag_163:\n        /* \"#utility.yul\":2945:2966   */\n      tag_250\n        /* \"#utility.yul\":2960:2965   */\n      dup2\n        /* \"#utility.yul\":2945:2966   */\n      tag_162\n      jump\t// in\n    tag_250:\n        /* \"#utility.yul\":2940:2943   */\n      dup3\n        /* \"#utility.yul\":2933:2967   */\n      mstore\n        /* \"#utility.yul\":2864:2973   */\n      pop\n      pop\n      jump\t// out\n        /* \"#utility.yul\":2979:3508   */\n    tag_28:\n        /* \"#utility.yul\":3144:3148   */\n      0x00\n        /* \"#utility.yul\":3182:3185   */\n      0x80\n        /* \"#utility.yul\":3171:3180   */\n      dup3\n        /* \"#utility.yul\":3167:3186   */\n      add\n        /* \"#utility.yul\":3159:3186   */\n      swap1\n      pop\n        /* \"#utility.yul\":3196:3267   */\n      tag_252\n        /* \"#utility.yul\":3264:3265   */\n      0x00\n        /* \"#utility.yul\":3253:3262   */\n      dup4\n        /* \"#utility.yul\":3249:3266   */\n      add\n        /* \"#utility.yul\":3240:3246   */\n      dup8\n        /* \"#utility.yul\":3196:3267   */\n      tag_154\n      jump\t// in\n    tag_252:\n        /* \"#utility.yul\":3277:3349   */\n      tag_253\n        /* \"#utility.yul\":3345:3347   */\n      0x20\n        /* \"#utility.yul\":3334:3343   */\n      dup4\n        /* \"#utility.yul\":3330:3348   */\n      add\n        /* \"#utility.yul\":3321:3327   */\n      dup7\n        /* \"#utility.yul\":3277:3349   */\n      tag_161\n      jump\t// in\n    tag_253:\n        /* \"#utility.yul\":3359:3425   */\n      tag_254\n        /* \"#utility.yul\":3421:3423   */\n      0x40\n        /* \"#utility.yul\":3410:3419   */\n      dup4\n        /* \"#utility.yul\":3406:3424   */\n      add\n        /* \"#utility.yul\":3397:3403   */\n      dup6\n        /* \"#utility.yul\":3359:3425   */\n      tag_163\n      jump\t// in\n    tag_254:\n        /* \"#utility.yul\":3435:3501   */\n      tag_255\n        /* \"#utility.yul\":3497:3499   */\n      0x60\n        /* \"#utility.yul\":3486:3495   */\n      dup4\n        /* \"#utility.yul\":3482:3500   */\n      add\n        /* \"#utility.yul\":3473:3479   */\n      dup5\n        /* \"#utility.yul\":3435:3501   */\n      tag_163\n      jump\t// in\n    tag_255:\n        /* \"#utility.yul\":2979:3508   */\n      swap6\n      swap5\n      pop\n      pop\n      pop\n      pop\n      pop\n      jump\t// out\n        /* \"#utility.yul\":3514:3843   */\n    tag_31:\n        /* \"#utility.yul\":3573:3579   */\n      0x00\n        /* \"#utility.yul\":3622:3624   */\n      0x20\n        /* \"#utility.yul\":3610:3619   */\n      dup3\n        /* \"#utility.yul\":3601:3608   */\n      dup5\n        /* \"#utility.yul\":3597:3620   */\n      sub\n        /* \"#utility.yul\":3593:3625   */\n      slt\n        /* \"#utility.yul\":3590:3709   */\n      iszero\n      tag_257\n      jumpi\n        /* \"#utility.yul\":3628:3707   */\n      tag_258\n      tag_149\n      jump\t// in\n    tag_258:\n        /* \"#utility.yul\":3590:3709   */\n    tag_257:\n        /* \"#utility.yul\":3748:3749   */\n      0x00\n        /* \"#utility.yul\":3773:3826   */\n      tag_259\n        /* \"#utility.yul\":3818:3825   */\n      dup5\n        /* \"#utility.yul\":3809:3815   */\n      dup3\n        /* \"#utility.yul\":3798:3807   */\n      dup6\n        /* \"#utility.yul\":3794:3816   */\n      add\n        /* \"#utility.yul\":3773:3826   */\n      tag_158\n      jump\t// in\n    tag_259:\n        /* \"#utility.yul\":3763:3826   */\n      swap2\n      pop\n        /* \"#utility.yul\":3719:3836   */\n      pop\n        /* \"#utility.yul\":3514:3843   */\n      swap3\n      swap2\n      pop\n      pop\n      jump\t// out\n        /* \"#utility.yul\":3849:4029   */\n    tag_65:\n        /* \"#utility.yul\":3897:3974   */\n      0x4e487b7100000000000000000000000000000000000000000000000000000000\n        /* \"#utility.yul\":3894:3895   */\n      0x00\n        /* \"#utility.yul\":3887:3975   */\n      mstore\n        /* \"#utility.yul\":3994:3998   */\n      0x21\n        /* \"#utility.yul\":3991:3992   */\n      0x04\n        /* \"#utility.yul\":3984:3999   */\n      mstore\n        /* \"#utility.yul\":4018:4022   */\n      0x24\n        /* \"#utility.yul\":4015:4016   */\n      0x00\n        /* \"#utility.yul\":4008:4023   */\n      revert\n        /* \"#utility.yul\":4035:4146   */\n    tag_164:\n        /* \"#utility.yul\":4114:4115   */\n      0x03\n        /* \"#utility.yul\":4107:4112   */\n      dup2\n        /* \"#utility.yul\":4104:4116   */\n      lt\n        /* \"#utility.yul\":4094:4140   */\n      tag_262\n      jumpi\n        /* \"#utility.yul\":4120:4138   */\n      tag_263\n      tag_65\n      jump\t// in\n    tag_263:\n        /* \"#utility.yul\":4094:4140   */\n    tag_262:\n        /* \"#utility.yul\":4035:4146   */\n      pop\n      jump\t// out\n        /* \"#utility.yul\":4152:4275   */\n    tag_165:\n        /* \"#utility.yul\":4195:4202   */\n      0x00\n        /* \"#utility.yul\":4224:4229   */\n      dup2\n        /* \"#utility.yul\":4213:4229   */\n      swap1\n      pop\n        /* \"#utility.yul\":4230:4269   */\n      tag_265\n        /* \"#utility.yul\":4263:4268   */\n      dup3\n        /* \"#utility.yul\":4230:4269   */\n      tag_164\n      jump\t// in\n    tag_265:\n        /* \"#utility.yul\":4152:4275   */\n      swap2\n      swap1\n      pop\n      jump\t// out\n        /* \"#utility.yul\":4281:4404   */\n    tag_166:\n        /* \"#utility.yul\":4335:4344   */\n      0x00\n        /* \"#utility.yul\":4368:4398   */\n      tag_267\n        /* \"#utility.yul\":4392:4397   */\n      dup3\n        /* \"#utility.yul\":4368:4398   */\n      tag_165\n      jump\t// in\n    tag_267:\n        /* \"#utility.yul\":4355:4398   */\n      swap1\n      pop\n        /* \"#utility.yul\":4281:4404   */\n      swap2\n      swap1\n      pop\n      jump\t// out\n        /* \"#utility.yul\":4410:4549   */\n    tag_167:\n        /* \"#utility.yul\":4501:4542   */\n      tag_269\n        /* \"#utility.yul\":4536:4541   */\n      dup2\n        /* \"#utility.yul\":4501:4542   */\n      tag_166\n      jump\t// in\n    tag_269:\n        /* \"#utility.yul\":4496:4499   */\n      dup3\n        /* \"#utility.yul\":4489:4543   */\n      mstore\n        /* \"#utility.yul\":4410:4549   */\n      pop\n      pop\n      jump\t// out\n        /* \"#utility.yul\":4555:4785   */\n    tag_34:\n        /* \"#utility.yul\":4652:4656   */\n      0x00\n        /* \"#utility.yul\":4690:4692   */\n      0x20\n        /* \"#utility.yul\":4679:4688   */\n      dup3\n        /* \"#utility.yul\":4675:4693   */\n      add\n        /* \"#utility.yul\":4667:4693   */\n      swap1\n      pop\n        /* \"#utility.yul\":4703:4778   */\n      tag_271\n        /* \"#utility.yul\":4775:4776   */\n      0x00\n        /* \"#utility.yul\":4764:4773   */\n      dup4\n        /* \"#utility.yul\":4760:4777   */\n      add\n        /* \"#utility.yul\":4751:4757   */\n      dup5\n        /* \"#utility.yul\":4703:4778   */\n      tag_167\n      jump\t// in\n    tag_271:\n        /* \"#utility.yul\":4555:4785   */\n      swap3\n      swap2\n      pop\n      pop\n      jump\t// out\n        /* \"#utility.yul\":4791:5120   */\n    tag_37:\n        /* \"#utility.yul\":4850:4856   */\n      0x00\n        /* \"#utility.yul\":4899:4901   */\n      0x20\n        /* \"#utility.yul\":4887:4896   */\n      dup3\n        /* \"#utility.yul\":4878:4885   */\n      dup5\n        /* \"#utility.yul\":4874:4897   */\n      sub\n        /* \"#utility.yul\":4870:4902   */\n      slt\n        /* \"#utility.yul\":4867:4986   */\n      iszero\n      tag_273\n      jumpi\n        /* \"#utility.yul\":4905:4984   */\n      tag_274\n      tag_149\n      jump\t// in\n    tag_274:\n        /* \"#utility.yul\":4867:4986   */\n    tag_273:\n        /* \"#utility.yul\":5025:5026   */\n      0x00\n        /* \"#utility.yul\":5050:5103   */\n      tag_275\n        /* \"#utility.yul\":5095:5102   */\n      dup5\n        /* \"#utility.yul\":5086:5092   */\n      dup3\n        /* \"#utility.yul\":5075:5084   */\n      dup6\n        /* \"#utility.yul\":5071:5093   */\n      add\n        /* \"#utility.yul\":5050:5103   */\n      tag_160\n      jump\t// in\n    tag_275:\n        /* \"#utility.yul\":5040:5103   */\n      swap2\n      pop\n        /* \"#utility.yul\":4996:5113   */\n      pop\n        /* \"#utility.yul\":4791:5120   */\n      swap3\n      swap2\n      pop\n      pop\n      jump\t// out\n        /* \"#utility.yul\":5126:5225   */\n    tag_168:\n        /* \"#utility.yul\":5178:5184   */\n      0x00\n        /* \"#utility.yul\":5212:5217   */\n      dup2\n        /* \"#utility.yul\":5206:5218   */\n      mload\n        /* \"#utility.yul\":5196:5218   */\n      swap1\n      pop\n        /* \"#utility.yul\":5126:5225   */\n      swap2\n      swap1\n      pop\n      jump\t// out\n        /* \"#utility.yul\":5231:5400   */\n    tag_169:\n        /* \"#utility.yul\":5315:5326   */\n      0x00\n        /* \"#utility.yul\":5349:5355   */\n      dup3\n        /* \"#utility.yul\":5344:5347   */\n      dup3\n        /* \"#utility.yul\":5337:5356   */\n      mstore\n        /* \"#utility.yul\":5389:5393   */\n      0x20\n        /* \"#utility.yul\":5384:5387   */\n      dup3\n        /* \"#utility.yul\":5380:5394   */\n      add\n        /* \"#utility.yul\":5365:5394   */\n      swap1\n      pop\n        /* \"#utility.yul\":5231:5400   */\n      swap3\n      swap2\n      pop\n      pop\n      jump\t// out\n        /* \"#utility.yul\":5406:5652   */\n    tag_170:\n        /* \"#utility.yul\":5487:5488   */\n      0x00\n        /* \"#utility.yul\":5497:5610   */\n    tag_279:\n        /* \"#utility.yul\":5511:5517   */\n      dup4\n        /* \"#utility.yul\":5508:5509   */\n      dup2\n        /* \"#utility.yul\":5505:5518   */\n      lt\n        /* \"#utility.yul\":5497:5610   */\n      iszero\n      tag_281\n      jumpi\n        /* \"#utility.yul\":5596:5597   */\n      dup1\n        /* \"#utility.yul\":5591:5594   */\n      dup3\n        /* \"#utility.yul\":5587:5598   */\n      add\n        /* \"#utility.yul\":5581:5599   */\n      mload\n        /* \"#utility.yul\":5577:5578   */\n      dup2\n        /* \"#utility.yul\":5572:5575   */\n      dup5\n        /* \"#utility.yul\":5568:5579   */\n      add\n        /* \"#utility.yul\":5561:5600   */\n      mstore\n        /* \"#utility.yul\":5533:5535   */\n      0x20\n        /* \"#utility.yul\":5530:5531   */\n      dup2\n        /* \"#utility.yul\":5526:5536   */\n      add\n        /* \"#utility.yul\":5521:5536   */\n      swap1\n      pop\n        /* \"#utility.yul\":5497:5610   */\n      jump(tag_279)\n    tag_281:\n        /* \"#utility.yul\":5644:5645   */\n      0x00\n        /* \"#utility.yul\":5635:5641   */\n      dup5\n        /* \"#utility.yul\":5630:5633   */\n      dup5\n        /* \"#utility.yul\":5626:5642   */\n      add\n        /* \"#utility.yul\":5619:5646   */\n      mstore\n        /* \"#utility.yul\":5468:5652   */\n      pop\n        /* \"#utility.yul\":5406:5652   */\n      pop\n      pop\n      pop\n      jump\t// out\n        /* \"#utility.yul\":5658:5760   */\n    tag_171:\n        /* \"#utility.yul\":5699:5705   */\n      0x00\n        /* \"#utility.yul\":5750:5752   */\n      0x1f\n        /* \"#utility.yul\":5746:5753   */\n      not\n        /* \"#utility.yul\":5741:5743   */\n      0x1f\n        /* \"#utility.yul\":5734:5739   */\n      dup4\n        /* \"#utility.yul\":5730:5744   */\n      add\n        /* \"#utility.yul\":5726:5754   */\n      and\n        /* \"#utility.yul\":5716:5754   */\n      swap1\n      pop\n        /* \"#utility.yul\":5658:5760   */\n      swap2\n      swap1\n      pop\n      jump\t// out\n        /* \"#utility.yul\":5766:6143   */\n    tag_172:\n        /* \"#utility.yul\":5854:5857   */\n      0x00\n        /* \"#utility.yul\":5882:5921   */\n      tag_284\n        /* \"#utility.yul\":5915:5920   */\n      dup3\n        /* \"#utility.yul\":5882:5921   */\n      tag_168\n      jump\t// in\n    tag_284:\n        /* \"#utility.yul\":5937:6008   */\n      tag_285\n        /* \"#utility.yul\":6001:6007   */\n      dup2\n        /* \"#utility.yul\":5996:5999   */\n      dup6\n        /* \"#utility.yul\":5937:6008   */\n      tag_169\n      jump\t// in\n    tag_285:\n        /* \"#utility.yul\":5930:6008   */\n      swap4\n      pop\n        /* \"#utility.yul\":6017:6082   */\n      tag_286\n        /* \"#utility.yul\":6075:6081   */\n      dup2\n        /* \"#utility.yul\":6070:6073   */\n      dup6\n        /* \"#utility.yul\":6063:6067   */\n      0x20\n        /* \"#utility.yul\":6056:6061   */\n      dup7\n        /* \"#utility.yul\":6052:6068   */\n      add\n        /* \"#utility.yul\":6017:6082   */\n      tag_170\n      jump\t// in\n    tag_286:\n        /* \"#utility.yul\":6107:6136   */\n      tag_287\n        /* \"#utility.yul\":6129:6135   */\n      dup2\n        /* \"#utility.yul\":6107:6136   */\n      tag_171\n      jump\t// in\n    tag_287:\n        /* \"#utility.yul\":6102:6105   */\n      dup5\n        /* \"#utility.yul\":6098:6137   */\n      add\n        /* \"#utility.yul\":6091:6137   */\n      swap2\n      pop\n        /* \"#utility.yul\":5858:6143   */\n      pop\n        /* \"#utility.yul\":5766:6143   */\n      swap3\n      swap2\n      pop\n      pop\n      jump\t// out\n        /* \"#utility.yul\":6149:6781   */\n    tag_40:\n        /* \"#utility.yul\":6340:6344   */\n      0x00\n        /* \"#utility.yul\":6378:6381   */\n      0x80\n        /* \"#utility.yul\":6367:6376   */\n      dup3\n        /* \"#utility.yul\":6363:6382   */\n      add\n        /* \"#utility.yul\":6355:6382   */\n      swap1\n      pop\n        /* \"#utility.yul\":6428:6437   */\n      dup2\n        /* \"#utility.yul\":6422:6426   */\n      dup2\n        /* \"#utility.yul\":6418:6438   */\n      sub\n        /* \"#utility.yul\":6414:6415   */\n      0x00\n        /* \"#utility.yul\":6403:6412   */\n      dup4\n        /* \"#utility.yul\":6399:6416   */\n      add\n        /* \"#utility.yul\":6392:6439   */\n      mstore\n        /* \"#utility.yul\":6456:6534   */\n      tag_289\n        /* \"#utility.yul\":6529:6533   */\n      dup2\n        /* \"#utility.yul\":6520:6526   */\n      dup8\n        /* \"#utility.yul\":6456:6534   */\n      tag_172\n      jump\t// in\n    tag_289:\n        /* \"#utility.yul\":6448:6534   */\n      swap1\n      pop\n        /* \"#utility.yul\":6544:6616   */\n      tag_290\n        /* \"#utility.yul\":6612:6614   */\n      0x20\n        /* \"#utility.yul\":6601:6610   */\n      dup4\n        /* \"#utility.yul\":6597:6615   */\n      add\n        /* \"#utility.yul\":6588:6594   */\n      dup7\n        /* \"#utility.yul\":6544:6616   */\n      tag_154\n      jump\t// in\n    tag_290:\n        /* \"#utility.yul\":6626:6698   */\n      tag_291\n        /* \"#utility.yul\":6694:6696   */\n      0x40\n        /* \"#utility.yul\":6683:6692   */\n      dup4\n        /* \"#utility.yul\":6679:6697   */\n      add\n        /* \"#utility.yul\":6670:6676   */\n      dup6\n        /* \"#utility.yul\":6626:6698   */\n      tag_161\n      jump\t// in\n    tag_291:\n        /* \"#utility.yul\":6708:6774   */\n      tag_292\n        /* \"#utility.yul\":6770:6772   */\n      0x60\n        /* \"#utility.yul\":6759:6768   */\n      dup4\n        /* \"#utility.yul\":6755:6773   */\n      add\n        /* \"#utility.yul\":6746:6752   */\n      dup5\n        /* \"#utility.yul\":6708:6774   */\n      tag_163\n      jump\t// in\n    tag_292:\n        /* \"#utility.yul\":6149:6781   */\n      swap6\n      swap5\n      pop\n      pop\n      pop\n      pop\n      pop\n      jump\t// out\n        /* \"#utility.yul\":6787:6904   */\n    tag_173:\n        /* \"#utility.yul\":6896:6897   */\n      0x00\n        /* \"#utility.yul\":6893:6894   */\n      dup1\n        /* \"#utility.yul\":6886:6898   */\n      revert\n        /* \"#utility.yul\":6910:7027   */\n    tag_174:\n        /* \"#utility.yul\":7019:7020   */\n      0x00\n        /* \"#utility.yul\":7016:7017   */\n      dup1\n        /* \"#utility.yul\":7009:7021   */\n      revert\n        /* \"#utility.yul\":7033:7213   */\n    tag_175:\n        /* \"#utility.yul\":7081:7158   */\n      0x4e487b7100000000000000000000000000000000000000000000000000000000\n        /* \"#utility.yul\":7078:7079   */\n      0x00\n        /* \"#utility.yul\":7071:7159   */\n      mstore\n        /* \"#utility.yul\":7178:7182   */\n      0x41\n        /* \"#utility.yul\":7175:7176   */\n      0x04\n        /* \"#utility.yul\":7168:7183   */\n      mstore\n        /* \"#utility.yul\":7202:7206   */\n      0x24\n        /* \"#utility.yul\":7199:7200   */\n      0x00\n        /* \"#utility.yul\":7192:7207   */\n      revert\n        /* \"#utility.yul\":7219:7500   */\n    tag_176:\n        /* \"#utility.yul\":7302:7329   */\n      tag_297\n        /* \"#utility.yul\":7324:7328   */\n      dup3\n        /* \"#utility.yul\":7302:7329   */\n      tag_171\n      jump\t// in\n    tag_297:\n        /* \"#utility.yul\":7294:7300   */\n      dup2\n        /* \"#utility.yul\":7290:7330   */\n      add\n        /* \"#utility.yul\":7432:7438   */\n      dup2\n        /* \"#utility.yul\":7420:7430   */\n      dup2\n        /* \"#utility.yul\":7417:7439   */\n      lt\n        /* \"#utility.yul\":7396:7414   */\n      0xffffffffffffffff\n        /* \"#utility.yul\":7384:7394   */\n      dup3\n        /* \"#utility.yul\":7381:7415   */\n      gt\n        /* \"#utility.yul\":7378:7440   */\n      or\n        /* \"#utility.yul\":7375:7463   */\n      iszero\n      tag_298\n      jumpi\n        /* \"#utility.yul\":7443:7461   */\n      tag_299\n      tag_175\n      jump\t// in\n    tag_299:\n        /* \"#utility.yul\":7375:7463   */\n    tag_298:\n        /* \"#utility.yul\":7483:7493   */\n      dup1\n        /* \"#utility.yul\":7479:7481   */\n      0x40\n        /* \"#utility.yul\":7472:7494   */\n      mstore\n        /* \"#utility.yul\":7262:7500   */\n      pop\n        /* \"#utility.yul\":7219:7500   */\n      pop\n      pop\n      jump\t// out\n        /* \"#utility.yul\":7506:7635   */\n    tag_177:\n        /* \"#utility.yul\":7540:7546   */\n      0x00\n        /* \"#utility.yul\":7567:7587   */\n      tag_301\n      tag_148\n      jump\t// in\n    tag_301:\n        /* \"#utility.yul\":7557:7587   */\n      swap1\n      pop\n        /* \"#utility.yul\":7596:7629   */\n      tag_302\n        /* \"#utility.yul\":7624:7628   */\n      dup3\n        /* \"#utility.yul\":7616:7622   */\n      dup3\n        /* \"#utility.yul\":7596:7629   */\n      tag_176\n      jump\t// in\n    tag_302:\n        /* \"#utility.yul\":7506:7635   */\n      swap2\n      swap1\n      pop\n      jump\t// out\n        /* \"#utility.yul\":7641:7949   */\n    tag_178:\n        /* \"#utility.yul\":7703:7707   */\n      0x00\n        /* \"#utility.yul\":7793:7811   */\n      0xffffffffffffffff\n        /* \"#utility.yul\":7785:7791   */\n      dup3\n        /* \"#utility.yul\":7782:7812   */\n      gt\n        /* \"#utility.yul\":7779:7835   */\n      iszero\n      tag_304\n      jumpi\n        /* \"#utility.yul\":7815:7833   */\n      tag_305\n      tag_175\n      jump\t// in\n    tag_305:\n        /* \"#utility.yul\":7779:7835   */\n    tag_304:\n        /* \"#utility.yul\":7853:7882   */\n      tag_306\n        /* \"#utility.yul\":7875:7881   */\n      dup3\n        /* \"#utility.yul\":7853:7882   */\n      tag_171\n      jump\t// in\n    tag_306:\n        /* \"#utility.yul\":7845:7882   */\n      swap1\n      pop\n        /* \"#utility.yul\":7937:7941   */\n      0x20\n        /* \"#utility.yul\":7931:7935   */\n      dup2\n        /* \"#utility.yul\":7927:7942   */\n      add\n        /* \"#utility.yul\":7919:7942   */\n      swap1\n      pop\n        /* \"#utility.yul\":7641:7949   */\n      swap2\n      swap1\n      pop\n      jump\t// out\n        /* \"#utility.yul\":7955:8101   */\n    tag_179:\n        /* \"#utility.yul\":8052:8058   */\n      dup3\n        /* \"#utility.yul\":8047:8050   */\n      dup2\n        /* \"#utility.yul\":8042:8045   */\n      dup4\n        /* \"#utility.yul\":8029:8059   */\n      calldatacopy\n        /* \"#utility.yul\":8093:8094   */\n      0x00\n        /* \"#utility.yul\":8084:8090   */\n      dup4\n        /* \"#utility.yul\":8079:8082   */\n      dup4\n        /* \"#utility.yul\":8075:8091   */\n      add\n        /* \"#utility.yul\":8068:8095   */\n      mstore\n        /* \"#utility.yul\":7955:8101   */\n      pop\n      pop\n      pop\n      jump\t// out\n        /* \"#utility.yul\":8107:8532   */\n    tag_180:\n        /* \"#utility.yul\":8185:8190   */\n      0x00\n        /* \"#utility.yul\":8210:8276   */\n      tag_309\n        /* \"#utility.yul\":8226:8275   */\n      tag_310\n        /* \"#utility.yul\":8268:8274   */\n      dup5\n        /* \"#utility.yul\":8226:8275   */\n      tag_178\n      jump\t// in\n    tag_310:\n        /* \"#utility.yul\":8210:8276   */\n      tag_177\n      jump\t// in\n    tag_309:\n        /* \"#utility.yul\":8201:8276   */\n      swap1\n      pop\n        /* \"#utility.yul\":8299:8305   */\n      dup3\n        /* \"#utility.yul\":8292:8297   */\n      dup2\n        /* \"#utility.yul\":8285:8306   */\n      mstore\n        /* \"#utility.yul\":8337:8341   */\n      0x20\n        /* \"#utility.yul\":8330:8335   */\n      dup2\n        /* \"#utility.yul\":8326:8342   */\n      add\n        /* \"#utility.yul\":8375:8378   */\n      dup5\n        /* \"#utility.yul\":8366:8372   */\n      dup5\n        /* \"#utility.yul\":8361:8364   */\n      dup5\n        /* \"#utility.yul\":8357:8373   */\n      add\n        /* \"#utility.yul\":8354:8379   */\n      gt\n        /* \"#utility.yul\":8351:8463   */\n      iszero\n      tag_311\n      jumpi\n        /* \"#utility.yul\":8382:8461   */\n      tag_312\n      tag_174\n      jump\t// in\n    tag_312:\n        /* \"#utility.yul\":8351:8463   */\n    tag_311:\n        /* \"#utility.yul\":8472:8526   */\n      tag_313\n        /* \"#utility.yul\":8519:8525   */\n      dup5\n        /* \"#utility.yul\":8514:8517   */\n      dup3\n        /* \"#utility.yul\":8509:8512   */\n      dup6\n        /* \"#utility.yul\":8472:8526   */\n      tag_179\n      jump\t// in\n    tag_313:\n        /* \"#utility.yul\":8191:8532   */\n      pop\n        /* \"#utility.yul\":8107:8532   */\n      swap4\n      swap3\n      pop\n      pop\n      pop\n      jump\t// out\n        /* \"#utility.yul\":8552:8892   */\n    tag_181:\n        /* \"#utility.yul\":8608:8613   */\n      0x00\n        /* \"#utility.yul\":8657:8660   */\n      dup3\n        /* \"#utility.yul\":8650:8654   */\n      0x1f\n        /* \"#utility.yul\":8642:8648   */\n      dup4\n        /* \"#utility.yul\":8638:8655   */\n      add\n        /* \"#utility.yul\":8634:8661   */\n      slt\n        /* \"#utility.yul\":8624:8746   */\n      tag_315\n      jumpi\n        /* \"#utility.yul\":8665:8744   */\n      tag_316\n      tag_173\n      jump\t// in\n    tag_316:\n        /* \"#utility.yul\":8624:8746   */\n    tag_315:\n        /* \"#utility.yul\":8782:8788   */\n      dup2\n        /* \"#utility.yul\":8769:8789   */\n      calldataload\n        /* \"#utility.yul\":8807:8886   */\n      tag_317\n        /* \"#utility.yul\":8882:8885   */\n      dup5\n        /* \"#utility.yul\":8874:8880   */\n      dup3\n        /* \"#utility.yul\":8867:8871   */\n      0x20\n        /* \"#utility.yul\":8859:8865   */\n      dup7\n        /* \"#utility.yul\":8855:8872   */\n      add\n        /* \"#utility.yul\":8807:8886   */\n      tag_180\n      jump\t// in\n    tag_317:\n        /* \"#utility.yul\":8798:8886   */\n      swap2\n      pop\n        /* \"#utility.yul\":8614:8892   */\n      pop\n        /* \"#utility.yul\":8552:8892   */\n      swap3\n      swap2\n      pop\n      pop\n      jump\t// out\n        /* \"#utility.yul\":8898:9552   */\n    tag_43:\n        /* \"#utility.yul\":8976:8982   */\n      0x00\n        /* \"#utility.yul\":8984:8990   */\n      dup1\n        /* \"#utility.yul\":9033:9035   */\n      0x40\n        /* \"#utility.yul\":9021:9030   */\n      dup4\n        /* \"#utility.yul\":9012:9019   */\n      dup6\n        /* \"#utility.yul\":9008:9031   */\n      sub\n        /* \"#utility.yul\":9004:9036   */\n      slt\n        /* \"#utility.yul\":9001:9120   */\n      iszero\n      tag_319\n      jumpi\n        /* \"#utility.yul\":9039:9118   */\n      tag_320\n      tag_149\n      jump\t// in\n    tag_320:\n        /* \"#utility.yul\":9001:9120   */\n    tag_319:\n        /* \"#utility.yul\":9187:9188   */\n      0x00\n        /* \"#utility.yul\":9176:9185   */\n      dup4\n        /* \"#utility.yul\":9172:9189   */\n      add\n        /* \"#utility.yul\":9159:9190   */\n      calldataload\n        /* \"#utility.yul\":9217:9235   */\n      0xffffffffffffffff\n        /* \"#utility.yul\":9209:9215   */\n      dup2\n        /* \"#utility.yul\":9206:9236   */\n      gt\n        /* \"#utility.yul\":9203:9320   */\n      iszero\n      tag_321\n      jumpi\n        /* \"#utility.yul\":9239:9318   */\n      tag_322\n      tag_150\n      jump\t// in\n    tag_322:\n        /* \"#utility.yul\":9203:9320   */\n    tag_321:\n        /* \"#utility.yul\":9344:9407   */\n      tag_323\n        /* \"#utility.yul\":9399:9406   */\n      dup6\n        /* \"#utility.yul\":9390:9396   */\n      dup3\n        /* \"#utility.yul\":9379:9388   */\n      dup7\n        /* \"#utility.yul\":9375:9397   */\n      add\n        /* \"#utility.yul\":9344:9407   */\n      tag_181\n      jump\t// in\n    tag_323:\n        /* \"#utility.yul\":9334:9407   */\n      swap3\n      pop\n        /* \"#utility.yul\":9130:9417   */\n      pop\n        /* \"#utility.yul\":9456:9458   */\n      0x20\n        /* \"#utility.yul\":9482:9535   */\n      tag_324\n        /* \"#utility.yul\":9527:9534   */\n      dup6\n        /* \"#utility.yul\":9518:9524   */\n      dup3\n        /* \"#utility.yul\":9507:9516   */\n      dup7\n        /* \"#utility.yul\":9503:9525   */\n      add\n        /* \"#utility.yul\":9482:9535   */\n      tag_160\n      jump\t// in\n    tag_324:\n        /* \"#utility.yul\":9472:9535   */\n      swap2\n      pop\n        /* \"#utility.yul\":9427:9545   */\n      pop\n        /* \"#utility.yul\":8898:9552   */\n      swap3\n      pop\n      swap3\n      swap1\n      pop\n      jump\t// out\n        /* \"#utility.yul\":9558:9780   */\n    tag_61:\n        /* \"#utility.yul\":9651:9655   */\n      0x00\n        /* \"#utility.yul\":9689:9691   */\n      0x20\n        /* \"#utility.yul\":9678:9687   */\n      dup3\n        /* \"#utility.yul\":9674:9692   */\n      add\n        /* \"#utility.yul\":9666:9692   */\n      swap1\n      pop\n        /* \"#utility.yul\":9702:9773   */\n      tag_326\n        /* \"#utility.yul\":9770:9771   */\n      0x00\n        /* \"#utility.yul\":9759:9768   */\n      dup4\n        /* \"#utility.yul\":9755:9772   */\n      add\n        /* \"#utility.yul\":9746:9752   */\n      dup5\n        /* \"#utility.yul\":9702:9773   */\n      tag_161\n      jump\t// in\n    tag_326:\n        /* \"#utility.yul\":9558:9780   */\n      swap3\n      swap2\n      pop\n      pop\n      jump\t// out\n        /* \"#utility.yul\":9786:9957   */\n    tag_182:\n        /* \"#utility.yul\":9926:9949   */\n      0x5573657220726f6c6520616c7265616479207365740000000000000000000000\n        /* \"#utility.yul\":9922:9923   */\n      0x00\n        /* \"#utility.yul\":9914:9920   */\n      dup3\n        /* \"#utility.yul\":9910:9924   */\n      add\n        /* \"#utility.yul\":9903:9950   */\n      mstore\n        /* \"#utility.yul\":9786:9957   */\n      pop\n      jump\t// out\n        /* \"#utility.yul\":9963:10329   */\n    tag_183:\n        /* \"#utility.yul\":10105:10108   */\n      0x00\n        /* \"#utility.yul\":10126:10193   */\n      tag_329\n        /* \"#utility.yul\":10190:10192   */\n      0x15\n        /* \"#utility.yul\":10185:10188   */\n      dup4\n        /* \"#utility.yul\":10126:10193   */\n      tag_169\n      jump\t// in\n    tag_329:\n        /* \"#utility.yul\":10119:10193   */\n      swap2\n      pop\n        /* \"#utility.yul\":10202:10295   */\n      tag_330\n        /* \"#utility.yul\":10291:10294   */\n      dup3\n        /* \"#utility.yul\":10202:10295   */\n      tag_182\n      jump\t// in\n    tag_330:\n        /* \"#utility.yul\":10320:10322   */\n      0x20\n        /* \"#utility.yul\":10315:10318   */\n      dup3\n        /* \"#utility.yul\":10311:10323   */\n      add\n        /* \"#utility.yul\":10304:10323   */\n      swap1\n      pop\n        /* \"#utility.yul\":9963:10329   */\n      swap2\n      swap1\n      pop\n      jump\t// out\n        /* \"#utility.yul\":10335:10754   */\n    tag_70:\n        /* \"#utility.yul\":10501:10505   */\n      0x00\n        /* \"#utility.yul\":10539:10541   */\n      0x20\n        /* \"#utility.yul\":10528:10537   */\n      dup3\n        /* \"#utility.yul\":10524:10542   */\n      add\n        /* \"#utility.yul\":10516:10542   */\n      swap1\n      pop\n        /* \"#utility.yul\":10588:10597   */\n      dup2\n        /* \"#utility.yul\":10582:10586   */\n      dup2\n        /* \"#utility.yul\":10578:10598   */\n      sub\n        /* \"#utility.yul\":10574:10575   */\n      0x00\n        /* \"#utility.yul\":10563:10572   */\n      dup4\n        /* \"#utility.yul\":10559:10576   */\n      add\n        /* \"#utility.yul\":10552:10599   */\n      mstore\n        /* \"#utility.yul\":10616:10747   */\n      tag_332\n        /* \"#utility.yul\":10742:10746   */\n      dup2\n        /* \"#utility.yul\":10616:10747   */\n      tag_183\n      jump\t// in\n    tag_332:\n        /* \"#utility.yul\":10608:10747   */\n      swap1\n      pop\n        /* \"#utility.yul\":10335:10754   */\n      swap2\n      swap1\n      pop\n      jump\t// out\n        /* \"#utility.yul\":10760:10940   */\n    tag_184:\n        /* \"#utility.yul\":10808:10885   */\n      0x4e487b7100000000000000000000000000000000000000000000000000000000\n        /* \"#utility.yul\":10805:10806   */\n      0x00\n        /* \"#utility.yul\":10798:10886   */\n      mstore\n        /* \"#utility.yul\":10905:10909   */\n      0x22\n        /* \"#utility.yul\":10902:10903   */\n      0x04\n        /* \"#utility.yul\":10895:10910   */\n      mstore\n        /* \"#utility.yul\":10929:10933   */\n      0x24\n        /* \"#utility.yul\":10926:10927   */\n      0x00\n        /* \"#utility.yul\":10919:10934   */\n      revert\n        /* \"#utility.yul\":10946:11266   */\n    tag_76:\n        /* \"#utility.yul\":10990:10996   */\n      0x00\n        /* \"#utility.yul\":11027:11028   */\n      0x02\n        /* \"#utility.yul\":11021:11025   */\n      dup3\n        /* \"#utility.yul\":11017:11029   */\n      div\n        /* \"#utility.yul\":11007:11029   */\n      swap1\n      pop\n        /* \"#utility.yul\":11074:11075   */\n      0x01\n        /* \"#utility.yul\":11068:11072   */\n      dup3\n        /* \"#utility.yul\":11064:11076   */\n      and\n        /* \"#utility.yul\":11095:11113   */\n      dup1\n        /* \"#utility.yul\":11085:11166   */\n      tag_335\n      jumpi\n        /* \"#utility.yul\":11151:11155   */\n      0x7f\n        /* \"#utility.yul\":11143:11149   */\n      dup3\n        /* \"#utility.yul\":11139:11156   */\n      and\n        /* \"#utility.yul\":11129:11156   */\n      swap2\n      pop\n        /* \"#utility.yul\":11085:11166   */\n    tag_335:\n        /* \"#utility.yul\":11213:11215   */\n      0x20\n        /* \"#utility.yul\":11205:11211   */\n      dup3\n        /* \"#utility.yul\":11202:11216   */\n      lt\n        /* \"#utility.yul\":11182:11200   */\n      dup2\n        /* \"#utility.yul\":11179:11217   */\n      sub\n        /* \"#utility.yul\":11176:11260   */\n      tag_336\n      jumpi\n        /* \"#utility.yul\":11232:11250   */\n      tag_337\n      tag_184\n      jump\t// in\n    tag_337:\n        /* \"#utility.yul\":11176:11260   */\n    tag_336:\n        /* \"#utility.yul\":10997:11266   */\n      pop\n        /* \"#utility.yul\":10946:11266   */\n      swap2\n      swap1\n      pop\n      jump\t// out\n        /* \"#utility.yul\":11272:11493   */\n    tag_185:\n        /* \"#utility.yul\":11412:11446   */\n      0x4f6e6c792073656c6c65722063616e2063616c6c20746869732066756e637469\n        /* \"#utility.yul\":11408:11409   */\n      0x00\n        /* \"#utility.yul\":11400:11406   */\n      dup3\n        /* \"#utility.yul\":11396:11410   */\n      add\n        /* \"#utility.yul\":11389:11447   */\n      mstore\n        /* \"#utility.yul\":11481:11485   */\n      0x6f6e000000000000000000000000000000000000000000000000000000000000\n        /* \"#utility.yul\":11476:11478   */\n      0x20\n        /* \"#utility.yul\":11468:11474   */\n      dup3\n        /* \"#utility.yul\":11464:11479   */\n      add\n        /* \"#utility.yul\":11457:11486   */\n      mstore\n        /* \"#utility.yul\":11272:11493   */\n      pop\n      jump\t// out\n        /* \"#utility.yul\":11499:11865   */\n    tag_186:\n        /* \"#utility.yul\":11641:11644   */\n      0x00\n        /* \"#utility.yul\":11662:11729   */\n      tag_340\n        /* \"#utility.yul\":11726:11728   */\n      0x22\n        /* \"#utility.yul\":11721:11724   */\n      dup4\n        /* \"#utility.yul\":11662:11729   */\n      tag_169\n      jump\t// in\n    tag_340:\n        /* \"#utility.yul\":11655:11729   */\n      swap2\n      pop\n        /* \"#utility.yul\":11738:11831   */\n      tag_341\n        /* \"#utility.yul\":11827:11830   */\n      dup3\n        /* \"#utility.yul\":11738:11831   */\n      tag_185\n      jump\t// in\n    tag_341:\n        /* \"#utility.yul\":11856:11858   */\n      0x40\n        /* \"#utility.yul\":11851:11854   */\n      dup3\n        /* \"#utility.yul\":11847:11859   */\n      add\n        /* \"#utility.yul\":11840:11859   */\n      swap1\n      pop\n        /* \"#utility.yul\":11499:11865   */\n      swap2\n      swap1\n      pop\n      jump\t// out\n        /* \"#utility.yul\":11871:12290   */\n    tag_88:\n        /* \"#utility.yul\":12037:12041   */\n      0x00\n        /* \"#utility.yul\":12075:12077   */\n      0x20\n        /* \"#utility.yul\":12064:12073   */\n      dup3\n        /* \"#utility.yul\":12060:12078   */\n      add\n        /* \"#utility.yul\":12052:12078   */\n      swap1\n      pop\n        /* \"#utility.yul\":12124:12133   */\n      dup2\n        /* \"#utility.yul\":12118:12122   */\n      dup2\n        /* \"#utility.yul\":12114:12134   */\n      sub\n        /* \"#utility.yul\":12110:12111   */\n      0x00\n        /* \"#utility.yul\":12099:12108   */\n      dup4\n        /* \"#utility.yul\":12095:12112   */\n      add\n        /* \"#utility.yul\":12088:12135   */\n      mstore\n        /* \"#utility.yul\":12152:12283   */\n      tag_343\n        /* \"#utility.yul\":12278:12282   */\n      dup2\n        /* \"#utility.yul\":12152:12283   */\n      tag_186\n      jump\t// in\n    tag_343:\n        /* \"#utility.yul\":12144:12283   */\n      swap1\n      pop\n        /* \"#utility.yul\":11871:12290   */\n      swap2\n      swap1\n      pop\n      jump\t// out\n        /* \"#utility.yul\":12296:12476   */\n    tag_187:\n        /* \"#utility.yul\":12344:12421   */\n      0x4e487b7100000000000000000000000000000000000000000000000000000000\n        /* \"#utility.yul\":12341:12342   */\n      0x00\n        /* \"#utility.yul\":12334:12422   */\n      mstore\n        /* \"#utility.yul\":12441:12445   */\n      0x11\n        /* \"#utility.yul\":12438:12439   */\n      0x04\n        /* \"#utility.yul\":12431:12446   */\n      mstore\n        /* \"#utility.yul\":12465:12469   */\n      0x24\n        /* \"#utility.yul\":12462:12463   */\n      0x00\n        /* \"#utility.yul\":12455:12470   */\n      revert\n        /* \"#utility.yul\":12482:12715   */\n    tag_91:\n        /* \"#utility.yul\":12521:12524   */\n      0x00\n        /* \"#utility.yul\":12544:12568   */\n      tag_346\n        /* \"#utility.yul\":12562:12567   */\n      dup3\n        /* \"#utility.yul\":12544:12568   */\n      tag_153\n      jump\t// in\n    tag_346:\n        /* \"#utility.yul\":12535:12568   */\n      swap2\n      pop\n        /* \"#utility.yul\":12590:12656   */\n      0xffffffffffffffffffffffffffffffffffffffffffffffffffffffffffffffff\n        /* \"#utility.yul\":12583:12588   */\n      dup3\n        /* \"#utility.yul\":12580:12657   */\n      sub\n        /* \"#utility.yul\":12577:12680   */\n      tag_347\n      jumpi\n        /* \"#utility.yul\":12660:12678   */\n      tag_348\n      tag_187\n      jump\t// in\n    tag_348:\n        /* \"#utility.yul\":12577:12680   */\n    tag_347:\n        /* \"#utility.yul\":12707:12708   */\n      0x01\n        /* \"#utility.yul\":12700:12705   */\n      dup3\n        /* \"#utility.yul\":12696:12709   */\n      add\n        /* \"#utility.yul\":12689:12709   */\n      swap1\n      pop\n        /* \"#utility.yul\":12482:12715   */\n      swap2\n      swap1\n      pop\n      jump\t// out\n        /* \"#utility.yul\":12721:12862   */\n    tag_188:\n        /* \"#utility.yul\":12770:12774   */\n      0x00\n        /* \"#utility.yul\":12793:12796   */\n      dup2\n        /* \"#utility.yul\":12785:12796   */\n      swap1\n      pop\n        /* \"#utility.yul\":12816:12819   */\n      dup2\n        /* \"#utility.yul\":12813:12814   */\n      0x00\n        /* \"#utility.yul\":12806:12820   */\n      mstore\n        /* \"#utility.yul\":12850:12854   */\n      0x20\n        /* \"#utility.yul\":12847:12848   */\n      0x00\n        /* \"#utility.yul\":12837:12855   */\n      keccak256\n        /* \"#utility.yul\":12829:12855   */\n      swap1\n      pop\n        /* \"#utility.yul\":12721:12862   */\n      swap2\n      swap1\n      pop\n      jump\t// out\n        /* \"#utility.yul\":12868:12961   */\n    tag_189:\n        /* \"#utility.yul\":12905:12911   */\n      0x00\n        /* \"#utility.yul\":12952:12954   */\n      0x20\n        /* \"#utility.yul\":12947:12949   */\n      0x1f\n        /* \"#utility.yul\":12940:12945   */\n      dup4\n        /* \"#utility.yul\":12936:12950   */\n      add\n        /* \"#utility.yul\":12932:12955   */\n      div\n        /* \"#utility.yul\":12922:12955   */\n      swap1\n      pop\n        /* \"#utility.yul\":12868:12961   */\n      swap2\n      swap1\n      pop\n      jump\t// out\n        /* \"#utility.yul\":12967:13074   */\n    tag_190:\n        /* \"#utility.yul\":13011:13019   */\n      0x00\n        /* \"#utility.yul\":13061:13066   */\n      dup3\n        /* \"#utility.yul\":13055:13059   */\n      dup3\n        /* \"#utility.yul\":13051:13067   */\n      shl\n        /* \"#utility.yul\":13030:13067   */\n      swap1\n      pop\n        /* \"#utility.yul\":12967:13074   */\n      swap3\n      swap2\n      pop\n      pop\n      jump\t// out\n        /* \"#utility.yul\":13080:13473   */\n    tag_191:\n        /* \"#utility.yul\":13149:13155   */\n      0x00\n        /* \"#utility.yul\":13199:13200   */\n      0x08\n        /* \"#utility.yul\":13187:13197   */\n      dup4\n        /* \"#utility.yul\":13183:13201   */\n      mul\n        /* \"#utility.yul\":13222:13319   */\n      tag_353\n        /* \"#utility.yul\":13252:13318   */\n      0xffffffffffffffffffffffffffffffffffffffffffffffffffffffffffffffff\n        /* \"#utility.yul\":13241:13250   */\n      dup3\n        /* \"#utility.yul\":13222:13319   */\n      tag_190\n      jump\t// in\n    tag_353:\n        /* \"#utility.yul\":13340:13379   */\n      tag_354\n        /* \"#utility.yul\":13370:13378   */\n      dup7\n        /* \"#utility.yul\":13359:13368   */\n      dup4\n        /* \"#utility.yul\":13340:13379   */\n      tag_190\n      jump\t// in\n    tag_354:\n        /* \"#utility.yul\":13328:13379   */\n      swap6\n      pop\n        /* \"#utility.yul\":13412:13416   */\n      dup1\n        /* \"#utility.yul\":13408:13417   */\n      not\n        /* \"#utility.yul\":13401:13406   */\n      dup5\n        /* \"#utility.yul\":13397:13418   */\n      and\n        /* \"#utility.yul\":13388:13418   */\n      swap4\n      pop\n        /* \"#utility.yul\":13461:13465   */\n      dup1\n        /* \"#utility.yul\":13451:13459   */\n      dup7\n        /* \"#utility.yul\":13447:13466   */\n      and\n        /* \"#utility.yul\":13440:13445   */\n      dup5\n        /* \"#utility.yul\":13437:13467   */\n      or\n        /* \"#utility.yul\":13427:13467   */\n      swap3\n      pop\n        /* \"#utility.yul\":13156:13473   */\n      pop\n      pop\n        /* \"#utility.yul\":13080:13473   */\n      swap4\n      swap3\n      pop\n      pop\n      pop\n      jump\t// out\n        /* \"#utility.yul\":13479:13539   */\n    tag_192:\n        /* \"#utility.yul\":13507:13510   */\n      0x00\n        /* \"#utility.yul\":13528:13533   */\n      dup2\n        /* \"#utility.yul\":13521:13533   */\n      swap1\n      pop\n        /* \"#utility.yul\":13479:13539   */\n      swap2\n      swap1\n      pop\n      jump\t// out\n        /* \"#utility.yul\":13545:13687   */\n    tag_193:\n        /* \"#utility.yul\":13595:13604   */\n      0x00\n        /* \"#utility.yul\":13628:13681   */\n      tag_357\n        /* \"#utility.yul\":13646:13680   */\n      tag_358\n        /* \"#utility.yul\":13655:13679   */\n      tag_359\n        /* \"#utility.yul\":13673:13678   */\n      dup5\n        /* \"#utility.yul\":13655:13679   */\n      tag_153\n      jump\t// in\n    tag_359:\n        /* \"#utility.yul\":13646:13680   */\n      tag_192\n      jump\t// in\n    tag_358:\n        /* \"#utility.yul\":13628:13681   */\n      tag_153\n      jump\t// in\n    tag_357:\n        /* \"#utility.yul\":13615:13681   */\n      swap1\n      pop\n        /* \"#utility.yul\":13545:13687   */\n      swap2\n      swap1\n      pop\n      jump\t// out\n        /* \"#utility.yul\":13693:13768   */\n    tag_194:\n        /* \"#utility.yul\":13736:13739   */\n      0x00\n        /* \"#utility.yul\":13757:13762   */\n      dup2\n        /* \"#utility.yul\":13750:13762   */\n      swap1\n      pop\n        /* \"#utility.yul\":13693:13768   */\n      swap2\n      swap1\n      pop\n      jump\t// out\n        /* \"#utility.yul\":13774:14043   */\n    tag_195:\n        /* \"#utility.yul\":13884:13923   */\n      tag_362\n        /* \"#utility.yul\":13915:13922   */\n      dup4\n        /* \"#utility.yul\":13884:13923   */\n      tag_193\n      jump\t// in\n    tag_362:\n        /* \"#utility.yul\":13945:14036   */\n      tag_363\n        /* \"#utility.yul\":13994:14035   */\n      tag_364\n        /* \"#utility.yul\":14018:14034   */\n      dup3\n        /* \"#utility.yul\":13994:14035   */\n      tag_194\n      jump\t// in\n    tag_364:\n        /* \"#utility.yul\":13986:13992   */\n      dup5\n        /* \"#utility.yul\":13979:13983   */\n      dup5\n        /* \"#utility.yul\":13973:13984   */\n      sload\n        /* \"#utility.yul\":13945:14036   */\n      tag_191\n      jump\t// in\n    tag_363:\n        /* \"#utility.yul\":13939:13943   */\n      dup3\n        /* \"#utility.yul\":13932:14037   */\n      sstore\n        /* \"#utility.yul\":13850:14043   */\n      pop\n        /* \"#utility.yul\":13774:14043   */\n      pop\n      pop\n      pop\n      jump\t// out\n        /* \"#utility.yul\":14049:14122   */\n    tag_196:\n        /* \"#utility.yul\":14094:14097   */\n      0x00\n        /* \"#utility.yul\":14049:14122   */\n      swap1\n      jump\t// out\n        /* \"#utility.yul\":14128:14317   */\n    tag_197:\n        /* \"#utility.yul\":14205:14237   */\n      tag_367\n      tag_196\n      jump\t// in\n    tag_367:\n        /* \"#utility.yul\":14246:14311   */\n      tag_368\n        /* \"#utility.yul\":14304:14310   */\n      dup2\n        /* \"#utility.yul\":14296:14302   */\n      dup5\n        /* \"#utility.yul\":14290:14294   */\n      dup5\n        /* \"#utility.yul\":14246:14311   */\n      tag_195\n      jump\t// in\n    tag_368:\n        /* \"#utility.yul\":14181:14317   */\n      pop\n        /* \"#utility.yul\":14128:14317   */\n      pop\n      pop\n      jump\t// out\n        /* \"#utility.yul\":14323:14509   */\n    tag_198:\n        /* \"#utility.yul\":14383:14503   */\n    tag_370:\n        /* \"#utility.yul\":14400:14403   */\n      dup2\n        /* \"#utility.yul\":14393:14398   */\n      dup2\n        /* \"#utility.yul\":14390:14404   */\n      lt\n        /* \"#utility.yul\":14383:14503   */\n      iszero\n      tag_372\n      jumpi\n        /* \"#utility.yul\":14454:14493   */\n      tag_373\n        /* \"#utility.yul\":14491:14492   */\n      0x00\n        /* \"#utility.yul\":14484:14489   */\n      dup3\n        /* \"#utility.yul\":14454:14493   */\n      tag_197\n      jump\t// in\n    tag_373:\n        /* \"#utility.yul\":14427:14428   */\n      0x01\n        /* \"#utility.yul\":14420:14425   */\n      dup2\n        /* \"#utility.yul\":14416:14429   */\n      add\n        /* \"#utility.yul\":14407:14429   */\n      swap1\n      pop\n        /* \"#utility.yul\":14383:14503   */\n      jump(tag_370)\n    tag_372:\n        /* \"#utility.yul\":14323:14509   */\n      pop\n      pop\n      jump\t// out\n        /* \"#utility.yul\":14515:15058   */\n    tag_199:\n        /* \"#utility.yul\":14616:14618   */\n      0x1f\n        /* \"#utility.yul\":14611:14614   */\n      dup3\n        /* \"#utility.yul\":14608:14619   */\n      gt\n        /* \"#utility.yul\":14605:15051   */\n      iszero\n      tag_375\n      jumpi\n        /* \"#utility.yul\":14650:14688   */\n      tag_376\n        /* \"#utility.yul\":14682:14687   */\n      dup2\n        /* \"#utility.yul\":14650:14688   */\n      tag_188\n      jump\t// in\n    tag_376:\n        /* \"#utility.yul\":14734:14763   */\n      tag_377\n        /* \"#utility.yul\":14752:14762   */\n      dup5\n        /* \"#utility.yul\":14734:14763   */\n      tag_189\n      jump\t// in\n    tag_377:\n        /* \"#utility.yul\":14724:14732   */\n      dup2\n        /* \"#utility.yul\":14720:14764   */\n      add\n        /* \"#utility.yul\":14917:14919   */\n      0x20\n        /* \"#utility.yul\":14905:14915   */\n      dup6\n        /* \"#utility.yul\":14902:14920   */\n      lt\n        /* \"#utility.yul\":14899:14948   */\n      iszero\n      tag_378\n      jumpi\n        /* \"#utility.yul\":14938:14946   */\n      dup2\n        /* \"#utility.yul\":14923:14946   */\n      swap1\n      pop\n        /* \"#utility.yul\":14899:14948   */\n    tag_378:\n        /* \"#utility.yul\":14961:15041   */\n      tag_379\n        /* \"#utility.yul\":15017:15039   */\n      tag_380\n        /* \"#utility.yul\":15035:15038   */\n      dup6\n        /* \"#utility.yul\":15017:15039   */\n      tag_189\n      jump\t// in\n    tag_380:\n        /* \"#utility.yul\":15007:15015   */\n      dup4\n        /* \"#utility.yul\":15003:15040   */\n      add\n        /* \"#utility.yul\":14990:15001   */\n      dup3\n        /* \"#utility.yul\":14961:15041   */\n      tag_198\n      jump\t// in\n    tag_379:\n        /* \"#utility.yul\":14620:15051   */\n      pop\n      pop\n        /* \"#utility.yul\":14605:15051   */\n    tag_375:\n        /* \"#utility.yul\":14515:15058   */\n      pop\n      pop\n      pop\n      jump\t// out\n        /* \"#utility.yul\":15064:15181   */\n    tag_200:\n        /* \"#utility.yul\":15118:15126   */\n      0x00\n        /* \"#utility.yul\":15168:15173   */\n      dup3\n        /* \"#utility.yul\":15162:15166   */\n      dup3\n        /* \"#utility.yul\":15158:15174   */\n      shr\n        /* \"#utility.yul\":15137:15174   */\n      swap1\n      pop\n        /* \"#utility.yul\":15064:15181   */\n      swap3\n      swap2\n      pop\n      pop\n      jump\t// out\n        /* \"#utility.yul\":15187:15356   */\n    tag_201:\n        /* \"#utility.yul\":15231:15237   */\n      0x00\n        /* \"#utility.yul\":15264:15315   */\n      tag_383\n        /* \"#utility.yul\":15312:15313   */\n      0x00\n        /* \"#utility.yul\":15308:15314   */\n      not\n        /* \"#utility.yul\":15300:15305   */\n      dup5\n        /* \"#utility.yul\":15297:15298   */\n      0x08\n        /* \"#utility.yul\":15293:15306   */\n      mul\n        /* \"#utility.yul\":15264:15315   */\n      tag_200\n      jump\t// in\n    tag_383:\n        /* \"#utility.yul\":15260:15316   */\n      not\n        /* \"#utility.yul\":15345:15349   */\n      dup1\n        /* \"#utility.yul\":15339:15343   */\n      dup4\n        /* \"#utility.yul\":15335:15350   */\n      and\n        /* \"#utility.yul\":15325:15350   */\n      swap2\n      pop\n        /* \"#utility.yul\":15238:15356   */\n      pop\n        /* \"#utility.yul\":15187:15356   */\n      swap3\n      swap2\n      pop\n      pop\n      jump\t// out\n        /* \"#utility.yul\":15361:15656   */\n    tag_202:\n        /* \"#utility.yul\":15437:15441   */\n      0x00\n        /* \"#utility.yul\":15583:15612   */\n      tag_385\n        /* \"#utility.yul\":15608:15611   */\n      dup4\n        /* \"#utility.yul\":15602:15606   */\n      dup4\n        /* \"#utility.yul\":15583:15612   */\n      tag_201\n      jump\t// in\n    tag_385:\n        /* \"#utility.yul\":15575:15612   */\n      swap2\n      pop\n        /* \"#utility.yul\":15645:15648   */\n      dup3\n        /* \"#utility.yul\":15642:15643   */\n      0x02\n        /* \"#utility.yul\":15638:15649   */\n      mul\n        /* \"#utility.yul\":15632:15636   */\n      dup3\n        /* \"#utility.yul\":15629:15650   */\n      or\n        /* \"#utility.yul\":15621:15650   */\n      swap1\n      pop\n        /* \"#utility.yul\":15361:15656   */\n      swap3\n      swap2\n      pop\n      pop\n      jump\t// out\n        /* \"#utility.yul\":15661:17056   */\n    tag_93:\n        /* \"#utility.yul\":15778:15815   */\n      tag_387\n        /* \"#utility.yul\":15811:15814   */\n      dup3\n        /* \"#utility.yul\":15778:15815   */\n      tag_168\n      jump\t// in\n    tag_387:\n        /* \"#utility.yul\":15880:15898   */\n      0xffffffffffffffff\n        /* \"#utility.yul\":15872:15878   */\n      dup2\n        /* \"#utility.yul\":15869:15899   */\n      gt\n        /* \"#utility.yul\":15866:15922   */\n      iszero\n      tag_388\n      jumpi\n        /* \"#utility.yul\":15902:15920   */\n      tag_389\n      tag_175\n      jump\t// in\n    tag_389:\n        /* \"#utility.yul\":15866:15922   */\n    tag_388:\n        /* \"#utility.yul\":15946:15984   */\n      tag_390\n        /* \"#utility.yul\":15978:15982   */\n      dup3\n        /* \"#utility.yul\":15972:15983   */\n      sload\n        /* \"#utility.yul\":15946:15984   */\n      tag_76\n      jump\t// in\n    tag_390:\n        /* \"#utility.yul\":16031:16098   */\n      tag_391\n        /* \"#utility.yul\":16091:16097   */\n      dup3\n        /* \"#utility.yul\":16083:16089   */\n      dup3\n        /* \"#utility.yul\":16077:16081   */\n      dup6\n        /* \"#utility.yul\":16031:16098   */\n      tag_199\n      jump\t// in\n    tag_391:\n        /* \"#utility.yul\":16125:16126   */\n      0x00\n        /* \"#utility.yul\":16149:16153   */\n      0x20\n        /* \"#utility.yul\":16136:16153   */\n      swap1\n      pop\n        /* \"#utility.yul\":16181:16183   */\n      0x1f\n        /* \"#utility.yul\":16173:16179   */\n      dup4\n        /* \"#utility.yul\":16170:16184   */\n      gt\n        /* \"#utility.yul\":16198:16199   */\n      0x01\n        /* \"#utility.yul\":16193:16811   */\n      dup2\n      eq\n      tag_393\n      jumpi\n        /* \"#utility.yul\":16855:16856   */\n      0x00\n        /* \"#utility.yul\":16872:16878   */\n      dup5\n        /* \"#utility.yul\":16869:16946   */\n      iszero\n      tag_394\n      jumpi\n        /* \"#utility.yul\":16921:16930   */\n      dup3\n        /* \"#utility.yul\":16916:16919   */\n      dup8\n        /* \"#utility.yul\":16912:16931   */\n      add\n        /* \"#utility.yul\":16906:16932   */\n      mload\n        /* \"#utility.yul\":16897:16932   */\n      swap1\n      pop\n        /* \"#utility.yul\":16869:16946   */\n    tag_394:\n        /* \"#utility.yul\":16972:17039   */\n      tag_395\n        /* \"#utility.yul\":17032:17038   */\n      dup6\n        /* \"#utility.yul\":17025:17030   */\n      dup3\n        /* \"#utility.yul\":16972:17039   */\n      tag_202\n      jump\t// in\n    tag_395:\n        /* \"#utility.yul\":16966:16970   */\n      dup7\n        /* \"#utility.yul\":16959:17040   */\n      sstore\n        /* \"#utility.yul\":16828:17050   */\n      pop\n        /* \"#utility.yul\":16163:17050   */\n      jump(tag_392)\n        /* \"#utility.yul\":16193:16811   */\n    tag_393:\n        /* \"#utility.yul\":16245:16249   */\n      0x1f\n        /* \"#utility.yul\":16241:16250   */\n      not\n        /* \"#utility.yul\":16233:16239   */\n      dup5\n        /* \"#utility.yul\":16229:16251   */\n      and\n        /* \"#utility.yul\":16279:16316   */\n      tag_396\n        /* \"#utility.yul\":16311:16315   */\n      dup7\n        /* \"#utility.yul\":16279:16316   */\n      tag_188\n      jump\t// in\n    tag_396:\n        /* \"#utility.yul\":16338:16339   */\n      0x00\n        /* \"#utility.yul\":16352:16560   */\n    tag_397:\n        /* \"#utility.yul\":16366:16373   */\n      dup3\n        /* \"#utility.yul\":16363:16364   */\n      dup2\n        /* \"#utility.yul\":16360:16374   */\n      lt\n        /* \"#utility.yul\":16352:16560   */\n      iszero\n      tag_399\n      jumpi\n        /* \"#utility.yul\":16445:16454   */\n      dup5\n        /* \"#utility.yul\":16440:16443   */\n      dup10\n        /* \"#utility.yul\":16436:16455   */\n      add\n        /* \"#utility.yul\":16430:16456   */\n      mload\n        /* \"#utility.yul\":16422:16428   */\n      dup3\n        /* \"#utility.yul\":16415:16457   */\n      sstore\n        /* \"#utility.yul\":16496:16497   */\n      0x01\n        /* \"#utility.yul\":16488:16494   */\n      dup3\n        /* \"#utility.yul\":16484:16498   */\n      add\n        /* \"#utility.yul\":16474:16498   */\n      swap2\n      pop\n        /* \"#utility.yul\":16543:16545   */\n      0x20\n        /* \"#utility.yul\":16532:16541   */\n      dup6\n        /* \"#utility.yul\":16528:16546   */\n      add\n        /* \"#utility.yul\":16515:16546   */\n      swap5\n      pop\n        /* \"#utility.yul\":16389:16393   */\n      0x20\n        /* \"#utility.yul\":16386:16387   */\n      dup2\n        /* \"#utility.yul\":16382:16394   */\n      add\n        /* \"#utility.yul\":16377:16394   */\n      swap1\n      pop\n        /* \"#utility.yul\":16352:16560   */\n      jump(tag_397)\n    tag_399:\n        /* \"#utility.yul\":16588:16594   */\n      dup7\n        /* \"#utility.yul\":16579:16586   */\n      dup4\n        /* \"#utility.yul\":16576:16595   */\n      lt\n        /* \"#utility.yul\":16573:16752   */\n      iszero\n      tag_400\n      jumpi\n        /* \"#utility.yul\":16646:16655   */\n      dup5\n        /* \"#utility.yul\":16641:16644   */\n      dup10\n        /* \"#utility.yul\":16637:16656   */\n      add\n        /* \"#utility.yul\":16631:16657   */\n      mload\n        /* \"#utility.yul\":16689:16737   */\n      tag_401\n        /* \"#utility.yul\":16731:16735   */\n      0x1f\n        /* \"#utility.yul\":16723:16729   */\n      dup10\n        /* \"#utility.yul\":16719:16736   */\n      and\n        /* \"#utility.yul\":16708:16717   */\n      dup3\n        /* \"#utility.yul\":16689:16737   */\n      tag_201\n      jump\t// in\n    tag_401:\n        /* \"#utility.yul\":16681:16687   */\n      dup4\n        /* \"#utility.yul\":16674:16738   */\n      sstore\n        /* \"#utility.yul\":16596:16752   */\n      pop\n        /* \"#utility.yul\":16573:16752   */\n    tag_400:\n        /* \"#utility.yul\":16798:16799   */\n      0x01\n        /* \"#utility.yul\":16794:16795   */\n      0x02\n        /* \"#utility.yul\":16786:16792   */\n      dup9\n        /* \"#utility.yul\":16782:16796   */\n      mul\n        /* \"#utility.yul\":16778:16800   */\n      add\n        /* \"#utility.yul\":16772:16776   */\n      dup9\n        /* \"#utility.yul\":16765:16801   */\n      sstore\n        /* \"#utility.yul\":16200:16811   */\n      pop\n      pop\n      pop\n        /* \"#utility.yul\":16163:17050   */\n    tag_392:\n      pop\n        /* \"#utility.yul\":15753:17056   */\n      pop\n      pop\n      pop\n        /* \"#utility.yul\":15661:17056   */\n      pop\n      pop\n      jump\t// out\n        /* \"#utility.yul\":17062:17706   */\n    tag_96:\n        /* \"#utility.yul\":17259:17263   */\n      0x00\n        /* \"#utility.yul\":17297:17300   */\n      0x80\n        /* \"#utility.yul\":17286:17295   */\n      dup3\n        /* \"#utility.yul\":17282:17301   */\n      add\n        /* \"#utility.yul\":17274:17301   */\n      swap1\n      pop\n        /* \"#utility.yul\":17311:17382   */\n      tag_403\n        /* \"#utility.yul\":17379:17380   */\n      0x00\n        /* \"#utility.yul\":17368:17377   */\n      dup4\n        /* \"#utility.yul\":17364:17381   */\n      add\n        /* \"#utility.yul\":17355:17361   */\n      dup8\n        /* \"#utility.yul\":17311:17382   */\n      tag_154\n      jump\t// in\n    tag_403:\n        /* \"#utility.yul\":17429:17438   */\n      dup2\n        /* \"#utility.yul\":17423:17427   */\n      dup2\n        /* \"#utility.yul\":17419:17439   */\n      sub\n        /* \"#utility.yul\":17414:17416   */\n      0x20\n        /* \"#utility.yul\":17403:17412   */\n      dup4\n        /* \"#utility.yul\":17399:17417   */\n      add\n        /* \"#utility.yul\":17392:17440   */\n      mstore\n        /* \"#utility.yul\":17457:17535   */\n      tag_404\n        /* \"#utility.yul\":17530:17534   */\n      dup2\n        /* \"#utility.yul\":17521:17527   */\n      dup7\n        /* \"#utility.yul\":17457:17535   */\n      tag_172\n      jump\t// in\n    tag_404:\n        /* \"#utility.yul\":17449:17535   */\n      swap1\n      pop\n        /* \"#utility.yul\":17545:17617   */\n      tag_405\n        /* \"#utility.yul\":17613:17615   */\n      0x40\n        /* \"#utility.yul\":17602:17611   */\n      dup4\n        /* \"#utility.yul\":17598:17616   */\n      add\n        /* \"#utility.yul\":17589:17595   */\n      dup6\n        /* \"#utility.yul\":17545:17617   */\n      tag_154\n      jump\t// in\n    tag_405:\n        /* \"#utility.yul\":17627:17699   */\n      tag_406\n        /* \"#utility.yul\":17695:17697   */\n      0x60\n        /* \"#utility.yul\":17684:17693   */\n      dup4\n        /* \"#utility.yul\":17680:17698   */\n      add\n        /* \"#utility.yul\":17671:17677   */\n      dup5\n        /* \"#utility.yul\":17627:17699   */\n      tag_161\n      jump\t// in\n    tag_406:\n        /* \"#utility.yul\":17062:17706   */\n      swap6\n      swap5\n      pop\n      pop\n      pop\n      pop\n      pop\n      jump\t// out\n        /* \"#utility.yul\":17712:17892   */\n    tag_107:\n        /* \"#utility.yul\":17760:17837   */\n      0x4e487b7100000000000000000000000000000000000000000000000000000000\n        /* \"#utility.yul\":17757:17758   */\n      0x00\n        /* \"#utility.yul\":17750:17838   */\n      mstore\n        /* \"#utility.yul\":17857:17861   */\n      0x32\n        /* \"#utility.yul\":17854:17855   */\n      0x04\n        /* \"#utility.yul\":17847:17862   */\n      mstore\n        /* \"#utility.yul\":17881:17885   */\n      0x24\n        /* \"#utility.yul\":17878:17879   */\n      0x00\n        /* \"#utility.yul\":17871:17886   */\n      revert\n        /* \"#utility.yul\":17898:18061   */\n    tag_203:\n        /* \"#utility.yul\":18038:18053   */\n      0x496e76616c6964206f7264657200000000000000000000000000000000000000\n        /* \"#utility.yul\":18034:18035   */\n      0x00\n        /* \"#utility.yul\":18026:18032   */\n      dup3\n        /* \"#utility.yul\":18022:18036   */\n      add\n        /* \"#utility.yul\":18015:18054   */\n      mstore\n        /* \"#utility.yul\":17898:18061   */\n      pop\n      jump\t// out\n        /* \"#utility.yul\":18067:18433   */\n    tag_204:\n        /* \"#utility.yul\":18209:18212   */\n      0x00\n        /* \"#utility.yul\":18230:18297   */\n      tag_410\n        /* \"#utility.yul\":18294:18296   */\n      0x0d\n        /* \"#utility.yul\":18289:18292   */\n      dup4\n        /* \"#utility.yul\":18230:18297   */\n      tag_169\n      jump\t// in\n    tag_410:\n        /* \"#utility.yul\":18223:18297   */\n      swap2\n      pop\n        /* \"#utility.yul\":18306:18399   */\n      tag_411\n        /* \"#utility.yul\":18395:18398   */\n      dup3\n        /* \"#utility.yul\":18306:18399   */\n      tag_203\n      jump\t// in\n    tag_411:\n        /* \"#utility.yul\":18424:18426   */\n      0x20\n        /* \"#utility.yul\":18419:18422   */\n      dup3\n        /* \"#utility.yul\":18415:18427   */\n      add\n        /* \"#utility.yul\":18408:18427   */\n      swap1\n      pop\n        /* \"#utility.yul\":18067:18433   */\n      swap2\n      swap1\n      pop\n      jump\t// out\n        /* \"#utility.yul\":18439:18858   */\n    tag_112:\n        /* \"#utility.yul\":18605:18609   */\n      0x00\n        /* \"#utility.yul\":18643:18645   */\n      0x20\n        /* \"#utility.yul\":18632:18641   */\n      dup3\n        /* \"#utility.yul\":18628:18646   */\n      add\n        /* \"#utility.yul\":18620:18646   */\n      swap1\n      pop\n        /* \"#utility.yul\":18692:18701   */\n      dup2\n        /* \"#utility.yul\":18686:18690   */\n      dup2\n        /* \"#utility.yul\":18682:18702   */\n      sub\n        /* \"#utility.yul\":18678:18679   */\n      0x00\n        /* \"#utility.yul\":18667:18676   */\n      dup4\n        /* \"#utility.yul\":18663:18680   */\n      add\n        /* \"#utility.yul\":18656:18703   */\n      mstore\n        /* \"#utility.yul\":18720:18851   */\n      tag_413\n        /* \"#utility.yul\":18846:18850   */\n      dup2\n        /* \"#utility.yul\":18720:18851   */\n      tag_204\n      jump\t// in\n    tag_413:\n        /* \"#utility.yul\":18712:18851   */\n      swap1\n      pop\n        /* \"#utility.yul\":18439:18858   */\n      swap2\n      swap1\n      pop\n      jump\t// out\n        /* \"#utility.yul\":18864:19084   */\n    tag_205:\n        /* \"#utility.yul\":19004:19038   */\n      0x4f6e6c792062757965722063616e2063616c6c20746869732066756e6374696f\n        /* \"#utility.yul\":19000:19001   */\n      0x00\n        /* \"#utility.yul\":18992:18998   */\n      dup3\n        /* \"#utility.yul\":18988:19002   */\n      add\n        /* \"#utility.yul\":18981:19039   */\n      mstore\n        /* \"#utility.yul\":19073:19076   */\n      0x6e00000000000000000000000000000000000000000000000000000000000000\n        /* \"#utility.yul\":19068:19070   */\n      0x20\n        /* \"#utility.yul\":19060:19066   */\n      dup3\n        /* \"#utility.yul\":19056:19071   */\n      add\n        /* \"#utility.yul\":19049:19077   */\n      mstore\n        /* \"#utility.yul\":18864:19084   */\n      pop\n      jump\t// out\n        /* \"#utility.yul\":19090:19456   */\n    tag_206:\n        /* \"#utility.yul\":19232:19235   */\n      0x00\n        /* \"#utility.yul\":19253:19320   */\n      tag_416\n        /* \"#utility.yul\":19317:19319   */\n      0x21\n        /* \"#utility.yul\":19312:19315   */\n      dup4\n        /* \"#utility.yul\":19253:19320   */\n      tag_169\n      jump\t// in\n    tag_416:\n        /* \"#utility.yul\":19246:19320   */\n      swap2\n      pop\n        /* \"#utility.yul\":19329:19422   */\n      tag_417\n        /* \"#utility.yul\":19418:19421   */\n      dup3\n        /* \"#utility.yul\":19329:19422   */\n      tag_205\n      jump\t// in\n    tag_417:\n        /* \"#utility.yul\":19447:19449   */\n      0x40\n        /* \"#utility.yul\":19442:19445   */\n      dup3\n        /* \"#utility.yul\":19438:19450   */\n      add\n        /* \"#utility.yul\":19431:19450   */\n      swap1\n      pop\n        /* \"#utility.yul\":19090:19456   */\n      swap2\n      swap1\n      pop\n      jump\t// out\n        /* \"#utility.yul\":19462:19881   */\n    tag_121:\n        /* \"#utility.yul\":19628:19632   */\n      0x00\n        /* \"#utility.yul\":19666:19668   */\n      0x20\n        /* \"#utility.yul\":19655:19664   */\n      dup3\n        /* \"#utility.yul\":19651:19669   */\n      add\n        /* \"#utility.yul\":19643:19669   */\n      swap1\n      pop\n        /* \"#utility.yul\":19715:19724   */\n      dup2\n        /* \"#utility.yul\":19709:19713   */\n      dup2\n        /* \"#utility.yul\":19705:19725   */\n      sub\n        /* \"#utility.yul\":19701:19702   */\n      0x00\n        /* \"#utility.yul\":19690:19699   */\n      dup4\n        /* \"#utility.yul\":19686:19703   */\n      add\n        /* \"#utility.yul\":19679:19726   */\n      mstore\n        /* \"#utility.yul\":19743:19874   */\n      tag_419\n        /* \"#utility.yul\":19869:19873   */\n      dup2\n        /* \"#utility.yul\":19743:19874   */\n      tag_206\n      jump\t// in\n    tag_419:\n        /* \"#utility.yul\":19735:19874   */\n      swap1\n      pop\n        /* \"#utility.yul\":19462:19881   */\n      swap2\n      swap1\n      pop\n      jump\t// out\n        /* \"#utility.yul\":19887:20058   */\n    tag_207:\n        /* \"#utility.yul\":20027:20050   */\n      0x50726f64756374206e6f7420617661696c61626c650000000000000000000000\n        /* \"#utility.yul\":20023:20024   */\n      0x00\n        /* \"#utility.yul\":20015:20021   */\n      dup3\n        /* \"#utility.yul\":20011:20025   */\n      add\n        /* \"#utility.yul\":20004:20051   */\n      mstore\n        /* \"#utility.yul\":19887:20058   */\n      pop\n      jump\t// out\n        /* \"#utility.yul\":20064:20430   */\n    tag_208:\n        /* \"#utility.yul\":20206:20209   */\n      0x00\n        /* \"#utility.yul\":20227:20294   */\n      tag_422\n        /* \"#utility.yul\":20291:20293   */\n      0x15\n        /* \"#utility.yul\":20286:20289   */\n      dup4\n        /* \"#utility.yul\":20227:20294   */\n      tag_169\n      jump\t// in\n    tag_422:\n        /* \"#utility.yul\":20220:20294   */\n      swap2\n      pop\n        /* \"#utility.yul\":20303:20396   */\n      tag_423\n        /* \"#utility.yul\":20392:20395   */\n      dup3\n        /* \"#utility.yul\":20303:20396   */\n      tag_207\n      jump\t// in\n    tag_423:\n        /* \"#utility.yul\":20421:20423   */\n      0x20\n        /* \"#utility.yul\":20416:20419   */\n      dup3\n        /* \"#utility.yul\":20412:20424   */\n      add\n        /* \"#utility.yul\":20405:20424   */\n      swap1\n      pop\n        /* \"#utility.yul\":20064:20430   */\n      swap2\n      swap1\n      pop\n      jump\t// out\n        /* \"#utility.yul\":20436:20855   */\n    tag_125:\n        /* \"#utility.yul\":20602:20606   */\n      0x00\n        /* \"#utility.yul\":20640:20642   */\n      0x20\n        /* \"#utility.yul\":20629:20638   */\n      dup3\n        /* \"#utility.yul\":20625:20643   */\n      add\n        /* \"#utility.yul\":20617:20643   */\n      swap1\n      pop\n        /* \"#utility.yul\":20689:20698   */\n      dup2\n        /* \"#utility.yul\":20683:20687   */\n      dup2\n        /* \"#utility.yul\":20679:20699   */\n      sub\n        /* \"#utility.yul\":20675:20676   */\n      0x00\n        /* \"#utility.yul\":20664:20673   */\n      dup4\n        /* \"#utility.yul\":20660:20677   */\n      add\n        /* \"#utility.yul\":20653:20700   */\n      mstore\n        /* \"#utility.yul\":20717:20848   */\n      tag_425\n        /* \"#utility.yul\":20843:20847   */\n      dup2\n        /* \"#utility.yul\":20717:20848   */\n      tag_208\n      jump\t// in\n    tag_425:\n        /* \"#utility.yul\":20709:20848   */\n      swap1\n      pop\n        /* \"#utility.yul\":20436:20855   */\n      swap2\n      swap1\n      pop\n      jump\t// out\n        /* \"#utility.yul\":20861:21055   */\n    tag_128:\n        /* \"#utility.yul\":20901:20905   */\n      0x00\n        /* \"#utility.yul\":20921:20941   */\n      tag_427\n        /* \"#utility.yul\":20939:20940   */\n      dup3\n        /* \"#utility.yul\":20921:20941   */\n      tag_153\n      jump\t// in\n    tag_427:\n        /* \"#utility.yul\":20916:20941   */\n      swap2\n      pop\n        /* \"#utility.yul\":20955:20975   */\n      tag_428\n        /* \"#utility.yul\":20973:20974   */\n      dup4\n        /* \"#utility.yul\":20955:20975   */\n      tag_153\n      jump\t// in\n    tag_428:\n        /* \"#utility.yul\":20950:20975   */\n      swap3\n      pop\n        /* \"#utility.yul\":20999:21000   */\n      dup3\n        /* \"#utility.yul\":20996:20997   */\n      dup3\n        /* \"#utility.yul\":20992:21001   */\n      sub\n        /* \"#utility.yul\":20984:21001   */\n      swap1\n      pop\n        /* \"#utility.yul\":21023:21024   */\n      dup2\n        /* \"#utility.yul\":21017:21021   */\n      dup2\n        /* \"#utility.yul\":21014:21025   */\n      gt\n        /* \"#utility.yul\":21011:21048   */\n      iszero\n      tag_429\n      jumpi\n        /* \"#utility.yul\":21028:21046   */\n      tag_430\n      tag_187\n      jump\t// in\n    tag_430:\n        /* \"#utility.yul\":21011:21048   */\n    tag_429:\n        /* \"#utility.yul\":20861:21055   */\n      swap3\n      swap2\n      pop\n      pop\n      jump\t// out\n        /* \"#utility.yul\":21061:21503   */\n    tag_130:\n        /* \"#utility.yul\":21210:21214   */\n      0x00\n        /* \"#utility.yul\":21248:21250   */\n      0x60\n        /* \"#utility.yul\":21237:21246   */\n      dup3\n        /* \"#utility.yul\":21233:21251   */\n      add\n        /* \"#utility.yul\":21225:21251   */\n      swap1\n      pop\n        /* \"#utility.yul\":21261:21332   */\n      tag_432\n        /* \"#utility.yul\":21329:21330   */\n      0x00\n        /* \"#utility.yul\":21318:21327   */\n      dup4\n        /* \"#utility.yul\":21314:21331   */\n      add\n        /* \"#utility.yul\":21305:21311   */\n      dup7\n        /* \"#utility.yul\":21261:21332   */\n      tag_154\n      jump\t// in\n    tag_432:\n        /* \"#utility.yul\":21342:21414   */\n      tag_433\n        /* \"#utility.yul\":21410:21412   */\n      0x20\n        /* \"#utility.yul\":21399:21408   */\n      dup4\n        /* \"#utility.yul\":21395:21413   */\n      add\n        /* \"#utility.yul\":21386:21392   */\n      dup6\n        /* \"#utility.yul\":21342:21414   */\n      tag_154\n      jump\t// in\n    tag_433:\n        /* \"#utility.yul\":21424:21496   */\n      tag_434\n        /* \"#utility.yul\":21492:21494   */\n      0x40\n        /* \"#utility.yul\":21481:21490   */\n      dup4\n        /* \"#utility.yul\":21477:21495   */\n      add\n        /* \"#utility.yul\":21468:21474   */\n      dup5\n        /* \"#utility.yul\":21424:21496   */\n      tag_161\n      jump\t// in\n    tag_434:\n        /* \"#utility.yul\":21061:21503   */\n      swap5\n      swap4\n      pop\n      pop\n      pop\n      pop\n      jump\t// out\n        /* \"#utility.yul\":21509:21681   */\n    tag_209:\n        /* \"#utility.yul\":21649:21673   */\n      0x4f7264657220616c726561647920616363657074656400000000000000000000\n        /* \"#utility.yul\":21645:21646   */\n      0x00\n        /* \"#utility.yul\":21637:21643   */\n      dup3\n        /* \"#utility.yul\":21633:21647   */\n      add\n        /* \"#utility.yul\":21626:21674   */\n      mstore\n        /* \"#utility.yul\":21509:21681   */\n      pop\n      jump\t// out\n        /* \"#utility.yul\":21687:22053   */\n    tag_210:\n        /* \"#utility.yul\":21829:21832   */\n      0x00\n        /* \"#utility.yul\":21850:21917   */\n      tag_437\n        /* \"#utility.yul\":21914:21916   */\n      0x16\n        /* \"#utility.yul\":21909:21912   */\n      dup4\n        /* \"#utility.yul\":21850:21917   */\n      tag_169\n      jump\t// in\n    tag_437:\n        /* \"#utility.yul\":21843:21917   */\n      swap2\n      pop\n        /* \"#utility.yul\":21926:22019   */\n      tag_438\n        /* \"#utility.yul\":22015:22018   */\n      dup3\n        /* \"#utility.yul\":21926:22019   */\n      tag_209\n      jump\t// in\n    tag_438:\n        /* \"#utility.yul\":22044:22046   */\n      0x20\n        /* \"#utility.yul\":22039:22042   */\n      dup3\n        /* \"#utility.yul\":22035:22047   */\n      add\n        /* \"#utility.yul\":22028:22047   */\n      swap1\n      pop\n        /* \"#utility.yul\":21687:22053   */\n      swap2\n      swap1\n      pop\n      jump\t// out\n        /* \"#utility.yul\":22059:22478   */\n    tag_146:\n        /* \"#utility.yul\":22225:22229   */\n      0x00\n        /* \"#utility.yul\":22263:22265   */\n      0x20\n        /* \"#utility.yul\":22252:22261   */\n      dup3\n        /* \"#utility.yul\":22248:22266   */\n      add\n        /* \"#utility.yul\":22240:22266   */\n      swap1\n      pop\n        /* \"#utility.yul\":22312:22321   */\n      dup2\n        /* \"#utility.yul\":22306:22310   */\n      dup2\n        /* \"#utility.yul\":22302:22322   */\n      sub\n        /* \"#utility.yul\":22298:22299   */\n      0x00\n        /* \"#utility.yul\":22287:22296   */\n      dup4\n        /* \"#utility.yul\":22283:22300   */\n      add\n        /* \"#utility.yul\":22276:22323   */\n      mstore\n        /* \"#utility.yul\":22340:22471   */\n      tag_440\n        /* \"#utility.yul\":22466:22470   */\n      dup2\n        /* \"#utility.yul\":22340:22471   */\n      tag_210\n      jump\t// in\n    tag_440:\n        /* \"#utility.yul\":22332:22471   */\n      swap1\n      pop\n        /* \"#utility.yul\":22059:22478   */\n      swap2\n      swap1\n      pop\n      jump\t// out\n\n    auxdata: 0xa2646970667358221220dadf137a1e8f40454508c7351cf91ccee706ada1fea754c1928cac0582452c0b64736f6c63430008160033\n}\n",
				"bytecode": {
					"linkReferences": {},
					"object": "608060405234801561000f575f80fd5b50335f806101000a81548173ffffffffffffffffffffffffffffffffffffffff021916908373ffffffffffffffffffffffffffffffffffffffff160217905550611a058061005c5f395ff3fe608060405234801561000f575f80fd5b50600436106100a7575f3560e01c8063b15247d91161006f578063b15247d91461017b578063b6adaaff14610197578063ba2255f4146101b3578063c1302b34146101cf578063ef18e9ed146101ff578063f851a4401461021b576100a7565b806307f6af8a146100ab5780631f16653b146100c75780634500cb60146100e557806374d5e100146101185780637acc0b2014610148575b5f80fd5b6100c560048036038101906100c09190610e18565b610239565b005b6100cf61034f565b6040516100dc9190610e5b565b60405180910390f35b6100ff60048036038101906100fa9190610ef8565b610355565b60405161010f9493929190610f5f565b60405180910390f35b610132600480360381019061012d9190610fa2565b6103d4565b60405161013f9190611040565b60405180910390f35b610162600480360381019061015d9190611059565b6103f1565b604051610172949392919061110e565b60405180910390f35b61019560048036038101906101909190611284565b6104cf565b005b6101b160048036038101906101ac9190611059565b610711565b005b6101cd60048036038101906101c89190611059565b610911565b005b6101e960048036038101906101e49190610ef8565b610bdf565b6040516101f69190610e5b565b60405180910390f35b61021960048036038101906102149190611059565b610c0a565b005b610223610dc1565b60405161023091906112de565b60405180910390f35b5f600281111561024c5761024b610fcd565b5b60015f3373ffffffffffffffffffffffffffffffffffffffff1673ffffffffffffffffffffffffffffffffffffffff1681526020019081526020015f205f9054906101000a900460ff1660028111156102a8576102a7610fcd565b5b146102e8576040517f08c379a00000000000000000000000000000000000000000000000000000000081526004016102df90611341565b60405180910390fd5b8060015f3373ffffffffffffffffffffffffffffffffffffffff1673ffffffffffffffffffffffffffffffffffffffff1681526020019081526020015f205f6101000a81548160ff0219169083600281111561034757610346610fcd565b5b021790555050565b60055481565b6004602052815f5260405f20818154811061036e575f80fd5b905f5260205f2090600202015f9150915050805f015490806001015f9054906101000a900473ffffffffffffffffffffffffffffffffffffffff16908060010160149054906101000a900460ff16908060010160159054906101000a900460ff16905084565b6001602052805f5260405f205f915054906101000a900460ff1681565b6002602052805f5260405f205f91509050805f0180546104109061138c565b80601f016020809104026020016040519081016040528092919081815260200182805461043c9061138c565b80156104875780601f1061045e57610100808354040283529160200191610487565b820191905f5260205f20905b81548152906001019060200180831161046a57829003601f168201915b505050505090806001015490806002015f9054906101000a900473ffffffffffffffffffffffffffffffffffffffff16908060020160149054906101000a900460ff16905084565b6002808111156104e2576104e1610fcd565b5b60015f3373ffffffffffffffffffffffffffffffffffffffff1673ffffffffffffffffffffffffffffffffffffffff1681526020019081526020015f205f9054906101000a900460ff16600281111561053e5761053d610fcd565b5b1461057e576040517f08c379a00000000000000000000000000000000000000000000000000000000081526004016105759061142c565b60405180910390fd5b5f60055f81548092919061059190611477565b9190505590505f60405180608001604052808581526020018481526020013373ffffffffffffffffffffffffffffffffffffffff1681526020016001151581525090508060025f8481526020019081526020015f205f820151815f0190816105f9919061165b565b50602082015181600101556040820151816002015f6101000a81548173ffffffffffffffffffffffffffffffffffffffff021916908373ffffffffffffffffffffffffffffffffffffffff16021790555060608201518160020160146101000a81548160ff02191690831515021790555090505060035f3373ffffffffffffffffffffffffffffffffffffffff1673ffffffffffffffffffffffffffffffffffffffff1681526020019081526020015f2082908060018154018082558091505060019003905f5260205f20015f90919091909150557f52402cafb2ecec722b103e8f203f83362148c168659dc96678c2c6850d12dd9f82858533604051610703949392919061172a565b60405180910390a150505050565b60028081111561072457610723610fcd565b5b60015f3373ffffffffffffffffffffffffffffffffffffffff1673ffffffffffffffffffffffffffffffffffffffff1681526020019081526020015f205f9054906101000a900460ff1660028111156107805761077f610fcd565b5b146107c0576040517f08c379a00000000000000000000000000000000000000000000000000000000081526004016107b79061142c565b60405180910390fd5b5f60045f3373ffffffffffffffffffffffffffffffffffffffff1673ffffffffffffffffffffffffffffffffffffffff1681526020019081526020015f2082815481106108105761080f611774565b5b905f5260205f20906002020190508060010160149054906101000a900460ff16801561084b57508060010160159054906101000a900460ff16155b61088a576040517f08c379a0000000000000000000000000000000000000000000000000000000008152600401610881906117eb565b60405180910390fd5b60018160010160156101000a81548160ff0219169083151502179055505f60025f835f015481526020019081526020015f2060020160146101000a81548160ff0219169083151502179055507f02a7d4d9472af7118644884b9a0ee443540c0027e938dd0aa35be8ecbe946c0a826040516109059190610e5b565b60405180910390a15050565b6001600281111561092557610924610fcd565b5b60015f3373ffffffffffffffffffffffffffffffffffffffff1673ffffffffffffffffffffffffffffffffffffffff1681526020019081526020015f205f9054906101000a900460ff16600281111561098157610980610fcd565b5b146109c1576040517f08c379a00000000000000000000000000000000000000000000000000000000081526004016109b890611879565b60405180910390fd5b60025f8281526020019081526020015f2060020160149054906101000a900460ff16610a22576040517f08c379a0000000000000000000000000000000000000000000000000000000008152600401610a19906118e1565b60405180910390fd5b5f60405180608001604052808381526020013373ffffffffffffffffffffffffffffffffffffffff1681526020015f151581526020015f1515815250905060045f3373ffffffffffffffffffffffffffffffffffffffff1673ffffffffffffffffffffffffffffffffffffffff1681526020019081526020015f2081908060018154018082558091505060019003905f5260205f2090600202015f909190919091505f820151815f01556020820151816001015f6101000a81548173ffffffffffffffffffffffffffffffffffffffff021916908373ffffffffffffffffffffffffffffffffffffffff16021790555060408201518160010160146101000a81548160ff02191690831515021790555060608201518160010160156101000a81548160ff02191690831515021790555050507ff4ae361d67df8ff151337122b70e54414e64545e71dd154d79408677451fd874600160045f3373ffffffffffffffffffffffffffffffffffffffff1673ffffffffffffffffffffffffffffffffffffffff1681526020019081526020015f2080549050610bc291906118ff565b8333604051610bd393929190611932565b60405180910390a15050565b6003602052815f5260405f208181548110610bf8575f80fd5b905f5260205f20015f91509150505481565b600280811115610c1d57610c1c610fcd565b5b60015f3373ffffffffffffffffffffffffffffffffffffffff1673ffffffffffffffffffffffffffffffffffffffff1681526020019081526020015f205f9054906101000a900460ff166002811115610c7957610c78610fcd565b5b14610cb9576040517f08c379a0000000000000000000000000000000000000000000000000000000008152600401610cb09061142c565b60405180910390fd5b5f60045f3373ffffffffffffffffffffffffffffffffffffffff1673ffffffffffffffffffffffffffffffffffffffff1681526020019081526020015f208281548110610d0957610d08611774565b5b905f5260205f20906002020190508060010160149054906101000a900460ff1615610d69576040517f08c379a0000000000000000000000000000000000000000000000000000000008152600401610d60906119b1565b60405180910390fd5b60018160010160146101000a81548160ff0219169083151502179055507f262f7ad1922bdcf27203585ef3238620589ce6f74721d45bff6897a19e4f94a182604051610db59190610e5b565b60405180910390a15050565b5f8054906101000a900473ffffffffffffffffffffffffffffffffffffffff1681565b5f604051905090565b5f80fd5b5f80fd5b60038110610e01575f80fd5b50565b5f81359050610e1281610df5565b92915050565b5f60208284031215610e2d57610e2c610ded565b5b5f610e3a84828501610e04565b91505092915050565b5f819050919050565b610e5581610e43565b82525050565b5f602082019050610e6e5f830184610e4c565b92915050565b5f73ffffffffffffffffffffffffffffffffffffffff82169050919050565b5f610e9d82610e74565b9050919050565b610ead81610e93565b8114610eb7575f80fd5b50565b5f81359050610ec881610ea4565b92915050565b610ed781610e43565b8114610ee1575f80fd5b50565b5f81359050610ef281610ece565b92915050565b5f8060408385031215610f0e57610f0d610ded565b5b5f610f1b85828601610eba565b9250506020610f2c85828601610ee4565b9150509250929050565b610f3f81610e93565b82525050565b5f8115159050919050565b610f5981610f45565b82525050565b5f608082019050610f725f830187610e4c565b610f7f6020830186610f36565b610f8c6040830185610f50565b610f996060830184610f50565b95945050505050565b5f60208284031215610fb757610fb6610ded565b5b5f610fc484828501610eba565b91505092915050565b7f4e487b71000000000000000000000000000000000000000000000000000000005f52602160045260245ffd5b6003811061100b5761100a610fcd565b5b50565b5f81905061101b82610ffa565b919050565b5f61102a8261100e565b9050919050565b61103a81611020565b82525050565b5f6020820190506110535f830184611031565b92915050565b5f6020828403121561106e5761106d610ded565b5b5f61107b84828501610ee4565b91505092915050565b5f81519050919050565b5f82825260208201905092915050565b5f5b838110156110bb5780820151818401526020810190506110a0565b5f8484015250505050565b5f601f19601f8301169050919050565b5f6110e082611084565b6110ea818561108e565b93506110fa81856020860161109e565b611103816110c6565b840191505092915050565b5f6080820190508181035f83015261112681876110d6565b90506111356020830186610e4c565b6111426040830185610f36565b61114f6060830184610f50565b95945050505050565b5f80fd5b5f80fd5b7f4e487b71000000000000000000000000000000000000000000000000000000005f52604160045260245ffd5b611196826110c6565b810181811067ffffffffffffffff821117156111b5576111b4611160565b5b80604052505050565b5f6111c7610de4565b90506111d3828261118d565b919050565b5f67ffffffffffffffff8211156111f2576111f1611160565b5b6111fb826110c6565b9050602081019050919050565b828183375f83830152505050565b5f611228611223846111d8565b6111be565b9050828152602081018484840111156112445761124361115c565b5b61124f848285611208565b509392505050565b5f82601f83011261126b5761126a611158565b5b813561127b848260208601611216565b91505092915050565b5f806040838503121561129a57611299610ded565b5b5f83013567ffffffffffffffff8111156112b7576112b6610df1565b5b6112c385828601611257565b92505060206112d485828601610ee4565b9150509250929050565b5f6020820190506112f15f830184610f36565b92915050565b7f5573657220726f6c6520616c72656164792073657400000000000000000000005f82015250565b5f61132b60158361108e565b9150611336826112f7565b602082019050919050565b5f6020820190508181035f8301526113588161131f565b9050919050565b7f4e487b71000000000000000000000000000000000000000000000000000000005f52602260045260245ffd5b5f60028204905060018216806113a357607f821691505b6020821081036113b6576113b561135f565b5b50919050565b7f4f6e6c792073656c6c65722063616e2063616c6c20746869732066756e6374695f8201527f6f6e000000000000000000000000000000000000000000000000000000000000602082015250565b5f61141660228361108e565b9150611421826113bc565b604082019050919050565b5f6020820190508181035f8301526114438161140a565b9050919050565b7f4e487b71000000000000000000000000000000000000000000000000000000005f52601160045260245ffd5b5f61148182610e43565b91507fffffffffffffffffffffffffffffffffffffffffffffffffffffffffffffffff82036114b3576114b261144a565b5b600182019050919050565b5f819050815f5260205f209050919050565b5f6020601f8301049050919050565b5f82821b905092915050565b5f6008830261151a7fffffffffffffffffffffffffffffffffffffffffffffffffffffffffffffffff826114df565b61152486836114df565b95508019841693508086168417925050509392505050565b5f819050919050565b5f61155f61155a61155584610e43565b61153c565b610e43565b9050919050565b5f819050919050565b61157883611545565b61158c61158482611566565b8484546114eb565b825550505050565b5f90565b6115a0611594565b6115ab81848461156f565b505050565b5b818110156115ce576115c35f82611598565b6001810190506115b1565b5050565b601f821115611613576115e4816114be565b6115ed846114d0565b810160208510156115fc578190505b611610611608856114d0565b8301826115b0565b50505b505050565b5f82821c905092915050565b5f6116335f1984600802611618565b1980831691505092915050565b5f61164b8383611624565b9150826002028217905092915050565b61166482611084565b67ffffffffffffffff81111561167d5761167c611160565b5b611687825461138c565b6116928282856115d2565b5f60209050601f8311600181146116c3575f84156116b1578287015190505b6116bb8582611640565b865550611722565b601f1984166116d1866114be565b5f5b828110156116f8578489015182556001820191506020850194506020810190506116d3565b868310156117155784890151611711601f891682611624565b8355505b6001600288020188555050505b505050505050565b5f60808201905061173d5f830187610e4c565b818103602083015261174f81866110d6565b905061175e6040830185610e4c565b61176b6060830184610f36565b95945050505050565b7f4e487b71000000000000000000000000000000000000000000000000000000005f52603260045260245ffd5b7f496e76616c6964206f72646572000000000000000000000000000000000000005f82015250565b5f6117d5600d8361108e565b91506117e0826117a1565b602082019050919050565b5f6020820190508181035f830152611802816117c9565b9050919050565b7f4f6e6c792062757965722063616e2063616c6c20746869732066756e6374696f5f8201527f6e00000000000000000000000000000000000000000000000000000000000000602082015250565b5f61186360218361108e565b915061186e82611809565b604082019050919050565b5f6020820190508181035f83015261189081611857565b9050919050565b7f50726f64756374206e6f7420617661696c61626c6500000000000000000000005f82015250565b5f6118cb60158361108e565b91506118d682611897565b602082019050919050565b5f6020820190508181035f8301526118f8816118bf565b9050919050565b5f61190982610e43565b915061191483610e43565b925082820390508181111561192c5761192b61144a565b5b92915050565b5f6060820190506119455f830186610e4c565b6119526020830185610e4c565b61195f6040830184610f36565b949350505050565b7f4f7264657220616c7265616479206163636570746564000000000000000000005f82015250565b5f61199b60168361108e565b91506119a682611967565b602082019050919050565b5f6020820190508181035f8301526119c88161198f565b905091905056fea2646970667358221220dadf137a1e8f40454508c7351cf91ccee706ada1fea754c1928cac0582452c0b64736f6c63430008160033",
					"opcodes": "PUSH1 0x80 PUSH1 0x40 MSTORE CALLVALUE DUP1 ISZERO PUSH2 0xF JUMPI PUSH0 DUP1 REVERT JUMPDEST POP CALLER PUSH0 DUP1 PUSH2 0x100 EXP DUP2 SLOAD DUP2 PUSH20 0xFFFFFFFFFFFFFFFFFFFFFFFFFFFFFFFFFFFFFFFF MUL NOT AND SWAP1 DUP4 PUSH20 0xFFFFFFFFFFFFFFFFFFFFFFFFFFFFFFFFFFFFFFFF AND MUL OR SWAP1 SSTORE POP PUSH2 0x1A05 DUP1 PUSH2 0x5C PUSH0 CODECOPY PUSH0 RETURN INVALID PUSH1 0x80 PUSH1 0x40 MSTORE CALLVALUE DUP1 ISZERO PUSH2 0xF JUMPI PUSH0 DUP1 REVERT JUMPDEST POP PUSH1 0x4 CALLDATASIZE LT PUSH2 0xA7 JUMPI PUSH0 CALLDATALOAD PUSH1 0xE0 SHR DUP1 PUSH4 0xB15247D9 GT PUSH2 0x6F JUMPI DUP1 PUSH4 0xB15247D9 EQ PUSH2 0x17B JUMPI DUP1 PUSH4 0xB6ADAAFF EQ PUSH2 0x197 JUMPI DUP1 PUSH4 0xBA2255F4 EQ PUSH2 0x1B3 JUMPI DUP1 PUSH4 0xC1302B34 EQ PUSH2 0x1CF JUMPI DUP1 PUSH4 0xEF18E9ED EQ PUSH2 0x1FF JUMPI DUP1 PUSH4 0xF851A440 EQ PUSH2 0x21B JUMPI PUSH2 0xA7 JUMP JUMPDEST DUP1 PUSH4 0x7F6AF8A EQ PUSH2 0xAB JUMPI DUP1 PUSH4 0x1F16653B EQ PUSH2 0xC7 JUMPI DUP1 PUSH4 0x4500CB60 EQ PUSH2 0xE5 JUMPI DUP1 PUSH4 0x74D5E100 EQ PUSH2 0x118 JUMPI DUP1 PUSH4 0x7ACC0B20 EQ PUSH2 0x148 JUMPI JUMPDEST PUSH0 DUP1 REVERT JUMPDEST PUSH2 0xC5 PUSH1 0x4 DUP1 CALLDATASIZE SUB DUP2 ADD SWAP1 PUSH2 0xC0 SWAP2 SWAP1 PUSH2 0xE18 JUMP JUMPDEST PUSH2 0x239 JUMP JUMPDEST STOP JUMPDEST PUSH2 0xCF PUSH2 0x34F JUMP JUMPDEST PUSH1 0x40 MLOAD PUSH2 0xDC SWAP2 SWAP1 PUSH2 0xE5B JUMP JUMPDEST PUSH1 0x40 MLOAD DUP1 SWAP2 SUB SWAP1 RETURN JUMPDEST PUSH2 0xFF PUSH1 0x4 DUP1 CALLDATASIZE SUB DUP2 ADD SWAP1 PUSH2 0xFA SWAP2 SWAP1 PUSH2 0xEF8 JUMP JUMPDEST PUSH2 0x355 JUMP JUMPDEST PUSH1 0x40 MLOAD PUSH2 0x10F SWAP5 SWAP4 SWAP3 SWAP2 SWAP1 PUSH2 0xF5F JUMP JUMPDEST PUSH1 0x40 MLOAD DUP1 SWAP2 SUB SWAP1 RETURN JUMPDEST PUSH2 0x132 PUSH1 0x4 DUP1 CALLDATASIZE SUB DUP2 ADD SWAP1 PUSH2 0x12D SWAP2 SWAP1 PUSH2 0xFA2 JUMP JUMPDEST PUSH2 0x3D4 JUMP JUMPDEST PUSH1 0x40 MLOAD PUSH2 0x13F SWAP2 SWAP1 PUSH2 0x1040 JUMP JUMPDEST PUSH1 0x40 MLOAD DUP1 SWAP2 SUB SWAP1 RETURN JUMPDEST PUSH2 0x162 PUSH1 0x4 DUP1 CALLDATASIZE SUB DUP2 ADD SWAP1 PUSH2 0x15D SWAP2 SWAP1 PUSH2 0x1059 JUMP JUMPDEST PUSH2 0x3F1 JUMP JUMPDEST PUSH1 0x40 MLOAD PUSH2 0x172 SWAP5 SWAP4 SWAP3 SWAP2 SWAP1 PUSH2 0x110E JUMP JUMPDEST PUSH1 0x40 MLOAD DUP1 SWAP2 SUB SWAP1 RETURN JUMPDEST PUSH2 0x195 PUSH1 0x4 DUP1 CALLDATASIZE SUB DUP2 ADD SWAP1 PUSH2 0x190 SWAP2 SWAP1 PUSH2 0x1284 JUMP JUMPDEST PUSH2 0x4CF JUMP JUMPDEST STOP JUMPDEST PUSH2 0x1B1 PUSH1 0x4 DUP1 CALLDATASIZE SUB DUP2 ADD SWAP1 PUSH2 0x1AC SWAP2 SWAP1 PUSH2 0x1059 JUMP JUMPDEST PUSH2 0x711 JUMP JUMPDEST STOP JUMPDEST PUSH2 0x1CD PUSH1 0x4 DUP1 CALLDATASIZE SUB DUP2 ADD SWAP1 PUSH2 0x1C8 SWAP2 SWAP1 PUSH2 0x1059 JUMP JUMPDEST PUSH2 0x911 JUMP JUMPDEST STOP JUMPDEST PUSH2 0x1E9 PUSH1 0x4 DUP1 CALLDATASIZE SUB DUP2 ADD SWAP1 PUSH2 0x1E4 SWAP2 SWAP1 PUSH2 0xEF8 JUMP JUMPDEST PUSH2 0xBDF JUMP JUMPDEST PUSH1 0x40 MLOAD PUSH2 0x1F6 SWAP2 SWAP1 PUSH2 0xE5B JUMP JUMPDEST PUSH1 0x40 MLOAD DUP1 SWAP2 SUB SWAP1 RETURN JUMPDEST PUSH2 0x219 PUSH1 0x4 DUP1 CALLDATASIZE SUB DUP2 ADD SWAP1 PUSH2 0x214 SWAP2 SWAP1 PUSH2 0x1059 JUMP JUMPDEST PUSH2 0xC0A JUMP JUMPDEST STOP JUMPDEST PUSH2 0x223 PUSH2 0xDC1 JUMP JUMPDEST PUSH1 0x40 MLOAD PUSH2 0x230 SWAP2 SWAP1 PUSH2 0x12DE JUMP JUMPDEST PUSH1 0x40 MLOAD DUP1 SWAP2 SUB SWAP1 RETURN JUMPDEST PUSH0 PUSH1 0x2 DUP2 GT ISZERO PUSH2 0x24C JUMPI PUSH2 0x24B PUSH2 0xFCD JUMP JUMPDEST JUMPDEST PUSH1 0x1 PUSH0 CALLER PUSH20 0xFFFFFFFFFFFFFFFFFFFFFFFFFFFFFFFFFFFFFFFF AND PUSH20 0xFFFFFFFFFFFFFFFFFFFFFFFFFFFFFFFFFFFFFFFF AND DUP2 MSTORE PUSH1 0x20 ADD SWAP1 DUP2 MSTORE PUSH1 0x20 ADD PUSH0 KECCAK256 PUSH0 SWAP1 SLOAD SWAP1 PUSH2 0x100 EXP SWAP1 DIV PUSH1 0xFF AND PUSH1 0x2 DUP2 GT ISZERO PUSH2 0x2A8 JUMPI PUSH2 0x2A7 PUSH2 0xFCD JUMP JUMPDEST JUMPDEST EQ PUSH2 0x2E8 JUMPI PUSH1 0x40 MLOAD PUSH32 0x8C379A000000000000000000000000000000000000000000000000000000000 DUP2 MSTORE PUSH1 0x4 ADD PUSH2 0x2DF SWAP1 PUSH2 0x1341 JUMP JUMPDEST PUSH1 0x40 MLOAD DUP1 SWAP2 SUB SWAP1 REVERT JUMPDEST DUP1 PUSH1 0x1 PUSH0 CALLER PUSH20 0xFFFFFFFFFFFFFFFFFFFFFFFFFFFFFFFFFFFFFFFF AND PUSH20 0xFFFFFFFFFFFFFFFFFFFFFFFFFFFFFFFFFFFFFFFF AND DUP2 MSTORE PUSH1 0x20 ADD SWAP1 DUP2 MSTORE PUSH1 0x20 ADD PUSH0 KECCAK256 PUSH0 PUSH2 0x100 EXP DUP2 SLOAD DUP2 PUSH1 0xFF MUL NOT AND SWAP1 DUP4 PUSH1 0x2 DUP2 GT ISZERO PUSH2 0x347 JUMPI PUSH2 0x346 PUSH2 0xFCD JUMP JUMPDEST JUMPDEST MUL OR SWAP1 SSTORE POP POP JUMP JUMPDEST PUSH1 0x5 SLOAD DUP2 JUMP JUMPDEST PUSH1 0x4 PUSH1 0x20 MSTORE DUP2 PUSH0 MSTORE PUSH1 0x40 PUSH0 KECCAK256 DUP2 DUP2 SLOAD DUP2 LT PUSH2 0x36E JUMPI PUSH0 DUP1 REVERT JUMPDEST SWAP1 PUSH0 MSTORE PUSH1 0x20 PUSH0 KECCAK256 SWAP1 PUSH1 0x2 MUL ADD PUSH0 SWAP2 POP SWAP2 POP POP DUP1 PUSH0 ADD SLOAD SWAP1 DUP1 PUSH1 0x1 ADD PUSH0 SWAP1 SLOAD SWAP1 PUSH2 0x100 EXP SWAP1 DIV PUSH20 0xFFFFFFFFFFFFFFFFFFFFFFFFFFFFFFFFFFFFFFFF AND SWAP1 DUP1 PUSH1 0x1 ADD PUSH1 0x14 SWAP1 SLOAD SWAP1 PUSH2 0x100 EXP SWAP1 DIV PUSH1 0xFF AND SWAP1 DUP1 PUSH1 0x1 ADD PUSH1 0x15 SWAP1 SLOAD SWAP1 PUSH2 0x100 EXP SWAP1 DIV PUSH1 0xFF AND SWAP1 POP DUP5 JUMP JUMPDEST PUSH1 0x1 PUSH1 0x20 MSTORE DUP1 PUSH0 MSTORE PUSH1 0x40 PUSH0 KECCAK256 PUSH0 SWAP2 POP SLOAD SWAP1 PUSH2 0x100 EXP SWAP1 DIV PUSH1 0xFF AND DUP2 JUMP JUMPDEST PUSH1 0x2 PUSH1 0x20 MSTORE DUP1 PUSH0 MSTORE PUSH1 0x40 PUSH0 KECCAK256 PUSH0 SWAP2 POP SWAP1 POP DUP1 PUSH0 ADD DUP1 SLOAD PUSH2 0x410 SWAP1 PUSH2 0x138C JUMP JUMPDEST DUP1 PUSH1 0x1F ADD PUSH1 0x20 DUP1 SWAP2 DIV MUL PUSH1 0x20 ADD PUSH1 0x40 MLOAD SWAP1 DUP2 ADD PUSH1 0x40 MSTORE DUP1 SWAP3 SWAP2 SWAP1 DUP2 DUP2 MSTORE PUSH1 0x20 ADD DUP3 DUP1 SLOAD PUSH2 0x43C SWAP1 PUSH2 0x138C JUMP JUMPDEST DUP1 ISZERO PUSH2 0x487 JUMPI DUP1 PUSH1 0x1F LT PUSH2 0x45E JUMPI PUSH2 0x100 DUP1 DUP4 SLOAD DIV MUL DUP4 MSTORE SWAP2 PUSH1 0x20 ADD SWAP2 PUSH2 0x487 JUMP JUMPDEST DUP3 ADD SWAP2 SWAP1 PUSH0 MSTORE PUSH1 0x20 PUSH0 KECCAK256 SWAP1 JUMPDEST DUP2 SLOAD DUP2 MSTORE SWAP1 PUSH1 0x1 ADD SWAP1 PUSH1 0x20 ADD DUP1 DUP4 GT PUSH2 0x46A JUMPI DUP3 SWAP1 SUB PUSH1 0x1F AND DUP3 ADD SWAP2 JUMPDEST POP POP POP POP POP SWAP1 DUP1 PUSH1 0x1 ADD SLOAD SWAP1 DUP1 PUSH1 0x2 ADD PUSH0 SWAP1 SLOAD SWAP1 PUSH2 0x100 EXP SWAP1 DIV PUSH20 0xFFFFFFFFFFFFFFFFFFFFFFFFFFFFFFFFFFFFFFFF AND SWAP1 DUP1 PUSH1 0x2 ADD PUSH1 0x14 SWAP1 SLOAD SWAP1 PUSH2 0x100 EXP SWAP1 DIV PUSH1 0xFF AND SWAP1 POP DUP5 JUMP JUMPDEST PUSH1 0x2 DUP1 DUP2 GT ISZERO PUSH2 0x4E2 JUMPI PUSH2 0x4E1 PUSH2 0xFCD JUMP JUMPDEST JUMPDEST PUSH1 0x1 PUSH0 CALLER PUSH20 0xFFFFFFFFFFFFFFFFFFFFFFFFFFFFFFFFFFFFFFFF AND PUSH20 0xFFFFFFFFFFFFFFFFFFFFFFFFFFFFFFFFFFFFFFFF AND DUP2 MSTORE PUSH1 0x20 ADD SWAP1 DUP2 MSTORE PUSH1 0x20 ADD PUSH0 KECCAK256 PUSH0 SWAP1 SLOAD SWAP1 PUSH2 0x100 EXP SWAP1 DIV PUSH1 0xFF AND PUSH1 0x2 DUP2 GT ISZERO PUSH2 0x53E JUMPI PUSH2 0x53D PUSH2 0xFCD JUMP JUMPDEST JUMPDEST EQ PUSH2 0x57E JUMPI PUSH1 0x40 MLOAD PUSH32 0x8C379A000000000000000000000000000000000000000000000000000000000 DUP2 MSTORE PUSH1 0x4 ADD PUSH2 0x575 SWAP1 PUSH2 0x142C JUMP JUMPDEST PUSH1 0x40 MLOAD DUP1 SWAP2 SUB SWAP1 REVERT JUMPDEST PUSH0 PUSH1 0x5 PUSH0 DUP2 SLOAD DUP1 SWAP3 SWAP2 SWAP1 PUSH2 0x591 SWAP1 PUSH2 0x1477 JUMP JUMPDEST SWAP2 SWAP1 POP SSTORE SWAP1 POP PUSH0 PUSH1 0x40 MLOAD DUP1 PUSH1 0x80 ADD PUSH1 0x40 MSTORE DUP1 DUP6 DUP2 MSTORE PUSH1 0x20 ADD DUP5 DUP2 MSTORE PUSH1 0x20 ADD CALLER PUSH20 0xFFFFFFFFFFFFFFFFFFFFFFFFFFFFFFFFFFFFFFFF AND DUP2 MSTORE PUSH1 0x20 ADD PUSH1 0x1 ISZERO ISZERO DUP2 MSTORE POP SWAP1 POP DUP1 PUSH1 0x2 PUSH0 DUP5 DUP2 MSTORE PUSH1 0x20 ADD SWAP1 DUP2 MSTORE PUSH1 0x20 ADD PUSH0 KECCAK256 PUSH0 DUP3 ADD MLOAD DUP2 PUSH0 ADD SWAP1 DUP2 PUSH2 0x5F9 SWAP2 SWAP1 PUSH2 0x165B JUMP JUMPDEST POP PUSH1 0x20 DUP3 ADD MLOAD DUP2 PUSH1 0x1 ADD SSTORE PUSH1 0x40 DUP3 ADD MLOAD DUP2 PUSH1 0x2 ADD PUSH0 PUSH2 0x100 EXP DUP2 SLOAD DUP2 PUSH20 0xFFFFFFFFFFFFFFFFFFFFFFFFFFFFFFFFFFFFFFFF MUL NOT AND SWAP1 DUP4 PUSH20 0xFFFFFFFFFFFFFFFFFFFFFFFFFFFFFFFFFFFFFFFF AND MUL OR SWAP1 SSTORE POP PUSH1 0x60 DUP3 ADD MLOAD DUP2 PUSH1 0x2 ADD PUSH1 0x14 PUSH2 0x100 EXP DUP2 SLOAD DUP2 PUSH1 0xFF MUL NOT AND SWAP1 DUP4 ISZERO ISZERO MUL OR SWAP1 SSTORE POP SWAP1 POP POP PUSH1 0x3 PUSH0 CALLER PUSH20 0xFFFFFFFFFFFFFFFFFFFFFFFFFFFFFFFFFFFFFFFF AND PUSH20 0xFFFFFFFFFFFFFFFFFFFFFFFFFFFFFFFFFFFFFFFF AND DUP2 MSTORE PUSH1 0x20 ADD SWAP1 DUP2 MSTORE PUSH1 0x20 ADD PUSH0 KECCAK256 DUP3 SWAP1 DUP1 PUSH1 0x1 DUP2 SLOAD ADD DUP1 DUP3 SSTORE DUP1 SWAP2 POP POP PUSH1 0x1 SWAP1 SUB SWAP1 PUSH0 MSTORE PUSH1 0x20 PUSH0 KECCAK256 ADD PUSH0 SWAP1 SWAP2 SWAP1 SWAP2 SWAP1 SWAP2 POP SSTORE PUSH32 0x52402CAFB2ECEC722B103E8F203F83362148C168659DC96678C2C6850D12DD9F DUP3 DUP6 DUP6 CALLER PUSH1 0x40 MLOAD PUSH2 0x703 SWAP5 SWAP4 SWAP3 SWAP2 SWAP1 PUSH2 0x172A JUMP JUMPDEST PUSH1 0x40 MLOAD DUP1 SWAP2 SUB SWAP1 LOG1 POP POP POP POP JUMP JUMPDEST PUSH1 0x2 DUP1 DUP2 GT ISZERO PUSH2 0x724 JUMPI PUSH2 0x723 PUSH2 0xFCD JUMP JUMPDEST JUMPDEST PUSH1 0x1 PUSH0 CALLER PUSH20 0xFFFFFFFFFFFFFFFFFFFFFFFFFFFFFFFFFFFFFFFF AND PUSH20 0xFFFFFFFFFFFFFFFFFFFFFFFFFFFFFFFFFFFFFFFF AND DUP2 MSTORE PUSH1 0x20 ADD SWAP1 DUP2 MSTORE PUSH1 0x20 ADD PUSH0 KECCAK256 PUSH0 SWAP1 SLOAD SWAP1 PUSH2 0x100 EXP SWAP1 DIV PUSH1 0xFF AND PUSH1 0x2 DUP2 GT ISZERO PUSH2 0x780 JUMPI PUSH2 0x77F PUSH2 0xFCD JUMP JUMPDEST JUMPDEST EQ PUSH2 0x7C0 JUMPI PUSH1 0x40 MLOAD PUSH32 0x8C379A000000000000000000000000000000000000000000000000000000000 DUP2 MSTORE PUSH1 0x4 ADD PUSH2 0x7B7 SWAP1 PUSH2 0x142C JUMP JUMPDEST PUSH1 0x40 MLOAD DUP1 SWAP2 SUB SWAP1 REVERT JUMPDEST PUSH0 PUSH1 0x4 PUSH0 CALLER PUSH20 0xFFFFFFFFFFFFFFFFFFFFFFFFFFFFFFFFFFFFFFFF AND PUSH20 0xFFFFFFFFFFFFFFFFFFFFFFFFFFFFFFFFFFFFFFFF AND DUP2 MSTORE PUSH1 0x20 ADD SWAP1 DUP2 MSTORE PUSH1 0x20 ADD PUSH0 KECCAK256 DUP3 DUP2 SLOAD DUP2 LT PUSH2 0x810 JUMPI PUSH2 0x80F PUSH2 0x1774 JUMP JUMPDEST JUMPDEST SWAP1 PUSH0 MSTORE PUSH1 0x20 PUSH0 KECCAK256 SWAP1 PUSH1 0x2 MUL ADD SWAP1 POP DUP1 PUSH1 0x1 ADD PUSH1 0x14 SWAP1 SLOAD SWAP1 PUSH2 0x100 EXP SWAP1 DIV PUSH1 0xFF AND DUP1 ISZERO PUSH2 0x84B JUMPI POP DUP1 PUSH1 0x1 ADD PUSH1 0x15 SWAP1 SLOAD SWAP1 PUSH2 0x100 EXP SWAP1 DIV PUSH1 0xFF AND ISZERO JUMPDEST PUSH2 0x88A JUMPI PUSH1 0x40 MLOAD PUSH32 0x8C379A000000000000000000000000000000000000000000000000000000000 DUP2 MSTORE PUSH1 0x4 ADD PUSH2 0x881 SWAP1 PUSH2 0x17EB JUMP JUMPDEST PUSH1 0x40 MLOAD DUP1 SWAP2 SUB SWAP1 REVERT JUMPDEST PUSH1 0x1 DUP2 PUSH1 0x1 ADD PUSH1 0x15 PUSH2 0x100 EXP DUP2 SLOAD DUP2 PUSH1 0xFF MUL NOT AND SWAP1 DUP4 ISZERO ISZERO MUL OR SWAP1 SSTORE POP PUSH0 PUSH1 0x2 PUSH0 DUP4 PUSH0 ADD SLOAD DUP2 MSTORE PUSH1 0x20 ADD SWAP1 DUP2 MSTORE PUSH1 0x20 ADD PUSH0 KECCAK256 PUSH1 0x2 ADD PUSH1 0x14 PUSH2 0x100 EXP DUP2 SLOAD DUP2 PUSH1 0xFF MUL NOT AND SWAP1 DUP4 ISZERO ISZERO MUL OR SWAP1 SSTORE POP PUSH32 0x2A7D4D9472AF7118644884B9A0EE443540C0027E938DD0AA35BE8ECBE946C0A DUP3 PUSH1 0x40 MLOAD PUSH2 0x905 SWAP2 SWAP1 PUSH2 0xE5B JUMP JUMPDEST PUSH1 0x40 MLOAD DUP1 SWAP2 SUB SWAP1 LOG1 POP POP JUMP JUMPDEST PUSH1 0x1 PUSH1 0x2 DUP2 GT ISZERO PUSH2 0x925 JUMPI PUSH2 0x924 PUSH2 0xFCD JUMP JUMPDEST JUMPDEST PUSH1 0x1 PUSH0 CALLER PUSH20 0xFFFFFFFFFFFFFFFFFFFFFFFFFFFFFFFFFFFFFFFF AND PUSH20 0xFFFFFFFFFFFFFFFFFFFFFFFFFFFFFFFFFFFFFFFF AND DUP2 MSTORE PUSH1 0x20 ADD SWAP1 DUP2 MSTORE PUSH1 0x20 ADD PUSH0 KECCAK256 PUSH0 SWAP1 SLOAD SWAP1 PUSH2 0x100 EXP SWAP1 DIV PUSH1 0xFF AND PUSH1 0x2 DUP2 GT ISZERO PUSH2 0x981 JUMPI PUSH2 0x980 PUSH2 0xFCD JUMP JUMPDEST JUMPDEST EQ PUSH2 0x9C1 JUMPI PUSH1 0x40 MLOAD PUSH32 0x8C379A000000000000000000000000000000000000000000000000000000000 DUP2 MSTORE PUSH1 0x4 ADD PUSH2 0x9B8 SWAP1 PUSH2 0x1879 JUMP JUMPDEST PUSH1 0x40 MLOAD DUP1 SWAP2 SUB SWAP1 REVERT JUMPDEST PUSH1 0x2 PUSH0 DUP3 DUP2 MSTORE PUSH1 0x20 ADD SWAP1 DUP2 MSTORE PUSH1 0x20 ADD PUSH0 KECCAK256 PUSH1 0x2 ADD PUSH1 0x14 SWAP1 SLOAD SWAP1 PUSH2 0x100 EXP SWAP1 DIV PUSH1 0xFF AND PUSH2 0xA22 JUMPI PUSH1 0x40 MLOAD PUSH32 0x8C379A000000000000000000000000000000000000000000000000000000000 DUP2 MSTORE PUSH1 0x4 ADD PUSH2 0xA19 SWAP1 PUSH2 0x18E1 JUMP JUMPDEST PUSH1 0x40 MLOAD DUP1 SWAP2 SUB SWAP1 REVERT JUMPDEST PUSH0 PUSH1 0x40 MLOAD DUP1 PUSH1 0x80 ADD PUSH1 0x40 MSTORE DUP1 DUP4 DUP2 MSTORE PUSH1 0x20 ADD CALLER PUSH20 0xFFFFFFFFFFFFFFFFFFFFFFFFFFFFFFFFFFFFFFFF AND DUP2 MSTORE PUSH1 0x20 ADD PUSH0 ISZERO ISZERO DUP2 MSTORE PUSH1 0x20 ADD PUSH0 ISZERO ISZERO DUP2 MSTORE POP SWAP1 POP PUSH1 0x4 PUSH0 CALLER PUSH20 0xFFFFFFFFFFFFFFFFFFFFFFFFFFFFFFFFFFFFFFFF AND PUSH20 0xFFFFFFFFFFFFFFFFFFFFFFFFFFFFFFFFFFFFFFFF AND DUP2 MSTORE PUSH1 0x20 ADD SWAP1 DUP2 MSTORE PUSH1 0x20 ADD PUSH0 KECCAK256 DUP2 SWAP1 DUP1 PUSH1 0x1 DUP2 SLOAD ADD DUP1 DUP3 SSTORE DUP1 SWAP2 POP POP PUSH1 0x1 SWAP1 SUB SWAP1 PUSH0 MSTORE PUSH1 0x20 PUSH0 KECCAK256 SWAP1 PUSH1 0x2 MUL ADD PUSH0 SWAP1 SWAP2 SWAP1 SWAP2 SWAP1 SWAP2 POP PUSH0 DUP3 ADD MLOAD DUP2 PUSH0 ADD SSTORE PUSH1 0x20 DUP3 ADD MLOAD DUP2 PUSH1 0x1 ADD PUSH0 PUSH2 0x100 EXP DUP2 SLOAD DUP2 PUSH20 0xFFFFFFFFFFFFFFFFFFFFFFFFFFFFFFFFFFFFFFFF MUL NOT AND SWAP1 DUP4 PUSH20 0xFFFFFFFFFFFFFFFFFFFFFFFFFFFFFFFFFFFFFFFF AND MUL OR SWAP1 SSTORE POP PUSH1 0x40 DUP3 ADD MLOAD DUP2 PUSH1 0x1 ADD PUSH1 0x14 PUSH2 0x100 EXP DUP2 SLOAD DUP2 PUSH1 0xFF MUL NOT AND SWAP1 DUP4 ISZERO ISZERO MUL OR SWAP1 SSTORE POP PUSH1 0x60 DUP3 ADD MLOAD DUP2 PUSH1 0x1 ADD PUSH1 0x15 PUSH2 0x100 EXP DUP2 SLOAD DUP2 PUSH1 0xFF MUL NOT AND SWAP1 DUP4 ISZERO ISZERO MUL OR SWAP1 SSTORE POP POP POP PUSH32 0xF4AE361D67DF8FF151337122B70E54414E64545E71DD154D79408677451FD874 PUSH1 0x1 PUSH1 0x4 PUSH0 CALLER PUSH20 0xFFFFFFFFFFFFFFFFFFFFFFFFFFFFFFFFFFFFFFFF AND PUSH20 0xFFFFFFFFFFFFFFFFFFFFFFFFFFFFFFFFFFFFFFFF AND DUP2 MSTORE PUSH1 0x20 ADD SWAP1 DUP2 MSTORE PUSH1 0x20 ADD PUSH0 KECCAK256 DUP1 SLOAD SWAP1 POP PUSH2 0xBC2 SWAP2 SWAP1 PUSH2 0x18FF JUMP JUMPDEST DUP4 CALLER PUSH1 0x40 MLOAD PUSH2 0xBD3 SWAP4 SWAP3 SWAP2 SWAP1 PUSH2 0x1932 JUMP JUMPDEST PUSH1 0x40 MLOAD DUP1 SWAP2 SUB SWAP1 LOG1 POP POP JUMP JUMPDEST PUSH1 0x3 PUSH1 0x20 MSTORE DUP2 PUSH0 MSTORE PUSH1 0x40 PUSH0 KECCAK256 DUP2 DUP2 SLOAD DUP2 LT PUSH2 0xBF8 JUMPI PUSH0 DUP1 REVERT JUMPDEST SWAP1 PUSH0 MSTORE PUSH1 0x20 PUSH0 KECCAK256 ADD PUSH0 SWAP2 POP SWAP2 POP POP SLOAD DUP2 JUMP JUMPDEST PUSH1 0x2 DUP1 DUP2 GT ISZERO PUSH2 0xC1D JUMPI PUSH2 0xC1C PUSH2 0xFCD JUMP JUMPDEST JUMPDEST PUSH1 0x1 PUSH0 CALLER PUSH20 0xFFFFFFFFFFFFFFFFFFFFFFFFFFFFFFFFFFFFFFFF AND PUSH20 0xFFFFFFFFFFFFFFFFFFFFFFFFFFFFFFFFFFFFFFFF AND DUP2 MSTORE PUSH1 0x20 ADD SWAP1 DUP2 MSTORE PUSH1 0x20 ADD PUSH0 KECCAK256 PUSH0 SWAP1 SLOAD SWAP1 PUSH2 0x100 EXP SWAP1 DIV PUSH1 0xFF AND PUSH1 0x2 DUP2 GT ISZERO PUSH2 0xC79 JUMPI PUSH2 0xC78 PUSH2 0xFCD JUMP JUMPDEST JUMPDEST EQ PUSH2 0xCB9 JUMPI PUSH1 0x40 MLOAD PUSH32 0x8C379A000000000000000000000000000000000000000000000000000000000 DUP2 MSTORE PUSH1 0x4 ADD PUSH2 0xCB0 SWAP1 PUSH2 0x142C JUMP JUMPDEST PUSH1 0x40 MLOAD DUP1 SWAP2 SUB SWAP1 REVERT JUMPDEST PUSH0 PUSH1 0x4 PUSH0 CALLER PUSH20 0xFFFFFFFFFFFFFFFFFFFFFFFFFFFFFFFFFFFFFFFF AND PUSH20 0xFFFFFFFFFFFFFFFFFFFFFFFFFFFFFFFFFFFFFFFF AND DUP2 MSTORE PUSH1 0x20 ADD SWAP1 DUP2 MSTORE PUSH1 0x20 ADD PUSH0 KECCAK256 DUP3 DUP2 SLOAD DUP2 LT PUSH2 0xD09 JUMPI PUSH2 0xD08 PUSH2 0x1774 JUMP JUMPDEST JUMPDEST SWAP1 PUSH0 MSTORE PUSH1 0x20 PUSH0 KECCAK256 SWAP1 PUSH1 0x2 MUL ADD SWAP1 POP DUP1 PUSH1 0x1 ADD PUSH1 0x14 SWAP1 SLOAD SWAP1 PUSH2 0x100 EXP SWAP1 DIV PUSH1 0xFF AND ISZERO PUSH2 0xD69 JUMPI PUSH1 0x40 MLOAD PUSH32 0x8C379A000000000000000000000000000000000000000000000000000000000 DUP2 MSTORE PUSH1 0x4 ADD PUSH2 0xD60 SWAP1 PUSH2 0x19B1 JUMP JUMPDEST PUSH1 0x40 MLOAD DUP1 SWAP2 SUB SWAP1 REVERT JUMPDEST PUSH1 0x1 DUP2 PUSH1 0x1 ADD PUSH1 0x14 PUSH2 0x100 EXP DUP2 SLOAD DUP2 PUSH1 0xFF MUL NOT AND SWAP1 DUP4 ISZERO ISZERO MUL OR SWAP1 SSTORE POP PUSH32 0x262F7AD1922BDCF27203585EF3238620589CE6F74721D45BFF6897A19E4F94A1 DUP3 PUSH1 0x40 MLOAD PUSH2 0xDB5 SWAP2 SWAP1 PUSH2 0xE5B JUMP JUMPDEST PUSH1 0x40 MLOAD DUP1 SWAP2 SUB SWAP1 LOG1 POP POP JUMP JUMPDEST PUSH0 DUP1 SLOAD SWAP1 PUSH2 0x100 EXP SWAP1 DIV PUSH20 0xFFFFFFFFFFFFFFFFFFFFFFFFFFFFFFFFFFFFFFFF AND DUP2 JUMP JUMPDEST PUSH0 PUSH1 0x40 MLOAD SWAP1 POP SWAP1 JUMP JUMPDEST PUSH0 DUP1 REVERT JUMPDEST PUSH0 DUP1 REVERT JUMPDEST PUSH1 0x3 DUP2 LT PUSH2 0xE01 JUMPI PUSH0 DUP1 REVERT JUMPDEST POP JUMP JUMPDEST PUSH0 DUP2 CALLDATALOAD SWAP1 POP PUSH2 0xE12 DUP2 PUSH2 0xDF5 JUMP JUMPDEST SWAP3 SWAP2 POP POP JUMP JUMPDEST PUSH0 PUSH1 0x20 DUP3 DUP5 SUB SLT ISZERO PUSH2 0xE2D JUMPI PUSH2 0xE2C PUSH2 0xDED JUMP JUMPDEST JUMPDEST PUSH0 PUSH2 0xE3A DUP5 DUP3 DUP6 ADD PUSH2 0xE04 JUMP JUMPDEST SWAP2 POP POP SWAP3 SWAP2 POP POP JUMP JUMPDEST PUSH0 DUP2 SWAP1 POP SWAP2 SWAP1 POP JUMP JUMPDEST PUSH2 0xE55 DUP2 PUSH2 0xE43 JUMP JUMPDEST DUP3 MSTORE POP POP JUMP JUMPDEST PUSH0 PUSH1 0x20 DUP3 ADD SWAP1 POP PUSH2 0xE6E PUSH0 DUP4 ADD DUP5 PUSH2 0xE4C JUMP JUMPDEST SWAP3 SWAP2 POP POP JUMP JUMPDEST PUSH0 PUSH20 0xFFFFFFFFFFFFFFFFFFFFFFFFFFFFFFFFFFFFFFFF DUP3 AND SWAP1 POP SWAP2 SWAP1 POP JUMP JUMPDEST PUSH0 PUSH2 0xE9D DUP3 PUSH2 0xE74 JUMP JUMPDEST SWAP1 POP SWAP2 SWAP1 POP JUMP JUMPDEST PUSH2 0xEAD DUP2 PUSH2 0xE93 JUMP JUMPDEST DUP2 EQ PUSH2 0xEB7 JUMPI PUSH0 DUP1 REVERT JUMPDEST POP JUMP JUMPDEST PUSH0 DUP2 CALLDATALOAD SWAP1 POP PUSH2 0xEC8 DUP2 PUSH2 0xEA4 JUMP JUMPDEST SWAP3 SWAP2 POP POP JUMP JUMPDEST PUSH2 0xED7 DUP2 PUSH2 0xE43 JUMP JUMPDEST DUP2 EQ PUSH2 0xEE1 JUMPI PUSH0 DUP1 REVERT JUMPDEST POP JUMP JUMPDEST PUSH0 DUP2 CALLDATALOAD SWAP1 POP PUSH2 0xEF2 DUP2 PUSH2 0xECE JUMP JUMPDEST SWAP3 SWAP2 POP POP JUMP JUMPDEST PUSH0 DUP1 PUSH1 0x40 DUP4 DUP6 SUB SLT ISZERO PUSH2 0xF0E JUMPI PUSH2 0xF0D PUSH2 0xDED JUMP JUMPDEST JUMPDEST PUSH0 PUSH2 0xF1B DUP6 DUP3 DUP7 ADD PUSH2 0xEBA JUMP JUMPDEST SWAP3 POP POP PUSH1 0x20 PUSH2 0xF2C DUP6 DUP3 DUP7 ADD PUSH2 0xEE4 JUMP JUMPDEST SWAP2 POP POP SWAP3 POP SWAP3 SWAP1 POP JUMP JUMPDEST PUSH2 0xF3F DUP2 PUSH2 0xE93 JUMP JUMPDEST DUP3 MSTORE POP POP JUMP JUMPDEST PUSH0 DUP2 ISZERO ISZERO SWAP1 POP SWAP2 SWAP1 POP JUMP JUMPDEST PUSH2 0xF59 DUP2 PUSH2 0xF45 JUMP JUMPDEST DUP3 MSTORE POP POP JUMP JUMPDEST PUSH0 PUSH1 0x80 DUP3 ADD SWAP1 POP PUSH2 0xF72 PUSH0 DUP4 ADD DUP8 PUSH2 0xE4C JUMP JUMPDEST PUSH2 0xF7F PUSH1 0x20 DUP4 ADD DUP7 PUSH2 0xF36 JUMP JUMPDEST PUSH2 0xF8C PUSH1 0x40 DUP4 ADD DUP6 PUSH2 0xF50 JUMP JUMPDEST PUSH2 0xF99 PUSH1 0x60 DUP4 ADD DUP5 PUSH2 0xF50 JUMP JUMPDEST SWAP6 SWAP5 POP POP POP POP POP JUMP JUMPDEST PUSH0 PUSH1 0x20 DUP3 DUP5 SUB SLT ISZERO PUSH2 0xFB7 JUMPI PUSH2 0xFB6 PUSH2 0xDED JUMP JUMPDEST JUMPDEST PUSH0 PUSH2 0xFC4 DUP5 DUP3 DUP6 ADD PUSH2 0xEBA JUMP JUMPDEST SWAP2 POP POP SWAP3 SWAP2 POP POP JUMP JUMPDEST PUSH32 0x4E487B7100000000000000000000000000000000000000000000000000000000 PUSH0 MSTORE PUSH1 0x21 PUSH1 0x4 MSTORE PUSH1 0x24 PUSH0 REVERT JUMPDEST PUSH1 0x3 DUP2 LT PUSH2 0x100B JUMPI PUSH2 0x100A PUSH2 0xFCD JUMP JUMPDEST JUMPDEST POP JUMP JUMPDEST PUSH0 DUP2 SWAP1 POP PUSH2 0x101B DUP3 PUSH2 0xFFA JUMP JUMPDEST SWAP2 SWAP1 POP JUMP JUMPDEST PUSH0 PUSH2 0x102A DUP3 PUSH2 0x100E JUMP JUMPDEST SWAP1 POP SWAP2 SWAP1 POP JUMP JUMPDEST PUSH2 0x103A DUP2 PUSH2 0x1020 JUMP JUMPDEST DUP3 MSTORE POP POP JUMP JUMPDEST PUSH0 PUSH1 0x20 DUP3 ADD SWAP1 POP PUSH2 0x1053 PUSH0 DUP4 ADD DUP5 PUSH2 0x1031 JUMP JUMPDEST SWAP3 SWAP2 POP POP JUMP JUMPDEST PUSH0 PUSH1 0x20 DUP3 DUP5 SUB SLT ISZERO PUSH2 0x106E JUMPI PUSH2 0x106D PUSH2 0xDED JUMP JUMPDEST JUMPDEST PUSH0 PUSH2 0x107B DUP5 DUP3 DUP6 ADD PUSH2 0xEE4 JUMP JUMPDEST SWAP2 POP POP SWAP3 SWAP2 POP POP JUMP JUMPDEST PUSH0 DUP2 MLOAD SWAP1 POP SWAP2 SWAP1 POP JUMP JUMPDEST PUSH0 DUP3 DUP3 MSTORE PUSH1 0x20 DUP3 ADD SWAP1 POP SWAP3 SWAP2 POP POP JUMP JUMPDEST PUSH0 JUMPDEST DUP4 DUP2 LT ISZERO PUSH2 0x10BB JUMPI DUP1 DUP3 ADD MLOAD DUP2 DUP5 ADD MSTORE PUSH1 0x20 DUP2 ADD SWAP1 POP PUSH2 0x10A0 JUMP JUMPDEST PUSH0 DUP5 DUP5 ADD MSTORE POP POP POP POP JUMP JUMPDEST PUSH0 PUSH1 0x1F NOT PUSH1 0x1F DUP4 ADD AND SWAP1 POP SWAP2 SWAP1 POP JUMP JUMPDEST PUSH0 PUSH2 0x10E0 DUP3 PUSH2 0x1084 JUMP JUMPDEST PUSH2 0x10EA DUP2 DUP6 PUSH2 0x108E JUMP JUMPDEST SWAP4 POP PUSH2 0x10FA DUP2 DUP6 PUSH1 0x20 DUP7 ADD PUSH2 0x109E JUMP JUMPDEST PUSH2 0x1103 DUP2 PUSH2 0x10C6 JUMP JUMPDEST DUP5 ADD SWAP2 POP POP SWAP3 SWAP2 POP POP JUMP JUMPDEST PUSH0 PUSH1 0x80 DUP3 ADD SWAP1 POP DUP2 DUP2 SUB PUSH0 DUP4 ADD MSTORE PUSH2 0x1126 DUP2 DUP8 PUSH2 0x10D6 JUMP JUMPDEST SWAP1 POP PUSH2 0x1135 PUSH1 0x20 DUP4 ADD DUP7 PUSH2 0xE4C JUMP JUMPDEST PUSH2 0x1142 PUSH1 0x40 DUP4 ADD DUP6 PUSH2 0xF36 JUMP JUMPDEST PUSH2 0x114F PUSH1 0x60 DUP4 ADD DUP5 PUSH2 0xF50 JUMP JUMPDEST SWAP6 SWAP5 POP POP POP POP POP JUMP JUMPDEST PUSH0 DUP1 REVERT JUMPDEST PUSH0 DUP1 REVERT JUMPDEST PUSH32 0x4E487B7100000000000000000000000000000000000000000000000000000000 PUSH0 MSTORE PUSH1 0x41 PUSH1 0x4 MSTORE PUSH1 0x24 PUSH0 REVERT JUMPDEST PUSH2 0x1196 DUP3 PUSH2 0x10C6 JUMP JUMPDEST DUP2 ADD DUP2 DUP2 LT PUSH8 0xFFFFFFFFFFFFFFFF DUP3 GT OR ISZERO PUSH2 0x11B5 JUMPI PUSH2 0x11B4 PUSH2 0x1160 JUMP JUMPDEST JUMPDEST DUP1 PUSH1 0x40 MSTORE POP POP POP JUMP JUMPDEST PUSH0 PUSH2 0x11C7 PUSH2 0xDE4 JUMP JUMPDEST SWAP1 POP PUSH2 0x11D3 DUP3 DUP3 PUSH2 0x118D JUMP JUMPDEST SWAP2 SWAP1 POP JUMP JUMPDEST PUSH0 PUSH8 0xFFFFFFFFFFFFFFFF DUP3 GT ISZERO PUSH2 0x11F2 JUMPI PUSH2 0x11F1 PUSH2 0x1160 JUMP JUMPDEST JUMPDEST PUSH2 0x11FB DUP3 PUSH2 0x10C6 JUMP JUMPDEST SWAP1 POP PUSH1 0x20 DUP2 ADD SWAP1 POP SWAP2 SWAP1 POP JUMP JUMPDEST DUP3 DUP2 DUP4 CALLDATACOPY PUSH0 DUP4 DUP4 ADD MSTORE POP POP POP JUMP JUMPDEST PUSH0 PUSH2 0x1228 PUSH2 0x1223 DUP5 PUSH2 0x11D8 JUMP JUMPDEST PUSH2 0x11BE JUMP JUMPDEST SWAP1 POP DUP3 DUP2 MSTORE PUSH1 0x20 DUP2 ADD DUP5 DUP5 DUP5 ADD GT ISZERO PUSH2 0x1244 JUMPI PUSH2 0x1243 PUSH2 0x115C JUMP JUMPDEST JUMPDEST PUSH2 0x124F DUP5 DUP3 DUP6 PUSH2 0x1208 JUMP JUMPDEST POP SWAP4 SWAP3 POP POP POP JUMP JUMPDEST PUSH0 DUP3 PUSH1 0x1F DUP4 ADD SLT PUSH2 0x126B JUMPI PUSH2 0x126A PUSH2 0x1158 JUMP JUMPDEST JUMPDEST DUP2 CALLDATALOAD PUSH2 0x127B DUP5 DUP3 PUSH1 0x20 DUP7 ADD PUSH2 0x1216 JUMP JUMPDEST SWAP2 POP POP SWAP3 SWAP2 POP POP JUMP JUMPDEST PUSH0 DUP1 PUSH1 0x40 DUP4 DUP6 SUB SLT ISZERO PUSH2 0x129A JUMPI PUSH2 0x1299 PUSH2 0xDED JUMP JUMPDEST JUMPDEST PUSH0 DUP4 ADD CALLDATALOAD PUSH8 0xFFFFFFFFFFFFFFFF DUP2 GT ISZERO PUSH2 0x12B7 JUMPI PUSH2 0x12B6 PUSH2 0xDF1 JUMP JUMPDEST JUMPDEST PUSH2 0x12C3 DUP6 DUP3 DUP7 ADD PUSH2 0x1257 JUMP JUMPDEST SWAP3 POP POP PUSH1 0x20 PUSH2 0x12D4 DUP6 DUP3 DUP7 ADD PUSH2 0xEE4 JUMP JUMPDEST SWAP2 POP POP SWAP3 POP SWAP3 SWAP1 POP JUMP JUMPDEST PUSH0 PUSH1 0x20 DUP3 ADD SWAP1 POP PUSH2 0x12F1 PUSH0 DUP4 ADD DUP5 PUSH2 0xF36 JUMP JUMPDEST SWAP3 SWAP2 POP POP JUMP JUMPDEST PUSH32 0x5573657220726F6C6520616C7265616479207365740000000000000000000000 PUSH0 DUP3 ADD MSTORE POP JUMP JUMPDEST PUSH0 PUSH2 0x132B PUSH1 0x15 DUP4 PUSH2 0x108E JUMP JUMPDEST SWAP2 POP PUSH2 0x1336 DUP3 PUSH2 0x12F7 JUMP JUMPDEST PUSH1 0x20 DUP3 ADD SWAP1 POP SWAP2 SWAP1 POP JUMP JUMPDEST PUSH0 PUSH1 0x20 DUP3 ADD SWAP1 POP DUP2 DUP2 SUB PUSH0 DUP4 ADD MSTORE PUSH2 0x1358 DUP2 PUSH2 0x131F JUMP JUMPDEST SWAP1 POP SWAP2 SWAP1 POP JUMP JUMPDEST PUSH32 0x4E487B7100000000000000000000000000000000000000000000000000000000 PUSH0 MSTORE PUSH1 0x22 PUSH1 0x4 MSTORE PUSH1 0x24 PUSH0 REVERT JUMPDEST PUSH0 PUSH1 0x2 DUP3 DIV SWAP1 POP PUSH1 0x1 DUP3 AND DUP1 PUSH2 0x13A3 JUMPI PUSH1 0x7F DUP3 AND SWAP2 POP JUMPDEST PUSH1 0x20 DUP3 LT DUP2 SUB PUSH2 0x13B6 JUMPI PUSH2 0x13B5 PUSH2 0x135F JUMP JUMPDEST JUMPDEST POP SWAP2 SWAP1 POP JUMP JUMPDEST PUSH32 0x4F6E6C792073656C6C65722063616E2063616C6C20746869732066756E637469 PUSH0 DUP3 ADD MSTORE PUSH32 0x6F6E000000000000000000000000000000000000000000000000000000000000 PUSH1 0x20 DUP3 ADD MSTORE POP JUMP JUMPDEST PUSH0 PUSH2 0x1416 PUSH1 0x22 DUP4 PUSH2 0x108E JUMP JUMPDEST SWAP2 POP PUSH2 0x1421 DUP3 PUSH2 0x13BC JUMP JUMPDEST PUSH1 0x40 DUP3 ADD SWAP1 POP SWAP2 SWAP1 POP JUMP JUMPDEST PUSH0 PUSH1 0x20 DUP3 ADD SWAP1 POP DUP2 DUP2 SUB PUSH0 DUP4 ADD MSTORE PUSH2 0x1443 DUP2 PUSH2 0x140A JUMP JUMPDEST SWAP1 POP SWAP2 SWAP1 POP JUMP JUMPDEST PUSH32 0x4E487B7100000000000000000000000000000000000000000000000000000000 PUSH0 MSTORE PUSH1 0x11 PUSH1 0x4 MSTORE PUSH1 0x24 PUSH0 REVERT JUMPDEST PUSH0 PUSH2 0x1481 DUP3 PUSH2 0xE43 JUMP JUMPDEST SWAP2 POP PUSH32 0xFFFFFFFFFFFFFFFFFFFFFFFFFFFFFFFFFFFFFFFFFFFFFFFFFFFFFFFFFFFFFFFF DUP3 SUB PUSH2 0x14B3 JUMPI PUSH2 0x14B2 PUSH2 0x144A JUMP JUMPDEST JUMPDEST PUSH1 0x1 DUP3 ADD SWAP1 POP SWAP2 SWAP1 POP JUMP JUMPDEST PUSH0 DUP2 SWAP1 POP DUP2 PUSH0 MSTORE PUSH1 0x20 PUSH0 KECCAK256 SWAP1 POP SWAP2 SWAP1 POP JUMP JUMPDEST PUSH0 PUSH1 0x20 PUSH1 0x1F DUP4 ADD DIV SWAP1 POP SWAP2 SWAP1 POP JUMP JUMPDEST PUSH0 DUP3 DUP3 SHL SWAP1 POP SWAP3 SWAP2 POP POP JUMP JUMPDEST PUSH0 PUSH1 0x8 DUP4 MUL PUSH2 0x151A PUSH32 0xFFFFFFFFFFFFFFFFFFFFFFFFFFFFFFFFFFFFFFFFFFFFFFFFFFFFFFFFFFFFFFFF DUP3 PUSH2 0x14DF JUMP JUMPDEST PUSH2 0x1524 DUP7 DUP4 PUSH2 0x14DF JUMP JUMPDEST SWAP6 POP DUP1 NOT DUP5 AND SWAP4 POP DUP1 DUP7 AND DUP5 OR SWAP3 POP POP POP SWAP4 SWAP3 POP POP POP JUMP JUMPDEST PUSH0 DUP2 SWAP1 POP SWAP2 SWAP1 POP JUMP JUMPDEST PUSH0 PUSH2 0x155F PUSH2 0x155A PUSH2 0x1555 DUP5 PUSH2 0xE43 JUMP JUMPDEST PUSH2 0x153C JUMP JUMPDEST PUSH2 0xE43 JUMP JUMPDEST SWAP1 POP SWAP2 SWAP1 POP JUMP JUMPDEST PUSH0 DUP2 SWAP1 POP SWAP2 SWAP1 POP JUMP JUMPDEST PUSH2 0x1578 DUP4 PUSH2 0x1545 JUMP JUMPDEST PUSH2 0x158C PUSH2 0x1584 DUP3 PUSH2 0x1566 JUMP JUMPDEST DUP5 DUP5 SLOAD PUSH2 0x14EB JUMP JUMPDEST DUP3 SSTORE POP POP POP POP JUMP JUMPDEST PUSH0 SWAP1 JUMP JUMPDEST PUSH2 0x15A0 PUSH2 0x1594 JUMP JUMPDEST PUSH2 0x15AB DUP2 DUP5 DUP5 PUSH2 0x156F JUMP JUMPDEST POP POP POP JUMP JUMPDEST JUMPDEST DUP2 DUP2 LT ISZERO PUSH2 0x15CE JUMPI PUSH2 0x15C3 PUSH0 DUP3 PUSH2 0x1598 JUMP JUMPDEST PUSH1 0x1 DUP2 ADD SWAP1 POP PUSH2 0x15B1 JUMP JUMPDEST POP POP JUMP JUMPDEST PUSH1 0x1F DUP3 GT ISZERO PUSH2 0x1613 JUMPI PUSH2 0x15E4 DUP2 PUSH2 0x14BE JUMP JUMPDEST PUSH2 0x15ED DUP5 PUSH2 0x14D0 JUMP JUMPDEST DUP2 ADD PUSH1 0x20 DUP6 LT ISZERO PUSH2 0x15FC JUMPI DUP2 SWAP1 POP JUMPDEST PUSH2 0x1610 PUSH2 0x1608 DUP6 PUSH2 0x14D0 JUMP JUMPDEST DUP4 ADD DUP3 PUSH2 0x15B0 JUMP JUMPDEST POP POP JUMPDEST POP POP POP JUMP JUMPDEST PUSH0 DUP3 DUP3 SHR SWAP1 POP SWAP3 SWAP2 POP POP JUMP JUMPDEST PUSH0 PUSH2 0x1633 PUSH0 NOT DUP5 PUSH1 0x8 MUL PUSH2 0x1618 JUMP JUMPDEST NOT DUP1 DUP4 AND SWAP2 POP POP SWAP3 SWAP2 POP POP JUMP JUMPDEST PUSH0 PUSH2 0x164B DUP4 DUP4 PUSH2 0x1624 JUMP JUMPDEST SWAP2 POP DUP3 PUSH1 0x2 MUL DUP3 OR SWAP1 POP SWAP3 SWAP2 POP POP JUMP JUMPDEST PUSH2 0x1664 DUP3 PUSH2 0x1084 JUMP JUMPDEST PUSH8 0xFFFFFFFFFFFFFFFF DUP2 GT ISZERO PUSH2 0x167D JUMPI PUSH2 0x167C PUSH2 0x1160 JUMP JUMPDEST JUMPDEST PUSH2 0x1687 DUP3 SLOAD PUSH2 0x138C JUMP JUMPDEST PUSH2 0x1692 DUP3 DUP3 DUP6 PUSH2 0x15D2 JUMP JUMPDEST PUSH0 PUSH1 0x20 SWAP1 POP PUSH1 0x1F DUP4 GT PUSH1 0x1 DUP2 EQ PUSH2 0x16C3 JUMPI PUSH0 DUP5 ISZERO PUSH2 0x16B1 JUMPI DUP3 DUP8 ADD MLOAD SWAP1 POP JUMPDEST PUSH2 0x16BB DUP6 DUP3 PUSH2 0x1640 JUMP JUMPDEST DUP7 SSTORE POP PUSH2 0x1722 JUMP JUMPDEST PUSH1 0x1F NOT DUP5 AND PUSH2 0x16D1 DUP7 PUSH2 0x14BE JUMP JUMPDEST PUSH0 JUMPDEST DUP3 DUP2 LT ISZERO PUSH2 0x16F8 JUMPI DUP5 DUP10 ADD MLOAD DUP3 SSTORE PUSH1 0x1 DUP3 ADD SWAP2 POP PUSH1 0x20 DUP6 ADD SWAP5 POP PUSH1 0x20 DUP2 ADD SWAP1 POP PUSH2 0x16D3 JUMP JUMPDEST DUP7 DUP4 LT ISZERO PUSH2 0x1715 JUMPI DUP5 DUP10 ADD MLOAD PUSH2 0x1711 PUSH1 0x1F DUP10 AND DUP3 PUSH2 0x1624 JUMP JUMPDEST DUP4 SSTORE POP JUMPDEST PUSH1 0x1 PUSH1 0x2 DUP9 MUL ADD DUP9 SSTORE POP POP POP JUMPDEST POP POP POP POP POP POP JUMP JUMPDEST PUSH0 PUSH1 0x80 DUP3 ADD SWAP1 POP PUSH2 0x173D PUSH0 DUP4 ADD DUP8 PUSH2 0xE4C JUMP JUMPDEST DUP2 DUP2 SUB PUSH1 0x20 DUP4 ADD MSTORE PUSH2 0x174F DUP2 DUP7 PUSH2 0x10D6 JUMP JUMPDEST SWAP1 POP PUSH2 0x175E PUSH1 0x40 DUP4 ADD DUP6 PUSH2 0xE4C JUMP JUMPDEST PUSH2 0x176B PUSH1 0x60 DUP4 ADD DUP5 PUSH2 0xF36 JUMP JUMPDEST SWAP6 SWAP5 POP POP POP POP POP JUMP JUMPDEST PUSH32 0x4E487B7100000000000000000000000000000000000000000000000000000000 PUSH0 MSTORE PUSH1 0x32 PUSH1 0x4 MSTORE PUSH1 0x24 PUSH0 REVERT JUMPDEST PUSH32 0x496E76616C6964206F7264657200000000000000000000000000000000000000 PUSH0 DUP3 ADD MSTORE POP JUMP JUMPDEST PUSH0 PUSH2 0x17D5 PUSH1 0xD DUP4 PUSH2 0x108E JUMP JUMPDEST SWAP2 POP PUSH2 0x17E0 DUP3 PUSH2 0x17A1 JUMP JUMPDEST PUSH1 0x20 DUP3 ADD SWAP1 POP SWAP2 SWAP1 POP JUMP JUMPDEST PUSH0 PUSH1 0x20 DUP3 ADD SWAP1 POP DUP2 DUP2 SUB PUSH0 DUP4 ADD MSTORE PUSH2 0x1802 DUP2 PUSH2 0x17C9 JUMP JUMPDEST SWAP1 POP SWAP2 SWAP1 POP JUMP JUMPDEST PUSH32 0x4F6E6C792062757965722063616E2063616C6C20746869732066756E6374696F PUSH0 DUP3 ADD MSTORE PUSH32 0x6E00000000000000000000000000000000000000000000000000000000000000 PUSH1 0x20 DUP3 ADD MSTORE POP JUMP JUMPDEST PUSH0 PUSH2 0x1863 PUSH1 0x21 DUP4 PUSH2 0x108E JUMP JUMPDEST SWAP2 POP PUSH2 0x186E DUP3 PUSH2 0x1809 JUMP JUMPDEST PUSH1 0x40 DUP3 ADD SWAP1 POP SWAP2 SWAP1 POP JUMP JUMPDEST PUSH0 PUSH1 0x20 DUP3 ADD SWAP1 POP DUP2 DUP2 SUB PUSH0 DUP4 ADD MSTORE PUSH2 0x1890 DUP2 PUSH2 0x1857 JUMP JUMPDEST SWAP1 POP SWAP2 SWAP1 POP JUMP JUMPDEST PUSH32 0x50726F64756374206E6F7420617661696C61626C650000000000000000000000 PUSH0 DUP3 ADD MSTORE POP JUMP JUMPDEST PUSH0 PUSH2 0x18CB PUSH1 0x15 DUP4 PUSH2 0x108E JUMP JUMPDEST SWAP2 POP PUSH2 0x18D6 DUP3 PUSH2 0x1897 JUMP JUMPDEST PUSH1 0x20 DUP3 ADD SWAP1 POP SWAP2 SWAP1 POP JUMP JUMPDEST PUSH0 PUSH1 0x20 DUP3 ADD SWAP1 POP DUP2 DUP2 SUB PUSH0 DUP4 ADD MSTORE PUSH2 0x18F8 DUP2 PUSH2 0x18BF JUMP JUMPDEST SWAP1 POP SWAP2 SWAP1 POP JUMP JUMPDEST PUSH0 PUSH2 0x1909 DUP3 PUSH2 0xE43 JUMP JUMPDEST SWAP2 POP PUSH2 0x1914 DUP4 PUSH2 0xE43 JUMP JUMPDEST SWAP3 POP DUP3 DUP3 SUB SWAP1 POP DUP2 DUP2 GT ISZERO PUSH2 0x192C JUMPI PUSH2 0x192B PUSH2 0x144A JUMP JUMPDEST JUMPDEST SWAP3 SWAP2 POP POP JUMP JUMPDEST PUSH0 PUSH1 0x60 DUP3 ADD SWAP1 POP PUSH2 0x1945 PUSH0 DUP4 ADD DUP7 PUSH2 0xE4C JUMP JUMPDEST PUSH2 0x1952 PUSH1 0x20 DUP4 ADD DUP6 PUSH2 0xE4C JUMP JUMPDEST PUSH2 0x195F PUSH1 0x40 DUP4 ADD DUP5 PUSH2 0xF36 JUMP JUMPDEST SWAP5 SWAP4 POP POP POP POP JUMP JUMPDEST PUSH32 0x4F7264657220616C726561647920616363657074656400000000000000000000 PUSH0 DUP3 ADD MSTORE POP JUMP JUMPDEST PUSH0 PUSH2 0x199B PUSH1 0x16 DUP4 PUSH2 0x108E JUMP JUMPDEST SWAP2 POP PUSH2 0x19A6 DUP3 PUSH2 0x1967 JUMP JUMPDEST PUSH1 0x20 DUP3 ADD SWAP1 POP SWAP2 SWAP1 POP JUMP JUMPDEST PUSH0 PUSH1 0x20 DUP3 ADD SWAP1 POP DUP2 DUP2 SUB PUSH0 DUP4 ADD MSTORE PUSH2 0x19C8 DUP2 PUSH2 0x198F JUMP JUMPDEST SWAP1 POP SWAP2 SWAP1 POP JUMP INVALID LOG2 PUSH5 0x6970667358 0x22 SLT KECCAK256 0xDA 0xDF SGT PUSH27 0x1E8F40454508C7351CF91CCEE706ADA1FEA754C1928CAC0582452C SIGNEXTEND PUSH5 0x736F6C6343 STOP ADDMOD AND STOP CALLER "
				},
				"gasEstimates": {
					"creation": {
						"codeDepositCost": "1332200",
						"executionCost": "25653",
						"totalCost": "1357853"
					},
					"external": {
						"acceptOrder(uint256)": "infinite",
						"addProduct(string,uint256)": "infinite",
						"admin()": "2615",
						"buyerOrders(address,uint256)": "infinite",
						"completeOrder(uint256)": "infinite",
						"placeOrder(uint256)": "infinite",
						"productCounter()": "2448",
						"products(uint256)": "infinite",
						"sellerProducts(address,uint256)": "infinite",
						"setRole(uint8)": "27029",
						"userRoles(address)": "2988"
					}
				},
				"methodIdentifiers": {
					"acceptOrder(uint256)": "ef18e9ed",
					"addProduct(string,uint256)": "b15247d9",
					"admin()": "f851a440",
					"buyerOrders(address,uint256)": "4500cb60",
					"completeOrder(uint256)": "b6adaaff",
					"placeOrder(uint256)": "ba2255f4",
					"productCounter()": "1f16653b",
					"products(uint256)": "7acc0b20",
					"sellerProducts(address,uint256)": "c1302b34",
					"setRole(uint8)": "07f6af8a",
					"userRoles(address)": "74d5e100"
				}
			},
			"storageLayout": {
				"storage": [
					{
						"astId": 3,
						"contract": "23_jan.sol:Marketplace",
						"label": "admin",
						"offset": 0,
						"slot": "0",
						"type": "t_address"
					},
					{
						"astId": 30,
						"contract": "23_jan.sol:Marketplace",
						"label": "userRoles",
						"offset": 0,
						"slot": "1",
						"type": "t_mapping(t_address,t_enum(Role)7)"
					},
					{
						"astId": 35,
						"contract": "23_jan.sol:Marketplace",
						"label": "products",
						"offset": 0,
						"slot": "2",
						"type": "t_mapping(t_uint256,t_struct(Product)16_storage)"
					},
					{
						"astId": 40,
						"contract": "23_jan.sol:Marketplace",
						"label": "sellerProducts",
						"offset": 0,
						"slot": "3",
						"type": "t_mapping(t_address,t_array(t_uint256)dyn_storage)"
					},
					{
						"astId": 46,
						"contract": "23_jan.sol:Marketplace",
						"label": "buyerOrders",
						"offset": 0,
						"slot": "4",
						"type": "t_mapping(t_address,t_array(t_struct(Order)25_storage)dyn_storage)"
					},
					{
						"astId": 48,
						"contract": "23_jan.sol:Marketplace",
						"label": "productCounter",
						"offset": 0,
						"slot": "5",
						"type": "t_uint256"
					}
				],
				"types": {
					"t_address": {
						"encoding": "inplace",
						"label": "address",
						"numberOfBytes": "20"
					},
					"t_array(t_struct(Order)25_storage)dyn_storage": {
						"base": "t_struct(Order)25_storage",
						"encoding": "dynamic_array",
						"label": "struct Marketplace.Order[]",
						"numberOfBytes": "32"
					},
					"t_array(t_uint256)dyn_storage": {
						"base": "t_uint256",
						"encoding": "dynamic_array",
						"label": "uint256[]",
						"numberOfBytes": "32"
					},
					"t_bool": {
						"encoding": "inplace",
						"label": "bool",
						"numberOfBytes": "1"
					},
					"t_enum(Role)7": {
						"encoding": "inplace",
						"label": "enum Marketplace.Role",
						"numberOfBytes": "1"
					},
					"t_mapping(t_address,t_array(t_struct(Order)25_storage)dyn_storage)": {
						"encoding": "mapping",
						"key": "t_address",
						"label": "mapping(address => struct Marketplace.Order[])",
						"numberOfBytes": "32",
						"value": "t_array(t_struct(Order)25_storage)dyn_storage"
					},
					"t_mapping(t_address,t_array(t_uint256)dyn_storage)": {
						"encoding": "mapping",
						"key": "t_address",
						"label": "mapping(address => uint256[])",
						"numberOfBytes": "32",
						"value": "t_array(t_uint256)dyn_storage"
					},
					"t_mapping(t_address,t_enum(Role)7)": {
						"encoding": "mapping",
						"key": "t_address",
						"label": "mapping(address => enum Marketplace.Role)",
						"numberOfBytes": "32",
						"value": "t_enum(Role)7"
					},
					"t_mapping(t_uint256,t_struct(Product)16_storage)": {
						"encoding": "mapping",
						"key": "t_uint256",
						"label": "mapping(uint256 => struct Marketplace.Product)",
						"numberOfBytes": "32",
						"value": "t_struct(Product)16_storage"
					},
					"t_string_storage": {
						"encoding": "bytes",
						"label": "string",
						"numberOfBytes": "32"
					},
					"t_struct(Order)25_storage": {
						"encoding": "inplace",
						"label": "struct Marketplace.Order",
						"members": [
							{
								"astId": 18,
								"contract": "23_jan.sol:Marketplace",
								"label": "productId",
								"offset": 0,
								"slot": "0",
								"type": "t_uint256"
							},
							{
								"astId": 20,
								"contract": "23_jan.sol:Marketplace",
								"label": "buyer",
								"offset": 0,
								"slot": "1",
								"type": "t_address"
							},
							{
								"astId": 22,
								"contract": "23_jan.sol:Marketplace",
								"label": "isAccepted",
								"offset": 20,
								"slot": "1",
								"type": "t_bool"
							},
							{
								"astId": 24,
								"contract": "23_jan.sol:Marketplace",
								"label": "isCompleted",
								"offset": 21,
								"slot": "1",
								"type": "t_bool"
							}
						],
						"numberOfBytes": "64"
					},
					"t_struct(Product)16_storage": {
						"encoding": "inplace",
						"label": "struct Marketplace.Product",
						"members": [
							{
								"astId": 9,
								"contract": "23_jan.sol:Marketplace",
								"label": "name",
								"offset": 0,
								"slot": "0",
								"type": "t_string_storage"
							},
							{
								"astId": 11,
								"contract": "23_jan.sol:Marketplace",
								"label": "price",
								"offset": 0,
								"slot": "1",
								"type": "t_uint256"
							},
							{
								"astId": 13,
								"contract": "23_jan.sol:Marketplace",
								"label": "seller",
								"offset": 0,
								"slot": "2",
								"type": "t_address"
							},
							{
								"astId": 15,
								"contract": "23_jan.sol:Marketplace",
								"label": "isAvailable",
								"offset": 20,
								"slot": "2",
								"type": "t_bool"
							}
						],
						"numberOfBytes": "96"
					},
					"t_uint256": {
						"encoding": "inplace",
						"label": "uint256",
						"numberOfBytes": "32"
					}
				}
			},
			"userdoc": {
				"kind": "user",
				"methods": {},
				"version": 1
			}
		}
	}
}