{
	"2.sol": {
		"SupplyChainContract": {
			"abi": [
				{
					"inputs": [],
					"stateMutability": "nonpayable",
					"type": "constructor"
				},
				{
					"anonymous": false,
					"inputs": [
						{
							"indexed": true,
							"internalType": "address",
							"name": "buyer",
							"type": "address"
						}
					],
					"name": "BuyerAddressSet",
					"type": "event"
				},
				{
					"anonymous": false,
					"inputs": [
						{
							"indexed": false,
							"internalType": "uint256",
							"name": "orderId",
							"type": "uint256"
						}
					],
					"name": "OrderDelivered",
					"type": "event"
				},
				{
					"anonymous": false,
					"inputs": [
						{
							"indexed": false,
							"internalType": "uint256",
							"name": "orderId",
							"type": "uint256"
						},
						{
							"indexed": true,
							"internalType": "address",
							"name": "buyer",
							"type": "address"
						},
						{
							"indexed": false,
							"internalType": "uint256",
							"name": "productId",
							"type": "uint256"
						},
						{
							"indexed": false,
							"internalType": "uint256",
							"name": "quantity",
							"type": "uint256"
						}
					],
					"name": "OrderPlaced",
					"type": "event"
				},
				{
					"anonymous": false,
					"inputs": [
						{
							"indexed": false,
							"internalType": "uint256",
							"name": "orderId",
							"type": "uint256"
						}
					],
					"name": "OrderShipped",
					"type": "event"
				},
				{
					"anonymous": false,
					"inputs": [
						{
							"indexed": false,
							"internalType": "uint256",
							"name": "productId",
							"type": "uint256"
						},
						{
							"indexed": false,
							"internalType": "string",
							"name": "name",
							"type": "string"
						},
						{
							"indexed": false,
							"internalType": "uint256",
							"name": "price",
							"type": "uint256"
						},
						{
							"indexed": false,
							"internalType": "uint256",
							"name": "quantity",
							"type": "uint256"
						}
					],
					"name": "ProductAdded",
					"type": "event"
				},
				{
					"inputs": [
						{
							"internalType": "string",
							"name": "_name",
							"type": "string"
						},
						{
							"internalType": "uint256",
							"name": "_price",
							"type": "uint256"
						},
						{
							"internalType": "uint256",
							"name": "_quantity",
							"type": "uint256"
						}
					],
					"name": "addProduct",
					"outputs": [],
					"stateMutability": "nonpayable",
					"type": "function"
				},
				{
					"inputs": [],
					"name": "buyer",
					"outputs": [
						{
							"internalType": "address",
							"name": "",
							"type": "address"
						}
					],
					"stateMutability": "view",
					"type": "function"
				},
				{
					"inputs": [
						{
							"internalType": "uint256",
							"name": "_orderId",
							"type": "uint256"
						}
					],
					"name": "deliverOrder",
					"outputs": [],
					"stateMutability": "nonpayable",
					"type": "function"
				},
				{
					"inputs": [],
					"name": "distributor",
					"outputs": [
						{
							"internalType": "address",
							"name": "",
							"type": "address"
						}
					],
					"stateMutability": "view",
					"type": "function"
				},
				{
					"inputs": [],
					"name": "manufacturer",
					"outputs": [
						{
							"internalType": "address",
							"name": "",
							"type": "address"
						}
					],
					"stateMutability": "view",
					"type": "function"
				},
				{
					"inputs": [],
					"name": "orderCount",
					"outputs": [
						{
							"internalType": "uint256",
							"name": "",
							"type": "uint256"
						}
					],
					"stateMutability": "view",
					"type": "function"
				},
				{
					"inputs": [
						{
							"internalType": "uint256",
							"name": "",
							"type": "uint256"
						}
					],
					"name": "orders",
					"outputs": [
						{
							"internalType": "uint256",
							"name": "orderId",
							"type": "uint256"
						},
						{
							"internalType": "address",
							"name": "buyer",
							"type": "address"
						},
						{
							"internalType": "uint256",
							"name": "productId",
							"type": "uint256"
						},
						{
							"internalType": "uint256",
							"name": "quantity",
							"type": "uint256"
						},
						{
							"internalType": "enum SupplyChainContract.OrderStatus",
							"name": "status",
							"type": "uint8"
						}
					],
					"stateMutability": "view",
					"type": "function"
				},
				{
					"inputs": [
						{
							"internalType": "uint256",
							"name": "_productId",
							"type": "uint256"
						},
						{
							"internalType": "uint256",
							"name": "_quantity",
							"type": "uint256"
						}
					],
					"name": "placeOrder",
					"outputs": [],
					"stateMutability": "nonpayable",
					"type": "function"
				},
				{
					"inputs": [],
					"name": "productCount",
					"outputs": [
						{
							"internalType": "uint256",
							"name": "",
							"type": "uint256"
						}
					],
					"stateMutability": "view",
					"type": "function"
				},
				{
					"inputs": [
						{
							"internalType": "uint256",
							"name": "",
							"type": "uint256"
						}
					],
					"name": "products",
					"outputs": [
						{
							"internalType": "uint256",
							"name": "productId",
							"type": "uint256"
						},
						{
							"internalType": "string",
							"name": "name",
							"type": "string"
						},
						{
							"internalType": "uint256",
							"name": "price",
							"type": "uint256"
						},
						{
							"internalType": "uint256",
							"name": "quantity",
							"type": "uint256"
						}
					],
					"stateMutability": "view",
					"type": "function"
				},
				{
					"inputs": [],
					"name": "seller",
					"outputs": [
						{
							"internalType": "address",
							"name": "",
							"type": "address"
						}
					],
					"stateMutability": "view",
					"type": "function"
				},
				{
					"inputs": [
						{
							"internalType": "address",
							"name": "_buyer",
							"type": "address"
						}
					],
					"name": "setBuyerAddress",
					"outputs": [],
					"stateMutability": "nonpayable",
					"type": "function"
				},
				{
					"inputs": [
						{
							"internalType": "address",
							"name": "_distributor",
							"type": "address"
						}
					],
					"name": "setDistributorAddress",
					"outputs": [],
					"stateMutability": "nonpayable",
					"type": "function"
				},
				{
					"inputs": [
						{
							"internalType": "address",
							"name": "_seller",
							"type": "address"
						}
					],
					"name": "setSellerAddress",
					"outputs": [],
					"stateMutability": "nonpayable",
					"type": "function"
				},
				{
					"inputs": [
						{
							"internalType": "uint256",
							"name": "_orderId",
							"type": "uint256"
						}
					],
					"name": "shipOrder",
					"outputs": [],
					"stateMutability": "nonpayable",
					"type": "function"
				}
			],
			"devdoc": {
				"kind": "dev",
				"methods": {},
				"version": 1
			},
			"evm": {
				"assembly": "    /* \"2.sol\":60:4123  contract SupplyChainContract {... */\n  mstore(0x40, 0x80)\n    /* \"2.sol\":1930:1988  constructor() {... */\n  callvalue\n  dup1\n  iszero\n  tag_1\n  jumpi\n  0x00\n  dup1\n  revert\ntag_1:\n  pop\n    /* \"2.sol\":1970:1980  msg.sender */\n  caller\n    /* \"2.sol\":1955:1967  manufacturer */\n  0x00\n  dup1\n    /* \"2.sol\":1955:1980  manufacturer = msg.sender */\n  0x0100\n  exp\n  dup2\n  sload\n  dup2\n  0xffffffffffffffffffffffffffffffffffffffff\n  mul\n  not\n  and\n  swap1\n  dup4\n  0xffffffffffffffffffffffffffffffffffffffff\n  and\n  mul\n  or\n  swap1\n  sstore\n  pop\n    /* \"2.sol\":60:4123  contract SupplyChainContract {... */\n  dataSize(sub_0)\n  dup1\n  dataOffset(sub_0)\n  0x00\n  codecopy\n  0x00\n  return\nstop\n\nsub_0: assembly {\n        /* \"2.sol\":60:4123  contract SupplyChainContract {... */\n      mstore(0x40, 0x80)\n      callvalue\n      dup1\n      iszero\n      tag_1\n      jumpi\n      0x00\n      dup1\n      revert\n    tag_1:\n      pop\n      jumpi(tag_2, lt(calldatasize, 0x04))\n      shr(0xe0, calldataload(0x00))\n      dup1\n      0x7acc0b20\n      gt\n      tag_18\n      jumpi\n      dup1\n      0xa85c38ef\n      gt\n      tag_19\n      jumpi\n      dup1\n      0xa85c38ef\n      eq\n      tag_14\n      jumpi\n      dup1\n      0xbfe10928\n      eq\n      tag_15\n      jumpi\n      dup1\n      0xddff5e7d\n      eq\n      tag_16\n      jumpi\n      dup1\n      0xe0f6ef87\n      eq\n      tag_17\n      jumpi\n      jump(tag_2)\n    tag_19:\n      dup1\n      0x7acc0b20\n      eq\n      tag_10\n      jumpi\n      dup1\n      0x843f61e2\n      eq\n      tag_11\n      jumpi\n      dup1\n      0x87950f49\n      eq\n      tag_12\n      jumpi\n      dup1\n      0xa12df12e\n      eq\n      tag_13\n      jumpi\n      jump(tag_2)\n    tag_18:\n      dup1\n      0x1b697bb2\n      gt\n      tag_20\n      jumpi\n      dup1\n      0x1b697bb2\n      eq\n      tag_6\n      jumpi\n      dup1\n      0x2453ffa8\n      eq\n      tag_7\n      jumpi\n      dup1\n      0x7150d8ae\n      eq\n      tag_8\n      jumpi\n      dup1\n      0x74754282\n      eq\n      tag_9\n      jumpi\n      jump(tag_2)\n    tag_20:\n      dup1\n      0x08551a53\n      eq\n      tag_3\n      jumpi\n      dup1\n      0x125b0b34\n      eq\n      tag_4\n      jumpi\n      dup1\n      0x194c302c\n      eq\n      tag_5\n      jumpi\n    tag_2:\n      0x00\n      dup1\n      revert\n        /* \"2.sol\":163:184  address public seller */\n    tag_3:\n      tag_21\n      tag_22\n      jump\t// in\n    tag_21:\n      mload(0x40)\n      tag_23\n      swap2\n      swap1\n      tag_24\n      jump\t// in\n    tag_23:\n      mload(0x40)\n      dup1\n      swap2\n      sub\n      swap1\n      return\n        /* \"2.sol\":2380:2803  function addProduct(string memory _name, uint256 _price, uint256 _quantity) external onlyManufacturer {... */\n    tag_4:\n      tag_25\n      0x04\n      dup1\n      calldatasize\n      sub\n      dup2\n      add\n      swap1\n      tag_26\n      swap2\n      swap1\n      tag_27\n      jump\t// in\n    tag_26:\n      tag_28\n      jump\t// in\n    tag_25:\n      stop\n        /* \"2.sol\":3381:3672  function shipOrder(uint256 _orderId) external onlyManufacturer orderExists(_orderId) {... */\n    tag_5:\n      tag_29\n      0x04\n      dup1\n      calldatasize\n      sub\n      dup2\n      add\n      swap1\n      tag_30\n      swap2\n      swap1\n      tag_31\n      jump\t// in\n    tag_30:\n      tag_32\n      jump\t// in\n    tag_29:\n      stop\n        /* \"2.sol\":2239:2372  function setBuyerAddress(address _buyer) external onlySeller {... */\n    tag_6:\n      tag_33\n      0x04\n      dup1\n      calldatasize\n      sub\n      dup2\n      add\n      swap1\n      tag_34\n      swap2\n      swap1\n      tag_35\n      jump\t// in\n    tag_34:\n      tag_36\n      jump\t// in\n    tag_33:\n      stop\n        /* \"2.sol\":700:725  uint256 public orderCount */\n    tag_7:\n      tag_37\n      tag_38\n      jump\t// in\n    tag_37:\n      mload(0x40)\n      tag_39\n      swap2\n      swap1\n      tag_40\n      jump\t// in\n    tag_39:\n      mload(0x40)\n      dup1\n      swap2\n      sub\n      swap1\n      return\n        /* \"2.sol\":191:211  address public buyer */\n    tag_8:\n      tag_41\n      tag_42\n      jump\t// in\n    tag_41:\n      mload(0x40)\n      tag_43\n      swap2\n      swap1\n      tag_24\n      jump\t// in\n    tag_43:\n      mload(0x40)\n      dup1\n      swap2\n      sub\n      swap1\n      return\n        /* \"2.sol\":96:123  address public manufacturer */\n    tag_9:\n      tag_44\n      tag_45\n      jump\t// in\n    tag_44:\n      mload(0x40)\n      tag_46\n      swap2\n      swap1\n      tag_24\n      jump\t// in\n    tag_46:\n      mload(0x40)\n      dup1\n      swap2\n      sub\n      swap1\n      return\n        /* \"2.sol\":570:613  mapping(uint256 => Product) public products */\n    tag_10:\n      tag_47\n      0x04\n      dup1\n      calldatasize\n      sub\n      dup2\n      add\n      swap1\n      tag_48\n      swap2\n      swap1\n      tag_31\n      jump\t// in\n    tag_48:\n      tag_49\n      jump\t// in\n    tag_47:\n      mload(0x40)\n      tag_50\n      swap5\n      swap4\n      swap3\n      swap2\n      swap1\n      tag_51\n      jump\t// in\n    tag_50:\n      mload(0x40)\n      dup1\n      swap2\n      sub\n      swap1\n      return\n        /* \"2.sol\":2811:3373  function placeOrder(uint256 _productId, uint256 _quantity) external onlyDistributor productExists(_productId) {... */\n    tag_11:\n      tag_52\n      0x04\n      dup1\n      calldatasize\n      sub\n      dup2\n      add\n      swap1\n      tag_53\n      swap2\n      swap1\n      tag_54\n      jump\t// in\n    tag_53:\n      tag_55\n      jump\t// in\n    tag_52:\n      stop\n        /* \"2.sol\":1996:2120  function setDistributorAddress(address _distributor) external onlyManufacturer {... */\n    tag_12:\n      tag_56\n      0x04\n      dup1\n      calldatasize\n      sub\n      dup2\n      add\n      swap1\n      tag_57\n      swap2\n      swap1\n      tag_35\n      jump\t// in\n    tag_57:\n      tag_58\n      jump\t// in\n    tag_56:\n      stop\n        /* \"2.sol\":2128:2231  function setSellerAddress(address _seller) external onlyDistributor {... */\n    tag_13:\n      tag_59\n      0x04\n      dup1\n      calldatasize\n      sub\n      dup2\n      add\n      swap1\n      tag_60\n      swap2\n      swap1\n      tag_35\n      jump\t// in\n    tag_60:\n      tag_61\n      jump\t// in\n    tag_59:\n      stop\n        /* \"2.sol\":620:659  mapping(uint256 => Order) public orders */\n    tag_14:\n      tag_62\n      0x04\n      dup1\n      calldatasize\n      sub\n      dup2\n      add\n      swap1\n      tag_63\n      swap2\n      swap1\n      tag_31\n      jump\t// in\n    tag_63:\n      tag_64\n      jump\t// in\n    tag_62:\n      mload(0x40)\n      tag_65\n      swap6\n      swap5\n      swap4\n      swap3\n      swap2\n      swap1\n      tag_66\n      jump\t// in\n    tag_65:\n      mload(0x40)\n      dup1\n      swap2\n      sub\n      swap1\n      return\n        /* \"2.sol\":130:156  address public distributor */\n    tag_15:\n      tag_67\n      tag_68\n      jump\t// in\n    tag_67:\n      mload(0x40)\n      tag_69\n      swap2\n      swap1\n      tag_24\n      jump\t// in\n    tag_69:\n      mload(0x40)\n      dup1\n      swap2\n      sub\n      swap1\n      return\n        /* \"2.sol\":3680:4120  function deliverOrder(uint256 _orderId) external onlyDistributor orderExists(_orderId) {... */\n    tag_16:\n      tag_70\n      0x04\n      dup1\n      calldatasize\n      sub\n      dup2\n      add\n      swap1\n      tag_71\n      swap2\n      swap1\n      tag_31\n      jump\t// in\n    tag_71:\n      tag_72\n      jump\t// in\n    tag_70:\n      stop\n        /* \"2.sol\":666:693  uint256 public productCount */\n    tag_17:\n      tag_73\n      tag_74\n      jump\t// in\n    tag_73:\n      mload(0x40)\n      tag_75\n      swap2\n      swap1\n      tag_40\n      jump\t// in\n    tag_75:\n      mload(0x40)\n      dup1\n      swap2\n      sub\n      swap1\n      return\n        /* \"2.sol\":163:184  address public seller */\n    tag_22:\n      0x02\n      0x00\n      swap1\n      sload\n      swap1\n      0x0100\n      exp\n      swap1\n      div\n      0xffffffffffffffffffffffffffffffffffffffff\n      and\n      dup2\n      jump\t// out\n        /* \"2.sol\":2380:2803  function addProduct(string memory _name, uint256 _price, uint256 _quantity) external onlyManufacturer {... */\n    tag_28:\n        /* \"2.sol\":1125:1137  manufacturer */\n      0x00\n      dup1\n      sload\n      swap1\n      0x0100\n      exp\n      swap1\n      div\n      0xffffffffffffffffffffffffffffffffffffffff\n      and\n        /* \"2.sol\":1111:1137  msg.sender == manufacturer */\n      0xffffffffffffffffffffffffffffffffffffffff\n      and\n        /* \"2.sol\":1111:1121  msg.sender */\n      caller\n        /* \"2.sol\":1111:1137  msg.sender == manufacturer */\n      0xffffffffffffffffffffffffffffffffffffffff\n      and\n      eq\n        /* \"2.sol\":1103:1186  require(msg.sender == manufacturer, \"Only the manufacturer can call this function\") */\n      tag_77\n      jumpi\n      mload(0x40)\n      0x08c379a000000000000000000000000000000000000000000000000000000000\n      dup2\n      mstore\n      0x04\n      add\n      tag_78\n      swap1\n      tag_79\n      jump\t// in\n    tag_78:\n      mload(0x40)\n      dup1\n      swap2\n      sub\n      swap1\n      revert\n    tag_77:\n        /* \"2.sol\":2493:2505  productCount */\n      0x06\n      0x00\n        /* \"2.sol\":2493:2507  productCount++ */\n      dup2\n      sload\n      dup1\n      swap3\n      swap2\n      swap1\n      tag_81\n      swap1\n      tag_82\n      jump\t// in\n    tag_81:\n      swap2\n      swap1\n      pop\n      sstore\n      pop\n        /* \"2.sol\":2518:2535  uint256 productId */\n      0x00\n        /* \"2.sol\":2538:2550  productCount */\n      sload(0x06)\n        /* \"2.sol\":2518:2550  uint256 productId = productCount */\n      swap1\n      pop\n        /* \"2.sol\":2585:2728  Product({... */\n      mload(0x40)\n      dup1\n      0x80\n      add\n      0x40\n      mstore\n      dup1\n        /* \"2.sol\":2619:2628  productId */\n      dup3\n        /* \"2.sol\":2585:2728  Product({... */\n      dup2\n      mstore\n      0x20\n      add\n        /* \"2.sol\":2649:2654  _name */\n      dup6\n        /* \"2.sol\":2585:2728  Product({... */\n      dup2\n      mstore\n      0x20\n      add\n        /* \"2.sol\":2676:2682  _price */\n      dup5\n        /* \"2.sol\":2585:2728  Product({... */\n      dup2\n      mstore\n      0x20\n      add\n        /* \"2.sol\":2707:2716  _quantity */\n      dup4\n        /* \"2.sol\":2585:2728  Product({... */\n      dup2\n      mstore\n      pop\n        /* \"2.sol\":2563:2571  products */\n      0x04\n        /* \"2.sol\":2563:2582  products[productId] */\n      0x00\n        /* \"2.sol\":2572:2581  productId */\n      dup4\n        /* \"2.sol\":2563:2582  products[productId] */\n      dup2\n      mstore\n      0x20\n      add\n      swap1\n      dup2\n      mstore\n      0x20\n      add\n      0x00\n      keccak256\n        /* \"2.sol\":2563:2728  products[productId] = Product({... */\n      0x00\n      dup3\n      add\n      mload\n      dup2\n      0x00\n      add\n      sstore\n      0x20\n      dup3\n      add\n      mload\n      dup2\n      0x01\n      add\n      swap1\n      dup2\n      tag_83\n      swap2\n      swap1\n      tag_84\n      jump\t// in\n    tag_83:\n      pop\n      0x40\n      dup3\n      add\n      mload\n      dup2\n      0x02\n      add\n      sstore\n      0x60\n      dup3\n      add\n      mload\n      dup2\n      0x03\n      add\n      sstore\n      swap1\n      pop\n      pop\n        /* \"2.sol\":2746:2795  ProductAdded(productId, _name, _price, _quantity) */\n      0x0107e99fb43ba873db8a5ce7c34a12cd44cd3041167cff32040ddb6aca455ae6\n        /* \"2.sol\":2759:2768  productId */\n      dup2\n        /* \"2.sol\":2770:2775  _name */\n      dup6\n        /* \"2.sol\":2777:2783  _price */\n      dup6\n        /* \"2.sol\":2785:2794  _quantity */\n      dup6\n        /* \"2.sol\":2746:2795  ProductAdded(productId, _name, _price, _quantity) */\n      mload(0x40)\n      tag_85\n      swap5\n      swap4\n      swap3\n      swap2\n      swap1\n      tag_51\n      jump\t// in\n    tag_85:\n      mload(0x40)\n      dup1\n      swap2\n      sub\n      swap1\n      log1\n        /* \"2.sol\":2482:2803  {... */\n      pop\n        /* \"2.sol\":2380:2803  function addProduct(string memory _name, uint256 _price, uint256 _quantity) external onlyManufacturer {... */\n      pop\n      pop\n      pop\n      jump\t// out\n        /* \"2.sol\":3381:3672  function shipOrder(uint256 _orderId) external onlyManufacturer orderExists(_orderId) {... */\n    tag_32:\n        /* \"2.sol\":1125:1137  manufacturer */\n      0x00\n      dup1\n      sload\n      swap1\n      0x0100\n      exp\n      swap1\n      div\n      0xffffffffffffffffffffffffffffffffffffffff\n      and\n        /* \"2.sol\":1111:1137  msg.sender == manufacturer */\n      0xffffffffffffffffffffffffffffffffffffffff\n      and\n        /* \"2.sol\":1111:1121  msg.sender */\n      caller\n        /* \"2.sol\":1111:1137  msg.sender == manufacturer */\n      0xffffffffffffffffffffffffffffffffffffffff\n      and\n      eq\n        /* \"2.sol\":1103:1186  require(msg.sender == manufacturer, \"Only the manufacturer can call this function\") */\n      tag_87\n      jumpi\n      mload(0x40)\n      0x08c379a000000000000000000000000000000000000000000000000000000000\n      dup2\n      mstore\n      0x04\n      add\n      tag_88\n      swap1\n      tag_79\n      jump\t// in\n    tag_88:\n      mload(0x40)\n      dup1\n      swap2\n      sub\n      swap1\n      revert\n    tag_87:\n        /* \"2.sol\":3456:3464  _orderId */\n      dup1\n        /* \"2.sol\":1869:1877  _orderId */\n      dup1\n        /* \"2.sol\":1841:1847  orders */\n      0x05\n        /* \"2.sol\":1841:1857  orders[_orderId] */\n      0x00\n        /* \"2.sol\":1848:1856  _orderId */\n      dup4\n        /* \"2.sol\":1841:1857  orders[_orderId] */\n      dup2\n      mstore\n      0x20\n      add\n      swap1\n      dup2\n      mstore\n      0x20\n      add\n      0x00\n      keccak256\n        /* \"2.sol\":1841:1865  orders[_orderId].orderId */\n      0x00\n      add\n      sload\n        /* \"2.sol\":1841:1877  orders[_orderId].orderId == _orderId */\n      eq\n        /* \"2.sol\":1833:1902  require(orders[_orderId].orderId == _orderId, \"Order does not exist\") */\n      tag_90\n      jumpi\n      mload(0x40)\n      0x08c379a000000000000000000000000000000000000000000000000000000000\n      dup2\n      mstore\n      0x04\n      add\n      tag_91\n      swap1\n      tag_92\n      jump\t// in\n    tag_91:\n      mload(0x40)\n      dup1\n      swap2\n      sub\n      swap1\n      revert\n    tag_90:\n        /* \"2.sol\":3512:3530  OrderStatus.Placed */\n      0x00\n        /* \"2.sol\":3485:3530  orders[_orderId].status == OrderStatus.Placed */\n      0x02\n      dup2\n      gt\n      iszero\n      tag_94\n      jumpi\n      tag_95\n      tag_96\n      jump\t// in\n    tag_95:\n    tag_94:\n        /* \"2.sol\":3485:3491  orders */\n      0x05\n        /* \"2.sol\":3485:3501  orders[_orderId] */\n      0x00\n        /* \"2.sol\":3492:3500  _orderId */\n      dup5\n        /* \"2.sol\":3485:3501  orders[_orderId] */\n      dup2\n      mstore\n      0x20\n      add\n      swap1\n      dup2\n      mstore\n      0x20\n      add\n      0x00\n      keccak256\n        /* \"2.sol\":3485:3508  orders[_orderId].status */\n      0x04\n      add\n      0x00\n      swap1\n      sload\n      swap1\n      0x0100\n      exp\n      swap1\n      div\n      0xff\n      and\n        /* \"2.sol\":3485:3530  orders[_orderId].status == OrderStatus.Placed */\n      0x02\n      dup2\n      gt\n      iszero\n      tag_97\n      jumpi\n      tag_98\n      tag_96\n      jump\t// in\n    tag_98:\n    tag_97:\n      eq\n        /* \"2.sol\":3477:3568  require(orders[_orderId].status == OrderStatus.Placed, \"Order is not in a shippable state\") */\n      tag_99\n      jumpi\n      mload(0x40)\n      0x08c379a000000000000000000000000000000000000000000000000000000000\n      dup2\n      mstore\n      0x04\n      add\n      tag_100\n      swap1\n      tag_101\n      jump\t// in\n    tag_100:\n      mload(0x40)\n      dup1\n      swap2\n      sub\n      swap1\n      revert\n    tag_99:\n        /* \"2.sol\":3607:3626  OrderStatus.Shipped */\n      0x01\n        /* \"2.sol\":3581:3587  orders */\n      0x05\n        /* \"2.sol\":3581:3597  orders[_orderId] */\n      0x00\n        /* \"2.sol\":3588:3596  _orderId */\n      dup5\n        /* \"2.sol\":3581:3597  orders[_orderId] */\n      dup2\n      mstore\n      0x20\n      add\n      swap1\n      dup2\n      mstore\n      0x20\n      add\n      0x00\n      keccak256\n        /* \"2.sol\":3581:3604  orders[_orderId].status */\n      0x04\n      add\n      0x00\n        /* \"2.sol\":3581:3626  orders[_orderId].status = OrderStatus.Shipped */\n      0x0100\n      exp\n      dup2\n      sload\n      dup2\n      0xff\n      mul\n      not\n      and\n      swap1\n      dup4\n      0x02\n      dup2\n      gt\n      iszero\n      tag_102\n      jumpi\n      tag_103\n      tag_96\n      jump\t// in\n    tag_103:\n    tag_102:\n      mul\n      or\n      swap1\n      sstore\n      pop\n        /* \"2.sol\":3642:3664  OrderShipped(_orderId) */\n      0xe3ce5f36666aec295b2ed1a858caf4782066e5e8c1a5a5da7ba6551b14fcfdcb\n        /* \"2.sol\":3655:3663  _orderId */\n      dup3\n        /* \"2.sol\":3642:3664  OrderShipped(_orderId) */\n      mload(0x40)\n      tag_104\n      swap2\n      swap1\n      tag_40\n      jump\t// in\n    tag_104:\n      mload(0x40)\n      dup1\n      swap2\n      sub\n      swap1\n      log1\n        /* \"2.sol\":1197:1198  _ */\n      pop\n        /* \"2.sol\":3381:3672  function shipOrder(uint256 _orderId) external onlyManufacturer orderExists(_orderId) {... */\n      pop\n      jump\t// out\n        /* \"2.sol\":2239:2372  function setBuyerAddress(address _buyer) external onlySeller {... */\n    tag_36:\n        /* \"2.sol\":1416:1422  seller */\n      0x02\n      0x00\n      swap1\n      sload\n      swap1\n      0x0100\n      exp\n      swap1\n      div\n      0xffffffffffffffffffffffffffffffffffffffff\n      and\n        /* \"2.sol\":1402:1422  msg.sender == seller */\n      0xffffffffffffffffffffffffffffffffffffffff\n      and\n        /* \"2.sol\":1402:1412  msg.sender */\n      caller\n        /* \"2.sol\":1402:1422  msg.sender == seller */\n      0xffffffffffffffffffffffffffffffffffffffff\n      and\n      eq\n        /* \"2.sol\":1394:1465  require(msg.sender == seller, \"Only the seller can call this function\") */\n      tag_106\n      jumpi\n      mload(0x40)\n      0x08c379a000000000000000000000000000000000000000000000000000000000\n      dup2\n      mstore\n      0x04\n      add\n      tag_107\n      swap1\n      tag_108\n      jump\t// in\n    tag_107:\n      mload(0x40)\n      dup1\n      swap2\n      sub\n      swap1\n      revert\n    tag_106:\n        /* \"2.sol\":2319:2325  _buyer */\n      dup1\n        /* \"2.sol\":2311:2316  buyer */\n      0x03\n      0x00\n        /* \"2.sol\":2311:2325  buyer = _buyer */\n      0x0100\n      exp\n      dup2\n      sload\n      dup2\n      0xffffffffffffffffffffffffffffffffffffffff\n      mul\n      not\n      and\n      swap1\n      dup4\n      0xffffffffffffffffffffffffffffffffffffffff\n      and\n      mul\n      or\n      swap1\n      sstore\n      pop\n        /* \"2.sol\":2357:2363  _buyer */\n      dup1\n        /* \"2.sol\":2341:2364  BuyerAddressSet(_buyer) */\n      0xffffffffffffffffffffffffffffffffffffffff\n      and\n      0xcd02002fe332b099bf26c14f8402cf0fb088aeea918cae00c687a874a1017f64\n      mload(0x40)\n      mload(0x40)\n      dup1\n      swap2\n      sub\n      swap1\n      log2\n        /* \"2.sol\":2239:2372  function setBuyerAddress(address _buyer) external onlySeller {... */\n      pop\n      jump\t// out\n        /* \"2.sol\":700:725  uint256 public orderCount */\n    tag_38:\n      sload(0x07)\n      dup2\n      jump\t// out\n        /* \"2.sol\":191:211  address public buyer */\n    tag_42:\n      0x03\n      0x00\n      swap1\n      sload\n      swap1\n      0x0100\n      exp\n      swap1\n      div\n      0xffffffffffffffffffffffffffffffffffffffff\n      and\n      dup2\n      jump\t// out\n        /* \"2.sol\":96:123  address public manufacturer */\n    tag_45:\n      0x00\n      dup1\n      sload\n      swap1\n      0x0100\n      exp\n      swap1\n      div\n      0xffffffffffffffffffffffffffffffffffffffff\n      and\n      dup2\n      jump\t// out\n        /* \"2.sol\":570:613  mapping(uint256 => Product) public products */\n    tag_49:\n      mstore(0x20, 0x04)\n      dup1\n      0x00\n      mstore\n      keccak256(0x00, 0x40)\n      0x00\n      swap2\n      pop\n      swap1\n      pop\n      dup1\n      0x00\n      add\n      sload\n      swap1\n      dup1\n      0x01\n      add\n      dup1\n      sload\n      tag_110\n      swap1\n      tag_111\n      jump\t// in\n    tag_110:\n      dup1\n      0x1f\n      add\n      0x20\n      dup1\n      swap2\n      div\n      mul\n      0x20\n      add\n      mload(0x40)\n      swap1\n      dup2\n      add\n      0x40\n      mstore\n      dup1\n      swap3\n      swap2\n      swap1\n      dup2\n      dup2\n      mstore\n      0x20\n      add\n      dup3\n      dup1\n      sload\n      tag_112\n      swap1\n      tag_111\n      jump\t// in\n    tag_112:\n      dup1\n      iszero\n      tag_113\n      jumpi\n      dup1\n      0x1f\n      lt\n      tag_114\n      jumpi\n      0x0100\n      dup1\n      dup4\n      sload\n      div\n      mul\n      dup4\n      mstore\n      swap2\n      0x20\n      add\n      swap2\n      jump(tag_113)\n    tag_114:\n      dup3\n      add\n      swap2\n      swap1\n      0x00\n      mstore\n      keccak256(0x00, 0x20)\n      swap1\n    tag_115:\n      dup2\n      sload\n      dup2\n      mstore\n      swap1\n      0x01\n      add\n      swap1\n      0x20\n      add\n      dup1\n      dup4\n      gt\n      tag_115\n      jumpi\n      dup3\n      swap1\n      sub\n      0x1f\n      and\n      dup3\n      add\n      swap2\n    tag_113:\n      pop\n      pop\n      pop\n      pop\n      pop\n      swap1\n      dup1\n      0x02\n      add\n      sload\n      swap1\n      dup1\n      0x03\n      add\n      sload\n      swap1\n      pop\n      dup5\n      jump\t// out\n        /* \"2.sol\":2811:3373  function placeOrder(uint256 _productId, uint256 _quantity) external onlyDistributor productExists(_productId) {... */\n    tag_55:\n        /* \"2.sol\":1274:1285  distributor */\n      0x01\n      0x00\n      swap1\n      sload\n      swap1\n      0x0100\n      exp\n      swap1\n      div\n      0xffffffffffffffffffffffffffffffffffffffff\n      and\n        /* \"2.sol\":1260:1285  msg.sender == distributor */\n      0xffffffffffffffffffffffffffffffffffffffff\n      and\n        /* \"2.sol\":1260:1270  msg.sender */\n      caller\n        /* \"2.sol\":1260:1285  msg.sender == distributor */\n      0xffffffffffffffffffffffffffffffffffffffff\n      and\n      eq\n        /* \"2.sol\":1252:1333  require(msg.sender == distributor, \"Only the distributor can call this function\") */\n      tag_117\n      jumpi\n      mload(0x40)\n      0x08c379a000000000000000000000000000000000000000000000000000000000\n      dup2\n      mstore\n      0x04\n      add\n      tag_118\n      swap1\n      tag_119\n      jump\t// in\n    tag_118:\n      mload(0x40)\n      dup1\n      swap2\n      sub\n      swap1\n      revert\n    tag_117:\n        /* \"2.sol\":2909:2919  _productId */\n      dup2\n        /* \"2.sol\":1718:1728  _productId */\n      dup1\n        /* \"2.sol\":1684:1692  products */\n      0x04\n        /* \"2.sol\":1684:1704  products[_productId] */\n      0x00\n        /* \"2.sol\":1693:1703  _productId */\n      dup4\n        /* \"2.sol\":1684:1704  products[_productId] */\n      dup2\n      mstore\n      0x20\n      add\n      swap1\n      dup2\n      mstore\n      0x20\n      add\n      0x00\n      keccak256\n        /* \"2.sol\":1684:1714  products[_productId].productId */\n      0x00\n      add\n      sload\n        /* \"2.sol\":1684:1728  products[_productId].productId == _productId */\n      eq\n        /* \"2.sol\":1676:1755  require(products[_productId].productId == _productId, \"Product does not exist\") */\n      tag_121\n      jumpi\n      mload(0x40)\n      0x08c379a000000000000000000000000000000000000000000000000000000000\n      dup2\n      mstore\n      0x04\n      add\n      tag_122\n      swap1\n      tag_123\n      jump\t// in\n    tag_122:\n      mload(0x40)\n      dup1\n      swap2\n      sub\n      swap1\n      revert\n    tag_121:\n        /* \"2.sol\":2973:2982  _quantity */\n      dup2\n        /* \"2.sol\":2940:2948  products */\n      0x04\n        /* \"2.sol\":2940:2960  products[_productId] */\n      0x00\n        /* \"2.sol\":2949:2959  _productId */\n      dup6\n        /* \"2.sol\":2940:2960  products[_productId] */\n      dup2\n      mstore\n      0x20\n      add\n      swap1\n      dup2\n      mstore\n      0x20\n      add\n      0x00\n      keccak256\n        /* \"2.sol\":2940:2969  products[_productId].quantity */\n      0x03\n      add\n      sload\n        /* \"2.sol\":2940:2982  products[_productId].quantity >= _quantity */\n      lt\n      iszero\n        /* \"2.sol\":2932:3003  require(products[_productId].quantity >= _quantity, \"Not enough stock\") */\n      tag_125\n      jumpi\n      mload(0x40)\n      0x08c379a000000000000000000000000000000000000000000000000000000000\n      dup2\n      mstore\n      0x04\n      add\n      tag_126\n      swap1\n      tag_127\n      jump\t// in\n    tag_126:\n      mload(0x40)\n      dup1\n      swap2\n      sub\n      swap1\n      revert\n    tag_125:\n        /* \"2.sol\":3016:3026  orderCount */\n      0x07\n      0x00\n        /* \"2.sol\":3016:3028  orderCount++ */\n      dup2\n      sload\n      dup1\n      swap3\n      swap2\n      swap1\n      tag_128\n      swap1\n      tag_82\n      jump\t// in\n    tag_128:\n      swap2\n      swap1\n      pop\n      sstore\n      pop\n        /* \"2.sol\":3039:3054  uint256 orderId */\n      0x00\n        /* \"2.sol\":3057:3067  orderCount */\n      sload(0x07)\n        /* \"2.sol\":3039:3067  uint256 orderId = orderCount */\n      swap1\n      pop\n        /* \"2.sol\":3098:3291  Order({... */\n      mload(0x40)\n      dup1\n      0xa0\n      add\n      0x40\n      mstore\n      dup1\n        /* \"2.sol\":3128:3135  orderId */\n      dup3\n        /* \"2.sol\":3098:3291  Order({... */\n      dup2\n      mstore\n      0x20\n      add\n        /* \"2.sol\":3157:3168  distributor */\n      0x01\n      0x00\n      swap1\n      sload\n      swap1\n      0x0100\n      exp\n      swap1\n      div\n      0xffffffffffffffffffffffffffffffffffffffff\n      and\n        /* \"2.sol\":3098:3291  Order({... */\n      0xffffffffffffffffffffffffffffffffffffffff\n      and\n      dup2\n      mstore\n      0x20\n      add\n        /* \"2.sol\":3194:3204  _productId */\n      dup6\n        /* \"2.sol\":3098:3291  Order({... */\n      dup2\n      mstore\n      0x20\n      add\n        /* \"2.sol\":3229:3238  _quantity */\n      dup5\n        /* \"2.sol\":3098:3291  Order({... */\n      dup2\n      mstore\n      0x20\n      add\n        /* \"2.sol\":3261:3279  OrderStatus.Placed */\n      0x00\n        /* \"2.sol\":3098:3291  Order({... */\n      0x02\n      dup2\n      gt\n      iszero\n      tag_129\n      jumpi\n      tag_130\n      tag_96\n      jump\t// in\n    tag_130:\n    tag_129:\n      dup2\n      mstore\n      pop\n        /* \"2.sol\":3080:3086  orders */\n      0x05\n        /* \"2.sol\":3080:3095  orders[orderId] */\n      0x00\n        /* \"2.sol\":3087:3094  orderId */\n      dup4\n        /* \"2.sol\":3080:3095  orders[orderId] */\n      dup2\n      mstore\n      0x20\n      add\n      swap1\n      dup2\n      mstore\n      0x20\n      add\n      0x00\n      keccak256\n        /* \"2.sol\":3080:3291  orders[orderId] = Order({... */\n      0x00\n      dup3\n      add\n      mload\n      dup2\n      0x00\n      add\n      sstore\n      0x20\n      dup3\n      add\n      mload\n      dup2\n      0x01\n      add\n      exp(0x0100, 0x00)\n      dup2\n      sload\n      dup2\n      0xffffffffffffffffffffffffffffffffffffffff\n      mul\n      not\n      and\n      swap1\n      dup4\n      0xffffffffffffffffffffffffffffffffffffffff\n      and\n      mul\n      or\n      swap1\n      sstore\n      pop\n      0x40\n      dup3\n      add\n      mload\n      dup2\n      0x02\n      add\n      sstore\n      0x60\n      dup3\n      add\n      mload\n      dup2\n      0x03\n      add\n      sstore\n      0x80\n      dup3\n      add\n      mload\n      dup2\n      0x04\n      add\n      exp(0x0100, 0x00)\n      dup2\n      sload\n      dup2\n      0xff\n      mul\n      not\n      and\n      swap1\n      dup4\n      0x02\n      dup2\n      gt\n      iszero\n      tag_131\n      jumpi\n      tag_132\n      tag_96\n      jump\t// in\n    tag_132:\n    tag_131:\n      mul\n      or\n      swap1\n      sstore\n      pop\n      swap1\n      pop\n      pop\n        /* \"2.sol\":3330:3341  distributor */\n      0x01\n      0x00\n      swap1\n      sload\n      swap1\n      0x0100\n      exp\n      swap1\n      div\n      0xffffffffffffffffffffffffffffffffffffffff\n      and\n        /* \"2.sol\":3309:3365  OrderPlaced(orderId, distributor, _productId, _quantity) */\n      0xffffffffffffffffffffffffffffffffffffffff\n      and\n      0x59827a9898740dc87f0e01c9f27ae034611bb083f06d7eb3efaef27336e3c4dd\n        /* \"2.sol\":3321:3328  orderId */\n      dup3\n        /* \"2.sol\":3343:3353  _productId */\n      dup7\n        /* \"2.sol\":3355:3364  _quantity */\n      dup7\n        /* \"2.sol\":3309:3365  OrderPlaced(orderId, distributor, _productId, _quantity) */\n      mload(0x40)\n      tag_133\n      swap4\n      swap3\n      swap2\n      swap1\n      tag_134\n      jump\t// in\n    tag_133:\n      mload(0x40)\n      dup1\n      swap2\n      sub\n      swap1\n      log2\n        /* \"2.sol\":2921:3373  {... */\n      pop\n        /* \"2.sol\":1344:1345  _ */\n      pop\n        /* \"2.sol\":2811:3373  function placeOrder(uint256 _productId, uint256 _quantity) external onlyDistributor productExists(_productId) {... */\n      pop\n      pop\n      jump\t// out\n        /* \"2.sol\":1996:2120  function setDistributorAddress(address _distributor) external onlyManufacturer {... */\n    tag_58:\n        /* \"2.sol\":1125:1137  manufacturer */\n      0x00\n      dup1\n      sload\n      swap1\n      0x0100\n      exp\n      swap1\n      div\n      0xffffffffffffffffffffffffffffffffffffffff\n      and\n        /* \"2.sol\":1111:1137  msg.sender == manufacturer */\n      0xffffffffffffffffffffffffffffffffffffffff\n      and\n        /* \"2.sol\":1111:1121  msg.sender */\n      caller\n        /* \"2.sol\":1111:1137  msg.sender == manufacturer */\n      0xffffffffffffffffffffffffffffffffffffffff\n      and\n      eq\n        /* \"2.sol\":1103:1186  require(msg.sender == manufacturer, \"Only the manufacturer can call this function\") */\n      tag_136\n      jumpi\n      mload(0x40)\n      0x08c379a000000000000000000000000000000000000000000000000000000000\n      dup2\n      mstore\n      0x04\n      add\n      tag_137\n      swap1\n      tag_79\n      jump\t// in\n    tag_137:\n      mload(0x40)\n      dup1\n      swap2\n      sub\n      swap1\n      revert\n    tag_136:\n        /* \"2.sol\":2100:2112  _distributor */\n      dup1\n        /* \"2.sol\":2086:2097  distributor */\n      0x01\n      0x00\n        /* \"2.sol\":2086:2112  distributor = _distributor */\n      0x0100\n      exp\n      dup2\n      sload\n      dup2\n      0xffffffffffffffffffffffffffffffffffffffff\n      mul\n      not\n      and\n      swap1\n      dup4\n      0xffffffffffffffffffffffffffffffffffffffff\n      and\n      mul\n      or\n      swap1\n      sstore\n      pop\n        /* \"2.sol\":1996:2120  function setDistributorAddress(address _distributor) external onlyManufacturer {... */\n      pop\n      jump\t// out\n        /* \"2.sol\":2128:2231  function setSellerAddress(address _seller) external onlyDistributor {... */\n    tag_61:\n        /* \"2.sol\":1274:1285  distributor */\n      0x01\n      0x00\n      swap1\n      sload\n      swap1\n      0x0100\n      exp\n      swap1\n      div\n      0xffffffffffffffffffffffffffffffffffffffff\n      and\n        /* \"2.sol\":1260:1285  msg.sender == distributor */\n      0xffffffffffffffffffffffffffffffffffffffff\n      and\n        /* \"2.sol\":1260:1270  msg.sender */\n      caller\n        /* \"2.sol\":1260:1285  msg.sender == distributor */\n      0xffffffffffffffffffffffffffffffffffffffff\n      and\n      eq\n        /* \"2.sol\":1252:1333  require(msg.sender == distributor, \"Only the distributor can call this function\") */\n      tag_140\n      jumpi\n      mload(0x40)\n      0x08c379a000000000000000000000000000000000000000000000000000000000\n      dup2\n      mstore\n      0x04\n      add\n      tag_141\n      swap1\n      tag_119\n      jump\t// in\n    tag_141:\n      mload(0x40)\n      dup1\n      swap2\n      sub\n      swap1\n      revert\n    tag_140:\n        /* \"2.sol\":2216:2223  _seller */\n      dup1\n        /* \"2.sol\":2207:2213  seller */\n      0x02\n      0x00\n        /* \"2.sol\":2207:2223  seller = _seller */\n      0x0100\n      exp\n      dup2\n      sload\n      dup2\n      0xffffffffffffffffffffffffffffffffffffffff\n      mul\n      not\n      and\n      swap1\n      dup4\n      0xffffffffffffffffffffffffffffffffffffffff\n      and\n      mul\n      or\n      swap1\n      sstore\n      pop\n        /* \"2.sol\":2128:2231  function setSellerAddress(address _seller) external onlyDistributor {... */\n      pop\n      jump\t// out\n        /* \"2.sol\":620:659  mapping(uint256 => Order) public orders */\n    tag_64:\n      mstore(0x20, 0x05)\n      dup1\n      0x00\n      mstore\n      keccak256(0x00, 0x40)\n      0x00\n      swap2\n      pop\n      swap1\n      pop\n      dup1\n      0x00\n      add\n      sload\n      swap1\n      dup1\n      0x01\n      add\n      0x00\n      swap1\n      sload\n      swap1\n      0x0100\n      exp\n      swap1\n      div\n      0xffffffffffffffffffffffffffffffffffffffff\n      and\n      swap1\n      dup1\n      0x02\n      add\n      sload\n      swap1\n      dup1\n      0x03\n      add\n      sload\n      swap1\n      dup1\n      0x04\n      add\n      0x00\n      swap1\n      sload\n      swap1\n      0x0100\n      exp\n      swap1\n      div\n      0xff\n      and\n      swap1\n      pop\n      dup6\n      jump\t// out\n        /* \"2.sol\":130:156  address public distributor */\n    tag_68:\n      0x01\n      0x00\n      swap1\n      sload\n      swap1\n      0x0100\n      exp\n      swap1\n      div\n      0xffffffffffffffffffffffffffffffffffffffff\n      and\n      dup2\n      jump\t// out\n        /* \"2.sol\":3680:4120  function deliverOrder(uint256 _orderId) external onlyDistributor orderExists(_orderId) {... */\n    tag_72:\n        /* \"2.sol\":1274:1285  distributor */\n      0x01\n      0x00\n      swap1\n      sload\n      swap1\n      0x0100\n      exp\n      swap1\n      div\n      0xffffffffffffffffffffffffffffffffffffffff\n      and\n        /* \"2.sol\":1260:1285  msg.sender == distributor */\n      0xffffffffffffffffffffffffffffffffffffffff\n      and\n        /* \"2.sol\":1260:1270  msg.sender */\n      caller\n        /* \"2.sol\":1260:1285  msg.sender == distributor */\n      0xffffffffffffffffffffffffffffffffffffffff\n      and\n      eq\n        /* \"2.sol\":1252:1333  require(msg.sender == distributor, \"Only the distributor can call this function\") */\n      tag_144\n      jumpi\n      mload(0x40)\n      0x08c379a000000000000000000000000000000000000000000000000000000000\n      dup2\n      mstore\n      0x04\n      add\n      tag_145\n      swap1\n      tag_119\n      jump\t// in\n    tag_145:\n      mload(0x40)\n      dup1\n      swap2\n      sub\n      swap1\n      revert\n    tag_144:\n        /* \"2.sol\":3757:3765  _orderId */\n      dup1\n        /* \"2.sol\":1869:1877  _orderId */\n      dup1\n        /* \"2.sol\":1841:1847  orders */\n      0x05\n        /* \"2.sol\":1841:1857  orders[_orderId] */\n      0x00\n        /* \"2.sol\":1848:1856  _orderId */\n      dup4\n        /* \"2.sol\":1841:1857  orders[_orderId] */\n      dup2\n      mstore\n      0x20\n      add\n      swap1\n      dup2\n      mstore\n      0x20\n      add\n      0x00\n      keccak256\n        /* \"2.sol\":1841:1865  orders[_orderId].orderId */\n      0x00\n      add\n      sload\n        /* \"2.sol\":1841:1877  orders[_orderId].orderId == _orderId */\n      eq\n        /* \"2.sol\":1833:1902  require(orders[_orderId].orderId == _orderId, \"Order does not exist\") */\n      tag_147\n      jumpi\n      mload(0x40)\n      0x08c379a000000000000000000000000000000000000000000000000000000000\n      dup2\n      mstore\n      0x04\n      add\n      tag_148\n      swap1\n      tag_92\n      jump\t// in\n    tag_148:\n      mload(0x40)\n      dup1\n      swap2\n      sub\n      swap1\n      revert\n    tag_147:\n        /* \"2.sol\":3813:3832  OrderStatus.Shipped */\n      0x01\n        /* \"2.sol\":3786:3832  orders[_orderId].status == OrderStatus.Shipped */\n      0x02\n      dup2\n      gt\n      iszero\n      tag_150\n      jumpi\n      tag_151\n      tag_96\n      jump\t// in\n    tag_151:\n    tag_150:\n        /* \"2.sol\":3786:3792  orders */\n      0x05\n        /* \"2.sol\":3786:3802  orders[_orderId] */\n      0x00\n        /* \"2.sol\":3793:3801  _orderId */\n      dup5\n        /* \"2.sol\":3786:3802  orders[_orderId] */\n      dup2\n      mstore\n      0x20\n      add\n      swap1\n      dup2\n      mstore\n      0x20\n      add\n      0x00\n      keccak256\n        /* \"2.sol\":3786:3809  orders[_orderId].status */\n      0x04\n      add\n      0x00\n      swap1\n      sload\n      swap1\n      0x0100\n      exp\n      swap1\n      div\n      0xff\n      and\n        /* \"2.sol\":3786:3832  orders[_orderId].status == OrderStatus.Shipped */\n      0x02\n      dup2\n      gt\n      iszero\n      tag_152\n      jumpi\n      tag_153\n      tag_96\n      jump\t// in\n    tag_153:\n    tag_152:\n      eq\n        /* \"2.sol\":3778:3872  require(orders[_orderId].status == OrderStatus.Shipped, \"Order is not in a deliverable state\") */\n      tag_154\n      jumpi\n      mload(0x40)\n      0x08c379a000000000000000000000000000000000000000000000000000000000\n      dup2\n      mstore\n      0x04\n      add\n      tag_155\n      swap1\n      tag_156\n      jump\t// in\n    tag_155:\n      mload(0x40)\n      dup1\n      swap2\n      sub\n      swap1\n      revert\n    tag_154:\n        /* \"2.sol\":3911:3932  OrderStatus.Delivered */\n      0x02\n        /* \"2.sol\":3885:3891  orders */\n      0x05\n        /* \"2.sol\":3885:3901  orders[_orderId] */\n      0x00\n        /* \"2.sol\":3892:3900  _orderId */\n      dup5\n        /* \"2.sol\":3885:3901  orders[_orderId] */\n      dup2\n      mstore\n      0x20\n      add\n      swap1\n      dup2\n      mstore\n      0x20\n      add\n      0x00\n      keccak256\n        /* \"2.sol\":3885:3908  orders[_orderId].status */\n      0x04\n      add\n      0x00\n        /* \"2.sol\":3885:3932  orders[_orderId].status = OrderStatus.Delivered */\n      0x0100\n      exp\n      dup2\n      sload\n      dup2\n      0xff\n      mul\n      not\n      and\n      swap1\n      dup4\n      0x02\n      dup2\n      gt\n      iszero\n      tag_157\n      jumpi\n      tag_158\n      tag_96\n      jump\t// in\n    tag_158:\n    tag_157:\n      mul\n      or\n      swap1\n      sstore\n      pop\n        /* \"2.sol\":4045:4051  orders */\n      0x05\n        /* \"2.sol\":4045:4061  orders[_orderId] */\n      0x00\n        /* \"2.sol\":4052:4060  _orderId */\n      dup4\n        /* \"2.sol\":4045:4061  orders[_orderId] */\n      dup2\n      mstore\n      0x20\n      add\n      swap1\n      dup2\n      mstore\n      0x20\n      add\n      0x00\n      keccak256\n        /* \"2.sol\":4045:4070  orders[_orderId].quantity */\n      0x03\n      add\n      sload\n        /* \"2.sol\":3996:4004  products */\n      0x04\n        /* \"2.sol\":3996:4032  products[orders[_orderId].productId] */\n      0x00\n        /* \"2.sol\":4005:4011  orders */\n      0x05\n        /* \"2.sol\":4005:4021  orders[_orderId] */\n      0x00\n        /* \"2.sol\":4012:4020  _orderId */\n      dup7\n        /* \"2.sol\":4005:4021  orders[_orderId] */\n      dup2\n      mstore\n      0x20\n      add\n      swap1\n      dup2\n      mstore\n      0x20\n      add\n      0x00\n      keccak256\n        /* \"2.sol\":4005:4031  orders[_orderId].productId */\n      0x02\n      add\n      sload\n        /* \"2.sol\":3996:4032  products[orders[_orderId].productId] */\n      dup2\n      mstore\n      0x20\n      add\n      swap1\n      dup2\n      mstore\n      0x20\n      add\n      0x00\n      keccak256\n        /* \"2.sol\":3996:4041  products[orders[_orderId].productId].quantity */\n      0x03\n      add\n      0x00\n        /* \"2.sol\":3996:4070  products[orders[_orderId].productId].quantity -= orders[_orderId].quantity */\n      dup3\n      dup3\n      sload\n      tag_159\n      swap2\n      swap1\n      tag_160\n      jump\t// in\n    tag_159:\n      swap3\n      pop\n      pop\n      dup2\n      swap1\n      sstore\n      pop\n        /* \"2.sol\":4088:4112  OrderDelivered(_orderId) */\n      0xe21fe02c1589242b30be2057f54fd54b7ddc463695d19ffdb54f9ebb0584f24a\n        /* \"2.sol\":4103:4111  _orderId */\n      dup3\n        /* \"2.sol\":4088:4112  OrderDelivered(_orderId) */\n      mload(0x40)\n      tag_161\n      swap2\n      swap1\n      tag_40\n      jump\t// in\n    tag_161:\n      mload(0x40)\n      dup1\n      swap2\n      sub\n      swap1\n      log1\n        /* \"2.sol\":1344:1345  _ */\n      pop\n        /* \"2.sol\":3680:4120  function deliverOrder(uint256 _orderId) external onlyDistributor orderExists(_orderId) {... */\n      pop\n      jump\t// out\n        /* \"2.sol\":666:693  uint256 public productCount */\n    tag_74:\n      sload(0x06)\n      dup2\n      jump\t// out\n        /* \"#utility.yul\":7:133   */\n    tag_162:\n        /* \"#utility.yul\":44:51   */\n      0x00\n        /* \"#utility.yul\":84:126   */\n      0xffffffffffffffffffffffffffffffffffffffff\n        /* \"#utility.yul\":77:82   */\n      dup3\n        /* \"#utility.yul\":73:127   */\n      and\n        /* \"#utility.yul\":62:127   */\n      swap1\n      pop\n        /* \"#utility.yul\":7:133   */\n      swap2\n      swap1\n      pop\n      jump\t// out\n        /* \"#utility.yul\":139:235   */\n    tag_163:\n        /* \"#utility.yul\":176:183   */\n      0x00\n        /* \"#utility.yul\":205:229   */\n      tag_228\n        /* \"#utility.yul\":223:228   */\n      dup3\n        /* \"#utility.yul\":205:229   */\n      tag_162\n      jump\t// in\n    tag_228:\n        /* \"#utility.yul\":194:229   */\n      swap1\n      pop\n        /* \"#utility.yul\":139:235   */\n      swap2\n      swap1\n      pop\n      jump\t// out\n        /* \"#utility.yul\":241:359   */\n    tag_164:\n        /* \"#utility.yul\":328:352   */\n      tag_230\n        /* \"#utility.yul\":346:351   */\n      dup2\n        /* \"#utility.yul\":328:352   */\n      tag_163\n      jump\t// in\n    tag_230:\n        /* \"#utility.yul\":323:326   */\n      dup3\n        /* \"#utility.yul\":316:353   */\n      mstore\n        /* \"#utility.yul\":241:359   */\n      pop\n      pop\n      jump\t// out\n        /* \"#utility.yul\":365:587   */\n    tag_24:\n        /* \"#utility.yul\":458:462   */\n      0x00\n        /* \"#utility.yul\":496:498   */\n      0x20\n        /* \"#utility.yul\":485:494   */\n      dup3\n        /* \"#utility.yul\":481:499   */\n      add\n        /* \"#utility.yul\":473:499   */\n      swap1\n      pop\n        /* \"#utility.yul\":509:580   */\n      tag_232\n        /* \"#utility.yul\":577:578   */\n      0x00\n        /* \"#utility.yul\":566:575   */\n      dup4\n        /* \"#utility.yul\":562:579   */\n      add\n        /* \"#utility.yul\":553:559   */\n      dup5\n        /* \"#utility.yul\":509:580   */\n      tag_164\n      jump\t// in\n    tag_232:\n        /* \"#utility.yul\":365:587   */\n      swap3\n      swap2\n      pop\n      pop\n      jump\t// out\n        /* \"#utility.yul\":593:668   */\n    tag_165:\n        /* \"#utility.yul\":626:632   */\n      0x00\n        /* \"#utility.yul\":659:661   */\n      0x40\n        /* \"#utility.yul\":653:662   */\n      mload\n        /* \"#utility.yul\":643:662   */\n      swap1\n      pop\n        /* \"#utility.yul\":593:668   */\n      swap1\n      jump\t// out\n        /* \"#utility.yul\":674:791   */\n    tag_166:\n        /* \"#utility.yul\":783:784   */\n      0x00\n        /* \"#utility.yul\":780:781   */\n      dup1\n        /* \"#utility.yul\":773:785   */\n      revert\n        /* \"#utility.yul\":797:914   */\n    tag_167:\n        /* \"#utility.yul\":906:907   */\n      0x00\n        /* \"#utility.yul\":903:904   */\n      dup1\n        /* \"#utility.yul\":896:908   */\n      revert\n        /* \"#utility.yul\":920:1037   */\n    tag_168:\n        /* \"#utility.yul\":1029:1030   */\n      0x00\n        /* \"#utility.yul\":1026:1027   */\n      dup1\n        /* \"#utility.yul\":1019:1031   */\n      revert\n        /* \"#utility.yul\":1043:1160   */\n    tag_169:\n        /* \"#utility.yul\":1152:1153   */\n      0x00\n        /* \"#utility.yul\":1149:1150   */\n      dup1\n        /* \"#utility.yul\":1142:1154   */\n      revert\n        /* \"#utility.yul\":1166:1268   */\n    tag_170:\n        /* \"#utility.yul\":1207:1213   */\n      0x00\n        /* \"#utility.yul\":1258:1260   */\n      0x1f\n        /* \"#utility.yul\":1254:1261   */\n      not\n        /* \"#utility.yul\":1249:1251   */\n      0x1f\n        /* \"#utility.yul\":1242:1247   */\n      dup4\n        /* \"#utility.yul\":1238:1252   */\n      add\n        /* \"#utility.yul\":1234:1262   */\n      and\n        /* \"#utility.yul\":1224:1262   */\n      swap1\n      pop\n        /* \"#utility.yul\":1166:1268   */\n      swap2\n      swap1\n      pop\n      jump\t// out\n        /* \"#utility.yul\":1274:1454   */\n    tag_171:\n        /* \"#utility.yul\":1322:1399   */\n      0x4e487b7100000000000000000000000000000000000000000000000000000000\n        /* \"#utility.yul\":1319:1320   */\n      0x00\n        /* \"#utility.yul\":1312:1400   */\n      mstore\n        /* \"#utility.yul\":1419:1423   */\n      0x41\n        /* \"#utility.yul\":1416:1417   */\n      0x04\n        /* \"#utility.yul\":1409:1424   */\n      mstore\n        /* \"#utility.yul\":1443:1447   */\n      0x24\n        /* \"#utility.yul\":1440:1441   */\n      0x00\n        /* \"#utility.yul\":1433:1448   */\n      revert\n        /* \"#utility.yul\":1460:1741   */\n    tag_172:\n        /* \"#utility.yul\":1543:1570   */\n      tag_241\n        /* \"#utility.yul\":1565:1569   */\n      dup3\n        /* \"#utility.yul\":1543:1570   */\n      tag_170\n      jump\t// in\n    tag_241:\n        /* \"#utility.yul\":1535:1541   */\n      dup2\n        /* \"#utility.yul\":1531:1571   */\n      add\n        /* \"#utility.yul\":1673:1679   */\n      dup2\n        /* \"#utility.yul\":1661:1671   */\n      dup2\n        /* \"#utility.yul\":1658:1680   */\n      lt\n        /* \"#utility.yul\":1637:1655   */\n      0xffffffffffffffff\n        /* \"#utility.yul\":1625:1635   */\n      dup3\n        /* \"#utility.yul\":1622:1656   */\n      gt\n        /* \"#utility.yul\":1619:1681   */\n      or\n        /* \"#utility.yul\":1616:1704   */\n      iszero\n      tag_242\n      jumpi\n        /* \"#utility.yul\":1684:1702   */\n      tag_243\n      tag_171\n      jump\t// in\n    tag_243:\n        /* \"#utility.yul\":1616:1704   */\n    tag_242:\n        /* \"#utility.yul\":1724:1734   */\n      dup1\n        /* \"#utility.yul\":1720:1722   */\n      0x40\n        /* \"#utility.yul\":1713:1735   */\n      mstore\n        /* \"#utility.yul\":1503:1741   */\n      pop\n        /* \"#utility.yul\":1460:1741   */\n      pop\n      pop\n      jump\t// out\n        /* \"#utility.yul\":1747:1876   */\n    tag_173:\n        /* \"#utility.yul\":1781:1787   */\n      0x00\n        /* \"#utility.yul\":1808:1828   */\n      tag_245\n      tag_165\n      jump\t// in\n    tag_245:\n        /* \"#utility.yul\":1798:1828   */\n      swap1\n      pop\n        /* \"#utility.yul\":1837:1870   */\n      tag_246\n        /* \"#utility.yul\":1865:1869   */\n      dup3\n        /* \"#utility.yul\":1857:1863   */\n      dup3\n        /* \"#utility.yul\":1837:1870   */\n      tag_172\n      jump\t// in\n    tag_246:\n        /* \"#utility.yul\":1747:1876   */\n      swap2\n      swap1\n      pop\n      jump\t// out\n        /* \"#utility.yul\":1882:2190   */\n    tag_174:\n        /* \"#utility.yul\":1944:1948   */\n      0x00\n        /* \"#utility.yul\":2034:2052   */\n      0xffffffffffffffff\n        /* \"#utility.yul\":2026:2032   */\n      dup3\n        /* \"#utility.yul\":2023:2053   */\n      gt\n        /* \"#utility.yul\":2020:2076   */\n      iszero\n      tag_248\n      jumpi\n        /* \"#utility.yul\":2056:2074   */\n      tag_249\n      tag_171\n      jump\t// in\n    tag_249:\n        /* \"#utility.yul\":2020:2076   */\n    tag_248:\n        /* \"#utility.yul\":2094:2123   */\n      tag_250\n        /* \"#utility.yul\":2116:2122   */\n      dup3\n        /* \"#utility.yul\":2094:2123   */\n      tag_170\n      jump\t// in\n    tag_250:\n        /* \"#utility.yul\":2086:2123   */\n      swap1\n      pop\n        /* \"#utility.yul\":2178:2182   */\n      0x20\n        /* \"#utility.yul\":2172:2176   */\n      dup2\n        /* \"#utility.yul\":2168:2183   */\n      add\n        /* \"#utility.yul\":2160:2183   */\n      swap1\n      pop\n        /* \"#utility.yul\":1882:2190   */\n      swap2\n      swap1\n      pop\n      jump\t// out\n        /* \"#utility.yul\":2196:2342   */\n    tag_175:\n        /* \"#utility.yul\":2293:2299   */\n      dup3\n        /* \"#utility.yul\":2288:2291   */\n      dup2\n        /* \"#utility.yul\":2283:2286   */\n      dup4\n        /* \"#utility.yul\":2270:2300   */\n      calldatacopy\n        /* \"#utility.yul\":2334:2335   */\n      0x00\n        /* \"#utility.yul\":2325:2331   */\n      dup4\n        /* \"#utility.yul\":2320:2323   */\n      dup4\n        /* \"#utility.yul\":2316:2332   */\n      add\n        /* \"#utility.yul\":2309:2336   */\n      mstore\n        /* \"#utility.yul\":2196:2342   */\n      pop\n      pop\n      pop\n      jump\t// out\n        /* \"#utility.yul\":2348:2773   */\n    tag_176:\n        /* \"#utility.yul\":2426:2431   */\n      0x00\n        /* \"#utility.yul\":2451:2517   */\n      tag_253\n        /* \"#utility.yul\":2467:2516   */\n      tag_254\n        /* \"#utility.yul\":2509:2515   */\n      dup5\n        /* \"#utility.yul\":2467:2516   */\n      tag_174\n      jump\t// in\n    tag_254:\n        /* \"#utility.yul\":2451:2517   */\n      tag_173\n      jump\t// in\n    tag_253:\n        /* \"#utility.yul\":2442:2517   */\n      swap1\n      pop\n        /* \"#utility.yul\":2540:2546   */\n      dup3\n        /* \"#utility.yul\":2533:2538   */\n      dup2\n        /* \"#utility.yul\":2526:2547   */\n      mstore\n        /* \"#utility.yul\":2578:2582   */\n      0x20\n        /* \"#utility.yul\":2571:2576   */\n      dup2\n        /* \"#utility.yul\":2567:2583   */\n      add\n        /* \"#utility.yul\":2616:2619   */\n      dup5\n        /* \"#utility.yul\":2607:2613   */\n      dup5\n        /* \"#utility.yul\":2602:2605   */\n      dup5\n        /* \"#utility.yul\":2598:2614   */\n      add\n        /* \"#utility.yul\":2595:2620   */\n      gt\n        /* \"#utility.yul\":2592:2704   */\n      iszero\n      tag_255\n      jumpi\n        /* \"#utility.yul\":2623:2702   */\n      tag_256\n      tag_169\n      jump\t// in\n    tag_256:\n        /* \"#utility.yul\":2592:2704   */\n    tag_255:\n        /* \"#utility.yul\":2713:2767   */\n      tag_257\n        /* \"#utility.yul\":2760:2766   */\n      dup5\n        /* \"#utility.yul\":2755:2758   */\n      dup3\n        /* \"#utility.yul\":2750:2753   */\n      dup6\n        /* \"#utility.yul\":2713:2767   */\n      tag_175\n      jump\t// in\n    tag_257:\n        /* \"#utility.yul\":2432:2773   */\n      pop\n        /* \"#utility.yul\":2348:2773   */\n      swap4\n      swap3\n      pop\n      pop\n      pop\n      jump\t// out\n        /* \"#utility.yul\":2793:3133   */\n    tag_177:\n        /* \"#utility.yul\":2849:2854   */\n      0x00\n        /* \"#utility.yul\":2898:2901   */\n      dup3\n        /* \"#utility.yul\":2891:2895   */\n      0x1f\n        /* \"#utility.yul\":2883:2889   */\n      dup4\n        /* \"#utility.yul\":2879:2896   */\n      add\n        /* \"#utility.yul\":2875:2902   */\n      slt\n        /* \"#utility.yul\":2865:2987   */\n      tag_259\n      jumpi\n        /* \"#utility.yul\":2906:2985   */\n      tag_260\n      tag_168\n      jump\t// in\n    tag_260:\n        /* \"#utility.yul\":2865:2987   */\n    tag_259:\n        /* \"#utility.yul\":3023:3029   */\n      dup2\n        /* \"#utility.yul\":3010:3030   */\n      calldataload\n        /* \"#utility.yul\":3048:3127   */\n      tag_261\n        /* \"#utility.yul\":3123:3126   */\n      dup5\n        /* \"#utility.yul\":3115:3121   */\n      dup3\n        /* \"#utility.yul\":3108:3112   */\n      0x20\n        /* \"#utility.yul\":3100:3106   */\n      dup7\n        /* \"#utility.yul\":3096:3113   */\n      add\n        /* \"#utility.yul\":3048:3127   */\n      tag_176\n      jump\t// in\n    tag_261:\n        /* \"#utility.yul\":3039:3127   */\n      swap2\n      pop\n        /* \"#utility.yul\":2855:3133   */\n      pop\n        /* \"#utility.yul\":2793:3133   */\n      swap3\n      swap2\n      pop\n      pop\n      jump\t// out\n        /* \"#utility.yul\":3139:3216   */\n    tag_178:\n        /* \"#utility.yul\":3176:3183   */\n      0x00\n        /* \"#utility.yul\":3205:3210   */\n      dup2\n        /* \"#utility.yul\":3194:3210   */\n      swap1\n      pop\n        /* \"#utility.yul\":3139:3216   */\n      swap2\n      swap1\n      pop\n      jump\t// out\n        /* \"#utility.yul\":3222:3344   */\n    tag_179:\n        /* \"#utility.yul\":3295:3319   */\n      tag_264\n        /* \"#utility.yul\":3313:3318   */\n      dup2\n        /* \"#utility.yul\":3295:3319   */\n      tag_178\n      jump\t// in\n    tag_264:\n        /* \"#utility.yul\":3288:3293   */\n      dup2\n        /* \"#utility.yul\":3285:3320   */\n      eq\n        /* \"#utility.yul\":3275:3338   */\n      tag_265\n      jumpi\n        /* \"#utility.yul\":3334:3335   */\n      0x00\n        /* \"#utility.yul\":3331:3332   */\n      dup1\n        /* \"#utility.yul\":3324:3336   */\n      revert\n        /* \"#utility.yul\":3275:3338   */\n    tag_265:\n        /* \"#utility.yul\":3222:3344   */\n      pop\n      jump\t// out\n        /* \"#utility.yul\":3350:3489   */\n    tag_180:\n        /* \"#utility.yul\":3396:3401   */\n      0x00\n        /* \"#utility.yul\":3434:3440   */\n      dup2\n        /* \"#utility.yul\":3421:3441   */\n      calldataload\n        /* \"#utility.yul\":3412:3441   */\n      swap1\n      pop\n        /* \"#utility.yul\":3450:3483   */\n      tag_267\n        /* \"#utility.yul\":3477:3482   */\n      dup2\n        /* \"#utility.yul\":3450:3483   */\n      tag_179\n      jump\t// in\n    tag_267:\n        /* \"#utility.yul\":3350:3489   */\n      swap3\n      swap2\n      pop\n      pop\n      jump\t// out\n        /* \"#utility.yul\":3495:4294   */\n    tag_27:\n        /* \"#utility.yul\":3582:3588   */\n      0x00\n        /* \"#utility.yul\":3590:3596   */\n      dup1\n        /* \"#utility.yul\":3598:3604   */\n      0x00\n        /* \"#utility.yul\":3647:3649   */\n      0x60\n        /* \"#utility.yul\":3635:3644   */\n      dup5\n        /* \"#utility.yul\":3626:3633   */\n      dup7\n        /* \"#utility.yul\":3622:3645   */\n      sub\n        /* \"#utility.yul\":3618:3650   */\n      slt\n        /* \"#utility.yul\":3615:3734   */\n      iszero\n      tag_269\n      jumpi\n        /* \"#utility.yul\":3653:3732   */\n      tag_270\n      tag_166\n      jump\t// in\n    tag_270:\n        /* \"#utility.yul\":3615:3734   */\n    tag_269:\n        /* \"#utility.yul\":3801:3802   */\n      0x00\n        /* \"#utility.yul\":3790:3799   */\n      dup5\n        /* \"#utility.yul\":3786:3803   */\n      add\n        /* \"#utility.yul\":3773:3804   */\n      calldataload\n        /* \"#utility.yul\":3831:3849   */\n      0xffffffffffffffff\n        /* \"#utility.yul\":3823:3829   */\n      dup2\n        /* \"#utility.yul\":3820:3850   */\n      gt\n        /* \"#utility.yul\":3817:3934   */\n      iszero\n      tag_271\n      jumpi\n        /* \"#utility.yul\":3853:3932   */\n      tag_272\n      tag_167\n      jump\t// in\n    tag_272:\n        /* \"#utility.yul\":3817:3934   */\n    tag_271:\n        /* \"#utility.yul\":3958:4021   */\n      tag_273\n        /* \"#utility.yul\":4013:4020   */\n      dup7\n        /* \"#utility.yul\":4004:4010   */\n      dup3\n        /* \"#utility.yul\":3993:4002   */\n      dup8\n        /* \"#utility.yul\":3989:4011   */\n      add\n        /* \"#utility.yul\":3958:4021   */\n      tag_177\n      jump\t// in\n    tag_273:\n        /* \"#utility.yul\":3948:4021   */\n      swap4\n      pop\n        /* \"#utility.yul\":3744:4031   */\n      pop\n        /* \"#utility.yul\":4070:4072   */\n      0x20\n        /* \"#utility.yul\":4096:4149   */\n      tag_274\n        /* \"#utility.yul\":4141:4148   */\n      dup7\n        /* \"#utility.yul\":4132:4138   */\n      dup3\n        /* \"#utility.yul\":4121:4130   */\n      dup8\n        /* \"#utility.yul\":4117:4139   */\n      add\n        /* \"#utility.yul\":4096:4149   */\n      tag_180\n      jump\t// in\n    tag_274:\n        /* \"#utility.yul\":4086:4149   */\n      swap3\n      pop\n        /* \"#utility.yul\":4041:4159   */\n      pop\n        /* \"#utility.yul\":4198:4200   */\n      0x40\n        /* \"#utility.yul\":4224:4277   */\n      tag_275\n        /* \"#utility.yul\":4269:4276   */\n      dup7\n        /* \"#utility.yul\":4260:4266   */\n      dup3\n        /* \"#utility.yul\":4249:4258   */\n      dup8\n        /* \"#utility.yul\":4245:4267   */\n      add\n        /* \"#utility.yul\":4224:4277   */\n      tag_180\n      jump\t// in\n    tag_275:\n        /* \"#utility.yul\":4214:4277   */\n      swap2\n      pop\n        /* \"#utility.yul\":4169:4287   */\n      pop\n        /* \"#utility.yul\":3495:4294   */\n      swap3\n      pop\n      swap3\n      pop\n      swap3\n      jump\t// out\n        /* \"#utility.yul\":4300:4629   */\n    tag_31:\n        /* \"#utility.yul\":4359:4365   */\n      0x00\n        /* \"#utility.yul\":4408:4410   */\n      0x20\n        /* \"#utility.yul\":4396:4405   */\n      dup3\n        /* \"#utility.yul\":4387:4394   */\n      dup5\n        /* \"#utility.yul\":4383:4406   */\n      sub\n        /* \"#utility.yul\":4379:4411   */\n      slt\n        /* \"#utility.yul\":4376:4495   */\n      iszero\n      tag_277\n      jumpi\n        /* \"#utility.yul\":4414:4493   */\n      tag_278\n      tag_166\n      jump\t// in\n    tag_278:\n        /* \"#utility.yul\":4376:4495   */\n    tag_277:\n        /* \"#utility.yul\":4534:4535   */\n      0x00\n        /* \"#utility.yul\":4559:4612   */\n      tag_279\n        /* \"#utility.yul\":4604:4611   */\n      dup5\n        /* \"#utility.yul\":4595:4601   */\n      dup3\n        /* \"#utility.yul\":4584:4593   */\n      dup6\n        /* \"#utility.yul\":4580:4602   */\n      add\n        /* \"#utility.yul\":4559:4612   */\n      tag_180\n      jump\t// in\n    tag_279:\n        /* \"#utility.yul\":4549:4612   */\n      swap2\n      pop\n        /* \"#utility.yul\":4505:4622   */\n      pop\n        /* \"#utility.yul\":4300:4629   */\n      swap3\n      swap2\n      pop\n      pop\n      jump\t// out\n        /* \"#utility.yul\":4635:4757   */\n    tag_181:\n        /* \"#utility.yul\":4708:4732   */\n      tag_281\n        /* \"#utility.yul\":4726:4731   */\n      dup2\n        /* \"#utility.yul\":4708:4732   */\n      tag_163\n      jump\t// in\n    tag_281:\n        /* \"#utility.yul\":4701:4706   */\n      dup2\n        /* \"#utility.yul\":4698:4733   */\n      eq\n        /* \"#utility.yul\":4688:4751   */\n      tag_282\n      jumpi\n        /* \"#utility.yul\":4747:4748   */\n      0x00\n        /* \"#utility.yul\":4744:4745   */\n      dup1\n        /* \"#utility.yul\":4737:4749   */\n      revert\n        /* \"#utility.yul\":4688:4751   */\n    tag_282:\n        /* \"#utility.yul\":4635:4757   */\n      pop\n      jump\t// out\n        /* \"#utility.yul\":4763:4902   */\n    tag_182:\n        /* \"#utility.yul\":4809:4814   */\n      0x00\n        /* \"#utility.yul\":4847:4853   */\n      dup2\n        /* \"#utility.yul\":4834:4854   */\n      calldataload\n        /* \"#utility.yul\":4825:4854   */\n      swap1\n      pop\n        /* \"#utility.yul\":4863:4896   */\n      tag_284\n        /* \"#utility.yul\":4890:4895   */\n      dup2\n        /* \"#utility.yul\":4863:4896   */\n      tag_181\n      jump\t// in\n    tag_284:\n        /* \"#utility.yul\":4763:4902   */\n      swap3\n      swap2\n      pop\n      pop\n      jump\t// out\n        /* \"#utility.yul\":4908:5237   */\n    tag_35:\n        /* \"#utility.yul\":4967:4973   */\n      0x00\n        /* \"#utility.yul\":5016:5018   */\n      0x20\n        /* \"#utility.yul\":5004:5013   */\n      dup3\n        /* \"#utility.yul\":4995:5002   */\n      dup5\n        /* \"#utility.yul\":4991:5014   */\n      sub\n        /* \"#utility.yul\":4987:5019   */\n      slt\n        /* \"#utility.yul\":4984:5103   */\n      iszero\n      tag_286\n      jumpi\n        /* \"#utility.yul\":5022:5101   */\n      tag_287\n      tag_166\n      jump\t// in\n    tag_287:\n        /* \"#utility.yul\":4984:5103   */\n    tag_286:\n        /* \"#utility.yul\":5142:5143   */\n      0x00\n        /* \"#utility.yul\":5167:5220   */\n      tag_288\n        /* \"#utility.yul\":5212:5219   */\n      dup5\n        /* \"#utility.yul\":5203:5209   */\n      dup3\n        /* \"#utility.yul\":5192:5201   */\n      dup6\n        /* \"#utility.yul\":5188:5210   */\n      add\n        /* \"#utility.yul\":5167:5220   */\n      tag_182\n      jump\t// in\n    tag_288:\n        /* \"#utility.yul\":5157:5220   */\n      swap2\n      pop\n        /* \"#utility.yul\":5113:5230   */\n      pop\n        /* \"#utility.yul\":4908:5237   */\n      swap3\n      swap2\n      pop\n      pop\n      jump\t// out\n        /* \"#utility.yul\":5243:5361   */\n    tag_183:\n        /* \"#utility.yul\":5330:5354   */\n      tag_290\n        /* \"#utility.yul\":5348:5353   */\n      dup2\n        /* \"#utility.yul\":5330:5354   */\n      tag_178\n      jump\t// in\n    tag_290:\n        /* \"#utility.yul\":5325:5328   */\n      dup3\n        /* \"#utility.yul\":5318:5355   */\n      mstore\n        /* \"#utility.yul\":5243:5361   */\n      pop\n      pop\n      jump\t// out\n        /* \"#utility.yul\":5367:5589   */\n    tag_40:\n        /* \"#utility.yul\":5460:5464   */\n      0x00\n        /* \"#utility.yul\":5498:5500   */\n      0x20\n        /* \"#utility.yul\":5487:5496   */\n      dup3\n        /* \"#utility.yul\":5483:5501   */\n      add\n        /* \"#utility.yul\":5475:5501   */\n      swap1\n      pop\n        /* \"#utility.yul\":5511:5582   */\n      tag_292\n        /* \"#utility.yul\":5579:5580   */\n      0x00\n        /* \"#utility.yul\":5568:5577   */\n      dup4\n        /* \"#utility.yul\":5564:5581   */\n      add\n        /* \"#utility.yul\":5555:5561   */\n      dup5\n        /* \"#utility.yul\":5511:5582   */\n      tag_183\n      jump\t// in\n    tag_292:\n        /* \"#utility.yul\":5367:5589   */\n      swap3\n      swap2\n      pop\n      pop\n      jump\t// out\n        /* \"#utility.yul\":5595:5694   */\n    tag_184:\n        /* \"#utility.yul\":5647:5653   */\n      0x00\n        /* \"#utility.yul\":5681:5686   */\n      dup2\n        /* \"#utility.yul\":5675:5687   */\n      mload\n        /* \"#utility.yul\":5665:5687   */\n      swap1\n      pop\n        /* \"#utility.yul\":5595:5694   */\n      swap2\n      swap1\n      pop\n      jump\t// out\n        /* \"#utility.yul\":5700:5869   */\n    tag_185:\n        /* \"#utility.yul\":5784:5795   */\n      0x00\n        /* \"#utility.yul\":5818:5824   */\n      dup3\n        /* \"#utility.yul\":5813:5816   */\n      dup3\n        /* \"#utility.yul\":5806:5825   */\n      mstore\n        /* \"#utility.yul\":5858:5862   */\n      0x20\n        /* \"#utility.yul\":5853:5856   */\n      dup3\n        /* \"#utility.yul\":5849:5863   */\n      add\n        /* \"#utility.yul\":5834:5863   */\n      swap1\n      pop\n        /* \"#utility.yul\":5700:5869   */\n      swap3\n      swap2\n      pop\n      pop\n      jump\t// out\n        /* \"#utility.yul\":5875:6121   */\n    tag_186:\n        /* \"#utility.yul\":5956:5957   */\n      0x00\n        /* \"#utility.yul\":5966:6079   */\n    tag_296:\n        /* \"#utility.yul\":5980:5986   */\n      dup4\n        /* \"#utility.yul\":5977:5978   */\n      dup2\n        /* \"#utility.yul\":5974:5987   */\n      lt\n        /* \"#utility.yul\":5966:6079   */\n      iszero\n      tag_298\n      jumpi\n        /* \"#utility.yul\":6065:6066   */\n      dup1\n        /* \"#utility.yul\":6060:6063   */\n      dup3\n        /* \"#utility.yul\":6056:6067   */\n      add\n        /* \"#utility.yul\":6050:6068   */\n      mload\n        /* \"#utility.yul\":6046:6047   */\n      dup2\n        /* \"#utility.yul\":6041:6044   */\n      dup5\n        /* \"#utility.yul\":6037:6048   */\n      add\n        /* \"#utility.yul\":6030:6069   */\n      mstore\n        /* \"#utility.yul\":6002:6004   */\n      0x20\n        /* \"#utility.yul\":5999:6000   */\n      dup2\n        /* \"#utility.yul\":5995:6005   */\n      add\n        /* \"#utility.yul\":5990:6005   */\n      swap1\n      pop\n        /* \"#utility.yul\":5966:6079   */\n      jump(tag_296)\n    tag_298:\n        /* \"#utility.yul\":6113:6114   */\n      0x00\n        /* \"#utility.yul\":6104:6110   */\n      dup5\n        /* \"#utility.yul\":6099:6102   */\n      dup5\n        /* \"#utility.yul\":6095:6111   */\n      add\n        /* \"#utility.yul\":6088:6115   */\n      mstore\n        /* \"#utility.yul\":5937:6121   */\n      pop\n        /* \"#utility.yul\":5875:6121   */\n      pop\n      pop\n      pop\n      jump\t// out\n        /* \"#utility.yul\":6127:6504   */\n    tag_187:\n        /* \"#utility.yul\":6215:6218   */\n      0x00\n        /* \"#utility.yul\":6243:6282   */\n      tag_300\n        /* \"#utility.yul\":6276:6281   */\n      dup3\n        /* \"#utility.yul\":6243:6282   */\n      tag_184\n      jump\t// in\n    tag_300:\n        /* \"#utility.yul\":6298:6369   */\n      tag_301\n        /* \"#utility.yul\":6362:6368   */\n      dup2\n        /* \"#utility.yul\":6357:6360   */\n      dup6\n        /* \"#utility.yul\":6298:6369   */\n      tag_185\n      jump\t// in\n    tag_301:\n        /* \"#utility.yul\":6291:6369   */\n      swap4\n      pop\n        /* \"#utility.yul\":6378:6443   */\n      tag_302\n        /* \"#utility.yul\":6436:6442   */\n      dup2\n        /* \"#utility.yul\":6431:6434   */\n      dup6\n        /* \"#utility.yul\":6424:6428   */\n      0x20\n        /* \"#utility.yul\":6417:6422   */\n      dup7\n        /* \"#utility.yul\":6413:6429   */\n      add\n        /* \"#utility.yul\":6378:6443   */\n      tag_186\n      jump\t// in\n    tag_302:\n        /* \"#utility.yul\":6468:6497   */\n      tag_303\n        /* \"#utility.yul\":6490:6496   */\n      dup2\n        /* \"#utility.yul\":6468:6497   */\n      tag_170\n      jump\t// in\n    tag_303:\n        /* \"#utility.yul\":6463:6466   */\n      dup5\n        /* \"#utility.yul\":6459:6498   */\n      add\n        /* \"#utility.yul\":6452:6498   */\n      swap2\n      pop\n        /* \"#utility.yul\":6219:6504   */\n      pop\n        /* \"#utility.yul\":6127:6504   */\n      swap3\n      swap2\n      pop\n      pop\n      jump\t// out\n        /* \"#utility.yul\":6510:7154   */\n    tag_51:\n        /* \"#utility.yul\":6707:6711   */\n      0x00\n        /* \"#utility.yul\":6745:6748   */\n      0x80\n        /* \"#utility.yul\":6734:6743   */\n      dup3\n        /* \"#utility.yul\":6730:6749   */\n      add\n        /* \"#utility.yul\":6722:6749   */\n      swap1\n      pop\n        /* \"#utility.yul\":6759:6830   */\n      tag_305\n        /* \"#utility.yul\":6827:6828   */\n      0x00\n        /* \"#utility.yul\":6816:6825   */\n      dup4\n        /* \"#utility.yul\":6812:6829   */\n      add\n        /* \"#utility.yul\":6803:6809   */\n      dup8\n        /* \"#utility.yul\":6759:6830   */\n      tag_183\n      jump\t// in\n    tag_305:\n        /* \"#utility.yul\":6877:6886   */\n      dup2\n        /* \"#utility.yul\":6871:6875   */\n      dup2\n        /* \"#utility.yul\":6867:6887   */\n      sub\n        /* \"#utility.yul\":6862:6864   */\n      0x20\n        /* \"#utility.yul\":6851:6860   */\n      dup4\n        /* \"#utility.yul\":6847:6865   */\n      add\n        /* \"#utility.yul\":6840:6888   */\n      mstore\n        /* \"#utility.yul\":6905:6983   */\n      tag_306\n        /* \"#utility.yul\":6978:6982   */\n      dup2\n        /* \"#utility.yul\":6969:6975   */\n      dup7\n        /* \"#utility.yul\":6905:6983   */\n      tag_187\n      jump\t// in\n    tag_306:\n        /* \"#utility.yul\":6897:6983   */\n      swap1\n      pop\n        /* \"#utility.yul\":6993:7065   */\n      tag_307\n        /* \"#utility.yul\":7061:7063   */\n      0x40\n        /* \"#utility.yul\":7050:7059   */\n      dup4\n        /* \"#utility.yul\":7046:7064   */\n      add\n        /* \"#utility.yul\":7037:7043   */\n      dup6\n        /* \"#utility.yul\":6993:7065   */\n      tag_183\n      jump\t// in\n    tag_307:\n        /* \"#utility.yul\":7075:7147   */\n      tag_308\n        /* \"#utility.yul\":7143:7145   */\n      0x60\n        /* \"#utility.yul\":7132:7141   */\n      dup4\n        /* \"#utility.yul\":7128:7146   */\n      add\n        /* \"#utility.yul\":7119:7125   */\n      dup5\n        /* \"#utility.yul\":7075:7147   */\n      tag_183\n      jump\t// in\n    tag_308:\n        /* \"#utility.yul\":6510:7154   */\n      swap6\n      swap5\n      pop\n      pop\n      pop\n      pop\n      pop\n      jump\t// out\n        /* \"#utility.yul\":7160:7634   */\n    tag_54:\n        /* \"#utility.yul\":7228:7234   */\n      0x00\n        /* \"#utility.yul\":7236:7242   */\n      dup1\n        /* \"#utility.yul\":7285:7287   */\n      0x40\n        /* \"#utility.yul\":7273:7282   */\n      dup4\n        /* \"#utility.yul\":7264:7271   */\n      dup6\n        /* \"#utility.yul\":7260:7283   */\n      sub\n        /* \"#utility.yul\":7256:7288   */\n      slt\n        /* \"#utility.yul\":7253:7372   */\n      iszero\n      tag_310\n      jumpi\n        /* \"#utility.yul\":7291:7370   */\n      tag_311\n      tag_166\n      jump\t// in\n    tag_311:\n        /* \"#utility.yul\":7253:7372   */\n    tag_310:\n        /* \"#utility.yul\":7411:7412   */\n      0x00\n        /* \"#utility.yul\":7436:7489   */\n      tag_312\n        /* \"#utility.yul\":7481:7488   */\n      dup6\n        /* \"#utility.yul\":7472:7478   */\n      dup3\n        /* \"#utility.yul\":7461:7470   */\n      dup7\n        /* \"#utility.yul\":7457:7479   */\n      add\n        /* \"#utility.yul\":7436:7489   */\n      tag_180\n      jump\t// in\n    tag_312:\n        /* \"#utility.yul\":7426:7489   */\n      swap3\n      pop\n        /* \"#utility.yul\":7382:7499   */\n      pop\n        /* \"#utility.yul\":7538:7540   */\n      0x20\n        /* \"#utility.yul\":7564:7617   */\n      tag_313\n        /* \"#utility.yul\":7609:7616   */\n      dup6\n        /* \"#utility.yul\":7600:7606   */\n      dup3\n        /* \"#utility.yul\":7589:7598   */\n      dup7\n        /* \"#utility.yul\":7585:7607   */\n      add\n        /* \"#utility.yul\":7564:7617   */\n      tag_180\n      jump\t// in\n    tag_313:\n        /* \"#utility.yul\":7554:7617   */\n      swap2\n      pop\n        /* \"#utility.yul\":7509:7627   */\n      pop\n        /* \"#utility.yul\":7160:7634   */\n      swap3\n      pop\n      swap3\n      swap1\n      pop\n      jump\t// out\n        /* \"#utility.yul\":7640:7820   */\n    tag_96:\n        /* \"#utility.yul\":7688:7765   */\n      0x4e487b7100000000000000000000000000000000000000000000000000000000\n        /* \"#utility.yul\":7685:7686   */\n      0x00\n        /* \"#utility.yul\":7678:7766   */\n      mstore\n        /* \"#utility.yul\":7785:7789   */\n      0x21\n        /* \"#utility.yul\":7782:7783   */\n      0x04\n        /* \"#utility.yul\":7775:7790   */\n      mstore\n        /* \"#utility.yul\":7809:7813   */\n      0x24\n        /* \"#utility.yul\":7806:7807   */\n      0x00\n        /* \"#utility.yul\":7799:7814   */\n      revert\n        /* \"#utility.yul\":7826:7945   */\n    tag_188:\n        /* \"#utility.yul\":7913:7914   */\n      0x03\n        /* \"#utility.yul\":7906:7911   */\n      dup2\n        /* \"#utility.yul\":7903:7915   */\n      lt\n        /* \"#utility.yul\":7893:7939   */\n      tag_316\n      jumpi\n        /* \"#utility.yul\":7919:7937   */\n      tag_317\n      tag_96\n      jump\t// in\n    tag_317:\n        /* \"#utility.yul\":7893:7939   */\n    tag_316:\n        /* \"#utility.yul\":7826:7945   */\n      pop\n      jump\t// out\n        /* \"#utility.yul\":7951:8090   */\n    tag_189:\n        /* \"#utility.yul\":8002:8009   */\n      0x00\n        /* \"#utility.yul\":8031:8036   */\n      dup2\n        /* \"#utility.yul\":8020:8036   */\n      swap1\n      pop\n        /* \"#utility.yul\":8037:8084   */\n      tag_319\n        /* \"#utility.yul\":8078:8083   */\n      dup3\n        /* \"#utility.yul\":8037:8084   */\n      tag_188\n      jump\t// in\n    tag_319:\n        /* \"#utility.yul\":7951:8090   */\n      swap2\n      swap1\n      pop\n      jump\t// out\n        /* \"#utility.yul\":8096:8235   */\n    tag_190:\n        /* \"#utility.yul\":8158:8167   */\n      0x00\n        /* \"#utility.yul\":8191:8229   */\n      tag_321\n        /* \"#utility.yul\":8223:8228   */\n      dup3\n        /* \"#utility.yul\":8191:8229   */\n      tag_189\n      jump\t// in\n    tag_321:\n        /* \"#utility.yul\":8178:8229   */\n      swap1\n      pop\n        /* \"#utility.yul\":8096:8235   */\n      swap2\n      swap1\n      pop\n      jump\t// out\n        /* \"#utility.yul\":8241:8396   */\n    tag_191:\n        /* \"#utility.yul\":8340:8389   */\n      tag_323\n        /* \"#utility.yul\":8383:8388   */\n      dup2\n        /* \"#utility.yul\":8340:8389   */\n      tag_190\n      jump\t// in\n    tag_323:\n        /* \"#utility.yul\":8335:8338   */\n      dup3\n        /* \"#utility.yul\":8328:8390   */\n      mstore\n        /* \"#utility.yul\":8241:8396   */\n      pop\n      pop\n      jump\t// out\n        /* \"#utility.yul\":8402:9090   */\n    tag_66:\n        /* \"#utility.yul\":8619:8623   */\n      0x00\n        /* \"#utility.yul\":8657:8660   */\n      0xa0\n        /* \"#utility.yul\":8646:8655   */\n      dup3\n        /* \"#utility.yul\":8642:8661   */\n      add\n        /* \"#utility.yul\":8634:8661   */\n      swap1\n      pop\n        /* \"#utility.yul\":8671:8742   */\n      tag_325\n        /* \"#utility.yul\":8739:8740   */\n      0x00\n        /* \"#utility.yul\":8728:8737   */\n      dup4\n        /* \"#utility.yul\":8724:8741   */\n      add\n        /* \"#utility.yul\":8715:8721   */\n      dup9\n        /* \"#utility.yul\":8671:8742   */\n      tag_183\n      jump\t// in\n    tag_325:\n        /* \"#utility.yul\":8752:8824   */\n      tag_326\n        /* \"#utility.yul\":8820:8822   */\n      0x20\n        /* \"#utility.yul\":8809:8818   */\n      dup4\n        /* \"#utility.yul\":8805:8823   */\n      add\n        /* \"#utility.yul\":8796:8802   */\n      dup8\n        /* \"#utility.yul\":8752:8824   */\n      tag_164\n      jump\t// in\n    tag_326:\n        /* \"#utility.yul\":8834:8906   */\n      tag_327\n        /* \"#utility.yul\":8902:8904   */\n      0x40\n        /* \"#utility.yul\":8891:8900   */\n      dup4\n        /* \"#utility.yul\":8887:8905   */\n      add\n        /* \"#utility.yul\":8878:8884   */\n      dup7\n        /* \"#utility.yul\":8834:8906   */\n      tag_183\n      jump\t// in\n    tag_327:\n        /* \"#utility.yul\":8916:8988   */\n      tag_328\n        /* \"#utility.yul\":8984:8986   */\n      0x60\n        /* \"#utility.yul\":8973:8982   */\n      dup4\n        /* \"#utility.yul\":8969:8987   */\n      add\n        /* \"#utility.yul\":8960:8966   */\n      dup6\n        /* \"#utility.yul\":8916:8988   */\n      tag_183\n      jump\t// in\n    tag_328:\n        /* \"#utility.yul\":8998:9083   */\n      tag_329\n        /* \"#utility.yul\":9078:9081   */\n      0x80\n        /* \"#utility.yul\":9067:9076   */\n      dup4\n        /* \"#utility.yul\":9063:9082   */\n      add\n        /* \"#utility.yul\":9054:9060   */\n      dup5\n        /* \"#utility.yul\":8998:9083   */\n      tag_191\n      jump\t// in\n    tag_329:\n        /* \"#utility.yul\":8402:9090   */\n      swap7\n      swap6\n      pop\n      pop\n      pop\n      pop\n      pop\n      pop\n      jump\t// out\n        /* \"#utility.yul\":9096:9327   */\n    tag_192:\n        /* \"#utility.yul\":9236:9270   */\n      0x4f6e6c7920746865206d616e7566616374757265722063616e2063616c6c2074\n        /* \"#utility.yul\":9232:9233   */\n      0x00\n        /* \"#utility.yul\":9224:9230   */\n      dup3\n        /* \"#utility.yul\":9220:9234   */\n      add\n        /* \"#utility.yul\":9213:9271   */\n      mstore\n        /* \"#utility.yul\":9305:9319   */\n      0x6869732066756e6374696f6e0000000000000000000000000000000000000000\n        /* \"#utility.yul\":9300:9302   */\n      0x20\n        /* \"#utility.yul\":9292:9298   */\n      dup3\n        /* \"#utility.yul\":9288:9303   */\n      add\n        /* \"#utility.yul\":9281:9320   */\n      mstore\n        /* \"#utility.yul\":9096:9327   */\n      pop\n      jump\t// out\n        /* \"#utility.yul\":9333:9699   */\n    tag_193:\n        /* \"#utility.yul\":9475:9478   */\n      0x00\n        /* \"#utility.yul\":9496:9563   */\n      tag_332\n        /* \"#utility.yul\":9560:9562   */\n      0x2c\n        /* \"#utility.yul\":9555:9558   */\n      dup4\n        /* \"#utility.yul\":9496:9563   */\n      tag_185\n      jump\t// in\n    tag_332:\n        /* \"#utility.yul\":9489:9563   */\n      swap2\n      pop\n        /* \"#utility.yul\":9572:9665   */\n      tag_333\n        /* \"#utility.yul\":9661:9664   */\n      dup3\n        /* \"#utility.yul\":9572:9665   */\n      tag_192\n      jump\t// in\n    tag_333:\n        /* \"#utility.yul\":9690:9692   */\n      0x40\n        /* \"#utility.yul\":9685:9688   */\n      dup3\n        /* \"#utility.yul\":9681:9693   */\n      add\n        /* \"#utility.yul\":9674:9693   */\n      swap1\n      pop\n        /* \"#utility.yul\":9333:9699   */\n      swap2\n      swap1\n      pop\n      jump\t// out\n        /* \"#utility.yul\":9705:10124   */\n    tag_79:\n        /* \"#utility.yul\":9871:9875   */\n      0x00\n        /* \"#utility.yul\":9909:9911   */\n      0x20\n        /* \"#utility.yul\":9898:9907   */\n      dup3\n        /* \"#utility.yul\":9894:9912   */\n      add\n        /* \"#utility.yul\":9886:9912   */\n      swap1\n      pop\n        /* \"#utility.yul\":9958:9967   */\n      dup2\n        /* \"#utility.yul\":9952:9956   */\n      dup2\n        /* \"#utility.yul\":9948:9968   */\n      sub\n        /* \"#utility.yul\":9944:9945   */\n      0x00\n        /* \"#utility.yul\":9933:9942   */\n      dup4\n        /* \"#utility.yul\":9929:9946   */\n      add\n        /* \"#utility.yul\":9922:9969   */\n      mstore\n        /* \"#utility.yul\":9986:10117   */\n      tag_335\n        /* \"#utility.yul\":10112:10116   */\n      dup2\n        /* \"#utility.yul\":9986:10117   */\n      tag_193\n      jump\t// in\n    tag_335:\n        /* \"#utility.yul\":9978:10117   */\n      swap1\n      pop\n        /* \"#utility.yul\":9705:10124   */\n      swap2\n      swap1\n      pop\n      jump\t// out\n        /* \"#utility.yul\":10130:10310   */\n    tag_194:\n        /* \"#utility.yul\":10178:10255   */\n      0x4e487b7100000000000000000000000000000000000000000000000000000000\n        /* \"#utility.yul\":10175:10176   */\n      0x00\n        /* \"#utility.yul\":10168:10256   */\n      mstore\n        /* \"#utility.yul\":10275:10279   */\n      0x11\n        /* \"#utility.yul\":10272:10273   */\n      0x04\n        /* \"#utility.yul\":10265:10280   */\n      mstore\n        /* \"#utility.yul\":10299:10303   */\n      0x24\n        /* \"#utility.yul\":10296:10297   */\n      0x00\n        /* \"#utility.yul\":10289:10304   */\n      revert\n        /* \"#utility.yul\":10316:10549   */\n    tag_82:\n        /* \"#utility.yul\":10355:10358   */\n      0x00\n        /* \"#utility.yul\":10378:10402   */\n      tag_338\n        /* \"#utility.yul\":10396:10401   */\n      dup3\n        /* \"#utility.yul\":10378:10402   */\n      tag_178\n      jump\t// in\n    tag_338:\n        /* \"#utility.yul\":10369:10402   */\n      swap2\n      pop\n        /* \"#utility.yul\":10424:10490   */\n      0xffffffffffffffffffffffffffffffffffffffffffffffffffffffffffffffff\n        /* \"#utility.yul\":10417:10422   */\n      dup3\n        /* \"#utility.yul\":10414:10491   */\n      sub\n        /* \"#utility.yul\":10411:10514   */\n      tag_339\n      jumpi\n        /* \"#utility.yul\":10494:10512   */\n      tag_340\n      tag_194\n      jump\t// in\n    tag_340:\n        /* \"#utility.yul\":10411:10514   */\n    tag_339:\n        /* \"#utility.yul\":10541:10542   */\n      0x01\n        /* \"#utility.yul\":10534:10539   */\n      dup3\n        /* \"#utility.yul\":10530:10543   */\n      add\n        /* \"#utility.yul\":10523:10543   */\n      swap1\n      pop\n        /* \"#utility.yul\":10316:10549   */\n      swap2\n      swap1\n      pop\n      jump\t// out\n        /* \"#utility.yul\":10555:10735   */\n    tag_195:\n        /* \"#utility.yul\":10603:10680   */\n      0x4e487b7100000000000000000000000000000000000000000000000000000000\n        /* \"#utility.yul\":10600:10601   */\n      0x00\n        /* \"#utility.yul\":10593:10681   */\n      mstore\n        /* \"#utility.yul\":10700:10704   */\n      0x22\n        /* \"#utility.yul\":10697:10698   */\n      0x04\n        /* \"#utility.yul\":10690:10705   */\n      mstore\n        /* \"#utility.yul\":10724:10728   */\n      0x24\n        /* \"#utility.yul\":10721:10722   */\n      0x00\n        /* \"#utility.yul\":10714:10729   */\n      revert\n        /* \"#utility.yul\":10741:11061   */\n    tag_111:\n        /* \"#utility.yul\":10785:10791   */\n      0x00\n        /* \"#utility.yul\":10822:10823   */\n      0x02\n        /* \"#utility.yul\":10816:10820   */\n      dup3\n        /* \"#utility.yul\":10812:10824   */\n      div\n        /* \"#utility.yul\":10802:10824   */\n      swap1\n      pop\n        /* \"#utility.yul\":10869:10870   */\n      0x01\n        /* \"#utility.yul\":10863:10867   */\n      dup3\n        /* \"#utility.yul\":10859:10871   */\n      and\n        /* \"#utility.yul\":10890:10908   */\n      dup1\n        /* \"#utility.yul\":10880:10961   */\n      tag_343\n      jumpi\n        /* \"#utility.yul\":10946:10950   */\n      0x7f\n        /* \"#utility.yul\":10938:10944   */\n      dup3\n        /* \"#utility.yul\":10934:10951   */\n      and\n        /* \"#utility.yul\":10924:10951   */\n      swap2\n      pop\n        /* \"#utility.yul\":10880:10961   */\n    tag_343:\n        /* \"#utility.yul\":11008:11010   */\n      0x20\n        /* \"#utility.yul\":11000:11006   */\n      dup3\n        /* \"#utility.yul\":10997:11011   */\n      lt\n        /* \"#utility.yul\":10977:10995   */\n      dup2\n        /* \"#utility.yul\":10974:11012   */\n      sub\n        /* \"#utility.yul\":10971:11055   */\n      tag_344\n      jumpi\n        /* \"#utility.yul\":11027:11045   */\n      tag_345\n      tag_195\n      jump\t// in\n    tag_345:\n        /* \"#utility.yul\":10971:11055   */\n    tag_344:\n        /* \"#utility.yul\":10792:11061   */\n      pop\n        /* \"#utility.yul\":10741:11061   */\n      swap2\n      swap1\n      pop\n      jump\t// out\n        /* \"#utility.yul\":11067:11208   */\n    tag_196:\n        /* \"#utility.yul\":11116:11120   */\n      0x00\n        /* \"#utility.yul\":11139:11142   */\n      dup2\n        /* \"#utility.yul\":11131:11142   */\n      swap1\n      pop\n        /* \"#utility.yul\":11162:11165   */\n      dup2\n        /* \"#utility.yul\":11159:11160   */\n      0x00\n        /* \"#utility.yul\":11152:11166   */\n      mstore\n        /* \"#utility.yul\":11196:11200   */\n      0x20\n        /* \"#utility.yul\":11193:11194   */\n      0x00\n        /* \"#utility.yul\":11183:11201   */\n      keccak256\n        /* \"#utility.yul\":11175:11201   */\n      swap1\n      pop\n        /* \"#utility.yul\":11067:11208   */\n      swap2\n      swap1\n      pop\n      jump\t// out\n        /* \"#utility.yul\":11214:11307   */\n    tag_197:\n        /* \"#utility.yul\":11251:11257   */\n      0x00\n        /* \"#utility.yul\":11298:11300   */\n      0x20\n        /* \"#utility.yul\":11293:11295   */\n      0x1f\n        /* \"#utility.yul\":11286:11291   */\n      dup4\n        /* \"#utility.yul\":11282:11296   */\n      add\n        /* \"#utility.yul\":11278:11301   */\n      div\n        /* \"#utility.yul\":11268:11301   */\n      swap1\n      pop\n        /* \"#utility.yul\":11214:11307   */\n      swap2\n      swap1\n      pop\n      jump\t// out\n        /* \"#utility.yul\":11313:11420   */\n    tag_198:\n        /* \"#utility.yul\":11357:11365   */\n      0x00\n        /* \"#utility.yul\":11407:11412   */\n      dup3\n        /* \"#utility.yul\":11401:11405   */\n      dup3\n        /* \"#utility.yul\":11397:11413   */\n      shl\n        /* \"#utility.yul\":11376:11413   */\n      swap1\n      pop\n        /* \"#utility.yul\":11313:11420   */\n      swap3\n      swap2\n      pop\n      pop\n      jump\t// out\n        /* \"#utility.yul\":11426:11819   */\n    tag_199:\n        /* \"#utility.yul\":11495:11501   */\n      0x00\n        /* \"#utility.yul\":11545:11546   */\n      0x08\n        /* \"#utility.yul\":11533:11543   */\n      dup4\n        /* \"#utility.yul\":11529:11547   */\n      mul\n        /* \"#utility.yul\":11568:11665   */\n      tag_350\n        /* \"#utility.yul\":11598:11664   */\n      0xffffffffffffffffffffffffffffffffffffffffffffffffffffffffffffffff\n        /* \"#utility.yul\":11587:11596   */\n      dup3\n        /* \"#utility.yul\":11568:11665   */\n      tag_198\n      jump\t// in\n    tag_350:\n        /* \"#utility.yul\":11686:11725   */\n      tag_351\n        /* \"#utility.yul\":11716:11724   */\n      dup7\n        /* \"#utility.yul\":11705:11714   */\n      dup4\n        /* \"#utility.yul\":11686:11725   */\n      tag_198\n      jump\t// in\n    tag_351:\n        /* \"#utility.yul\":11674:11725   */\n      swap6\n      pop\n        /* \"#utility.yul\":11758:11762   */\n      dup1\n        /* \"#utility.yul\":11754:11763   */\n      not\n        /* \"#utility.yul\":11747:11752   */\n      dup5\n        /* \"#utility.yul\":11743:11764   */\n      and\n        /* \"#utility.yul\":11734:11764   */\n      swap4\n      pop\n        /* \"#utility.yul\":11807:11811   */\n      dup1\n        /* \"#utility.yul\":11797:11805   */\n      dup7\n        /* \"#utility.yul\":11793:11812   */\n      and\n        /* \"#utility.yul\":11786:11791   */\n      dup5\n        /* \"#utility.yul\":11783:11813   */\n      or\n        /* \"#utility.yul\":11773:11813   */\n      swap3\n      pop\n        /* \"#utility.yul\":11502:11819   */\n      pop\n      pop\n        /* \"#utility.yul\":11426:11819   */\n      swap4\n      swap3\n      pop\n      pop\n      pop\n      jump\t// out\n        /* \"#utility.yul\":11825:11885   */\n    tag_200:\n        /* \"#utility.yul\":11853:11856   */\n      0x00\n        /* \"#utility.yul\":11874:11879   */\n      dup2\n        /* \"#utility.yul\":11867:11879   */\n      swap1\n      pop\n        /* \"#utility.yul\":11825:11885   */\n      swap2\n      swap1\n      pop\n      jump\t// out\n        /* \"#utility.yul\":11891:12033   */\n    tag_201:\n        /* \"#utility.yul\":11941:11950   */\n      0x00\n        /* \"#utility.yul\":11974:12027   */\n      tag_354\n        /* \"#utility.yul\":11992:12026   */\n      tag_355\n        /* \"#utility.yul\":12001:12025   */\n      tag_356\n        /* \"#utility.yul\":12019:12024   */\n      dup5\n        /* \"#utility.yul\":12001:12025   */\n      tag_178\n      jump\t// in\n    tag_356:\n        /* \"#utility.yul\":11992:12026   */\n      tag_200\n      jump\t// in\n    tag_355:\n        /* \"#utility.yul\":11974:12027   */\n      tag_178\n      jump\t// in\n    tag_354:\n        /* \"#utility.yul\":11961:12027   */\n      swap1\n      pop\n        /* \"#utility.yul\":11891:12033   */\n      swap2\n      swap1\n      pop\n      jump\t// out\n        /* \"#utility.yul\":12039:12114   */\n    tag_202:\n        /* \"#utility.yul\":12082:12085   */\n      0x00\n        /* \"#utility.yul\":12103:12108   */\n      dup2\n        /* \"#utility.yul\":12096:12108   */\n      swap1\n      pop\n        /* \"#utility.yul\":12039:12114   */\n      swap2\n      swap1\n      pop\n      jump\t// out\n        /* \"#utility.yul\":12120:12389   */\n    tag_203:\n        /* \"#utility.yul\":12230:12269   */\n      tag_359\n        /* \"#utility.yul\":12261:12268   */\n      dup4\n        /* \"#utility.yul\":12230:12269   */\n      tag_201\n      jump\t// in\n    tag_359:\n        /* \"#utility.yul\":12291:12382   */\n      tag_360\n        /* \"#utility.yul\":12340:12381   */\n      tag_361\n        /* \"#utility.yul\":12364:12380   */\n      dup3\n        /* \"#utility.yul\":12340:12381   */\n      tag_202\n      jump\t// in\n    tag_361:\n        /* \"#utility.yul\":12332:12338   */\n      dup5\n        /* \"#utility.yul\":12325:12329   */\n      dup5\n        /* \"#utility.yul\":12319:12330   */\n      sload\n        /* \"#utility.yul\":12291:12382   */\n      tag_199\n      jump\t// in\n    tag_360:\n        /* \"#utility.yul\":12285:12289   */\n      dup3\n        /* \"#utility.yul\":12278:12383   */\n      sstore\n        /* \"#utility.yul\":12196:12389   */\n      pop\n        /* \"#utility.yul\":12120:12389   */\n      pop\n      pop\n      pop\n      jump\t// out\n        /* \"#utility.yul\":12395:12468   */\n    tag_204:\n        /* \"#utility.yul\":12440:12443   */\n      0x00\n        /* \"#utility.yul\":12395:12468   */\n      swap1\n      jump\t// out\n        /* \"#utility.yul\":12474:12663   */\n    tag_205:\n        /* \"#utility.yul\":12551:12583   */\n      tag_364\n      tag_204\n      jump\t// in\n    tag_364:\n        /* \"#utility.yul\":12592:12657   */\n      tag_365\n        /* \"#utility.yul\":12650:12656   */\n      dup2\n        /* \"#utility.yul\":12642:12648   */\n      dup5\n        /* \"#utility.yul\":12636:12640   */\n      dup5\n        /* \"#utility.yul\":12592:12657   */\n      tag_203\n      jump\t// in\n    tag_365:\n        /* \"#utility.yul\":12527:12663   */\n      pop\n        /* \"#utility.yul\":12474:12663   */\n      pop\n      pop\n      jump\t// out\n        /* \"#utility.yul\":12669:12855   */\n    tag_206:\n        /* \"#utility.yul\":12729:12849   */\n    tag_367:\n        /* \"#utility.yul\":12746:12749   */\n      dup2\n        /* \"#utility.yul\":12739:12744   */\n      dup2\n        /* \"#utility.yul\":12736:12750   */\n      lt\n        /* \"#utility.yul\":12729:12849   */\n      iszero\n      tag_369\n      jumpi\n        /* \"#utility.yul\":12800:12839   */\n      tag_370\n        /* \"#utility.yul\":12837:12838   */\n      0x00\n        /* \"#utility.yul\":12830:12835   */\n      dup3\n        /* \"#utility.yul\":12800:12839   */\n      tag_205\n      jump\t// in\n    tag_370:\n        /* \"#utility.yul\":12773:12774   */\n      0x01\n        /* \"#utility.yul\":12766:12771   */\n      dup2\n        /* \"#utility.yul\":12762:12775   */\n      add\n        /* \"#utility.yul\":12753:12775   */\n      swap1\n      pop\n        /* \"#utility.yul\":12729:12849   */\n      jump(tag_367)\n    tag_369:\n        /* \"#utility.yul\":12669:12855   */\n      pop\n      pop\n      jump\t// out\n        /* \"#utility.yul\":12861:13404   */\n    tag_207:\n        /* \"#utility.yul\":12962:12964   */\n      0x1f\n        /* \"#utility.yul\":12957:12960   */\n      dup3\n        /* \"#utility.yul\":12954:12965   */\n      gt\n        /* \"#utility.yul\":12951:13397   */\n      iszero\n      tag_372\n      jumpi\n        /* \"#utility.yul\":12996:13034   */\n      tag_373\n        /* \"#utility.yul\":13028:13033   */\n      dup2\n        /* \"#utility.yul\":12996:13034   */\n      tag_196\n      jump\t// in\n    tag_373:\n        /* \"#utility.yul\":13080:13109   */\n      tag_374\n        /* \"#utility.yul\":13098:13108   */\n      dup5\n        /* \"#utility.yul\":13080:13109   */\n      tag_197\n      jump\t// in\n    tag_374:\n        /* \"#utility.yul\":13070:13078   */\n      dup2\n        /* \"#utility.yul\":13066:13110   */\n      add\n        /* \"#utility.yul\":13263:13265   */\n      0x20\n        /* \"#utility.yul\":13251:13261   */\n      dup6\n        /* \"#utility.yul\":13248:13266   */\n      lt\n        /* \"#utility.yul\":13245:13294   */\n      iszero\n      tag_375\n      jumpi\n        /* \"#utility.yul\":13284:13292   */\n      dup2\n        /* \"#utility.yul\":13269:13292   */\n      swap1\n      pop\n        /* \"#utility.yul\":13245:13294   */\n    tag_375:\n        /* \"#utility.yul\":13307:13387   */\n      tag_376\n        /* \"#utility.yul\":13363:13385   */\n      tag_377\n        /* \"#utility.yul\":13381:13384   */\n      dup6\n        /* \"#utility.yul\":13363:13385   */\n      tag_197\n      jump\t// in\n    tag_377:\n        /* \"#utility.yul\":13353:13361   */\n      dup4\n        /* \"#utility.yul\":13349:13386   */\n      add\n        /* \"#utility.yul\":13336:13347   */\n      dup3\n        /* \"#utility.yul\":13307:13387   */\n      tag_206\n      jump\t// in\n    tag_376:\n        /* \"#utility.yul\":12966:13397   */\n      pop\n      pop\n        /* \"#utility.yul\":12951:13397   */\n    tag_372:\n        /* \"#utility.yul\":12861:13404   */\n      pop\n      pop\n      pop\n      jump\t// out\n        /* \"#utility.yul\":13410:13527   */\n    tag_208:\n        /* \"#utility.yul\":13464:13472   */\n      0x00\n        /* \"#utility.yul\":13514:13519   */\n      dup3\n        /* \"#utility.yul\":13508:13512   */\n      dup3\n        /* \"#utility.yul\":13504:13520   */\n      shr\n        /* \"#utility.yul\":13483:13520   */\n      swap1\n      pop\n        /* \"#utility.yul\":13410:13527   */\n      swap3\n      swap2\n      pop\n      pop\n      jump\t// out\n        /* \"#utility.yul\":13533:13702   */\n    tag_209:\n        /* \"#utility.yul\":13577:13583   */\n      0x00\n        /* \"#utility.yul\":13610:13661   */\n      tag_380\n        /* \"#utility.yul\":13658:13659   */\n      0x00\n        /* \"#utility.yul\":13654:13660   */\n      not\n        /* \"#utility.yul\":13646:13651   */\n      dup5\n        /* \"#utility.yul\":13643:13644   */\n      0x08\n        /* \"#utility.yul\":13639:13652   */\n      mul\n        /* \"#utility.yul\":13610:13661   */\n      tag_208\n      jump\t// in\n    tag_380:\n        /* \"#utility.yul\":13606:13662   */\n      not\n        /* \"#utility.yul\":13691:13695   */\n      dup1\n        /* \"#utility.yul\":13685:13689   */\n      dup4\n        /* \"#utility.yul\":13681:13696   */\n      and\n        /* \"#utility.yul\":13671:13696   */\n      swap2\n      pop\n        /* \"#utility.yul\":13584:13702   */\n      pop\n        /* \"#utility.yul\":13533:13702   */\n      swap3\n      swap2\n      pop\n      pop\n      jump\t// out\n        /* \"#utility.yul\":13707:14002   */\n    tag_210:\n        /* \"#utility.yul\":13783:13787   */\n      0x00\n        /* \"#utility.yul\":13929:13958   */\n      tag_382\n        /* \"#utility.yul\":13954:13957   */\n      dup4\n        /* \"#utility.yul\":13948:13952   */\n      dup4\n        /* \"#utility.yul\":13929:13958   */\n      tag_209\n      jump\t// in\n    tag_382:\n        /* \"#utility.yul\":13921:13958   */\n      swap2\n      pop\n        /* \"#utility.yul\":13991:13994   */\n      dup3\n        /* \"#utility.yul\":13988:13989   */\n      0x02\n        /* \"#utility.yul\":13984:13995   */\n      mul\n        /* \"#utility.yul\":13978:13982   */\n      dup3\n        /* \"#utility.yul\":13975:13996   */\n      or\n        /* \"#utility.yul\":13967:13996   */\n      swap1\n      pop\n        /* \"#utility.yul\":13707:14002   */\n      swap3\n      swap2\n      pop\n      pop\n      jump\t// out\n        /* \"#utility.yul\":14007:15402   */\n    tag_84:\n        /* \"#utility.yul\":14124:14161   */\n      tag_384\n        /* \"#utility.yul\":14157:14160   */\n      dup3\n        /* \"#utility.yul\":14124:14161   */\n      tag_184\n      jump\t// in\n    tag_384:\n        /* \"#utility.yul\":14226:14244   */\n      0xffffffffffffffff\n        /* \"#utility.yul\":14218:14224   */\n      dup2\n        /* \"#utility.yul\":14215:14245   */\n      gt\n        /* \"#utility.yul\":14212:14268   */\n      iszero\n      tag_385\n      jumpi\n        /* \"#utility.yul\":14248:14266   */\n      tag_386\n      tag_171\n      jump\t// in\n    tag_386:\n        /* \"#utility.yul\":14212:14268   */\n    tag_385:\n        /* \"#utility.yul\":14292:14330   */\n      tag_387\n        /* \"#utility.yul\":14324:14328   */\n      dup3\n        /* \"#utility.yul\":14318:14329   */\n      sload\n        /* \"#utility.yul\":14292:14330   */\n      tag_111\n      jump\t// in\n    tag_387:\n        /* \"#utility.yul\":14377:14444   */\n      tag_388\n        /* \"#utility.yul\":14437:14443   */\n      dup3\n        /* \"#utility.yul\":14429:14435   */\n      dup3\n        /* \"#utility.yul\":14423:14427   */\n      dup6\n        /* \"#utility.yul\":14377:14444   */\n      tag_207\n      jump\t// in\n    tag_388:\n        /* \"#utility.yul\":14471:14472   */\n      0x00\n        /* \"#utility.yul\":14495:14499   */\n      0x20\n        /* \"#utility.yul\":14482:14499   */\n      swap1\n      pop\n        /* \"#utility.yul\":14527:14529   */\n      0x1f\n        /* \"#utility.yul\":14519:14525   */\n      dup4\n        /* \"#utility.yul\":14516:14530   */\n      gt\n        /* \"#utility.yul\":14544:14545   */\n      0x01\n        /* \"#utility.yul\":14539:15157   */\n      dup2\n      eq\n      tag_390\n      jumpi\n        /* \"#utility.yul\":15201:15202   */\n      0x00\n        /* \"#utility.yul\":15218:15224   */\n      dup5\n        /* \"#utility.yul\":15215:15292   */\n      iszero\n      tag_391\n      jumpi\n        /* \"#utility.yul\":15267:15276   */\n      dup3\n        /* \"#utility.yul\":15262:15265   */\n      dup8\n        /* \"#utility.yul\":15258:15277   */\n      add\n        /* \"#utility.yul\":15252:15278   */\n      mload\n        /* \"#utility.yul\":15243:15278   */\n      swap1\n      pop\n        /* \"#utility.yul\":15215:15292   */\n    tag_391:\n        /* \"#utility.yul\":15318:15385   */\n      tag_392\n        /* \"#utility.yul\":15378:15384   */\n      dup6\n        /* \"#utility.yul\":15371:15376   */\n      dup3\n        /* \"#utility.yul\":15318:15385   */\n      tag_210\n      jump\t// in\n    tag_392:\n        /* \"#utility.yul\":15312:15316   */\n      dup7\n        /* \"#utility.yul\":15305:15386   */\n      sstore\n        /* \"#utility.yul\":15174:15396   */\n      pop\n        /* \"#utility.yul\":14509:15396   */\n      jump(tag_389)\n        /* \"#utility.yul\":14539:15157   */\n    tag_390:\n        /* \"#utility.yul\":14591:14595   */\n      0x1f\n        /* \"#utility.yul\":14587:14596   */\n      not\n        /* \"#utility.yul\":14579:14585   */\n      dup5\n        /* \"#utility.yul\":14575:14597   */\n      and\n        /* \"#utility.yul\":14625:14662   */\n      tag_393\n        /* \"#utility.yul\":14657:14661   */\n      dup7\n        /* \"#utility.yul\":14625:14662   */\n      tag_196\n      jump\t// in\n    tag_393:\n        /* \"#utility.yul\":14684:14685   */\n      0x00\n        /* \"#utility.yul\":14698:14906   */\n    tag_394:\n        /* \"#utility.yul\":14712:14719   */\n      dup3\n        /* \"#utility.yul\":14709:14710   */\n      dup2\n        /* \"#utility.yul\":14706:14720   */\n      lt\n        /* \"#utility.yul\":14698:14906   */\n      iszero\n      tag_396\n      jumpi\n        /* \"#utility.yul\":14791:14800   */\n      dup5\n        /* \"#utility.yul\":14786:14789   */\n      dup10\n        /* \"#utility.yul\":14782:14801   */\n      add\n        /* \"#utility.yul\":14776:14802   */\n      mload\n        /* \"#utility.yul\":14768:14774   */\n      dup3\n        /* \"#utility.yul\":14761:14803   */\n      sstore\n        /* \"#utility.yul\":14842:14843   */\n      0x01\n        /* \"#utility.yul\":14834:14840   */\n      dup3\n        /* \"#utility.yul\":14830:14844   */\n      add\n        /* \"#utility.yul\":14820:14844   */\n      swap2\n      pop\n        /* \"#utility.yul\":14889:14891   */\n      0x20\n        /* \"#utility.yul\":14878:14887   */\n      dup6\n        /* \"#utility.yul\":14874:14892   */\n      add\n        /* \"#utility.yul\":14861:14892   */\n      swap5\n      pop\n        /* \"#utility.yul\":14735:14739   */\n      0x20\n        /* \"#utility.yul\":14732:14733   */\n      dup2\n        /* \"#utility.yul\":14728:14740   */\n      add\n        /* \"#utility.yul\":14723:14740   */\n      swap1\n      pop\n        /* \"#utility.yul\":14698:14906   */\n      jump(tag_394)\n    tag_396:\n        /* \"#utility.yul\":14934:14940   */\n      dup7\n        /* \"#utility.yul\":14925:14932   */\n      dup4\n        /* \"#utility.yul\":14922:14941   */\n      lt\n        /* \"#utility.yul\":14919:15098   */\n      iszero\n      tag_397\n      jumpi\n        /* \"#utility.yul\":14992:15001   */\n      dup5\n        /* \"#utility.yul\":14987:14990   */\n      dup10\n        /* \"#utility.yul\":14983:15002   */\n      add\n        /* \"#utility.yul\":14977:15003   */\n      mload\n        /* \"#utility.yul\":15035:15083   */\n      tag_398\n        /* \"#utility.yul\":15077:15081   */\n      0x1f\n        /* \"#utility.yul\":15069:15075   */\n      dup10\n        /* \"#utility.yul\":15065:15082   */\n      and\n        /* \"#utility.yul\":15054:15063   */\n      dup3\n        /* \"#utility.yul\":15035:15083   */\n      tag_209\n      jump\t// in\n    tag_398:\n        /* \"#utility.yul\":15027:15033   */\n      dup4\n        /* \"#utility.yul\":15020:15084   */\n      sstore\n        /* \"#utility.yul\":14942:15098   */\n      pop\n        /* \"#utility.yul\":14919:15098   */\n    tag_397:\n        /* \"#utility.yul\":15144:15145   */\n      0x01\n        /* \"#utility.yul\":15140:15141   */\n      0x02\n        /* \"#utility.yul\":15132:15138   */\n      dup9\n        /* \"#utility.yul\":15128:15142   */\n      mul\n        /* \"#utility.yul\":15124:15146   */\n      add\n        /* \"#utility.yul\":15118:15122   */\n      dup9\n        /* \"#utility.yul\":15111:15147   */\n      sstore\n        /* \"#utility.yul\":14546:15157   */\n      pop\n      pop\n      pop\n        /* \"#utility.yul\":14509:15396   */\n    tag_389:\n      pop\n        /* \"#utility.yul\":14099:15402   */\n      pop\n      pop\n      pop\n        /* \"#utility.yul\":14007:15402   */\n      pop\n      pop\n      jump\t// out\n        /* \"#utility.yul\":15408:15578   */\n    tag_211:\n        /* \"#utility.yul\":15548:15570   */\n      0x4f7264657220646f6573206e6f74206578697374000000000000000000000000\n        /* \"#utility.yul\":15544:15545   */\n      0x00\n        /* \"#utility.yul\":15536:15542   */\n      dup3\n        /* \"#utility.yul\":15532:15546   */\n      add\n        /* \"#utility.yul\":15525:15571   */\n      mstore\n        /* \"#utility.yul\":15408:15578   */\n      pop\n      jump\t// out\n        /* \"#utility.yul\":15584:15950   */\n    tag_212:\n        /* \"#utility.yul\":15726:15729   */\n      0x00\n        /* \"#utility.yul\":15747:15814   */\n      tag_401\n        /* \"#utility.yul\":15811:15813   */\n      0x14\n        /* \"#utility.yul\":15806:15809   */\n      dup4\n        /* \"#utility.yul\":15747:15814   */\n      tag_185\n      jump\t// in\n    tag_401:\n        /* \"#utility.yul\":15740:15814   */\n      swap2\n      pop\n        /* \"#utility.yul\":15823:15916   */\n      tag_402\n        /* \"#utility.yul\":15912:15915   */\n      dup3\n        /* \"#utility.yul\":15823:15916   */\n      tag_211\n      jump\t// in\n    tag_402:\n        /* \"#utility.yul\":15941:15943   */\n      0x20\n        /* \"#utility.yul\":15936:15939   */\n      dup3\n        /* \"#utility.yul\":15932:15944   */\n      add\n        /* \"#utility.yul\":15925:15944   */\n      swap1\n      pop\n        /* \"#utility.yul\":15584:15950   */\n      swap2\n      swap1\n      pop\n      jump\t// out\n        /* \"#utility.yul\":15956:16375   */\n    tag_92:\n        /* \"#utility.yul\":16122:16126   */\n      0x00\n        /* \"#utility.yul\":16160:16162   */\n      0x20\n        /* \"#utility.yul\":16149:16158   */\n      dup3\n        /* \"#utility.yul\":16145:16163   */\n      add\n        /* \"#utility.yul\":16137:16163   */\n      swap1\n      pop\n        /* \"#utility.yul\":16209:16218   */\n      dup2\n        /* \"#utility.yul\":16203:16207   */\n      dup2\n        /* \"#utility.yul\":16199:16219   */\n      sub\n        /* \"#utility.yul\":16195:16196   */\n      0x00\n        /* \"#utility.yul\":16184:16193   */\n      dup4\n        /* \"#utility.yul\":16180:16197   */\n      add\n        /* \"#utility.yul\":16173:16220   */\n      mstore\n        /* \"#utility.yul\":16237:16368   */\n      tag_404\n        /* \"#utility.yul\":16363:16367   */\n      dup2\n        /* \"#utility.yul\":16237:16368   */\n      tag_212\n      jump\t// in\n    tag_404:\n        /* \"#utility.yul\":16229:16368   */\n      swap1\n      pop\n        /* \"#utility.yul\":15956:16375   */\n      swap2\n      swap1\n      pop\n      jump\t// out\n        /* \"#utility.yul\":16381:16601   */\n    tag_213:\n        /* \"#utility.yul\":16521:16555   */\n      0x4f72646572206973206e6f7420696e206120736869707061626c652073746174\n        /* \"#utility.yul\":16517:16518   */\n      0x00\n        /* \"#utility.yul\":16509:16515   */\n      dup3\n        /* \"#utility.yul\":16505:16519   */\n      add\n        /* \"#utility.yul\":16498:16556   */\n      mstore\n        /* \"#utility.yul\":16590:16593   */\n      0x6500000000000000000000000000000000000000000000000000000000000000\n        /* \"#utility.yul\":16585:16587   */\n      0x20\n        /* \"#utility.yul\":16577:16583   */\n      dup3\n        /* \"#utility.yul\":16573:16588   */\n      add\n        /* \"#utility.yul\":16566:16594   */\n      mstore\n        /* \"#utility.yul\":16381:16601   */\n      pop\n      jump\t// out\n        /* \"#utility.yul\":16607:16973   */\n    tag_214:\n        /* \"#utility.yul\":16749:16752   */\n      0x00\n        /* \"#utility.yul\":16770:16837   */\n      tag_407\n        /* \"#utility.yul\":16834:16836   */\n      0x21\n        /* \"#utility.yul\":16829:16832   */\n      dup4\n        /* \"#utility.yul\":16770:16837   */\n      tag_185\n      jump\t// in\n    tag_407:\n        /* \"#utility.yul\":16763:16837   */\n      swap2\n      pop\n        /* \"#utility.yul\":16846:16939   */\n      tag_408\n        /* \"#utility.yul\":16935:16938   */\n      dup3\n        /* \"#utility.yul\":16846:16939   */\n      tag_213\n      jump\t// in\n    tag_408:\n        /* \"#utility.yul\":16964:16966   */\n      0x40\n        /* \"#utility.yul\":16959:16962   */\n      dup3\n        /* \"#utility.yul\":16955:16967   */\n      add\n        /* \"#utility.yul\":16948:16967   */\n      swap1\n      pop\n        /* \"#utility.yul\":16607:16973   */\n      swap2\n      swap1\n      pop\n      jump\t// out\n        /* \"#utility.yul\":16979:17398   */\n    tag_101:\n        /* \"#utility.yul\":17145:17149   */\n      0x00\n        /* \"#utility.yul\":17183:17185   */\n      0x20\n        /* \"#utility.yul\":17172:17181   */\n      dup3\n        /* \"#utility.yul\":17168:17186   */\n      add\n        /* \"#utility.yul\":17160:17186   */\n      swap1\n      pop\n        /* \"#utility.yul\":17232:17241   */\n      dup2\n        /* \"#utility.yul\":17226:17230   */\n      dup2\n        /* \"#utility.yul\":17222:17242   */\n      sub\n        /* \"#utility.yul\":17218:17219   */\n      0x00\n        /* \"#utility.yul\":17207:17216   */\n      dup4\n        /* \"#utility.yul\":17203:17220   */\n      add\n        /* \"#utility.yul\":17196:17243   */\n      mstore\n        /* \"#utility.yul\":17260:17391   */\n      tag_410\n        /* \"#utility.yul\":17386:17390   */\n      dup2\n        /* \"#utility.yul\":17260:17391   */\n      tag_214\n      jump\t// in\n    tag_410:\n        /* \"#utility.yul\":17252:17391   */\n      swap1\n      pop\n        /* \"#utility.yul\":16979:17398   */\n      swap2\n      swap1\n      pop\n      jump\t// out\n        /* \"#utility.yul\":17404:17629   */\n    tag_215:\n        /* \"#utility.yul\":17544:17578   */\n      0x4f6e6c79207468652073656c6c65722063616e2063616c6c2074686973206675\n        /* \"#utility.yul\":17540:17541   */\n      0x00\n        /* \"#utility.yul\":17532:17538   */\n      dup3\n        /* \"#utility.yul\":17528:17542   */\n      add\n        /* \"#utility.yul\":17521:17579   */\n      mstore\n        /* \"#utility.yul\":17613:17621   */\n      0x6e6374696f6e0000000000000000000000000000000000000000000000000000\n        /* \"#utility.yul\":17608:17610   */\n      0x20\n        /* \"#utility.yul\":17600:17606   */\n      dup3\n        /* \"#utility.yul\":17596:17611   */\n      add\n        /* \"#utility.yul\":17589:17622   */\n      mstore\n        /* \"#utility.yul\":17404:17629   */\n      pop\n      jump\t// out\n        /* \"#utility.yul\":17635:18001   */\n    tag_216:\n        /* \"#utility.yul\":17777:17780   */\n      0x00\n        /* \"#utility.yul\":17798:17865   */\n      tag_413\n        /* \"#utility.yul\":17862:17864   */\n      0x26\n        /* \"#utility.yul\":17857:17860   */\n      dup4\n        /* \"#utility.yul\":17798:17865   */\n      tag_185\n      jump\t// in\n    tag_413:\n        /* \"#utility.yul\":17791:17865   */\n      swap2\n      pop\n        /* \"#utility.yul\":17874:17967   */\n      tag_414\n        /* \"#utility.yul\":17963:17966   */\n      dup3\n        /* \"#utility.yul\":17874:17967   */\n      tag_215\n      jump\t// in\n    tag_414:\n        /* \"#utility.yul\":17992:17994   */\n      0x40\n        /* \"#utility.yul\":17987:17990   */\n      dup3\n        /* \"#utility.yul\":17983:17995   */\n      add\n        /* \"#utility.yul\":17976:17995   */\n      swap1\n      pop\n        /* \"#utility.yul\":17635:18001   */\n      swap2\n      swap1\n      pop\n      jump\t// out\n        /* \"#utility.yul\":18007:18426   */\n    tag_108:\n        /* \"#utility.yul\":18173:18177   */\n      0x00\n        /* \"#utility.yul\":18211:18213   */\n      0x20\n        /* \"#utility.yul\":18200:18209   */\n      dup3\n        /* \"#utility.yul\":18196:18214   */\n      add\n        /* \"#utility.yul\":18188:18214   */\n      swap1\n      pop\n        /* \"#utility.yul\":18260:18269   */\n      dup2\n        /* \"#utility.yul\":18254:18258   */\n      dup2\n        /* \"#utility.yul\":18250:18270   */\n      sub\n        /* \"#utility.yul\":18246:18247   */\n      0x00\n        /* \"#utility.yul\":18235:18244   */\n      dup4\n        /* \"#utility.yul\":18231:18248   */\n      add\n        /* \"#utility.yul\":18224:18271   */\n      mstore\n        /* \"#utility.yul\":18288:18419   */\n      tag_416\n        /* \"#utility.yul\":18414:18418   */\n      dup2\n        /* \"#utility.yul\":18288:18419   */\n      tag_216\n      jump\t// in\n    tag_416:\n        /* \"#utility.yul\":18280:18419   */\n      swap1\n      pop\n        /* \"#utility.yul\":18007:18426   */\n      swap2\n      swap1\n      pop\n      jump\t// out\n        /* \"#utility.yul\":18432:18662   */\n    tag_217:\n        /* \"#utility.yul\":18572:18606   */\n      0x4f6e6c7920746865206469737472696275746f722063616e2063616c6c207468\n        /* \"#utility.yul\":18568:18569   */\n      0x00\n        /* \"#utility.yul\":18560:18566   */\n      dup3\n        /* \"#utility.yul\":18556:18570   */\n      add\n        /* \"#utility.yul\":18549:18607   */\n      mstore\n        /* \"#utility.yul\":18641:18654   */\n      0x69732066756e6374696f6e000000000000000000000000000000000000000000\n        /* \"#utility.yul\":18636:18638   */\n      0x20\n        /* \"#utility.yul\":18628:18634   */\n      dup3\n        /* \"#utility.yul\":18624:18639   */\n      add\n        /* \"#utility.yul\":18617:18655   */\n      mstore\n        /* \"#utility.yul\":18432:18662   */\n      pop\n      jump\t// out\n        /* \"#utility.yul\":18668:19034   */\n    tag_218:\n        /* \"#utility.yul\":18810:18813   */\n      0x00\n        /* \"#utility.yul\":18831:18898   */\n      tag_419\n        /* \"#utility.yul\":18895:18897   */\n      0x2b\n        /* \"#utility.yul\":18890:18893   */\n      dup4\n        /* \"#utility.yul\":18831:18898   */\n      tag_185\n      jump\t// in\n    tag_419:\n        /* \"#utility.yul\":18824:18898   */\n      swap2\n      pop\n        /* \"#utility.yul\":18907:19000   */\n      tag_420\n        /* \"#utility.yul\":18996:18999   */\n      dup3\n        /* \"#utility.yul\":18907:19000   */\n      tag_217\n      jump\t// in\n    tag_420:\n        /* \"#utility.yul\":19025:19027   */\n      0x40\n        /* \"#utility.yul\":19020:19023   */\n      dup3\n        /* \"#utility.yul\":19016:19028   */\n      add\n        /* \"#utility.yul\":19009:19028   */\n      swap1\n      pop\n        /* \"#utility.yul\":18668:19034   */\n      swap2\n      swap1\n      pop\n      jump\t// out\n        /* \"#utility.yul\":19040:19459   */\n    tag_119:\n        /* \"#utility.yul\":19206:19210   */\n      0x00\n        /* \"#utility.yul\":19244:19246   */\n      0x20\n        /* \"#utility.yul\":19233:19242   */\n      dup3\n        /* \"#utility.yul\":19229:19247   */\n      add\n        /* \"#utility.yul\":19221:19247   */\n      swap1\n      pop\n        /* \"#utility.yul\":19293:19302   */\n      dup2\n        /* \"#utility.yul\":19287:19291   */\n      dup2\n        /* \"#utility.yul\":19283:19303   */\n      sub\n        /* \"#utility.yul\":19279:19280   */\n      0x00\n        /* \"#utility.yul\":19268:19277   */\n      dup4\n        /* \"#utility.yul\":19264:19281   */\n      add\n        /* \"#utility.yul\":19257:19304   */\n      mstore\n        /* \"#utility.yul\":19321:19452   */\n      tag_422\n        /* \"#utility.yul\":19447:19451   */\n      dup2\n        /* \"#utility.yul\":19321:19452   */\n      tag_218\n      jump\t// in\n    tag_422:\n        /* \"#utility.yul\":19313:19452   */\n      swap1\n      pop\n        /* \"#utility.yul\":19040:19459   */\n      swap2\n      swap1\n      pop\n      jump\t// out\n        /* \"#utility.yul\":19465:19637   */\n    tag_219:\n        /* \"#utility.yul\":19605:19629   */\n      0x50726f6475637420646f6573206e6f7420657869737400000000000000000000\n        /* \"#utility.yul\":19601:19602   */\n      0x00\n        /* \"#utility.yul\":19593:19599   */\n      dup3\n        /* \"#utility.yul\":19589:19603   */\n      add\n        /* \"#utility.yul\":19582:19630   */\n      mstore\n        /* \"#utility.yul\":19465:19637   */\n      pop\n      jump\t// out\n        /* \"#utility.yul\":19643:20009   */\n    tag_220:\n        /* \"#utility.yul\":19785:19788   */\n      0x00\n        /* \"#utility.yul\":19806:19873   */\n      tag_425\n        /* \"#utility.yul\":19870:19872   */\n      0x16\n        /* \"#utility.yul\":19865:19868   */\n      dup4\n        /* \"#utility.yul\":19806:19873   */\n      tag_185\n      jump\t// in\n    tag_425:\n        /* \"#utility.yul\":19799:19873   */\n      swap2\n      pop\n        /* \"#utility.yul\":19882:19975   */\n      tag_426\n        /* \"#utility.yul\":19971:19974   */\n      dup3\n        /* \"#utility.yul\":19882:19975   */\n      tag_219\n      jump\t// in\n    tag_426:\n        /* \"#utility.yul\":20000:20002   */\n      0x20\n        /* \"#utility.yul\":19995:19998   */\n      dup3\n        /* \"#utility.yul\":19991:20003   */\n      add\n        /* \"#utility.yul\":19984:20003   */\n      swap1\n      pop\n        /* \"#utility.yul\":19643:20009   */\n      swap2\n      swap1\n      pop\n      jump\t// out\n        /* \"#utility.yul\":20015:20434   */\n    tag_123:\n        /* \"#utility.yul\":20181:20185   */\n      0x00\n        /* \"#utility.yul\":20219:20221   */\n      0x20\n        /* \"#utility.yul\":20208:20217   */\n      dup3\n        /* \"#utility.yul\":20204:20222   */\n      add\n        /* \"#utility.yul\":20196:20222   */\n      swap1\n      pop\n        /* \"#utility.yul\":20268:20277   */\n      dup2\n        /* \"#utility.yul\":20262:20266   */\n      dup2\n        /* \"#utility.yul\":20258:20278   */\n      sub\n        /* \"#utility.yul\":20254:20255   */\n      0x00\n        /* \"#utility.yul\":20243:20252   */\n      dup4\n        /* \"#utility.yul\":20239:20256   */\n      add\n        /* \"#utility.yul\":20232:20279   */\n      mstore\n        /* \"#utility.yul\":20296:20427   */\n      tag_428\n        /* \"#utility.yul\":20422:20426   */\n      dup2\n        /* \"#utility.yul\":20296:20427   */\n      tag_220\n      jump\t// in\n    tag_428:\n        /* \"#utility.yul\":20288:20427   */\n      swap1\n      pop\n        /* \"#utility.yul\":20015:20434   */\n      swap2\n      swap1\n      pop\n      jump\t// out\n        /* \"#utility.yul\":20440:20606   */\n    tag_221:\n        /* \"#utility.yul\":20580:20598   */\n      0x4e6f7420656e6f7567682073746f636b00000000000000000000000000000000\n        /* \"#utility.yul\":20576:20577   */\n      0x00\n        /* \"#utility.yul\":20568:20574   */\n      dup3\n        /* \"#utility.yul\":20564:20578   */\n      add\n        /* \"#utility.yul\":20557:20599   */\n      mstore\n        /* \"#utility.yul\":20440:20606   */\n      pop\n      jump\t// out\n        /* \"#utility.yul\":20612:20978   */\n    tag_222:\n        /* \"#utility.yul\":20754:20757   */\n      0x00\n        /* \"#utility.yul\":20775:20842   */\n      tag_431\n        /* \"#utility.yul\":20839:20841   */\n      0x10\n        /* \"#utility.yul\":20834:20837   */\n      dup4\n        /* \"#utility.yul\":20775:20842   */\n      tag_185\n      jump\t// in\n    tag_431:\n        /* \"#utility.yul\":20768:20842   */\n      swap2\n      pop\n        /* \"#utility.yul\":20851:20944   */\n      tag_432\n        /* \"#utility.yul\":20940:20943   */\n      dup3\n        /* \"#utility.yul\":20851:20944   */\n      tag_221\n      jump\t// in\n    tag_432:\n        /* \"#utility.yul\":20969:20971   */\n      0x20\n        /* \"#utility.yul\":20964:20967   */\n      dup3\n        /* \"#utility.yul\":20960:20972   */\n      add\n        /* \"#utility.yul\":20953:20972   */\n      swap1\n      pop\n        /* \"#utility.yul\":20612:20978   */\n      swap2\n      swap1\n      pop\n      jump\t// out\n        /* \"#utility.yul\":20984:21403   */\n    tag_127:\n        /* \"#utility.yul\":21150:21154   */\n      0x00\n        /* \"#utility.yul\":21188:21190   */\n      0x20\n        /* \"#utility.yul\":21177:21186   */\n      dup3\n        /* \"#utility.yul\":21173:21191   */\n      add\n        /* \"#utility.yul\":21165:21191   */\n      swap1\n      pop\n        /* \"#utility.yul\":21237:21246   */\n      dup2\n        /* \"#utility.yul\":21231:21235   */\n      dup2\n        /* \"#utility.yul\":21227:21247   */\n      sub\n        /* \"#utility.yul\":21223:21224   */\n      0x00\n        /* \"#utility.yul\":21212:21221   */\n      dup4\n        /* \"#utility.yul\":21208:21225   */\n      add\n        /* \"#utility.yul\":21201:21248   */\n      mstore\n        /* \"#utility.yul\":21265:21396   */\n      tag_434\n        /* \"#utility.yul\":21391:21395   */\n      dup2\n        /* \"#utility.yul\":21265:21396   */\n      tag_222\n      jump\t// in\n    tag_434:\n        /* \"#utility.yul\":21257:21396   */\n      swap1\n      pop\n        /* \"#utility.yul\":20984:21403   */\n      swap2\n      swap1\n      pop\n      jump\t// out\n        /* \"#utility.yul\":21409:21851   */\n    tag_134:\n        /* \"#utility.yul\":21558:21562   */\n      0x00\n        /* \"#utility.yul\":21596:21598   */\n      0x60\n        /* \"#utility.yul\":21585:21594   */\n      dup3\n        /* \"#utility.yul\":21581:21599   */\n      add\n        /* \"#utility.yul\":21573:21599   */\n      swap1\n      pop\n        /* \"#utility.yul\":21609:21680   */\n      tag_436\n        /* \"#utility.yul\":21677:21678   */\n      0x00\n        /* \"#utility.yul\":21666:21675   */\n      dup4\n        /* \"#utility.yul\":21662:21679   */\n      add\n        /* \"#utility.yul\":21653:21659   */\n      dup7\n        /* \"#utility.yul\":21609:21680   */\n      tag_183\n      jump\t// in\n    tag_436:\n        /* \"#utility.yul\":21690:21762   */\n      tag_437\n        /* \"#utility.yul\":21758:21760   */\n      0x20\n        /* \"#utility.yul\":21747:21756   */\n      dup4\n        /* \"#utility.yul\":21743:21761   */\n      add\n        /* \"#utility.yul\":21734:21740   */\n      dup6\n        /* \"#utility.yul\":21690:21762   */\n      tag_183\n      jump\t// in\n    tag_437:\n        /* \"#utility.yul\":21772:21844   */\n      tag_438\n        /* \"#utility.yul\":21840:21842   */\n      0x40\n        /* \"#utility.yul\":21829:21838   */\n      dup4\n        /* \"#utility.yul\":21825:21843   */\n      add\n        /* \"#utility.yul\":21816:21822   */\n      dup5\n        /* \"#utility.yul\":21772:21844   */\n      tag_183\n      jump\t// in\n    tag_438:\n        /* \"#utility.yul\":21409:21851   */\n      swap5\n      swap4\n      pop\n      pop\n      pop\n      pop\n      jump\t// out\n        /* \"#utility.yul\":21857:22079   */\n    tag_223:\n        /* \"#utility.yul\":21997:22031   */\n      0x4f72646572206973206e6f7420696e20612064656c6976657261626c65207374\n        /* \"#utility.yul\":21993:21994   */\n      0x00\n        /* \"#utility.yul\":21985:21991   */\n      dup3\n        /* \"#utility.yul\":21981:21995   */\n      add\n        /* \"#utility.yul\":21974:22032   */\n      mstore\n        /* \"#utility.yul\":22066:22071   */\n      0x6174650000000000000000000000000000000000000000000000000000000000\n        /* \"#utility.yul\":22061:22063   */\n      0x20\n        /* \"#utility.yul\":22053:22059   */\n      dup3\n        /* \"#utility.yul\":22049:22064   */\n      add\n        /* \"#utility.yul\":22042:22072   */\n      mstore\n        /* \"#utility.yul\":21857:22079   */\n      pop\n      jump\t// out\n        /* \"#utility.yul\":22085:22451   */\n    tag_224:\n        /* \"#utility.yul\":22227:22230   */\n      0x00\n        /* \"#utility.yul\":22248:22315   */\n      tag_441\n        /* \"#utility.yul\":22312:22314   */\n      0x23\n        /* \"#utility.yul\":22307:22310   */\n      dup4\n        /* \"#utility.yul\":22248:22315   */\n      tag_185\n      jump\t// in\n    tag_441:\n        /* \"#utility.yul\":22241:22315   */\n      swap2\n      pop\n        /* \"#utility.yul\":22324:22417   */\n      tag_442\n        /* \"#utility.yul\":22413:22416   */\n      dup3\n        /* \"#utility.yul\":22324:22417   */\n      tag_223\n      jump\t// in\n    tag_442:\n        /* \"#utility.yul\":22442:22444   */\n      0x40\n        /* \"#utility.yul\":22437:22440   */\n      dup3\n        /* \"#utility.yul\":22433:22445   */\n      add\n        /* \"#utility.yul\":22426:22445   */\n      swap1\n      pop\n        /* \"#utility.yul\":22085:22451   */\n      swap2\n      swap1\n      pop\n      jump\t// out\n        /* \"#utility.yul\":22457:22876   */\n    tag_156:\n        /* \"#utility.yul\":22623:22627   */\n      0x00\n        /* \"#utility.yul\":22661:22663   */\n      0x20\n        /* \"#utility.yul\":22650:22659   */\n      dup3\n        /* \"#utility.yul\":22646:22664   */\n      add\n        /* \"#utility.yul\":22638:22664   */\n      swap1\n      pop\n        /* \"#utility.yul\":22710:22719   */\n      dup2\n        /* \"#utility.yul\":22704:22708   */\n      dup2\n        /* \"#utility.yul\":22700:22720   */\n      sub\n        /* \"#utility.yul\":22696:22697   */\n      0x00\n        /* \"#utility.yul\":22685:22694   */\n      dup4\n        /* \"#utility.yul\":22681:22698   */\n      add\n        /* \"#utility.yul\":22674:22721   */\n      mstore\n        /* \"#utility.yul\":22738:22869   */\n      tag_444\n        /* \"#utility.yul\":22864:22868   */\n      dup2\n        /* \"#utility.yul\":22738:22869   */\n      tag_224\n      jump\t// in\n    tag_444:\n        /* \"#utility.yul\":22730:22869   */\n      swap1\n      pop\n        /* \"#utility.yul\":22457:22876   */\n      swap2\n      swap1\n      pop\n      jump\t// out\n        /* \"#utility.yul\":22882:23076   */\n    tag_160:\n        /* \"#utility.yul\":22922:22926   */\n      0x00\n        /* \"#utility.yul\":22942:22962   */\n      tag_446\n        /* \"#utility.yul\":22960:22961   */\n      dup3\n        /* \"#utility.yul\":22942:22962   */\n      tag_178\n      jump\t// in\n    tag_446:\n        /* \"#utility.yul\":22937:22962   */\n      swap2\n      pop\n        /* \"#utility.yul\":22976:22996   */\n      tag_447\n        /* \"#utility.yul\":22994:22995   */\n      dup4\n        /* \"#utility.yul\":22976:22996   */\n      tag_178\n      jump\t// in\n    tag_447:\n        /* \"#utility.yul\":22971:22996   */\n      swap3\n      pop\n        /* \"#utility.yul\":23020:23021   */\n      dup3\n        /* \"#utility.yul\":23017:23018   */\n      dup3\n        /* \"#utility.yul\":23013:23022   */\n      sub\n        /* \"#utility.yul\":23005:23022   */\n      swap1\n      pop\n        /* \"#utility.yul\":23044:23045   */\n      dup2\n        /* \"#utility.yul\":23038:23042   */\n      dup2\n        /* \"#utility.yul\":23035:23046   */\n      gt\n        /* \"#utility.yul\":23032:23069   */\n      iszero\n      tag_448\n      jumpi\n        /* \"#utility.yul\":23049:23067   */\n      tag_449\n      tag_194\n      jump\t// in\n    tag_449:\n        /* \"#utility.yul\":23032:23069   */\n    tag_448:\n        /* \"#utility.yul\":22882:23076   */\n      swap3\n      swap2\n      pop\n      pop\n      jump\t// out\n\n    auxdata: 0xa264697066735822122077e28fb9a2f48c2cf14574d50bf8633677a84b89bfd1c9425264470e8668354564736f6c63430008160033\n}\n",
				"bytecode": {
					"linkReferences": {},
					"object": "608060405234801561000f575f80fd5b50335f806101000a81548173ffffffffffffffffffffffffffffffffffffffff021916908373ffffffffffffffffffffffffffffffffffffffff160217905550611c158061005c5f395ff3fe608060405234801561000f575f80fd5b50600436106100f3575f3560e01c80637acc0b2011610095578063a85c38ef11610064578063a85c38ef1461024a578063bfe109281461027e578063ddff5e7d1461029c578063e0f6ef87146102b8576100f3565b80637acc0b20146101c3578063843f61e2146101f657806387950f4914610212578063a12df12e1461022e576100f3565b80631b697bb2116100d15780631b697bb21461014d5780632453ffa8146101695780637150d8ae1461018757806374754282146101a5576100f3565b806308551a53146100f7578063125b0b3414610115578063194c302c14610131575b5f80fd5b6100ff6102d6565b60405161010c9190610fc9565b60405180910390f35b61012f600480360381019061012a9190611162565b6102fb565b005b61014b600480360381019061014691906111ce565b61044f565b005b61016760048036038101906101629190611223565b61062f565b005b610171610744565b60405161017e919061125d565b60405180910390f35b61018f61074a565b60405161019c9190610fc9565b60405180910390f35b6101ad61076f565b6040516101ba9190610fc9565b60405180910390f35b6101dd60048036038101906101d891906111ce565b610792565b6040516101ed94939291906112f0565b60405180910390f35b610210600480360381019061020b919061133a565b610844565b005b61022c60048036038101906102279190611223565b610b2b565b005b61024860048036038101906102439190611223565b610bfb565b005b610264600480360381019061025f91906111ce565b610ccd565b6040516102759594939291906113eb565b60405180910390f35b610286610d2a565b6040516102939190610fc9565b60405180910390f35b6102b660048036038101906102b191906111ce565b610d4f565b005b6102c0610f84565b6040516102cd919061125d565b60405180910390f35b60025f9054906101000a900473ffffffffffffffffffffffffffffffffffffffff1681565b5f8054906101000a900473ffffffffffffffffffffffffffffffffffffffff1673ffffffffffffffffffffffffffffffffffffffff163373ffffffffffffffffffffffffffffffffffffffff1614610388576040517f08c379a000000000000000000000000000000000000000000000000000000000815260040161037f906114ac565b60405180910390fd5b60065f81548092919061039a906114f7565b91905055505f600654905060405180608001604052808281526020018581526020018481526020018381525060045f8381526020019081526020015f205f820151815f015560208201518160010190816103f49190611738565b5060408201518160020155606082015181600301559050507f0107e99fb43ba873db8a5ce7c34a12cd44cd3041167cff32040ddb6aca455ae68185858560405161044194939291906112f0565b60405180910390a150505050565b5f8054906101000a900473ffffffffffffffffffffffffffffffffffffffff1673ffffffffffffffffffffffffffffffffffffffff163373ffffffffffffffffffffffffffffffffffffffff16146104dc576040517f08c379a00000000000000000000000000000000000000000000000000000000081526004016104d3906114ac565b60405180910390fd5b808060055f8381526020019081526020015f205f015414610532576040517f08c379a000000000000000000000000000000000000000000000000000000000815260040161052990611851565b60405180910390fd5b5f600281111561054557610544611378565b5b60055f8481526020019081526020015f206004015f9054906101000a900460ff16600281111561057857610577611378565b5b146105b8576040517f08c379a00000000000000000000000000000000000000000000000000000000081526004016105af906118df565b60405180910390fd5b600160055f8481526020019081526020015f206004015f6101000a81548160ff021916908360028111156105ef576105ee611378565b5b02179055507fe3ce5f36666aec295b2ed1a858caf4782066e5e8c1a5a5da7ba6551b14fcfdcb82604051610623919061125d565b60405180910390a15050565b60025f9054906101000a900473ffffffffffffffffffffffffffffffffffffffff1673ffffffffffffffffffffffffffffffffffffffff163373ffffffffffffffffffffffffffffffffffffffff16146106be576040517f08c379a00000000000000000000000000000000000000000000000000000000081526004016106b59061196d565b60405180910390fd5b8060035f6101000a81548173ffffffffffffffffffffffffffffffffffffffff021916908373ffffffffffffffffffffffffffffffffffffffff1602179055508073ffffffffffffffffffffffffffffffffffffffff167fcd02002fe332b099bf26c14f8402cf0fb088aeea918cae00c687a874a1017f6460405160405180910390a250565b60075481565b60035f9054906101000a900473ffffffffffffffffffffffffffffffffffffffff1681565b5f8054906101000a900473ffffffffffffffffffffffffffffffffffffffff1681565b6004602052805f5260405f205f91509050805f0154908060010180546107b79061156b565b80601f01602080910402602001604051908101604052809291908181526020018280546107e39061156b565b801561082e5780601f106108055761010080835404028352916020019161082e565b820191905f5260205f20905b81548152906001019060200180831161081157829003601f168201915b5050505050908060020154908060030154905084565b60015f9054906101000a900473ffffffffffffffffffffffffffffffffffffffff1673ffffffffffffffffffffffffffffffffffffffff163373ffffffffffffffffffffffffffffffffffffffff16146108d3576040517f08c379a00000000000000000000000000000000000000000000000000000000081526004016108ca906119fb565b60405180910390fd5b818060045f8381526020019081526020015f205f015414610929576040517f08c379a000000000000000000000000000000000000000000000000000000000815260040161092090611a63565b60405180910390fd5b8160045f8581526020019081526020015f20600301541015610980576040517f08c379a000000000000000000000000000000000000000000000000000000000815260040161097790611acb565b60405180910390fd5b60075f815480929190610992906114f7565b91905055505f60075490506040518060a0016040528082815260200160015f9054906101000a900473ffffffffffffffffffffffffffffffffffffffff1673ffffffffffffffffffffffffffffffffffffffff1681526020018581526020018481526020015f6002811115610a0a57610a09611378565b5b81525060055f8381526020019081526020015f205f820151815f01556020820151816001015f6101000a81548173ffffffffffffffffffffffffffffffffffffffff021916908373ffffffffffffffffffffffffffffffffffffffff16021790555060408201518160020155606082015181600301556080820151816004015f6101000a81548160ff02191690836002811115610aaa57610aa9611378565b5b021790555090505060015f9054906101000a900473ffffffffffffffffffffffffffffffffffffffff1673ffffffffffffffffffffffffffffffffffffffff167f59827a9898740dc87f0e01c9f27ae034611bb083f06d7eb3efaef27336e3c4dd828686604051610b1d93929190611ae9565b60405180910390a250505050565b5f8054906101000a900473ffffffffffffffffffffffffffffffffffffffff1673ffffffffffffffffffffffffffffffffffffffff163373ffffffffffffffffffffffffffffffffffffffff1614610bb8576040517f08c379a0000000000000000000000000000000000000000000000000000000008152600401610baf906114ac565b60405180910390fd5b8060015f6101000a81548173ffffffffffffffffffffffffffffffffffffffff021916908373ffffffffffffffffffffffffffffffffffffffff16021790555050565b60015f9054906101000a900473ffffffffffffffffffffffffffffffffffffffff1673ffffffffffffffffffffffffffffffffffffffff163373ffffffffffffffffffffffffffffffffffffffff1614610c8a576040517f08c379a0000000000000000000000000000000000000000000000000000000008152600401610c81906119fb565b60405180910390fd5b8060025f6101000a81548173ffffffffffffffffffffffffffffffffffffffff021916908373ffffffffffffffffffffffffffffffffffffffff16021790555050565b6005602052805f5260405f205f91509050805f015490806001015f9054906101000a900473ffffffffffffffffffffffffffffffffffffffff1690806002015490806003015490806004015f9054906101000a900460ff16905085565b60015f9054906101000a900473ffffffffffffffffffffffffffffffffffffffff1681565b60015f9054906101000a900473ffffffffffffffffffffffffffffffffffffffff1673ffffffffffffffffffffffffffffffffffffffff163373ffffffffffffffffffffffffffffffffffffffff1614610dde576040517f08c379a0000000000000000000000000000000000000000000000000000000008152600401610dd5906119fb565b60405180910390fd5b808060055f8381526020019081526020015f205f015414610e34576040517f08c379a0000000000000000000000000000000000000000000000000000000008152600401610e2b90611851565b60405180910390fd5b60016002811115610e4857610e47611378565b5b60055f8481526020019081526020015f206004015f9054906101000a900460ff166002811115610e7b57610e7a611378565b5b14610ebb576040517f08c379a0000000000000000000000000000000000000000000000000000000008152600401610eb290611b8e565b60405180910390fd5b600260055f8481526020019081526020015f206004015f6101000a81548160ff02191690836002811115610ef257610ef1611378565b5b021790555060055f8381526020019081526020015f206003015460045f60055f8681526020019081526020015f206002015481526020019081526020015f206003015f828254610f429190611bac565b925050819055507fe21fe02c1589242b30be2057f54fd54b7ddc463695d19ffdb54f9ebb0584f24a82604051610f78919061125d565b60405180910390a15050565b60065481565b5f73ffffffffffffffffffffffffffffffffffffffff82169050919050565b5f610fb382610f8a565b9050919050565b610fc381610fa9565b82525050565b5f602082019050610fdc5f830184610fba565b92915050565b5f604051905090565b5f80fd5b5f80fd5b5f80fd5b5f80fd5b5f601f19601f8301169050919050565b7f4e487b71000000000000000000000000000000000000000000000000000000005f52604160045260245ffd5b61104182610ffb565b810181811067ffffffffffffffff821117156110605761105f61100b565b5b80604052505050565b5f611072610fe2565b905061107e8282611038565b919050565b5f67ffffffffffffffff82111561109d5761109c61100b565b5b6110a682610ffb565b9050602081019050919050565b828183375f83830152505050565b5f6110d36110ce84611083565b611069565b9050828152602081018484840111156110ef576110ee610ff7565b5b6110fa8482856110b3565b509392505050565b5f82601f83011261111657611115610ff3565b5b81356111268482602086016110c1565b91505092915050565b5f819050919050565b6111418161112f565b811461114b575f80fd5b50565b5f8135905061115c81611138565b92915050565b5f805f6060848603121561117957611178610feb565b5b5f84013567ffffffffffffffff81111561119657611195610fef565b5b6111a286828701611102565b93505060206111b38682870161114e565b92505060406111c48682870161114e565b9150509250925092565b5f602082840312156111e3576111e2610feb565b5b5f6111f08482850161114e565b91505092915050565b61120281610fa9565b811461120c575f80fd5b50565b5f8135905061121d816111f9565b92915050565b5f6020828403121561123857611237610feb565b5b5f6112458482850161120f565b91505092915050565b6112578161112f565b82525050565b5f6020820190506112705f83018461124e565b92915050565b5f81519050919050565b5f82825260208201905092915050565b5f5b838110156112ad578082015181840152602081019050611292565b5f8484015250505050565b5f6112c282611276565b6112cc8185611280565b93506112dc818560208601611290565b6112e581610ffb565b840191505092915050565b5f6080820190506113035f83018761124e565b818103602083015261131581866112b8565b9050611324604083018561124e565b611331606083018461124e565b95945050505050565b5f80604083850312156113505761134f610feb565b5b5f61135d8582860161114e565b925050602061136e8582860161114e565b9150509250929050565b7f4e487b71000000000000000000000000000000000000000000000000000000005f52602160045260245ffd5b600381106113b6576113b5611378565b5b50565b5f8190506113c6826113a5565b919050565b5f6113d5826113b9565b9050919050565b6113e5816113cb565b82525050565b5f60a0820190506113fe5f83018861124e565b61140b6020830187610fba565b611418604083018661124e565b611425606083018561124e565b61143260808301846113dc565b9695505050505050565b7f4f6e6c7920746865206d616e7566616374757265722063616e2063616c6c20745f8201527f6869732066756e6374696f6e0000000000000000000000000000000000000000602082015250565b5f611496602c83611280565b91506114a18261143c565b604082019050919050565b5f6020820190508181035f8301526114c38161148a565b9050919050565b7f4e487b71000000000000000000000000000000000000000000000000000000005f52601160045260245ffd5b5f6115018261112f565b91507fffffffffffffffffffffffffffffffffffffffffffffffffffffffffffffffff8203611533576115326114ca565b5b600182019050919050565b7f4e487b71000000000000000000000000000000000000000000000000000000005f52602260045260245ffd5b5f600282049050600182168061158257607f821691505b6020821081036115955761159461153e565b5b50919050565b5f819050815f5260205f209050919050565b5f6020601f8301049050919050565b5f82821b905092915050565b5f600883026115f77fffffffffffffffffffffffffffffffffffffffffffffffffffffffffffffffff826115bc565b61160186836115bc565b95508019841693508086168417925050509392505050565b5f819050919050565b5f61163c6116376116328461112f565b611619565b61112f565b9050919050565b5f819050919050565b61165583611622565b61166961166182611643565b8484546115c8565b825550505050565b5f90565b61167d611671565b61168881848461164c565b505050565b5b818110156116ab576116a05f82611675565b60018101905061168e565b5050565b601f8211156116f0576116c18161159b565b6116ca846115ad565b810160208510156116d9578190505b6116ed6116e5856115ad565b83018261168d565b50505b505050565b5f82821c905092915050565b5f6117105f19846008026116f5565b1980831691505092915050565b5f6117288383611701565b9150826002028217905092915050565b61174182611276565b67ffffffffffffffff81111561175a5761175961100b565b5b611764825461156b565b61176f8282856116af565b5f60209050601f8311600181146117a0575f841561178e578287015190505b611798858261171d565b8655506117ff565b601f1984166117ae8661159b565b5f5b828110156117d5578489015182556001820191506020850194506020810190506117b0565b868310156117f257848901516117ee601f891682611701565b8355505b6001600288020188555050505b505050505050565b7f4f7264657220646f6573206e6f742065786973740000000000000000000000005f82015250565b5f61183b601483611280565b915061184682611807565b602082019050919050565b5f6020820190508181035f8301526118688161182f565b9050919050565b7f4f72646572206973206e6f7420696e206120736869707061626c6520737461745f8201527f6500000000000000000000000000000000000000000000000000000000000000602082015250565b5f6118c9602183611280565b91506118d48261186f565b604082019050919050565b5f6020820190508181035f8301526118f6816118bd565b9050919050565b7f4f6e6c79207468652073656c6c65722063616e2063616c6c20746869732066755f8201527f6e6374696f6e0000000000000000000000000000000000000000000000000000602082015250565b5f611957602683611280565b9150611962826118fd565b604082019050919050565b5f6020820190508181035f8301526119848161194b565b9050919050565b7f4f6e6c7920746865206469737472696275746f722063616e2063616c6c2074685f8201527f69732066756e6374696f6e000000000000000000000000000000000000000000602082015250565b5f6119e5602b83611280565b91506119f08261198b565b604082019050919050565b5f6020820190508181035f830152611a12816119d9565b9050919050565b7f50726f6475637420646f6573206e6f74206578697374000000000000000000005f82015250565b5f611a4d601683611280565b9150611a5882611a19565b602082019050919050565b5f6020820190508181035f830152611a7a81611a41565b9050919050565b7f4e6f7420656e6f7567682073746f636b000000000000000000000000000000005f82015250565b5f611ab5601083611280565b9150611ac082611a81565b602082019050919050565b5f6020820190508181035f830152611ae281611aa9565b9050919050565b5f606082019050611afc5f83018661124e565b611b09602083018561124e565b611b16604083018461124e565b949350505050565b7f4f72646572206973206e6f7420696e20612064656c6976657261626c652073745f8201527f6174650000000000000000000000000000000000000000000000000000000000602082015250565b5f611b78602383611280565b9150611b8382611b1e565b604082019050919050565b5f6020820190508181035f830152611ba581611b6c565b9050919050565b5f611bb68261112f565b9150611bc18361112f565b9250828203905081811115611bd957611bd86114ca565b5b9291505056fea264697066735822122077e28fb9a2f48c2cf14574d50bf8633677a84b89bfd1c9425264470e8668354564736f6c63430008160033",
					"opcodes": "PUSH1 0x80 PUSH1 0x40 MSTORE CALLVALUE DUP1 ISZERO PUSH2 0xF JUMPI PUSH0 DUP1 REVERT JUMPDEST POP CALLER PUSH0 DUP1 PUSH2 0x100 EXP DUP2 SLOAD DUP2 PUSH20 0xFFFFFFFFFFFFFFFFFFFFFFFFFFFFFFFFFFFFFFFF MUL NOT AND SWAP1 DUP4 PUSH20 0xFFFFFFFFFFFFFFFFFFFFFFFFFFFFFFFFFFFFFFFF AND MUL OR SWAP1 SSTORE POP PUSH2 0x1C15 DUP1 PUSH2 0x5C PUSH0 CODECOPY PUSH0 RETURN INVALID PUSH1 0x80 PUSH1 0x40 MSTORE CALLVALUE DUP1 ISZERO PUSH2 0xF JUMPI PUSH0 DUP1 REVERT JUMPDEST POP PUSH1 0x4 CALLDATASIZE LT PUSH2 0xF3 JUMPI PUSH0 CALLDATALOAD PUSH1 0xE0 SHR DUP1 PUSH4 0x7ACC0B20 GT PUSH2 0x95 JUMPI DUP1 PUSH4 0xA85C38EF GT PUSH2 0x64 JUMPI DUP1 PUSH4 0xA85C38EF EQ PUSH2 0x24A JUMPI DUP1 PUSH4 0xBFE10928 EQ PUSH2 0x27E JUMPI DUP1 PUSH4 0xDDFF5E7D EQ PUSH2 0x29C JUMPI DUP1 PUSH4 0xE0F6EF87 EQ PUSH2 0x2B8 JUMPI PUSH2 0xF3 JUMP JUMPDEST DUP1 PUSH4 0x7ACC0B20 EQ PUSH2 0x1C3 JUMPI DUP1 PUSH4 0x843F61E2 EQ PUSH2 0x1F6 JUMPI DUP1 PUSH4 0x87950F49 EQ PUSH2 0x212 JUMPI DUP1 PUSH4 0xA12DF12E EQ PUSH2 0x22E JUMPI PUSH2 0xF3 JUMP JUMPDEST DUP1 PUSH4 0x1B697BB2 GT PUSH2 0xD1 JUMPI DUP1 PUSH4 0x1B697BB2 EQ PUSH2 0x14D JUMPI DUP1 PUSH4 0x2453FFA8 EQ PUSH2 0x169 JUMPI DUP1 PUSH4 0x7150D8AE EQ PUSH2 0x187 JUMPI DUP1 PUSH4 0x74754282 EQ PUSH2 0x1A5 JUMPI PUSH2 0xF3 JUMP JUMPDEST DUP1 PUSH4 0x8551A53 EQ PUSH2 0xF7 JUMPI DUP1 PUSH4 0x125B0B34 EQ PUSH2 0x115 JUMPI DUP1 PUSH4 0x194C302C EQ PUSH2 0x131 JUMPI JUMPDEST PUSH0 DUP1 REVERT JUMPDEST PUSH2 0xFF PUSH2 0x2D6 JUMP JUMPDEST PUSH1 0x40 MLOAD PUSH2 0x10C SWAP2 SWAP1 PUSH2 0xFC9 JUMP JUMPDEST PUSH1 0x40 MLOAD DUP1 SWAP2 SUB SWAP1 RETURN JUMPDEST PUSH2 0x12F PUSH1 0x4 DUP1 CALLDATASIZE SUB DUP2 ADD SWAP1 PUSH2 0x12A SWAP2 SWAP1 PUSH2 0x1162 JUMP JUMPDEST PUSH2 0x2FB JUMP JUMPDEST STOP JUMPDEST PUSH2 0x14B PUSH1 0x4 DUP1 CALLDATASIZE SUB DUP2 ADD SWAP1 PUSH2 0x146 SWAP2 SWAP1 PUSH2 0x11CE JUMP JUMPDEST PUSH2 0x44F JUMP JUMPDEST STOP JUMPDEST PUSH2 0x167 PUSH1 0x4 DUP1 CALLDATASIZE SUB DUP2 ADD SWAP1 PUSH2 0x162 SWAP2 SWAP1 PUSH2 0x1223 JUMP JUMPDEST PUSH2 0x62F JUMP JUMPDEST STOP JUMPDEST PUSH2 0x171 PUSH2 0x744 JUMP JUMPDEST PUSH1 0x40 MLOAD PUSH2 0x17E SWAP2 SWAP1 PUSH2 0x125D JUMP JUMPDEST PUSH1 0x40 MLOAD DUP1 SWAP2 SUB SWAP1 RETURN JUMPDEST PUSH2 0x18F PUSH2 0x74A JUMP JUMPDEST PUSH1 0x40 MLOAD PUSH2 0x19C SWAP2 SWAP1 PUSH2 0xFC9 JUMP JUMPDEST PUSH1 0x40 MLOAD DUP1 SWAP2 SUB SWAP1 RETURN JUMPDEST PUSH2 0x1AD PUSH2 0x76F JUMP JUMPDEST PUSH1 0x40 MLOAD PUSH2 0x1BA SWAP2 SWAP1 PUSH2 0xFC9 JUMP JUMPDEST PUSH1 0x40 MLOAD DUP1 SWAP2 SUB SWAP1 RETURN JUMPDEST PUSH2 0x1DD PUSH1 0x4 DUP1 CALLDATASIZE SUB DUP2 ADD SWAP1 PUSH2 0x1D8 SWAP2 SWAP1 PUSH2 0x11CE JUMP JUMPDEST PUSH2 0x792 JUMP JUMPDEST PUSH1 0x40 MLOAD PUSH2 0x1ED SWAP5 SWAP4 SWAP3 SWAP2 SWAP1 PUSH2 0x12F0 JUMP JUMPDEST PUSH1 0x40 MLOAD DUP1 SWAP2 SUB SWAP1 RETURN JUMPDEST PUSH2 0x210 PUSH1 0x4 DUP1 CALLDATASIZE SUB DUP2 ADD SWAP1 PUSH2 0x20B SWAP2 SWAP1 PUSH2 0x133A JUMP JUMPDEST PUSH2 0x844 JUMP JUMPDEST STOP JUMPDEST PUSH2 0x22C PUSH1 0x4 DUP1 CALLDATASIZE SUB DUP2 ADD SWAP1 PUSH2 0x227 SWAP2 SWAP1 PUSH2 0x1223 JUMP JUMPDEST PUSH2 0xB2B JUMP JUMPDEST STOP JUMPDEST PUSH2 0x248 PUSH1 0x4 DUP1 CALLDATASIZE SUB DUP2 ADD SWAP1 PUSH2 0x243 SWAP2 SWAP1 PUSH2 0x1223 JUMP JUMPDEST PUSH2 0xBFB JUMP JUMPDEST STOP JUMPDEST PUSH2 0x264 PUSH1 0x4 DUP1 CALLDATASIZE SUB DUP2 ADD SWAP1 PUSH2 0x25F SWAP2 SWAP1 PUSH2 0x11CE JUMP JUMPDEST PUSH2 0xCCD JUMP JUMPDEST PUSH1 0x40 MLOAD PUSH2 0x275 SWAP6 SWAP5 SWAP4 SWAP3 SWAP2 SWAP1 PUSH2 0x13EB JUMP JUMPDEST PUSH1 0x40 MLOAD DUP1 SWAP2 SUB SWAP1 RETURN JUMPDEST PUSH2 0x286 PUSH2 0xD2A JUMP JUMPDEST PUSH1 0x40 MLOAD PUSH2 0x293 SWAP2 SWAP1 PUSH2 0xFC9 JUMP JUMPDEST PUSH1 0x40 MLOAD DUP1 SWAP2 SUB SWAP1 RETURN JUMPDEST PUSH2 0x2B6 PUSH1 0x4 DUP1 CALLDATASIZE SUB DUP2 ADD SWAP1 PUSH2 0x2B1 SWAP2 SWAP1 PUSH2 0x11CE JUMP JUMPDEST PUSH2 0xD4F JUMP JUMPDEST STOP JUMPDEST PUSH2 0x2C0 PUSH2 0xF84 JUMP JUMPDEST PUSH1 0x40 MLOAD PUSH2 0x2CD SWAP2 SWAP1 PUSH2 0x125D JUMP JUMPDEST PUSH1 0x40 MLOAD DUP1 SWAP2 SUB SWAP1 RETURN JUMPDEST PUSH1 0x2 PUSH0 SWAP1 SLOAD SWAP1 PUSH2 0x100 EXP SWAP1 DIV PUSH20 0xFFFFFFFFFFFFFFFFFFFFFFFFFFFFFFFFFFFFFFFF AND DUP2 JUMP JUMPDEST PUSH0 DUP1 SLOAD SWAP1 PUSH2 0x100 EXP SWAP1 DIV PUSH20 0xFFFFFFFFFFFFFFFFFFFFFFFFFFFFFFFFFFFFFFFF AND PUSH20 0xFFFFFFFFFFFFFFFFFFFFFFFFFFFFFFFFFFFFFFFF AND CALLER PUSH20 0xFFFFFFFFFFFFFFFFFFFFFFFFFFFFFFFFFFFFFFFF AND EQ PUSH2 0x388 JUMPI PUSH1 0x40 MLOAD PUSH32 0x8C379A000000000000000000000000000000000000000000000000000000000 DUP2 MSTORE PUSH1 0x4 ADD PUSH2 0x37F SWAP1 PUSH2 0x14AC JUMP JUMPDEST PUSH1 0x40 MLOAD DUP1 SWAP2 SUB SWAP1 REVERT JUMPDEST PUSH1 0x6 PUSH0 DUP2 SLOAD DUP1 SWAP3 SWAP2 SWAP1 PUSH2 0x39A SWAP1 PUSH2 0x14F7 JUMP JUMPDEST SWAP2 SWAP1 POP SSTORE POP PUSH0 PUSH1 0x6 SLOAD SWAP1 POP PUSH1 0x40 MLOAD DUP1 PUSH1 0x80 ADD PUSH1 0x40 MSTORE DUP1 DUP3 DUP2 MSTORE PUSH1 0x20 ADD DUP6 DUP2 MSTORE PUSH1 0x20 ADD DUP5 DUP2 MSTORE PUSH1 0x20 ADD DUP4 DUP2 MSTORE POP PUSH1 0x4 PUSH0 DUP4 DUP2 MSTORE PUSH1 0x20 ADD SWAP1 DUP2 MSTORE PUSH1 0x20 ADD PUSH0 KECCAK256 PUSH0 DUP3 ADD MLOAD DUP2 PUSH0 ADD SSTORE PUSH1 0x20 DUP3 ADD MLOAD DUP2 PUSH1 0x1 ADD SWAP1 DUP2 PUSH2 0x3F4 SWAP2 SWAP1 PUSH2 0x1738 JUMP JUMPDEST POP PUSH1 0x40 DUP3 ADD MLOAD DUP2 PUSH1 0x2 ADD SSTORE PUSH1 0x60 DUP3 ADD MLOAD DUP2 PUSH1 0x3 ADD SSTORE SWAP1 POP POP PUSH32 0x107E99FB43BA873DB8A5CE7C34A12CD44CD3041167CFF32040DDB6ACA455AE6 DUP2 DUP6 DUP6 DUP6 PUSH1 0x40 MLOAD PUSH2 0x441 SWAP5 SWAP4 SWAP3 SWAP2 SWAP1 PUSH2 0x12F0 JUMP JUMPDEST PUSH1 0x40 MLOAD DUP1 SWAP2 SUB SWAP1 LOG1 POP POP POP POP JUMP JUMPDEST PUSH0 DUP1 SLOAD SWAP1 PUSH2 0x100 EXP SWAP1 DIV PUSH20 0xFFFFFFFFFFFFFFFFFFFFFFFFFFFFFFFFFFFFFFFF AND PUSH20 0xFFFFFFFFFFFFFFFFFFFFFFFFFFFFFFFFFFFFFFFF AND CALLER PUSH20 0xFFFFFFFFFFFFFFFFFFFFFFFFFFFFFFFFFFFFFFFF AND EQ PUSH2 0x4DC JUMPI PUSH1 0x40 MLOAD PUSH32 0x8C379A000000000000000000000000000000000000000000000000000000000 DUP2 MSTORE PUSH1 0x4 ADD PUSH2 0x4D3 SWAP1 PUSH2 0x14AC JUMP JUMPDEST PUSH1 0x40 MLOAD DUP1 SWAP2 SUB SWAP1 REVERT JUMPDEST DUP1 DUP1 PUSH1 0x5 PUSH0 DUP4 DUP2 MSTORE PUSH1 0x20 ADD SWAP1 DUP2 MSTORE PUSH1 0x20 ADD PUSH0 KECCAK256 PUSH0 ADD SLOAD EQ PUSH2 0x532 JUMPI PUSH1 0x40 MLOAD PUSH32 0x8C379A000000000000000000000000000000000000000000000000000000000 DUP2 MSTORE PUSH1 0x4 ADD PUSH2 0x529 SWAP1 PUSH2 0x1851 JUMP JUMPDEST PUSH1 0x40 MLOAD DUP1 SWAP2 SUB SWAP1 REVERT JUMPDEST PUSH0 PUSH1 0x2 DUP2 GT ISZERO PUSH2 0x545 JUMPI PUSH2 0x544 PUSH2 0x1378 JUMP JUMPDEST JUMPDEST PUSH1 0x5 PUSH0 DUP5 DUP2 MSTORE PUSH1 0x20 ADD SWAP1 DUP2 MSTORE PUSH1 0x20 ADD PUSH0 KECCAK256 PUSH1 0x4 ADD PUSH0 SWAP1 SLOAD SWAP1 PUSH2 0x100 EXP SWAP1 DIV PUSH1 0xFF AND PUSH1 0x2 DUP2 GT ISZERO PUSH2 0x578 JUMPI PUSH2 0x577 PUSH2 0x1378 JUMP JUMPDEST JUMPDEST EQ PUSH2 0x5B8 JUMPI PUSH1 0x40 MLOAD PUSH32 0x8C379A000000000000000000000000000000000000000000000000000000000 DUP2 MSTORE PUSH1 0x4 ADD PUSH2 0x5AF SWAP1 PUSH2 0x18DF JUMP JUMPDEST PUSH1 0x40 MLOAD DUP1 SWAP2 SUB SWAP1 REVERT JUMPDEST PUSH1 0x1 PUSH1 0x5 PUSH0 DUP5 DUP2 MSTORE PUSH1 0x20 ADD SWAP1 DUP2 MSTORE PUSH1 0x20 ADD PUSH0 KECCAK256 PUSH1 0x4 ADD PUSH0 PUSH2 0x100 EXP DUP2 SLOAD DUP2 PUSH1 0xFF MUL NOT AND SWAP1 DUP4 PUSH1 0x2 DUP2 GT ISZERO PUSH2 0x5EF JUMPI PUSH2 0x5EE PUSH2 0x1378 JUMP JUMPDEST JUMPDEST MUL OR SWAP1 SSTORE POP PUSH32 0xE3CE5F36666AEC295B2ED1A858CAF4782066E5E8C1A5A5DA7BA6551B14FCFDCB DUP3 PUSH1 0x40 MLOAD PUSH2 0x623 SWAP2 SWAP1 PUSH2 0x125D JUMP JUMPDEST PUSH1 0x40 MLOAD DUP1 SWAP2 SUB SWAP1 LOG1 POP POP JUMP JUMPDEST PUSH1 0x2 PUSH0 SWAP1 SLOAD SWAP1 PUSH2 0x100 EXP SWAP1 DIV PUSH20 0xFFFFFFFFFFFFFFFFFFFFFFFFFFFFFFFFFFFFFFFF AND PUSH20 0xFFFFFFFFFFFFFFFFFFFFFFFFFFFFFFFFFFFFFFFF AND CALLER PUSH20 0xFFFFFFFFFFFFFFFFFFFFFFFFFFFFFFFFFFFFFFFF AND EQ PUSH2 0x6BE JUMPI PUSH1 0x40 MLOAD PUSH32 0x8C379A000000000000000000000000000000000000000000000000000000000 DUP2 MSTORE PUSH1 0x4 ADD PUSH2 0x6B5 SWAP1 PUSH2 0x196D JUMP JUMPDEST PUSH1 0x40 MLOAD DUP1 SWAP2 SUB SWAP1 REVERT JUMPDEST DUP1 PUSH1 0x3 PUSH0 PUSH2 0x100 EXP DUP2 SLOAD DUP2 PUSH20 0xFFFFFFFFFFFFFFFFFFFFFFFFFFFFFFFFFFFFFFFF MUL NOT AND SWAP1 DUP4 PUSH20 0xFFFFFFFFFFFFFFFFFFFFFFFFFFFFFFFFFFFFFFFF AND MUL OR SWAP1 SSTORE POP DUP1 PUSH20 0xFFFFFFFFFFFFFFFFFFFFFFFFFFFFFFFFFFFFFFFF AND PUSH32 0xCD02002FE332B099BF26C14F8402CF0FB088AEEA918CAE00C687A874A1017F64 PUSH1 0x40 MLOAD PUSH1 0x40 MLOAD DUP1 SWAP2 SUB SWAP1 LOG2 POP JUMP JUMPDEST PUSH1 0x7 SLOAD DUP2 JUMP JUMPDEST PUSH1 0x3 PUSH0 SWAP1 SLOAD SWAP1 PUSH2 0x100 EXP SWAP1 DIV PUSH20 0xFFFFFFFFFFFFFFFFFFFFFFFFFFFFFFFFFFFFFFFF AND DUP2 JUMP JUMPDEST PUSH0 DUP1 SLOAD SWAP1 PUSH2 0x100 EXP SWAP1 DIV PUSH20 0xFFFFFFFFFFFFFFFFFFFFFFFFFFFFFFFFFFFFFFFF AND DUP2 JUMP JUMPDEST PUSH1 0x4 PUSH1 0x20 MSTORE DUP1 PUSH0 MSTORE PUSH1 0x40 PUSH0 KECCAK256 PUSH0 SWAP2 POP SWAP1 POP DUP1 PUSH0 ADD SLOAD SWAP1 DUP1 PUSH1 0x1 ADD DUP1 SLOAD PUSH2 0x7B7 SWAP1 PUSH2 0x156B JUMP JUMPDEST DUP1 PUSH1 0x1F ADD PUSH1 0x20 DUP1 SWAP2 DIV MUL PUSH1 0x20 ADD PUSH1 0x40 MLOAD SWAP1 DUP2 ADD PUSH1 0x40 MSTORE DUP1 SWAP3 SWAP2 SWAP1 DUP2 DUP2 MSTORE PUSH1 0x20 ADD DUP3 DUP1 SLOAD PUSH2 0x7E3 SWAP1 PUSH2 0x156B JUMP JUMPDEST DUP1 ISZERO PUSH2 0x82E JUMPI DUP1 PUSH1 0x1F LT PUSH2 0x805 JUMPI PUSH2 0x100 DUP1 DUP4 SLOAD DIV MUL DUP4 MSTORE SWAP2 PUSH1 0x20 ADD SWAP2 PUSH2 0x82E JUMP JUMPDEST DUP3 ADD SWAP2 SWAP1 PUSH0 MSTORE PUSH1 0x20 PUSH0 KECCAK256 SWAP1 JUMPDEST DUP2 SLOAD DUP2 MSTORE SWAP1 PUSH1 0x1 ADD SWAP1 PUSH1 0x20 ADD DUP1 DUP4 GT PUSH2 0x811 JUMPI DUP3 SWAP1 SUB PUSH1 0x1F AND DUP3 ADD SWAP2 JUMPDEST POP POP POP POP POP SWAP1 DUP1 PUSH1 0x2 ADD SLOAD SWAP1 DUP1 PUSH1 0x3 ADD SLOAD SWAP1 POP DUP5 JUMP JUMPDEST PUSH1 0x1 PUSH0 SWAP1 SLOAD SWAP1 PUSH2 0x100 EXP SWAP1 DIV PUSH20 0xFFFFFFFFFFFFFFFFFFFFFFFFFFFFFFFFFFFFFFFF AND PUSH20 0xFFFFFFFFFFFFFFFFFFFFFFFFFFFFFFFFFFFFFFFF AND CALLER PUSH20 0xFFFFFFFFFFFFFFFFFFFFFFFFFFFFFFFFFFFFFFFF AND EQ PUSH2 0x8D3 JUMPI PUSH1 0x40 MLOAD PUSH32 0x8C379A000000000000000000000000000000000000000000000000000000000 DUP2 MSTORE PUSH1 0x4 ADD PUSH2 0x8CA SWAP1 PUSH2 0x19FB JUMP JUMPDEST PUSH1 0x40 MLOAD DUP1 SWAP2 SUB SWAP1 REVERT JUMPDEST DUP2 DUP1 PUSH1 0x4 PUSH0 DUP4 DUP2 MSTORE PUSH1 0x20 ADD SWAP1 DUP2 MSTORE PUSH1 0x20 ADD PUSH0 KECCAK256 PUSH0 ADD SLOAD EQ PUSH2 0x929 JUMPI PUSH1 0x40 MLOAD PUSH32 0x8C379A000000000000000000000000000000000000000000000000000000000 DUP2 MSTORE PUSH1 0x4 ADD PUSH2 0x920 SWAP1 PUSH2 0x1A63 JUMP JUMPDEST PUSH1 0x40 MLOAD DUP1 SWAP2 SUB SWAP1 REVERT JUMPDEST DUP2 PUSH1 0x4 PUSH0 DUP6 DUP2 MSTORE PUSH1 0x20 ADD SWAP1 DUP2 MSTORE PUSH1 0x20 ADD PUSH0 KECCAK256 PUSH1 0x3 ADD SLOAD LT ISZERO PUSH2 0x980 JUMPI PUSH1 0x40 MLOAD PUSH32 0x8C379A000000000000000000000000000000000000000000000000000000000 DUP2 MSTORE PUSH1 0x4 ADD PUSH2 0x977 SWAP1 PUSH2 0x1ACB JUMP JUMPDEST PUSH1 0x40 MLOAD DUP1 SWAP2 SUB SWAP1 REVERT JUMPDEST PUSH1 0x7 PUSH0 DUP2 SLOAD DUP1 SWAP3 SWAP2 SWAP1 PUSH2 0x992 SWAP1 PUSH2 0x14F7 JUMP JUMPDEST SWAP2 SWAP1 POP SSTORE POP PUSH0 PUSH1 0x7 SLOAD SWAP1 POP PUSH1 0x40 MLOAD DUP1 PUSH1 0xA0 ADD PUSH1 0x40 MSTORE DUP1 DUP3 DUP2 MSTORE PUSH1 0x20 ADD PUSH1 0x1 PUSH0 SWAP1 SLOAD SWAP1 PUSH2 0x100 EXP SWAP1 DIV PUSH20 0xFFFFFFFFFFFFFFFFFFFFFFFFFFFFFFFFFFFFFFFF AND PUSH20 0xFFFFFFFFFFFFFFFFFFFFFFFFFFFFFFFFFFFFFFFF AND DUP2 MSTORE PUSH1 0x20 ADD DUP6 DUP2 MSTORE PUSH1 0x20 ADD DUP5 DUP2 MSTORE PUSH1 0x20 ADD PUSH0 PUSH1 0x2 DUP2 GT ISZERO PUSH2 0xA0A JUMPI PUSH2 0xA09 PUSH2 0x1378 JUMP JUMPDEST JUMPDEST DUP2 MSTORE POP PUSH1 0x5 PUSH0 DUP4 DUP2 MSTORE PUSH1 0x20 ADD SWAP1 DUP2 MSTORE PUSH1 0x20 ADD PUSH0 KECCAK256 PUSH0 DUP3 ADD MLOAD DUP2 PUSH0 ADD SSTORE PUSH1 0x20 DUP3 ADD MLOAD DUP2 PUSH1 0x1 ADD PUSH0 PUSH2 0x100 EXP DUP2 SLOAD DUP2 PUSH20 0xFFFFFFFFFFFFFFFFFFFFFFFFFFFFFFFFFFFFFFFF MUL NOT AND SWAP1 DUP4 PUSH20 0xFFFFFFFFFFFFFFFFFFFFFFFFFFFFFFFFFFFFFFFF AND MUL OR SWAP1 SSTORE POP PUSH1 0x40 DUP3 ADD MLOAD DUP2 PUSH1 0x2 ADD SSTORE PUSH1 0x60 DUP3 ADD MLOAD DUP2 PUSH1 0x3 ADD SSTORE PUSH1 0x80 DUP3 ADD MLOAD DUP2 PUSH1 0x4 ADD PUSH0 PUSH2 0x100 EXP DUP2 SLOAD DUP2 PUSH1 0xFF MUL NOT AND SWAP1 DUP4 PUSH1 0x2 DUP2 GT ISZERO PUSH2 0xAAA JUMPI PUSH2 0xAA9 PUSH2 0x1378 JUMP JUMPDEST JUMPDEST MUL OR SWAP1 SSTORE POP SWAP1 POP POP PUSH1 0x1 PUSH0 SWAP1 SLOAD SWAP1 PUSH2 0x100 EXP SWAP1 DIV PUSH20 0xFFFFFFFFFFFFFFFFFFFFFFFFFFFFFFFFFFFFFFFF AND PUSH20 0xFFFFFFFFFFFFFFFFFFFFFFFFFFFFFFFFFFFFFFFF AND PUSH32 0x59827A9898740DC87F0E01C9F27AE034611BB083F06D7EB3EFAEF27336E3C4DD DUP3 DUP7 DUP7 PUSH1 0x40 MLOAD PUSH2 0xB1D SWAP4 SWAP3 SWAP2 SWAP1 PUSH2 0x1AE9 JUMP JUMPDEST PUSH1 0x40 MLOAD DUP1 SWAP2 SUB SWAP1 LOG2 POP POP POP POP JUMP JUMPDEST PUSH0 DUP1 SLOAD SWAP1 PUSH2 0x100 EXP SWAP1 DIV PUSH20 0xFFFFFFFFFFFFFFFFFFFFFFFFFFFFFFFFFFFFFFFF AND PUSH20 0xFFFFFFFFFFFFFFFFFFFFFFFFFFFFFFFFFFFFFFFF AND CALLER PUSH20 0xFFFFFFFFFFFFFFFFFFFFFFFFFFFFFFFFFFFFFFFF AND EQ PUSH2 0xBB8 JUMPI PUSH1 0x40 MLOAD PUSH32 0x8C379A000000000000000000000000000000000000000000000000000000000 DUP2 MSTORE PUSH1 0x4 ADD PUSH2 0xBAF SWAP1 PUSH2 0x14AC JUMP JUMPDEST PUSH1 0x40 MLOAD DUP1 SWAP2 SUB SWAP1 REVERT JUMPDEST DUP1 PUSH1 0x1 PUSH0 PUSH2 0x100 EXP DUP2 SLOAD DUP2 PUSH20 0xFFFFFFFFFFFFFFFFFFFFFFFFFFFFFFFFFFFFFFFF MUL NOT AND SWAP1 DUP4 PUSH20 0xFFFFFFFFFFFFFFFFFFFFFFFFFFFFFFFFFFFFFFFF AND MUL OR SWAP1 SSTORE POP POP JUMP JUMPDEST PUSH1 0x1 PUSH0 SWAP1 SLOAD SWAP1 PUSH2 0x100 EXP SWAP1 DIV PUSH20 0xFFFFFFFFFFFFFFFFFFFFFFFFFFFFFFFFFFFFFFFF AND PUSH20 0xFFFFFFFFFFFFFFFFFFFFFFFFFFFFFFFFFFFFFFFF AND CALLER PUSH20 0xFFFFFFFFFFFFFFFFFFFFFFFFFFFFFFFFFFFFFFFF AND EQ PUSH2 0xC8A JUMPI PUSH1 0x40 MLOAD PUSH32 0x8C379A000000000000000000000000000000000000000000000000000000000 DUP2 MSTORE PUSH1 0x4 ADD PUSH2 0xC81 SWAP1 PUSH2 0x19FB JUMP JUMPDEST PUSH1 0x40 MLOAD DUP1 SWAP2 SUB SWAP1 REVERT JUMPDEST DUP1 PUSH1 0x2 PUSH0 PUSH2 0x100 EXP DUP2 SLOAD DUP2 PUSH20 0xFFFFFFFFFFFFFFFFFFFFFFFFFFFFFFFFFFFFFFFF MUL NOT AND SWAP1 DUP4 PUSH20 0xFFFFFFFFFFFFFFFFFFFFFFFFFFFFFFFFFFFFFFFF AND MUL OR SWAP1 SSTORE POP POP JUMP JUMPDEST PUSH1 0x5 PUSH1 0x20 MSTORE DUP1 PUSH0 MSTORE PUSH1 0x40 PUSH0 KECCAK256 PUSH0 SWAP2 POP SWAP1 POP DUP1 PUSH0 ADD SLOAD SWAP1 DUP1 PUSH1 0x1 ADD PUSH0 SWAP1 SLOAD SWAP1 PUSH2 0x100 EXP SWAP1 DIV PUSH20 0xFFFFFFFFFFFFFFFFFFFFFFFFFFFFFFFFFFFFFFFF AND SWAP1 DUP1 PUSH1 0x2 ADD SLOAD SWAP1 DUP1 PUSH1 0x3 ADD SLOAD SWAP1 DUP1 PUSH1 0x4 ADD PUSH0 SWAP1 SLOAD SWAP1 PUSH2 0x100 EXP SWAP1 DIV PUSH1 0xFF AND SWAP1 POP DUP6 JUMP JUMPDEST PUSH1 0x1 PUSH0 SWAP1 SLOAD SWAP1 PUSH2 0x100 EXP SWAP1 DIV PUSH20 0xFFFFFFFFFFFFFFFFFFFFFFFFFFFFFFFFFFFFFFFF AND DUP2 JUMP JUMPDEST PUSH1 0x1 PUSH0 SWAP1 SLOAD SWAP1 PUSH2 0x100 EXP SWAP1 DIV PUSH20 0xFFFFFFFFFFFFFFFFFFFFFFFFFFFFFFFFFFFFFFFF AND PUSH20 0xFFFFFFFFFFFFFFFFFFFFFFFFFFFFFFFFFFFFFFFF AND CALLER PUSH20 0xFFFFFFFFFFFFFFFFFFFFFFFFFFFFFFFFFFFFFFFF AND EQ PUSH2 0xDDE JUMPI PUSH1 0x40 MLOAD PUSH32 0x8C379A000000000000000000000000000000000000000000000000000000000 DUP2 MSTORE PUSH1 0x4 ADD PUSH2 0xDD5 SWAP1 PUSH2 0x19FB JUMP JUMPDEST PUSH1 0x40 MLOAD DUP1 SWAP2 SUB SWAP1 REVERT JUMPDEST DUP1 DUP1 PUSH1 0x5 PUSH0 DUP4 DUP2 MSTORE PUSH1 0x20 ADD SWAP1 DUP2 MSTORE PUSH1 0x20 ADD PUSH0 KECCAK256 PUSH0 ADD SLOAD EQ PUSH2 0xE34 JUMPI PUSH1 0x40 MLOAD PUSH32 0x8C379A000000000000000000000000000000000000000000000000000000000 DUP2 MSTORE PUSH1 0x4 ADD PUSH2 0xE2B SWAP1 PUSH2 0x1851 JUMP JUMPDEST PUSH1 0x40 MLOAD DUP1 SWAP2 SUB SWAP1 REVERT JUMPDEST PUSH1 0x1 PUSH1 0x2 DUP2 GT ISZERO PUSH2 0xE48 JUMPI PUSH2 0xE47 PUSH2 0x1378 JUMP JUMPDEST JUMPDEST PUSH1 0x5 PUSH0 DUP5 DUP2 MSTORE PUSH1 0x20 ADD SWAP1 DUP2 MSTORE PUSH1 0x20 ADD PUSH0 KECCAK256 PUSH1 0x4 ADD PUSH0 SWAP1 SLOAD SWAP1 PUSH2 0x100 EXP SWAP1 DIV PUSH1 0xFF AND PUSH1 0x2 DUP2 GT ISZERO PUSH2 0xE7B JUMPI PUSH2 0xE7A PUSH2 0x1378 JUMP JUMPDEST JUMPDEST EQ PUSH2 0xEBB JUMPI PUSH1 0x40 MLOAD PUSH32 0x8C379A000000000000000000000000000000000000000000000000000000000 DUP2 MSTORE PUSH1 0x4 ADD PUSH2 0xEB2 SWAP1 PUSH2 0x1B8E JUMP JUMPDEST PUSH1 0x40 MLOAD DUP1 SWAP2 SUB SWAP1 REVERT JUMPDEST PUSH1 0x2 PUSH1 0x5 PUSH0 DUP5 DUP2 MSTORE PUSH1 0x20 ADD SWAP1 DUP2 MSTORE PUSH1 0x20 ADD PUSH0 KECCAK256 PUSH1 0x4 ADD PUSH0 PUSH2 0x100 EXP DUP2 SLOAD DUP2 PUSH1 0xFF MUL NOT AND SWAP1 DUP4 PUSH1 0x2 DUP2 GT ISZERO PUSH2 0xEF2 JUMPI PUSH2 0xEF1 PUSH2 0x1378 JUMP JUMPDEST JUMPDEST MUL OR SWAP1 SSTORE POP PUSH1 0x5 PUSH0 DUP4 DUP2 MSTORE PUSH1 0x20 ADD SWAP1 DUP2 MSTORE PUSH1 0x20 ADD PUSH0 KECCAK256 PUSH1 0x3 ADD SLOAD PUSH1 0x4 PUSH0 PUSH1 0x5 PUSH0 DUP7 DUP2 MSTORE PUSH1 0x20 ADD SWAP1 DUP2 MSTORE PUSH1 0x20 ADD PUSH0 KECCAK256 PUSH1 0x2 ADD SLOAD DUP2 MSTORE PUSH1 0x20 ADD SWAP1 DUP2 MSTORE PUSH1 0x20 ADD PUSH0 KECCAK256 PUSH1 0x3 ADD PUSH0 DUP3 DUP3 SLOAD PUSH2 0xF42 SWAP2 SWAP1 PUSH2 0x1BAC JUMP JUMPDEST SWAP3 POP POP DUP2 SWAP1 SSTORE POP PUSH32 0xE21FE02C1589242B30BE2057F54FD54B7DDC463695D19FFDB54F9EBB0584F24A DUP3 PUSH1 0x40 MLOAD PUSH2 0xF78 SWAP2 SWAP1 PUSH2 0x125D JUMP JUMPDEST PUSH1 0x40 MLOAD DUP1 SWAP2 SUB SWAP1 LOG1 POP POP JUMP JUMPDEST PUSH1 0x6 SLOAD DUP2 JUMP JUMPDEST PUSH0 PUSH20 0xFFFFFFFFFFFFFFFFFFFFFFFFFFFFFFFFFFFFFFFF DUP3 AND SWAP1 POP SWAP2 SWAP1 POP JUMP JUMPDEST PUSH0 PUSH2 0xFB3 DUP3 PUSH2 0xF8A JUMP JUMPDEST SWAP1 POP SWAP2 SWAP1 POP JUMP JUMPDEST PUSH2 0xFC3 DUP2 PUSH2 0xFA9 JUMP JUMPDEST DUP3 MSTORE POP POP JUMP JUMPDEST PUSH0 PUSH1 0x20 DUP3 ADD SWAP1 POP PUSH2 0xFDC PUSH0 DUP4 ADD DUP5 PUSH2 0xFBA JUMP JUMPDEST SWAP3 SWAP2 POP POP JUMP JUMPDEST PUSH0 PUSH1 0x40 MLOAD SWAP1 POP SWAP1 JUMP JUMPDEST PUSH0 DUP1 REVERT JUMPDEST PUSH0 DUP1 REVERT JUMPDEST PUSH0 DUP1 REVERT JUMPDEST PUSH0 DUP1 REVERT JUMPDEST PUSH0 PUSH1 0x1F NOT PUSH1 0x1F DUP4 ADD AND SWAP1 POP SWAP2 SWAP1 POP JUMP JUMPDEST PUSH32 0x4E487B7100000000000000000000000000000000000000000000000000000000 PUSH0 MSTORE PUSH1 0x41 PUSH1 0x4 MSTORE PUSH1 0x24 PUSH0 REVERT JUMPDEST PUSH2 0x1041 DUP3 PUSH2 0xFFB JUMP JUMPDEST DUP2 ADD DUP2 DUP2 LT PUSH8 0xFFFFFFFFFFFFFFFF DUP3 GT OR ISZERO PUSH2 0x1060 JUMPI PUSH2 0x105F PUSH2 0x100B JUMP JUMPDEST JUMPDEST DUP1 PUSH1 0x40 MSTORE POP POP POP JUMP JUMPDEST PUSH0 PUSH2 0x1072 PUSH2 0xFE2 JUMP JUMPDEST SWAP1 POP PUSH2 0x107E DUP3 DUP3 PUSH2 0x1038 JUMP JUMPDEST SWAP2 SWAP1 POP JUMP JUMPDEST PUSH0 PUSH8 0xFFFFFFFFFFFFFFFF DUP3 GT ISZERO PUSH2 0x109D JUMPI PUSH2 0x109C PUSH2 0x100B JUMP JUMPDEST JUMPDEST PUSH2 0x10A6 DUP3 PUSH2 0xFFB JUMP JUMPDEST SWAP1 POP PUSH1 0x20 DUP2 ADD SWAP1 POP SWAP2 SWAP1 POP JUMP JUMPDEST DUP3 DUP2 DUP4 CALLDATACOPY PUSH0 DUP4 DUP4 ADD MSTORE POP POP POP JUMP JUMPDEST PUSH0 PUSH2 0x10D3 PUSH2 0x10CE DUP5 PUSH2 0x1083 JUMP JUMPDEST PUSH2 0x1069 JUMP JUMPDEST SWAP1 POP DUP3 DUP2 MSTORE PUSH1 0x20 DUP2 ADD DUP5 DUP5 DUP5 ADD GT ISZERO PUSH2 0x10EF JUMPI PUSH2 0x10EE PUSH2 0xFF7 JUMP JUMPDEST JUMPDEST PUSH2 0x10FA DUP5 DUP3 DUP6 PUSH2 0x10B3 JUMP JUMPDEST POP SWAP4 SWAP3 POP POP POP JUMP JUMPDEST PUSH0 DUP3 PUSH1 0x1F DUP4 ADD SLT PUSH2 0x1116 JUMPI PUSH2 0x1115 PUSH2 0xFF3 JUMP JUMPDEST JUMPDEST DUP2 CALLDATALOAD PUSH2 0x1126 DUP5 DUP3 PUSH1 0x20 DUP7 ADD PUSH2 0x10C1 JUMP JUMPDEST SWAP2 POP POP SWAP3 SWAP2 POP POP JUMP JUMPDEST PUSH0 DUP2 SWAP1 POP SWAP2 SWAP1 POP JUMP JUMPDEST PUSH2 0x1141 DUP2 PUSH2 0x112F JUMP JUMPDEST DUP2 EQ PUSH2 0x114B JUMPI PUSH0 DUP1 REVERT JUMPDEST POP JUMP JUMPDEST PUSH0 DUP2 CALLDATALOAD SWAP1 POP PUSH2 0x115C DUP2 PUSH2 0x1138 JUMP JUMPDEST SWAP3 SWAP2 POP POP JUMP JUMPDEST PUSH0 DUP1 PUSH0 PUSH1 0x60 DUP5 DUP7 SUB SLT ISZERO PUSH2 0x1179 JUMPI PUSH2 0x1178 PUSH2 0xFEB JUMP JUMPDEST JUMPDEST PUSH0 DUP5 ADD CALLDATALOAD PUSH8 0xFFFFFFFFFFFFFFFF DUP2 GT ISZERO PUSH2 0x1196 JUMPI PUSH2 0x1195 PUSH2 0xFEF JUMP JUMPDEST JUMPDEST PUSH2 0x11A2 DUP7 DUP3 DUP8 ADD PUSH2 0x1102 JUMP JUMPDEST SWAP4 POP POP PUSH1 0x20 PUSH2 0x11B3 DUP7 DUP3 DUP8 ADD PUSH2 0x114E JUMP JUMPDEST SWAP3 POP POP PUSH1 0x40 PUSH2 0x11C4 DUP7 DUP3 DUP8 ADD PUSH2 0x114E JUMP JUMPDEST SWAP2 POP POP SWAP3 POP SWAP3 POP SWAP3 JUMP JUMPDEST PUSH0 PUSH1 0x20 DUP3 DUP5 SUB SLT ISZERO PUSH2 0x11E3 JUMPI PUSH2 0x11E2 PUSH2 0xFEB JUMP JUMPDEST JUMPDEST PUSH0 PUSH2 0x11F0 DUP5 DUP3 DUP6 ADD PUSH2 0x114E JUMP JUMPDEST SWAP2 POP POP SWAP3 SWAP2 POP POP JUMP JUMPDEST PUSH2 0x1202 DUP2 PUSH2 0xFA9 JUMP JUMPDEST DUP2 EQ PUSH2 0x120C JUMPI PUSH0 DUP1 REVERT JUMPDEST POP JUMP JUMPDEST PUSH0 DUP2 CALLDATALOAD SWAP1 POP PUSH2 0x121D DUP2 PUSH2 0x11F9 JUMP JUMPDEST SWAP3 SWAP2 POP POP JUMP JUMPDEST PUSH0 PUSH1 0x20 DUP3 DUP5 SUB SLT ISZERO PUSH2 0x1238 JUMPI PUSH2 0x1237 PUSH2 0xFEB JUMP JUMPDEST JUMPDEST PUSH0 PUSH2 0x1245 DUP5 DUP3 DUP6 ADD PUSH2 0x120F JUMP JUMPDEST SWAP2 POP POP SWAP3 SWAP2 POP POP JUMP JUMPDEST PUSH2 0x1257 DUP2 PUSH2 0x112F JUMP JUMPDEST DUP3 MSTORE POP POP JUMP JUMPDEST PUSH0 PUSH1 0x20 DUP3 ADD SWAP1 POP PUSH2 0x1270 PUSH0 DUP4 ADD DUP5 PUSH2 0x124E JUMP JUMPDEST SWAP3 SWAP2 POP POP JUMP JUMPDEST PUSH0 DUP2 MLOAD SWAP1 POP SWAP2 SWAP1 POP JUMP JUMPDEST PUSH0 DUP3 DUP3 MSTORE PUSH1 0x20 DUP3 ADD SWAP1 POP SWAP3 SWAP2 POP POP JUMP JUMPDEST PUSH0 JUMPDEST DUP4 DUP2 LT ISZERO PUSH2 0x12AD JUMPI DUP1 DUP3 ADD MLOAD DUP2 DUP5 ADD MSTORE PUSH1 0x20 DUP2 ADD SWAP1 POP PUSH2 0x1292 JUMP JUMPDEST PUSH0 DUP5 DUP5 ADD MSTORE POP POP POP POP JUMP JUMPDEST PUSH0 PUSH2 0x12C2 DUP3 PUSH2 0x1276 JUMP JUMPDEST PUSH2 0x12CC DUP2 DUP6 PUSH2 0x1280 JUMP JUMPDEST SWAP4 POP PUSH2 0x12DC DUP2 DUP6 PUSH1 0x20 DUP7 ADD PUSH2 0x1290 JUMP JUMPDEST PUSH2 0x12E5 DUP2 PUSH2 0xFFB JUMP JUMPDEST DUP5 ADD SWAP2 POP POP SWAP3 SWAP2 POP POP JUMP JUMPDEST PUSH0 PUSH1 0x80 DUP3 ADD SWAP1 POP PUSH2 0x1303 PUSH0 DUP4 ADD DUP8 PUSH2 0x124E JUMP JUMPDEST DUP2 DUP2 SUB PUSH1 0x20 DUP4 ADD MSTORE PUSH2 0x1315 DUP2 DUP7 PUSH2 0x12B8 JUMP JUMPDEST SWAP1 POP PUSH2 0x1324 PUSH1 0x40 DUP4 ADD DUP6 PUSH2 0x124E JUMP JUMPDEST PUSH2 0x1331 PUSH1 0x60 DUP4 ADD DUP5 PUSH2 0x124E JUMP JUMPDEST SWAP6 SWAP5 POP POP POP POP POP JUMP JUMPDEST PUSH0 DUP1 PUSH1 0x40 DUP4 DUP6 SUB SLT ISZERO PUSH2 0x1350 JUMPI PUSH2 0x134F PUSH2 0xFEB JUMP JUMPDEST JUMPDEST PUSH0 PUSH2 0x135D DUP6 DUP3 DUP7 ADD PUSH2 0x114E JUMP JUMPDEST SWAP3 POP POP PUSH1 0x20 PUSH2 0x136E DUP6 DUP3 DUP7 ADD PUSH2 0x114E JUMP JUMPDEST SWAP2 POP POP SWAP3 POP SWAP3 SWAP1 POP JUMP JUMPDEST PUSH32 0x4E487B7100000000000000000000000000000000000000000000000000000000 PUSH0 MSTORE PUSH1 0x21 PUSH1 0x4 MSTORE PUSH1 0x24 PUSH0 REVERT JUMPDEST PUSH1 0x3 DUP2 LT PUSH2 0x13B6 JUMPI PUSH2 0x13B5 PUSH2 0x1378 JUMP JUMPDEST JUMPDEST POP JUMP JUMPDEST PUSH0 DUP2 SWAP1 POP PUSH2 0x13C6 DUP3 PUSH2 0x13A5 JUMP JUMPDEST SWAP2 SWAP1 POP JUMP JUMPDEST PUSH0 PUSH2 0x13D5 DUP3 PUSH2 0x13B9 JUMP JUMPDEST SWAP1 POP SWAP2 SWAP1 POP JUMP JUMPDEST PUSH2 0x13E5 DUP2 PUSH2 0x13CB JUMP JUMPDEST DUP3 MSTORE POP POP JUMP JUMPDEST PUSH0 PUSH1 0xA0 DUP3 ADD SWAP1 POP PUSH2 0x13FE PUSH0 DUP4 ADD DUP9 PUSH2 0x124E JUMP JUMPDEST PUSH2 0x140B PUSH1 0x20 DUP4 ADD DUP8 PUSH2 0xFBA JUMP JUMPDEST PUSH2 0x1418 PUSH1 0x40 DUP4 ADD DUP7 PUSH2 0x124E JUMP JUMPDEST PUSH2 0x1425 PUSH1 0x60 DUP4 ADD DUP6 PUSH2 0x124E JUMP JUMPDEST PUSH2 0x1432 PUSH1 0x80 DUP4 ADD DUP5 PUSH2 0x13DC JUMP JUMPDEST SWAP7 SWAP6 POP POP POP POP POP POP JUMP JUMPDEST PUSH32 0x4F6E6C7920746865206D616E7566616374757265722063616E2063616C6C2074 PUSH0 DUP3 ADD MSTORE PUSH32 0x6869732066756E6374696F6E0000000000000000000000000000000000000000 PUSH1 0x20 DUP3 ADD MSTORE POP JUMP JUMPDEST PUSH0 PUSH2 0x1496 PUSH1 0x2C DUP4 PUSH2 0x1280 JUMP JUMPDEST SWAP2 POP PUSH2 0x14A1 DUP3 PUSH2 0x143C JUMP JUMPDEST PUSH1 0x40 DUP3 ADD SWAP1 POP SWAP2 SWAP1 POP JUMP JUMPDEST PUSH0 PUSH1 0x20 DUP3 ADD SWAP1 POP DUP2 DUP2 SUB PUSH0 DUP4 ADD MSTORE PUSH2 0x14C3 DUP2 PUSH2 0x148A JUMP JUMPDEST SWAP1 POP SWAP2 SWAP1 POP JUMP JUMPDEST PUSH32 0x4E487B7100000000000000000000000000000000000000000000000000000000 PUSH0 MSTORE PUSH1 0x11 PUSH1 0x4 MSTORE PUSH1 0x24 PUSH0 REVERT JUMPDEST PUSH0 PUSH2 0x1501 DUP3 PUSH2 0x112F JUMP JUMPDEST SWAP2 POP PUSH32 0xFFFFFFFFFFFFFFFFFFFFFFFFFFFFFFFFFFFFFFFFFFFFFFFFFFFFFFFFFFFFFFFF DUP3 SUB PUSH2 0x1533 JUMPI PUSH2 0x1532 PUSH2 0x14CA JUMP JUMPDEST JUMPDEST PUSH1 0x1 DUP3 ADD SWAP1 POP SWAP2 SWAP1 POP JUMP JUMPDEST PUSH32 0x4E487B7100000000000000000000000000000000000000000000000000000000 PUSH0 MSTORE PUSH1 0x22 PUSH1 0x4 MSTORE PUSH1 0x24 PUSH0 REVERT JUMPDEST PUSH0 PUSH1 0x2 DUP3 DIV SWAP1 POP PUSH1 0x1 DUP3 AND DUP1 PUSH2 0x1582 JUMPI PUSH1 0x7F DUP3 AND SWAP2 POP JUMPDEST PUSH1 0x20 DUP3 LT DUP2 SUB PUSH2 0x1595 JUMPI PUSH2 0x1594 PUSH2 0x153E JUMP JUMPDEST JUMPDEST POP SWAP2 SWAP1 POP JUMP JUMPDEST PUSH0 DUP2 SWAP1 POP DUP2 PUSH0 MSTORE PUSH1 0x20 PUSH0 KECCAK256 SWAP1 POP SWAP2 SWAP1 POP JUMP JUMPDEST PUSH0 PUSH1 0x20 PUSH1 0x1F DUP4 ADD DIV SWAP1 POP SWAP2 SWAP1 POP JUMP JUMPDEST PUSH0 DUP3 DUP3 SHL SWAP1 POP SWAP3 SWAP2 POP POP JUMP JUMPDEST PUSH0 PUSH1 0x8 DUP4 MUL PUSH2 0x15F7 PUSH32 0xFFFFFFFFFFFFFFFFFFFFFFFFFFFFFFFFFFFFFFFFFFFFFFFFFFFFFFFFFFFFFFFF DUP3 PUSH2 0x15BC JUMP JUMPDEST PUSH2 0x1601 DUP7 DUP4 PUSH2 0x15BC JUMP JUMPDEST SWAP6 POP DUP1 NOT DUP5 AND SWAP4 POP DUP1 DUP7 AND DUP5 OR SWAP3 POP POP POP SWAP4 SWAP3 POP POP POP JUMP JUMPDEST PUSH0 DUP2 SWAP1 POP SWAP2 SWAP1 POP JUMP JUMPDEST PUSH0 PUSH2 0x163C PUSH2 0x1637 PUSH2 0x1632 DUP5 PUSH2 0x112F JUMP JUMPDEST PUSH2 0x1619 JUMP JUMPDEST PUSH2 0x112F JUMP JUMPDEST SWAP1 POP SWAP2 SWAP1 POP JUMP JUMPDEST PUSH0 DUP2 SWAP1 POP SWAP2 SWAP1 POP JUMP JUMPDEST PUSH2 0x1655 DUP4 PUSH2 0x1622 JUMP JUMPDEST PUSH2 0x1669 PUSH2 0x1661 DUP3 PUSH2 0x1643 JUMP JUMPDEST DUP5 DUP5 SLOAD PUSH2 0x15C8 JUMP JUMPDEST DUP3 SSTORE POP POP POP POP JUMP JUMPDEST PUSH0 SWAP1 JUMP JUMPDEST PUSH2 0x167D PUSH2 0x1671 JUMP JUMPDEST PUSH2 0x1688 DUP2 DUP5 DUP5 PUSH2 0x164C JUMP JUMPDEST POP POP POP JUMP JUMPDEST JUMPDEST DUP2 DUP2 LT ISZERO PUSH2 0x16AB JUMPI PUSH2 0x16A0 PUSH0 DUP3 PUSH2 0x1675 JUMP JUMPDEST PUSH1 0x1 DUP2 ADD SWAP1 POP PUSH2 0x168E JUMP JUMPDEST POP POP JUMP JUMPDEST PUSH1 0x1F DUP3 GT ISZERO PUSH2 0x16F0 JUMPI PUSH2 0x16C1 DUP2 PUSH2 0x159B JUMP JUMPDEST PUSH2 0x16CA DUP5 PUSH2 0x15AD JUMP JUMPDEST DUP2 ADD PUSH1 0x20 DUP6 LT ISZERO PUSH2 0x16D9 JUMPI DUP2 SWAP1 POP JUMPDEST PUSH2 0x16ED PUSH2 0x16E5 DUP6 PUSH2 0x15AD JUMP JUMPDEST DUP4 ADD DUP3 PUSH2 0x168D JUMP JUMPDEST POP POP JUMPDEST POP POP POP JUMP JUMPDEST PUSH0 DUP3 DUP3 SHR SWAP1 POP SWAP3 SWAP2 POP POP JUMP JUMPDEST PUSH0 PUSH2 0x1710 PUSH0 NOT DUP5 PUSH1 0x8 MUL PUSH2 0x16F5 JUMP JUMPDEST NOT DUP1 DUP4 AND SWAP2 POP POP SWAP3 SWAP2 POP POP JUMP JUMPDEST PUSH0 PUSH2 0x1728 DUP4 DUP4 PUSH2 0x1701 JUMP JUMPDEST SWAP2 POP DUP3 PUSH1 0x2 MUL DUP3 OR SWAP1 POP SWAP3 SWAP2 POP POP JUMP JUMPDEST PUSH2 0x1741 DUP3 PUSH2 0x1276 JUMP JUMPDEST PUSH8 0xFFFFFFFFFFFFFFFF DUP2 GT ISZERO PUSH2 0x175A JUMPI PUSH2 0x1759 PUSH2 0x100B JUMP JUMPDEST JUMPDEST PUSH2 0x1764 DUP3 SLOAD PUSH2 0x156B JUMP JUMPDEST PUSH2 0x176F DUP3 DUP3 DUP6 PUSH2 0x16AF JUMP JUMPDEST PUSH0 PUSH1 0x20 SWAP1 POP PUSH1 0x1F DUP4 GT PUSH1 0x1 DUP2 EQ PUSH2 0x17A0 JUMPI PUSH0 DUP5 ISZERO PUSH2 0x178E JUMPI DUP3 DUP8 ADD MLOAD SWAP1 POP JUMPDEST PUSH2 0x1798 DUP6 DUP3 PUSH2 0x171D JUMP JUMPDEST DUP7 SSTORE POP PUSH2 0x17FF JUMP JUMPDEST PUSH1 0x1F NOT DUP5 AND PUSH2 0x17AE DUP7 PUSH2 0x159B JUMP JUMPDEST PUSH0 JUMPDEST DUP3 DUP2 LT ISZERO PUSH2 0x17D5 JUMPI DUP5 DUP10 ADD MLOAD DUP3 SSTORE PUSH1 0x1 DUP3 ADD SWAP2 POP PUSH1 0x20 DUP6 ADD SWAP5 POP PUSH1 0x20 DUP2 ADD SWAP1 POP PUSH2 0x17B0 JUMP JUMPDEST DUP7 DUP4 LT ISZERO PUSH2 0x17F2 JUMPI DUP5 DUP10 ADD MLOAD PUSH2 0x17EE PUSH1 0x1F DUP10 AND DUP3 PUSH2 0x1701 JUMP JUMPDEST DUP4 SSTORE POP JUMPDEST PUSH1 0x1 PUSH1 0x2 DUP9 MUL ADD DUP9 SSTORE POP POP POP JUMPDEST POP POP POP POP POP POP JUMP JUMPDEST PUSH32 0x4F7264657220646F6573206E6F74206578697374000000000000000000000000 PUSH0 DUP3 ADD MSTORE POP JUMP JUMPDEST PUSH0 PUSH2 0x183B PUSH1 0x14 DUP4 PUSH2 0x1280 JUMP JUMPDEST SWAP2 POP PUSH2 0x1846 DUP3 PUSH2 0x1807 JUMP JUMPDEST PUSH1 0x20 DUP3 ADD SWAP1 POP SWAP2 SWAP1 POP JUMP JUMPDEST PUSH0 PUSH1 0x20 DUP3 ADD SWAP1 POP DUP2 DUP2 SUB PUSH0 DUP4 ADD MSTORE PUSH2 0x1868 DUP2 PUSH2 0x182F JUMP JUMPDEST SWAP1 POP SWAP2 SWAP1 POP JUMP JUMPDEST PUSH32 0x4F72646572206973206E6F7420696E206120736869707061626C652073746174 PUSH0 DUP3 ADD MSTORE PUSH32 0x6500000000000000000000000000000000000000000000000000000000000000 PUSH1 0x20 DUP3 ADD MSTORE POP JUMP JUMPDEST PUSH0 PUSH2 0x18C9 PUSH1 0x21 DUP4 PUSH2 0x1280 JUMP JUMPDEST SWAP2 POP PUSH2 0x18D4 DUP3 PUSH2 0x186F JUMP JUMPDEST PUSH1 0x40 DUP3 ADD SWAP1 POP SWAP2 SWAP1 POP JUMP JUMPDEST PUSH0 PUSH1 0x20 DUP3 ADD SWAP1 POP DUP2 DUP2 SUB PUSH0 DUP4 ADD MSTORE PUSH2 0x18F6 DUP2 PUSH2 0x18BD JUMP JUMPDEST SWAP1 POP SWAP2 SWAP1 POP JUMP JUMPDEST PUSH32 0x4F6E6C79207468652073656C6C65722063616E2063616C6C2074686973206675 PUSH0 DUP3 ADD MSTORE PUSH32 0x6E6374696F6E0000000000000000000000000000000000000000000000000000 PUSH1 0x20 DUP3 ADD MSTORE POP JUMP JUMPDEST PUSH0 PUSH2 0x1957 PUSH1 0x26 DUP4 PUSH2 0x1280 JUMP JUMPDEST SWAP2 POP PUSH2 0x1962 DUP3 PUSH2 0x18FD JUMP JUMPDEST PUSH1 0x40 DUP3 ADD SWAP1 POP SWAP2 SWAP1 POP JUMP JUMPDEST PUSH0 PUSH1 0x20 DUP3 ADD SWAP1 POP DUP2 DUP2 SUB PUSH0 DUP4 ADD MSTORE PUSH2 0x1984 DUP2 PUSH2 0x194B JUMP JUMPDEST SWAP1 POP SWAP2 SWAP1 POP JUMP JUMPDEST PUSH32 0x4F6E6C7920746865206469737472696275746F722063616E2063616C6C207468 PUSH0 DUP3 ADD MSTORE PUSH32 0x69732066756E6374696F6E000000000000000000000000000000000000000000 PUSH1 0x20 DUP3 ADD MSTORE POP JUMP JUMPDEST PUSH0 PUSH2 0x19E5 PUSH1 0x2B DUP4 PUSH2 0x1280 JUMP JUMPDEST SWAP2 POP PUSH2 0x19F0 DUP3 PUSH2 0x198B JUMP JUMPDEST PUSH1 0x40 DUP3 ADD SWAP1 POP SWAP2 SWAP1 POP JUMP JUMPDEST PUSH0 PUSH1 0x20 DUP3 ADD SWAP1 POP DUP2 DUP2 SUB PUSH0 DUP4 ADD MSTORE PUSH2 0x1A12 DUP2 PUSH2 0x19D9 JUMP JUMPDEST SWAP1 POP SWAP2 SWAP1 POP JUMP JUMPDEST PUSH32 0x50726F6475637420646F6573206E6F7420657869737400000000000000000000 PUSH0 DUP3 ADD MSTORE POP JUMP JUMPDEST PUSH0 PUSH2 0x1A4D PUSH1 0x16 DUP4 PUSH2 0x1280 JUMP JUMPDEST SWAP2 POP PUSH2 0x1A58 DUP3 PUSH2 0x1A19 JUMP JUMPDEST PUSH1 0x20 DUP3 ADD SWAP1 POP SWAP2 SWAP1 POP JUMP JUMPDEST PUSH0 PUSH1 0x20 DUP3 ADD SWAP1 POP DUP2 DUP2 SUB PUSH0 DUP4 ADD MSTORE PUSH2 0x1A7A DUP2 PUSH2 0x1A41 JUMP JUMPDEST SWAP1 POP SWAP2 SWAP1 POP JUMP JUMPDEST PUSH32 0x4E6F7420656E6F7567682073746F636B00000000000000000000000000000000 PUSH0 DUP3 ADD MSTORE POP JUMP JUMPDEST PUSH0 PUSH2 0x1AB5 PUSH1 0x10 DUP4 PUSH2 0x1280 JUMP JUMPDEST SWAP2 POP PUSH2 0x1AC0 DUP3 PUSH2 0x1A81 JUMP JUMPDEST PUSH1 0x20 DUP3 ADD SWAP1 POP SWAP2 SWAP1 POP JUMP JUMPDEST PUSH0 PUSH1 0x20 DUP3 ADD SWAP1 POP DUP2 DUP2 SUB PUSH0 DUP4 ADD MSTORE PUSH2 0x1AE2 DUP2 PUSH2 0x1AA9 JUMP JUMPDEST SWAP1 POP SWAP2 SWAP1 POP JUMP JUMPDEST PUSH0 PUSH1 0x60 DUP3 ADD SWAP1 POP PUSH2 0x1AFC PUSH0 DUP4 ADD DUP7 PUSH2 0x124E JUMP JUMPDEST PUSH2 0x1B09 PUSH1 0x20 DUP4 ADD DUP6 PUSH2 0x124E JUMP JUMPDEST PUSH2 0x1B16 PUSH1 0x40 DUP4 ADD DUP5 PUSH2 0x124E JUMP JUMPDEST SWAP5 SWAP4 POP POP POP POP JUMP JUMPDEST PUSH32 0x4F72646572206973206E6F7420696E20612064656C6976657261626C65207374 PUSH0 DUP3 ADD MSTORE PUSH32 0x6174650000000000000000000000000000000000000000000000000000000000 PUSH1 0x20 DUP3 ADD MSTORE POP JUMP JUMPDEST PUSH0 PUSH2 0x1B78 PUSH1 0x23 DUP4 PUSH2 0x1280 JUMP JUMPDEST SWAP2 POP PUSH2 0x1B83 DUP3 PUSH2 0x1B1E JUMP JUMPDEST PUSH1 0x40 DUP3 ADD SWAP1 POP SWAP2 SWAP1 POP JUMP JUMPDEST PUSH0 PUSH1 0x20 DUP3 ADD SWAP1 POP DUP2 DUP2 SUB PUSH0 DUP4 ADD MSTORE PUSH2 0x1BA5 DUP2 PUSH2 0x1B6C JUMP JUMPDEST SWAP1 POP SWAP2 SWAP1 POP JUMP JUMPDEST PUSH0 PUSH2 0x1BB6 DUP3 PUSH2 0x112F JUMP JUMPDEST SWAP2 POP PUSH2 0x1BC1 DUP4 PUSH2 0x112F JUMP JUMPDEST SWAP3 POP DUP3 DUP3 SUB SWAP1 POP DUP2 DUP2 GT ISZERO PUSH2 0x1BD9 JUMPI PUSH2 0x1BD8 PUSH2 0x14CA JUMP JUMPDEST JUMPDEST SWAP3 SWAP2 POP POP JUMP INVALID LOG2 PUSH5 0x6970667358 0x22 SLT KECCAK256 PUSH24 0xE28FB9A2F48C2CF14574D50BF8633677A84B89BFD1C94252 PUSH5 0x470E866835 GASLIMIT PUSH5 0x736F6C6343 STOP ADDMOD AND STOP CALLER "
				},
				"gasEstimates": {
					"creation": {
						"codeDepositCost": "1437800",
						"executionCost": "25762",
						"totalCost": "1463562"
					},
					"external": {
						"addProduct(string,uint256,uint256)": "infinite",
						"buyer()": "2575",
						"deliverOrder(uint256)": "infinite",
						"distributor()": "2552",
						"manufacturer()": "2594",
						"orderCount()": "2470",
						"orders(uint256)": "infinite",
						"placeOrder(uint256,uint256)": "infinite",
						"productCount()": "2513",
						"products(uint256)": "infinite",
						"seller()": "2532",
						"setBuyerAddress(address)": "28068",
						"setDistributorAddress(address)": "26948",
						"setSellerAddress(address)": "26973",
						"shipOrder(uint256)": "infinite"
					}
				},
				"methodIdentifiers": {
					"addProduct(string,uint256,uint256)": "125b0b34",
					"buyer()": "7150d8ae",
					"deliverOrder(uint256)": "ddff5e7d",
					"distributor()": "bfe10928",
					"manufacturer()": "74754282",
					"orderCount()": "2453ffa8",
					"orders(uint256)": "a85c38ef",
					"placeOrder(uint256,uint256)": "843f61e2",
					"productCount()": "e0f6ef87",
					"products(uint256)": "7acc0b20",
					"seller()": "08551a53",
					"setBuyerAddress(address)": "1b697bb2",
					"setDistributorAddress(address)": "87950f49",
					"setSellerAddress(address)": "a12df12e",
					"shipOrder(uint256)": "194c302c"
				}
			},
			"storageLayout": {
				"storage": [
					{
						"astId": 3,
						"contract": "2.sol:SupplyChainContract",
						"label": "manufacturer",
						"offset": 0,
						"slot": "0",
						"type": "t_address"
					},
					{
						"astId": 5,
						"contract": "2.sol:SupplyChainContract",
						"label": "distributor",
						"offset": 0,
						"slot": "1",
						"type": "t_address"
					},
					{
						"astId": 7,
						"contract": "2.sol:SupplyChainContract",
						"label": "seller",
						"offset": 0,
						"slot": "2",
						"type": "t_address"
					},
					{
						"astId": 9,
						"contract": "2.sol:SupplyChainContract",
						"label": "buyer",
						"offset": 0,
						"slot": "3",
						"type": "t_address"
					},
					{
						"astId": 39,
						"contract": "2.sol:SupplyChainContract",
						"label": "products",
						"offset": 0,
						"slot": "4",
						"type": "t_mapping(t_uint256,t_struct(Product)22_storage)"
					},
					{
						"astId": 44,
						"contract": "2.sol:SupplyChainContract",
						"label": "orders",
						"offset": 0,
						"slot": "5",
						"type": "t_mapping(t_uint256,t_struct(Order)34_storage)"
					},
					{
						"astId": 46,
						"contract": "2.sol:SupplyChainContract",
						"label": "productCount",
						"offset": 0,
						"slot": "6",
						"type": "t_uint256"
					},
					{
						"astId": 48,
						"contract": "2.sol:SupplyChainContract",
						"label": "orderCount",
						"offset": 0,
						"slot": "7",
						"type": "t_uint256"
					}
				],
				"types": {
					"t_address": {
						"encoding": "inplace",
						"label": "address",
						"numberOfBytes": "20"
					},
					"t_enum(OrderStatus)13": {
						"encoding": "inplace",
						"label": "enum SupplyChainContract.OrderStatus",
						"numberOfBytes": "1"
					},
					"t_mapping(t_uint256,t_struct(Order)34_storage)": {
						"encoding": "mapping",
						"key": "t_uint256",
						"label": "mapping(uint256 => struct SupplyChainContract.Order)",
						"numberOfBytes": "32",
						"value": "t_struct(Order)34_storage"
					},
					"t_mapping(t_uint256,t_struct(Product)22_storage)": {
						"encoding": "mapping",
						"key": "t_uint256",
						"label": "mapping(uint256 => struct SupplyChainContract.Product)",
						"numberOfBytes": "32",
						"value": "t_struct(Product)22_storage"
					},
					"t_string_storage": {
						"encoding": "bytes",
						"label": "string",
						"numberOfBytes": "32"
					},
					"t_struct(Order)34_storage": {
						"encoding": "inplace",
						"label": "struct SupplyChainContract.Order",
						"members": [
							{
								"astId": 24,
								"contract": "2.sol:SupplyChainContract",
								"label": "orderId",
								"offset": 0,
								"slot": "0",
								"type": "t_uint256"
							},
							{
								"astId": 26,
								"contract": "2.sol:SupplyChainContract",
								"label": "buyer",
								"offset": 0,
								"slot": "1",
								"type": "t_address"
							},
							{
								"astId": 28,
								"contract": "2.sol:SupplyChainContract",
								"label": "productId",
								"offset": 0,
								"slot": "2",
								"type": "t_uint256"
							},
							{
								"astId": 30,
								"contract": "2.sol:SupplyChainContract",
								"label": "quantity",
								"offset": 0,
								"slot": "3",
								"type": "t_uint256"
							},
							{
								"astId": 33,
								"contract": "2.sol:SupplyChainContract",
								"label": "status",
								"offset": 0,
								"slot": "4",
								"type": "t_enum(OrderStatus)13"
							}
						],
						"numberOfBytes": "160"
					},
					"t_struct(Product)22_storage": {
						"encoding": "inplace",
						"label": "struct SupplyChainContract.Product",
						"members": [
							{
								"astId": 15,
								"contract": "2.sol:SupplyChainContract",
								"label": "productId",
								"offset": 0,
								"slot": "0",
								"type": "t_uint256"
							},
							{
								"astId": 17,
								"contract": "2.sol:SupplyChainContract",
								"label": "name",
								"offset": 0,
								"slot": "1",
								"type": "t_string_storage"
							},
							{
								"astId": 19,
								"contract": "2.sol:SupplyChainContract",
								"label": "price",
								"offset": 0,
								"slot": "2",
								"type": "t_uint256"
							},
							{
								"astId": 21,
								"contract": "2.sol:SupplyChainContract",
								"label": "quantity",
								"offset": 0,
								"slot": "3",
								"type": "t_uint256"
							}
						],
						"numberOfBytes": "128"
					},
					"t_uint256": {
						"encoding": "inplace",
						"label": "uint256",
						"numberOfBytes": "32"
					}
				}
			},
			"userdoc": {
				"kind": "user",
				"methods": {},
				"version": 1
			}
		}
	}
}