{
	"Buyer-Seller.sol": {
		"SupplyChainContract": {
			"abi": [
				{
					"inputs": [
						{
							"internalType": "address",
							"name": "_seller",
							"type": "address"
						}
					],
					"stateMutability": "nonpayable",
					"type": "constructor"
				},
				{
					"anonymous": false,
					"inputs": [
						{
							"indexed": false,
							"internalType": "uint256",
							"name": "orderId",
							"type": "uint256"
						},
						{
							"indexed": false,
							"internalType": "string",
							"name": "product",
							"type": "string"
						},
						{
							"indexed": false,
							"internalType": "uint256",
							"name": "quantity",
							"type": "uint256"
						},
						{
							"indexed": false,
							"internalType": "enum SupplyChainContract.OrderStatus",
							"name": "status",
							"type": "uint8"
						}
					],
					"name": "OrderEvent",
					"type": "event"
				},
				{
					"inputs": [],
					"name": "buyer",
					"outputs": [
						{
							"internalType": "address",
							"name": "",
							"type": "address"
						}
					],
					"stateMutability": "view",
					"type": "function"
				},
				{
					"inputs": [
						{
							"internalType": "uint256",
							"name": "_orderId",
							"type": "uint256"
						}
					],
					"name": "deliverOrder",
					"outputs": [],
					"stateMutability": "nonpayable",
					"type": "function"
				},
				{
					"inputs": [],
					"name": "getAllOrders",
					"outputs": [
						{
							"components": [
								{
									"internalType": "uint256",
									"name": "orderId",
									"type": "uint256"
								},
								{
									"internalType": "string",
									"name": "product",
									"type": "string"
								},
								{
									"internalType": "uint256",
									"name": "quantity",
									"type": "uint256"
								},
								{
									"internalType": "enum SupplyChainContract.OrderStatus",
									"name": "status",
									"type": "uint8"
								}
							],
							"internalType": "struct SupplyChainContract.Order[]",
							"name": "",
							"type": "tuple[]"
						}
					],
					"stateMutability": "view",
					"type": "function"
				},
				{
					"inputs": [],
					"name": "getShippableOrders",
					"outputs": [
						{
							"components": [
								{
									"internalType": "uint256",
									"name": "orderId",
									"type": "uint256"
								},
								{
									"internalType": "string",
									"name": "product",
									"type": "string"
								},
								{
									"internalType": "uint256",
									"name": "quantity",
									"type": "uint256"
								},
								{
									"internalType": "enum SupplyChainContract.OrderStatus",
									"name": "status",
									"type": "uint8"
								}
							],
							"internalType": "struct SupplyChainContract.Order[]",
							"name": "",
							"type": "tuple[]"
						}
					],
					"stateMutability": "view",
					"type": "function"
				},
				{
					"inputs": [],
					"name": "orderCount",
					"outputs": [
						{
							"internalType": "uint256",
							"name": "",
							"type": "uint256"
						}
					],
					"stateMutability": "view",
					"type": "function"
				},
				{
					"inputs": [
						{
							"internalType": "uint256",
							"name": "",
							"type": "uint256"
						}
					],
					"name": "orders",
					"outputs": [
						{
							"internalType": "uint256",
							"name": "orderId",
							"type": "uint256"
						},
						{
							"internalType": "string",
							"name": "product",
							"type": "string"
						},
						{
							"internalType": "uint256",
							"name": "quantity",
							"type": "uint256"
						},
						{
							"internalType": "enum SupplyChainContract.OrderStatus",
							"name": "status",
							"type": "uint8"
						}
					],
					"stateMutability": "view",
					"type": "function"
				},
				{
					"inputs": [
						{
							"internalType": "string",
							"name": "_product",
							"type": "string"
						},
						{
							"internalType": "uint256",
							"name": "_quantity",
							"type": "uint256"
						}
					],
					"name": "placeOrder",
					"outputs": [],
					"stateMutability": "nonpayable",
					"type": "function"
				},
				{
					"inputs": [],
					"name": "seller",
					"outputs": [
						{
							"internalType": "address",
							"name": "",
							"type": "address"
						}
					],
					"stateMutability": "view",
					"type": "function"
				},
				{
					"inputs": [
						{
							"internalType": "uint256",
							"name": "_orderId",
							"type": "uint256"
						}
					],
					"name": "shipOrder",
					"outputs": [],
					"stateMutability": "nonpayable",
					"type": "function"
				}
			],
			"devdoc": {
				"kind": "dev",
				"methods": {},
				"version": 1
			},
			"evm": {
				"assembly": "    /* \"Buyer-Seller.sol\":61:3109  contract SupplyChainContract {... */\n  mstore(0x40, 0x80)\n    /* \"Buyer-Seller.sol\":1002:1095  constructor(address _seller) {... */\n  callvalue\n  dup1\n  iszero\n  tag_1\n  jumpi\n  0x00\n  dup1\n  revert\ntag_1:\n  pop\n  mload(0x40)\n  sub(codesize, bytecodeSize)\n  dup1\n  bytecodeSize\n  dup4\n  codecopy\n  dup2\n  dup2\n  add\n  0x40\n  mstore\n  dup2\n  add\n  swap1\n  tag_2\n  swap2\n  swap1\n  tag_3\n  jump\t// in\ntag_2:\n    /* \"Buyer-Seller.sol\":1050:1060  msg.sender */\n  caller\n    /* \"Buyer-Seller.sol\":1042:1047  buyer */\n  0x00\n  dup1\n    /* \"Buyer-Seller.sol\":1042:1060  buyer = msg.sender */\n  0x0100\n  exp\n  dup2\n  sload\n  dup2\n  0xffffffffffffffffffffffffffffffffffffffff\n  mul\n  not\n  and\n  swap1\n  dup4\n  0xffffffffffffffffffffffffffffffffffffffff\n  and\n  mul\n  or\n  swap1\n  sstore\n  pop\n    /* \"Buyer-Seller.sol\":1080:1087  _seller */\n  dup1\n    /* \"Buyer-Seller.sol\":1071:1077  seller */\n  0x01\n  0x00\n    /* \"Buyer-Seller.sol\":1071:1087  seller = _seller */\n  0x0100\n  exp\n  dup2\n  sload\n  dup2\n  0xffffffffffffffffffffffffffffffffffffffff\n  mul\n  not\n  and\n  swap1\n  dup4\n  0xffffffffffffffffffffffffffffffffffffffff\n  and\n  mul\n  or\n  swap1\n  sstore\n  pop\n    /* \"Buyer-Seller.sol\":1002:1095  constructor(address _seller) {... */\n  pop\n    /* \"Buyer-Seller.sol\":61:3109  contract SupplyChainContract {... */\n  jump(tag_6)\n    /* \"#utility.yul\":88:205   */\ntag_8:\n    /* \"#utility.yul\":197:198   */\n  0x00\n    /* \"#utility.yul\":194:195   */\n  dup1\n    /* \"#utility.yul\":187:199   */\n  revert\n    /* \"#utility.yul\":334:460   */\ntag_10:\n    /* \"#utility.yul\":371:378   */\n  0x00\n    /* \"#utility.yul\":411:453   */\n  0xffffffffffffffffffffffffffffffffffffffff\n    /* \"#utility.yul\":404:409   */\n  dup3\n    /* \"#utility.yul\":400:454   */\n  and\n    /* \"#utility.yul\":389:454   */\n  swap1\n  pop\n    /* \"#utility.yul\":334:460   */\n  swap2\n  swap1\n  pop\n  jump\t// out\n    /* \"#utility.yul\":466:562   */\ntag_11:\n    /* \"#utility.yul\":503:510   */\n  0x00\n    /* \"#utility.yul\":532:556   */\n  tag_20\n    /* \"#utility.yul\":550:555   */\n  dup3\n    /* \"#utility.yul\":532:556   */\n  tag_10\n  jump\t// in\ntag_20:\n    /* \"#utility.yul\":521:556   */\n  swap1\n  pop\n    /* \"#utility.yul\":466:562   */\n  swap2\n  swap1\n  pop\n  jump\t// out\n    /* \"#utility.yul\":568:690   */\ntag_12:\n    /* \"#utility.yul\":641:665   */\n  tag_22\n    /* \"#utility.yul\":659:664   */\n  dup2\n    /* \"#utility.yul\":641:665   */\n  tag_11\n  jump\t// in\ntag_22:\n    /* \"#utility.yul\":634:639   */\n  dup2\n    /* \"#utility.yul\":631:666   */\n  eq\n    /* \"#utility.yul\":621:684   */\n  tag_23\n  jumpi\n    /* \"#utility.yul\":680:681   */\n  0x00\n    /* \"#utility.yul\":677:678   */\n  dup1\n    /* \"#utility.yul\":670:682   */\n  revert\n    /* \"#utility.yul\":621:684   */\ntag_23:\n    /* \"#utility.yul\":568:690   */\n  pop\n  jump\t// out\n    /* \"#utility.yul\":696:839   */\ntag_13:\n    /* \"#utility.yul\":753:758   */\n  0x00\n    /* \"#utility.yul\":784:790   */\n  dup2\n    /* \"#utility.yul\":778:791   */\n  mload\n    /* \"#utility.yul\":769:791   */\n  swap1\n  pop\n    /* \"#utility.yul\":800:833   */\n  tag_25\n    /* \"#utility.yul\":827:832   */\n  dup2\n    /* \"#utility.yul\":800:833   */\n  tag_12\n  jump\t// in\ntag_25:\n    /* \"#utility.yul\":696:839   */\n  swap3\n  swap2\n  pop\n  pop\n  jump\t// out\n    /* \"#utility.yul\":845:1196   */\ntag_3:\n    /* \"#utility.yul\":915:921   */\n  0x00\n    /* \"#utility.yul\":964:966   */\n  0x20\n    /* \"#utility.yul\":952:961   */\n  dup3\n    /* \"#utility.yul\":943:950   */\n  dup5\n    /* \"#utility.yul\":939:962   */\n  sub\n    /* \"#utility.yul\":935:967   */\n  slt\n    /* \"#utility.yul\":932:1051   */\n  iszero\n  tag_27\n  jumpi\n    /* \"#utility.yul\":970:1049   */\n  tag_28\n  tag_8\n  jump\t// in\ntag_28:\n    /* \"#utility.yul\":932:1051   */\ntag_27:\n    /* \"#utility.yul\":1090:1091   */\n  0x00\n    /* \"#utility.yul\":1115:1179   */\n  tag_29\n    /* \"#utility.yul\":1171:1178   */\n  dup5\n    /* \"#utility.yul\":1162:1168   */\n  dup3\n    /* \"#utility.yul\":1151:1160   */\n  dup6\n    /* \"#utility.yul\":1147:1169   */\n  add\n    /* \"#utility.yul\":1115:1179   */\n  tag_13\n  jump\t// in\ntag_29:\n    /* \"#utility.yul\":1105:1179   */\n  swap2\n  pop\n    /* \"#utility.yul\":1061:1189   */\n  pop\n    /* \"#utility.yul\":845:1196   */\n  swap3\n  swap2\n  pop\n  pop\n  jump\t// out\n    /* \"Buyer-Seller.sol\":61:3109  contract SupplyChainContract {... */\ntag_6:\n  dataSize(sub_0)\n  dup1\n  dataOffset(sub_0)\n  0x00\n  codecopy\n  0x00\n  return\nstop\n\nsub_0: assembly {\n        /* \"Buyer-Seller.sol\":61:3109  contract SupplyChainContract {... */\n      mstore(0x40, 0x80)\n      callvalue\n      dup1\n      iszero\n      tag_1\n      jumpi\n      0x00\n      dup1\n      revert\n    tag_1:\n      pop\n      jumpi(tag_2, lt(calldatasize, 0x04))\n      shr(0xe0, calldataload(0x00))\n      dup1\n      0x7bea0d1c\n      gt\n      tag_12\n      jumpi\n      dup1\n      0x7bea0d1c\n      eq\n      tag_7\n      jumpi\n      dup1\n      0xa1b6e836\n      eq\n      tag_8\n      jumpi\n      dup1\n      0xa85c38ef\n      eq\n      tag_9\n      jumpi\n      dup1\n      0xddff5e7d\n      eq\n      tag_10\n      jumpi\n      dup1\n      0xdf340200\n      eq\n      tag_11\n      jumpi\n      jump(tag_2)\n    tag_12:\n      dup1\n      0x08551a53\n      eq\n      tag_3\n      jumpi\n      dup1\n      0x194c302c\n      eq\n      tag_4\n      jumpi\n      dup1\n      0x2453ffa8\n      eq\n      tag_5\n      jumpi\n      dup1\n      0x7150d8ae\n      eq\n      tag_6\n      jumpi\n    tag_2:\n      0x00\n      dup1\n      revert\n        /* \"Buyer-Seller.sol\":124:145  address public seller */\n    tag_3:\n      tag_13\n      tag_14\n      jump\t// in\n    tag_13:\n      mload(0x40)\n      tag_15\n      swap2\n      swap1\n      tag_16\n      jump\t// in\n    tag_15:\n      mload(0x40)\n      dup1\n      swap2\n      sub\n      swap1\n      return\n        /* \"Buyer-Seller.sol\":1800:1957  function shipOrder(uint256 _orderId) external onlyParticipant orderNotDelivered(_orderId) {... */\n    tag_4:\n      tag_17\n      0x04\n      dup1\n      calldatasize\n      sub\n      dup2\n      add\n      swap1\n      tag_18\n      swap2\n      swap1\n      tag_19\n      jump\t// in\n    tag_18:\n      tag_20\n      jump\t// in\n    tag_17:\n      stop\n        /* \"Buyer-Seller.sol\":392:417  uint256 public orderCount */\n    tag_5:\n      tag_21\n      tag_22\n      jump\t// in\n    tag_21:\n      mload(0x40)\n      tag_23\n      swap2\n      swap1\n      tag_24\n      jump\t// in\n    tag_23:\n      mload(0x40)\n      dup1\n      swap2\n      sub\n      swap1\n      return\n        /* \"Buyer-Seller.sol\":97:117  address public buyer */\n    tag_6:\n      tag_25\n      tag_26\n      jump\t// in\n    tag_25:\n      mload(0x40)\n      tag_27\n      swap2\n      swap1\n      tag_16\n      jump\t// in\n    tag_27:\n      mload(0x40)\n      dup1\n      swap2\n      sub\n      swap1\n      return\n        /* \"Buyer-Seller.sol\":2135:2421  function getAllOrders() external view onlyParticipant returns (Order[] memory) {... */\n    tag_7:\n      tag_28\n      tag_29\n      jump\t// in\n    tag_28:\n      mload(0x40)\n      tag_30\n      swap2\n      swap1\n      tag_31\n      jump\t// in\n    tag_30:\n      mload(0x40)\n      dup1\n      swap2\n      sub\n      swap1\n      return\n        /* \"Buyer-Seller.sol\":1103:1528  function placeOrder(string memory _product, uint256 _quantity) external onlyParticipant {... */\n    tag_8:\n      tag_32\n      0x04\n      dup1\n      calldatasize\n      sub\n      dup2\n      add\n      swap1\n      tag_33\n      swap2\n      swap1\n      tag_34\n      jump\t// in\n    tag_33:\n      tag_35\n      jump\t// in\n    tag_32:\n      stop\n        /* \"Buyer-Seller.sol\":346:385  mapping(uint256 => Order) public orders */\n    tag_9:\n      tag_36\n      0x04\n      dup1\n      calldatasize\n      sub\n      dup2\n      add\n      swap1\n      tag_37\n      swap2\n      swap1\n      tag_19\n      jump\t// in\n    tag_37:\n      tag_38\n      jump\t// in\n    tag_36:\n      mload(0x40)\n      tag_39\n      swap5\n      swap4\n      swap3\n      swap2\n      swap1\n      tag_40\n      jump\t// in\n    tag_39:\n      mload(0x40)\n      dup1\n      swap2\n      sub\n      swap1\n      return\n        /* \"Buyer-Seller.sol\":1965:2127  function deliverOrder(uint256 _orderId) external onlyParticipant orderNotDelivered(_orderId) {... */\n    tag_10:\n      tag_41\n      0x04\n      dup1\n      calldatasize\n      sub\n      dup2\n      add\n      swap1\n      tag_42\n      swap2\n      swap1\n      tag_19\n      jump\t// in\n    tag_42:\n      tag_43\n      jump\t// in\n    tag_41:\n      stop\n        /* \"Buyer-Seller.sol\":2429:3106  function getShippableOrders() external view onlyParticipant returns (Order[] memory) {... */\n    tag_11:\n      tag_44\n      tag_45\n      jump\t// in\n    tag_44:\n      mload(0x40)\n      tag_46\n      swap2\n      swap1\n      tag_31\n      jump\t// in\n    tag_46:\n      mload(0x40)\n      dup1\n      swap2\n      sub\n      swap1\n      return\n        /* \"Buyer-Seller.sol\":124:145  address public seller */\n    tag_14:\n      0x01\n      0x00\n      swap1\n      sload\n      swap1\n      0x0100\n      exp\n      swap1\n      div\n      0xffffffffffffffffffffffffffffffffffffffff\n      and\n      dup2\n      jump\t// out\n        /* \"Buyer-Seller.sol\":1800:1957  function shipOrder(uint256 _orderId) external onlyParticipant orderNotDelivered(_orderId) {... */\n    tag_20:\n        /* \"Buyer-Seller.sol\":582:587  buyer */\n      0x00\n      dup1\n      sload\n      swap1\n      0x0100\n      exp\n      swap1\n      div\n      0xffffffffffffffffffffffffffffffffffffffff\n      and\n        /* \"Buyer-Seller.sol\":568:587  msg.sender == buyer */\n      0xffffffffffffffffffffffffffffffffffffffff\n      and\n        /* \"Buyer-Seller.sol\":568:578  msg.sender */\n      caller\n        /* \"Buyer-Seller.sol\":568:587  msg.sender == buyer */\n      0xffffffffffffffffffffffffffffffffffffffff\n      and\n      eq\n        /* \"Buyer-Seller.sol\":568:611  msg.sender == buyer || msg.sender == seller */\n      dup1\n      tag_48\n      jumpi\n      pop\n        /* \"Buyer-Seller.sol\":605:611  seller */\n      0x01\n      0x00\n      swap1\n      sload\n      swap1\n      0x0100\n      exp\n      swap1\n      div\n      0xffffffffffffffffffffffffffffffffffffffff\n      and\n        /* \"Buyer-Seller.sol\":591:611  msg.sender == seller */\n      0xffffffffffffffffffffffffffffffffffffffff\n      and\n        /* \"Buyer-Seller.sol\":591:601  msg.sender */\n      caller\n        /* \"Buyer-Seller.sol\":591:611  msg.sender == seller */\n      0xffffffffffffffffffffffffffffffffffffffff\n      and\n      eq\n        /* \"Buyer-Seller.sol\":568:611  msg.sender == buyer || msg.sender == seller */\n    tag_48:\n        /* \"Buyer-Seller.sol\":560:659  require(msg.sender == buyer || msg.sender == seller, \"Only buyer or seller can call this function\") */\n      tag_49\n      jumpi\n      mload(0x40)\n      0x08c379a000000000000000000000000000000000000000000000000000000000\n      dup2\n      mstore\n      0x04\n      add\n      tag_50\n      swap1\n      tag_51\n      jump\t// in\n    tag_50:\n      mload(0x40)\n      dup1\n      swap2\n      sub\n      swap1\n      revert\n    tag_49:\n        /* \"Buyer-Seller.sol\":1880:1888  _orderId */\n      dup1\n        /* \"Buyer-Seller.sol\":925:946  OrderStatus.Delivered */\n      0x02\n        /* \"Buyer-Seller.sol\":898:946  orders[_orderId].status != OrderStatus.Delivered */\n      dup1\n      dup2\n      gt\n      iszero\n      tag_53\n      jumpi\n      tag_54\n      tag_55\n      jump\t// in\n    tag_54:\n    tag_53:\n        /* \"Buyer-Seller.sol\":898:904  orders */\n      0x02\n        /* \"Buyer-Seller.sol\":898:914  orders[_orderId] */\n      0x00\n        /* \"Buyer-Seller.sol\":905:913  _orderId */\n      dup4\n        /* \"Buyer-Seller.sol\":898:914  orders[_orderId] */\n      dup2\n      mstore\n      0x20\n      add\n      swap1\n      dup2\n      mstore\n      0x20\n      add\n      0x00\n      keccak256\n        /* \"Buyer-Seller.sol\":898:921  orders[_orderId].status */\n      0x03\n      add\n      0x00\n      swap1\n      sload\n      swap1\n      0x0100\n      exp\n      swap1\n      div\n      0xff\n      and\n        /* \"Buyer-Seller.sol\":898:946  orders[_orderId].status != OrderStatus.Delivered */\n      0x02\n      dup2\n      gt\n      iszero\n      tag_56\n      jumpi\n      tag_57\n      tag_55\n      jump\t// in\n    tag_57:\n    tag_56:\n      sub\n        /* \"Buyer-Seller.sol\":890:974  require(orders[_orderId].status != OrderStatus.Delivered, \"Order already delivered\") */\n      tag_58\n      jumpi\n      mload(0x40)\n      0x08c379a000000000000000000000000000000000000000000000000000000000\n      dup2\n      mstore\n      0x04\n      add\n      tag_59\n      swap1\n      tag_60\n      jump\t// in\n    tag_59:\n      mload(0x40)\n      dup1\n      swap2\n      sub\n      swap1\n      revert\n    tag_58:\n        /* \"Buyer-Seller.sol\":1901:1949  updateOrderStatus(_orderId, OrderStatus.Shipped) */\n      tag_62\n        /* \"Buyer-Seller.sol\":1919:1927  _orderId */\n      dup3\n        /* \"Buyer-Seller.sol\":1929:1948  OrderStatus.Shipped */\n      0x01\n        /* \"Buyer-Seller.sol\":1901:1918  updateOrderStatus */\n      tag_63\n        /* \"Buyer-Seller.sol\":1901:1949  updateOrderStatus(_orderId, OrderStatus.Shipped) */\n      jump\t// in\n    tag_62:\n        /* \"Buyer-Seller.sol\":670:671  _ */\n      pop\n        /* \"Buyer-Seller.sol\":1800:1957  function shipOrder(uint256 _orderId) external onlyParticipant orderNotDelivered(_orderId) {... */\n      pop\n      jump\t// out\n        /* \"Buyer-Seller.sol\":392:417  uint256 public orderCount */\n    tag_22:\n      sload(0x03)\n      dup2\n      jump\t// out\n        /* \"Buyer-Seller.sol\":97:117  address public buyer */\n    tag_26:\n      0x00\n      dup1\n      sload\n      swap1\n      0x0100\n      exp\n      swap1\n      div\n      0xffffffffffffffffffffffffffffffffffffffff\n      and\n      dup2\n      jump\t// out\n        /* \"Buyer-Seller.sol\":2135:2421  function getAllOrders() external view onlyParticipant returns (Order[] memory) {... */\n    tag_29:\n        /* \"Buyer-Seller.sol\":2198:2212  Order[] memory */\n      0x60\n        /* \"Buyer-Seller.sol\":582:587  buyer */\n      0x00\n      dup1\n      sload\n      swap1\n      0x0100\n      exp\n      swap1\n      div\n      0xffffffffffffffffffffffffffffffffffffffff\n      and\n        /* \"Buyer-Seller.sol\":568:587  msg.sender == buyer */\n      0xffffffffffffffffffffffffffffffffffffffff\n      and\n        /* \"Buyer-Seller.sol\":568:578  msg.sender */\n      caller\n        /* \"Buyer-Seller.sol\":568:587  msg.sender == buyer */\n      0xffffffffffffffffffffffffffffffffffffffff\n      and\n      eq\n        /* \"Buyer-Seller.sol\":568:611  msg.sender == buyer || msg.sender == seller */\n      dup1\n      tag_65\n      jumpi\n      pop\n        /* \"Buyer-Seller.sol\":605:611  seller */\n      0x01\n      0x00\n      swap1\n      sload\n      swap1\n      0x0100\n      exp\n      swap1\n      div\n      0xffffffffffffffffffffffffffffffffffffffff\n      and\n        /* \"Buyer-Seller.sol\":591:611  msg.sender == seller */\n      0xffffffffffffffffffffffffffffffffffffffff\n      and\n        /* \"Buyer-Seller.sol\":591:601  msg.sender */\n      caller\n        /* \"Buyer-Seller.sol\":591:611  msg.sender == seller */\n      0xffffffffffffffffffffffffffffffffffffffff\n      and\n      eq\n        /* \"Buyer-Seller.sol\":568:611  msg.sender == buyer || msg.sender == seller */\n    tag_65:\n        /* \"Buyer-Seller.sol\":560:659  require(msg.sender == buyer || msg.sender == seller, \"Only buyer or seller can call this function\") */\n      tag_66\n      jumpi\n      mload(0x40)\n      0x08c379a000000000000000000000000000000000000000000000000000000000\n      dup2\n      mstore\n      0x04\n      add\n      tag_67\n      swap1\n      tag_51\n      jump\t// in\n    tag_67:\n      mload(0x40)\n      dup1\n      swap2\n      sub\n      swap1\n      revert\n    tag_66:\n        /* \"Buyer-Seller.sol\":2225:2249  Order[] memory allOrders */\n      0x00\n        /* \"Buyer-Seller.sol\":2264:2274  orderCount */\n      sload(0x03)\n        /* \"Buyer-Seller.sol\":2252:2275  new Order[](orderCount) */\n      0xffffffffffffffff\n      dup2\n      gt\n      iszero\n      tag_69\n      jumpi\n      tag_70\n      tag_71\n      jump\t// in\n    tag_70:\n    tag_69:\n      mload(0x40)\n      swap1\n      dup1\n      dup3\n      mstore\n      dup1\n      0x20\n      mul\n      0x20\n      add\n      dup3\n      add\n      0x40\n      mstore\n      dup1\n      iszero\n      tag_72\n      jumpi\n      dup2\n      0x20\n      add\n    tag_73:\n      tag_74\n      tag_75\n      jump\t// in\n    tag_74:\n      dup2\n      mstore\n      0x20\n      add\n      swap1\n      0x01\n      swap1\n      sub\n      swap1\n      dup2\n      tag_73\n      jumpi\n      swap1\n      pop\n    tag_72:\n      pop\n        /* \"Buyer-Seller.sol\":2225:2275  Order[] memory allOrders = new Order[](orderCount) */\n      swap1\n      pop\n        /* \"Buyer-Seller.sol\":2293:2302  uint256 i */\n      0x00\n        /* \"Buyer-Seller.sol\":2305:2306  1 */\n      0x01\n        /* \"Buyer-Seller.sol\":2293:2306  uint256 i = 1 */\n      swap1\n      pop\n        /* \"Buyer-Seller.sol\":2288:2385  for (uint256 i = 1; i <= orderCount; i++) {... */\n    tag_76:\n        /* \"Buyer-Seller.sol\":2313:2323  orderCount */\n      sload(0x03)\n        /* \"Buyer-Seller.sol\":2308:2309  i */\n      dup2\n        /* \"Buyer-Seller.sol\":2308:2323  i <= orderCount */\n      gt\n        /* \"Buyer-Seller.sol\":2288:2385  for (uint256 i = 1; i <= orderCount; i++) {... */\n      tag_77\n      jumpi\n        /* \"Buyer-Seller.sol\":2364:2370  orders */\n      0x02\n        /* \"Buyer-Seller.sol\":2364:2373  orders[i] */\n      0x00\n        /* \"Buyer-Seller.sol\":2371:2372  i */\n      dup3\n        /* \"Buyer-Seller.sol\":2364:2373  orders[i] */\n      dup2\n      mstore\n      0x20\n      add\n      swap1\n      dup2\n      mstore\n      0x20\n      add\n      0x00\n      keccak256\n        /* \"Buyer-Seller.sol\":2345:2373  allOrders[i - 1] = orders[i] */\n      mload(0x40)\n      dup1\n      0x80\n      add\n      0x40\n      mstore\n      swap1\n      dup2\n      0x00\n      dup3\n      add\n      sload\n      dup2\n      mstore\n      0x20\n      add\n      0x01\n      dup3\n      add\n      dup1\n      sload\n      tag_79\n      swap1\n      tag_80\n      jump\t// in\n    tag_79:\n      dup1\n      0x1f\n      add\n      0x20\n      dup1\n      swap2\n      div\n      mul\n      0x20\n      add\n      mload(0x40)\n      swap1\n      dup2\n      add\n      0x40\n      mstore\n      dup1\n      swap3\n      swap2\n      swap1\n      dup2\n      dup2\n      mstore\n      0x20\n      add\n      dup3\n      dup1\n      sload\n      tag_81\n      swap1\n      tag_80\n      jump\t// in\n    tag_81:\n      dup1\n      iszero\n      tag_82\n      jumpi\n      dup1\n      0x1f\n      lt\n      tag_83\n      jumpi\n      0x0100\n      dup1\n      dup4\n      sload\n      div\n      mul\n      dup4\n      mstore\n      swap2\n      0x20\n      add\n      swap2\n      jump(tag_82)\n    tag_83:\n      dup3\n      add\n      swap2\n      swap1\n      0x00\n      mstore\n      keccak256(0x00, 0x20)\n      swap1\n    tag_84:\n      dup2\n      sload\n      dup2\n      mstore\n      swap1\n      0x01\n      add\n      swap1\n      0x20\n      add\n      dup1\n      dup4\n      gt\n      tag_84\n      jumpi\n      dup3\n      swap1\n      sub\n      0x1f\n      and\n      dup3\n      add\n      swap2\n    tag_82:\n      pop\n      pop\n      pop\n      pop\n      pop\n      dup2\n      mstore\n      0x20\n      add\n      0x02\n      dup3\n      add\n      sload\n      dup2\n      mstore\n      0x20\n      add\n      0x03\n      dup3\n      add\n      0x00\n      swap1\n      sload\n      swap1\n      0x0100\n      exp\n      swap1\n      div\n      0xff\n      and\n      0x02\n      dup2\n      gt\n      iszero\n      tag_85\n      jumpi\n      tag_86\n      tag_55\n      jump\t// in\n    tag_86:\n    tag_85:\n      0x02\n      dup2\n      gt\n      iszero\n      tag_87\n      jumpi\n      tag_88\n      tag_55\n      jump\t// in\n    tag_88:\n    tag_87:\n      dup2\n      mstore\n      pop\n      pop\n        /* \"Buyer-Seller.sol\":2345:2354  allOrders */\n      dup3\n        /* \"Buyer-Seller.sol\":2359:2360  1 */\n      0x01\n        /* \"Buyer-Seller.sol\":2355:2356  i */\n      dup4\n        /* \"Buyer-Seller.sol\":2355:2360  i - 1 */\n      tag_89\n      swap2\n      swap1\n      tag_90\n      jump\t// in\n    tag_89:\n        /* \"Buyer-Seller.sol\":2345:2361  allOrders[i - 1] */\n      dup2\n      mload\n      dup2\n      lt\n      tag_91\n      jumpi\n      tag_92\n      tag_93\n      jump\t// in\n    tag_92:\n    tag_91:\n      0x20\n      mul\n      0x20\n      add\n      add\n        /* \"Buyer-Seller.sol\":2345:2373  allOrders[i - 1] = orders[i] */\n      dup2\n      swap1\n      mstore\n      pop\n        /* \"Buyer-Seller.sol\":2325:2328  i++ */\n      dup1\n      dup1\n      tag_94\n      swap1\n      tag_95\n      jump\t// in\n    tag_94:\n      swap2\n      pop\n      pop\n        /* \"Buyer-Seller.sol\":2288:2385  for (uint256 i = 1; i <= orderCount; i++) {... */\n      jump(tag_76)\n    tag_77:\n      pop\n        /* \"Buyer-Seller.sol\":2404:2413  allOrders */\n      dup1\n        /* \"Buyer-Seller.sol\":2397:2413  return allOrders */\n      swap2\n      pop\n      pop\n        /* \"Buyer-Seller.sol\":2135:2421  function getAllOrders() external view onlyParticipant returns (Order[] memory) {... */\n      swap1\n      jump\t// out\n        /* \"Buyer-Seller.sol\":1103:1528  function placeOrder(string memory _product, uint256 _quantity) external onlyParticipant {... */\n    tag_35:\n        /* \"Buyer-Seller.sol\":582:587  buyer */\n      0x00\n      dup1\n      sload\n      swap1\n      0x0100\n      exp\n      swap1\n      div\n      0xffffffffffffffffffffffffffffffffffffffff\n      and\n        /* \"Buyer-Seller.sol\":568:587  msg.sender == buyer */\n      0xffffffffffffffffffffffffffffffffffffffff\n      and\n        /* \"Buyer-Seller.sol\":568:578  msg.sender */\n      caller\n        /* \"Buyer-Seller.sol\":568:587  msg.sender == buyer */\n      0xffffffffffffffffffffffffffffffffffffffff\n      and\n      eq\n        /* \"Buyer-Seller.sol\":568:611  msg.sender == buyer || msg.sender == seller */\n      dup1\n      tag_97\n      jumpi\n      pop\n        /* \"Buyer-Seller.sol\":605:611  seller */\n      0x01\n      0x00\n      swap1\n      sload\n      swap1\n      0x0100\n      exp\n      swap1\n      div\n      0xffffffffffffffffffffffffffffffffffffffff\n      and\n        /* \"Buyer-Seller.sol\":591:611  msg.sender == seller */\n      0xffffffffffffffffffffffffffffffffffffffff\n      and\n        /* \"Buyer-Seller.sol\":591:601  msg.sender */\n      caller\n        /* \"Buyer-Seller.sol\":591:611  msg.sender == seller */\n      0xffffffffffffffffffffffffffffffffffffffff\n      and\n      eq\n        /* \"Buyer-Seller.sol\":568:611  msg.sender == buyer || msg.sender == seller */\n    tag_97:\n        /* \"Buyer-Seller.sol\":560:659  require(msg.sender == buyer || msg.sender == seller, \"Only buyer or seller can call this function\") */\n      tag_98\n      jumpi\n      mload(0x40)\n      0x08c379a000000000000000000000000000000000000000000000000000000000\n      dup2\n      mstore\n      0x04\n      add\n      tag_99\n      swap1\n      tag_51\n      jump\t// in\n    tag_99:\n      mload(0x40)\n      dup1\n      swap2\n      sub\n      swap1\n      revert\n    tag_98:\n        /* \"Buyer-Seller.sol\":1202:1212  orderCount */\n      0x03\n      0x00\n        /* \"Buyer-Seller.sol\":1202:1214  orderCount++ */\n      dup2\n      sload\n      dup1\n      swap3\n      swap2\n      swap1\n      tag_101\n      swap1\n      tag_95\n      jump\t// in\n    tag_101:\n      swap2\n      swap1\n      pop\n      sstore\n      pop\n        /* \"Buyer-Seller.sol\":1225:1240  uint256 orderId */\n      0x00\n        /* \"Buyer-Seller.sol\":1243:1253  orderCount */\n      sload(0x03)\n        /* \"Buyer-Seller.sol\":1225:1253  uint256 orderId = orderCount */\n      swap1\n      pop\n        /* \"Buyer-Seller.sol\":1284:1441  Order({... */\n      mload(0x40)\n      dup1\n      0x80\n      add\n      0x40\n      mstore\n      dup1\n        /* \"Buyer-Seller.sol\":1314:1321  orderId */\n      dup3\n        /* \"Buyer-Seller.sol\":1284:1441  Order({... */\n      dup2\n      mstore\n      0x20\n      add\n        /* \"Buyer-Seller.sol\":1345:1353  _product */\n      dup5\n        /* \"Buyer-Seller.sol\":1284:1441  Order({... */\n      dup2\n      mstore\n      0x20\n      add\n        /* \"Buyer-Seller.sol\":1378:1387  _quantity */\n      dup4\n        /* \"Buyer-Seller.sol\":1284:1441  Order({... */\n      dup2\n      mstore\n      0x20\n      add\n        /* \"Buyer-Seller.sol\":1410:1429  OrderStatus.Created */\n      0x00\n        /* \"Buyer-Seller.sol\":1284:1441  Order({... */\n      0x02\n      dup2\n      gt\n      iszero\n      tag_102\n      jumpi\n      tag_103\n      tag_55\n      jump\t// in\n    tag_103:\n    tag_102:\n      dup2\n      mstore\n      pop\n        /* \"Buyer-Seller.sol\":1266:1272  orders */\n      0x02\n        /* \"Buyer-Seller.sol\":1266:1281  orders[orderId] */\n      0x00\n        /* \"Buyer-Seller.sol\":1273:1280  orderId */\n      dup4\n        /* \"Buyer-Seller.sol\":1266:1281  orders[orderId] */\n      dup2\n      mstore\n      0x20\n      add\n      swap1\n      dup2\n      mstore\n      0x20\n      add\n      0x00\n      keccak256\n        /* \"Buyer-Seller.sol\":1266:1441  orders[orderId] = Order({... */\n      0x00\n      dup3\n      add\n      mload\n      dup2\n      0x00\n      add\n      sstore\n      0x20\n      dup3\n      add\n      mload\n      dup2\n      0x01\n      add\n      swap1\n      dup2\n      tag_104\n      swap2\n      swap1\n      tag_105\n      jump\t// in\n    tag_104:\n      pop\n      0x40\n      dup3\n      add\n      mload\n      dup2\n      0x02\n      add\n      sstore\n      0x60\n      dup3\n      add\n      mload\n      dup2\n      0x03\n      add\n      exp(0x0100, 0x00)\n      dup2\n      sload\n      dup2\n      0xff\n      mul\n      not\n      and\n      swap1\n      dup4\n      0x02\n      dup2\n      gt\n      iszero\n      tag_106\n      jumpi\n      tag_107\n      tag_55\n      jump\t// in\n    tag_107:\n    tag_106:\n      mul\n      or\n      swap1\n      sstore\n      pop\n      swap1\n      pop\n      pop\n        /* \"Buyer-Seller.sol\":1459:1520  OrderEvent(orderId, _product, _quantity, OrderStatus.Created) */\n      0x55a618ac33e95affba4a62caf2ede71d066a7dbe093c888809d2f6eae13730cd\n        /* \"Buyer-Seller.sol\":1470:1477  orderId */\n      dup2\n        /* \"Buyer-Seller.sol\":1479:1487  _product */\n      dup5\n        /* \"Buyer-Seller.sol\":1489:1498  _quantity */\n      dup5\n        /* \"Buyer-Seller.sol\":1500:1519  OrderStatus.Created */\n      0x00\n        /* \"Buyer-Seller.sol\":1459:1520  OrderEvent(orderId, _product, _quantity, OrderStatus.Created) */\n      mload(0x40)\n      tag_108\n      swap5\n      swap4\n      swap3\n      swap2\n      swap1\n      tag_40\n      jump\t// in\n    tag_108:\n      mload(0x40)\n      dup1\n      swap2\n      sub\n      swap1\n      log1\n        /* \"Buyer-Seller.sol\":1191:1528  {... */\n      pop\n        /* \"Buyer-Seller.sol\":1103:1528  function placeOrder(string memory _product, uint256 _quantity) external onlyParticipant {... */\n      pop\n      pop\n      jump\t// out\n        /* \"Buyer-Seller.sol\":346:385  mapping(uint256 => Order) public orders */\n    tag_38:\n      mstore(0x20, 0x02)\n      dup1\n      0x00\n      mstore\n      keccak256(0x00, 0x40)\n      0x00\n      swap2\n      pop\n      swap1\n      pop\n      dup1\n      0x00\n      add\n      sload\n      swap1\n      dup1\n      0x01\n      add\n      dup1\n      sload\n      tag_109\n      swap1\n      tag_80\n      jump\t// in\n    tag_109:\n      dup1\n      0x1f\n      add\n      0x20\n      dup1\n      swap2\n      div\n      mul\n      0x20\n      add\n      mload(0x40)\n      swap1\n      dup2\n      add\n      0x40\n      mstore\n      dup1\n      swap3\n      swap2\n      swap1\n      dup2\n      dup2\n      mstore\n      0x20\n      add\n      dup3\n      dup1\n      sload\n      tag_110\n      swap1\n      tag_80\n      jump\t// in\n    tag_110:\n      dup1\n      iszero\n      tag_111\n      jumpi\n      dup1\n      0x1f\n      lt\n      tag_112\n      jumpi\n      0x0100\n      dup1\n      dup4\n      sload\n      div\n      mul\n      dup4\n      mstore\n      swap2\n      0x20\n      add\n      swap2\n      jump(tag_111)\n    tag_112:\n      dup3\n      add\n      swap2\n      swap1\n      0x00\n      mstore\n      keccak256(0x00, 0x20)\n      swap1\n    tag_113:\n      dup2\n      sload\n      dup2\n      mstore\n      swap1\n      0x01\n      add\n      swap1\n      0x20\n      add\n      dup1\n      dup4\n      gt\n      tag_113\n      jumpi\n      dup3\n      swap1\n      sub\n      0x1f\n      and\n      dup3\n      add\n      swap2\n    tag_111:\n      pop\n      pop\n      pop\n      pop\n      pop\n      swap1\n      dup1\n      0x02\n      add\n      sload\n      swap1\n      dup1\n      0x03\n      add\n      0x00\n      swap1\n      sload\n      swap1\n      0x0100\n      exp\n      swap1\n      div\n      0xff\n      and\n      swap1\n      pop\n      dup5\n      jump\t// out\n        /* \"Buyer-Seller.sol\":1965:2127  function deliverOrder(uint256 _orderId) external onlyParticipant orderNotDelivered(_orderId) {... */\n    tag_43:\n        /* \"Buyer-Seller.sol\":582:587  buyer */\n      0x00\n      dup1\n      sload\n      swap1\n      0x0100\n      exp\n      swap1\n      div\n      0xffffffffffffffffffffffffffffffffffffffff\n      and\n        /* \"Buyer-Seller.sol\":568:587  msg.sender == buyer */\n      0xffffffffffffffffffffffffffffffffffffffff\n      and\n        /* \"Buyer-Seller.sol\":568:578  msg.sender */\n      caller\n        /* \"Buyer-Seller.sol\":568:587  msg.sender == buyer */\n      0xffffffffffffffffffffffffffffffffffffffff\n      and\n      eq\n        /* \"Buyer-Seller.sol\":568:611  msg.sender == buyer || msg.sender == seller */\n      dup1\n      tag_115\n      jumpi\n      pop\n        /* \"Buyer-Seller.sol\":605:611  seller */\n      0x01\n      0x00\n      swap1\n      sload\n      swap1\n      0x0100\n      exp\n      swap1\n      div\n      0xffffffffffffffffffffffffffffffffffffffff\n      and\n        /* \"Buyer-Seller.sol\":591:611  msg.sender == seller */\n      0xffffffffffffffffffffffffffffffffffffffff\n      and\n        /* \"Buyer-Seller.sol\":591:601  msg.sender */\n      caller\n        /* \"Buyer-Seller.sol\":591:611  msg.sender == seller */\n      0xffffffffffffffffffffffffffffffffffffffff\n      and\n      eq\n        /* \"Buyer-Seller.sol\":568:611  msg.sender == buyer || msg.sender == seller */\n    tag_115:\n        /* \"Buyer-Seller.sol\":560:659  require(msg.sender == buyer || msg.sender == seller, \"Only buyer or seller can call this function\") */\n      tag_116\n      jumpi\n      mload(0x40)\n      0x08c379a000000000000000000000000000000000000000000000000000000000\n      dup2\n      mstore\n      0x04\n      add\n      tag_117\n      swap1\n      tag_51\n      jump\t// in\n    tag_117:\n      mload(0x40)\n      dup1\n      swap2\n      sub\n      swap1\n      revert\n    tag_116:\n        /* \"Buyer-Seller.sol\":2048:2056  _orderId */\n      dup1\n        /* \"Buyer-Seller.sol\":925:946  OrderStatus.Delivered */\n      0x02\n        /* \"Buyer-Seller.sol\":898:946  orders[_orderId].status != OrderStatus.Delivered */\n      dup1\n      dup2\n      gt\n      iszero\n      tag_119\n      jumpi\n      tag_120\n      tag_55\n      jump\t// in\n    tag_120:\n    tag_119:\n        /* \"Buyer-Seller.sol\":898:904  orders */\n      0x02\n        /* \"Buyer-Seller.sol\":898:914  orders[_orderId] */\n      0x00\n        /* \"Buyer-Seller.sol\":905:913  _orderId */\n      dup4\n        /* \"Buyer-Seller.sol\":898:914  orders[_orderId] */\n      dup2\n      mstore\n      0x20\n      add\n      swap1\n      dup2\n      mstore\n      0x20\n      add\n      0x00\n      keccak256\n        /* \"Buyer-Seller.sol\":898:921  orders[_orderId].status */\n      0x03\n      add\n      0x00\n      swap1\n      sload\n      swap1\n      0x0100\n      exp\n      swap1\n      div\n      0xff\n      and\n        /* \"Buyer-Seller.sol\":898:946  orders[_orderId].status != OrderStatus.Delivered */\n      0x02\n      dup2\n      gt\n      iszero\n      tag_121\n      jumpi\n      tag_122\n      tag_55\n      jump\t// in\n    tag_122:\n    tag_121:\n      sub\n        /* \"Buyer-Seller.sol\":890:974  require(orders[_orderId].status != OrderStatus.Delivered, \"Order already delivered\") */\n      tag_123\n      jumpi\n      mload(0x40)\n      0x08c379a000000000000000000000000000000000000000000000000000000000\n      dup2\n      mstore\n      0x04\n      add\n      tag_124\n      swap1\n      tag_60\n      jump\t// in\n    tag_124:\n      mload(0x40)\n      dup1\n      swap2\n      sub\n      swap1\n      revert\n    tag_123:\n        /* \"Buyer-Seller.sol\":2069:2119  updateOrderStatus(_orderId, OrderStatus.Delivered) */\n      tag_126\n        /* \"Buyer-Seller.sol\":2087:2095  _orderId */\n      dup3\n        /* \"Buyer-Seller.sol\":2097:2118  OrderStatus.Delivered */\n      0x02\n        /* \"Buyer-Seller.sol\":2069:2086  updateOrderStatus */\n      tag_63\n        /* \"Buyer-Seller.sol\":2069:2119  updateOrderStatus(_orderId, OrderStatus.Delivered) */\n      jump\t// in\n    tag_126:\n        /* \"Buyer-Seller.sol\":670:671  _ */\n      pop\n        /* \"Buyer-Seller.sol\":1965:2127  function deliverOrder(uint256 _orderId) external onlyParticipant orderNotDelivered(_orderId) {... */\n      pop\n      jump\t// out\n        /* \"Buyer-Seller.sol\":2429:3106  function getShippableOrders() external view onlyParticipant returns (Order[] memory) {... */\n    tag_45:\n        /* \"Buyer-Seller.sol\":2498:2512  Order[] memory */\n      0x60\n        /* \"Buyer-Seller.sol\":582:587  buyer */\n      0x00\n      dup1\n      sload\n      swap1\n      0x0100\n      exp\n      swap1\n      div\n      0xffffffffffffffffffffffffffffffffffffffff\n      and\n        /* \"Buyer-Seller.sol\":568:587  msg.sender == buyer */\n      0xffffffffffffffffffffffffffffffffffffffff\n      and\n        /* \"Buyer-Seller.sol\":568:578  msg.sender */\n      caller\n        /* \"Buyer-Seller.sol\":568:587  msg.sender == buyer */\n      0xffffffffffffffffffffffffffffffffffffffff\n      and\n      eq\n        /* \"Buyer-Seller.sol\":568:611  msg.sender == buyer || msg.sender == seller */\n      dup1\n      tag_128\n      jumpi\n      pop\n        /* \"Buyer-Seller.sol\":605:611  seller */\n      0x01\n      0x00\n      swap1\n      sload\n      swap1\n      0x0100\n      exp\n      swap1\n      div\n      0xffffffffffffffffffffffffffffffffffffffff\n      and\n        /* \"Buyer-Seller.sol\":591:611  msg.sender == seller */\n      0xffffffffffffffffffffffffffffffffffffffff\n      and\n        /* \"Buyer-Seller.sol\":591:601  msg.sender */\n      caller\n        /* \"Buyer-Seller.sol\":591:611  msg.sender == seller */\n      0xffffffffffffffffffffffffffffffffffffffff\n      and\n      eq\n        /* \"Buyer-Seller.sol\":568:611  msg.sender == buyer || msg.sender == seller */\n    tag_128:\n        /* \"Buyer-Seller.sol\":560:659  require(msg.sender == buyer || msg.sender == seller, \"Only buyer or seller can call this function\") */\n      tag_129\n      jumpi\n      mload(0x40)\n      0x08c379a000000000000000000000000000000000000000000000000000000000\n      dup2\n      mstore\n      0x04\n      add\n      tag_130\n      swap1\n      tag_51\n      jump\t// in\n    tag_130:\n      mload(0x40)\n      dup1\n      swap2\n      sub\n      swap1\n      revert\n    tag_129:\n        /* \"Buyer-Seller.sol\":2525:2552  uint256 shippableOrderCount */\n      0x00\n        /* \"Buyer-Seller.sol\":2574:2583  uint256 i */\n      dup1\n        /* \"Buyer-Seller.sol\":2586:2587  1 */\n      0x01\n        /* \"Buyer-Seller.sol\":2574:2587  uint256 i = 1 */\n      swap1\n      pop\n        /* \"Buyer-Seller.sol\":2569:2738  for (uint256 i = 1; i <= orderCount; i++) {... */\n    tag_132:\n        /* \"Buyer-Seller.sol\":2594:2604  orderCount */\n      sload(0x03)\n        /* \"Buyer-Seller.sol\":2589:2590  i */\n      dup2\n        /* \"Buyer-Seller.sol\":2589:2604  i <= orderCount */\n      gt\n        /* \"Buyer-Seller.sol\":2569:2738  for (uint256 i = 1; i <= orderCount; i++) {... */\n      tag_133\n      jumpi\n        /* \"Buyer-Seller.sol\":2650:2669  OrderStatus.Created */\n      0x00\n        /* \"Buyer-Seller.sol\":2630:2669  orders[i].status == OrderStatus.Created */\n      0x02\n      dup2\n      gt\n      iszero\n      tag_135\n      jumpi\n      tag_136\n      tag_55\n      jump\t// in\n    tag_136:\n    tag_135:\n        /* \"Buyer-Seller.sol\":2630:2636  orders */\n      0x02\n        /* \"Buyer-Seller.sol\":2630:2639  orders[i] */\n      0x00\n        /* \"Buyer-Seller.sol\":2637:2638  i */\n      dup4\n        /* \"Buyer-Seller.sol\":2630:2639  orders[i] */\n      dup2\n      mstore\n      0x20\n      add\n      swap1\n      dup2\n      mstore\n      0x20\n      add\n      0x00\n      keccak256\n        /* \"Buyer-Seller.sol\":2630:2646  orders[i].status */\n      0x03\n      add\n      0x00\n      swap1\n      sload\n      swap1\n      0x0100\n      exp\n      swap1\n      div\n      0xff\n      and\n        /* \"Buyer-Seller.sol\":2630:2669  orders[i].status == OrderStatus.Created */\n      0x02\n      dup2\n      gt\n      iszero\n      tag_137\n      jumpi\n      tag_138\n      tag_55\n      jump\t// in\n    tag_138:\n    tag_137:\n      sub\n        /* \"Buyer-Seller.sol\":2626:2727  if (orders[i].status == OrderStatus.Created) {... */\n      tag_139\n      jumpi\n        /* \"Buyer-Seller.sol\":2690:2711  shippableOrderCount++ */\n      dup2\n      dup1\n      tag_140\n      swap1\n      tag_95\n      jump\t// in\n    tag_140:\n      swap3\n      pop\n      pop\n        /* \"Buyer-Seller.sol\":2626:2727  if (orders[i].status == OrderStatus.Created) {... */\n    tag_139:\n        /* \"Buyer-Seller.sol\":2606:2609  i++ */\n      dup1\n      dup1\n      tag_141\n      swap1\n      tag_95\n      jump\t// in\n    tag_141:\n      swap2\n      pop\n      pop\n        /* \"Buyer-Seller.sol\":2569:2738  for (uint256 i = 1; i <= orderCount; i++) {... */\n      jump(tag_132)\n    tag_133:\n      pop\n        /* \"Buyer-Seller.sol\":2750:2780  Order[] memory shippableOrders */\n      0x00\n        /* \"Buyer-Seller.sol\":2795:2814  shippableOrderCount */\n      dup2\n        /* \"Buyer-Seller.sol\":2783:2815  new Order[](shippableOrderCount) */\n      0xffffffffffffffff\n      dup2\n      gt\n      iszero\n      tag_142\n      jumpi\n      tag_143\n      tag_71\n      jump\t// in\n    tag_143:\n    tag_142:\n      mload(0x40)\n      swap1\n      dup1\n      dup3\n      mstore\n      dup1\n      0x20\n      mul\n      0x20\n      add\n      dup3\n      add\n      0x40\n      mstore\n      dup1\n      iszero\n      tag_144\n      jumpi\n      dup2\n      0x20\n      add\n    tag_145:\n      tag_146\n      tag_75\n      jump\t// in\n    tag_146:\n      dup2\n      mstore\n      0x20\n      add\n      swap1\n      0x01\n      swap1\n      sub\n      swap1\n      dup2\n      tag_145\n      jumpi\n      swap1\n      pop\n    tag_144:\n      pop\n        /* \"Buyer-Seller.sol\":2750:2815  Order[] memory shippableOrders = new Order[](shippableOrderCount) */\n      swap1\n      pop\n        /* \"Buyer-Seller.sol\":2826:2839  uint256 index */\n      0x00\n        /* \"Buyer-Seller.sol\":2861:2870  uint256 i */\n      dup1\n        /* \"Buyer-Seller.sol\":2873:2874  1 */\n      0x01\n        /* \"Buyer-Seller.sol\":2861:2874  uint256 i = 1 */\n      swap1\n      pop\n        /* \"Buyer-Seller.sol\":2856:3064  for (uint256 i = 1; i <= orderCount; i++) {... */\n    tag_147:\n        /* \"Buyer-Seller.sol\":2881:2891  orderCount */\n      sload(0x03)\n        /* \"Buyer-Seller.sol\":2876:2877  i */\n      dup2\n        /* \"Buyer-Seller.sol\":2876:2891  i <= orderCount */\n      gt\n        /* \"Buyer-Seller.sol\":2856:3064  for (uint256 i = 1; i <= orderCount; i++) {... */\n      tag_148\n      jumpi\n        /* \"Buyer-Seller.sol\":2937:2956  OrderStatus.Created */\n      0x00\n        /* \"Buyer-Seller.sol\":2917:2956  orders[i].status == OrderStatus.Created */\n      0x02\n      dup2\n      gt\n      iszero\n      tag_150\n      jumpi\n      tag_151\n      tag_55\n      jump\t// in\n    tag_151:\n    tag_150:\n        /* \"Buyer-Seller.sol\":2917:2923  orders */\n      0x02\n        /* \"Buyer-Seller.sol\":2917:2926  orders[i] */\n      0x00\n        /* \"Buyer-Seller.sol\":2924:2925  i */\n      dup4\n        /* \"Buyer-Seller.sol\":2917:2926  orders[i] */\n      dup2\n      mstore\n      0x20\n      add\n      swap1\n      dup2\n      mstore\n      0x20\n      add\n      0x00\n      keccak256\n        /* \"Buyer-Seller.sol\":2917:2933  orders[i].status */\n      0x03\n      add\n      0x00\n      swap1\n      sload\n      swap1\n      0x0100\n      exp\n      swap1\n      div\n      0xff\n      and\n        /* \"Buyer-Seller.sol\":2917:2956  orders[i].status == OrderStatus.Created */\n      0x02\n      dup2\n      gt\n      iszero\n      tag_152\n      jumpi\n      tag_153\n      tag_55\n      jump\t// in\n    tag_153:\n    tag_152:\n      sub\n        /* \"Buyer-Seller.sol\":2913:3053  if (orders[i].status == OrderStatus.Created) {... */\n      tag_154\n      jumpi\n        /* \"Buyer-Seller.sol\":3002:3008  orders */\n      0x02\n        /* \"Buyer-Seller.sol\":3002:3011  orders[i] */\n      0x00\n        /* \"Buyer-Seller.sol\":3009:3010  i */\n      dup3\n        /* \"Buyer-Seller.sol\":3002:3011  orders[i] */\n      dup2\n      mstore\n      0x20\n      add\n      swap1\n      dup2\n      mstore\n      0x20\n      add\n      0x00\n      keccak256\n        /* \"Buyer-Seller.sol\":2977:3011  shippableOrders[index] = orders[i] */\n      mload(0x40)\n      dup1\n      0x80\n      add\n      0x40\n      mstore\n      swap1\n      dup2\n      0x00\n      dup3\n      add\n      sload\n      dup2\n      mstore\n      0x20\n      add\n      0x01\n      dup3\n      add\n      dup1\n      sload\n      tag_155\n      swap1\n      tag_80\n      jump\t// in\n    tag_155:\n      dup1\n      0x1f\n      add\n      0x20\n      dup1\n      swap2\n      div\n      mul\n      0x20\n      add\n      mload(0x40)\n      swap1\n      dup2\n      add\n      0x40\n      mstore\n      dup1\n      swap3\n      swap2\n      swap1\n      dup2\n      dup2\n      mstore\n      0x20\n      add\n      dup3\n      dup1\n      sload\n      tag_156\n      swap1\n      tag_80\n      jump\t// in\n    tag_156:\n      dup1\n      iszero\n      tag_157\n      jumpi\n      dup1\n      0x1f\n      lt\n      tag_158\n      jumpi\n      0x0100\n      dup1\n      dup4\n      sload\n      div\n      mul\n      dup4\n      mstore\n      swap2\n      0x20\n      add\n      swap2\n      jump(tag_157)\n    tag_158:\n      dup3\n      add\n      swap2\n      swap1\n      0x00\n      mstore\n      keccak256(0x00, 0x20)\n      swap1\n    tag_159:\n      dup2\n      sload\n      dup2\n      mstore\n      swap1\n      0x01\n      add\n      swap1\n      0x20\n      add\n      dup1\n      dup4\n      gt\n      tag_159\n      jumpi\n      dup3\n      swap1\n      sub\n      0x1f\n      and\n      dup3\n      add\n      swap2\n    tag_157:\n      pop\n      pop\n      pop\n      pop\n      pop\n      dup2\n      mstore\n      0x20\n      add\n      0x02\n      dup3\n      add\n      sload\n      dup2\n      mstore\n      0x20\n      add\n      0x03\n      dup3\n      add\n      0x00\n      swap1\n      sload\n      swap1\n      0x0100\n      exp\n      swap1\n      div\n      0xff\n      and\n      0x02\n      dup2\n      gt\n      iszero\n      tag_160\n      jumpi\n      tag_161\n      tag_55\n      jump\t// in\n    tag_161:\n    tag_160:\n      0x02\n      dup2\n      gt\n      iszero\n      tag_162\n      jumpi\n      tag_163\n      tag_55\n      jump\t// in\n    tag_163:\n    tag_162:\n      dup2\n      mstore\n      pop\n      pop\n        /* \"Buyer-Seller.sol\":2977:2992  shippableOrders */\n      dup4\n        /* \"Buyer-Seller.sol\":2993:2998  index */\n      dup4\n        /* \"Buyer-Seller.sol\":2977:2999  shippableOrders[index] */\n      dup2\n      mload\n      dup2\n      lt\n      tag_164\n      jumpi\n      tag_165\n      tag_93\n      jump\t// in\n    tag_165:\n    tag_164:\n      0x20\n      mul\n      0x20\n      add\n      add\n        /* \"Buyer-Seller.sol\":2977:3011  shippableOrders[index] = orders[i] */\n      dup2\n      swap1\n      mstore\n      pop\n        /* \"Buyer-Seller.sol\":3030:3037  index++ */\n      dup2\n      dup1\n      tag_166\n      swap1\n      tag_95\n      jump\t// in\n    tag_166:\n      swap3\n      pop\n      pop\n        /* \"Buyer-Seller.sol\":2913:3053  if (orders[i].status == OrderStatus.Created) {... */\n    tag_154:\n        /* \"Buyer-Seller.sol\":2893:2896  i++ */\n      dup1\n      dup1\n      tag_167\n      swap1\n      tag_95\n      jump\t// in\n    tag_167:\n      swap2\n      pop\n      pop\n        /* \"Buyer-Seller.sol\":2856:3064  for (uint256 i = 1; i <= orderCount; i++) {... */\n      jump(tag_147)\n    tag_148:\n      pop\n        /* \"Buyer-Seller.sol\":3083:3098  shippableOrders */\n      dup2\n        /* \"Buyer-Seller.sol\":3076:3098  return shippableOrders */\n      swap4\n      pop\n      pop\n      pop\n      pop\n        /* \"Buyer-Seller.sol\":2429:3106  function getShippableOrders() external view onlyParticipant returns (Order[] memory) {... */\n      swap1\n      jump\t// out\n        /* \"Buyer-Seller.sol\":1536:1792  function updateOrderStatus(uint256 _orderId, OrderStatus _newStatus) internal orderExists(_orderId) {... */\n    tag_63:\n        /* \"Buyer-Seller.sol\":1626:1634  _orderId */\n      dup2\n        /* \"Buyer-Seller.sol\":773:781  _orderId */\n      dup1\n        /* \"Buyer-Seller.sol\":745:751  orders */\n      0x02\n        /* \"Buyer-Seller.sol\":745:761  orders[_orderId] */\n      0x00\n        /* \"Buyer-Seller.sol\":752:760  _orderId */\n      dup4\n        /* \"Buyer-Seller.sol\":745:761  orders[_orderId] */\n      dup2\n      mstore\n      0x20\n      add\n      swap1\n      dup2\n      mstore\n      0x20\n      add\n      0x00\n      keccak256\n        /* \"Buyer-Seller.sol\":745:769  orders[_orderId].orderId */\n      0x00\n      add\n      sload\n        /* \"Buyer-Seller.sol\":745:781  orders[_orderId].orderId == _orderId */\n      eq\n        /* \"Buyer-Seller.sol\":737:806  require(orders[_orderId].orderId == _orderId, \"Order does not exist\") */\n      tag_169\n      jumpi\n      mload(0x40)\n      0x08c379a000000000000000000000000000000000000000000000000000000000\n      dup2\n      mstore\n      0x04\n      add\n      tag_170\n      swap1\n      tag_171\n      jump\t// in\n    tag_170:\n      mload(0x40)\n      dup1\n      swap2\n      sub\n      swap1\n      revert\n    tag_169:\n        /* \"Buyer-Seller.sol\":1673:1683  _newStatus */\n      dup2\n        /* \"Buyer-Seller.sol\":1647:1653  orders */\n      0x02\n        /* \"Buyer-Seller.sol\":1647:1663  orders[_orderId] */\n      0x00\n        /* \"Buyer-Seller.sol\":1654:1662  _orderId */\n      dup6\n        /* \"Buyer-Seller.sol\":1647:1663  orders[_orderId] */\n      dup2\n      mstore\n      0x20\n      add\n      swap1\n      dup2\n      mstore\n      0x20\n      add\n      0x00\n      keccak256\n        /* \"Buyer-Seller.sol\":1647:1670  orders[_orderId].status */\n      0x03\n      add\n      0x00\n        /* \"Buyer-Seller.sol\":1647:1683  orders[_orderId].status = _newStatus */\n      0x0100\n      exp\n      dup2\n      sload\n      dup2\n      0xff\n      mul\n      not\n      and\n      swap1\n      dup4\n      0x02\n      dup2\n      gt\n      iszero\n      tag_173\n      jumpi\n      tag_174\n      tag_55\n      jump\t// in\n    tag_174:\n    tag_173:\n      mul\n      or\n      swap1\n      sstore\n      pop\n        /* \"Buyer-Seller.sol\":1699:1784  OrderEvent(_orderId, orders[_orderId].product, orders[_orderId].quantity, _newStatus) */\n      0x55a618ac33e95affba4a62caf2ede71d066a7dbe093c888809d2f6eae13730cd\n        /* \"Buyer-Seller.sol\":1710:1718  _orderId */\n      dup4\n        /* \"Buyer-Seller.sol\":1720:1726  orders */\n      0x02\n        /* \"Buyer-Seller.sol\":1720:1736  orders[_orderId] */\n      0x00\n        /* \"Buyer-Seller.sol\":1727:1735  _orderId */\n      dup7\n        /* \"Buyer-Seller.sol\":1720:1736  orders[_orderId] */\n      dup2\n      mstore\n      0x20\n      add\n      swap1\n      dup2\n      mstore\n      0x20\n      add\n      0x00\n      keccak256\n        /* \"Buyer-Seller.sol\":1720:1744  orders[_orderId].product */\n      0x01\n      add\n        /* \"Buyer-Seller.sol\":1746:1752  orders */\n      0x02\n        /* \"Buyer-Seller.sol\":1746:1762  orders[_orderId] */\n      0x00\n        /* \"Buyer-Seller.sol\":1753:1761  _orderId */\n      dup8\n        /* \"Buyer-Seller.sol\":1746:1762  orders[_orderId] */\n      dup2\n      mstore\n      0x20\n      add\n      swap1\n      dup2\n      mstore\n      0x20\n      add\n      0x00\n      keccak256\n        /* \"Buyer-Seller.sol\":1746:1771  orders[_orderId].quantity */\n      0x02\n      add\n      sload\n        /* \"Buyer-Seller.sol\":1773:1783  _newStatus */\n      dup6\n        /* \"Buyer-Seller.sol\":1699:1784  OrderEvent(_orderId, orders[_orderId].product, orders[_orderId].quantity, _newStatus) */\n      mload(0x40)\n      tag_175\n      swap5\n      swap4\n      swap3\n      swap2\n      swap1\n      tag_176\n      jump\t// in\n    tag_175:\n      mload(0x40)\n      dup1\n      swap2\n      sub\n      swap1\n      log1\n        /* \"Buyer-Seller.sol\":1536:1792  function updateOrderStatus(uint256 _orderId, OrderStatus _newStatus) internal orderExists(_orderId) {... */\n      pop\n      pop\n      pop\n      jump\t// out\n    tag_75:\n      mload(0x40)\n      dup1\n      0x80\n      add\n      0x40\n      mstore\n      dup1\n      0x00\n      dup2\n      mstore\n      0x20\n      add\n      0x60\n      dup2\n      mstore\n      0x20\n      add\n      0x00\n      dup2\n      mstore\n      0x20\n      add\n      0x00\n      0x02\n      dup2\n      gt\n      iszero\n      tag_177\n      jumpi\n      tag_178\n      tag_55\n      jump\t// in\n    tag_178:\n    tag_177:\n      dup2\n      mstore\n      pop\n      swap1\n      jump\t// out\n        /* \"#utility.yul\":7:133   */\n    tag_179:\n        /* \"#utility.yul\":44:51   */\n      0x00\n        /* \"#utility.yul\":84:126   */\n      0xffffffffffffffffffffffffffffffffffffffff\n        /* \"#utility.yul\":77:82   */\n      dup3\n        /* \"#utility.yul\":73:127   */\n      and\n        /* \"#utility.yul\":62:127   */\n      swap1\n      pop\n        /* \"#utility.yul\":7:133   */\n      swap2\n      swap1\n      pop\n      jump\t// out\n        /* \"#utility.yul\":139:235   */\n    tag_180:\n        /* \"#utility.yul\":176:183   */\n      0x00\n        /* \"#utility.yul\":205:229   */\n      tag_244\n        /* \"#utility.yul\":223:228   */\n      dup3\n        /* \"#utility.yul\":205:229   */\n      tag_179\n      jump\t// in\n    tag_244:\n        /* \"#utility.yul\":194:229   */\n      swap1\n      pop\n        /* \"#utility.yul\":139:235   */\n      swap2\n      swap1\n      pop\n      jump\t// out\n        /* \"#utility.yul\":241:359   */\n    tag_181:\n        /* \"#utility.yul\":328:352   */\n      tag_246\n        /* \"#utility.yul\":346:351   */\n      dup2\n        /* \"#utility.yul\":328:352   */\n      tag_180\n      jump\t// in\n    tag_246:\n        /* \"#utility.yul\":323:326   */\n      dup3\n        /* \"#utility.yul\":316:353   */\n      mstore\n        /* \"#utility.yul\":241:359   */\n      pop\n      pop\n      jump\t// out\n        /* \"#utility.yul\":365:587   */\n    tag_16:\n        /* \"#utility.yul\":458:462   */\n      0x00\n        /* \"#utility.yul\":496:498   */\n      0x20\n        /* \"#utility.yul\":485:494   */\n      dup3\n        /* \"#utility.yul\":481:499   */\n      add\n        /* \"#utility.yul\":473:499   */\n      swap1\n      pop\n        /* \"#utility.yul\":509:580   */\n      tag_248\n        /* \"#utility.yul\":577:578   */\n      0x00\n        /* \"#utility.yul\":566:575   */\n      dup4\n        /* \"#utility.yul\":562:579   */\n      add\n        /* \"#utility.yul\":553:559   */\n      dup5\n        /* \"#utility.yul\":509:580   */\n      tag_181\n      jump\t// in\n    tag_248:\n        /* \"#utility.yul\":365:587   */\n      swap3\n      swap2\n      pop\n      pop\n      jump\t// out\n        /* \"#utility.yul\":593:668   */\n    tag_182:\n        /* \"#utility.yul\":626:632   */\n      0x00\n        /* \"#utility.yul\":659:661   */\n      0x40\n        /* \"#utility.yul\":653:662   */\n      mload\n        /* \"#utility.yul\":643:662   */\n      swap1\n      pop\n        /* \"#utility.yul\":593:668   */\n      swap1\n      jump\t// out\n        /* \"#utility.yul\":674:791   */\n    tag_183:\n        /* \"#utility.yul\":783:784   */\n      0x00\n        /* \"#utility.yul\":780:781   */\n      dup1\n        /* \"#utility.yul\":773:785   */\n      revert\n        /* \"#utility.yul\":797:914   */\n    tag_184:\n        /* \"#utility.yul\":906:907   */\n      0x00\n        /* \"#utility.yul\":903:904   */\n      dup1\n        /* \"#utility.yul\":896:908   */\n      revert\n        /* \"#utility.yul\":920:997   */\n    tag_185:\n        /* \"#utility.yul\":957:964   */\n      0x00\n        /* \"#utility.yul\":986:991   */\n      dup2\n        /* \"#utility.yul\":975:991   */\n      swap1\n      pop\n        /* \"#utility.yul\":920:997   */\n      swap2\n      swap1\n      pop\n      jump\t// out\n        /* \"#utility.yul\":1003:1125   */\n    tag_186:\n        /* \"#utility.yul\":1076:1100   */\n      tag_254\n        /* \"#utility.yul\":1094:1099   */\n      dup2\n        /* \"#utility.yul\":1076:1100   */\n      tag_185\n      jump\t// in\n    tag_254:\n        /* \"#utility.yul\":1069:1074   */\n      dup2\n        /* \"#utility.yul\":1066:1101   */\n      eq\n        /* \"#utility.yul\":1056:1119   */\n      tag_255\n      jumpi\n        /* \"#utility.yul\":1115:1116   */\n      0x00\n        /* \"#utility.yul\":1112:1113   */\n      dup1\n        /* \"#utility.yul\":1105:1117   */\n      revert\n        /* \"#utility.yul\":1056:1119   */\n    tag_255:\n        /* \"#utility.yul\":1003:1125   */\n      pop\n      jump\t// out\n        /* \"#utility.yul\":1131:1270   */\n    tag_187:\n        /* \"#utility.yul\":1177:1182   */\n      0x00\n        /* \"#utility.yul\":1215:1221   */\n      dup2\n        /* \"#utility.yul\":1202:1222   */\n      calldataload\n        /* \"#utility.yul\":1193:1222   */\n      swap1\n      pop\n        /* \"#utility.yul\":1231:1264   */\n      tag_257\n        /* \"#utility.yul\":1258:1263   */\n      dup2\n        /* \"#utility.yul\":1231:1264   */\n      tag_186\n      jump\t// in\n    tag_257:\n        /* \"#utility.yul\":1131:1270   */\n      swap3\n      swap2\n      pop\n      pop\n      jump\t// out\n        /* \"#utility.yul\":1276:1605   */\n    tag_19:\n        /* \"#utility.yul\":1335:1341   */\n      0x00\n        /* \"#utility.yul\":1384:1386   */\n      0x20\n        /* \"#utility.yul\":1372:1381   */\n      dup3\n        /* \"#utility.yul\":1363:1370   */\n      dup5\n        /* \"#utility.yul\":1359:1382   */\n      sub\n        /* \"#utility.yul\":1355:1387   */\n      slt\n        /* \"#utility.yul\":1352:1471   */\n      iszero\n      tag_259\n      jumpi\n        /* \"#utility.yul\":1390:1469   */\n      tag_260\n      tag_183\n      jump\t// in\n    tag_260:\n        /* \"#utility.yul\":1352:1471   */\n    tag_259:\n        /* \"#utility.yul\":1510:1511   */\n      0x00\n        /* \"#utility.yul\":1535:1588   */\n      tag_261\n        /* \"#utility.yul\":1580:1587   */\n      dup5\n        /* \"#utility.yul\":1571:1577   */\n      dup3\n        /* \"#utility.yul\":1560:1569   */\n      dup6\n        /* \"#utility.yul\":1556:1578   */\n      add\n        /* \"#utility.yul\":1535:1588   */\n      tag_187\n      jump\t// in\n    tag_261:\n        /* \"#utility.yul\":1525:1588   */\n      swap2\n      pop\n        /* \"#utility.yul\":1481:1598   */\n      pop\n        /* \"#utility.yul\":1276:1605   */\n      swap3\n      swap2\n      pop\n      pop\n      jump\t// out\n        /* \"#utility.yul\":1611:1729   */\n    tag_188:\n        /* \"#utility.yul\":1698:1722   */\n      tag_263\n        /* \"#utility.yul\":1716:1721   */\n      dup2\n        /* \"#utility.yul\":1698:1722   */\n      tag_185\n      jump\t// in\n    tag_263:\n        /* \"#utility.yul\":1693:1696   */\n      dup3\n        /* \"#utility.yul\":1686:1723   */\n      mstore\n        /* \"#utility.yul\":1611:1729   */\n      pop\n      pop\n      jump\t// out\n        /* \"#utility.yul\":1735:1957   */\n    tag_24:\n        /* \"#utility.yul\":1828:1832   */\n      0x00\n        /* \"#utility.yul\":1866:1868   */\n      0x20\n        /* \"#utility.yul\":1855:1864   */\n      dup3\n        /* \"#utility.yul\":1851:1869   */\n      add\n        /* \"#utility.yul\":1843:1869   */\n      swap1\n      pop\n        /* \"#utility.yul\":1879:1950   */\n      tag_265\n        /* \"#utility.yul\":1947:1948   */\n      0x00\n        /* \"#utility.yul\":1936:1945   */\n      dup4\n        /* \"#utility.yul\":1932:1949   */\n      add\n        /* \"#utility.yul\":1923:1929   */\n      dup5\n        /* \"#utility.yul\":1879:1950   */\n      tag_188\n      jump\t// in\n    tag_265:\n        /* \"#utility.yul\":1735:1957   */\n      swap3\n      swap2\n      pop\n      pop\n      jump\t// out\n        /* \"#utility.yul\":1963:2098   */\n    tag_189:\n        /* \"#utility.yul\":2051:2057   */\n      0x00\n        /* \"#utility.yul\":2085:2090   */\n      dup2\n        /* \"#utility.yul\":2079:2091   */\n      mload\n        /* \"#utility.yul\":2069:2091   */\n      swap1\n      pop\n        /* \"#utility.yul\":1963:2098   */\n      swap2\n      swap1\n      pop\n      jump\t// out\n        /* \"#utility.yul\":2104:2309   */\n    tag_190:\n        /* \"#utility.yul\":2224:2235   */\n      0x00\n        /* \"#utility.yul\":2258:2264   */\n      dup3\n        /* \"#utility.yul\":2253:2256   */\n      dup3\n        /* \"#utility.yul\":2246:2265   */\n      mstore\n        /* \"#utility.yul\":2298:2302   */\n      0x20\n        /* \"#utility.yul\":2293:2296   */\n      dup3\n        /* \"#utility.yul\":2289:2303   */\n      add\n        /* \"#utility.yul\":2274:2303   */\n      swap1\n      pop\n        /* \"#utility.yul\":2104:2309   */\n      swap3\n      swap2\n      pop\n      pop\n      jump\t// out\n        /* \"#utility.yul\":2315:2468   */\n    tag_191:\n        /* \"#utility.yul\":2403:2407   */\n      0x00\n        /* \"#utility.yul\":2426:2429   */\n      dup2\n        /* \"#utility.yul\":2418:2429   */\n      swap1\n      pop\n        /* \"#utility.yul\":2456:2460   */\n      0x20\n        /* \"#utility.yul\":2451:2454   */\n      dup3\n        /* \"#utility.yul\":2447:2461   */\n      add\n        /* \"#utility.yul\":2439:2461   */\n      swap1\n      pop\n        /* \"#utility.yul\":2315:2468   */\n      swap2\n      swap1\n      pop\n      jump\t// out\n        /* \"#utility.yul\":2474:2582   */\n    tag_192:\n        /* \"#utility.yul\":2551:2575   */\n      tag_270\n        /* \"#utility.yul\":2569:2574   */\n      dup2\n        /* \"#utility.yul\":2551:2575   */\n      tag_185\n      jump\t// in\n    tag_270:\n        /* \"#utility.yul\":2546:2549   */\n      dup3\n        /* \"#utility.yul\":2539:2576   */\n      mstore\n        /* \"#utility.yul\":2474:2582   */\n      pop\n      pop\n      jump\t// out\n        /* \"#utility.yul\":2588:2687   */\n    tag_193:\n        /* \"#utility.yul\":2640:2646   */\n      0x00\n        /* \"#utility.yul\":2674:2679   */\n      dup2\n        /* \"#utility.yul\":2668:2680   */\n      mload\n        /* \"#utility.yul\":2658:2680   */\n      swap1\n      pop\n        /* \"#utility.yul\":2588:2687   */\n      swap2\n      swap1\n      pop\n      jump\t// out\n        /* \"#utility.yul\":2693:2852   */\n    tag_194:\n        /* \"#utility.yul\":2767:2778   */\n      0x00\n        /* \"#utility.yul\":2801:2807   */\n      dup3\n        /* \"#utility.yul\":2796:2799   */\n      dup3\n        /* \"#utility.yul\":2789:2808   */\n      mstore\n        /* \"#utility.yul\":2841:2845   */\n      0x20\n        /* \"#utility.yul\":2836:2839   */\n      dup3\n        /* \"#utility.yul\":2832:2846   */\n      add\n        /* \"#utility.yul\":2817:2846   */\n      swap1\n      pop\n        /* \"#utility.yul\":2693:2852   */\n      swap3\n      swap2\n      pop\n      pop\n      jump\t// out\n        /* \"#utility.yul\":2858:3104   */\n    tag_195:\n        /* \"#utility.yul\":2939:2940   */\n      0x00\n        /* \"#utility.yul\":2949:3062   */\n    tag_274:\n        /* \"#utility.yul\":2963:2969   */\n      dup4\n        /* \"#utility.yul\":2960:2961   */\n      dup2\n        /* \"#utility.yul\":2957:2970   */\n      lt\n        /* \"#utility.yul\":2949:3062   */\n      iszero\n      tag_276\n      jumpi\n        /* \"#utility.yul\":3048:3049   */\n      dup1\n        /* \"#utility.yul\":3043:3046   */\n      dup3\n        /* \"#utility.yul\":3039:3050   */\n      add\n        /* \"#utility.yul\":3033:3051   */\n      mload\n        /* \"#utility.yul\":3029:3030   */\n      dup2\n        /* \"#utility.yul\":3024:3027   */\n      dup5\n        /* \"#utility.yul\":3020:3031   */\n      add\n        /* \"#utility.yul\":3013:3052   */\n      mstore\n        /* \"#utility.yul\":2985:2987   */\n      0x20\n        /* \"#utility.yul\":2982:2983   */\n      dup2\n        /* \"#utility.yul\":2978:2988   */\n      add\n        /* \"#utility.yul\":2973:2988   */\n      swap1\n      pop\n        /* \"#utility.yul\":2949:3062   */\n      jump(tag_274)\n    tag_276:\n        /* \"#utility.yul\":3096:3097   */\n      0x00\n        /* \"#utility.yul\":3087:3093   */\n      dup5\n        /* \"#utility.yul\":3082:3085   */\n      dup5\n        /* \"#utility.yul\":3078:3094   */\n      add\n        /* \"#utility.yul\":3071:3098   */\n      mstore\n        /* \"#utility.yul\":2920:3104   */\n      pop\n        /* \"#utility.yul\":2858:3104   */\n      pop\n      pop\n      pop\n      jump\t// out\n        /* \"#utility.yul\":3110:3212   */\n    tag_196:\n        /* \"#utility.yul\":3151:3157   */\n      0x00\n        /* \"#utility.yul\":3202:3204   */\n      0x1f\n        /* \"#utility.yul\":3198:3205   */\n      not\n        /* \"#utility.yul\":3193:3195   */\n      0x1f\n        /* \"#utility.yul\":3186:3191   */\n      dup4\n        /* \"#utility.yul\":3182:3196   */\n      add\n        /* \"#utility.yul\":3178:3206   */\n      and\n        /* \"#utility.yul\":3168:3206   */\n      swap1\n      pop\n        /* \"#utility.yul\":3110:3212   */\n      swap2\n      swap1\n      pop\n      jump\t// out\n        /* \"#utility.yul\":3218:3575   */\n    tag_197:\n        /* \"#utility.yul\":3296:3299   */\n      0x00\n        /* \"#utility.yul\":3324:3363   */\n      tag_279\n        /* \"#utility.yul\":3357:3362   */\n      dup3\n        /* \"#utility.yul\":3324:3363   */\n      tag_193\n      jump\t// in\n    tag_279:\n        /* \"#utility.yul\":3379:3440   */\n      tag_280\n        /* \"#utility.yul\":3433:3439   */\n      dup2\n        /* \"#utility.yul\":3428:3431   */\n      dup6\n        /* \"#utility.yul\":3379:3440   */\n      tag_194\n      jump\t// in\n    tag_280:\n        /* \"#utility.yul\":3372:3440   */\n      swap4\n      pop\n        /* \"#utility.yul\":3449:3514   */\n      tag_281\n        /* \"#utility.yul\":3507:3513   */\n      dup2\n        /* \"#utility.yul\":3502:3505   */\n      dup6\n        /* \"#utility.yul\":3495:3499   */\n      0x20\n        /* \"#utility.yul\":3488:3493   */\n      dup7\n        /* \"#utility.yul\":3484:3500   */\n      add\n        /* \"#utility.yul\":3449:3514   */\n      tag_195\n      jump\t// in\n    tag_281:\n        /* \"#utility.yul\":3539:3568   */\n      tag_282\n        /* \"#utility.yul\":3561:3567   */\n      dup2\n        /* \"#utility.yul\":3539:3568   */\n      tag_196\n      jump\t// in\n    tag_282:\n        /* \"#utility.yul\":3534:3537   */\n      dup5\n        /* \"#utility.yul\":3530:3569   */\n      add\n        /* \"#utility.yul\":3523:3569   */\n      swap2\n      pop\n        /* \"#utility.yul\":3300:3575   */\n      pop\n        /* \"#utility.yul\":3218:3575   */\n      swap3\n      swap2\n      pop\n      pop\n      jump\t// out\n        /* \"#utility.yul\":3581:3761   */\n    tag_55:\n        /* \"#utility.yul\":3629:3706   */\n      0x4e487b7100000000000000000000000000000000000000000000000000000000\n        /* \"#utility.yul\":3626:3627   */\n      0x00\n        /* \"#utility.yul\":3619:3707   */\n      mstore\n        /* \"#utility.yul\":3726:3730   */\n      0x21\n        /* \"#utility.yul\":3723:3724   */\n      0x04\n        /* \"#utility.yul\":3716:3731   */\n      mstore\n        /* \"#utility.yul\":3750:3754   */\n      0x24\n        /* \"#utility.yul\":3747:3748   */\n      0x00\n        /* \"#utility.yul\":3740:3755   */\n      revert\n        /* \"#utility.yul\":3767:3885   */\n    tag_198:\n        /* \"#utility.yul\":3853:3854   */\n      0x03\n        /* \"#utility.yul\":3846:3851   */\n      dup2\n        /* \"#utility.yul\":3843:3855   */\n      lt\n        /* \"#utility.yul\":3833:3879   */\n      tag_285\n      jumpi\n        /* \"#utility.yul\":3859:3877   */\n      tag_286\n      tag_55\n      jump\t// in\n    tag_286:\n        /* \"#utility.yul\":3833:3879   */\n    tag_285:\n        /* \"#utility.yul\":3767:3885   */\n      pop\n      jump\t// out\n        /* \"#utility.yul\":3891:4028   */\n    tag_199:\n        /* \"#utility.yul\":3941:3948   */\n      0x00\n        /* \"#utility.yul\":3970:3975   */\n      dup2\n        /* \"#utility.yul\":3959:3975   */\n      swap1\n      pop\n        /* \"#utility.yul\":3976:4022   */\n      tag_288\n        /* \"#utility.yul\":4016:4021   */\n      dup3\n        /* \"#utility.yul\":3976:4022   */\n      tag_198\n      jump\t// in\n    tag_288:\n        /* \"#utility.yul\":3891:4028   */\n      swap2\n      swap1\n      pop\n      jump\t// out\n        /* \"#utility.yul\":4034:4171   */\n    tag_200:\n        /* \"#utility.yul\":4095:4104   */\n      0x00\n        /* \"#utility.yul\":4128:4165   */\n      tag_290\n        /* \"#utility.yul\":4159:4164   */\n      dup3\n        /* \"#utility.yul\":4128:4165   */\n      tag_199\n      jump\t// in\n    tag_290:\n        /* \"#utility.yul\":4115:4165   */\n      swap1\n      pop\n        /* \"#utility.yul\":4034:4171   */\n      swap2\n      swap1\n      pop\n      jump\t// out\n        /* \"#utility.yul\":4177:4320   */\n    tag_201:\n        /* \"#utility.yul\":4265:4313   */\n      tag_292\n        /* \"#utility.yul\":4307:4312   */\n      dup2\n        /* \"#utility.yul\":4265:4313   */\n      tag_200\n      jump\t// in\n    tag_292:\n        /* \"#utility.yul\":4260:4263   */\n      dup3\n        /* \"#utility.yul\":4253:4314   */\n      mstore\n        /* \"#utility.yul\":4177:4320   */\n      pop\n      pop\n      jump\t// out\n        /* \"#utility.yul\":4402:5361   */\n    tag_202:\n        /* \"#utility.yul\":4503:4506   */\n      0x00\n        /* \"#utility.yul\":4539:4543   */\n      0x80\n        /* \"#utility.yul\":4534:4537   */\n      dup4\n        /* \"#utility.yul\":4530:4544   */\n      add\n        /* \"#utility.yul\":4629:4633   */\n      0x00\n        /* \"#utility.yul\":4622:4627   */\n      dup4\n        /* \"#utility.yul\":4618:4634   */\n      add\n        /* \"#utility.yul\":4612:4635   */\n      mload\n        /* \"#utility.yul\":4648:4711   */\n      tag_294\n        /* \"#utility.yul\":4705:4709   */\n      0x00\n        /* \"#utility.yul\":4700:4703   */\n      dup7\n        /* \"#utility.yul\":4696:4710   */\n      add\n        /* \"#utility.yul\":4682:4694   */\n      dup3\n        /* \"#utility.yul\":4648:4711   */\n      tag_192\n      jump\t// in\n    tag_294:\n        /* \"#utility.yul\":4554:4721   */\n      pop\n        /* \"#utility.yul\":4806:4810   */\n      0x20\n        /* \"#utility.yul\":4799:4804   */\n      dup4\n        /* \"#utility.yul\":4795:4811   */\n      add\n        /* \"#utility.yul\":4789:4812   */\n      mload\n        /* \"#utility.yul\":4859:4862   */\n      dup5\n        /* \"#utility.yul\":4853:4857   */\n      dup3\n        /* \"#utility.yul\":4849:4863   */\n      sub\n        /* \"#utility.yul\":4842:4846   */\n      0x20\n        /* \"#utility.yul\":4837:4840   */\n      dup7\n        /* \"#utility.yul\":4833:4847   */\n      add\n        /* \"#utility.yul\":4826:4864   */\n      mstore\n        /* \"#utility.yul\":4885:4958   */\n      tag_295\n        /* \"#utility.yul\":4953:4957   */\n      dup3\n        /* \"#utility.yul\":4939:4951   */\n      dup3\n        /* \"#utility.yul\":4885:4958   */\n      tag_197\n      jump\t// in\n    tag_295:\n        /* \"#utility.yul\":4877:4958   */\n      swap2\n      pop\n        /* \"#utility.yul\":4731:4969   */\n      pop\n        /* \"#utility.yul\":5055:5059   */\n      0x40\n        /* \"#utility.yul\":5048:5053   */\n      dup4\n        /* \"#utility.yul\":5044:5060   */\n      add\n        /* \"#utility.yul\":5038:5061   */\n      mload\n        /* \"#utility.yul\":5074:5137   */\n      tag_296\n        /* \"#utility.yul\":5131:5135   */\n      0x40\n        /* \"#utility.yul\":5126:5129   */\n      dup7\n        /* \"#utility.yul\":5122:5136   */\n      add\n        /* \"#utility.yul\":5108:5120   */\n      dup3\n        /* \"#utility.yul\":5074:5137   */\n      tag_192\n      jump\t// in\n    tag_296:\n        /* \"#utility.yul\":4979:5147   */\n      pop\n        /* \"#utility.yul\":5231:5235   */\n      0x60\n        /* \"#utility.yul\":5224:5229   */\n      dup4\n        /* \"#utility.yul\":5220:5236   */\n      add\n        /* \"#utility.yul\":5214:5237   */\n      mload\n        /* \"#utility.yul\":5250:5324   */\n      tag_297\n        /* \"#utility.yul\":5318:5322   */\n      0x60\n        /* \"#utility.yul\":5313:5316   */\n      dup7\n        /* \"#utility.yul\":5309:5323   */\n      add\n        /* \"#utility.yul\":5295:5307   */\n      dup3\n        /* \"#utility.yul\":5250:5324   */\n      tag_201\n      jump\t// in\n    tag_297:\n        /* \"#utility.yul\":5157:5334   */\n      pop\n        /* \"#utility.yul\":5351:5355   */\n      dup1\n        /* \"#utility.yul\":5344:5355   */\n      swap2\n      pop\n        /* \"#utility.yul\":4508:5361   */\n      pop\n        /* \"#utility.yul\":4402:5361   */\n      swap3\n      swap2\n      pop\n      pop\n      jump\t// out\n        /* \"#utility.yul\":5367:5607   */\n    tag_203:\n        /* \"#utility.yul\":5478:5488   */\n      0x00\n        /* \"#utility.yul\":5513:5601   */\n      tag_299\n        /* \"#utility.yul\":5597:5600   */\n      dup4\n        /* \"#utility.yul\":5589:5595   */\n      dup4\n        /* \"#utility.yul\":5513:5601   */\n      tag_202\n      jump\t// in\n    tag_299:\n        /* \"#utility.yul\":5499:5601   */\n      swap1\n      pop\n        /* \"#utility.yul\":5367:5607   */\n      swap3\n      swap2\n      pop\n      pop\n      jump\t// out\n        /* \"#utility.yul\":5613:5747   */\n    tag_204:\n        /* \"#utility.yul\":5704:5708   */\n      0x00\n        /* \"#utility.yul\":5736:5740   */\n      0x20\n        /* \"#utility.yul\":5731:5734   */\n      dup3\n        /* \"#utility.yul\":5727:5741   */\n      add\n        /* \"#utility.yul\":5719:5741   */\n      swap1\n      pop\n        /* \"#utility.yul\":5613:5747   */\n      swap2\n      swap1\n      pop\n      jump\t// out\n        /* \"#utility.yul\":5833:6912   */\n    tag_205:\n        /* \"#utility.yul\":5994:5997   */\n      0x00\n        /* \"#utility.yul\":6023:6098   */\n      tag_302\n        /* \"#utility.yul\":6092:6097   */\n      dup3\n        /* \"#utility.yul\":6023:6098   */\n      tag_189\n      jump\t// in\n    tag_302:\n        /* \"#utility.yul\":6114:6221   */\n      tag_303\n        /* \"#utility.yul\":6214:6220   */\n      dup2\n        /* \"#utility.yul\":6209:6212   */\n      dup6\n        /* \"#utility.yul\":6114:6221   */\n      tag_190\n      jump\t// in\n    tag_303:\n        /* \"#utility.yul\":6107:6221   */\n      swap4\n      pop\n        /* \"#utility.yul\":6247:6250   */\n      dup4\n        /* \"#utility.yul\":6292:6296   */\n      0x20\n        /* \"#utility.yul\":6284:6290   */\n      dup3\n        /* \"#utility.yul\":6280:6297   */\n      mul\n        /* \"#utility.yul\":6275:6278   */\n      dup6\n        /* \"#utility.yul\":6271:6298   */\n      add\n        /* \"#utility.yul\":6322:6399   */\n      tag_304\n        /* \"#utility.yul\":6393:6398   */\n      dup6\n        /* \"#utility.yul\":6322:6399   */\n      tag_191\n      jump\t// in\n    tag_304:\n        /* \"#utility.yul\":6422:6429   */\n      dup1\n        /* \"#utility.yul\":6453:6454   */\n      0x00\n        /* \"#utility.yul\":6438:6867   */\n    tag_305:\n        /* \"#utility.yul\":6463:6469   */\n      dup6\n        /* \"#utility.yul\":6460:6461   */\n      dup2\n        /* \"#utility.yul\":6457:6470   */\n      lt\n        /* \"#utility.yul\":6438:6867   */\n      iszero\n      tag_307\n      jumpi\n        /* \"#utility.yul\":6534:6543   */\n      dup5\n        /* \"#utility.yul\":6528:6532   */\n      dup5\n        /* \"#utility.yul\":6524:6544   */\n      sub\n        /* \"#utility.yul\":6519:6522   */\n      dup10\n        /* \"#utility.yul\":6512:6545   */\n      mstore\n        /* \"#utility.yul\":6585:6591   */\n      dup2\n        /* \"#utility.yul\":6579:6592   */\n      mload\n        /* \"#utility.yul\":6613:6719   */\n      tag_308\n        /* \"#utility.yul\":6714:6718   */\n      dup6\n        /* \"#utility.yul\":6699:6712   */\n      dup3\n        /* \"#utility.yul\":6613:6719   */\n      tag_203\n      jump\t// in\n    tag_308:\n        /* \"#utility.yul\":6605:6719   */\n      swap5\n      pop\n        /* \"#utility.yul\":6742:6823   */\n      tag_309\n        /* \"#utility.yul\":6816:6822   */\n      dup4\n        /* \"#utility.yul\":6742:6823   */\n      tag_204\n      jump\t// in\n    tag_309:\n        /* \"#utility.yul\":6732:6823   */\n      swap3\n      pop\n        /* \"#utility.yul\":6852:6856   */\n      0x20\n        /* \"#utility.yul\":6847:6850   */\n      dup11\n        /* \"#utility.yul\":6843:6857   */\n      add\n        /* \"#utility.yul\":6836:6857   */\n      swap10\n      pop\n        /* \"#utility.yul\":6498:6867   */\n      pop\n        /* \"#utility.yul\":6485:6486   */\n      0x01\n        /* \"#utility.yul\":6482:6483   */\n      dup2\n        /* \"#utility.yul\":6478:6487   */\n      add\n        /* \"#utility.yul\":6473:6487   */\n      swap1\n      pop\n        /* \"#utility.yul\":6438:6867   */\n      jump(tag_305)\n    tag_307:\n        /* \"#utility.yul\":6442:6456   */\n      pop\n        /* \"#utility.yul\":6883:6887   */\n      dup3\n        /* \"#utility.yul\":6876:6887   */\n      swap8\n      pop\n        /* \"#utility.yul\":6903:6906   */\n      dup8\n        /* \"#utility.yul\":6896:6906   */\n      swap6\n      pop\n        /* \"#utility.yul\":5999:6912   */\n      pop\n      pop\n      pop\n      pop\n      pop\n        /* \"#utility.yul\":5833:6912   */\n      swap3\n      swap2\n      pop\n      pop\n      jump\t// out\n        /* \"#utility.yul\":6918:7375   */\n    tag_31:\n        /* \"#utility.yul\":7103:7107   */\n      0x00\n        /* \"#utility.yul\":7141:7143   */\n      0x20\n        /* \"#utility.yul\":7130:7139   */\n      dup3\n        /* \"#utility.yul\":7126:7144   */\n      add\n        /* \"#utility.yul\":7118:7144   */\n      swap1\n      pop\n        /* \"#utility.yul\":7190:7199   */\n      dup2\n        /* \"#utility.yul\":7184:7188   */\n      dup2\n        /* \"#utility.yul\":7180:7200   */\n      sub\n        /* \"#utility.yul\":7176:7177   */\n      0x00\n        /* \"#utility.yul\":7165:7174   */\n      dup4\n        /* \"#utility.yul\":7161:7178   */\n      add\n        /* \"#utility.yul\":7154:7201   */\n      mstore\n        /* \"#utility.yul\":7218:7368   */\n      tag_311\n        /* \"#utility.yul\":7363:7367   */\n      dup2\n        /* \"#utility.yul\":7354:7360   */\n      dup5\n        /* \"#utility.yul\":7218:7368   */\n      tag_205\n      jump\t// in\n    tag_311:\n        /* \"#utility.yul\":7210:7368   */\n      swap1\n      pop\n        /* \"#utility.yul\":6918:7375   */\n      swap3\n      swap2\n      pop\n      pop\n      jump\t// out\n        /* \"#utility.yul\":7381:7498   */\n    tag_206:\n        /* \"#utility.yul\":7490:7491   */\n      0x00\n        /* \"#utility.yul\":7487:7488   */\n      dup1\n        /* \"#utility.yul\":7480:7492   */\n      revert\n        /* \"#utility.yul\":7504:7621   */\n    tag_207:\n        /* \"#utility.yul\":7613:7614   */\n      0x00\n        /* \"#utility.yul\":7610:7611   */\n      dup1\n        /* \"#utility.yul\":7603:7615   */\n      revert\n        /* \"#utility.yul\":7627:7807   */\n    tag_71:\n        /* \"#utility.yul\":7675:7752   */\n      0x4e487b7100000000000000000000000000000000000000000000000000000000\n        /* \"#utility.yul\":7672:7673   */\n      0x00\n        /* \"#utility.yul\":7665:7753   */\n      mstore\n        /* \"#utility.yul\":7772:7776   */\n      0x41\n        /* \"#utility.yul\":7769:7770   */\n      0x04\n        /* \"#utility.yul\":7762:7777   */\n      mstore\n        /* \"#utility.yul\":7796:7800   */\n      0x24\n        /* \"#utility.yul\":7793:7794   */\n      0x00\n        /* \"#utility.yul\":7786:7801   */\n      revert\n        /* \"#utility.yul\":7813:8094   */\n    tag_208:\n        /* \"#utility.yul\":7896:7923   */\n      tag_316\n        /* \"#utility.yul\":7918:7922   */\n      dup3\n        /* \"#utility.yul\":7896:7923   */\n      tag_196\n      jump\t// in\n    tag_316:\n        /* \"#utility.yul\":7888:7894   */\n      dup2\n        /* \"#utility.yul\":7884:7924   */\n      add\n        /* \"#utility.yul\":8026:8032   */\n      dup2\n        /* \"#utility.yul\":8014:8024   */\n      dup2\n        /* \"#utility.yul\":8011:8033   */\n      lt\n        /* \"#utility.yul\":7990:8008   */\n      0xffffffffffffffff\n        /* \"#utility.yul\":7978:7988   */\n      dup3\n        /* \"#utility.yul\":7975:8009   */\n      gt\n        /* \"#utility.yul\":7972:8034   */\n      or\n        /* \"#utility.yul\":7969:8057   */\n      iszero\n      tag_317\n      jumpi\n        /* \"#utility.yul\":8037:8055   */\n      tag_318\n      tag_71\n      jump\t// in\n    tag_318:\n        /* \"#utility.yul\":7969:8057   */\n    tag_317:\n        /* \"#utility.yul\":8077:8087   */\n      dup1\n        /* \"#utility.yul\":8073:8075   */\n      0x40\n        /* \"#utility.yul\":8066:8088   */\n      mstore\n        /* \"#utility.yul\":7856:8094   */\n      pop\n        /* \"#utility.yul\":7813:8094   */\n      pop\n      pop\n      jump\t// out\n        /* \"#utility.yul\":8100:8229   */\n    tag_209:\n        /* \"#utility.yul\":8134:8140   */\n      0x00\n        /* \"#utility.yul\":8161:8181   */\n      tag_320\n      tag_182\n      jump\t// in\n    tag_320:\n        /* \"#utility.yul\":8151:8181   */\n      swap1\n      pop\n        /* \"#utility.yul\":8190:8223   */\n      tag_321\n        /* \"#utility.yul\":8218:8222   */\n      dup3\n        /* \"#utility.yul\":8210:8216   */\n      dup3\n        /* \"#utility.yul\":8190:8223   */\n      tag_208\n      jump\t// in\n    tag_321:\n        /* \"#utility.yul\":8100:8229   */\n      swap2\n      swap1\n      pop\n      jump\t// out\n        /* \"#utility.yul\":8235:8543   */\n    tag_210:\n        /* \"#utility.yul\":8297:8301   */\n      0x00\n        /* \"#utility.yul\":8387:8405   */\n      0xffffffffffffffff\n        /* \"#utility.yul\":8379:8385   */\n      dup3\n        /* \"#utility.yul\":8376:8406   */\n      gt\n        /* \"#utility.yul\":8373:8429   */\n      iszero\n      tag_323\n      jumpi\n        /* \"#utility.yul\":8409:8427   */\n      tag_324\n      tag_71\n      jump\t// in\n    tag_324:\n        /* \"#utility.yul\":8373:8429   */\n    tag_323:\n        /* \"#utility.yul\":8447:8476   */\n      tag_325\n        /* \"#utility.yul\":8469:8475   */\n      dup3\n        /* \"#utility.yul\":8447:8476   */\n      tag_196\n      jump\t// in\n    tag_325:\n        /* \"#utility.yul\":8439:8476   */\n      swap1\n      pop\n        /* \"#utility.yul\":8531:8535   */\n      0x20\n        /* \"#utility.yul\":8525:8529   */\n      dup2\n        /* \"#utility.yul\":8521:8536   */\n      add\n        /* \"#utility.yul\":8513:8536   */\n      swap1\n      pop\n        /* \"#utility.yul\":8235:8543   */\n      swap2\n      swap1\n      pop\n      jump\t// out\n        /* \"#utility.yul\":8549:8695   */\n    tag_211:\n        /* \"#utility.yul\":8646:8652   */\n      dup3\n        /* \"#utility.yul\":8641:8644   */\n      dup2\n        /* \"#utility.yul\":8636:8639   */\n      dup4\n        /* \"#utility.yul\":8623:8653   */\n      calldatacopy\n        /* \"#utility.yul\":8687:8688   */\n      0x00\n        /* \"#utility.yul\":8678:8684   */\n      dup4\n        /* \"#utility.yul\":8673:8676   */\n      dup4\n        /* \"#utility.yul\":8669:8685   */\n      add\n        /* \"#utility.yul\":8662:8689   */\n      mstore\n        /* \"#utility.yul\":8549:8695   */\n      pop\n      pop\n      pop\n      jump\t// out\n        /* \"#utility.yul\":8701:9126   */\n    tag_212:\n        /* \"#utility.yul\":8779:8784   */\n      0x00\n        /* \"#utility.yul\":8804:8870   */\n      tag_328\n        /* \"#utility.yul\":8820:8869   */\n      tag_329\n        /* \"#utility.yul\":8862:8868   */\n      dup5\n        /* \"#utility.yul\":8820:8869   */\n      tag_210\n      jump\t// in\n    tag_329:\n        /* \"#utility.yul\":8804:8870   */\n      tag_209\n      jump\t// in\n    tag_328:\n        /* \"#utility.yul\":8795:8870   */\n      swap1\n      pop\n        /* \"#utility.yul\":8893:8899   */\n      dup3\n        /* \"#utility.yul\":8886:8891   */\n      dup2\n        /* \"#utility.yul\":8879:8900   */\n      mstore\n        /* \"#utility.yul\":8931:8935   */\n      0x20\n        /* \"#utility.yul\":8924:8929   */\n      dup2\n        /* \"#utility.yul\":8920:8936   */\n      add\n        /* \"#utility.yul\":8969:8972   */\n      dup5\n        /* \"#utility.yul\":8960:8966   */\n      dup5\n        /* \"#utility.yul\":8955:8958   */\n      dup5\n        /* \"#utility.yul\":8951:8967   */\n      add\n        /* \"#utility.yul\":8948:8973   */\n      gt\n        /* \"#utility.yul\":8945:9057   */\n      iszero\n      tag_330\n      jumpi\n        /* \"#utility.yul\":8976:9055   */\n      tag_331\n      tag_207\n      jump\t// in\n    tag_331:\n        /* \"#utility.yul\":8945:9057   */\n    tag_330:\n        /* \"#utility.yul\":9066:9120   */\n      tag_332\n        /* \"#utility.yul\":9113:9119   */\n      dup5\n        /* \"#utility.yul\":9108:9111   */\n      dup3\n        /* \"#utility.yul\":9103:9106   */\n      dup6\n        /* \"#utility.yul\":9066:9120   */\n      tag_211\n      jump\t// in\n    tag_332:\n        /* \"#utility.yul\":8785:9126   */\n      pop\n        /* \"#utility.yul\":8701:9126   */\n      swap4\n      swap3\n      pop\n      pop\n      pop\n      jump\t// out\n        /* \"#utility.yul\":9146:9486   */\n    tag_213:\n        /* \"#utility.yul\":9202:9207   */\n      0x00\n        /* \"#utility.yul\":9251:9254   */\n      dup3\n        /* \"#utility.yul\":9244:9248   */\n      0x1f\n        /* \"#utility.yul\":9236:9242   */\n      dup4\n        /* \"#utility.yul\":9232:9249   */\n      add\n        /* \"#utility.yul\":9228:9255   */\n      slt\n        /* \"#utility.yul\":9218:9340   */\n      tag_334\n      jumpi\n        /* \"#utility.yul\":9259:9338   */\n      tag_335\n      tag_206\n      jump\t// in\n    tag_335:\n        /* \"#utility.yul\":9218:9340   */\n    tag_334:\n        /* \"#utility.yul\":9376:9382   */\n      dup2\n        /* \"#utility.yul\":9363:9383   */\n      calldataload\n        /* \"#utility.yul\":9401:9480   */\n      tag_336\n        /* \"#utility.yul\":9476:9479   */\n      dup5\n        /* \"#utility.yul\":9468:9474   */\n      dup3\n        /* \"#utility.yul\":9461:9465   */\n      0x20\n        /* \"#utility.yul\":9453:9459   */\n      dup7\n        /* \"#utility.yul\":9449:9466   */\n      add\n        /* \"#utility.yul\":9401:9480   */\n      tag_212\n      jump\t// in\n    tag_336:\n        /* \"#utility.yul\":9392:9480   */\n      swap2\n      pop\n        /* \"#utility.yul\":9208:9486   */\n      pop\n        /* \"#utility.yul\":9146:9486   */\n      swap3\n      swap2\n      pop\n      pop\n      jump\t// out\n        /* \"#utility.yul\":9492:10146   */\n    tag_34:\n        /* \"#utility.yul\":9570:9576   */\n      0x00\n        /* \"#utility.yul\":9578:9584   */\n      dup1\n        /* \"#utility.yul\":9627:9629   */\n      0x40\n        /* \"#utility.yul\":9615:9624   */\n      dup4\n        /* \"#utility.yul\":9606:9613   */\n      dup6\n        /* \"#utility.yul\":9602:9625   */\n      sub\n        /* \"#utility.yul\":9598:9630   */\n      slt\n        /* \"#utility.yul\":9595:9714   */\n      iszero\n      tag_338\n      jumpi\n        /* \"#utility.yul\":9633:9712   */\n      tag_339\n      tag_183\n      jump\t// in\n    tag_339:\n        /* \"#utility.yul\":9595:9714   */\n    tag_338:\n        /* \"#utility.yul\":9781:9782   */\n      0x00\n        /* \"#utility.yul\":9770:9779   */\n      dup4\n        /* \"#utility.yul\":9766:9783   */\n      add\n        /* \"#utility.yul\":9753:9784   */\n      calldataload\n        /* \"#utility.yul\":9811:9829   */\n      0xffffffffffffffff\n        /* \"#utility.yul\":9803:9809   */\n      dup2\n        /* \"#utility.yul\":9800:9830   */\n      gt\n        /* \"#utility.yul\":9797:9914   */\n      iszero\n      tag_340\n      jumpi\n        /* \"#utility.yul\":9833:9912   */\n      tag_341\n      tag_184\n      jump\t// in\n    tag_341:\n        /* \"#utility.yul\":9797:9914   */\n    tag_340:\n        /* \"#utility.yul\":9938:10001   */\n      tag_342\n        /* \"#utility.yul\":9993:10000   */\n      dup6\n        /* \"#utility.yul\":9984:9990   */\n      dup3\n        /* \"#utility.yul\":9973:9982   */\n      dup7\n        /* \"#utility.yul\":9969:9991   */\n      add\n        /* \"#utility.yul\":9938:10001   */\n      tag_213\n      jump\t// in\n    tag_342:\n        /* \"#utility.yul\":9928:10001   */\n      swap3\n      pop\n        /* \"#utility.yul\":9724:10011   */\n      pop\n        /* \"#utility.yul\":10050:10052   */\n      0x20\n        /* \"#utility.yul\":10076:10129   */\n      tag_343\n        /* \"#utility.yul\":10121:10128   */\n      dup6\n        /* \"#utility.yul\":10112:10118   */\n      dup3\n        /* \"#utility.yul\":10101:10110   */\n      dup7\n        /* \"#utility.yul\":10097:10119   */\n      add\n        /* \"#utility.yul\":10076:10129   */\n      tag_187\n      jump\t// in\n    tag_343:\n        /* \"#utility.yul\":10066:10129   */\n      swap2\n      pop\n        /* \"#utility.yul\":10021:10139   */\n      pop\n        /* \"#utility.yul\":9492:10146   */\n      swap3\n      pop\n      swap3\n      swap1\n      pop\n      jump\t// out\n        /* \"#utility.yul\":10152:10321   */\n    tag_214:\n        /* \"#utility.yul\":10236:10247   */\n      0x00\n        /* \"#utility.yul\":10270:10276   */\n      dup3\n        /* \"#utility.yul\":10265:10268   */\n      dup3\n        /* \"#utility.yul\":10258:10277   */\n      mstore\n        /* \"#utility.yul\":10310:10314   */\n      0x20\n        /* \"#utility.yul\":10305:10308   */\n      dup3\n        /* \"#utility.yul\":10301:10315   */\n      add\n        /* \"#utility.yul\":10286:10315   */\n      swap1\n      pop\n        /* \"#utility.yul\":10152:10321   */\n      swap3\n      swap2\n      pop\n      pop\n      jump\t// out\n        /* \"#utility.yul\":10327:10704   */\n    tag_215:\n        /* \"#utility.yul\":10415:10418   */\n      0x00\n        /* \"#utility.yul\":10443:10482   */\n      tag_346\n        /* \"#utility.yul\":10476:10481   */\n      dup3\n        /* \"#utility.yul\":10443:10482   */\n      tag_193\n      jump\t// in\n    tag_346:\n        /* \"#utility.yul\":10498:10569   */\n      tag_347\n        /* \"#utility.yul\":10562:10568   */\n      dup2\n        /* \"#utility.yul\":10557:10560   */\n      dup6\n        /* \"#utility.yul\":10498:10569   */\n      tag_214\n      jump\t// in\n    tag_347:\n        /* \"#utility.yul\":10491:10569   */\n      swap4\n      pop\n        /* \"#utility.yul\":10578:10643   */\n      tag_348\n        /* \"#utility.yul\":10636:10642   */\n      dup2\n        /* \"#utility.yul\":10631:10634   */\n      dup6\n        /* \"#utility.yul\":10624:10628   */\n      0x20\n        /* \"#utility.yul\":10617:10622   */\n      dup7\n        /* \"#utility.yul\":10613:10629   */\n      add\n        /* \"#utility.yul\":10578:10643   */\n      tag_195\n      jump\t// in\n    tag_348:\n        /* \"#utility.yul\":10668:10697   */\n      tag_349\n        /* \"#utility.yul\":10690:10696   */\n      dup2\n        /* \"#utility.yul\":10668:10697   */\n      tag_196\n      jump\t// in\n    tag_349:\n        /* \"#utility.yul\":10663:10666   */\n      dup5\n        /* \"#utility.yul\":10659:10698   */\n      add\n        /* \"#utility.yul\":10652:10698   */\n      swap2\n      pop\n        /* \"#utility.yul\":10419:10704   */\n      pop\n        /* \"#utility.yul\":10327:10704   */\n      swap3\n      swap2\n      pop\n      pop\n      jump\t// out\n        /* \"#utility.yul\":10710:10863   */\n    tag_216:\n        /* \"#utility.yul\":10808:10856   */\n      tag_351\n        /* \"#utility.yul\":10850:10855   */\n      dup2\n        /* \"#utility.yul\":10808:10856   */\n      tag_200\n      jump\t// in\n    tag_351:\n        /* \"#utility.yul\":10803:10806   */\n      dup3\n        /* \"#utility.yul\":10796:10857   */\n      mstore\n        /* \"#utility.yul\":10710:10863   */\n      pop\n      pop\n      jump\t// out\n        /* \"#utility.yul\":10869:11535   */\n    tag_40:\n        /* \"#utility.yul\":11077:11081   */\n      0x00\n        /* \"#utility.yul\":11115:11118   */\n      0x80\n        /* \"#utility.yul\":11104:11113   */\n      dup3\n        /* \"#utility.yul\":11100:11119   */\n      add\n        /* \"#utility.yul\":11092:11119   */\n      swap1\n      pop\n        /* \"#utility.yul\":11129:11200   */\n      tag_353\n        /* \"#utility.yul\":11197:11198   */\n      0x00\n        /* \"#utility.yul\":11186:11195   */\n      dup4\n        /* \"#utility.yul\":11182:11199   */\n      add\n        /* \"#utility.yul\":11173:11179   */\n      dup8\n        /* \"#utility.yul\":11129:11200   */\n      tag_188\n      jump\t// in\n    tag_353:\n        /* \"#utility.yul\":11247:11256   */\n      dup2\n        /* \"#utility.yul\":11241:11245   */\n      dup2\n        /* \"#utility.yul\":11237:11257   */\n      sub\n        /* \"#utility.yul\":11232:11234   */\n      0x20\n        /* \"#utility.yul\":11221:11230   */\n      dup4\n        /* \"#utility.yul\":11217:11235   */\n      add\n        /* \"#utility.yul\":11210:11258   */\n      mstore\n        /* \"#utility.yul\":11275:11353   */\n      tag_354\n        /* \"#utility.yul\":11348:11352   */\n      dup2\n        /* \"#utility.yul\":11339:11345   */\n      dup7\n        /* \"#utility.yul\":11275:11353   */\n      tag_215\n      jump\t// in\n    tag_354:\n        /* \"#utility.yul\":11267:11353   */\n      swap1\n      pop\n        /* \"#utility.yul\":11363:11435   */\n      tag_355\n        /* \"#utility.yul\":11431:11433   */\n      0x40\n        /* \"#utility.yul\":11420:11429   */\n      dup4\n        /* \"#utility.yul\":11416:11434   */\n      add\n        /* \"#utility.yul\":11407:11413   */\n      dup6\n        /* \"#utility.yul\":11363:11435   */\n      tag_188\n      jump\t// in\n    tag_355:\n        /* \"#utility.yul\":11445:11528   */\n      tag_356\n        /* \"#utility.yul\":11524:11526   */\n      0x60\n        /* \"#utility.yul\":11513:11522   */\n      dup4\n        /* \"#utility.yul\":11509:11527   */\n      add\n        /* \"#utility.yul\":11500:11506   */\n      dup5\n        /* \"#utility.yul\":11445:11528   */\n      tag_216\n      jump\t// in\n    tag_356:\n        /* \"#utility.yul\":10869:11535   */\n      swap6\n      swap5\n      pop\n      pop\n      pop\n      pop\n      pop\n      jump\t// out\n        /* \"#utility.yul\":11541:11771   */\n    tag_217:\n        /* \"#utility.yul\":11681:11715   */\n      0x4f6e6c79206275796572206f722073656c6c65722063616e2063616c6c207468\n        /* \"#utility.yul\":11677:11678   */\n      0x00\n        /* \"#utility.yul\":11669:11675   */\n      dup3\n        /* \"#utility.yul\":11665:11679   */\n      add\n        /* \"#utility.yul\":11658:11716   */\n      mstore\n        /* \"#utility.yul\":11750:11763   */\n      0x69732066756e6374696f6e000000000000000000000000000000000000000000\n        /* \"#utility.yul\":11745:11747   */\n      0x20\n        /* \"#utility.yul\":11737:11743   */\n      dup3\n        /* \"#utility.yul\":11733:11748   */\n      add\n        /* \"#utility.yul\":11726:11764   */\n      mstore\n        /* \"#utility.yul\":11541:11771   */\n      pop\n      jump\t// out\n        /* \"#utility.yul\":11777:12143   */\n    tag_218:\n        /* \"#utility.yul\":11919:11922   */\n      0x00\n        /* \"#utility.yul\":11940:12007   */\n      tag_359\n        /* \"#utility.yul\":12004:12006   */\n      0x2b\n        /* \"#utility.yul\":11999:12002   */\n      dup4\n        /* \"#utility.yul\":11940:12007   */\n      tag_214\n      jump\t// in\n    tag_359:\n        /* \"#utility.yul\":11933:12007   */\n      swap2\n      pop\n        /* \"#utility.yul\":12016:12109   */\n      tag_360\n        /* \"#utility.yul\":12105:12108   */\n      dup3\n        /* \"#utility.yul\":12016:12109   */\n      tag_217\n      jump\t// in\n    tag_360:\n        /* \"#utility.yul\":12134:12136   */\n      0x40\n        /* \"#utility.yul\":12129:12132   */\n      dup3\n        /* \"#utility.yul\":12125:12137   */\n      add\n        /* \"#utility.yul\":12118:12137   */\n      swap1\n      pop\n        /* \"#utility.yul\":11777:12143   */\n      swap2\n      swap1\n      pop\n      jump\t// out\n        /* \"#utility.yul\":12149:12568   */\n    tag_51:\n        /* \"#utility.yul\":12315:12319   */\n      0x00\n        /* \"#utility.yul\":12353:12355   */\n      0x20\n        /* \"#utility.yul\":12342:12351   */\n      dup3\n        /* \"#utility.yul\":12338:12356   */\n      add\n        /* \"#utility.yul\":12330:12356   */\n      swap1\n      pop\n        /* \"#utility.yul\":12402:12411   */\n      dup2\n        /* \"#utility.yul\":12396:12400   */\n      dup2\n        /* \"#utility.yul\":12392:12412   */\n      sub\n        /* \"#utility.yul\":12388:12389   */\n      0x00\n        /* \"#utility.yul\":12377:12386   */\n      dup4\n        /* \"#utility.yul\":12373:12390   */\n      add\n        /* \"#utility.yul\":12366:12413   */\n      mstore\n        /* \"#utility.yul\":12430:12561   */\n      tag_362\n        /* \"#utility.yul\":12556:12560   */\n      dup2\n        /* \"#utility.yul\":12430:12561   */\n      tag_218\n      jump\t// in\n    tag_362:\n        /* \"#utility.yul\":12422:12561   */\n      swap1\n      pop\n        /* \"#utility.yul\":12149:12568   */\n      swap2\n      swap1\n      pop\n      jump\t// out\n        /* \"#utility.yul\":12574:12747   */\n    tag_219:\n        /* \"#utility.yul\":12714:12739   */\n      0x4f7264657220616c72656164792064656c697665726564000000000000000000\n        /* \"#utility.yul\":12710:12711   */\n      0x00\n        /* \"#utility.yul\":12702:12708   */\n      dup3\n        /* \"#utility.yul\":12698:12712   */\n      add\n        /* \"#utility.yul\":12691:12740   */\n      mstore\n        /* \"#utility.yul\":12574:12747   */\n      pop\n      jump\t// out\n        /* \"#utility.yul\":12753:13119   */\n    tag_220:\n        /* \"#utility.yul\":12895:12898   */\n      0x00\n        /* \"#utility.yul\":12916:12983   */\n      tag_365\n        /* \"#utility.yul\":12980:12982   */\n      0x17\n        /* \"#utility.yul\":12975:12978   */\n      dup4\n        /* \"#utility.yul\":12916:12983   */\n      tag_214\n      jump\t// in\n    tag_365:\n        /* \"#utility.yul\":12909:12983   */\n      swap2\n      pop\n        /* \"#utility.yul\":12992:13085   */\n      tag_366\n        /* \"#utility.yul\":13081:13084   */\n      dup3\n        /* \"#utility.yul\":12992:13085   */\n      tag_219\n      jump\t// in\n    tag_366:\n        /* \"#utility.yul\":13110:13112   */\n      0x20\n        /* \"#utility.yul\":13105:13108   */\n      dup3\n        /* \"#utility.yul\":13101:13113   */\n      add\n        /* \"#utility.yul\":13094:13113   */\n      swap1\n      pop\n        /* \"#utility.yul\":12753:13119   */\n      swap2\n      swap1\n      pop\n      jump\t// out\n        /* \"#utility.yul\":13125:13544   */\n    tag_60:\n        /* \"#utility.yul\":13291:13295   */\n      0x00\n        /* \"#utility.yul\":13329:13331   */\n      0x20\n        /* \"#utility.yul\":13318:13327   */\n      dup3\n        /* \"#utility.yul\":13314:13332   */\n      add\n        /* \"#utility.yul\":13306:13332   */\n      swap1\n      pop\n        /* \"#utility.yul\":13378:13387   */\n      dup2\n        /* \"#utility.yul\":13372:13376   */\n      dup2\n        /* \"#utility.yul\":13368:13388   */\n      sub\n        /* \"#utility.yul\":13364:13365   */\n      0x00\n        /* \"#utility.yul\":13353:13362   */\n      dup4\n        /* \"#utility.yul\":13349:13366   */\n      add\n        /* \"#utility.yul\":13342:13389   */\n      mstore\n        /* \"#utility.yul\":13406:13537   */\n      tag_368\n        /* \"#utility.yul\":13532:13536   */\n      dup2\n        /* \"#utility.yul\":13406:13537   */\n      tag_220\n      jump\t// in\n    tag_368:\n        /* \"#utility.yul\":13398:13537   */\n      swap1\n      pop\n        /* \"#utility.yul\":13125:13544   */\n      swap2\n      swap1\n      pop\n      jump\t// out\n        /* \"#utility.yul\":13550:13730   */\n    tag_221:\n        /* \"#utility.yul\":13598:13675   */\n      0x4e487b7100000000000000000000000000000000000000000000000000000000\n        /* \"#utility.yul\":13595:13596   */\n      0x00\n        /* \"#utility.yul\":13588:13676   */\n      mstore\n        /* \"#utility.yul\":13695:13699   */\n      0x22\n        /* \"#utility.yul\":13692:13693   */\n      0x04\n        /* \"#utility.yul\":13685:13700   */\n      mstore\n        /* \"#utility.yul\":13719:13723   */\n      0x24\n        /* \"#utility.yul\":13716:13717   */\n      0x00\n        /* \"#utility.yul\":13709:13724   */\n      revert\n        /* \"#utility.yul\":13736:14056   */\n    tag_80:\n        /* \"#utility.yul\":13780:13786   */\n      0x00\n        /* \"#utility.yul\":13817:13818   */\n      0x02\n        /* \"#utility.yul\":13811:13815   */\n      dup3\n        /* \"#utility.yul\":13807:13819   */\n      div\n        /* \"#utility.yul\":13797:13819   */\n      swap1\n      pop\n        /* \"#utility.yul\":13864:13865   */\n      0x01\n        /* \"#utility.yul\":13858:13862   */\n      dup3\n        /* \"#utility.yul\":13854:13866   */\n      and\n        /* \"#utility.yul\":13885:13903   */\n      dup1\n        /* \"#utility.yul\":13875:13956   */\n      tag_371\n      jumpi\n        /* \"#utility.yul\":13941:13945   */\n      0x7f\n        /* \"#utility.yul\":13933:13939   */\n      dup3\n        /* \"#utility.yul\":13929:13946   */\n      and\n        /* \"#utility.yul\":13919:13946   */\n      swap2\n      pop\n        /* \"#utility.yul\":13875:13956   */\n    tag_371:\n        /* \"#utility.yul\":14003:14005   */\n      0x20\n        /* \"#utility.yul\":13995:14001   */\n      dup3\n        /* \"#utility.yul\":13992:14006   */\n      lt\n        /* \"#utility.yul\":13972:13990   */\n      dup2\n        /* \"#utility.yul\":13969:14007   */\n      sub\n        /* \"#utility.yul\":13966:14050   */\n      tag_372\n      jumpi\n        /* \"#utility.yul\":14022:14040   */\n      tag_373\n      tag_221\n      jump\t// in\n    tag_373:\n        /* \"#utility.yul\":13966:14050   */\n    tag_372:\n        /* \"#utility.yul\":13787:14056   */\n      pop\n        /* \"#utility.yul\":13736:14056   */\n      swap2\n      swap1\n      pop\n      jump\t// out\n        /* \"#utility.yul\":14062:14242   */\n    tag_222:\n        /* \"#utility.yul\":14110:14187   */\n      0x4e487b7100000000000000000000000000000000000000000000000000000000\n        /* \"#utility.yul\":14107:14108   */\n      0x00\n        /* \"#utility.yul\":14100:14188   */\n      mstore\n        /* \"#utility.yul\":14207:14211   */\n      0x11\n        /* \"#utility.yul\":14204:14205   */\n      0x04\n        /* \"#utility.yul\":14197:14212   */\n      mstore\n        /* \"#utility.yul\":14231:14235   */\n      0x24\n        /* \"#utility.yul\":14228:14229   */\n      0x00\n        /* \"#utility.yul\":14221:14236   */\n      revert\n        /* \"#utility.yul\":14248:14442   */\n    tag_90:\n        /* \"#utility.yul\":14288:14292   */\n      0x00\n        /* \"#utility.yul\":14308:14328   */\n      tag_376\n        /* \"#utility.yul\":14326:14327   */\n      dup3\n        /* \"#utility.yul\":14308:14328   */\n      tag_185\n      jump\t// in\n    tag_376:\n        /* \"#utility.yul\":14303:14328   */\n      swap2\n      pop\n        /* \"#utility.yul\":14342:14362   */\n      tag_377\n        /* \"#utility.yul\":14360:14361   */\n      dup4\n        /* \"#utility.yul\":14342:14362   */\n      tag_185\n      jump\t// in\n    tag_377:\n        /* \"#utility.yul\":14337:14362   */\n      swap3\n      pop\n        /* \"#utility.yul\":14386:14387   */\n      dup3\n        /* \"#utility.yul\":14383:14384   */\n      dup3\n        /* \"#utility.yul\":14379:14388   */\n      sub\n        /* \"#utility.yul\":14371:14388   */\n      swap1\n      pop\n        /* \"#utility.yul\":14410:14411   */\n      dup2\n        /* \"#utility.yul\":14404:14408   */\n      dup2\n        /* \"#utility.yul\":14401:14412   */\n      gt\n        /* \"#utility.yul\":14398:14435   */\n      iszero\n      tag_378\n      jumpi\n        /* \"#utility.yul\":14415:14433   */\n      tag_379\n      tag_222\n      jump\t// in\n    tag_379:\n        /* \"#utility.yul\":14398:14435   */\n    tag_378:\n        /* \"#utility.yul\":14248:14442   */\n      swap3\n      swap2\n      pop\n      pop\n      jump\t// out\n        /* \"#utility.yul\":14448:14628   */\n    tag_93:\n        /* \"#utility.yul\":14496:14573   */\n      0x4e487b7100000000000000000000000000000000000000000000000000000000\n        /* \"#utility.yul\":14493:14494   */\n      0x00\n        /* \"#utility.yul\":14486:14574   */\n      mstore\n        /* \"#utility.yul\":14593:14597   */\n      0x32\n        /* \"#utility.yul\":14590:14591   */\n      0x04\n        /* \"#utility.yul\":14583:14598   */\n      mstore\n        /* \"#utility.yul\":14617:14621   */\n      0x24\n        /* \"#utility.yul\":14614:14615   */\n      0x00\n        /* \"#utility.yul\":14607:14622   */\n      revert\n        /* \"#utility.yul\":14634:14867   */\n    tag_95:\n        /* \"#utility.yul\":14673:14676   */\n      0x00\n        /* \"#utility.yul\":14696:14720   */\n      tag_382\n        /* \"#utility.yul\":14714:14719   */\n      dup3\n        /* \"#utility.yul\":14696:14720   */\n      tag_185\n      jump\t// in\n    tag_382:\n        /* \"#utility.yul\":14687:14720   */\n      swap2\n      pop\n        /* \"#utility.yul\":14742:14808   */\n      0xffffffffffffffffffffffffffffffffffffffffffffffffffffffffffffffff\n        /* \"#utility.yul\":14735:14740   */\n      dup3\n        /* \"#utility.yul\":14732:14809   */\n      sub\n        /* \"#utility.yul\":14729:14832   */\n      tag_383\n      jumpi\n        /* \"#utility.yul\":14812:14830   */\n      tag_384\n      tag_222\n      jump\t// in\n    tag_384:\n        /* \"#utility.yul\":14729:14832   */\n    tag_383:\n        /* \"#utility.yul\":14859:14860   */\n      0x01\n        /* \"#utility.yul\":14852:14857   */\n      dup3\n        /* \"#utility.yul\":14848:14861   */\n      add\n        /* \"#utility.yul\":14841:14861   */\n      swap1\n      pop\n        /* \"#utility.yul\":14634:14867   */\n      swap2\n      swap1\n      pop\n      jump\t// out\n        /* \"#utility.yul\":14873:15014   */\n    tag_223:\n        /* \"#utility.yul\":14922:14926   */\n      0x00\n        /* \"#utility.yul\":14945:14948   */\n      dup2\n        /* \"#utility.yul\":14937:14948   */\n      swap1\n      pop\n        /* \"#utility.yul\":14968:14971   */\n      dup2\n        /* \"#utility.yul\":14965:14966   */\n      0x00\n        /* \"#utility.yul\":14958:14972   */\n      mstore\n        /* \"#utility.yul\":15002:15006   */\n      0x20\n        /* \"#utility.yul\":14999:15000   */\n      0x00\n        /* \"#utility.yul\":14989:15007   */\n      keccak256\n        /* \"#utility.yul\":14981:15007   */\n      swap1\n      pop\n        /* \"#utility.yul\":14873:15014   */\n      swap2\n      swap1\n      pop\n      jump\t// out\n        /* \"#utility.yul\":15020:15113   */\n    tag_224:\n        /* \"#utility.yul\":15057:15063   */\n      0x00\n        /* \"#utility.yul\":15104:15106   */\n      0x20\n        /* \"#utility.yul\":15099:15101   */\n      0x1f\n        /* \"#utility.yul\":15092:15097   */\n      dup4\n        /* \"#utility.yul\":15088:15102   */\n      add\n        /* \"#utility.yul\":15084:15107   */\n      div\n        /* \"#utility.yul\":15074:15107   */\n      swap1\n      pop\n        /* \"#utility.yul\":15020:15113   */\n      swap2\n      swap1\n      pop\n      jump\t// out\n        /* \"#utility.yul\":15119:15226   */\n    tag_225:\n        /* \"#utility.yul\":15163:15171   */\n      0x00\n        /* \"#utility.yul\":15213:15218   */\n      dup3\n        /* \"#utility.yul\":15207:15211   */\n      dup3\n        /* \"#utility.yul\":15203:15219   */\n      shl\n        /* \"#utility.yul\":15182:15219   */\n      swap1\n      pop\n        /* \"#utility.yul\":15119:15226   */\n      swap3\n      swap2\n      pop\n      pop\n      jump\t// out\n        /* \"#utility.yul\":15232:15625   */\n    tag_226:\n        /* \"#utility.yul\":15301:15307   */\n      0x00\n        /* \"#utility.yul\":15351:15352   */\n      0x08\n        /* \"#utility.yul\":15339:15349   */\n      dup4\n        /* \"#utility.yul\":15335:15353   */\n      mul\n        /* \"#utility.yul\":15374:15471   */\n      tag_389\n        /* \"#utility.yul\":15404:15470   */\n      0xffffffffffffffffffffffffffffffffffffffffffffffffffffffffffffffff\n        /* \"#utility.yul\":15393:15402   */\n      dup3\n        /* \"#utility.yul\":15374:15471   */\n      tag_225\n      jump\t// in\n    tag_389:\n        /* \"#utility.yul\":15492:15531   */\n      tag_390\n        /* \"#utility.yul\":15522:15530   */\n      dup7\n        /* \"#utility.yul\":15511:15520   */\n      dup4\n        /* \"#utility.yul\":15492:15531   */\n      tag_225\n      jump\t// in\n    tag_390:\n        /* \"#utility.yul\":15480:15531   */\n      swap6\n      pop\n        /* \"#utility.yul\":15564:15568   */\n      dup1\n        /* \"#utility.yul\":15560:15569   */\n      not\n        /* \"#utility.yul\":15553:15558   */\n      dup5\n        /* \"#utility.yul\":15549:15570   */\n      and\n        /* \"#utility.yul\":15540:15570   */\n      swap4\n      pop\n        /* \"#utility.yul\":15613:15617   */\n      dup1\n        /* \"#utility.yul\":15603:15611   */\n      dup7\n        /* \"#utility.yul\":15599:15618   */\n      and\n        /* \"#utility.yul\":15592:15597   */\n      dup5\n        /* \"#utility.yul\":15589:15619   */\n      or\n        /* \"#utility.yul\":15579:15619   */\n      swap3\n      pop\n        /* \"#utility.yul\":15308:15625   */\n      pop\n      pop\n        /* \"#utility.yul\":15232:15625   */\n      swap4\n      swap3\n      pop\n      pop\n      pop\n      jump\t// out\n        /* \"#utility.yul\":15631:15691   */\n    tag_227:\n        /* \"#utility.yul\":15659:15662   */\n      0x00\n        /* \"#utility.yul\":15680:15685   */\n      dup2\n        /* \"#utility.yul\":15673:15685   */\n      swap1\n      pop\n        /* \"#utility.yul\":15631:15691   */\n      swap2\n      swap1\n      pop\n      jump\t// out\n        /* \"#utility.yul\":15697:15839   */\n    tag_228:\n        /* \"#utility.yul\":15747:15756   */\n      0x00\n        /* \"#utility.yul\":15780:15833   */\n      tag_393\n        /* \"#utility.yul\":15798:15832   */\n      tag_394\n        /* \"#utility.yul\":15807:15831   */\n      tag_395\n        /* \"#utility.yul\":15825:15830   */\n      dup5\n        /* \"#utility.yul\":15807:15831   */\n      tag_185\n      jump\t// in\n    tag_395:\n        /* \"#utility.yul\":15798:15832   */\n      tag_227\n      jump\t// in\n    tag_394:\n        /* \"#utility.yul\":15780:15833   */\n      tag_185\n      jump\t// in\n    tag_393:\n        /* \"#utility.yul\":15767:15833   */\n      swap1\n      pop\n        /* \"#utility.yul\":15697:15839   */\n      swap2\n      swap1\n      pop\n      jump\t// out\n        /* \"#utility.yul\":15845:15920   */\n    tag_229:\n        /* \"#utility.yul\":15888:15891   */\n      0x00\n        /* \"#utility.yul\":15909:15914   */\n      dup2\n        /* \"#utility.yul\":15902:15914   */\n      swap1\n      pop\n        /* \"#utility.yul\":15845:15920   */\n      swap2\n      swap1\n      pop\n      jump\t// out\n        /* \"#utility.yul\":15926:16195   */\n    tag_230:\n        /* \"#utility.yul\":16036:16075   */\n      tag_398\n        /* \"#utility.yul\":16067:16074   */\n      dup4\n        /* \"#utility.yul\":16036:16075   */\n      tag_228\n      jump\t// in\n    tag_398:\n        /* \"#utility.yul\":16097:16188   */\n      tag_399\n        /* \"#utility.yul\":16146:16187   */\n      tag_400\n        /* \"#utility.yul\":16170:16186   */\n      dup3\n        /* \"#utility.yul\":16146:16187   */\n      tag_229\n      jump\t// in\n    tag_400:\n        /* \"#utility.yul\":16138:16144   */\n      dup5\n        /* \"#utility.yul\":16131:16135   */\n      dup5\n        /* \"#utility.yul\":16125:16136   */\n      sload\n        /* \"#utility.yul\":16097:16188   */\n      tag_226\n      jump\t// in\n    tag_399:\n        /* \"#utility.yul\":16091:16095   */\n      dup3\n        /* \"#utility.yul\":16084:16189   */\n      sstore\n        /* \"#utility.yul\":16002:16195   */\n      pop\n        /* \"#utility.yul\":15926:16195   */\n      pop\n      pop\n      pop\n      jump\t// out\n        /* \"#utility.yul\":16201:16274   */\n    tag_231:\n        /* \"#utility.yul\":16246:16249   */\n      0x00\n        /* \"#utility.yul\":16201:16274   */\n      swap1\n      jump\t// out\n        /* \"#utility.yul\":16280:16469   */\n    tag_232:\n        /* \"#utility.yul\":16357:16389   */\n      tag_403\n      tag_231\n      jump\t// in\n    tag_403:\n        /* \"#utility.yul\":16398:16463   */\n      tag_404\n        /* \"#utility.yul\":16456:16462   */\n      dup2\n        /* \"#utility.yul\":16448:16454   */\n      dup5\n        /* \"#utility.yul\":16442:16446   */\n      dup5\n        /* \"#utility.yul\":16398:16463   */\n      tag_230\n      jump\t// in\n    tag_404:\n        /* \"#utility.yul\":16333:16469   */\n      pop\n        /* \"#utility.yul\":16280:16469   */\n      pop\n      pop\n      jump\t// out\n        /* \"#utility.yul\":16475:16661   */\n    tag_233:\n        /* \"#utility.yul\":16535:16655   */\n    tag_406:\n        /* \"#utility.yul\":16552:16555   */\n      dup2\n        /* \"#utility.yul\":16545:16550   */\n      dup2\n        /* \"#utility.yul\":16542:16556   */\n      lt\n        /* \"#utility.yul\":16535:16655   */\n      iszero\n      tag_408\n      jumpi\n        /* \"#utility.yul\":16606:16645   */\n      tag_409\n        /* \"#utility.yul\":16643:16644   */\n      0x00\n        /* \"#utility.yul\":16636:16641   */\n      dup3\n        /* \"#utility.yul\":16606:16645   */\n      tag_232\n      jump\t// in\n    tag_409:\n        /* \"#utility.yul\":16579:16580   */\n      0x01\n        /* \"#utility.yul\":16572:16577   */\n      dup2\n        /* \"#utility.yul\":16568:16581   */\n      add\n        /* \"#utility.yul\":16559:16581   */\n      swap1\n      pop\n        /* \"#utility.yul\":16535:16655   */\n      jump(tag_406)\n    tag_408:\n        /* \"#utility.yul\":16475:16661   */\n      pop\n      pop\n      jump\t// out\n        /* \"#utility.yul\":16667:17210   */\n    tag_234:\n        /* \"#utility.yul\":16768:16770   */\n      0x1f\n        /* \"#utility.yul\":16763:16766   */\n      dup3\n        /* \"#utility.yul\":16760:16771   */\n      gt\n        /* \"#utility.yul\":16757:17203   */\n      iszero\n      tag_411\n      jumpi\n        /* \"#utility.yul\":16802:16840   */\n      tag_412\n        /* \"#utility.yul\":16834:16839   */\n      dup2\n        /* \"#utility.yul\":16802:16840   */\n      tag_223\n      jump\t// in\n    tag_412:\n        /* \"#utility.yul\":16886:16915   */\n      tag_413\n        /* \"#utility.yul\":16904:16914   */\n      dup5\n        /* \"#utility.yul\":16886:16915   */\n      tag_224\n      jump\t// in\n    tag_413:\n        /* \"#utility.yul\":16876:16884   */\n      dup2\n        /* \"#utility.yul\":16872:16916   */\n      add\n        /* \"#utility.yul\":17069:17071   */\n      0x20\n        /* \"#utility.yul\":17057:17067   */\n      dup6\n        /* \"#utility.yul\":17054:17072   */\n      lt\n        /* \"#utility.yul\":17051:17100   */\n      iszero\n      tag_414\n      jumpi\n        /* \"#utility.yul\":17090:17098   */\n      dup2\n        /* \"#utility.yul\":17075:17098   */\n      swap1\n      pop\n        /* \"#utility.yul\":17051:17100   */\n    tag_414:\n        /* \"#utility.yul\":17113:17193   */\n      tag_415\n        /* \"#utility.yul\":17169:17191   */\n      tag_416\n        /* \"#utility.yul\":17187:17190   */\n      dup6\n        /* \"#utility.yul\":17169:17191   */\n      tag_224\n      jump\t// in\n    tag_416:\n        /* \"#utility.yul\":17159:17167   */\n      dup4\n        /* \"#utility.yul\":17155:17192   */\n      add\n        /* \"#utility.yul\":17142:17153   */\n      dup3\n        /* \"#utility.yul\":17113:17193   */\n      tag_233\n      jump\t// in\n    tag_415:\n        /* \"#utility.yul\":16772:17203   */\n      pop\n      pop\n        /* \"#utility.yul\":16757:17203   */\n    tag_411:\n        /* \"#utility.yul\":16667:17210   */\n      pop\n      pop\n      pop\n      jump\t// out\n        /* \"#utility.yul\":17216:17333   */\n    tag_235:\n        /* \"#utility.yul\":17270:17278   */\n      0x00\n        /* \"#utility.yul\":17320:17325   */\n      dup3\n        /* \"#utility.yul\":17314:17318   */\n      dup3\n        /* \"#utility.yul\":17310:17326   */\n      shr\n        /* \"#utility.yul\":17289:17326   */\n      swap1\n      pop\n        /* \"#utility.yul\":17216:17333   */\n      swap3\n      swap2\n      pop\n      pop\n      jump\t// out\n        /* \"#utility.yul\":17339:17508   */\n    tag_236:\n        /* \"#utility.yul\":17383:17389   */\n      0x00\n        /* \"#utility.yul\":17416:17467   */\n      tag_419\n        /* \"#utility.yul\":17464:17465   */\n      0x00\n        /* \"#utility.yul\":17460:17466   */\n      not\n        /* \"#utility.yul\":17452:17457   */\n      dup5\n        /* \"#utility.yul\":17449:17450   */\n      0x08\n        /* \"#utility.yul\":17445:17458   */\n      mul\n        /* \"#utility.yul\":17416:17467   */\n      tag_235\n      jump\t// in\n    tag_419:\n        /* \"#utility.yul\":17412:17468   */\n      not\n        /* \"#utility.yul\":17497:17501   */\n      dup1\n        /* \"#utility.yul\":17491:17495   */\n      dup4\n        /* \"#utility.yul\":17487:17502   */\n      and\n        /* \"#utility.yul\":17477:17502   */\n      swap2\n      pop\n        /* \"#utility.yul\":17390:17508   */\n      pop\n        /* \"#utility.yul\":17339:17508   */\n      swap3\n      swap2\n      pop\n      pop\n      jump\t// out\n        /* \"#utility.yul\":17513:17808   */\n    tag_237:\n        /* \"#utility.yul\":17589:17593   */\n      0x00\n        /* \"#utility.yul\":17735:17764   */\n      tag_421\n        /* \"#utility.yul\":17760:17763   */\n      dup4\n        /* \"#utility.yul\":17754:17758   */\n      dup4\n        /* \"#utility.yul\":17735:17764   */\n      tag_236\n      jump\t// in\n    tag_421:\n        /* \"#utility.yul\":17727:17764   */\n      swap2\n      pop\n        /* \"#utility.yul\":17797:17800   */\n      dup3\n        /* \"#utility.yul\":17794:17795   */\n      0x02\n        /* \"#utility.yul\":17790:17801   */\n      mul\n        /* \"#utility.yul\":17784:17788   */\n      dup3\n        /* \"#utility.yul\":17781:17802   */\n      or\n        /* \"#utility.yul\":17773:17802   */\n      swap1\n      pop\n        /* \"#utility.yul\":17513:17808   */\n      swap3\n      swap2\n      pop\n      pop\n      jump\t// out\n        /* \"#utility.yul\":17813:19208   */\n    tag_105:\n        /* \"#utility.yul\":17930:17967   */\n      tag_423\n        /* \"#utility.yul\":17963:17966   */\n      dup3\n        /* \"#utility.yul\":17930:17967   */\n      tag_193\n      jump\t// in\n    tag_423:\n        /* \"#utility.yul\":18032:18050   */\n      0xffffffffffffffff\n        /* \"#utility.yul\":18024:18030   */\n      dup2\n        /* \"#utility.yul\":18021:18051   */\n      gt\n        /* \"#utility.yul\":18018:18074   */\n      iszero\n      tag_424\n      jumpi\n        /* \"#utility.yul\":18054:18072   */\n      tag_425\n      tag_71\n      jump\t// in\n    tag_425:\n        /* \"#utility.yul\":18018:18074   */\n    tag_424:\n        /* \"#utility.yul\":18098:18136   */\n      tag_426\n        /* \"#utility.yul\":18130:18134   */\n      dup3\n        /* \"#utility.yul\":18124:18135   */\n      sload\n        /* \"#utility.yul\":18098:18136   */\n      tag_80\n      jump\t// in\n    tag_426:\n        /* \"#utility.yul\":18183:18250   */\n      tag_427\n        /* \"#utility.yul\":18243:18249   */\n      dup3\n        /* \"#utility.yul\":18235:18241   */\n      dup3\n        /* \"#utility.yul\":18229:18233   */\n      dup6\n        /* \"#utility.yul\":18183:18250   */\n      tag_234\n      jump\t// in\n    tag_427:\n        /* \"#utility.yul\":18277:18278   */\n      0x00\n        /* \"#utility.yul\":18301:18305   */\n      0x20\n        /* \"#utility.yul\":18288:18305   */\n      swap1\n      pop\n        /* \"#utility.yul\":18333:18335   */\n      0x1f\n        /* \"#utility.yul\":18325:18331   */\n      dup4\n        /* \"#utility.yul\":18322:18336   */\n      gt\n        /* \"#utility.yul\":18350:18351   */\n      0x01\n        /* \"#utility.yul\":18345:18963   */\n      dup2\n      eq\n      tag_429\n      jumpi\n        /* \"#utility.yul\":19007:19008   */\n      0x00\n        /* \"#utility.yul\":19024:19030   */\n      dup5\n        /* \"#utility.yul\":19021:19098   */\n      iszero\n      tag_430\n      jumpi\n        /* \"#utility.yul\":19073:19082   */\n      dup3\n        /* \"#utility.yul\":19068:19071   */\n      dup8\n        /* \"#utility.yul\":19064:19083   */\n      add\n        /* \"#utility.yul\":19058:19084   */\n      mload\n        /* \"#utility.yul\":19049:19084   */\n      swap1\n      pop\n        /* \"#utility.yul\":19021:19098   */\n    tag_430:\n        /* \"#utility.yul\":19124:19191   */\n      tag_431\n        /* \"#utility.yul\":19184:19190   */\n      dup6\n        /* \"#utility.yul\":19177:19182   */\n      dup3\n        /* \"#utility.yul\":19124:19191   */\n      tag_237\n      jump\t// in\n    tag_431:\n        /* \"#utility.yul\":19118:19122   */\n      dup7\n        /* \"#utility.yul\":19111:19192   */\n      sstore\n        /* \"#utility.yul\":18980:19202   */\n      pop\n        /* \"#utility.yul\":18315:19202   */\n      jump(tag_428)\n        /* \"#utility.yul\":18345:18963   */\n    tag_429:\n        /* \"#utility.yul\":18397:18401   */\n      0x1f\n        /* \"#utility.yul\":18393:18402   */\n      not\n        /* \"#utility.yul\":18385:18391   */\n      dup5\n        /* \"#utility.yul\":18381:18403   */\n      and\n        /* \"#utility.yul\":18431:18468   */\n      tag_432\n        /* \"#utility.yul\":18463:18467   */\n      dup7\n        /* \"#utility.yul\":18431:18468   */\n      tag_223\n      jump\t// in\n    tag_432:\n        /* \"#utility.yul\":18490:18491   */\n      0x00\n        /* \"#utility.yul\":18504:18712   */\n    tag_433:\n        /* \"#utility.yul\":18518:18525   */\n      dup3\n        /* \"#utility.yul\":18515:18516   */\n      dup2\n        /* \"#utility.yul\":18512:18526   */\n      lt\n        /* \"#utility.yul\":18504:18712   */\n      iszero\n      tag_435\n      jumpi\n        /* \"#utility.yul\":18597:18606   */\n      dup5\n        /* \"#utility.yul\":18592:18595   */\n      dup10\n        /* \"#utility.yul\":18588:18607   */\n      add\n        /* \"#utility.yul\":18582:18608   */\n      mload\n        /* \"#utility.yul\":18574:18580   */\n      dup3\n        /* \"#utility.yul\":18567:18609   */\n      sstore\n        /* \"#utility.yul\":18648:18649   */\n      0x01\n        /* \"#utility.yul\":18640:18646   */\n      dup3\n        /* \"#utility.yul\":18636:18650   */\n      add\n        /* \"#utility.yul\":18626:18650   */\n      swap2\n      pop\n        /* \"#utility.yul\":18695:18697   */\n      0x20\n        /* \"#utility.yul\":18684:18693   */\n      dup6\n        /* \"#utility.yul\":18680:18698   */\n      add\n        /* \"#utility.yul\":18667:18698   */\n      swap5\n      pop\n        /* \"#utility.yul\":18541:18545   */\n      0x20\n        /* \"#utility.yul\":18538:18539   */\n      dup2\n        /* \"#utility.yul\":18534:18546   */\n      add\n        /* \"#utility.yul\":18529:18546   */\n      swap1\n      pop\n        /* \"#utility.yul\":18504:18712   */\n      jump(tag_433)\n    tag_435:\n        /* \"#utility.yul\":18740:18746   */\n      dup7\n        /* \"#utility.yul\":18731:18738   */\n      dup4\n        /* \"#utility.yul\":18728:18747   */\n      lt\n        /* \"#utility.yul\":18725:18904   */\n      iszero\n      tag_436\n      jumpi\n        /* \"#utility.yul\":18798:18807   */\n      dup5\n        /* \"#utility.yul\":18793:18796   */\n      dup10\n        /* \"#utility.yul\":18789:18808   */\n      add\n        /* \"#utility.yul\":18783:18809   */\n      mload\n        /* \"#utility.yul\":18841:18889   */\n      tag_437\n        /* \"#utility.yul\":18883:18887   */\n      0x1f\n        /* \"#utility.yul\":18875:18881   */\n      dup10\n        /* \"#utility.yul\":18871:18888   */\n      and\n        /* \"#utility.yul\":18860:18869   */\n      dup3\n        /* \"#utility.yul\":18841:18889   */\n      tag_236\n      jump\t// in\n    tag_437:\n        /* \"#utility.yul\":18833:18839   */\n      dup4\n        /* \"#utility.yul\":18826:18890   */\n      sstore\n        /* \"#utility.yul\":18748:18904   */\n      pop\n        /* \"#utility.yul\":18725:18904   */\n    tag_436:\n        /* \"#utility.yul\":18950:18951   */\n      0x01\n        /* \"#utility.yul\":18946:18947   */\n      0x02\n        /* \"#utility.yul\":18938:18944   */\n      dup9\n        /* \"#utility.yul\":18934:18948   */\n      mul\n        /* \"#utility.yul\":18930:18952   */\n      add\n        /* \"#utility.yul\":18924:18928   */\n      dup9\n        /* \"#utility.yul\":18917:18953   */\n      sstore\n        /* \"#utility.yul\":18352:18963   */\n      pop\n      pop\n      pop\n        /* \"#utility.yul\":18315:19202   */\n    tag_428:\n      pop\n        /* \"#utility.yul\":17905:19208   */\n      pop\n      pop\n      pop\n        /* \"#utility.yul\":17813:19208   */\n      pop\n      pop\n      jump\t// out\n        /* \"#utility.yul\":19214:19384   */\n    tag_238:\n        /* \"#utility.yul\":19354:19376   */\n      0x4f7264657220646f6573206e6f74206578697374000000000000000000000000\n        /* \"#utility.yul\":19350:19351   */\n      0x00\n        /* \"#utility.yul\":19342:19348   */\n      dup3\n        /* \"#utility.yul\":19338:19352   */\n      add\n        /* \"#utility.yul\":19331:19377   */\n      mstore\n        /* \"#utility.yul\":19214:19384   */\n      pop\n      jump\t// out\n        /* \"#utility.yul\":19390:19756   */\n    tag_239:\n        /* \"#utility.yul\":19532:19535   */\n      0x00\n        /* \"#utility.yul\":19553:19620   */\n      tag_440\n        /* \"#utility.yul\":19617:19619   */\n      0x14\n        /* \"#utility.yul\":19612:19615   */\n      dup4\n        /* \"#utility.yul\":19553:19620   */\n      tag_214\n      jump\t// in\n    tag_440:\n        /* \"#utility.yul\":19546:19620   */\n      swap2\n      pop\n        /* \"#utility.yul\":19629:19722   */\n      tag_441\n        /* \"#utility.yul\":19718:19721   */\n      dup3\n        /* \"#utility.yul\":19629:19722   */\n      tag_238\n      jump\t// in\n    tag_441:\n        /* \"#utility.yul\":19747:19749   */\n      0x20\n        /* \"#utility.yul\":19742:19745   */\n      dup3\n        /* \"#utility.yul\":19738:19750   */\n      add\n        /* \"#utility.yul\":19731:19750   */\n      swap1\n      pop\n        /* \"#utility.yul\":19390:19756   */\n      swap2\n      swap1\n      pop\n      jump\t// out\n        /* \"#utility.yul\":19762:20181   */\n    tag_171:\n        /* \"#utility.yul\":19928:19932   */\n      0x00\n        /* \"#utility.yul\":19966:19968   */\n      0x20\n        /* \"#utility.yul\":19955:19964   */\n      dup3\n        /* \"#utility.yul\":19951:19969   */\n      add\n        /* \"#utility.yul\":19943:19969   */\n      swap1\n      pop\n        /* \"#utility.yul\":20015:20024   */\n      dup2\n        /* \"#utility.yul\":20009:20013   */\n      dup2\n        /* \"#utility.yul\":20005:20025   */\n      sub\n        /* \"#utility.yul\":20001:20002   */\n      0x00\n        /* \"#utility.yul\":19990:19999   */\n      dup4\n        /* \"#utility.yul\":19986:20003   */\n      add\n        /* \"#utility.yul\":19979:20026   */\n      mstore\n        /* \"#utility.yul\":20043:20174   */\n      tag_443\n        /* \"#utility.yul\":20169:20173   */\n      dup2\n        /* \"#utility.yul\":20043:20174   */\n      tag_239\n      jump\t// in\n    tag_443:\n        /* \"#utility.yul\":20035:20174   */\n      swap1\n      pop\n        /* \"#utility.yul\":19762:20181   */\n      swap2\n      swap1\n      pop\n      jump\t// out\n        /* \"#utility.yul\":20211:21042   */\n    tag_240:\n        /* \"#utility.yul\":20296:20299   */\n      0x00\n        /* \"#utility.yul\":20333:20338   */\n      dup2\n        /* \"#utility.yul\":20327:20339   */\n      sload\n        /* \"#utility.yul\":20362:20398   */\n      tag_445\n        /* \"#utility.yul\":20388:20397   */\n      dup2\n        /* \"#utility.yul\":20362:20398   */\n      tag_80\n      jump\t// in\n    tag_445:\n        /* \"#utility.yul\":20414:20485   */\n      tag_446\n        /* \"#utility.yul\":20478:20484   */\n      dup2\n        /* \"#utility.yul\":20473:20476   */\n      dup7\n        /* \"#utility.yul\":20414:20485   */\n      tag_214\n      jump\t// in\n    tag_446:\n        /* \"#utility.yul\":20407:20485   */\n      swap5\n      pop\n        /* \"#utility.yul\":20516:20517   */\n      0x01\n        /* \"#utility.yul\":20505:20514   */\n      dup3\n        /* \"#utility.yul\":20501:20518   */\n      and\n        /* \"#utility.yul\":20532:20533   */\n      0x00\n        /* \"#utility.yul\":20527:20691   */\n      dup2\n      eq\n      tag_448\n      jumpi\n        /* \"#utility.yul\":20705:20706   */\n      0x01\n        /* \"#utility.yul\":20700:21036   */\n      dup2\n      eq\n      tag_449\n      jumpi\n        /* \"#utility.yul\":20494:21036   */\n      jump(tag_447)\n        /* \"#utility.yul\":20527:20691   */\n    tag_448:\n        /* \"#utility.yul\":20611:20615   */\n      0xff\n        /* \"#utility.yul\":20607:20616   */\n      not\n        /* \"#utility.yul\":20596:20605   */\n      dup4\n        /* \"#utility.yul\":20592:20617   */\n      and\n        /* \"#utility.yul\":20587:20590   */\n      dup7\n        /* \"#utility.yul\":20580:20618   */\n      mstore\n        /* \"#utility.yul\":20671:20677   */\n      dup2\n        /* \"#utility.yul\":20664:20678   */\n      iszero\n        /* \"#utility.yul\":20657:20679   */\n      iszero\n        /* \"#utility.yul\":20651:20655   */\n      0x20\n        /* \"#utility.yul\":20647:20680   */\n      mul\n        /* \"#utility.yul\":20642:20645   */\n      dup7\n        /* \"#utility.yul\":20638:20681   */\n      add\n        /* \"#utility.yul\":20631:20681   */\n      swap4\n      pop\n        /* \"#utility.yul\":20527:20691   */\n      jump(tag_447)\n        /* \"#utility.yul\":20700:21036   */\n    tag_449:\n        /* \"#utility.yul\":20767:20805   */\n      tag_450\n        /* \"#utility.yul\":20799:20804   */\n      dup6\n        /* \"#utility.yul\":20767:20805   */\n      tag_223\n      jump\t// in\n    tag_450:\n        /* \"#utility.yul\":20827:20828   */\n      0x00\n        /* \"#utility.yul\":20841:20995   */\n    tag_451:\n        /* \"#utility.yul\":20855:20861   */\n      dup4\n        /* \"#utility.yul\":20852:20853   */\n      dup2\n        /* \"#utility.yul\":20849:20862   */\n      lt\n        /* \"#utility.yul\":20841:20995   */\n      iszero\n      tag_453\n      jumpi\n        /* \"#utility.yul\":20929:20936   */\n      dup2\n        /* \"#utility.yul\":20923:20937   */\n      sload\n        /* \"#utility.yul\":20919:20920   */\n      dup2\n        /* \"#utility.yul\":20914:20917   */\n      dup10\n        /* \"#utility.yul\":20910:20921   */\n      add\n        /* \"#utility.yul\":20903:20938   */\n      mstore\n        /* \"#utility.yul\":20979:20980   */\n      0x01\n        /* \"#utility.yul\":20970:20977   */\n      dup3\n        /* \"#utility.yul\":20966:20981   */\n      add\n        /* \"#utility.yul\":20955:20981   */\n      swap2\n      pop\n        /* \"#utility.yul\":20877:20881   */\n      0x20\n        /* \"#utility.yul\":20874:20875   */\n      dup2\n        /* \"#utility.yul\":20870:20882   */\n      add\n        /* \"#utility.yul\":20865:20882   */\n      swap1\n      pop\n        /* \"#utility.yul\":20841:20995   */\n      jump(tag_451)\n    tag_453:\n        /* \"#utility.yul\":21024:21025   */\n      dup1\n        /* \"#utility.yul\":21019:21022   */\n      dup9\n        /* \"#utility.yul\":21015:21026   */\n      add\n        /* \"#utility.yul\":21008:21026   */\n      swap6\n      pop\n        /* \"#utility.yul\":20707:21036   */\n      pop\n      pop\n        /* \"#utility.yul\":20494:21036   */\n    tag_447:\n      pop\n        /* \"#utility.yul\":20300:21042   */\n      pop\n      pop\n        /* \"#utility.yul\":20211:21042   */\n      swap3\n      swap2\n      pop\n      pop\n      jump\t// out\n        /* \"#utility.yul\":21048:21708   */\n    tag_176:\n        /* \"#utility.yul\":21253:21257   */\n      0x00\n        /* \"#utility.yul\":21291:21294   */\n      0x80\n        /* \"#utility.yul\":21280:21289   */\n      dup3\n        /* \"#utility.yul\":21276:21295   */\n      add\n        /* \"#utility.yul\":21268:21295   */\n      swap1\n      pop\n        /* \"#utility.yul\":21305:21376   */\n      tag_455\n        /* \"#utility.yul\":21373:21374   */\n      0x00\n        /* \"#utility.yul\":21362:21371   */\n      dup4\n        /* \"#utility.yul\":21358:21375   */\n      add\n        /* \"#utility.yul\":21349:21355   */\n      dup8\n        /* \"#utility.yul\":21305:21376   */\n      tag_188\n      jump\t// in\n    tag_455:\n        /* \"#utility.yul\":21423:21432   */\n      dup2\n        /* \"#utility.yul\":21417:21421   */\n      dup2\n        /* \"#utility.yul\":21413:21433   */\n      sub\n        /* \"#utility.yul\":21408:21410   */\n      0x20\n        /* \"#utility.yul\":21397:21406   */\n      dup4\n        /* \"#utility.yul\":21393:21411   */\n      add\n        /* \"#utility.yul\":21386:21434   */\n      mstore\n        /* \"#utility.yul\":21451:21526   */\n      tag_456\n        /* \"#utility.yul\":21521:21525   */\n      dup2\n        /* \"#utility.yul\":21512:21518   */\n      dup7\n        /* \"#utility.yul\":21451:21526   */\n      tag_240\n      jump\t// in\n    tag_456:\n        /* \"#utility.yul\":21443:21526   */\n      swap1\n      pop\n        /* \"#utility.yul\":21536:21608   */\n      tag_457\n        /* \"#utility.yul\":21604:21606   */\n      0x40\n        /* \"#utility.yul\":21593:21602   */\n      dup4\n        /* \"#utility.yul\":21589:21607   */\n      add\n        /* \"#utility.yul\":21580:21586   */\n      dup6\n        /* \"#utility.yul\":21536:21608   */\n      tag_188\n      jump\t// in\n    tag_457:\n        /* \"#utility.yul\":21618:21701   */\n      tag_458\n        /* \"#utility.yul\":21697:21699   */\n      0x60\n        /* \"#utility.yul\":21686:21695   */\n      dup4\n        /* \"#utility.yul\":21682:21700   */\n      add\n        /* \"#utility.yul\":21673:21679   */\n      dup5\n        /* \"#utility.yul\":21618:21701   */\n      tag_216\n      jump\t// in\n    tag_458:\n        /* \"#utility.yul\":21048:21708   */\n      swap6\n      swap5\n      pop\n      pop\n      pop\n      pop\n      pop\n      jump\t// out\n\n    auxdata: 0xa2646970667358221220bd399f7776e60c101f97a0a86639baf971b95302c041475167ed6f423011114664736f6c63430008160033\n}\n",
				"bytecode": {
					"linkReferences": {},
					"object": "608060405234801562000010575f80fd5b5060405162001b6138038062001b61833981810160405281019062000036919062000121565b335f806101000a81548173ffffffffffffffffffffffffffffffffffffffff021916908373ffffffffffffffffffffffffffffffffffffffff1602179055508060015f6101000a81548173ffffffffffffffffffffffffffffffffffffffff021916908373ffffffffffffffffffffffffffffffffffffffff1602179055505062000151565b5f80fd5b5f73ffffffffffffffffffffffffffffffffffffffff82169050919050565b5f620000eb82620000c0565b9050919050565b620000fd81620000df565b811462000108575f80fd5b50565b5f815190506200011b81620000f2565b92915050565b5f60208284031215620001395762000138620000bc565b5b5f62000148848285016200010b565b91505092915050565b611a02806200015f5f395ff3fe608060405234801561000f575f80fd5b5060043610610091575f3560e01c80637bea0d1c116100645780637bea0d1c1461010b578063a1b6e83614610129578063a85c38ef14610145578063ddff5e7d14610178578063df3402001461019457610091565b806308551a5314610095578063194c302c146100b35780632453ffa8146100cf5780637150d8ae146100ed575b5f80fd5b61009d6101b2565b6040516100aa9190610ee8565b60405180910390f35b6100cd60048036038101906100c89190610f45565b6101d7565b005b6100d7610351565b6040516100e49190610f7f565b60405180910390f35b6100f5610357565b6040516101029190610ee8565b60405180910390f35b61011361037a565b60405161012091906111bf565b60405180910390f35b610143600480360381019061013e919061130b565b610606565b005b61015f600480360381019061015a9190610f45565b6107e7565b60405161016f94939291906113bc565b60405180910390f35b610192600480360381019061018d9190610f45565b6108a5565b005b61019c610a1f565b6040516101a991906111bf565b60405180910390f35b60015f9054906101000a900473ffffffffffffffffffffffffffffffffffffffff1681565b5f8054906101000a900473ffffffffffffffffffffffffffffffffffffffff1673ffffffffffffffffffffffffffffffffffffffff163373ffffffffffffffffffffffffffffffffffffffff16148061027c575060015f9054906101000a900473ffffffffffffffffffffffffffffffffffffffff1673ffffffffffffffffffffffffffffffffffffffff163373ffffffffffffffffffffffffffffffffffffffff16145b6102bb576040517f08c379a00000000000000000000000000000000000000000000000000000000081526004016102b290611476565b60405180910390fd5b806002808111156102cf576102ce61105a565b5b60025f8381526020019081526020015f206003015f9054906101000a900460ff1660028111156103025761030161105a565b5b03610342576040517f08c379a0000000000000000000000000000000000000000000000000000000008152600401610339906114de565b60405180910390fd5b61034d826001610d78565b5050565b60035481565b5f8054906101000a900473ffffffffffffffffffffffffffffffffffffffff1681565b60605f8054906101000a900473ffffffffffffffffffffffffffffffffffffffff1673ffffffffffffffffffffffffffffffffffffffff163373ffffffffffffffffffffffffffffffffffffffff161480610421575060015f9054906101000a900473ffffffffffffffffffffffffffffffffffffffff1673ffffffffffffffffffffffffffffffffffffffff163373ffffffffffffffffffffffffffffffffffffffff16145b610460576040517f08c379a000000000000000000000000000000000000000000000000000000000815260040161045790611476565b60405180910390fd5b5f60035467ffffffffffffffff81111561047d5761047c6111e7565b5b6040519080825280602002602001820160405280156104b657816020015b6104a3610e72565b81526020019060019003908161049b5790505b5090505f600190505b60035481116105fe5760025f8281526020019081526020015f206040518060800160405290815f82015481526020016001820180546104fd90611529565b80601f016020809104026020016040519081016040528092919081815260200182805461052990611529565b80156105745780601f1061054b57610100808354040283529160200191610574565b820191905f5260205f20905b81548152906001019060200180831161055757829003601f168201915b5050505050815260200160028201548152602001600382015f9054906101000a900460ff1660028111156105ab576105aa61105a565b5b60028111156105bd576105bc61105a565b5b81525050826001836105cf9190611586565b815181106105e0576105df6115b9565b5b602002602001018190525080806105f6906115e6565b9150506104bf565b508091505090565b5f8054906101000a900473ffffffffffffffffffffffffffffffffffffffff1673ffffffffffffffffffffffffffffffffffffffff163373ffffffffffffffffffffffffffffffffffffffff1614806106ab575060015f9054906101000a900473ffffffffffffffffffffffffffffffffffffffff1673ffffffffffffffffffffffffffffffffffffffff163373ffffffffffffffffffffffffffffffffffffffff16145b6106ea576040517f08c379a00000000000000000000000000000000000000000000000000000000081526004016106e190611476565b60405180910390fd5b60035f8154809291906106fc906115e6565b91905055505f600354905060405180608001604052808281526020018481526020018381526020015f60028111156107375761073661105a565b5b81525060025f8381526020019081526020015f205f820151815f0155602082015181600101908161076891906117ca565b50604082015181600201556060820151816003015f6101000a81548160ff0219169083600281111561079d5761079c61105a565b5b02179055509050507f55a618ac33e95affba4a62caf2ede71d066a7dbe093c888809d2f6eae13730cd8184845f6040516107da94939291906113bc565b60405180910390a1505050565b6002602052805f5260405f205f91509050805f01549080600101805461080c90611529565b80601f016020809104026020016040519081016040528092919081815260200182805461083890611529565b80156108835780601f1061085a57610100808354040283529160200191610883565b820191905f5260205f20905b81548152906001019060200180831161086657829003601f168201915b505050505090806002015490806003015f9054906101000a900460ff16905084565b5f8054906101000a900473ffffffffffffffffffffffffffffffffffffffff1673ffffffffffffffffffffffffffffffffffffffff163373ffffffffffffffffffffffffffffffffffffffff16148061094a575060015f9054906101000a900473ffffffffffffffffffffffffffffffffffffffff1673ffffffffffffffffffffffffffffffffffffffff163373ffffffffffffffffffffffffffffffffffffffff16145b610989576040517f08c379a000000000000000000000000000000000000000000000000000000000815260040161098090611476565b60405180910390fd5b8060028081111561099d5761099c61105a565b5b60025f8381526020019081526020015f206003015f9054906101000a900460ff1660028111156109d0576109cf61105a565b5b03610a10576040517f08c379a0000000000000000000000000000000000000000000000000000000008152600401610a07906114de565b60405180910390fd5b610a1b826002610d78565b5050565b60605f8054906101000a900473ffffffffffffffffffffffffffffffffffffffff1673ffffffffffffffffffffffffffffffffffffffff163373ffffffffffffffffffffffffffffffffffffffff161480610ac6575060015f9054906101000a900473ffffffffffffffffffffffffffffffffffffffff1673ffffffffffffffffffffffffffffffffffffffff163373ffffffffffffffffffffffffffffffffffffffff16145b610b05576040517f08c379a0000000000000000000000000000000000000000000000000000000008152600401610afc90611476565b60405180910390fd5b5f80600190505b6003548111610b82575f6002811115610b2857610b2761105a565b5b60025f8381526020019081526020015f206003015f9054906101000a900460ff166002811115610b5b57610b5a61105a565b5b03610b6f578180610b6b906115e6565b9250505b8080610b7a906115e6565b915050610b0c565b505f8167ffffffffffffffff811115610b9e57610b9d6111e7565b5b604051908082528060200260200182016040528015610bd757816020015b610bc4610e72565b815260200190600190039081610bbc5790505b5090505f80600190505b6003548111610d6e575f6002811115610bfd57610bfc61105a565b5b60025f8381526020019081526020015f206003015f9054906101000a900460ff166002811115610c3057610c2f61105a565b5b03610d5b5760025f8281526020019081526020015f206040518060800160405290815f8201548152602001600182018054610c6a90611529565b80601f0160208091040260200160405190810160405280929190818152602001828054610c9690611529565b8015610ce15780601f10610cb857610100808354040283529160200191610ce1565b820191905f5260205f20905b815481529060010190602001808311610cc457829003601f168201915b5050505050815260200160028201548152602001600382015f9054906101000a900460ff166002811115610d1857610d1761105a565b5b6002811115610d2a57610d2961105a565b5b81525050838381518110610d4157610d406115b9565b5b60200260200101819052508180610d57906115e6565b9250505b8080610d66906115e6565b915050610be1565b5081935050505090565b818060025f8381526020019081526020015f205f015414610dce576040517f08c379a0000000000000000000000000000000000000000000000000000000008152600401610dc5906118e3565b60405180910390fd5b8160025f8581526020019081526020015f206003015f6101000a81548160ff02191690836002811115610e0457610e0361105a565b5b02179055507f55a618ac33e95affba4a62caf2ede71d066a7dbe093c888809d2f6eae13730cd8360025f8681526020019081526020015f2060010160025f8781526020019081526020015f206002015485604051610e659493929190611982565b60405180910390a1505050565b60405180608001604052805f8152602001606081526020015f81526020015f6002811115610ea357610ea261105a565b5b81525090565b5f73ffffffffffffffffffffffffffffffffffffffff82169050919050565b5f610ed282610ea9565b9050919050565b610ee281610ec8565b82525050565b5f602082019050610efb5f830184610ed9565b92915050565b5f604051905090565b5f80fd5b5f80fd5b5f819050919050565b610f2481610f12565b8114610f2e575f80fd5b50565b5f81359050610f3f81610f1b565b92915050565b5f60208284031215610f5a57610f59610f0a565b5b5f610f6784828501610f31565b91505092915050565b610f7981610f12565b82525050565b5f602082019050610f925f830184610f70565b92915050565b5f81519050919050565b5f82825260208201905092915050565b5f819050602082019050919050565b610fca81610f12565b82525050565b5f81519050919050565b5f82825260208201905092915050565b5f5b83811015611007578082015181840152602081019050610fec565b5f8484015250505050565b5f601f19601f8301169050919050565b5f61102c82610fd0565b6110368185610fda565b9350611046818560208601610fea565b61104f81611012565b840191505092915050565b7f4e487b71000000000000000000000000000000000000000000000000000000005f52602160045260245ffd5b600381106110985761109761105a565b5b50565b5f8190506110a882611087565b919050565b5f6110b78261109b565b9050919050565b6110c7816110ad565b82525050565b5f608083015f8301516110e25f860182610fc1565b50602083015184820360208601526110fa8282611022565b915050604083015161110f6040860182610fc1565b50606083015161112260608601826110be565b508091505092915050565b5f61113883836110cd565b905092915050565b5f602082019050919050565b5f61115682610f98565b6111608185610fa2565b93508360208202850161117285610fb2565b805f5b858110156111ad578484038952815161118e858261112d565b945061119983611140565b925060208a01995050600181019050611175565b50829750879550505050505092915050565b5f6020820190508181035f8301526111d7818461114c565b905092915050565b5f80fd5b5f80fd5b7f4e487b71000000000000000000000000000000000000000000000000000000005f52604160045260245ffd5b61121d82611012565b810181811067ffffffffffffffff8211171561123c5761123b6111e7565b5b80604052505050565b5f61124e610f01565b905061125a8282611214565b919050565b5f67ffffffffffffffff821115611279576112786111e7565b5b61128282611012565b9050602081019050919050565b828183375f83830152505050565b5f6112af6112aa8461125f565b611245565b9050828152602081018484840111156112cb576112ca6111e3565b5b6112d684828561128f565b509392505050565b5f82601f8301126112f2576112f16111df565b5b813561130284826020860161129d565b91505092915050565b5f806040838503121561132157611320610f0a565b5b5f83013567ffffffffffffffff81111561133e5761133d610f0e565b5b61134a858286016112de565b925050602061135b85828601610f31565b9150509250929050565b5f82825260208201905092915050565b5f61137f82610fd0565b6113898185611365565b9350611399818560208601610fea565b6113a281611012565b840191505092915050565b6113b6816110ad565b82525050565b5f6080820190506113cf5f830187610f70565b81810360208301526113e18186611375565b90506113f06040830185610f70565b6113fd60608301846113ad565b95945050505050565b7f4f6e6c79206275796572206f722073656c6c65722063616e2063616c6c2074685f8201527f69732066756e6374696f6e000000000000000000000000000000000000000000602082015250565b5f611460602b83611365565b915061146b82611406565b604082019050919050565b5f6020820190508181035f83015261148d81611454565b9050919050565b7f4f7264657220616c72656164792064656c6976657265640000000000000000005f82015250565b5f6114c8601783611365565b91506114d382611494565b602082019050919050565b5f6020820190508181035f8301526114f5816114bc565b9050919050565b7f4e487b71000000000000000000000000000000000000000000000000000000005f52602260045260245ffd5b5f600282049050600182168061154057607f821691505b602082108103611553576115526114fc565b5b50919050565b7f4e487b71000000000000000000000000000000000000000000000000000000005f52601160045260245ffd5b5f61159082610f12565b915061159b83610f12565b92508282039050818111156115b3576115b2611559565b5b92915050565b7f4e487b71000000000000000000000000000000000000000000000000000000005f52603260045260245ffd5b5f6115f082610f12565b91507fffffffffffffffffffffffffffffffffffffffffffffffffffffffffffffffff820361162257611621611559565b5b600182019050919050565b5f819050815f5260205f209050919050565b5f6020601f8301049050919050565b5f82821b905092915050565b5f600883026116897fffffffffffffffffffffffffffffffffffffffffffffffffffffffffffffffff8261164e565b611693868361164e565b95508019841693508086168417925050509392505050565b5f819050919050565b5f6116ce6116c96116c484610f12565b6116ab565b610f12565b9050919050565b5f819050919050565b6116e7836116b4565b6116fb6116f3826116d5565b84845461165a565b825550505050565b5f90565b61170f611703565b61171a8184846116de565b505050565b5b8181101561173d576117325f82611707565b600181019050611720565b5050565b601f821115611782576117538161162d565b61175c8461163f565b8101602085101561176b578190505b61177f6117778561163f565b83018261171f565b50505b505050565b5f82821c905092915050565b5f6117a25f1984600802611787565b1980831691505092915050565b5f6117ba8383611793565b9150826002028217905092915050565b6117d382610fd0565b67ffffffffffffffff8111156117ec576117eb6111e7565b5b6117f68254611529565b611801828285611741565b5f60209050601f831160018114611832575f8415611820578287015190505b61182a85826117af565b865550611891565b601f1984166118408661162d565b5f5b8281101561186757848901518255600182019150602085019450602081019050611842565b868310156118845784890151611880601f891682611793565b8355505b6001600288020188555050505b505050505050565b7f4f7264657220646f6573206e6f742065786973740000000000000000000000005f82015250565b5f6118cd601483611365565b91506118d882611899565b602082019050919050565b5f6020820190508181035f8301526118fa816118c1565b9050919050565b5f815461190d81611529565b6119178186611365565b9450600182165f8114611931576001811461194757611979565b60ff198316865281151560200286019350611979565b6119508561162d565b5f5b8381101561197157815481890152600182019150602081019050611952565b808801955050505b50505092915050565b5f6080820190506119955f830187610f70565b81810360208301526119a78186611901565b90506119b66040830185610f70565b6119c360608301846113ad565b9594505050505056fea2646970667358221220bd399f7776e60c101f97a0a86639baf971b95302c041475167ed6f423011114664736f6c63430008160033",
					"opcodes": "PUSH1 0x80 PUSH1 0x40 MSTORE CALLVALUE DUP1 ISZERO PUSH3 0x10 JUMPI PUSH0 DUP1 REVERT JUMPDEST POP PUSH1 0x40 MLOAD PUSH3 0x1B61 CODESIZE SUB DUP1 PUSH3 0x1B61 DUP4 CODECOPY DUP2 DUP2 ADD PUSH1 0x40 MSTORE DUP2 ADD SWAP1 PUSH3 0x36 SWAP2 SWAP1 PUSH3 0x121 JUMP JUMPDEST CALLER PUSH0 DUP1 PUSH2 0x100 EXP DUP2 SLOAD DUP2 PUSH20 0xFFFFFFFFFFFFFFFFFFFFFFFFFFFFFFFFFFFFFFFF MUL NOT AND SWAP1 DUP4 PUSH20 0xFFFFFFFFFFFFFFFFFFFFFFFFFFFFFFFFFFFFFFFF AND MUL OR SWAP1 SSTORE POP DUP1 PUSH1 0x1 PUSH0 PUSH2 0x100 EXP DUP2 SLOAD DUP2 PUSH20 0xFFFFFFFFFFFFFFFFFFFFFFFFFFFFFFFFFFFFFFFF MUL NOT AND SWAP1 DUP4 PUSH20 0xFFFFFFFFFFFFFFFFFFFFFFFFFFFFFFFFFFFFFFFF AND MUL OR SWAP1 SSTORE POP POP PUSH3 0x151 JUMP JUMPDEST PUSH0 DUP1 REVERT JUMPDEST PUSH0 PUSH20 0xFFFFFFFFFFFFFFFFFFFFFFFFFFFFFFFFFFFFFFFF DUP3 AND SWAP1 POP SWAP2 SWAP1 POP JUMP JUMPDEST PUSH0 PUSH3 0xEB DUP3 PUSH3 0xC0 JUMP JUMPDEST SWAP1 POP SWAP2 SWAP1 POP JUMP JUMPDEST PUSH3 0xFD DUP2 PUSH3 0xDF JUMP JUMPDEST DUP2 EQ PUSH3 0x108 JUMPI PUSH0 DUP1 REVERT JUMPDEST POP JUMP JUMPDEST PUSH0 DUP2 MLOAD SWAP1 POP PUSH3 0x11B DUP2 PUSH3 0xF2 JUMP JUMPDEST SWAP3 SWAP2 POP POP JUMP JUMPDEST PUSH0 PUSH1 0x20 DUP3 DUP5 SUB SLT ISZERO PUSH3 0x139 JUMPI PUSH3 0x138 PUSH3 0xBC JUMP JUMPDEST JUMPDEST PUSH0 PUSH3 0x148 DUP5 DUP3 DUP6 ADD PUSH3 0x10B JUMP JUMPDEST SWAP2 POP POP SWAP3 SWAP2 POP POP JUMP JUMPDEST PUSH2 0x1A02 DUP1 PUSH3 0x15F PUSH0 CODECOPY PUSH0 RETURN INVALID PUSH1 0x80 PUSH1 0x40 MSTORE CALLVALUE DUP1 ISZERO PUSH2 0xF JUMPI PUSH0 DUP1 REVERT JUMPDEST POP PUSH1 0x4 CALLDATASIZE LT PUSH2 0x91 JUMPI PUSH0 CALLDATALOAD PUSH1 0xE0 SHR DUP1 PUSH4 0x7BEA0D1C GT PUSH2 0x64 JUMPI DUP1 PUSH4 0x7BEA0D1C EQ PUSH2 0x10B JUMPI DUP1 PUSH4 0xA1B6E836 EQ PUSH2 0x129 JUMPI DUP1 PUSH4 0xA85C38EF EQ PUSH2 0x145 JUMPI DUP1 PUSH4 0xDDFF5E7D EQ PUSH2 0x178 JUMPI DUP1 PUSH4 0xDF340200 EQ PUSH2 0x194 JUMPI PUSH2 0x91 JUMP JUMPDEST DUP1 PUSH4 0x8551A53 EQ PUSH2 0x95 JUMPI DUP1 PUSH4 0x194C302C EQ PUSH2 0xB3 JUMPI DUP1 PUSH4 0x2453FFA8 EQ PUSH2 0xCF JUMPI DUP1 PUSH4 0x7150D8AE EQ PUSH2 0xED JUMPI JUMPDEST PUSH0 DUP1 REVERT JUMPDEST PUSH2 0x9D PUSH2 0x1B2 JUMP JUMPDEST PUSH1 0x40 MLOAD PUSH2 0xAA SWAP2 SWAP1 PUSH2 0xEE8 JUMP JUMPDEST PUSH1 0x40 MLOAD DUP1 SWAP2 SUB SWAP1 RETURN JUMPDEST PUSH2 0xCD PUSH1 0x4 DUP1 CALLDATASIZE SUB DUP2 ADD SWAP1 PUSH2 0xC8 SWAP2 SWAP1 PUSH2 0xF45 JUMP JUMPDEST PUSH2 0x1D7 JUMP JUMPDEST STOP JUMPDEST PUSH2 0xD7 PUSH2 0x351 JUMP JUMPDEST PUSH1 0x40 MLOAD PUSH2 0xE4 SWAP2 SWAP1 PUSH2 0xF7F JUMP JUMPDEST PUSH1 0x40 MLOAD DUP1 SWAP2 SUB SWAP1 RETURN JUMPDEST PUSH2 0xF5 PUSH2 0x357 JUMP JUMPDEST PUSH1 0x40 MLOAD PUSH2 0x102 SWAP2 SWAP1 PUSH2 0xEE8 JUMP JUMPDEST PUSH1 0x40 MLOAD DUP1 SWAP2 SUB SWAP1 RETURN JUMPDEST PUSH2 0x113 PUSH2 0x37A JUMP JUMPDEST PUSH1 0x40 MLOAD PUSH2 0x120 SWAP2 SWAP1 PUSH2 0x11BF JUMP JUMPDEST PUSH1 0x40 MLOAD DUP1 SWAP2 SUB SWAP1 RETURN JUMPDEST PUSH2 0x143 PUSH1 0x4 DUP1 CALLDATASIZE SUB DUP2 ADD SWAP1 PUSH2 0x13E SWAP2 SWAP1 PUSH2 0x130B JUMP JUMPDEST PUSH2 0x606 JUMP JUMPDEST STOP JUMPDEST PUSH2 0x15F PUSH1 0x4 DUP1 CALLDATASIZE SUB DUP2 ADD SWAP1 PUSH2 0x15A SWAP2 SWAP1 PUSH2 0xF45 JUMP JUMPDEST PUSH2 0x7E7 JUMP JUMPDEST PUSH1 0x40 MLOAD PUSH2 0x16F SWAP5 SWAP4 SWAP3 SWAP2 SWAP1 PUSH2 0x13BC JUMP JUMPDEST PUSH1 0x40 MLOAD DUP1 SWAP2 SUB SWAP1 RETURN JUMPDEST PUSH2 0x192 PUSH1 0x4 DUP1 CALLDATASIZE SUB DUP2 ADD SWAP1 PUSH2 0x18D SWAP2 SWAP1 PUSH2 0xF45 JUMP JUMPDEST PUSH2 0x8A5 JUMP JUMPDEST STOP JUMPDEST PUSH2 0x19C PUSH2 0xA1F JUMP JUMPDEST PUSH1 0x40 MLOAD PUSH2 0x1A9 SWAP2 SWAP1 PUSH2 0x11BF JUMP JUMPDEST PUSH1 0x40 MLOAD DUP1 SWAP2 SUB SWAP1 RETURN JUMPDEST PUSH1 0x1 PUSH0 SWAP1 SLOAD SWAP1 PUSH2 0x100 EXP SWAP1 DIV PUSH20 0xFFFFFFFFFFFFFFFFFFFFFFFFFFFFFFFFFFFFFFFF AND DUP2 JUMP JUMPDEST PUSH0 DUP1 SLOAD SWAP1 PUSH2 0x100 EXP SWAP1 DIV PUSH20 0xFFFFFFFFFFFFFFFFFFFFFFFFFFFFFFFFFFFFFFFF AND PUSH20 0xFFFFFFFFFFFFFFFFFFFFFFFFFFFFFFFFFFFFFFFF AND CALLER PUSH20 0xFFFFFFFFFFFFFFFFFFFFFFFFFFFFFFFFFFFFFFFF AND EQ DUP1 PUSH2 0x27C JUMPI POP PUSH1 0x1 PUSH0 SWAP1 SLOAD SWAP1 PUSH2 0x100 EXP SWAP1 DIV PUSH20 0xFFFFFFFFFFFFFFFFFFFFFFFFFFFFFFFFFFFFFFFF AND PUSH20 0xFFFFFFFFFFFFFFFFFFFFFFFFFFFFFFFFFFFFFFFF AND CALLER PUSH20 0xFFFFFFFFFFFFFFFFFFFFFFFFFFFFFFFFFFFFFFFF AND EQ JUMPDEST PUSH2 0x2BB JUMPI PUSH1 0x40 MLOAD PUSH32 0x8C379A000000000000000000000000000000000000000000000000000000000 DUP2 MSTORE PUSH1 0x4 ADD PUSH2 0x2B2 SWAP1 PUSH2 0x1476 JUMP JUMPDEST PUSH1 0x40 MLOAD DUP1 SWAP2 SUB SWAP1 REVERT JUMPDEST DUP1 PUSH1 0x2 DUP1 DUP2 GT ISZERO PUSH2 0x2CF JUMPI PUSH2 0x2CE PUSH2 0x105A JUMP JUMPDEST JUMPDEST PUSH1 0x2 PUSH0 DUP4 DUP2 MSTORE PUSH1 0x20 ADD SWAP1 DUP2 MSTORE PUSH1 0x20 ADD PUSH0 KECCAK256 PUSH1 0x3 ADD PUSH0 SWAP1 SLOAD SWAP1 PUSH2 0x100 EXP SWAP1 DIV PUSH1 0xFF AND PUSH1 0x2 DUP2 GT ISZERO PUSH2 0x302 JUMPI PUSH2 0x301 PUSH2 0x105A JUMP JUMPDEST JUMPDEST SUB PUSH2 0x342 JUMPI PUSH1 0x40 MLOAD PUSH32 0x8C379A000000000000000000000000000000000000000000000000000000000 DUP2 MSTORE PUSH1 0x4 ADD PUSH2 0x339 SWAP1 PUSH2 0x14DE JUMP JUMPDEST PUSH1 0x40 MLOAD DUP1 SWAP2 SUB SWAP1 REVERT JUMPDEST PUSH2 0x34D DUP3 PUSH1 0x1 PUSH2 0xD78 JUMP JUMPDEST POP POP JUMP JUMPDEST PUSH1 0x3 SLOAD DUP2 JUMP JUMPDEST PUSH0 DUP1 SLOAD SWAP1 PUSH2 0x100 EXP SWAP1 DIV PUSH20 0xFFFFFFFFFFFFFFFFFFFFFFFFFFFFFFFFFFFFFFFF AND DUP2 JUMP JUMPDEST PUSH1 0x60 PUSH0 DUP1 SLOAD SWAP1 PUSH2 0x100 EXP SWAP1 DIV PUSH20 0xFFFFFFFFFFFFFFFFFFFFFFFFFFFFFFFFFFFFFFFF AND PUSH20 0xFFFFFFFFFFFFFFFFFFFFFFFFFFFFFFFFFFFFFFFF AND CALLER PUSH20 0xFFFFFFFFFFFFFFFFFFFFFFFFFFFFFFFFFFFFFFFF AND EQ DUP1 PUSH2 0x421 JUMPI POP PUSH1 0x1 PUSH0 SWAP1 SLOAD SWAP1 PUSH2 0x100 EXP SWAP1 DIV PUSH20 0xFFFFFFFFFFFFFFFFFFFFFFFFFFFFFFFFFFFFFFFF AND PUSH20 0xFFFFFFFFFFFFFFFFFFFFFFFFFFFFFFFFFFFFFFFF AND CALLER PUSH20 0xFFFFFFFFFFFFFFFFFFFFFFFFFFFFFFFFFFFFFFFF AND EQ JUMPDEST PUSH2 0x460 JUMPI PUSH1 0x40 MLOAD PUSH32 0x8C379A000000000000000000000000000000000000000000000000000000000 DUP2 MSTORE PUSH1 0x4 ADD PUSH2 0x457 SWAP1 PUSH2 0x1476 JUMP JUMPDEST PUSH1 0x40 MLOAD DUP1 SWAP2 SUB SWAP1 REVERT JUMPDEST PUSH0 PUSH1 0x3 SLOAD PUSH8 0xFFFFFFFFFFFFFFFF DUP2 GT ISZERO PUSH2 0x47D JUMPI PUSH2 0x47C PUSH2 0x11E7 JUMP JUMPDEST JUMPDEST PUSH1 0x40 MLOAD SWAP1 DUP1 DUP3 MSTORE DUP1 PUSH1 0x20 MUL PUSH1 0x20 ADD DUP3 ADD PUSH1 0x40 MSTORE DUP1 ISZERO PUSH2 0x4B6 JUMPI DUP2 PUSH1 0x20 ADD JUMPDEST PUSH2 0x4A3 PUSH2 0xE72 JUMP JUMPDEST DUP2 MSTORE PUSH1 0x20 ADD SWAP1 PUSH1 0x1 SWAP1 SUB SWAP1 DUP2 PUSH2 0x49B JUMPI SWAP1 POP JUMPDEST POP SWAP1 POP PUSH0 PUSH1 0x1 SWAP1 POP JUMPDEST PUSH1 0x3 SLOAD DUP2 GT PUSH2 0x5FE JUMPI PUSH1 0x2 PUSH0 DUP3 DUP2 MSTORE PUSH1 0x20 ADD SWAP1 DUP2 MSTORE PUSH1 0x20 ADD PUSH0 KECCAK256 PUSH1 0x40 MLOAD DUP1 PUSH1 0x80 ADD PUSH1 0x40 MSTORE SWAP1 DUP2 PUSH0 DUP3 ADD SLOAD DUP2 MSTORE PUSH1 0x20 ADD PUSH1 0x1 DUP3 ADD DUP1 SLOAD PUSH2 0x4FD SWAP1 PUSH2 0x1529 JUMP JUMPDEST DUP1 PUSH1 0x1F ADD PUSH1 0x20 DUP1 SWAP2 DIV MUL PUSH1 0x20 ADD PUSH1 0x40 MLOAD SWAP1 DUP2 ADD PUSH1 0x40 MSTORE DUP1 SWAP3 SWAP2 SWAP1 DUP2 DUP2 MSTORE PUSH1 0x20 ADD DUP3 DUP1 SLOAD PUSH2 0x529 SWAP1 PUSH2 0x1529 JUMP JUMPDEST DUP1 ISZERO PUSH2 0x574 JUMPI DUP1 PUSH1 0x1F LT PUSH2 0x54B JUMPI PUSH2 0x100 DUP1 DUP4 SLOAD DIV MUL DUP4 MSTORE SWAP2 PUSH1 0x20 ADD SWAP2 PUSH2 0x574 JUMP JUMPDEST DUP3 ADD SWAP2 SWAP1 PUSH0 MSTORE PUSH1 0x20 PUSH0 KECCAK256 SWAP1 JUMPDEST DUP2 SLOAD DUP2 MSTORE SWAP1 PUSH1 0x1 ADD SWAP1 PUSH1 0x20 ADD DUP1 DUP4 GT PUSH2 0x557 JUMPI DUP3 SWAP1 SUB PUSH1 0x1F AND DUP3 ADD SWAP2 JUMPDEST POP POP POP POP POP DUP2 MSTORE PUSH1 0x20 ADD PUSH1 0x2 DUP3 ADD SLOAD DUP2 MSTORE PUSH1 0x20 ADD PUSH1 0x3 DUP3 ADD PUSH0 SWAP1 SLOAD SWAP1 PUSH2 0x100 EXP SWAP1 DIV PUSH1 0xFF AND PUSH1 0x2 DUP2 GT ISZERO PUSH2 0x5AB JUMPI PUSH2 0x5AA PUSH2 0x105A JUMP JUMPDEST JUMPDEST PUSH1 0x2 DUP2 GT ISZERO PUSH2 0x5BD JUMPI PUSH2 0x5BC PUSH2 0x105A JUMP JUMPDEST JUMPDEST DUP2 MSTORE POP POP DUP3 PUSH1 0x1 DUP4 PUSH2 0x5CF SWAP2 SWAP1 PUSH2 0x1586 JUMP JUMPDEST DUP2 MLOAD DUP2 LT PUSH2 0x5E0 JUMPI PUSH2 0x5DF PUSH2 0x15B9 JUMP JUMPDEST JUMPDEST PUSH1 0x20 MUL PUSH1 0x20 ADD ADD DUP2 SWAP1 MSTORE POP DUP1 DUP1 PUSH2 0x5F6 SWAP1 PUSH2 0x15E6 JUMP JUMPDEST SWAP2 POP POP PUSH2 0x4BF JUMP JUMPDEST POP DUP1 SWAP2 POP POP SWAP1 JUMP JUMPDEST PUSH0 DUP1 SLOAD SWAP1 PUSH2 0x100 EXP SWAP1 DIV PUSH20 0xFFFFFFFFFFFFFFFFFFFFFFFFFFFFFFFFFFFFFFFF AND PUSH20 0xFFFFFFFFFFFFFFFFFFFFFFFFFFFFFFFFFFFFFFFF AND CALLER PUSH20 0xFFFFFFFFFFFFFFFFFFFFFFFFFFFFFFFFFFFFFFFF AND EQ DUP1 PUSH2 0x6AB JUMPI POP PUSH1 0x1 PUSH0 SWAP1 SLOAD SWAP1 PUSH2 0x100 EXP SWAP1 DIV PUSH20 0xFFFFFFFFFFFFFFFFFFFFFFFFFFFFFFFFFFFFFFFF AND PUSH20 0xFFFFFFFFFFFFFFFFFFFFFFFFFFFFFFFFFFFFFFFF AND CALLER PUSH20 0xFFFFFFFFFFFFFFFFFFFFFFFFFFFFFFFFFFFFFFFF AND EQ JUMPDEST PUSH2 0x6EA JUMPI PUSH1 0x40 MLOAD PUSH32 0x8C379A000000000000000000000000000000000000000000000000000000000 DUP2 MSTORE PUSH1 0x4 ADD PUSH2 0x6E1 SWAP1 PUSH2 0x1476 JUMP JUMPDEST PUSH1 0x40 MLOAD DUP1 SWAP2 SUB SWAP1 REVERT JUMPDEST PUSH1 0x3 PUSH0 DUP2 SLOAD DUP1 SWAP3 SWAP2 SWAP1 PUSH2 0x6FC SWAP1 PUSH2 0x15E6 JUMP JUMPDEST SWAP2 SWAP1 POP SSTORE POP PUSH0 PUSH1 0x3 SLOAD SWAP1 POP PUSH1 0x40 MLOAD DUP1 PUSH1 0x80 ADD PUSH1 0x40 MSTORE DUP1 DUP3 DUP2 MSTORE PUSH1 0x20 ADD DUP5 DUP2 MSTORE PUSH1 0x20 ADD DUP4 DUP2 MSTORE PUSH1 0x20 ADD PUSH0 PUSH1 0x2 DUP2 GT ISZERO PUSH2 0x737 JUMPI PUSH2 0x736 PUSH2 0x105A JUMP JUMPDEST JUMPDEST DUP2 MSTORE POP PUSH1 0x2 PUSH0 DUP4 DUP2 MSTORE PUSH1 0x20 ADD SWAP1 DUP2 MSTORE PUSH1 0x20 ADD PUSH0 KECCAK256 PUSH0 DUP3 ADD MLOAD DUP2 PUSH0 ADD SSTORE PUSH1 0x20 DUP3 ADD MLOAD DUP2 PUSH1 0x1 ADD SWAP1 DUP2 PUSH2 0x768 SWAP2 SWAP1 PUSH2 0x17CA JUMP JUMPDEST POP PUSH1 0x40 DUP3 ADD MLOAD DUP2 PUSH1 0x2 ADD SSTORE PUSH1 0x60 DUP3 ADD MLOAD DUP2 PUSH1 0x3 ADD PUSH0 PUSH2 0x100 EXP DUP2 SLOAD DUP2 PUSH1 0xFF MUL NOT AND SWAP1 DUP4 PUSH1 0x2 DUP2 GT ISZERO PUSH2 0x79D JUMPI PUSH2 0x79C PUSH2 0x105A JUMP JUMPDEST JUMPDEST MUL OR SWAP1 SSTORE POP SWAP1 POP POP PUSH32 0x55A618AC33E95AFFBA4A62CAF2EDE71D066A7DBE093C888809D2F6EAE13730CD DUP2 DUP5 DUP5 PUSH0 PUSH1 0x40 MLOAD PUSH2 0x7DA SWAP5 SWAP4 SWAP3 SWAP2 SWAP1 PUSH2 0x13BC JUMP JUMPDEST PUSH1 0x40 MLOAD DUP1 SWAP2 SUB SWAP1 LOG1 POP POP POP JUMP JUMPDEST PUSH1 0x2 PUSH1 0x20 MSTORE DUP1 PUSH0 MSTORE PUSH1 0x40 PUSH0 KECCAK256 PUSH0 SWAP2 POP SWAP1 POP DUP1 PUSH0 ADD SLOAD SWAP1 DUP1 PUSH1 0x1 ADD DUP1 SLOAD PUSH2 0x80C SWAP1 PUSH2 0x1529 JUMP JUMPDEST DUP1 PUSH1 0x1F ADD PUSH1 0x20 DUP1 SWAP2 DIV MUL PUSH1 0x20 ADD PUSH1 0x40 MLOAD SWAP1 DUP2 ADD PUSH1 0x40 MSTORE DUP1 SWAP3 SWAP2 SWAP1 DUP2 DUP2 MSTORE PUSH1 0x20 ADD DUP3 DUP1 SLOAD PUSH2 0x838 SWAP1 PUSH2 0x1529 JUMP JUMPDEST DUP1 ISZERO PUSH2 0x883 JUMPI DUP1 PUSH1 0x1F LT PUSH2 0x85A JUMPI PUSH2 0x100 DUP1 DUP4 SLOAD DIV MUL DUP4 MSTORE SWAP2 PUSH1 0x20 ADD SWAP2 PUSH2 0x883 JUMP JUMPDEST DUP3 ADD SWAP2 SWAP1 PUSH0 MSTORE PUSH1 0x20 PUSH0 KECCAK256 SWAP1 JUMPDEST DUP2 SLOAD DUP2 MSTORE SWAP1 PUSH1 0x1 ADD SWAP1 PUSH1 0x20 ADD DUP1 DUP4 GT PUSH2 0x866 JUMPI DUP3 SWAP1 SUB PUSH1 0x1F AND DUP3 ADD SWAP2 JUMPDEST POP POP POP POP POP SWAP1 DUP1 PUSH1 0x2 ADD SLOAD SWAP1 DUP1 PUSH1 0x3 ADD PUSH0 SWAP1 SLOAD SWAP1 PUSH2 0x100 EXP SWAP1 DIV PUSH1 0xFF AND SWAP1 POP DUP5 JUMP JUMPDEST PUSH0 DUP1 SLOAD SWAP1 PUSH2 0x100 EXP SWAP1 DIV PUSH20 0xFFFFFFFFFFFFFFFFFFFFFFFFFFFFFFFFFFFFFFFF AND PUSH20 0xFFFFFFFFFFFFFFFFFFFFFFFFFFFFFFFFFFFFFFFF AND CALLER PUSH20 0xFFFFFFFFFFFFFFFFFFFFFFFFFFFFFFFFFFFFFFFF AND EQ DUP1 PUSH2 0x94A JUMPI POP PUSH1 0x1 PUSH0 SWAP1 SLOAD SWAP1 PUSH2 0x100 EXP SWAP1 DIV PUSH20 0xFFFFFFFFFFFFFFFFFFFFFFFFFFFFFFFFFFFFFFFF AND PUSH20 0xFFFFFFFFFFFFFFFFFFFFFFFFFFFFFFFFFFFFFFFF AND CALLER PUSH20 0xFFFFFFFFFFFFFFFFFFFFFFFFFFFFFFFFFFFFFFFF AND EQ JUMPDEST PUSH2 0x989 JUMPI PUSH1 0x40 MLOAD PUSH32 0x8C379A000000000000000000000000000000000000000000000000000000000 DUP2 MSTORE PUSH1 0x4 ADD PUSH2 0x980 SWAP1 PUSH2 0x1476 JUMP JUMPDEST PUSH1 0x40 MLOAD DUP1 SWAP2 SUB SWAP1 REVERT JUMPDEST DUP1 PUSH1 0x2 DUP1 DUP2 GT ISZERO PUSH2 0x99D JUMPI PUSH2 0x99C PUSH2 0x105A JUMP JUMPDEST JUMPDEST PUSH1 0x2 PUSH0 DUP4 DUP2 MSTORE PUSH1 0x20 ADD SWAP1 DUP2 MSTORE PUSH1 0x20 ADD PUSH0 KECCAK256 PUSH1 0x3 ADD PUSH0 SWAP1 SLOAD SWAP1 PUSH2 0x100 EXP SWAP1 DIV PUSH1 0xFF AND PUSH1 0x2 DUP2 GT ISZERO PUSH2 0x9D0 JUMPI PUSH2 0x9CF PUSH2 0x105A JUMP JUMPDEST JUMPDEST SUB PUSH2 0xA10 JUMPI PUSH1 0x40 MLOAD PUSH32 0x8C379A000000000000000000000000000000000000000000000000000000000 DUP2 MSTORE PUSH1 0x4 ADD PUSH2 0xA07 SWAP1 PUSH2 0x14DE JUMP JUMPDEST PUSH1 0x40 MLOAD DUP1 SWAP2 SUB SWAP1 REVERT JUMPDEST PUSH2 0xA1B DUP3 PUSH1 0x2 PUSH2 0xD78 JUMP JUMPDEST POP POP JUMP JUMPDEST PUSH1 0x60 PUSH0 DUP1 SLOAD SWAP1 PUSH2 0x100 EXP SWAP1 DIV PUSH20 0xFFFFFFFFFFFFFFFFFFFFFFFFFFFFFFFFFFFFFFFF AND PUSH20 0xFFFFFFFFFFFFFFFFFFFFFFFFFFFFFFFFFFFFFFFF AND CALLER PUSH20 0xFFFFFFFFFFFFFFFFFFFFFFFFFFFFFFFFFFFFFFFF AND EQ DUP1 PUSH2 0xAC6 JUMPI POP PUSH1 0x1 PUSH0 SWAP1 SLOAD SWAP1 PUSH2 0x100 EXP SWAP1 DIV PUSH20 0xFFFFFFFFFFFFFFFFFFFFFFFFFFFFFFFFFFFFFFFF AND PUSH20 0xFFFFFFFFFFFFFFFFFFFFFFFFFFFFFFFFFFFFFFFF AND CALLER PUSH20 0xFFFFFFFFFFFFFFFFFFFFFFFFFFFFFFFFFFFFFFFF AND EQ JUMPDEST PUSH2 0xB05 JUMPI PUSH1 0x40 MLOAD PUSH32 0x8C379A000000000000000000000000000000000000000000000000000000000 DUP2 MSTORE PUSH1 0x4 ADD PUSH2 0xAFC SWAP1 PUSH2 0x1476 JUMP JUMPDEST PUSH1 0x40 MLOAD DUP1 SWAP2 SUB SWAP1 REVERT JUMPDEST PUSH0 DUP1 PUSH1 0x1 SWAP1 POP JUMPDEST PUSH1 0x3 SLOAD DUP2 GT PUSH2 0xB82 JUMPI PUSH0 PUSH1 0x2 DUP2 GT ISZERO PUSH2 0xB28 JUMPI PUSH2 0xB27 PUSH2 0x105A JUMP JUMPDEST JUMPDEST PUSH1 0x2 PUSH0 DUP4 DUP2 MSTORE PUSH1 0x20 ADD SWAP1 DUP2 MSTORE PUSH1 0x20 ADD PUSH0 KECCAK256 PUSH1 0x3 ADD PUSH0 SWAP1 SLOAD SWAP1 PUSH2 0x100 EXP SWAP1 DIV PUSH1 0xFF AND PUSH1 0x2 DUP2 GT ISZERO PUSH2 0xB5B JUMPI PUSH2 0xB5A PUSH2 0x105A JUMP JUMPDEST JUMPDEST SUB PUSH2 0xB6F JUMPI DUP2 DUP1 PUSH2 0xB6B SWAP1 PUSH2 0x15E6 JUMP JUMPDEST SWAP3 POP POP JUMPDEST DUP1 DUP1 PUSH2 0xB7A SWAP1 PUSH2 0x15E6 JUMP JUMPDEST SWAP2 POP POP PUSH2 0xB0C JUMP JUMPDEST POP PUSH0 DUP2 PUSH8 0xFFFFFFFFFFFFFFFF DUP2 GT ISZERO PUSH2 0xB9E JUMPI PUSH2 0xB9D PUSH2 0x11E7 JUMP JUMPDEST JUMPDEST PUSH1 0x40 MLOAD SWAP1 DUP1 DUP3 MSTORE DUP1 PUSH1 0x20 MUL PUSH1 0x20 ADD DUP3 ADD PUSH1 0x40 MSTORE DUP1 ISZERO PUSH2 0xBD7 JUMPI DUP2 PUSH1 0x20 ADD JUMPDEST PUSH2 0xBC4 PUSH2 0xE72 JUMP JUMPDEST DUP2 MSTORE PUSH1 0x20 ADD SWAP1 PUSH1 0x1 SWAP1 SUB SWAP1 DUP2 PUSH2 0xBBC JUMPI SWAP1 POP JUMPDEST POP SWAP1 POP PUSH0 DUP1 PUSH1 0x1 SWAP1 POP JUMPDEST PUSH1 0x3 SLOAD DUP2 GT PUSH2 0xD6E JUMPI PUSH0 PUSH1 0x2 DUP2 GT ISZERO PUSH2 0xBFD JUMPI PUSH2 0xBFC PUSH2 0x105A JUMP JUMPDEST JUMPDEST PUSH1 0x2 PUSH0 DUP4 DUP2 MSTORE PUSH1 0x20 ADD SWAP1 DUP2 MSTORE PUSH1 0x20 ADD PUSH0 KECCAK256 PUSH1 0x3 ADD PUSH0 SWAP1 SLOAD SWAP1 PUSH2 0x100 EXP SWAP1 DIV PUSH1 0xFF AND PUSH1 0x2 DUP2 GT ISZERO PUSH2 0xC30 JUMPI PUSH2 0xC2F PUSH2 0x105A JUMP JUMPDEST JUMPDEST SUB PUSH2 0xD5B JUMPI PUSH1 0x2 PUSH0 DUP3 DUP2 MSTORE PUSH1 0x20 ADD SWAP1 DUP2 MSTORE PUSH1 0x20 ADD PUSH0 KECCAK256 PUSH1 0x40 MLOAD DUP1 PUSH1 0x80 ADD PUSH1 0x40 MSTORE SWAP1 DUP2 PUSH0 DUP3 ADD SLOAD DUP2 MSTORE PUSH1 0x20 ADD PUSH1 0x1 DUP3 ADD DUP1 SLOAD PUSH2 0xC6A SWAP1 PUSH2 0x1529 JUMP JUMPDEST DUP1 PUSH1 0x1F ADD PUSH1 0x20 DUP1 SWAP2 DIV MUL PUSH1 0x20 ADD PUSH1 0x40 MLOAD SWAP1 DUP2 ADD PUSH1 0x40 MSTORE DUP1 SWAP3 SWAP2 SWAP1 DUP2 DUP2 MSTORE PUSH1 0x20 ADD DUP3 DUP1 SLOAD PUSH2 0xC96 SWAP1 PUSH2 0x1529 JUMP JUMPDEST DUP1 ISZERO PUSH2 0xCE1 JUMPI DUP1 PUSH1 0x1F LT PUSH2 0xCB8 JUMPI PUSH2 0x100 DUP1 DUP4 SLOAD DIV MUL DUP4 MSTORE SWAP2 PUSH1 0x20 ADD SWAP2 PUSH2 0xCE1 JUMP JUMPDEST DUP3 ADD SWAP2 SWAP1 PUSH0 MSTORE PUSH1 0x20 PUSH0 KECCAK256 SWAP1 JUMPDEST DUP2 SLOAD DUP2 MSTORE SWAP1 PUSH1 0x1 ADD SWAP1 PUSH1 0x20 ADD DUP1 DUP4 GT PUSH2 0xCC4 JUMPI DUP3 SWAP1 SUB PUSH1 0x1F AND DUP3 ADD SWAP2 JUMPDEST POP POP POP POP POP DUP2 MSTORE PUSH1 0x20 ADD PUSH1 0x2 DUP3 ADD SLOAD DUP2 MSTORE PUSH1 0x20 ADD PUSH1 0x3 DUP3 ADD PUSH0 SWAP1 SLOAD SWAP1 PUSH2 0x100 EXP SWAP1 DIV PUSH1 0xFF AND PUSH1 0x2 DUP2 GT ISZERO PUSH2 0xD18 JUMPI PUSH2 0xD17 PUSH2 0x105A JUMP JUMPDEST JUMPDEST PUSH1 0x2 DUP2 GT ISZERO PUSH2 0xD2A JUMPI PUSH2 0xD29 PUSH2 0x105A JUMP JUMPDEST JUMPDEST DUP2 MSTORE POP POP DUP4 DUP4 DUP2 MLOAD DUP2 LT PUSH2 0xD41 JUMPI PUSH2 0xD40 PUSH2 0x15B9 JUMP JUMPDEST JUMPDEST PUSH1 0x20 MUL PUSH1 0x20 ADD ADD DUP2 SWAP1 MSTORE POP DUP2 DUP1 PUSH2 0xD57 SWAP1 PUSH2 0x15E6 JUMP JUMPDEST SWAP3 POP POP JUMPDEST DUP1 DUP1 PUSH2 0xD66 SWAP1 PUSH2 0x15E6 JUMP JUMPDEST SWAP2 POP POP PUSH2 0xBE1 JUMP JUMPDEST POP DUP2 SWAP4 POP POP POP POP SWAP1 JUMP JUMPDEST DUP2 DUP1 PUSH1 0x2 PUSH0 DUP4 DUP2 MSTORE PUSH1 0x20 ADD SWAP1 DUP2 MSTORE PUSH1 0x20 ADD PUSH0 KECCAK256 PUSH0 ADD SLOAD EQ PUSH2 0xDCE JUMPI PUSH1 0x40 MLOAD PUSH32 0x8C379A000000000000000000000000000000000000000000000000000000000 DUP2 MSTORE PUSH1 0x4 ADD PUSH2 0xDC5 SWAP1 PUSH2 0x18E3 JUMP JUMPDEST PUSH1 0x40 MLOAD DUP1 SWAP2 SUB SWAP1 REVERT JUMPDEST DUP2 PUSH1 0x2 PUSH0 DUP6 DUP2 MSTORE PUSH1 0x20 ADD SWAP1 DUP2 MSTORE PUSH1 0x20 ADD PUSH0 KECCAK256 PUSH1 0x3 ADD PUSH0 PUSH2 0x100 EXP DUP2 SLOAD DUP2 PUSH1 0xFF MUL NOT AND SWAP1 DUP4 PUSH1 0x2 DUP2 GT ISZERO PUSH2 0xE04 JUMPI PUSH2 0xE03 PUSH2 0x105A JUMP JUMPDEST JUMPDEST MUL OR SWAP1 SSTORE POP PUSH32 0x55A618AC33E95AFFBA4A62CAF2EDE71D066A7DBE093C888809D2F6EAE13730CD DUP4 PUSH1 0x2 PUSH0 DUP7 DUP2 MSTORE PUSH1 0x20 ADD SWAP1 DUP2 MSTORE PUSH1 0x20 ADD PUSH0 KECCAK256 PUSH1 0x1 ADD PUSH1 0x2 PUSH0 DUP8 DUP2 MSTORE PUSH1 0x20 ADD SWAP1 DUP2 MSTORE PUSH1 0x20 ADD PUSH0 KECCAK256 PUSH1 0x2 ADD SLOAD DUP6 PUSH1 0x40 MLOAD PUSH2 0xE65 SWAP5 SWAP4 SWAP3 SWAP2 SWAP1 PUSH2 0x1982 JUMP JUMPDEST PUSH1 0x40 MLOAD DUP1 SWAP2 SUB SWAP1 LOG1 POP POP POP JUMP JUMPDEST PUSH1 0x40 MLOAD DUP1 PUSH1 0x80 ADD PUSH1 0x40 MSTORE DUP1 PUSH0 DUP2 MSTORE PUSH1 0x20 ADD PUSH1 0x60 DUP2 MSTORE PUSH1 0x20 ADD PUSH0 DUP2 MSTORE PUSH1 0x20 ADD PUSH0 PUSH1 0x2 DUP2 GT ISZERO PUSH2 0xEA3 JUMPI PUSH2 0xEA2 PUSH2 0x105A JUMP JUMPDEST JUMPDEST DUP2 MSTORE POP SWAP1 JUMP JUMPDEST PUSH0 PUSH20 0xFFFFFFFFFFFFFFFFFFFFFFFFFFFFFFFFFFFFFFFF DUP3 AND SWAP1 POP SWAP2 SWAP1 POP JUMP JUMPDEST PUSH0 PUSH2 0xED2 DUP3 PUSH2 0xEA9 JUMP JUMPDEST SWAP1 POP SWAP2 SWAP1 POP JUMP JUMPDEST PUSH2 0xEE2 DUP2 PUSH2 0xEC8 JUMP JUMPDEST DUP3 MSTORE POP POP JUMP JUMPDEST PUSH0 PUSH1 0x20 DUP3 ADD SWAP1 POP PUSH2 0xEFB PUSH0 DUP4 ADD DUP5 PUSH2 0xED9 JUMP JUMPDEST SWAP3 SWAP2 POP POP JUMP JUMPDEST PUSH0 PUSH1 0x40 MLOAD SWAP1 POP SWAP1 JUMP JUMPDEST PUSH0 DUP1 REVERT JUMPDEST PUSH0 DUP1 REVERT JUMPDEST PUSH0 DUP2 SWAP1 POP SWAP2 SWAP1 POP JUMP JUMPDEST PUSH2 0xF24 DUP2 PUSH2 0xF12 JUMP JUMPDEST DUP2 EQ PUSH2 0xF2E JUMPI PUSH0 DUP1 REVERT JUMPDEST POP JUMP JUMPDEST PUSH0 DUP2 CALLDATALOAD SWAP1 POP PUSH2 0xF3F DUP2 PUSH2 0xF1B JUMP JUMPDEST SWAP3 SWAP2 POP POP JUMP JUMPDEST PUSH0 PUSH1 0x20 DUP3 DUP5 SUB SLT ISZERO PUSH2 0xF5A JUMPI PUSH2 0xF59 PUSH2 0xF0A JUMP JUMPDEST JUMPDEST PUSH0 PUSH2 0xF67 DUP5 DUP3 DUP6 ADD PUSH2 0xF31 JUMP JUMPDEST SWAP2 POP POP SWAP3 SWAP2 POP POP JUMP JUMPDEST PUSH2 0xF79 DUP2 PUSH2 0xF12 JUMP JUMPDEST DUP3 MSTORE POP POP JUMP JUMPDEST PUSH0 PUSH1 0x20 DUP3 ADD SWAP1 POP PUSH2 0xF92 PUSH0 DUP4 ADD DUP5 PUSH2 0xF70 JUMP JUMPDEST SWAP3 SWAP2 POP POP JUMP JUMPDEST PUSH0 DUP2 MLOAD SWAP1 POP SWAP2 SWAP1 POP JUMP JUMPDEST PUSH0 DUP3 DUP3 MSTORE PUSH1 0x20 DUP3 ADD SWAP1 POP SWAP3 SWAP2 POP POP JUMP JUMPDEST PUSH0 DUP2 SWAP1 POP PUSH1 0x20 DUP3 ADD SWAP1 POP SWAP2 SWAP1 POP JUMP JUMPDEST PUSH2 0xFCA DUP2 PUSH2 0xF12 JUMP JUMPDEST DUP3 MSTORE POP POP JUMP JUMPDEST PUSH0 DUP2 MLOAD SWAP1 POP SWAP2 SWAP1 POP JUMP JUMPDEST PUSH0 DUP3 DUP3 MSTORE PUSH1 0x20 DUP3 ADD SWAP1 POP SWAP3 SWAP2 POP POP JUMP JUMPDEST PUSH0 JUMPDEST DUP4 DUP2 LT ISZERO PUSH2 0x1007 JUMPI DUP1 DUP3 ADD MLOAD DUP2 DUP5 ADD MSTORE PUSH1 0x20 DUP2 ADD SWAP1 POP PUSH2 0xFEC JUMP JUMPDEST PUSH0 DUP5 DUP5 ADD MSTORE POP POP POP POP JUMP JUMPDEST PUSH0 PUSH1 0x1F NOT PUSH1 0x1F DUP4 ADD AND SWAP1 POP SWAP2 SWAP1 POP JUMP JUMPDEST PUSH0 PUSH2 0x102C DUP3 PUSH2 0xFD0 JUMP JUMPDEST PUSH2 0x1036 DUP2 DUP6 PUSH2 0xFDA JUMP JUMPDEST SWAP4 POP PUSH2 0x1046 DUP2 DUP6 PUSH1 0x20 DUP7 ADD PUSH2 0xFEA JUMP JUMPDEST PUSH2 0x104F DUP2 PUSH2 0x1012 JUMP JUMPDEST DUP5 ADD SWAP2 POP POP SWAP3 SWAP2 POP POP JUMP JUMPDEST PUSH32 0x4E487B7100000000000000000000000000000000000000000000000000000000 PUSH0 MSTORE PUSH1 0x21 PUSH1 0x4 MSTORE PUSH1 0x24 PUSH0 REVERT JUMPDEST PUSH1 0x3 DUP2 LT PUSH2 0x1098 JUMPI PUSH2 0x1097 PUSH2 0x105A JUMP JUMPDEST JUMPDEST POP JUMP JUMPDEST PUSH0 DUP2 SWAP1 POP PUSH2 0x10A8 DUP3 PUSH2 0x1087 JUMP JUMPDEST SWAP2 SWAP1 POP JUMP JUMPDEST PUSH0 PUSH2 0x10B7 DUP3 PUSH2 0x109B JUMP JUMPDEST SWAP1 POP SWAP2 SWAP1 POP JUMP JUMPDEST PUSH2 0x10C7 DUP2 PUSH2 0x10AD JUMP JUMPDEST DUP3 MSTORE POP POP JUMP JUMPDEST PUSH0 PUSH1 0x80 DUP4 ADD PUSH0 DUP4 ADD MLOAD PUSH2 0x10E2 PUSH0 DUP7 ADD DUP3 PUSH2 0xFC1 JUMP JUMPDEST POP PUSH1 0x20 DUP4 ADD MLOAD DUP5 DUP3 SUB PUSH1 0x20 DUP7 ADD MSTORE PUSH2 0x10FA DUP3 DUP3 PUSH2 0x1022 JUMP JUMPDEST SWAP2 POP POP PUSH1 0x40 DUP4 ADD MLOAD PUSH2 0x110F PUSH1 0x40 DUP7 ADD DUP3 PUSH2 0xFC1 JUMP JUMPDEST POP PUSH1 0x60 DUP4 ADD MLOAD PUSH2 0x1122 PUSH1 0x60 DUP7 ADD DUP3 PUSH2 0x10BE JUMP JUMPDEST POP DUP1 SWAP2 POP POP SWAP3 SWAP2 POP POP JUMP JUMPDEST PUSH0 PUSH2 0x1138 DUP4 DUP4 PUSH2 0x10CD JUMP JUMPDEST SWAP1 POP SWAP3 SWAP2 POP POP JUMP JUMPDEST PUSH0 PUSH1 0x20 DUP3 ADD SWAP1 POP SWAP2 SWAP1 POP JUMP JUMPDEST PUSH0 PUSH2 0x1156 DUP3 PUSH2 0xF98 JUMP JUMPDEST PUSH2 0x1160 DUP2 DUP6 PUSH2 0xFA2 JUMP JUMPDEST SWAP4 POP DUP4 PUSH1 0x20 DUP3 MUL DUP6 ADD PUSH2 0x1172 DUP6 PUSH2 0xFB2 JUMP JUMPDEST DUP1 PUSH0 JUMPDEST DUP6 DUP2 LT ISZERO PUSH2 0x11AD JUMPI DUP5 DUP5 SUB DUP10 MSTORE DUP2 MLOAD PUSH2 0x118E DUP6 DUP3 PUSH2 0x112D JUMP JUMPDEST SWAP5 POP PUSH2 0x1199 DUP4 PUSH2 0x1140 JUMP JUMPDEST SWAP3 POP PUSH1 0x20 DUP11 ADD SWAP10 POP POP PUSH1 0x1 DUP2 ADD SWAP1 POP PUSH2 0x1175 JUMP JUMPDEST POP DUP3 SWAP8 POP DUP8 SWAP6 POP POP POP POP POP POP SWAP3 SWAP2 POP POP JUMP JUMPDEST PUSH0 PUSH1 0x20 DUP3 ADD SWAP1 POP DUP2 DUP2 SUB PUSH0 DUP4 ADD MSTORE PUSH2 0x11D7 DUP2 DUP5 PUSH2 0x114C JUMP JUMPDEST SWAP1 POP SWAP3 SWAP2 POP POP JUMP JUMPDEST PUSH0 DUP1 REVERT JUMPDEST PUSH0 DUP1 REVERT JUMPDEST PUSH32 0x4E487B7100000000000000000000000000000000000000000000000000000000 PUSH0 MSTORE PUSH1 0x41 PUSH1 0x4 MSTORE PUSH1 0x24 PUSH0 REVERT JUMPDEST PUSH2 0x121D DUP3 PUSH2 0x1012 JUMP JUMPDEST DUP2 ADD DUP2 DUP2 LT PUSH8 0xFFFFFFFFFFFFFFFF DUP3 GT OR ISZERO PUSH2 0x123C JUMPI PUSH2 0x123B PUSH2 0x11E7 JUMP JUMPDEST JUMPDEST DUP1 PUSH1 0x40 MSTORE POP POP POP JUMP JUMPDEST PUSH0 PUSH2 0x124E PUSH2 0xF01 JUMP JUMPDEST SWAP1 POP PUSH2 0x125A DUP3 DUP3 PUSH2 0x1214 JUMP JUMPDEST SWAP2 SWAP1 POP JUMP JUMPDEST PUSH0 PUSH8 0xFFFFFFFFFFFFFFFF DUP3 GT ISZERO PUSH2 0x1279 JUMPI PUSH2 0x1278 PUSH2 0x11E7 JUMP JUMPDEST JUMPDEST PUSH2 0x1282 DUP3 PUSH2 0x1012 JUMP JUMPDEST SWAP1 POP PUSH1 0x20 DUP2 ADD SWAP1 POP SWAP2 SWAP1 POP JUMP JUMPDEST DUP3 DUP2 DUP4 CALLDATACOPY PUSH0 DUP4 DUP4 ADD MSTORE POP POP POP JUMP JUMPDEST PUSH0 PUSH2 0x12AF PUSH2 0x12AA DUP5 PUSH2 0x125F JUMP JUMPDEST PUSH2 0x1245 JUMP JUMPDEST SWAP1 POP DUP3 DUP2 MSTORE PUSH1 0x20 DUP2 ADD DUP5 DUP5 DUP5 ADD GT ISZERO PUSH2 0x12CB JUMPI PUSH2 0x12CA PUSH2 0x11E3 JUMP JUMPDEST JUMPDEST PUSH2 0x12D6 DUP5 DUP3 DUP6 PUSH2 0x128F JUMP JUMPDEST POP SWAP4 SWAP3 POP POP POP JUMP JUMPDEST PUSH0 DUP3 PUSH1 0x1F DUP4 ADD SLT PUSH2 0x12F2 JUMPI PUSH2 0x12F1 PUSH2 0x11DF JUMP JUMPDEST JUMPDEST DUP2 CALLDATALOAD PUSH2 0x1302 DUP5 DUP3 PUSH1 0x20 DUP7 ADD PUSH2 0x129D JUMP JUMPDEST SWAP2 POP POP SWAP3 SWAP2 POP POP JUMP JUMPDEST PUSH0 DUP1 PUSH1 0x40 DUP4 DUP6 SUB SLT ISZERO PUSH2 0x1321 JUMPI PUSH2 0x1320 PUSH2 0xF0A JUMP JUMPDEST JUMPDEST PUSH0 DUP4 ADD CALLDATALOAD PUSH8 0xFFFFFFFFFFFFFFFF DUP2 GT ISZERO PUSH2 0x133E JUMPI PUSH2 0x133D PUSH2 0xF0E JUMP JUMPDEST JUMPDEST PUSH2 0x134A DUP6 DUP3 DUP7 ADD PUSH2 0x12DE JUMP JUMPDEST SWAP3 POP POP PUSH1 0x20 PUSH2 0x135B DUP6 DUP3 DUP7 ADD PUSH2 0xF31 JUMP JUMPDEST SWAP2 POP POP SWAP3 POP SWAP3 SWAP1 POP JUMP JUMPDEST PUSH0 DUP3 DUP3 MSTORE PUSH1 0x20 DUP3 ADD SWAP1 POP SWAP3 SWAP2 POP POP JUMP JUMPDEST PUSH0 PUSH2 0x137F DUP3 PUSH2 0xFD0 JUMP JUMPDEST PUSH2 0x1389 DUP2 DUP6 PUSH2 0x1365 JUMP JUMPDEST SWAP4 POP PUSH2 0x1399 DUP2 DUP6 PUSH1 0x20 DUP7 ADD PUSH2 0xFEA JUMP JUMPDEST PUSH2 0x13A2 DUP2 PUSH2 0x1012 JUMP JUMPDEST DUP5 ADD SWAP2 POP POP SWAP3 SWAP2 POP POP JUMP JUMPDEST PUSH2 0x13B6 DUP2 PUSH2 0x10AD JUMP JUMPDEST DUP3 MSTORE POP POP JUMP JUMPDEST PUSH0 PUSH1 0x80 DUP3 ADD SWAP1 POP PUSH2 0x13CF PUSH0 DUP4 ADD DUP8 PUSH2 0xF70 JUMP JUMPDEST DUP2 DUP2 SUB PUSH1 0x20 DUP4 ADD MSTORE PUSH2 0x13E1 DUP2 DUP7 PUSH2 0x1375 JUMP JUMPDEST SWAP1 POP PUSH2 0x13F0 PUSH1 0x40 DUP4 ADD DUP6 PUSH2 0xF70 JUMP JUMPDEST PUSH2 0x13FD PUSH1 0x60 DUP4 ADD DUP5 PUSH2 0x13AD JUMP JUMPDEST SWAP6 SWAP5 POP POP POP POP POP JUMP JUMPDEST PUSH32 0x4F6E6C79206275796572206F722073656C6C65722063616E2063616C6C207468 PUSH0 DUP3 ADD MSTORE PUSH32 0x69732066756E6374696F6E000000000000000000000000000000000000000000 PUSH1 0x20 DUP3 ADD MSTORE POP JUMP JUMPDEST PUSH0 PUSH2 0x1460 PUSH1 0x2B DUP4 PUSH2 0x1365 JUMP JUMPDEST SWAP2 POP PUSH2 0x146B DUP3 PUSH2 0x1406 JUMP JUMPDEST PUSH1 0x40 DUP3 ADD SWAP1 POP SWAP2 SWAP1 POP JUMP JUMPDEST PUSH0 PUSH1 0x20 DUP3 ADD SWAP1 POP DUP2 DUP2 SUB PUSH0 DUP4 ADD MSTORE PUSH2 0x148D DUP2 PUSH2 0x1454 JUMP JUMPDEST SWAP1 POP SWAP2 SWAP1 POP JUMP JUMPDEST PUSH32 0x4F7264657220616C72656164792064656C697665726564000000000000000000 PUSH0 DUP3 ADD MSTORE POP JUMP JUMPDEST PUSH0 PUSH2 0x14C8 PUSH1 0x17 DUP4 PUSH2 0x1365 JUMP JUMPDEST SWAP2 POP PUSH2 0x14D3 DUP3 PUSH2 0x1494 JUMP JUMPDEST PUSH1 0x20 DUP3 ADD SWAP1 POP SWAP2 SWAP1 POP JUMP JUMPDEST PUSH0 PUSH1 0x20 DUP3 ADD SWAP1 POP DUP2 DUP2 SUB PUSH0 DUP4 ADD MSTORE PUSH2 0x14F5 DUP2 PUSH2 0x14BC JUMP JUMPDEST SWAP1 POP SWAP2 SWAP1 POP JUMP JUMPDEST PUSH32 0x4E487B7100000000000000000000000000000000000000000000000000000000 PUSH0 MSTORE PUSH1 0x22 PUSH1 0x4 MSTORE PUSH1 0x24 PUSH0 REVERT JUMPDEST PUSH0 PUSH1 0x2 DUP3 DIV SWAP1 POP PUSH1 0x1 DUP3 AND DUP1 PUSH2 0x1540 JUMPI PUSH1 0x7F DUP3 AND SWAP2 POP JUMPDEST PUSH1 0x20 DUP3 LT DUP2 SUB PUSH2 0x1553 JUMPI PUSH2 0x1552 PUSH2 0x14FC JUMP JUMPDEST JUMPDEST POP SWAP2 SWAP1 POP JUMP JUMPDEST PUSH32 0x4E487B7100000000000000000000000000000000000000000000000000000000 PUSH0 MSTORE PUSH1 0x11 PUSH1 0x4 MSTORE PUSH1 0x24 PUSH0 REVERT JUMPDEST PUSH0 PUSH2 0x1590 DUP3 PUSH2 0xF12 JUMP JUMPDEST SWAP2 POP PUSH2 0x159B DUP4 PUSH2 0xF12 JUMP JUMPDEST SWAP3 POP DUP3 DUP3 SUB SWAP1 POP DUP2 DUP2 GT ISZERO PUSH2 0x15B3 JUMPI PUSH2 0x15B2 PUSH2 0x1559 JUMP JUMPDEST JUMPDEST SWAP3 SWAP2 POP POP JUMP JUMPDEST PUSH32 0x4E487B7100000000000000000000000000000000000000000000000000000000 PUSH0 MSTORE PUSH1 0x32 PUSH1 0x4 MSTORE PUSH1 0x24 PUSH0 REVERT JUMPDEST PUSH0 PUSH2 0x15F0 DUP3 PUSH2 0xF12 JUMP JUMPDEST SWAP2 POP PUSH32 0xFFFFFFFFFFFFFFFFFFFFFFFFFFFFFFFFFFFFFFFFFFFFFFFFFFFFFFFFFFFFFFFF DUP3 SUB PUSH2 0x1622 JUMPI PUSH2 0x1621 PUSH2 0x1559 JUMP JUMPDEST JUMPDEST PUSH1 0x1 DUP3 ADD SWAP1 POP SWAP2 SWAP1 POP JUMP JUMPDEST PUSH0 DUP2 SWAP1 POP DUP2 PUSH0 MSTORE PUSH1 0x20 PUSH0 KECCAK256 SWAP1 POP SWAP2 SWAP1 POP JUMP JUMPDEST PUSH0 PUSH1 0x20 PUSH1 0x1F DUP4 ADD DIV SWAP1 POP SWAP2 SWAP1 POP JUMP JUMPDEST PUSH0 DUP3 DUP3 SHL SWAP1 POP SWAP3 SWAP2 POP POP JUMP JUMPDEST PUSH0 PUSH1 0x8 DUP4 MUL PUSH2 0x1689 PUSH32 0xFFFFFFFFFFFFFFFFFFFFFFFFFFFFFFFFFFFFFFFFFFFFFFFFFFFFFFFFFFFFFFFF DUP3 PUSH2 0x164E JUMP JUMPDEST PUSH2 0x1693 DUP7 DUP4 PUSH2 0x164E JUMP JUMPDEST SWAP6 POP DUP1 NOT DUP5 AND SWAP4 POP DUP1 DUP7 AND DUP5 OR SWAP3 POP POP POP SWAP4 SWAP3 POP POP POP JUMP JUMPDEST PUSH0 DUP2 SWAP1 POP SWAP2 SWAP1 POP JUMP JUMPDEST PUSH0 PUSH2 0x16CE PUSH2 0x16C9 PUSH2 0x16C4 DUP5 PUSH2 0xF12 JUMP JUMPDEST PUSH2 0x16AB JUMP JUMPDEST PUSH2 0xF12 JUMP JUMPDEST SWAP1 POP SWAP2 SWAP1 POP JUMP JUMPDEST PUSH0 DUP2 SWAP1 POP SWAP2 SWAP1 POP JUMP JUMPDEST PUSH2 0x16E7 DUP4 PUSH2 0x16B4 JUMP JUMPDEST PUSH2 0x16FB PUSH2 0x16F3 DUP3 PUSH2 0x16D5 JUMP JUMPDEST DUP5 DUP5 SLOAD PUSH2 0x165A JUMP JUMPDEST DUP3 SSTORE POP POP POP POP JUMP JUMPDEST PUSH0 SWAP1 JUMP JUMPDEST PUSH2 0x170F PUSH2 0x1703 JUMP JUMPDEST PUSH2 0x171A DUP2 DUP5 DUP5 PUSH2 0x16DE JUMP JUMPDEST POP POP POP JUMP JUMPDEST JUMPDEST DUP2 DUP2 LT ISZERO PUSH2 0x173D JUMPI PUSH2 0x1732 PUSH0 DUP3 PUSH2 0x1707 JUMP JUMPDEST PUSH1 0x1 DUP2 ADD SWAP1 POP PUSH2 0x1720 JUMP JUMPDEST POP POP JUMP JUMPDEST PUSH1 0x1F DUP3 GT ISZERO PUSH2 0x1782 JUMPI PUSH2 0x1753 DUP2 PUSH2 0x162D JUMP JUMPDEST PUSH2 0x175C DUP5 PUSH2 0x163F JUMP JUMPDEST DUP2 ADD PUSH1 0x20 DUP6 LT ISZERO PUSH2 0x176B JUMPI DUP2 SWAP1 POP JUMPDEST PUSH2 0x177F PUSH2 0x1777 DUP6 PUSH2 0x163F JUMP JUMPDEST DUP4 ADD DUP3 PUSH2 0x171F JUMP JUMPDEST POP POP JUMPDEST POP POP POP JUMP JUMPDEST PUSH0 DUP3 DUP3 SHR SWAP1 POP SWAP3 SWAP2 POP POP JUMP JUMPDEST PUSH0 PUSH2 0x17A2 PUSH0 NOT DUP5 PUSH1 0x8 MUL PUSH2 0x1787 JUMP JUMPDEST NOT DUP1 DUP4 AND SWAP2 POP POP SWAP3 SWAP2 POP POP JUMP JUMPDEST PUSH0 PUSH2 0x17BA DUP4 DUP4 PUSH2 0x1793 JUMP JUMPDEST SWAP2 POP DUP3 PUSH1 0x2 MUL DUP3 OR SWAP1 POP SWAP3 SWAP2 POP POP JUMP JUMPDEST PUSH2 0x17D3 DUP3 PUSH2 0xFD0 JUMP JUMPDEST PUSH8 0xFFFFFFFFFFFFFFFF DUP2 GT ISZERO PUSH2 0x17EC JUMPI PUSH2 0x17EB PUSH2 0x11E7 JUMP JUMPDEST JUMPDEST PUSH2 0x17F6 DUP3 SLOAD PUSH2 0x1529 JUMP JUMPDEST PUSH2 0x1801 DUP3 DUP3 DUP6 PUSH2 0x1741 JUMP JUMPDEST PUSH0 PUSH1 0x20 SWAP1 POP PUSH1 0x1F DUP4 GT PUSH1 0x1 DUP2 EQ PUSH2 0x1832 JUMPI PUSH0 DUP5 ISZERO PUSH2 0x1820 JUMPI DUP3 DUP8 ADD MLOAD SWAP1 POP JUMPDEST PUSH2 0x182A DUP6 DUP3 PUSH2 0x17AF JUMP JUMPDEST DUP7 SSTORE POP PUSH2 0x1891 JUMP JUMPDEST PUSH1 0x1F NOT DUP5 AND PUSH2 0x1840 DUP7 PUSH2 0x162D JUMP JUMPDEST PUSH0 JUMPDEST DUP3 DUP2 LT ISZERO PUSH2 0x1867 JUMPI DUP5 DUP10 ADD MLOAD DUP3 SSTORE PUSH1 0x1 DUP3 ADD SWAP2 POP PUSH1 0x20 DUP6 ADD SWAP5 POP PUSH1 0x20 DUP2 ADD SWAP1 POP PUSH2 0x1842 JUMP JUMPDEST DUP7 DUP4 LT ISZERO PUSH2 0x1884 JUMPI DUP5 DUP10 ADD MLOAD PUSH2 0x1880 PUSH1 0x1F DUP10 AND DUP3 PUSH2 0x1793 JUMP JUMPDEST DUP4 SSTORE POP JUMPDEST PUSH1 0x1 PUSH1 0x2 DUP9 MUL ADD DUP9 SSTORE POP POP POP JUMPDEST POP POP POP POP POP POP JUMP JUMPDEST PUSH32 0x4F7264657220646F6573206E6F74206578697374000000000000000000000000 PUSH0 DUP3 ADD MSTORE POP JUMP JUMPDEST PUSH0 PUSH2 0x18CD PUSH1 0x14 DUP4 PUSH2 0x1365 JUMP JUMPDEST SWAP2 POP PUSH2 0x18D8 DUP3 PUSH2 0x1899 JUMP JUMPDEST PUSH1 0x20 DUP3 ADD SWAP1 POP SWAP2 SWAP1 POP JUMP JUMPDEST PUSH0 PUSH1 0x20 DUP3 ADD SWAP1 POP DUP2 DUP2 SUB PUSH0 DUP4 ADD MSTORE PUSH2 0x18FA DUP2 PUSH2 0x18C1 JUMP JUMPDEST SWAP1 POP SWAP2 SWAP1 POP JUMP JUMPDEST PUSH0 DUP2 SLOAD PUSH2 0x190D DUP2 PUSH2 0x1529 JUMP JUMPDEST PUSH2 0x1917 DUP2 DUP7 PUSH2 0x1365 JUMP JUMPDEST SWAP5 POP PUSH1 0x1 DUP3 AND PUSH0 DUP2 EQ PUSH2 0x1931 JUMPI PUSH1 0x1 DUP2 EQ PUSH2 0x1947 JUMPI PUSH2 0x1979 JUMP JUMPDEST PUSH1 0xFF NOT DUP4 AND DUP7 MSTORE DUP2 ISZERO ISZERO PUSH1 0x20 MUL DUP7 ADD SWAP4 POP PUSH2 0x1979 JUMP JUMPDEST PUSH2 0x1950 DUP6 PUSH2 0x162D JUMP JUMPDEST PUSH0 JUMPDEST DUP4 DUP2 LT ISZERO PUSH2 0x1971 JUMPI DUP2 SLOAD DUP2 DUP10 ADD MSTORE PUSH1 0x1 DUP3 ADD SWAP2 POP PUSH1 0x20 DUP2 ADD SWAP1 POP PUSH2 0x1952 JUMP JUMPDEST DUP1 DUP9 ADD SWAP6 POP POP POP JUMPDEST POP POP POP SWAP3 SWAP2 POP POP JUMP JUMPDEST PUSH0 PUSH1 0x80 DUP3 ADD SWAP1 POP PUSH2 0x1995 PUSH0 DUP4 ADD DUP8 PUSH2 0xF70 JUMP JUMPDEST DUP2 DUP2 SUB PUSH1 0x20 DUP4 ADD MSTORE PUSH2 0x19A7 DUP2 DUP7 PUSH2 0x1901 JUMP JUMPDEST SWAP1 POP PUSH2 0x19B6 PUSH1 0x40 DUP4 ADD DUP6 PUSH2 0xF70 JUMP JUMPDEST PUSH2 0x19C3 PUSH1 0x60 DUP4 ADD DUP5 PUSH2 0x13AD JUMP JUMPDEST SWAP6 SWAP5 POP POP POP POP POP JUMP INVALID LOG2 PUSH5 0x6970667358 0x22 SLT KECCAK256 0xBD CODECOPY SWAP16 PUSH24 0x76E60C101F97A0A86639BAF971B95302C041475167ED6F42 ADDRESS GT GT CHAINID PUSH5 0x736F6C6343 STOP ADDMOD AND STOP CALLER "
				},
				"gasEstimates": {
					"creation": {
						"codeDepositCost": "1331600",
						"executionCost": "infinite",
						"totalCost": "infinite"
					},
					"external": {
						"buyer()": "2572",
						"deliverOrder(uint256)": "infinite",
						"getAllOrders()": "infinite",
						"getShippableOrders()": "infinite",
						"orderCount()": "2470",
						"orders(uint256)": "infinite",
						"placeOrder(string,uint256)": "infinite",
						"seller()": "2509",
						"shipOrder(uint256)": "infinite"
					},
					"internal": {
						"updateOrderStatus(uint256,enum SupplyChainContract.OrderStatus)": "infinite"
					}
				},
				"methodIdentifiers": {
					"buyer()": "7150d8ae",
					"deliverOrder(uint256)": "ddff5e7d",
					"getAllOrders()": "7bea0d1c",
					"getShippableOrders()": "df340200",
					"orderCount()": "2453ffa8",
					"orders(uint256)": "a85c38ef",
					"placeOrder(string,uint256)": "a1b6e836",
					"seller()": "08551a53",
					"shipOrder(uint256)": "194c302c"
				}
			},
			"storageLayout": {
				"storage": [
					{
						"astId": 3,
						"contract": "Buyer-Seller.sol:SupplyChainContract",
						"label": "buyer",
						"offset": 0,
						"slot": "0",
						"type": "t_address"
					},
					{
						"astId": 5,
						"contract": "Buyer-Seller.sol:SupplyChainContract",
						"label": "seller",
						"offset": 0,
						"slot": "1",
						"type": "t_address"
					},
					{
						"astId": 24,
						"contract": "Buyer-Seller.sol:SupplyChainContract",
						"label": "orders",
						"offset": 0,
						"slot": "2",
						"type": "t_mapping(t_uint256,t_struct(Order)19_storage)"
					},
					{
						"astId": 26,
						"contract": "Buyer-Seller.sol:SupplyChainContract",
						"label": "orderCount",
						"offset": 0,
						"slot": "3",
						"type": "t_uint256"
					}
				],
				"types": {
					"t_address": {
						"encoding": "inplace",
						"label": "address",
						"numberOfBytes": "20"
					},
					"t_enum(OrderStatus)9": {
						"encoding": "inplace",
						"label": "enum SupplyChainContract.OrderStatus",
						"numberOfBytes": "1"
					},
					"t_mapping(t_uint256,t_struct(Order)19_storage)": {
						"encoding": "mapping",
						"key": "t_uint256",
						"label": "mapping(uint256 => struct SupplyChainContract.Order)",
						"numberOfBytes": "32",
						"value": "t_struct(Order)19_storage"
					},
					"t_string_storage": {
						"encoding": "bytes",
						"label": "string",
						"numberOfBytes": "32"
					},
					"t_struct(Order)19_storage": {
						"encoding": "inplace",
						"label": "struct SupplyChainContract.Order",
						"members": [
							{
								"astId": 11,
								"contract": "Buyer-Seller.sol:SupplyChainContract",
								"label": "orderId",
								"offset": 0,
								"slot": "0",
								"type": "t_uint256"
							},
							{
								"astId": 13,
								"contract": "Buyer-Seller.sol:SupplyChainContract",
								"label": "product",
								"offset": 0,
								"slot": "1",
								"type": "t_string_storage"
							},
							{
								"astId": 15,
								"contract": "Buyer-Seller.sol:SupplyChainContract",
								"label": "quantity",
								"offset": 0,
								"slot": "2",
								"type": "t_uint256"
							},
							{
								"astId": 18,
								"contract": "Buyer-Seller.sol:SupplyChainContract",
								"label": "status",
								"offset": 0,
								"slot": "3",
								"type": "t_enum(OrderStatus)9"
							}
						],
						"numberOfBytes": "128"
					},
					"t_uint256": {
						"encoding": "inplace",
						"label": "uint256",
						"numberOfBytes": "32"
					}
				}
			},
			"userdoc": {
				"kind": "user",
				"methods": {},
				"version": 1
			}
		}
	}
}