{
	"Twitter_3.sol": {
		"Twitter": {
			"abi": [
				{
					"inputs": [
						{
							"internalType": "string",
							"name": "_tweet",
							"type": "string"
						}
					],
					"name": "createTweet",
					"outputs": [],
					"stateMutability": "nonpayable",
					"type": "function"
				},
				{
					"inputs": [
						{
							"internalType": "address",
							"name": "_owner",
							"type": "address"
						}
					],
					"name": "getAllTweets",
					"outputs": [
						{
							"components": [
								{
									"internalType": "address",
									"name": "author",
									"type": "address"
								},
								{
									"internalType": "string",
									"name": "content",
									"type": "string"
								},
								{
									"internalType": "uint256",
									"name": "timestamp",
									"type": "uint256"
								},
								{
									"internalType": "uint256",
									"name": "likes",
									"type": "uint256"
								}
							],
							"internalType": "struct Twitter.Tweet[]",
							"name": "",
							"type": "tuple[]"
						}
					],
					"stateMutability": "view",
					"type": "function"
				},
				{
					"inputs": [
						{
							"internalType": "uint256",
							"name": "_i",
							"type": "uint256"
						}
					],
					"name": "getTweet",
					"outputs": [
						{
							"components": [
								{
									"internalType": "address",
									"name": "author",
									"type": "address"
								},
								{
									"internalType": "string",
									"name": "content",
									"type": "string"
								},
								{
									"internalType": "uint256",
									"name": "timestamp",
									"type": "uint256"
								},
								{
									"internalType": "uint256",
									"name": "likes",
									"type": "uint256"
								}
							],
							"internalType": "struct Twitter.Tweet",
							"name": "",
							"type": "tuple"
						}
					],
					"stateMutability": "view",
					"type": "function"
				},
				{
					"inputs": [
						{
							"internalType": "address",
							"name": "",
							"type": "address"
						},
						{
							"internalType": "uint256",
							"name": "",
							"type": "uint256"
						}
					],
					"name": "tweets",
					"outputs": [
						{
							"internalType": "address",
							"name": "author",
							"type": "address"
						},
						{
							"internalType": "string",
							"name": "content",
							"type": "string"
						},
						{
							"internalType": "uint256",
							"name": "timestamp",
							"type": "uint256"
						},
						{
							"internalType": "uint256",
							"name": "likes",
							"type": "uint256"
						}
					],
					"stateMutability": "view",
					"type": "function"
				}
			],
			"devdoc": {
				"kind": "dev",
				"methods": {},
				"version": 1
			},
			"evm": {
				"assembly": "    /* \"Twitter_3.sol\":139:1130  contract Twitter {... */\n  mstore(0x40, 0x80)\n  callvalue\n  dup1\n  iszero\n  tag_1\n  jumpi\n  0x00\n  dup1\n  revert\ntag_1:\n  pop\n  dataSize(sub_0)\n  dup1\n  dataOffset(sub_0)\n  0x00\n  codecopy\n  0x00\n  return\nstop\n\nsub_0: assembly {\n        /* \"Twitter_3.sol\":139:1130  contract Twitter {... */\n      mstore(0x40, 0x80)\n      callvalue\n      dup1\n      iszero\n      tag_1\n      jumpi\n      0x00\n      dup1\n      revert\n    tag_1:\n      pop\n      jumpi(tag_2, lt(calldatasize, 0x04))\n      shr(0xe0, calldataload(0x00))\n      dup1\n      0x05a1b4a9\n      eq\n      tag_3\n      jumpi\n      dup1\n      0x12e7ee1c\n      eq\n      tag_4\n      jumpi\n      dup1\n      0x7c9cd2bc\n      eq\n      tag_5\n      jumpi\n      dup1\n      0xc3ad5ecb\n      eq\n      tag_6\n      jumpi\n    tag_2:\n      0x00\n      dup1\n      revert\n        /* \"Twitter_3.sol\":368:409  mapping(address => Tweet[]) public tweets */\n    tag_3:\n      tag_7\n      0x04\n      dup1\n      calldatasize\n      sub\n      dup2\n      add\n      swap1\n      tag_8\n      swap2\n      swap1\n      tag_9\n      jump\t// in\n    tag_8:\n      tag_10\n      jump\t// in\n    tag_7:\n      mload(0x40)\n      tag_11\n      swap5\n      swap4\n      swap3\n      swap2\n      swap1\n      tag_12\n      jump\t// in\n    tag_11:\n      mload(0x40)\n      dup1\n      swap2\n      sub\n      swap1\n      return\n        /* \"Twitter_3.sol\":1012:1127  function getAllTweets(address _owner) public view returns (Tweet[] memory) {... */\n    tag_4:\n      tag_13\n      0x04\n      dup1\n      calldatasize\n      sub\n      dup2\n      add\n      swap1\n      tag_14\n      swap2\n      swap1\n      tag_15\n      jump\t// in\n    tag_14:\n      tag_16\n      jump\t// in\n    tag_13:\n      mload(0x40)\n      tag_17\n      swap2\n      swap1\n      tag_18\n      jump\t// in\n    tag_17:\n      mload(0x40)\n      dup1\n      swap2\n      sub\n      swap1\n      return\n        /* \"Twitter_3.sol\":418:882  function createTweet(string memory _tweet) public {... */\n    tag_5:\n      tag_19\n      0x04\n      dup1\n      calldatasize\n      sub\n      dup2\n      add\n      swap1\n      tag_20\n      swap2\n      swap1\n      tag_21\n      jump\t// in\n    tag_20:\n      tag_22\n      jump\t// in\n    tag_19:\n      stop\n        /* \"Twitter_3.sol\":890:1004  function getTweet( uint256 _i) public view returns (Tweet memory) {... */\n    tag_6:\n      tag_23\n      0x04\n      dup1\n      calldatasize\n      sub\n      dup2\n      add\n      swap1\n      tag_24\n      swap2\n      swap1\n      tag_25\n      jump\t// in\n    tag_24:\n      tag_26\n      jump\t// in\n    tag_23:\n      mload(0x40)\n      tag_27\n      swap2\n      swap1\n      tag_28\n      jump\t// in\n    tag_27:\n      mload(0x40)\n      dup1\n      swap2\n      sub\n      swap1\n      return\n        /* \"Twitter_3.sol\":368:409  mapping(address => Tweet[]) public tweets */\n    tag_10:\n      mstore(0x20, 0x00)\n      dup2\n      0x00\n      mstore\n      keccak256(0x00, 0x40)\n      dup2\n      dup2\n      sload\n      dup2\n      lt\n      tag_29\n      jumpi\n      0x00\n      dup1\n      revert\n    tag_29:\n      swap1\n      0x00\n      mstore\n      keccak256(0x00, 0x20)\n      swap1\n      0x04\n      mul\n      add\n      0x00\n      swap2\n      pop\n      swap2\n      pop\n      pop\n      dup1\n      0x00\n      add\n      0x00\n      swap1\n      sload\n      swap1\n      0x0100\n      exp\n      swap1\n      div\n      0xffffffffffffffffffffffffffffffffffffffff\n      and\n      swap1\n      dup1\n      0x01\n      add\n      dup1\n      sload\n      tag_31\n      swap1\n      tag_32\n      jump\t// in\n    tag_31:\n      dup1\n      0x1f\n      add\n      0x20\n      dup1\n      swap2\n      div\n      mul\n      0x20\n      add\n      mload(0x40)\n      swap1\n      dup2\n      add\n      0x40\n      mstore\n      dup1\n      swap3\n      swap2\n      swap1\n      dup2\n      dup2\n      mstore\n      0x20\n      add\n      dup3\n      dup1\n      sload\n      tag_33\n      swap1\n      tag_32\n      jump\t// in\n    tag_33:\n      dup1\n      iszero\n      tag_34\n      jumpi\n      dup1\n      0x1f\n      lt\n      tag_35\n      jumpi\n      0x0100\n      dup1\n      dup4\n      sload\n      div\n      mul\n      dup4\n      mstore\n      swap2\n      0x20\n      add\n      swap2\n      jump(tag_34)\n    tag_35:\n      dup3\n      add\n      swap2\n      swap1\n      0x00\n      mstore\n      keccak256(0x00, 0x20)\n      swap1\n    tag_36:\n      dup2\n      sload\n      dup2\n      mstore\n      swap1\n      0x01\n      add\n      swap1\n      0x20\n      add\n      dup1\n      dup4\n      gt\n      tag_36\n      jumpi\n      dup3\n      swap1\n      sub\n      0x1f\n      and\n      dup3\n      add\n      swap2\n    tag_34:\n      pop\n      pop\n      pop\n      pop\n      pop\n      swap1\n      dup1\n      0x02\n      add\n      sload\n      swap1\n      dup1\n      0x03\n      add\n      sload\n      swap1\n      pop\n      dup5\n      jump\t// out\n        /* \"Twitter_3.sol\":1012:1127  function getAllTweets(address _owner) public view returns (Tweet[] memory) {... */\n    tag_16:\n        /* \"Twitter_3.sol\":1071:1085  Tweet[] memory */\n      0x60\n        /* \"Twitter_3.sol\":1105:1111  tweets */\n      0x00\n        /* \"Twitter_3.sol\":1105:1119  tweets[_owner] */\n      dup1\n        /* \"Twitter_3.sol\":1112:1118  _owner */\n      dup4\n        /* \"Twitter_3.sol\":1105:1119  tweets[_owner] */\n      0xffffffffffffffffffffffffffffffffffffffff\n      and\n      0xffffffffffffffffffffffffffffffffffffffff\n      and\n      dup2\n      mstore\n      0x20\n      add\n      swap1\n      dup2\n      mstore\n      0x20\n      add\n      0x00\n      keccak256\n        /* \"Twitter_3.sol\":1098:1119  return tweets[_owner] */\n      dup1\n      sload\n      dup1\n      0x20\n      mul\n      0x20\n      add\n      mload(0x40)\n      swap1\n      dup2\n      add\n      0x40\n      mstore\n      dup1\n      swap3\n      swap2\n      swap1\n      dup2\n      dup2\n      mstore\n      0x20\n      add\n      0x00\n      swap1\n    tag_38:\n      dup3\n      dup3\n      lt\n      iszero\n      tag_39\n      jumpi\n      dup4\n      dup3\n      swap1\n      0x00\n      mstore\n      keccak256(0x00, 0x20)\n      swap1\n      0x04\n      mul\n      add\n      mload(0x40)\n      dup1\n      0x80\n      add\n      0x40\n      mstore\n      swap1\n      dup2\n      0x00\n      dup3\n      add\n      0x00\n      swap1\n      sload\n      swap1\n      0x0100\n      exp\n      swap1\n      div\n      0xffffffffffffffffffffffffffffffffffffffff\n      and\n      0xffffffffffffffffffffffffffffffffffffffff\n      and\n      0xffffffffffffffffffffffffffffffffffffffff\n      and\n      dup2\n      mstore\n      0x20\n      add\n      0x01\n      dup3\n      add\n      dup1\n      sload\n      tag_41\n      swap1\n      tag_32\n      jump\t// in\n    tag_41:\n      dup1\n      0x1f\n      add\n      0x20\n      dup1\n      swap2\n      div\n      mul\n      0x20\n      add\n      mload(0x40)\n      swap1\n      dup2\n      add\n      0x40\n      mstore\n      dup1\n      swap3\n      swap2\n      swap1\n      dup2\n      dup2\n      mstore\n      0x20\n      add\n      dup3\n      dup1\n      sload\n      tag_42\n      swap1\n      tag_32\n      jump\t// in\n    tag_42:\n      dup1\n      iszero\n      tag_43\n      jumpi\n      dup1\n      0x1f\n      lt\n      tag_44\n      jumpi\n      0x0100\n      dup1\n      dup4\n      sload\n      div\n      mul\n      dup4\n      mstore\n      swap2\n      0x20\n      add\n      swap2\n      jump(tag_43)\n    tag_44:\n      dup3\n      add\n      swap2\n      swap1\n      0x00\n      mstore\n      keccak256(0x00, 0x20)\n      swap1\n    tag_45:\n      dup2\n      sload\n      dup2\n      mstore\n      swap1\n      0x01\n      add\n      swap1\n      0x20\n      add\n      dup1\n      dup4\n      gt\n      tag_45\n      jumpi\n      dup3\n      swap1\n      sub\n      0x1f\n      and\n      dup3\n      add\n      swap2\n    tag_43:\n      pop\n      pop\n      pop\n      pop\n      pop\n      dup2\n      mstore\n      0x20\n      add\n      0x02\n      dup3\n      add\n      sload\n      dup2\n      mstore\n      0x20\n      add\n      0x03\n      dup3\n      add\n      sload\n      dup2\n      mstore\n      pop\n      pop\n      dup2\n      mstore\n      0x20\n      add\n      swap1\n      0x01\n      add\n      swap1\n      jump(tag_38)\n    tag_39:\n      pop\n      pop\n      pop\n      pop\n      swap1\n      pop\n        /* \"Twitter_3.sol\":1012:1127  function getAllTweets(address _owner) public view returns (Tweet[] memory) {... */\n      swap2\n      swap1\n      pop\n      jump\t// out\n        /* \"Twitter_3.sol\":418:882  function createTweet(string memory _tweet) public {... */\n    tag_22:\n        /* \"Twitter_3.sol\":199:202  280 */\n      0x0118\n        /* \"Twitter_3.sol\":582:620  bytes(_tweet).length<=MAX_TWEET_LENGTH */\n      0xffff\n      and\n        /* \"Twitter_3.sol\":588:594  _tweet */\n      dup2\n        /* \"Twitter_3.sol\":582:602  bytes(_tweet).length */\n      mload\n        /* \"Twitter_3.sol\":582:620  bytes(_tweet).length<=MAX_TWEET_LENGTH */\n      gt\n      iszero\n        /* \"Twitter_3.sol\":574:648  require(bytes(_tweet).length<=MAX_TWEET_LENGTH, \"Tweet is too long bro!!\") */\n      tag_47\n      jumpi\n      mload(0x40)\n      0x08c379a000000000000000000000000000000000000000000000000000000000\n      dup2\n      mstore\n      0x04\n      add\n      tag_48\n      swap1\n      tag_49\n      jump\t// in\n    tag_48:\n      mload(0x40)\n      dup1\n      swap2\n      sub\n      swap1\n      revert\n    tag_47:\n        /* \"Twitter_3.sol\":659:680  Tweet memory newTweet */\n      0x00\n        /* \"Twitter_3.sol\":683:828  Tweet({... */\n      mload(0x40)\n      dup1\n      0x80\n      add\n      0x40\n      mstore\n      dup1\n        /* \"Twitter_3.sol\":712:722  msg.sender */\n      caller\n        /* \"Twitter_3.sol\":683:828  Tweet({... */\n      0xffffffffffffffffffffffffffffffffffffffff\n      and\n      dup2\n      mstore\n      0x20\n      add\n        /* \"Twitter_3.sol\":746:752  _tweet */\n      dup4\n        /* \"Twitter_3.sol\":683:828  Tweet({... */\n      dup2\n      mstore\n      0x20\n      add\n        /* \"Twitter_3.sol\":778:793  block.timestamp */\n      timestamp\n        /* \"Twitter_3.sol\":683:828  Tweet({... */\n      dup2\n      mstore\n      0x20\n      add\n        /* \"Twitter_3.sol\":815:816  0 */\n      0x00\n        /* \"Twitter_3.sol\":683:828  Tweet({... */\n      dup2\n      mstore\n      pop\n        /* \"Twitter_3.sol\":659:828  Tweet memory newTweet = Tweet({... */\n      swap1\n      pop\n        /* \"Twitter_3.sol\":841:847  tweets */\n      0x00\n        /* \"Twitter_3.sol\":841:859  tweets[msg.sender] */\n      dup1\n        /* \"Twitter_3.sol\":848:858  msg.sender */\n      caller\n        /* \"Twitter_3.sol\":841:859  tweets[msg.sender] */\n      0xffffffffffffffffffffffffffffffffffffffff\n      and\n      0xffffffffffffffffffffffffffffffffffffffff\n      and\n      dup2\n      mstore\n      0x20\n      add\n      swap1\n      dup2\n      mstore\n      0x20\n      add\n      0x00\n      keccak256\n        /* \"Twitter_3.sol\":865:873  newTweet */\n      dup2\n        /* \"Twitter_3.sol\":841:874  tweets[msg.sender].push(newTweet) */\n      swap1\n      dup1\n      0x01\n      dup2\n      sload\n      add\n      dup1\n      dup3\n      sstore\n      dup1\n      swap2\n      pop\n      pop\n      0x01\n      swap1\n      sub\n      swap1\n      0x00\n      mstore\n      keccak256(0x00, 0x20)\n      swap1\n      0x04\n      mul\n      add\n      0x00\n      swap1\n      swap2\n      swap1\n      swap2\n      swap1\n      swap2\n      pop\n      0x00\n      dup3\n      add\n      mload\n      dup2\n      0x00\n      add\n      exp(0x0100, 0x00)\n      dup2\n      sload\n      dup2\n      0xffffffffffffffffffffffffffffffffffffffff\n      mul\n      not\n      and\n      swap1\n      dup4\n      0xffffffffffffffffffffffffffffffffffffffff\n      and\n      mul\n      or\n      swap1\n      sstore\n      pop\n      0x20\n      dup3\n      add\n      mload\n      dup2\n      0x01\n      add\n      swap1\n      dup2\n      tag_51\n      swap2\n      swap1\n      tag_52\n      jump\t// in\n    tag_51:\n      pop\n      0x40\n      dup3\n      add\n      mload\n      dup2\n      0x02\n      add\n      sstore\n      0x60\n      dup3\n      add\n      mload\n      dup2\n      0x03\n      add\n      sstore\n      pop\n      pop\n        /* \"Twitter_3.sol\":468:882  {... */\n      pop\n        /* \"Twitter_3.sol\":418:882  function createTweet(string memory _tweet) public {... */\n      pop\n      jump\t// out\n        /* \"Twitter_3.sol\":890:1004  function getTweet( uint256 _i) public view returns (Tweet memory) {... */\n    tag_26:\n        /* \"Twitter_3.sol\":942:954  Tweet memory */\n      tag_53\n      tag_54\n      jump\t// in\n    tag_53:\n        /* \"Twitter_3.sol\":974:980  tweets */\n      0x00\n        /* \"Twitter_3.sol\":974:992  tweets[msg.sender] */\n      dup1\n        /* \"Twitter_3.sol\":981:991  msg.sender */\n      caller\n        /* \"Twitter_3.sol\":974:992  tweets[msg.sender] */\n      0xffffffffffffffffffffffffffffffffffffffff\n      and\n      0xffffffffffffffffffffffffffffffffffffffff\n      and\n      dup2\n      mstore\n      0x20\n      add\n      swap1\n      dup2\n      mstore\n      0x20\n      add\n      0x00\n      keccak256\n        /* \"Twitter_3.sol\":993:995  _i */\n      dup3\n        /* \"Twitter_3.sol\":974:996  tweets[msg.sender][_i] */\n      dup2\n      sload\n      dup2\n      lt\n      tag_56\n      jumpi\n      tag_57\n      tag_58\n      jump\t// in\n    tag_57:\n    tag_56:\n      swap1\n      0x00\n      mstore\n      keccak256(0x00, 0x20)\n      swap1\n      0x04\n      mul\n      add\n        /* \"Twitter_3.sol\":967:996  return tweets[msg.sender][_i] */\n      mload(0x40)\n      dup1\n      0x80\n      add\n      0x40\n      mstore\n      swap1\n      dup2\n      0x00\n      dup3\n      add\n      0x00\n      swap1\n      sload\n      swap1\n      0x0100\n      exp\n      swap1\n      div\n      0xffffffffffffffffffffffffffffffffffffffff\n      and\n      0xffffffffffffffffffffffffffffffffffffffff\n      and\n      0xffffffffffffffffffffffffffffffffffffffff\n      and\n      dup2\n      mstore\n      0x20\n      add\n      0x01\n      dup3\n      add\n      dup1\n      sload\n      tag_60\n      swap1\n      tag_32\n      jump\t// in\n    tag_60:\n      dup1\n      0x1f\n      add\n      0x20\n      dup1\n      swap2\n      div\n      mul\n      0x20\n      add\n      mload(0x40)\n      swap1\n      dup2\n      add\n      0x40\n      mstore\n      dup1\n      swap3\n      swap2\n      swap1\n      dup2\n      dup2\n      mstore\n      0x20\n      add\n      dup3\n      dup1\n      sload\n      tag_61\n      swap1\n      tag_32\n      jump\t// in\n    tag_61:\n      dup1\n      iszero\n      tag_62\n      jumpi\n      dup1\n      0x1f\n      lt\n      tag_63\n      jumpi\n      0x0100\n      dup1\n      dup4\n      sload\n      div\n      mul\n      dup4\n      mstore\n      swap2\n      0x20\n      add\n      swap2\n      jump(tag_62)\n    tag_63:\n      dup3\n      add\n      swap2\n      swap1\n      0x00\n      mstore\n      keccak256(0x00, 0x20)\n      swap1\n    tag_64:\n      dup2\n      sload\n      dup2\n      mstore\n      swap1\n      0x01\n      add\n      swap1\n      0x20\n      add\n      dup1\n      dup4\n      gt\n      tag_64\n      jumpi\n      dup3\n      swap1\n      sub\n      0x1f\n      and\n      dup3\n      add\n      swap2\n    tag_62:\n      pop\n      pop\n      pop\n      pop\n      pop\n      dup2\n      mstore\n      0x20\n      add\n      0x02\n      dup3\n      add\n      sload\n      dup2\n      mstore\n      0x20\n      add\n      0x03\n      dup3\n      add\n      sload\n      dup2\n      mstore\n      pop\n      pop\n      swap1\n      pop\n        /* \"Twitter_3.sol\":890:1004  function getTweet( uint256 _i) public view returns (Tweet memory) {... */\n      swap2\n      swap1\n      pop\n      jump\t// out\n    tag_54:\n      mload(0x40)\n      dup1\n      0x80\n      add\n      0x40\n      mstore\n      dup1\n      and(0xffffffffffffffffffffffffffffffffffffffff, 0x00)\n      dup2\n      mstore\n      0x20\n      add\n      0x60\n      dup2\n      mstore\n      0x20\n      add\n      0x00\n      dup2\n      mstore\n      0x20\n      add\n      0x00\n      dup2\n      mstore\n      pop\n      swap1\n      jump\t// out\n        /* \"#utility.yul\":7:82   */\n    tag_65:\n        /* \"#utility.yul\":40:46   */\n      0x00\n        /* \"#utility.yul\":73:75   */\n      0x40\n        /* \"#utility.yul\":67:76   */\n      mload\n        /* \"#utility.yul\":57:76   */\n      swap1\n      pop\n        /* \"#utility.yul\":7:82   */\n      swap1\n      jump\t// out\n        /* \"#utility.yul\":88:205   */\n    tag_66:\n        /* \"#utility.yul\":197:198   */\n      0x00\n        /* \"#utility.yul\":194:195   */\n      dup1\n        /* \"#utility.yul\":187:199   */\n      revert\n        /* \"#utility.yul\":211:328   */\n    tag_67:\n        /* \"#utility.yul\":320:321   */\n      0x00\n        /* \"#utility.yul\":317:318   */\n      dup1\n        /* \"#utility.yul\":310:322   */\n      revert\n        /* \"#utility.yul\":334:460   */\n    tag_68:\n        /* \"#utility.yul\":371:378   */\n      0x00\n        /* \"#utility.yul\":411:453   */\n      0xffffffffffffffffffffffffffffffffffffffff\n        /* \"#utility.yul\":404:409   */\n      dup3\n        /* \"#utility.yul\":400:454   */\n      and\n        /* \"#utility.yul\":389:454   */\n      swap1\n      pop\n        /* \"#utility.yul\":334:460   */\n      swap2\n      swap1\n      pop\n      jump\t// out\n        /* \"#utility.yul\":466:562   */\n    tag_69:\n        /* \"#utility.yul\":503:510   */\n      0x00\n        /* \"#utility.yul\":532:556   */\n      tag_127\n        /* \"#utility.yul\":550:555   */\n      dup3\n        /* \"#utility.yul\":532:556   */\n      tag_68\n      jump\t// in\n    tag_127:\n        /* \"#utility.yul\":521:556   */\n      swap1\n      pop\n        /* \"#utility.yul\":466:562   */\n      swap2\n      swap1\n      pop\n      jump\t// out\n        /* \"#utility.yul\":568:690   */\n    tag_70:\n        /* \"#utility.yul\":641:665   */\n      tag_129\n        /* \"#utility.yul\":659:664   */\n      dup2\n        /* \"#utility.yul\":641:665   */\n      tag_69\n      jump\t// in\n    tag_129:\n        /* \"#utility.yul\":634:639   */\n      dup2\n        /* \"#utility.yul\":631:666   */\n      eq\n        /* \"#utility.yul\":621:684   */\n      tag_130\n      jumpi\n        /* \"#utility.yul\":680:681   */\n      0x00\n        /* \"#utility.yul\":677:678   */\n      dup1\n        /* \"#utility.yul\":670:682   */\n      revert\n        /* \"#utility.yul\":621:684   */\n    tag_130:\n        /* \"#utility.yul\":568:690   */\n      pop\n      jump\t// out\n        /* \"#utility.yul\":696:835   */\n    tag_71:\n        /* \"#utility.yul\":742:747   */\n      0x00\n        /* \"#utility.yul\":780:786   */\n      dup2\n        /* \"#utility.yul\":767:787   */\n      calldataload\n        /* \"#utility.yul\":758:787   */\n      swap1\n      pop\n        /* \"#utility.yul\":796:829   */\n      tag_132\n        /* \"#utility.yul\":823:828   */\n      dup2\n        /* \"#utility.yul\":796:829   */\n      tag_70\n      jump\t// in\n    tag_132:\n        /* \"#utility.yul\":696:835   */\n      swap3\n      swap2\n      pop\n      pop\n      jump\t// out\n        /* \"#utility.yul\":841:918   */\n    tag_72:\n        /* \"#utility.yul\":878:885   */\n      0x00\n        /* \"#utility.yul\":907:912   */\n      dup2\n        /* \"#utility.yul\":896:912   */\n      swap1\n      pop\n        /* \"#utility.yul\":841:918   */\n      swap2\n      swap1\n      pop\n      jump\t// out\n        /* \"#utility.yul\":924:1046   */\n    tag_73:\n        /* \"#utility.yul\":997:1021   */\n      tag_135\n        /* \"#utility.yul\":1015:1020   */\n      dup2\n        /* \"#utility.yul\":997:1021   */\n      tag_72\n      jump\t// in\n    tag_135:\n        /* \"#utility.yul\":990:995   */\n      dup2\n        /* \"#utility.yul\":987:1022   */\n      eq\n        /* \"#utility.yul\":977:1040   */\n      tag_136\n      jumpi\n        /* \"#utility.yul\":1036:1037   */\n      0x00\n        /* \"#utility.yul\":1033:1034   */\n      dup1\n        /* \"#utility.yul\":1026:1038   */\n      revert\n        /* \"#utility.yul\":977:1040   */\n    tag_136:\n        /* \"#utility.yul\":924:1046   */\n      pop\n      jump\t// out\n        /* \"#utility.yul\":1052:1191   */\n    tag_74:\n        /* \"#utility.yul\":1098:1103   */\n      0x00\n        /* \"#utility.yul\":1136:1142   */\n      dup2\n        /* \"#utility.yul\":1123:1143   */\n      calldataload\n        /* \"#utility.yul\":1114:1143   */\n      swap1\n      pop\n        /* \"#utility.yul\":1152:1185   */\n      tag_138\n        /* \"#utility.yul\":1179:1184   */\n      dup2\n        /* \"#utility.yul\":1152:1185   */\n      tag_73\n      jump\t// in\n    tag_138:\n        /* \"#utility.yul\":1052:1191   */\n      swap3\n      swap2\n      pop\n      pop\n      jump\t// out\n        /* \"#utility.yul\":1197:1671   */\n    tag_9:\n        /* \"#utility.yul\":1265:1271   */\n      0x00\n        /* \"#utility.yul\":1273:1279   */\n      dup1\n        /* \"#utility.yul\":1322:1324   */\n      0x40\n        /* \"#utility.yul\":1310:1319   */\n      dup4\n        /* \"#utility.yul\":1301:1308   */\n      dup6\n        /* \"#utility.yul\":1297:1320   */\n      sub\n        /* \"#utility.yul\":1293:1325   */\n      slt\n        /* \"#utility.yul\":1290:1409   */\n      iszero\n      tag_140\n      jumpi\n        /* \"#utility.yul\":1328:1407   */\n      tag_141\n      tag_66\n      jump\t// in\n    tag_141:\n        /* \"#utility.yul\":1290:1409   */\n    tag_140:\n        /* \"#utility.yul\":1448:1449   */\n      0x00\n        /* \"#utility.yul\":1473:1526   */\n      tag_142\n        /* \"#utility.yul\":1518:1525   */\n      dup6\n        /* \"#utility.yul\":1509:1515   */\n      dup3\n        /* \"#utility.yul\":1498:1507   */\n      dup7\n        /* \"#utility.yul\":1494:1516   */\n      add\n        /* \"#utility.yul\":1473:1526   */\n      tag_71\n      jump\t// in\n    tag_142:\n        /* \"#utility.yul\":1463:1526   */\n      swap3\n      pop\n        /* \"#utility.yul\":1419:1536   */\n      pop\n        /* \"#utility.yul\":1575:1577   */\n      0x20\n        /* \"#utility.yul\":1601:1654   */\n      tag_143\n        /* \"#utility.yul\":1646:1653   */\n      dup6\n        /* \"#utility.yul\":1637:1643   */\n      dup3\n        /* \"#utility.yul\":1626:1635   */\n      dup7\n        /* \"#utility.yul\":1622:1644   */\n      add\n        /* \"#utility.yul\":1601:1654   */\n      tag_74\n      jump\t// in\n    tag_143:\n        /* \"#utility.yul\":1591:1654   */\n      swap2\n      pop\n        /* \"#utility.yul\":1546:1664   */\n      pop\n        /* \"#utility.yul\":1197:1671   */\n      swap3\n      pop\n      swap3\n      swap1\n      pop\n      jump\t// out\n        /* \"#utility.yul\":1677:1795   */\n    tag_75:\n        /* \"#utility.yul\":1764:1788   */\n      tag_145\n        /* \"#utility.yul\":1782:1787   */\n      dup2\n        /* \"#utility.yul\":1764:1788   */\n      tag_69\n      jump\t// in\n    tag_145:\n        /* \"#utility.yul\":1759:1762   */\n      dup3\n        /* \"#utility.yul\":1752:1789   */\n      mstore\n        /* \"#utility.yul\":1677:1795   */\n      pop\n      pop\n      jump\t// out\n        /* \"#utility.yul\":1801:1900   */\n    tag_76:\n        /* \"#utility.yul\":1853:1859   */\n      0x00\n        /* \"#utility.yul\":1887:1892   */\n      dup2\n        /* \"#utility.yul\":1881:1893   */\n      mload\n        /* \"#utility.yul\":1871:1893   */\n      swap1\n      pop\n        /* \"#utility.yul\":1801:1900   */\n      swap2\n      swap1\n      pop\n      jump\t// out\n        /* \"#utility.yul\":1906:2075   */\n    tag_77:\n        /* \"#utility.yul\":1990:2001   */\n      0x00\n        /* \"#utility.yul\":2024:2030   */\n      dup3\n        /* \"#utility.yul\":2019:2022   */\n      dup3\n        /* \"#utility.yul\":2012:2031   */\n      mstore\n        /* \"#utility.yul\":2064:2068   */\n      0x20\n        /* \"#utility.yul\":2059:2062   */\n      dup3\n        /* \"#utility.yul\":2055:2069   */\n      add\n        /* \"#utility.yul\":2040:2069   */\n      swap1\n      pop\n        /* \"#utility.yul\":1906:2075   */\n      swap3\n      swap2\n      pop\n      pop\n      jump\t// out\n        /* \"#utility.yul\":2081:2327   */\n    tag_78:\n        /* \"#utility.yul\":2162:2163   */\n      0x00\n        /* \"#utility.yul\":2172:2285   */\n    tag_149:\n        /* \"#utility.yul\":2186:2192   */\n      dup4\n        /* \"#utility.yul\":2183:2184   */\n      dup2\n        /* \"#utility.yul\":2180:2193   */\n      lt\n        /* \"#utility.yul\":2172:2285   */\n      iszero\n      tag_151\n      jumpi\n        /* \"#utility.yul\":2271:2272   */\n      dup1\n        /* \"#utility.yul\":2266:2269   */\n      dup3\n        /* \"#utility.yul\":2262:2273   */\n      add\n        /* \"#utility.yul\":2256:2274   */\n      mload\n        /* \"#utility.yul\":2252:2253   */\n      dup2\n        /* \"#utility.yul\":2247:2250   */\n      dup5\n        /* \"#utility.yul\":2243:2254   */\n      add\n        /* \"#utility.yul\":2236:2275   */\n      mstore\n        /* \"#utility.yul\":2208:2210   */\n      0x20\n        /* \"#utility.yul\":2205:2206   */\n      dup2\n        /* \"#utility.yul\":2201:2211   */\n      add\n        /* \"#utility.yul\":2196:2211   */\n      swap1\n      pop\n        /* \"#utility.yul\":2172:2285   */\n      jump(tag_149)\n    tag_151:\n        /* \"#utility.yul\":2319:2320   */\n      0x00\n        /* \"#utility.yul\":2310:2316   */\n      dup5\n        /* \"#utility.yul\":2305:2308   */\n      dup5\n        /* \"#utility.yul\":2301:2317   */\n      add\n        /* \"#utility.yul\":2294:2321   */\n      mstore\n        /* \"#utility.yul\":2143:2327   */\n      pop\n        /* \"#utility.yul\":2081:2327   */\n      pop\n      pop\n      pop\n      jump\t// out\n        /* \"#utility.yul\":2333:2435   */\n    tag_79:\n        /* \"#utility.yul\":2374:2380   */\n      0x00\n        /* \"#utility.yul\":2425:2427   */\n      0x1f\n        /* \"#utility.yul\":2421:2428   */\n      not\n        /* \"#utility.yul\":2416:2418   */\n      0x1f\n        /* \"#utility.yul\":2409:2414   */\n      dup4\n        /* \"#utility.yul\":2405:2419   */\n      add\n        /* \"#utility.yul\":2401:2429   */\n      and\n        /* \"#utility.yul\":2391:2429   */\n      swap1\n      pop\n        /* \"#utility.yul\":2333:2435   */\n      swap2\n      swap1\n      pop\n      jump\t// out\n        /* \"#utility.yul\":2441:2818   */\n    tag_80:\n        /* \"#utility.yul\":2529:2532   */\n      0x00\n        /* \"#utility.yul\":2557:2596   */\n      tag_154\n        /* \"#utility.yul\":2590:2595   */\n      dup3\n        /* \"#utility.yul\":2557:2596   */\n      tag_76\n      jump\t// in\n    tag_154:\n        /* \"#utility.yul\":2612:2683   */\n      tag_155\n        /* \"#utility.yul\":2676:2682   */\n      dup2\n        /* \"#utility.yul\":2671:2674   */\n      dup6\n        /* \"#utility.yul\":2612:2683   */\n      tag_77\n      jump\t// in\n    tag_155:\n        /* \"#utility.yul\":2605:2683   */\n      swap4\n      pop\n        /* \"#utility.yul\":2692:2757   */\n      tag_156\n        /* \"#utility.yul\":2750:2756   */\n      dup2\n        /* \"#utility.yul\":2745:2748   */\n      dup6\n        /* \"#utility.yul\":2738:2742   */\n      0x20\n        /* \"#utility.yul\":2731:2736   */\n      dup7\n        /* \"#utility.yul\":2727:2743   */\n      add\n        /* \"#utility.yul\":2692:2757   */\n      tag_78\n      jump\t// in\n    tag_156:\n        /* \"#utility.yul\":2782:2811   */\n      tag_157\n        /* \"#utility.yul\":2804:2810   */\n      dup2\n        /* \"#utility.yul\":2782:2811   */\n      tag_79\n      jump\t// in\n    tag_157:\n        /* \"#utility.yul\":2777:2780   */\n      dup5\n        /* \"#utility.yul\":2773:2812   */\n      add\n        /* \"#utility.yul\":2766:2812   */\n      swap2\n      pop\n        /* \"#utility.yul\":2533:2818   */\n      pop\n        /* \"#utility.yul\":2441:2818   */\n      swap3\n      swap2\n      pop\n      pop\n      jump\t// out\n        /* \"#utility.yul\":2824:2942   */\n    tag_81:\n        /* \"#utility.yul\":2911:2935   */\n      tag_159\n        /* \"#utility.yul\":2929:2934   */\n      dup2\n        /* \"#utility.yul\":2911:2935   */\n      tag_72\n      jump\t// in\n    tag_159:\n        /* \"#utility.yul\":2906:2909   */\n      dup3\n        /* \"#utility.yul\":2899:2936   */\n      mstore\n        /* \"#utility.yul\":2824:2942   */\n      pop\n      pop\n      jump\t// out\n        /* \"#utility.yul\":2948:3592   */\n    tag_12:\n        /* \"#utility.yul\":3145:3149   */\n      0x00\n        /* \"#utility.yul\":3183:3186   */\n      0x80\n        /* \"#utility.yul\":3172:3181   */\n      dup3\n        /* \"#utility.yul\":3168:3187   */\n      add\n        /* \"#utility.yul\":3160:3187   */\n      swap1\n      pop\n        /* \"#utility.yul\":3197:3268   */\n      tag_161\n        /* \"#utility.yul\":3265:3266   */\n      0x00\n        /* \"#utility.yul\":3254:3263   */\n      dup4\n        /* \"#utility.yul\":3250:3267   */\n      add\n        /* \"#utility.yul\":3241:3247   */\n      dup8\n        /* \"#utility.yul\":3197:3268   */\n      tag_75\n      jump\t// in\n    tag_161:\n        /* \"#utility.yul\":3315:3324   */\n      dup2\n        /* \"#utility.yul\":3309:3313   */\n      dup2\n        /* \"#utility.yul\":3305:3325   */\n      sub\n        /* \"#utility.yul\":3300:3302   */\n      0x20\n        /* \"#utility.yul\":3289:3298   */\n      dup4\n        /* \"#utility.yul\":3285:3303   */\n      add\n        /* \"#utility.yul\":3278:3326   */\n      mstore\n        /* \"#utility.yul\":3343:3421   */\n      tag_162\n        /* \"#utility.yul\":3416:3420   */\n      dup2\n        /* \"#utility.yul\":3407:3413   */\n      dup7\n        /* \"#utility.yul\":3343:3421   */\n      tag_80\n      jump\t// in\n    tag_162:\n        /* \"#utility.yul\":3335:3421   */\n      swap1\n      pop\n        /* \"#utility.yul\":3431:3503   */\n      tag_163\n        /* \"#utility.yul\":3499:3501   */\n      0x40\n        /* \"#utility.yul\":3488:3497   */\n      dup4\n        /* \"#utility.yul\":3484:3502   */\n      add\n        /* \"#utility.yul\":3475:3481   */\n      dup6\n        /* \"#utility.yul\":3431:3503   */\n      tag_81\n      jump\t// in\n    tag_163:\n        /* \"#utility.yul\":3513:3585   */\n      tag_164\n        /* \"#utility.yul\":3581:3583   */\n      0x60\n        /* \"#utility.yul\":3570:3579   */\n      dup4\n        /* \"#utility.yul\":3566:3584   */\n      add\n        /* \"#utility.yul\":3557:3563   */\n      dup5\n        /* \"#utility.yul\":3513:3585   */\n      tag_81\n      jump\t// in\n    tag_164:\n        /* \"#utility.yul\":2948:3592   */\n      swap6\n      swap5\n      pop\n      pop\n      pop\n      pop\n      pop\n      jump\t// out\n        /* \"#utility.yul\":3598:3927   */\n    tag_15:\n        /* \"#utility.yul\":3657:3663   */\n      0x00\n        /* \"#utility.yul\":3706:3708   */\n      0x20\n        /* \"#utility.yul\":3694:3703   */\n      dup3\n        /* \"#utility.yul\":3685:3692   */\n      dup5\n        /* \"#utility.yul\":3681:3704   */\n      sub\n        /* \"#utility.yul\":3677:3709   */\n      slt\n        /* \"#utility.yul\":3674:3793   */\n      iszero\n      tag_166\n      jumpi\n        /* \"#utility.yul\":3712:3791   */\n      tag_167\n      tag_66\n      jump\t// in\n    tag_167:\n        /* \"#utility.yul\":3674:3793   */\n    tag_166:\n        /* \"#utility.yul\":3832:3833   */\n      0x00\n        /* \"#utility.yul\":3857:3910   */\n      tag_168\n        /* \"#utility.yul\":3902:3909   */\n      dup5\n        /* \"#utility.yul\":3893:3899   */\n      dup3\n        /* \"#utility.yul\":3882:3891   */\n      dup6\n        /* \"#utility.yul\":3878:3900   */\n      add\n        /* \"#utility.yul\":3857:3910   */\n      tag_71\n      jump\t// in\n    tag_168:\n        /* \"#utility.yul\":3847:3910   */\n      swap2\n      pop\n        /* \"#utility.yul\":3803:3920   */\n      pop\n        /* \"#utility.yul\":3598:3927   */\n      swap3\n      swap2\n      pop\n      pop\n      jump\t// out\n        /* \"#utility.yul\":3933:4068   */\n    tag_82:\n        /* \"#utility.yul\":4021:4027   */\n      0x00\n        /* \"#utility.yul\":4055:4060   */\n      dup2\n        /* \"#utility.yul\":4049:4061   */\n      mload\n        /* \"#utility.yul\":4039:4061   */\n      swap1\n      pop\n        /* \"#utility.yul\":3933:4068   */\n      swap2\n      swap1\n      pop\n      jump\t// out\n        /* \"#utility.yul\":4074:4279   */\n    tag_83:\n        /* \"#utility.yul\":4194:4205   */\n      0x00\n        /* \"#utility.yul\":4228:4234   */\n      dup3\n        /* \"#utility.yul\":4223:4226   */\n      dup3\n        /* \"#utility.yul\":4216:4235   */\n      mstore\n        /* \"#utility.yul\":4268:4272   */\n      0x20\n        /* \"#utility.yul\":4263:4266   */\n      dup3\n        /* \"#utility.yul\":4259:4273   */\n      add\n        /* \"#utility.yul\":4244:4273   */\n      swap1\n      pop\n        /* \"#utility.yul\":4074:4279   */\n      swap3\n      swap2\n      pop\n      pop\n      jump\t// out\n        /* \"#utility.yul\":4285:4438   */\n    tag_84:\n        /* \"#utility.yul\":4373:4377   */\n      0x00\n        /* \"#utility.yul\":4396:4399   */\n      dup2\n        /* \"#utility.yul\":4388:4399   */\n      swap1\n      pop\n        /* \"#utility.yul\":4426:4430   */\n      0x20\n        /* \"#utility.yul\":4421:4424   */\n      dup3\n        /* \"#utility.yul\":4417:4431   */\n      add\n        /* \"#utility.yul\":4409:4431   */\n      swap1\n      pop\n        /* \"#utility.yul\":4285:4438   */\n      swap2\n      swap1\n      pop\n      jump\t// out\n        /* \"#utility.yul\":4444:4552   */\n    tag_85:\n        /* \"#utility.yul\":4521:4545   */\n      tag_173\n        /* \"#utility.yul\":4539:4544   */\n      dup2\n        /* \"#utility.yul\":4521:4545   */\n      tag_69\n      jump\t// in\n    tag_173:\n        /* \"#utility.yul\":4516:4519   */\n      dup3\n        /* \"#utility.yul\":4509:4546   */\n      mstore\n        /* \"#utility.yul\":4444:4552   */\n      pop\n      pop\n      jump\t// out\n        /* \"#utility.yul\":4558:4717   */\n    tag_86:\n        /* \"#utility.yul\":4632:4643   */\n      0x00\n        /* \"#utility.yul\":4666:4672   */\n      dup3\n        /* \"#utility.yul\":4661:4664   */\n      dup3\n        /* \"#utility.yul\":4654:4673   */\n      mstore\n        /* \"#utility.yul\":4706:4710   */\n      0x20\n        /* \"#utility.yul\":4701:4704   */\n      dup3\n        /* \"#utility.yul\":4697:4711   */\n      add\n        /* \"#utility.yul\":4682:4711   */\n      swap1\n      pop\n        /* \"#utility.yul\":4558:4717   */\n      swap3\n      swap2\n      pop\n      pop\n      jump\t// out\n        /* \"#utility.yul\":4723:5080   */\n    tag_87:\n        /* \"#utility.yul\":4801:4804   */\n      0x00\n        /* \"#utility.yul\":4829:4868   */\n      tag_176\n        /* \"#utility.yul\":4862:4867   */\n      dup3\n        /* \"#utility.yul\":4829:4868   */\n      tag_76\n      jump\t// in\n    tag_176:\n        /* \"#utility.yul\":4884:4945   */\n      tag_177\n        /* \"#utility.yul\":4938:4944   */\n      dup2\n        /* \"#utility.yul\":4933:4936   */\n      dup6\n        /* \"#utility.yul\":4884:4945   */\n      tag_86\n      jump\t// in\n    tag_177:\n        /* \"#utility.yul\":4877:4945   */\n      swap4\n      pop\n        /* \"#utility.yul\":4954:5019   */\n      tag_178\n        /* \"#utility.yul\":5012:5018   */\n      dup2\n        /* \"#utility.yul\":5007:5010   */\n      dup6\n        /* \"#utility.yul\":5000:5004   */\n      0x20\n        /* \"#utility.yul\":4993:4998   */\n      dup7\n        /* \"#utility.yul\":4989:5005   */\n      add\n        /* \"#utility.yul\":4954:5019   */\n      tag_78\n      jump\t// in\n    tag_178:\n        /* \"#utility.yul\":5044:5073   */\n      tag_179\n        /* \"#utility.yul\":5066:5072   */\n      dup2\n        /* \"#utility.yul\":5044:5073   */\n      tag_79\n      jump\t// in\n    tag_179:\n        /* \"#utility.yul\":5039:5042   */\n      dup5\n        /* \"#utility.yul\":5035:5074   */\n      add\n        /* \"#utility.yul\":5028:5074   */\n      swap2\n      pop\n        /* \"#utility.yul\":4805:5080   */\n      pop\n        /* \"#utility.yul\":4723:5080   */\n      swap3\n      swap2\n      pop\n      pop\n      jump\t// out\n        /* \"#utility.yul\":5086:5194   */\n    tag_88:\n        /* \"#utility.yul\":5163:5187   */\n      tag_181\n        /* \"#utility.yul\":5181:5186   */\n      dup2\n        /* \"#utility.yul\":5163:5187   */\n      tag_72\n      jump\t// in\n    tag_181:\n        /* \"#utility.yul\":5158:5161   */\n      dup3\n        /* \"#utility.yul\":5151:5188   */\n      mstore\n        /* \"#utility.yul\":5086:5194   */\n      pop\n      pop\n      jump\t// out\n        /* \"#utility.yul\":5252:6199   */\n    tag_89:\n        /* \"#utility.yul\":5353:5356   */\n      0x00\n        /* \"#utility.yul\":5389:5393   */\n      0x80\n        /* \"#utility.yul\":5384:5387   */\n      dup4\n        /* \"#utility.yul\":5380:5394   */\n      add\n        /* \"#utility.yul\":5478:5482   */\n      0x00\n        /* \"#utility.yul\":5471:5476   */\n      dup4\n        /* \"#utility.yul\":5467:5483   */\n      add\n        /* \"#utility.yul\":5461:5484   */\n      mload\n        /* \"#utility.yul\":5497:5560   */\n      tag_183\n        /* \"#utility.yul\":5554:5558   */\n      0x00\n        /* \"#utility.yul\":5549:5552   */\n      dup7\n        /* \"#utility.yul\":5545:5559   */\n      add\n        /* \"#utility.yul\":5531:5543   */\n      dup3\n        /* \"#utility.yul\":5497:5560   */\n      tag_85\n      jump\t// in\n    tag_183:\n        /* \"#utility.yul\":5404:5570   */\n      pop\n        /* \"#utility.yul\":5655:5659   */\n      0x20\n        /* \"#utility.yul\":5648:5653   */\n      dup4\n        /* \"#utility.yul\":5644:5660   */\n      add\n        /* \"#utility.yul\":5638:5661   */\n      mload\n        /* \"#utility.yul\":5708:5711   */\n      dup5\n        /* \"#utility.yul\":5702:5706   */\n      dup3\n        /* \"#utility.yul\":5698:5712   */\n      sub\n        /* \"#utility.yul\":5691:5695   */\n      0x20\n        /* \"#utility.yul\":5686:5689   */\n      dup7\n        /* \"#utility.yul\":5682:5696   */\n      add\n        /* \"#utility.yul\":5675:5713   */\n      mstore\n        /* \"#utility.yul\":5734:5807   */\n      tag_184\n        /* \"#utility.yul\":5802:5806   */\n      dup3\n        /* \"#utility.yul\":5788:5800   */\n      dup3\n        /* \"#utility.yul\":5734:5807   */\n      tag_87\n      jump\t// in\n    tag_184:\n        /* \"#utility.yul\":5726:5807   */\n      swap2\n      pop\n        /* \"#utility.yul\":5580:5818   */\n      pop\n        /* \"#utility.yul\":5905:5909   */\n      0x40\n        /* \"#utility.yul\":5898:5903   */\n      dup4\n        /* \"#utility.yul\":5894:5910   */\n      add\n        /* \"#utility.yul\":5888:5911   */\n      mload\n        /* \"#utility.yul\":5924:5987   */\n      tag_185\n        /* \"#utility.yul\":5981:5985   */\n      0x40\n        /* \"#utility.yul\":5976:5979   */\n      dup7\n        /* \"#utility.yul\":5972:5986   */\n      add\n        /* \"#utility.yul\":5958:5970   */\n      dup3\n        /* \"#utility.yul\":5924:5987   */\n      tag_88\n      jump\t// in\n    tag_185:\n        /* \"#utility.yul\":5828:5997   */\n      pop\n        /* \"#utility.yul\":6080:6084   */\n      0x60\n        /* \"#utility.yul\":6073:6078   */\n      dup4\n        /* \"#utility.yul\":6069:6085   */\n      add\n        /* \"#utility.yul\":6063:6086   */\n      mload\n        /* \"#utility.yul\":6099:6162   */\n      tag_186\n        /* \"#utility.yul\":6156:6160   */\n      0x60\n        /* \"#utility.yul\":6151:6154   */\n      dup7\n        /* \"#utility.yul\":6147:6161   */\n      add\n        /* \"#utility.yul\":6133:6145   */\n      dup3\n        /* \"#utility.yul\":6099:6162   */\n      tag_88\n      jump\t// in\n    tag_186:\n        /* \"#utility.yul\":6007:6172   */\n      pop\n        /* \"#utility.yul\":6189:6193   */\n      dup1\n        /* \"#utility.yul\":6182:6193   */\n      swap2\n      pop\n        /* \"#utility.yul\":5358:6199   */\n      pop\n        /* \"#utility.yul\":5252:6199   */\n      swap3\n      swap2\n      pop\n      pop\n      jump\t// out\n        /* \"#utility.yul\":6205:6445   */\n    tag_90:\n        /* \"#utility.yul\":6316:6326   */\n      0x00\n        /* \"#utility.yul\":6351:6439   */\n      tag_188\n        /* \"#utility.yul\":6435:6438   */\n      dup4\n        /* \"#utility.yul\":6427:6433   */\n      dup4\n        /* \"#utility.yul\":6351:6439   */\n      tag_89\n      jump\t// in\n    tag_188:\n        /* \"#utility.yul\":6337:6439   */\n      swap1\n      pop\n        /* \"#utility.yul\":6205:6445   */\n      swap3\n      swap2\n      pop\n      pop\n      jump\t// out\n        /* \"#utility.yul\":6451:6585   */\n    tag_91:\n        /* \"#utility.yul\":6542:6546   */\n      0x00\n        /* \"#utility.yul\":6574:6578   */\n      0x20\n        /* \"#utility.yul\":6569:6572   */\n      dup3\n        /* \"#utility.yul\":6565:6579   */\n      add\n        /* \"#utility.yul\":6557:6579   */\n      swap1\n      pop\n        /* \"#utility.yul\":6451:6585   */\n      swap2\n      swap1\n      pop\n      jump\t// out\n        /* \"#utility.yul\":6647:7726   */\n    tag_92:\n        /* \"#utility.yul\":6808:6811   */\n      0x00\n        /* \"#utility.yul\":6837:6912   */\n      tag_191\n        /* \"#utility.yul\":6906:6911   */\n      dup3\n        /* \"#utility.yul\":6837:6912   */\n      tag_82\n      jump\t// in\n    tag_191:\n        /* \"#utility.yul\":6928:7035   */\n      tag_192\n        /* \"#utility.yul\":7028:7034   */\n      dup2\n        /* \"#utility.yul\":7023:7026   */\n      dup6\n        /* \"#utility.yul\":6928:7035   */\n      tag_83\n      jump\t// in\n    tag_192:\n        /* \"#utility.yul\":6921:7035   */\n      swap4\n      pop\n        /* \"#utility.yul\":7061:7064   */\n      dup4\n        /* \"#utility.yul\":7106:7110   */\n      0x20\n        /* \"#utility.yul\":7098:7104   */\n      dup3\n        /* \"#utility.yul\":7094:7111   */\n      mul\n        /* \"#utility.yul\":7089:7092   */\n      dup6\n        /* \"#utility.yul\":7085:7112   */\n      add\n        /* \"#utility.yul\":7136:7213   */\n      tag_193\n        /* \"#utility.yul\":7207:7212   */\n      dup6\n        /* \"#utility.yul\":7136:7213   */\n      tag_84\n      jump\t// in\n    tag_193:\n        /* \"#utility.yul\":7236:7243   */\n      dup1\n        /* \"#utility.yul\":7267:7268   */\n      0x00\n        /* \"#utility.yul\":7252:7681   */\n    tag_194:\n        /* \"#utility.yul\":7277:7283   */\n      dup6\n        /* \"#utility.yul\":7274:7275   */\n      dup2\n        /* \"#utility.yul\":7271:7284   */\n      lt\n        /* \"#utility.yul\":7252:7681   */\n      iszero\n      tag_196\n      jumpi\n        /* \"#utility.yul\":7348:7357   */\n      dup5\n        /* \"#utility.yul\":7342:7346   */\n      dup5\n        /* \"#utility.yul\":7338:7358   */\n      sub\n        /* \"#utility.yul\":7333:7336   */\n      dup10\n        /* \"#utility.yul\":7326:7359   */\n      mstore\n        /* \"#utility.yul\":7399:7405   */\n      dup2\n        /* \"#utility.yul\":7393:7406   */\n      mload\n        /* \"#utility.yul\":7427:7533   */\n      tag_197\n        /* \"#utility.yul\":7528:7532   */\n      dup6\n        /* \"#utility.yul\":7513:7526   */\n      dup3\n        /* \"#utility.yul\":7427:7533   */\n      tag_90\n      jump\t// in\n    tag_197:\n        /* \"#utility.yul\":7419:7533   */\n      swap5\n      pop\n        /* \"#utility.yul\":7556:7637   */\n      tag_198\n        /* \"#utility.yul\":7630:7636   */\n      dup4\n        /* \"#utility.yul\":7556:7637   */\n      tag_91\n      jump\t// in\n    tag_198:\n        /* \"#utility.yul\":7546:7637   */\n      swap3\n      pop\n        /* \"#utility.yul\":7666:7670   */\n      0x20\n        /* \"#utility.yul\":7661:7664   */\n      dup11\n        /* \"#utility.yul\":7657:7671   */\n      add\n        /* \"#utility.yul\":7650:7671   */\n      swap10\n      pop\n        /* \"#utility.yul\":7312:7681   */\n      pop\n        /* \"#utility.yul\":7299:7300   */\n      0x01\n        /* \"#utility.yul\":7296:7297   */\n      dup2\n        /* \"#utility.yul\":7292:7301   */\n      add\n        /* \"#utility.yul\":7287:7301   */\n      swap1\n      pop\n        /* \"#utility.yul\":7252:7681   */\n      jump(tag_194)\n    tag_196:\n        /* \"#utility.yul\":7256:7270   */\n      pop\n        /* \"#utility.yul\":7697:7701   */\n      dup3\n        /* \"#utility.yul\":7690:7701   */\n      swap8\n      pop\n        /* \"#utility.yul\":7717:7720   */\n      dup8\n        /* \"#utility.yul\":7710:7720   */\n      swap6\n      pop\n        /* \"#utility.yul\":6813:7726   */\n      pop\n      pop\n      pop\n      pop\n      pop\n        /* \"#utility.yul\":6647:7726   */\n      swap3\n      swap2\n      pop\n      pop\n      jump\t// out\n        /* \"#utility.yul\":7732:8189   */\n    tag_18:\n        /* \"#utility.yul\":7917:7921   */\n      0x00\n        /* \"#utility.yul\":7955:7957   */\n      0x20\n        /* \"#utility.yul\":7944:7953   */\n      dup3\n        /* \"#utility.yul\":7940:7958   */\n      add\n        /* \"#utility.yul\":7932:7958   */\n      swap1\n      pop\n        /* \"#utility.yul\":8004:8013   */\n      dup2\n        /* \"#utility.yul\":7998:8002   */\n      dup2\n        /* \"#utility.yul\":7994:8014   */\n      sub\n        /* \"#utility.yul\":7990:7991   */\n      0x00\n        /* \"#utility.yul\":7979:7988   */\n      dup4\n        /* \"#utility.yul\":7975:7992   */\n      add\n        /* \"#utility.yul\":7968:8015   */\n      mstore\n        /* \"#utility.yul\":8032:8182   */\n      tag_200\n        /* \"#utility.yul\":8177:8181   */\n      dup2\n        /* \"#utility.yul\":8168:8174   */\n      dup5\n        /* \"#utility.yul\":8032:8182   */\n      tag_92\n      jump\t// in\n    tag_200:\n        /* \"#utility.yul\":8024:8182   */\n      swap1\n      pop\n        /* \"#utility.yul\":7732:8189   */\n      swap3\n      swap2\n      pop\n      pop\n      jump\t// out\n        /* \"#utility.yul\":8195:8312   */\n    tag_93:\n        /* \"#utility.yul\":8304:8305   */\n      0x00\n        /* \"#utility.yul\":8301:8302   */\n      dup1\n        /* \"#utility.yul\":8294:8306   */\n      revert\n        /* \"#utility.yul\":8318:8435   */\n    tag_94:\n        /* \"#utility.yul\":8427:8428   */\n      0x00\n        /* \"#utility.yul\":8424:8425   */\n      dup1\n        /* \"#utility.yul\":8417:8429   */\n      revert\n        /* \"#utility.yul\":8441:8621   */\n    tag_95:\n        /* \"#utility.yul\":8489:8566   */\n      0x4e487b7100000000000000000000000000000000000000000000000000000000\n        /* \"#utility.yul\":8486:8487   */\n      0x00\n        /* \"#utility.yul\":8479:8567   */\n      mstore\n        /* \"#utility.yul\":8586:8590   */\n      0x41\n        /* \"#utility.yul\":8583:8584   */\n      0x04\n        /* \"#utility.yul\":8576:8591   */\n      mstore\n        /* \"#utility.yul\":8610:8614   */\n      0x24\n        /* \"#utility.yul\":8607:8608   */\n      0x00\n        /* \"#utility.yul\":8600:8615   */\n      revert\n        /* \"#utility.yul\":8627:8908   */\n    tag_96:\n        /* \"#utility.yul\":8710:8737   */\n      tag_205\n        /* \"#utility.yul\":8732:8736   */\n      dup3\n        /* \"#utility.yul\":8710:8737   */\n      tag_79\n      jump\t// in\n    tag_205:\n        /* \"#utility.yul\":8702:8708   */\n      dup2\n        /* \"#utility.yul\":8698:8738   */\n      add\n        /* \"#utility.yul\":8840:8846   */\n      dup2\n        /* \"#utility.yul\":8828:8838   */\n      dup2\n        /* \"#utility.yul\":8825:8847   */\n      lt\n        /* \"#utility.yul\":8804:8822   */\n      0xffffffffffffffff\n        /* \"#utility.yul\":8792:8802   */\n      dup3\n        /* \"#utility.yul\":8789:8823   */\n      gt\n        /* \"#utility.yul\":8786:8848   */\n      or\n        /* \"#utility.yul\":8783:8871   */\n      iszero\n      tag_206\n      jumpi\n        /* \"#utility.yul\":8851:8869   */\n      tag_207\n      tag_95\n      jump\t// in\n    tag_207:\n        /* \"#utility.yul\":8783:8871   */\n    tag_206:\n        /* \"#utility.yul\":8891:8901   */\n      dup1\n        /* \"#utility.yul\":8887:8889   */\n      0x40\n        /* \"#utility.yul\":8880:8902   */\n      mstore\n        /* \"#utility.yul\":8670:8908   */\n      pop\n        /* \"#utility.yul\":8627:8908   */\n      pop\n      pop\n      jump\t// out\n        /* \"#utility.yul\":8914:9043   */\n    tag_97:\n        /* \"#utility.yul\":8948:8954   */\n      0x00\n        /* \"#utility.yul\":8975:8995   */\n      tag_209\n      tag_65\n      jump\t// in\n    tag_209:\n        /* \"#utility.yul\":8965:8995   */\n      swap1\n      pop\n        /* \"#utility.yul\":9004:9037   */\n      tag_210\n        /* \"#utility.yul\":9032:9036   */\n      dup3\n        /* \"#utility.yul\":9024:9030   */\n      dup3\n        /* \"#utility.yul\":9004:9037   */\n      tag_96\n      jump\t// in\n    tag_210:\n        /* \"#utility.yul\":8914:9043   */\n      swap2\n      swap1\n      pop\n      jump\t// out\n        /* \"#utility.yul\":9049:9357   */\n    tag_98:\n        /* \"#utility.yul\":9111:9115   */\n      0x00\n        /* \"#utility.yul\":9201:9219   */\n      0xffffffffffffffff\n        /* \"#utility.yul\":9193:9199   */\n      dup3\n        /* \"#utility.yul\":9190:9220   */\n      gt\n        /* \"#utility.yul\":9187:9243   */\n      iszero\n      tag_212\n      jumpi\n        /* \"#utility.yul\":9223:9241   */\n      tag_213\n      tag_95\n      jump\t// in\n    tag_213:\n        /* \"#utility.yul\":9187:9243   */\n    tag_212:\n        /* \"#utility.yul\":9261:9290   */\n      tag_214\n        /* \"#utility.yul\":9283:9289   */\n      dup3\n        /* \"#utility.yul\":9261:9290   */\n      tag_79\n      jump\t// in\n    tag_214:\n        /* \"#utility.yul\":9253:9290   */\n      swap1\n      pop\n        /* \"#utility.yul\":9345:9349   */\n      0x20\n        /* \"#utility.yul\":9339:9343   */\n      dup2\n        /* \"#utility.yul\":9335:9350   */\n      add\n        /* \"#utility.yul\":9327:9350   */\n      swap1\n      pop\n        /* \"#utility.yul\":9049:9357   */\n      swap2\n      swap1\n      pop\n      jump\t// out\n        /* \"#utility.yul\":9363:9509   */\n    tag_99:\n        /* \"#utility.yul\":9460:9466   */\n      dup3\n        /* \"#utility.yul\":9455:9458   */\n      dup2\n        /* \"#utility.yul\":9450:9453   */\n      dup4\n        /* \"#utility.yul\":9437:9467   */\n      calldatacopy\n        /* \"#utility.yul\":9501:9502   */\n      0x00\n        /* \"#utility.yul\":9492:9498   */\n      dup4\n        /* \"#utility.yul\":9487:9490   */\n      dup4\n        /* \"#utility.yul\":9483:9499   */\n      add\n        /* \"#utility.yul\":9476:9503   */\n      mstore\n        /* \"#utility.yul\":9363:9509   */\n      pop\n      pop\n      pop\n      jump\t// out\n        /* \"#utility.yul\":9515:9940   */\n    tag_100:\n        /* \"#utility.yul\":9593:9598   */\n      0x00\n        /* \"#utility.yul\":9618:9684   */\n      tag_217\n        /* \"#utility.yul\":9634:9683   */\n      tag_218\n        /* \"#utility.yul\":9676:9682   */\n      dup5\n        /* \"#utility.yul\":9634:9683   */\n      tag_98\n      jump\t// in\n    tag_218:\n        /* \"#utility.yul\":9618:9684   */\n      tag_97\n      jump\t// in\n    tag_217:\n        /* \"#utility.yul\":9609:9684   */\n      swap1\n      pop\n        /* \"#utility.yul\":9707:9713   */\n      dup3\n        /* \"#utility.yul\":9700:9705   */\n      dup2\n        /* \"#utility.yul\":9693:9714   */\n      mstore\n        /* \"#utility.yul\":9745:9749   */\n      0x20\n        /* \"#utility.yul\":9738:9743   */\n      dup2\n        /* \"#utility.yul\":9734:9750   */\n      add\n        /* \"#utility.yul\":9783:9786   */\n      dup5\n        /* \"#utility.yul\":9774:9780   */\n      dup5\n        /* \"#utility.yul\":9769:9772   */\n      dup5\n        /* \"#utility.yul\":9765:9781   */\n      add\n        /* \"#utility.yul\":9762:9787   */\n      gt\n        /* \"#utility.yul\":9759:9871   */\n      iszero\n      tag_219\n      jumpi\n        /* \"#utility.yul\":9790:9869   */\n      tag_220\n      tag_94\n      jump\t// in\n    tag_220:\n        /* \"#utility.yul\":9759:9871   */\n    tag_219:\n        /* \"#utility.yul\":9880:9934   */\n      tag_221\n        /* \"#utility.yul\":9927:9933   */\n      dup5\n        /* \"#utility.yul\":9922:9925   */\n      dup3\n        /* \"#utility.yul\":9917:9920   */\n      dup6\n        /* \"#utility.yul\":9880:9934   */\n      tag_99\n      jump\t// in\n    tag_221:\n        /* \"#utility.yul\":9599:9940   */\n      pop\n        /* \"#utility.yul\":9515:9940   */\n      swap4\n      swap3\n      pop\n      pop\n      pop\n      jump\t// out\n        /* \"#utility.yul\":9960:10300   */\n    tag_101:\n        /* \"#utility.yul\":10016:10021   */\n      0x00\n        /* \"#utility.yul\":10065:10068   */\n      dup3\n        /* \"#utility.yul\":10058:10062   */\n      0x1f\n        /* \"#utility.yul\":10050:10056   */\n      dup4\n        /* \"#utility.yul\":10046:10063   */\n      add\n        /* \"#utility.yul\":10042:10069   */\n      slt\n        /* \"#utility.yul\":10032:10154   */\n      tag_223\n      jumpi\n        /* \"#utility.yul\":10073:10152   */\n      tag_224\n      tag_93\n      jump\t// in\n    tag_224:\n        /* \"#utility.yul\":10032:10154   */\n    tag_223:\n        /* \"#utility.yul\":10190:10196   */\n      dup2\n        /* \"#utility.yul\":10177:10197   */\n      calldataload\n        /* \"#utility.yul\":10215:10294   */\n      tag_225\n        /* \"#utility.yul\":10290:10293   */\n      dup5\n        /* \"#utility.yul\":10282:10288   */\n      dup3\n        /* \"#utility.yul\":10275:10279   */\n      0x20\n        /* \"#utility.yul\":10267:10273   */\n      dup7\n        /* \"#utility.yul\":10263:10280   */\n      add\n        /* \"#utility.yul\":10215:10294   */\n      tag_100\n      jump\t// in\n    tag_225:\n        /* \"#utility.yul\":10206:10294   */\n      swap2\n      pop\n        /* \"#utility.yul\":10022:10300   */\n      pop\n        /* \"#utility.yul\":9960:10300   */\n      swap3\n      swap2\n      pop\n      pop\n      jump\t// out\n        /* \"#utility.yul\":10306:10815   */\n    tag_21:\n        /* \"#utility.yul\":10375:10381   */\n      0x00\n        /* \"#utility.yul\":10424:10426   */\n      0x20\n        /* \"#utility.yul\":10412:10421   */\n      dup3\n        /* \"#utility.yul\":10403:10410   */\n      dup5\n        /* \"#utility.yul\":10399:10422   */\n      sub\n        /* \"#utility.yul\":10395:10427   */\n      slt\n        /* \"#utility.yul\":10392:10511   */\n      iszero\n      tag_227\n      jumpi\n        /* \"#utility.yul\":10430:10509   */\n      tag_228\n      tag_66\n      jump\t// in\n    tag_228:\n        /* \"#utility.yul\":10392:10511   */\n    tag_227:\n        /* \"#utility.yul\":10578:10579   */\n      0x00\n        /* \"#utility.yul\":10567:10576   */\n      dup3\n        /* \"#utility.yul\":10563:10580   */\n      add\n        /* \"#utility.yul\":10550:10581   */\n      calldataload\n        /* \"#utility.yul\":10608:10626   */\n      0xffffffffffffffff\n        /* \"#utility.yul\":10600:10606   */\n      dup2\n        /* \"#utility.yul\":10597:10627   */\n      gt\n        /* \"#utility.yul\":10594:10711   */\n      iszero\n      tag_229\n      jumpi\n        /* \"#utility.yul\":10630:10709   */\n      tag_230\n      tag_67\n      jump\t// in\n    tag_230:\n        /* \"#utility.yul\":10594:10711   */\n    tag_229:\n        /* \"#utility.yul\":10735:10798   */\n      tag_231\n        /* \"#utility.yul\":10790:10797   */\n      dup5\n        /* \"#utility.yul\":10781:10787   */\n      dup3\n        /* \"#utility.yul\":10770:10779   */\n      dup6\n        /* \"#utility.yul\":10766:10788   */\n      add\n        /* \"#utility.yul\":10735:10798   */\n      tag_101\n      jump\t// in\n    tag_231:\n        /* \"#utility.yul\":10725:10798   */\n      swap2\n      pop\n        /* \"#utility.yul\":10521:10808   */\n      pop\n        /* \"#utility.yul\":10306:10815   */\n      swap3\n      swap2\n      pop\n      pop\n      jump\t// out\n        /* \"#utility.yul\":10821:11150   */\n    tag_25:\n        /* \"#utility.yul\":10880:10886   */\n      0x00\n        /* \"#utility.yul\":10929:10931   */\n      0x20\n        /* \"#utility.yul\":10917:10926   */\n      dup3\n        /* \"#utility.yul\":10908:10915   */\n      dup5\n        /* \"#utility.yul\":10904:10927   */\n      sub\n        /* \"#utility.yul\":10900:10932   */\n      slt\n        /* \"#utility.yul\":10897:11016   */\n      iszero\n      tag_233\n      jumpi\n        /* \"#utility.yul\":10935:11014   */\n      tag_234\n      tag_66\n      jump\t// in\n    tag_234:\n        /* \"#utility.yul\":10897:11016   */\n    tag_233:\n        /* \"#utility.yul\":11055:11056   */\n      0x00\n        /* \"#utility.yul\":11080:11133   */\n      tag_235\n        /* \"#utility.yul\":11125:11132   */\n      dup5\n        /* \"#utility.yul\":11116:11122   */\n      dup3\n        /* \"#utility.yul\":11105:11114   */\n      dup6\n        /* \"#utility.yul\":11101:11123   */\n      add\n        /* \"#utility.yul\":11080:11133   */\n      tag_74\n      jump\t// in\n    tag_235:\n        /* \"#utility.yul\":11070:11133   */\n      swap2\n      pop\n        /* \"#utility.yul\":11026:11143   */\n      pop\n        /* \"#utility.yul\":10821:11150   */\n      swap3\n      swap2\n      pop\n      pop\n      jump\t// out\n        /* \"#utility.yul\":11208:12165   */\n    tag_102:\n        /* \"#utility.yul\":11319:11322   */\n      0x00\n        /* \"#utility.yul\":11355:11359   */\n      0x80\n        /* \"#utility.yul\":11350:11353   */\n      dup4\n        /* \"#utility.yul\":11346:11360   */\n      add\n        /* \"#utility.yul\":11444:11448   */\n      0x00\n        /* \"#utility.yul\":11437:11442   */\n      dup4\n        /* \"#utility.yul\":11433:11449   */\n      add\n        /* \"#utility.yul\":11427:11450   */\n      mload\n        /* \"#utility.yul\":11463:11526   */\n      tag_237\n        /* \"#utility.yul\":11520:11524   */\n      0x00\n        /* \"#utility.yul\":11515:11518   */\n      dup7\n        /* \"#utility.yul\":11511:11525   */\n      add\n        /* \"#utility.yul\":11497:11509   */\n      dup3\n        /* \"#utility.yul\":11463:11526   */\n      tag_85\n      jump\t// in\n    tag_237:\n        /* \"#utility.yul\":11370:11536   */\n      pop\n        /* \"#utility.yul\":11621:11625   */\n      0x20\n        /* \"#utility.yul\":11614:11619   */\n      dup4\n        /* \"#utility.yul\":11610:11626   */\n      add\n        /* \"#utility.yul\":11604:11627   */\n      mload\n        /* \"#utility.yul\":11674:11677   */\n      dup5\n        /* \"#utility.yul\":11668:11672   */\n      dup3\n        /* \"#utility.yul\":11664:11678   */\n      sub\n        /* \"#utility.yul\":11657:11661   */\n      0x20\n        /* \"#utility.yul\":11652:11655   */\n      dup7\n        /* \"#utility.yul\":11648:11662   */\n      add\n        /* \"#utility.yul\":11641:11679   */\n      mstore\n        /* \"#utility.yul\":11700:11773   */\n      tag_238\n        /* \"#utility.yul\":11768:11772   */\n      dup3\n        /* \"#utility.yul\":11754:11766   */\n      dup3\n        /* \"#utility.yul\":11700:11773   */\n      tag_87\n      jump\t// in\n    tag_238:\n        /* \"#utility.yul\":11692:11773   */\n      swap2\n      pop\n        /* \"#utility.yul\":11546:11784   */\n      pop\n        /* \"#utility.yul\":11871:11875   */\n      0x40\n        /* \"#utility.yul\":11864:11869   */\n      dup4\n        /* \"#utility.yul\":11860:11876   */\n      add\n        /* \"#utility.yul\":11854:11877   */\n      mload\n        /* \"#utility.yul\":11890:11953   */\n      tag_239\n        /* \"#utility.yul\":11947:11951   */\n      0x40\n        /* \"#utility.yul\":11942:11945   */\n      dup7\n        /* \"#utility.yul\":11938:11952   */\n      add\n        /* \"#utility.yul\":11924:11936   */\n      dup3\n        /* \"#utility.yul\":11890:11953   */\n      tag_88\n      jump\t// in\n    tag_239:\n        /* \"#utility.yul\":11794:11963   */\n      pop\n        /* \"#utility.yul\":12046:12050   */\n      0x60\n        /* \"#utility.yul\":12039:12044   */\n      dup4\n        /* \"#utility.yul\":12035:12051   */\n      add\n        /* \"#utility.yul\":12029:12052   */\n      mload\n        /* \"#utility.yul\":12065:12128   */\n      tag_240\n        /* \"#utility.yul\":12122:12126   */\n      0x60\n        /* \"#utility.yul\":12117:12120   */\n      dup7\n        /* \"#utility.yul\":12113:12127   */\n      add\n        /* \"#utility.yul\":12099:12111   */\n      dup3\n        /* \"#utility.yul\":12065:12128   */\n      tag_88\n      jump\t// in\n    tag_240:\n        /* \"#utility.yul\":11973:12138   */\n      pop\n        /* \"#utility.yul\":12155:12159   */\n      dup1\n        /* \"#utility.yul\":12148:12159   */\n      swap2\n      pop\n        /* \"#utility.yul\":11324:12165   */\n      pop\n        /* \"#utility.yul\":11208:12165   */\n      swap3\n      swap2\n      pop\n      pop\n      jump\t// out\n        /* \"#utility.yul\":12171:12528   */\n    tag_28:\n        /* \"#utility.yul\":12306:12310   */\n      0x00\n        /* \"#utility.yul\":12344:12346   */\n      0x20\n        /* \"#utility.yul\":12333:12342   */\n      dup3\n        /* \"#utility.yul\":12329:12347   */\n      add\n        /* \"#utility.yul\":12321:12347   */\n      swap1\n      pop\n        /* \"#utility.yul\":12393:12402   */\n      dup2\n        /* \"#utility.yul\":12387:12391   */\n      dup2\n        /* \"#utility.yul\":12383:12403   */\n      sub\n        /* \"#utility.yul\":12379:12380   */\n      0x00\n        /* \"#utility.yul\":12368:12377   */\n      dup4\n        /* \"#utility.yul\":12364:12381   */\n      add\n        /* \"#utility.yul\":12357:12404   */\n      mstore\n        /* \"#utility.yul\":12421:12521   */\n      tag_242\n        /* \"#utility.yul\":12516:12520   */\n      dup2\n        /* \"#utility.yul\":12507:12513   */\n      dup5\n        /* \"#utility.yul\":12421:12521   */\n      tag_102\n      jump\t// in\n    tag_242:\n        /* \"#utility.yul\":12413:12521   */\n      swap1\n      pop\n        /* \"#utility.yul\":12171:12528   */\n      swap3\n      swap2\n      pop\n      pop\n      jump\t// out\n        /* \"#utility.yul\":12534:12714   */\n    tag_103:\n        /* \"#utility.yul\":12582:12659   */\n      0x4e487b7100000000000000000000000000000000000000000000000000000000\n        /* \"#utility.yul\":12579:12580   */\n      0x00\n        /* \"#utility.yul\":12572:12660   */\n      mstore\n        /* \"#utility.yul\":12679:12683   */\n      0x22\n        /* \"#utility.yul\":12676:12677   */\n      0x04\n        /* \"#utility.yul\":12669:12684   */\n      mstore\n        /* \"#utility.yul\":12703:12707   */\n      0x24\n        /* \"#utility.yul\":12700:12701   */\n      0x00\n        /* \"#utility.yul\":12693:12708   */\n      revert\n        /* \"#utility.yul\":12720:13040   */\n    tag_32:\n        /* \"#utility.yul\":12764:12770   */\n      0x00\n        /* \"#utility.yul\":12801:12802   */\n      0x02\n        /* \"#utility.yul\":12795:12799   */\n      dup3\n        /* \"#utility.yul\":12791:12803   */\n      div\n        /* \"#utility.yul\":12781:12803   */\n      swap1\n      pop\n        /* \"#utility.yul\":12848:12849   */\n      0x01\n        /* \"#utility.yul\":12842:12846   */\n      dup3\n        /* \"#utility.yul\":12838:12850   */\n      and\n        /* \"#utility.yul\":12869:12887   */\n      dup1\n        /* \"#utility.yul\":12859:12940   */\n      tag_245\n      jumpi\n        /* \"#utility.yul\":12925:12929   */\n      0x7f\n        /* \"#utility.yul\":12917:12923   */\n      dup3\n        /* \"#utility.yul\":12913:12930   */\n      and\n        /* \"#utility.yul\":12903:12930   */\n      swap2\n      pop\n        /* \"#utility.yul\":12859:12940   */\n    tag_245:\n        /* \"#utility.yul\":12987:12989   */\n      0x20\n        /* \"#utility.yul\":12979:12985   */\n      dup3\n        /* \"#utility.yul\":12976:12990   */\n      lt\n        /* \"#utility.yul\":12956:12974   */\n      dup2\n        /* \"#utility.yul\":12953:12991   */\n      sub\n        /* \"#utility.yul\":12950:13034   */\n      tag_246\n      jumpi\n        /* \"#utility.yul\":13006:13024   */\n      tag_247\n      tag_103\n      jump\t// in\n    tag_247:\n        /* \"#utility.yul\":12950:13034   */\n    tag_246:\n        /* \"#utility.yul\":12771:13040   */\n      pop\n        /* \"#utility.yul\":12720:13040   */\n      swap2\n      swap1\n      pop\n      jump\t// out\n        /* \"#utility.yul\":13046:13219   */\n    tag_104:\n        /* \"#utility.yul\":13186:13211   */\n      0x547765657420697320746f6f206c6f6e672062726f2121000000000000000000\n        /* \"#utility.yul\":13182:13183   */\n      0x00\n        /* \"#utility.yul\":13174:13180   */\n      dup3\n        /* \"#utility.yul\":13170:13184   */\n      add\n        /* \"#utility.yul\":13163:13212   */\n      mstore\n        /* \"#utility.yul\":13046:13219   */\n      pop\n      jump\t// out\n        /* \"#utility.yul\":13225:13591   */\n    tag_105:\n        /* \"#utility.yul\":13367:13370   */\n      0x00\n        /* \"#utility.yul\":13388:13455   */\n      tag_250\n        /* \"#utility.yul\":13452:13454   */\n      0x17\n        /* \"#utility.yul\":13447:13450   */\n      dup4\n        /* \"#utility.yul\":13388:13455   */\n      tag_77\n      jump\t// in\n    tag_250:\n        /* \"#utility.yul\":13381:13455   */\n      swap2\n      pop\n        /* \"#utility.yul\":13464:13557   */\n      tag_251\n        /* \"#utility.yul\":13553:13556   */\n      dup3\n        /* \"#utility.yul\":13464:13557   */\n      tag_104\n      jump\t// in\n    tag_251:\n        /* \"#utility.yul\":13582:13584   */\n      0x20\n        /* \"#utility.yul\":13577:13580   */\n      dup3\n        /* \"#utility.yul\":13573:13585   */\n      add\n        /* \"#utility.yul\":13566:13585   */\n      swap1\n      pop\n        /* \"#utility.yul\":13225:13591   */\n      swap2\n      swap1\n      pop\n      jump\t// out\n        /* \"#utility.yul\":13597:14016   */\n    tag_49:\n        /* \"#utility.yul\":13763:13767   */\n      0x00\n        /* \"#utility.yul\":13801:13803   */\n      0x20\n        /* \"#utility.yul\":13790:13799   */\n      dup3\n        /* \"#utility.yul\":13786:13804   */\n      add\n        /* \"#utility.yul\":13778:13804   */\n      swap1\n      pop\n        /* \"#utility.yul\":13850:13859   */\n      dup2\n        /* \"#utility.yul\":13844:13848   */\n      dup2\n        /* \"#utility.yul\":13840:13860   */\n      sub\n        /* \"#utility.yul\":13836:13837   */\n      0x00\n        /* \"#utility.yul\":13825:13834   */\n      dup4\n        /* \"#utility.yul\":13821:13838   */\n      add\n        /* \"#utility.yul\":13814:13861   */\n      mstore\n        /* \"#utility.yul\":13878:14009   */\n      tag_253\n        /* \"#utility.yul\":14004:14008   */\n      dup2\n        /* \"#utility.yul\":13878:14009   */\n      tag_105\n      jump\t// in\n    tag_253:\n        /* \"#utility.yul\":13870:14009   */\n      swap1\n      pop\n        /* \"#utility.yul\":13597:14016   */\n      swap2\n      swap1\n      pop\n      jump\t// out\n        /* \"#utility.yul\":14022:14163   */\n    tag_106:\n        /* \"#utility.yul\":14071:14075   */\n      0x00\n        /* \"#utility.yul\":14094:14097   */\n      dup2\n        /* \"#utility.yul\":14086:14097   */\n      swap1\n      pop\n        /* \"#utility.yul\":14117:14120   */\n      dup2\n        /* \"#utility.yul\":14114:14115   */\n      0x00\n        /* \"#utility.yul\":14107:14121   */\n      mstore\n        /* \"#utility.yul\":14151:14155   */\n      0x20\n        /* \"#utility.yul\":14148:14149   */\n      0x00\n        /* \"#utility.yul\":14138:14156   */\n      keccak256\n        /* \"#utility.yul\":14130:14156   */\n      swap1\n      pop\n        /* \"#utility.yul\":14022:14163   */\n      swap2\n      swap1\n      pop\n      jump\t// out\n        /* \"#utility.yul\":14169:14262   */\n    tag_107:\n        /* \"#utility.yul\":14206:14212   */\n      0x00\n        /* \"#utility.yul\":14253:14255   */\n      0x20\n        /* \"#utility.yul\":14248:14250   */\n      0x1f\n        /* \"#utility.yul\":14241:14246   */\n      dup4\n        /* \"#utility.yul\":14237:14251   */\n      add\n        /* \"#utility.yul\":14233:14256   */\n      div\n        /* \"#utility.yul\":14223:14256   */\n      swap1\n      pop\n        /* \"#utility.yul\":14169:14262   */\n      swap2\n      swap1\n      pop\n      jump\t// out\n        /* \"#utility.yul\":14268:14375   */\n    tag_108:\n        /* \"#utility.yul\":14312:14320   */\n      0x00\n        /* \"#utility.yul\":14362:14367   */\n      dup3\n        /* \"#utility.yul\":14356:14360   */\n      dup3\n        /* \"#utility.yul\":14352:14368   */\n      shl\n        /* \"#utility.yul\":14331:14368   */\n      swap1\n      pop\n        /* \"#utility.yul\":14268:14375   */\n      swap3\n      swap2\n      pop\n      pop\n      jump\t// out\n        /* \"#utility.yul\":14381:14774   */\n    tag_109:\n        /* \"#utility.yul\":14450:14456   */\n      0x00\n        /* \"#utility.yul\":14500:14501   */\n      0x08\n        /* \"#utility.yul\":14488:14498   */\n      dup4\n        /* \"#utility.yul\":14484:14502   */\n      mul\n        /* \"#utility.yul\":14523:14620   */\n      tag_258\n        /* \"#utility.yul\":14553:14619   */\n      0xffffffffffffffffffffffffffffffffffffffffffffffffffffffffffffffff\n        /* \"#utility.yul\":14542:14551   */\n      dup3\n        /* \"#utility.yul\":14523:14620   */\n      tag_108\n      jump\t// in\n    tag_258:\n        /* \"#utility.yul\":14641:14680   */\n      tag_259\n        /* \"#utility.yul\":14671:14679   */\n      dup7\n        /* \"#utility.yul\":14660:14669   */\n      dup4\n        /* \"#utility.yul\":14641:14680   */\n      tag_108\n      jump\t// in\n    tag_259:\n        /* \"#utility.yul\":14629:14680   */\n      swap6\n      pop\n        /* \"#utility.yul\":14713:14717   */\n      dup1\n        /* \"#utility.yul\":14709:14718   */\n      not\n        /* \"#utility.yul\":14702:14707   */\n      dup5\n        /* \"#utility.yul\":14698:14719   */\n      and\n        /* \"#utility.yul\":14689:14719   */\n      swap4\n      pop\n        /* \"#utility.yul\":14762:14766   */\n      dup1\n        /* \"#utility.yul\":14752:14760   */\n      dup7\n        /* \"#utility.yul\":14748:14767   */\n      and\n        /* \"#utility.yul\":14741:14746   */\n      dup5\n        /* \"#utility.yul\":14738:14768   */\n      or\n        /* \"#utility.yul\":14728:14768   */\n      swap3\n      pop\n        /* \"#utility.yul\":14457:14774   */\n      pop\n      pop\n        /* \"#utility.yul\":14381:14774   */\n      swap4\n      swap3\n      pop\n      pop\n      pop\n      jump\t// out\n        /* \"#utility.yul\":14780:14840   */\n    tag_110:\n        /* \"#utility.yul\":14808:14811   */\n      0x00\n        /* \"#utility.yul\":14829:14834   */\n      dup2\n        /* \"#utility.yul\":14822:14834   */\n      swap1\n      pop\n        /* \"#utility.yul\":14780:14840   */\n      swap2\n      swap1\n      pop\n      jump\t// out\n        /* \"#utility.yul\":14846:14988   */\n    tag_111:\n        /* \"#utility.yul\":14896:14905   */\n      0x00\n        /* \"#utility.yul\":14929:14982   */\n      tag_262\n        /* \"#utility.yul\":14947:14981   */\n      tag_263\n        /* \"#utility.yul\":14956:14980   */\n      tag_264\n        /* \"#utility.yul\":14974:14979   */\n      dup5\n        /* \"#utility.yul\":14956:14980   */\n      tag_72\n      jump\t// in\n    tag_264:\n        /* \"#utility.yul\":14947:14981   */\n      tag_110\n      jump\t// in\n    tag_263:\n        /* \"#utility.yul\":14929:14982   */\n      tag_72\n      jump\t// in\n    tag_262:\n        /* \"#utility.yul\":14916:14982   */\n      swap1\n      pop\n        /* \"#utility.yul\":14846:14988   */\n      swap2\n      swap1\n      pop\n      jump\t// out\n        /* \"#utility.yul\":14994:15069   */\n    tag_112:\n        /* \"#utility.yul\":15037:15040   */\n      0x00\n        /* \"#utility.yul\":15058:15063   */\n      dup2\n        /* \"#utility.yul\":15051:15063   */\n      swap1\n      pop\n        /* \"#utility.yul\":14994:15069   */\n      swap2\n      swap1\n      pop\n      jump\t// out\n        /* \"#utility.yul\":15075:15344   */\n    tag_113:\n        /* \"#utility.yul\":15185:15224   */\n      tag_267\n        /* \"#utility.yul\":15216:15223   */\n      dup4\n        /* \"#utility.yul\":15185:15224   */\n      tag_111\n      jump\t// in\n    tag_267:\n        /* \"#utility.yul\":15246:15337   */\n      tag_268\n        /* \"#utility.yul\":15295:15336   */\n      tag_269\n        /* \"#utility.yul\":15319:15335   */\n      dup3\n        /* \"#utility.yul\":15295:15336   */\n      tag_112\n      jump\t// in\n    tag_269:\n        /* \"#utility.yul\":15287:15293   */\n      dup5\n        /* \"#utility.yul\":15280:15284   */\n      dup5\n        /* \"#utility.yul\":15274:15285   */\n      sload\n        /* \"#utility.yul\":15246:15337   */\n      tag_109\n      jump\t// in\n    tag_268:\n        /* \"#utility.yul\":15240:15244   */\n      dup3\n        /* \"#utility.yul\":15233:15338   */\n      sstore\n        /* \"#utility.yul\":15151:15344   */\n      pop\n        /* \"#utility.yul\":15075:15344   */\n      pop\n      pop\n      pop\n      jump\t// out\n        /* \"#utility.yul\":15350:15423   */\n    tag_114:\n        /* \"#utility.yul\":15395:15398   */\n      0x00\n        /* \"#utility.yul\":15350:15423   */\n      swap1\n      jump\t// out\n        /* \"#utility.yul\":15429:15618   */\n    tag_115:\n        /* \"#utility.yul\":15506:15538   */\n      tag_272\n      tag_114\n      jump\t// in\n    tag_272:\n        /* \"#utility.yul\":15547:15612   */\n      tag_273\n        /* \"#utility.yul\":15605:15611   */\n      dup2\n        /* \"#utility.yul\":15597:15603   */\n      dup5\n        /* \"#utility.yul\":15591:15595   */\n      dup5\n        /* \"#utility.yul\":15547:15612   */\n      tag_113\n      jump\t// in\n    tag_273:\n        /* \"#utility.yul\":15482:15618   */\n      pop\n        /* \"#utility.yul\":15429:15618   */\n      pop\n      pop\n      jump\t// out\n        /* \"#utility.yul\":15624:15810   */\n    tag_116:\n        /* \"#utility.yul\":15684:15804   */\n    tag_275:\n        /* \"#utility.yul\":15701:15704   */\n      dup2\n        /* \"#utility.yul\":15694:15699   */\n      dup2\n        /* \"#utility.yul\":15691:15705   */\n      lt\n        /* \"#utility.yul\":15684:15804   */\n      iszero\n      tag_277\n      jumpi\n        /* \"#utility.yul\":15755:15794   */\n      tag_278\n        /* \"#utility.yul\":15792:15793   */\n      0x00\n        /* \"#utility.yul\":15785:15790   */\n      dup3\n        /* \"#utility.yul\":15755:15794   */\n      tag_115\n      jump\t// in\n    tag_278:\n        /* \"#utility.yul\":15728:15729   */\n      0x01\n        /* \"#utility.yul\":15721:15726   */\n      dup2\n        /* \"#utility.yul\":15717:15730   */\n      add\n        /* \"#utility.yul\":15708:15730   */\n      swap1\n      pop\n        /* \"#utility.yul\":15684:15804   */\n      jump(tag_275)\n    tag_277:\n        /* \"#utility.yul\":15624:15810   */\n      pop\n      pop\n      jump\t// out\n        /* \"#utility.yul\":15816:16359   */\n    tag_117:\n        /* \"#utility.yul\":15917:15919   */\n      0x1f\n        /* \"#utility.yul\":15912:15915   */\n      dup3\n        /* \"#utility.yul\":15909:15920   */\n      gt\n        /* \"#utility.yul\":15906:16352   */\n      iszero\n      tag_280\n      jumpi\n        /* \"#utility.yul\":15951:15989   */\n      tag_281\n        /* \"#utility.yul\":15983:15988   */\n      dup2\n        /* \"#utility.yul\":15951:15989   */\n      tag_106\n      jump\t// in\n    tag_281:\n        /* \"#utility.yul\":16035:16064   */\n      tag_282\n        /* \"#utility.yul\":16053:16063   */\n      dup5\n        /* \"#utility.yul\":16035:16064   */\n      tag_107\n      jump\t// in\n    tag_282:\n        /* \"#utility.yul\":16025:16033   */\n      dup2\n        /* \"#utility.yul\":16021:16065   */\n      add\n        /* \"#utility.yul\":16218:16220   */\n      0x20\n        /* \"#utility.yul\":16206:16216   */\n      dup6\n        /* \"#utility.yul\":16203:16221   */\n      lt\n        /* \"#utility.yul\":16200:16249   */\n      iszero\n      tag_283\n      jumpi\n        /* \"#utility.yul\":16239:16247   */\n      dup2\n        /* \"#utility.yul\":16224:16247   */\n      swap1\n      pop\n        /* \"#utility.yul\":16200:16249   */\n    tag_283:\n        /* \"#utility.yul\":16262:16342   */\n      tag_284\n        /* \"#utility.yul\":16318:16340   */\n      tag_285\n        /* \"#utility.yul\":16336:16339   */\n      dup6\n        /* \"#utility.yul\":16318:16340   */\n      tag_107\n      jump\t// in\n    tag_285:\n        /* \"#utility.yul\":16308:16316   */\n      dup4\n        /* \"#utility.yul\":16304:16341   */\n      add\n        /* \"#utility.yul\":16291:16302   */\n      dup3\n        /* \"#utility.yul\":16262:16342   */\n      tag_116\n      jump\t// in\n    tag_284:\n        /* \"#utility.yul\":15921:16352   */\n      pop\n      pop\n        /* \"#utility.yul\":15906:16352   */\n    tag_280:\n        /* \"#utility.yul\":15816:16359   */\n      pop\n      pop\n      pop\n      jump\t// out\n        /* \"#utility.yul\":16365:16482   */\n    tag_118:\n        /* \"#utility.yul\":16419:16427   */\n      0x00\n        /* \"#utility.yul\":16469:16474   */\n      dup3\n        /* \"#utility.yul\":16463:16467   */\n      dup3\n        /* \"#utility.yul\":16459:16475   */\n      shr\n        /* \"#utility.yul\":16438:16475   */\n      swap1\n      pop\n        /* \"#utility.yul\":16365:16482   */\n      swap3\n      swap2\n      pop\n      pop\n      jump\t// out\n        /* \"#utility.yul\":16488:16657   */\n    tag_119:\n        /* \"#utility.yul\":16532:16538   */\n      0x00\n        /* \"#utility.yul\":16565:16616   */\n      tag_288\n        /* \"#utility.yul\":16613:16614   */\n      0x00\n        /* \"#utility.yul\":16609:16615   */\n      not\n        /* \"#utility.yul\":16601:16606   */\n      dup5\n        /* \"#utility.yul\":16598:16599   */\n      0x08\n        /* \"#utility.yul\":16594:16607   */\n      mul\n        /* \"#utility.yul\":16565:16616   */\n      tag_118\n      jump\t// in\n    tag_288:\n        /* \"#utility.yul\":16561:16617   */\n      not\n        /* \"#utility.yul\":16646:16650   */\n      dup1\n        /* \"#utility.yul\":16640:16644   */\n      dup4\n        /* \"#utility.yul\":16636:16651   */\n      and\n        /* \"#utility.yul\":16626:16651   */\n      swap2\n      pop\n        /* \"#utility.yul\":16539:16657   */\n      pop\n        /* \"#utility.yul\":16488:16657   */\n      swap3\n      swap2\n      pop\n      pop\n      jump\t// out\n        /* \"#utility.yul\":16662:16957   */\n    tag_120:\n        /* \"#utility.yul\":16738:16742   */\n      0x00\n        /* \"#utility.yul\":16884:16913   */\n      tag_290\n        /* \"#utility.yul\":16909:16912   */\n      dup4\n        /* \"#utility.yul\":16903:16907   */\n      dup4\n        /* \"#utility.yul\":16884:16913   */\n      tag_119\n      jump\t// in\n    tag_290:\n        /* \"#utility.yul\":16876:16913   */\n      swap2\n      pop\n        /* \"#utility.yul\":16946:16949   */\n      dup3\n        /* \"#utility.yul\":16943:16944   */\n      0x02\n        /* \"#utility.yul\":16939:16950   */\n      mul\n        /* \"#utility.yul\":16933:16937   */\n      dup3\n        /* \"#utility.yul\":16930:16951   */\n      or\n        /* \"#utility.yul\":16922:16951   */\n      swap1\n      pop\n        /* \"#utility.yul\":16662:16957   */\n      swap3\n      swap2\n      pop\n      pop\n      jump\t// out\n        /* \"#utility.yul\":16962:18357   */\n    tag_52:\n        /* \"#utility.yul\":17079:17116   */\n      tag_292\n        /* \"#utility.yul\":17112:17115   */\n      dup3\n        /* \"#utility.yul\":17079:17116   */\n      tag_76\n      jump\t// in\n    tag_292:\n        /* \"#utility.yul\":17181:17199   */\n      0xffffffffffffffff\n        /* \"#utility.yul\":17173:17179   */\n      dup2\n        /* \"#utility.yul\":17170:17200   */\n      gt\n        /* \"#utility.yul\":17167:17223   */\n      iszero\n      tag_293\n      jumpi\n        /* \"#utility.yul\":17203:17221   */\n      tag_294\n      tag_95\n      jump\t// in\n    tag_294:\n        /* \"#utility.yul\":17167:17223   */\n    tag_293:\n        /* \"#utility.yul\":17247:17285   */\n      tag_295\n        /* \"#utility.yul\":17279:17283   */\n      dup3\n        /* \"#utility.yul\":17273:17284   */\n      sload\n        /* \"#utility.yul\":17247:17285   */\n      tag_32\n      jump\t// in\n    tag_295:\n        /* \"#utility.yul\":17332:17399   */\n      tag_296\n        /* \"#utility.yul\":17392:17398   */\n      dup3\n        /* \"#utility.yul\":17384:17390   */\n      dup3\n        /* \"#utility.yul\":17378:17382   */\n      dup6\n        /* \"#utility.yul\":17332:17399   */\n      tag_117\n      jump\t// in\n    tag_296:\n        /* \"#utility.yul\":17426:17427   */\n      0x00\n        /* \"#utility.yul\":17450:17454   */\n      0x20\n        /* \"#utility.yul\":17437:17454   */\n      swap1\n      pop\n        /* \"#utility.yul\":17482:17484   */\n      0x1f\n        /* \"#utility.yul\":17474:17480   */\n      dup4\n        /* \"#utility.yul\":17471:17485   */\n      gt\n        /* \"#utility.yul\":17499:17500   */\n      0x01\n        /* \"#utility.yul\":17494:18112   */\n      dup2\n      eq\n      tag_298\n      jumpi\n        /* \"#utility.yul\":18156:18157   */\n      0x00\n        /* \"#utility.yul\":18173:18179   */\n      dup5\n        /* \"#utility.yul\":18170:18247   */\n      iszero\n      tag_299\n      jumpi\n        /* \"#utility.yul\":18222:18231   */\n      dup3\n        /* \"#utility.yul\":18217:18220   */\n      dup8\n        /* \"#utility.yul\":18213:18232   */\n      add\n        /* \"#utility.yul\":18207:18233   */\n      mload\n        /* \"#utility.yul\":18198:18233   */\n      swap1\n      pop\n        /* \"#utility.yul\":18170:18247   */\n    tag_299:\n        /* \"#utility.yul\":18273:18340   */\n      tag_300\n        /* \"#utility.yul\":18333:18339   */\n      dup6\n        /* \"#utility.yul\":18326:18331   */\n      dup3\n        /* \"#utility.yul\":18273:18340   */\n      tag_120\n      jump\t// in\n    tag_300:\n        /* \"#utility.yul\":18267:18271   */\n      dup7\n        /* \"#utility.yul\":18260:18341   */\n      sstore\n        /* \"#utility.yul\":18129:18351   */\n      pop\n        /* \"#utility.yul\":17464:18351   */\n      jump(tag_297)\n        /* \"#utility.yul\":17494:18112   */\n    tag_298:\n        /* \"#utility.yul\":17546:17550   */\n      0x1f\n        /* \"#utility.yul\":17542:17551   */\n      not\n        /* \"#utility.yul\":17534:17540   */\n      dup5\n        /* \"#utility.yul\":17530:17552   */\n      and\n        /* \"#utility.yul\":17580:17617   */\n      tag_301\n        /* \"#utility.yul\":17612:17616   */\n      dup7\n        /* \"#utility.yul\":17580:17617   */\n      tag_106\n      jump\t// in\n    tag_301:\n        /* \"#utility.yul\":17639:17640   */\n      0x00\n        /* \"#utility.yul\":17653:17861   */\n    tag_302:\n        /* \"#utility.yul\":17667:17674   */\n      dup3\n        /* \"#utility.yul\":17664:17665   */\n      dup2\n        /* \"#utility.yul\":17661:17675   */\n      lt\n        /* \"#utility.yul\":17653:17861   */\n      iszero\n      tag_304\n      jumpi\n        /* \"#utility.yul\":17746:17755   */\n      dup5\n        /* \"#utility.yul\":17741:17744   */\n      dup10\n        /* \"#utility.yul\":17737:17756   */\n      add\n        /* \"#utility.yul\":17731:17757   */\n      mload\n        /* \"#utility.yul\":17723:17729   */\n      dup3\n        /* \"#utility.yul\":17716:17758   */\n      sstore\n        /* \"#utility.yul\":17797:17798   */\n      0x01\n        /* \"#utility.yul\":17789:17795   */\n      dup3\n        /* \"#utility.yul\":17785:17799   */\n      add\n        /* \"#utility.yul\":17775:17799   */\n      swap2\n      pop\n        /* \"#utility.yul\":17844:17846   */\n      0x20\n        /* \"#utility.yul\":17833:17842   */\n      dup6\n        /* \"#utility.yul\":17829:17847   */\n      add\n        /* \"#utility.yul\":17816:17847   */\n      swap5\n      pop\n        /* \"#utility.yul\":17690:17694   */\n      0x20\n        /* \"#utility.yul\":17687:17688   */\n      dup2\n        /* \"#utility.yul\":17683:17695   */\n      add\n        /* \"#utility.yul\":17678:17695   */\n      swap1\n      pop\n        /* \"#utility.yul\":17653:17861   */\n      jump(tag_302)\n    tag_304:\n        /* \"#utility.yul\":17889:17895   */\n      dup7\n        /* \"#utility.yul\":17880:17887   */\n      dup4\n        /* \"#utility.yul\":17877:17896   */\n      lt\n        /* \"#utility.yul\":17874:18053   */\n      iszero\n      tag_305\n      jumpi\n        /* \"#utility.yul\":17947:17956   */\n      dup5\n        /* \"#utility.yul\":17942:17945   */\n      dup10\n        /* \"#utility.yul\":17938:17957   */\n      add\n        /* \"#utility.yul\":17932:17958   */\n      mload\n        /* \"#utility.yul\":17990:18038   */\n      tag_306\n        /* \"#utility.yul\":18032:18036   */\n      0x1f\n        /* \"#utility.yul\":18024:18030   */\n      dup10\n        /* \"#utility.yul\":18020:18037   */\n      and\n        /* \"#utility.yul\":18009:18018   */\n      dup3\n        /* \"#utility.yul\":17990:18038   */\n      tag_119\n      jump\t// in\n    tag_306:\n        /* \"#utility.yul\":17982:17988   */\n      dup4\n        /* \"#utility.yul\":17975:18039   */\n      sstore\n        /* \"#utility.yul\":17897:18053   */\n      pop\n        /* \"#utility.yul\":17874:18053   */\n    tag_305:\n        /* \"#utility.yul\":18099:18100   */\n      0x01\n        /* \"#utility.yul\":18095:18096   */\n      0x02\n        /* \"#utility.yul\":18087:18093   */\n      dup9\n        /* \"#utility.yul\":18083:18097   */\n      mul\n        /* \"#utility.yul\":18079:18101   */\n      add\n        /* \"#utility.yul\":18073:18077   */\n      dup9\n        /* \"#utility.yul\":18066:18102   */\n      sstore\n        /* \"#utility.yul\":17501:18112   */\n      pop\n      pop\n      pop\n        /* \"#utility.yul\":17464:18351   */\n    tag_297:\n      pop\n        /* \"#utility.yul\":17054:18357   */\n      pop\n      pop\n      pop\n        /* \"#utility.yul\":16962:18357   */\n      pop\n      pop\n      jump\t// out\n        /* \"#utility.yul\":18363:18543   */\n    tag_58:\n        /* \"#utility.yul\":18411:18488   */\n      0x4e487b7100000000000000000000000000000000000000000000000000000000\n        /* \"#utility.yul\":18408:18409   */\n      0x00\n        /* \"#utility.yul\":18401:18489   */\n      mstore\n        /* \"#utility.yul\":18508:18512   */\n      0x32\n        /* \"#utility.yul\":18505:18506   */\n      0x04\n        /* \"#utility.yul\":18498:18513   */\n      mstore\n        /* \"#utility.yul\":18532:18536   */\n      0x24\n        /* \"#utility.yul\":18529:18530   */\n      0x00\n        /* \"#utility.yul\":18522:18537   */\n      revert\n\n    auxdata: 0xa26469706673582212201c69227745675fbc614a1fdaac274c0b515c2109731a86a69ebde1b748e3a02264736f6c63430008160033\n}\n",
				"bytecode": {
					"linkReferences": {},
					"object": "608060405234801561000f575f80fd5b50610fc58061001d5f395ff3fe608060405234801561000f575f80fd5b506004361061004a575f3560e01c806305a1b4a91461004e57806312e7ee1c146100815780637c9cd2bc146100b1578063c3ad5ecb146100cd575b5f80fd5b61006860048036038101906100639190610717565b6100fd565b60405161007894939291906107fd565b60405180910390f35b61009b60048036038101906100969190610847565b6101e7565b6040516100a891906109f3565b60405180910390f35b6100cb60048036038101906100c69190610b3f565b610377565b005b6100e760048036038101906100e29190610b86565b6104d2565b6040516100f49190610c11565b60405180910390f35b5f602052815f5260405f208181548110610115575f80fd5b905f5260205f2090600402015f9150915050805f015f9054906101000a900473ffffffffffffffffffffffffffffffffffffffff169080600101805461015a90610c5e565b80601f016020809104026020016040519081016040528092919081815260200182805461018690610c5e565b80156101d15780601f106101a8576101008083540402835291602001916101d1565b820191905f5260205f20905b8154815290600101906020018083116101b457829003601f168201915b5050505050908060020154908060030154905084565b60605f808373ffffffffffffffffffffffffffffffffffffffff1673ffffffffffffffffffffffffffffffffffffffff1681526020019081526020015f20805480602002602001604051908101604052809291908181526020015f905b8282101561036c578382905f5260205f2090600402016040518060800160405290815f82015f9054906101000a900473ffffffffffffffffffffffffffffffffffffffff1673ffffffffffffffffffffffffffffffffffffffff1673ffffffffffffffffffffffffffffffffffffffff1681526020016001820180546102c990610c5e565b80601f01602080910402602001604051908101604052809291908181526020018280546102f590610c5e565b80156103405780601f1061031757610100808354040283529160200191610340565b820191905f5260205f20905b81548152906001019060200180831161032357829003601f168201915b505050505081526020016002820154815260200160038201548152505081526020019060010190610244565b505050509050919050565b61011861ffff16815111156103c1576040517f08c379a00000000000000000000000000000000000000000000000000000000081526004016103b890610cd8565b60405180910390fd5b5f60405180608001604052803373ffffffffffffffffffffffffffffffffffffffff1681526020018381526020014281526020015f81525090505f803373ffffffffffffffffffffffffffffffffffffffff1673ffffffffffffffffffffffffffffffffffffffff1681526020019081526020015f2081908060018154018082558091505060019003905f5260205f2090600402015f909190919091505f820151815f015f6101000a81548173ffffffffffffffffffffffffffffffffffffffff021916908373ffffffffffffffffffffffffffffffffffffffff16021790555060208201518160010190816104b79190610e93565b50604082015181600201556060820151816003015550505050565b6104da61063e565b5f803373ffffffffffffffffffffffffffffffffffffffff1673ffffffffffffffffffffffffffffffffffffffff1681526020019081526020015f20828154811061052857610527610f62565b5b905f5260205f2090600402016040518060800160405290815f82015f9054906101000a900473ffffffffffffffffffffffffffffffffffffffff1673ffffffffffffffffffffffffffffffffffffffff1673ffffffffffffffffffffffffffffffffffffffff1681526020016001820180546105a390610c5e565b80601f01602080910402602001604051908101604052809291908181526020018280546105cf90610c5e565b801561061a5780601f106105f15761010080835404028352916020019161061a565b820191905f5260205f20905b8154815290600101906020018083116105fd57829003601f168201915b50505050508152602001600282015481526020016003820154815250509050919050565b60405180608001604052805f73ffffffffffffffffffffffffffffffffffffffff168152602001606081526020015f81526020015f81525090565b5f604051905090565b5f80fd5b5f80fd5b5f73ffffffffffffffffffffffffffffffffffffffff82169050919050565b5f6106b38261068a565b9050919050565b6106c3816106a9565b81146106cd575f80fd5b50565b5f813590506106de816106ba565b92915050565b5f819050919050565b6106f6816106e4565b8114610700575f80fd5b50565b5f81359050610711816106ed565b92915050565b5f806040838503121561072d5761072c610682565b5b5f61073a858286016106d0565b925050602061074b85828601610703565b9150509250929050565b61075e816106a9565b82525050565b5f81519050919050565b5f82825260208201905092915050565b5f5b8381101561079b578082015181840152602081019050610780565b5f8484015250505050565b5f601f19601f8301169050919050565b5f6107c082610764565b6107ca818561076e565b93506107da81856020860161077e565b6107e3816107a6565b840191505092915050565b6107f7816106e4565b82525050565b5f6080820190506108105f830187610755565b818103602083015261082281866107b6565b905061083160408301856107ee565b61083e60608301846107ee565b95945050505050565b5f6020828403121561085c5761085b610682565b5b5f610869848285016106d0565b91505092915050565b5f81519050919050565b5f82825260208201905092915050565b5f819050602082019050919050565b6108a4816106a9565b82525050565b5f82825260208201905092915050565b5f6108c482610764565b6108ce81856108aa565b93506108de81856020860161077e565b6108e7816107a6565b840191505092915050565b6108fb816106e4565b82525050565b5f608083015f8301516109165f86018261089b565b506020830151848203602086015261092e82826108ba565b915050604083015161094360408601826108f2565b50606083015161095660608601826108f2565b508091505092915050565b5f61096c8383610901565b905092915050565b5f602082019050919050565b5f61098a82610872565b610994818561087c565b9350836020820285016109a68561088c565b805f5b858110156109e157848403895281516109c28582610961565b94506109cd83610974565b925060208a019950506001810190506109a9565b50829750879550505050505092915050565b5f6020820190508181035f830152610a0b8184610980565b905092915050565b5f80fd5b5f80fd5b7f4e487b71000000000000000000000000000000000000000000000000000000005f52604160045260245ffd5b610a51826107a6565b810181811067ffffffffffffffff82111715610a7057610a6f610a1b565b5b80604052505050565b5f610a82610679565b9050610a8e8282610a48565b919050565b5f67ffffffffffffffff821115610aad57610aac610a1b565b5b610ab6826107a6565b9050602081019050919050565b828183375f83830152505050565b5f610ae3610ade84610a93565b610a79565b905082815260208101848484011115610aff57610afe610a17565b5b610b0a848285610ac3565b509392505050565b5f82601f830112610b2657610b25610a13565b5b8135610b36848260208601610ad1565b91505092915050565b5f60208284031215610b5457610b53610682565b5b5f82013567ffffffffffffffff811115610b7157610b70610686565b5b610b7d84828501610b12565b91505092915050565b5f60208284031215610b9b57610b9a610682565b5b5f610ba884828501610703565b91505092915050565b5f608083015f830151610bc65f86018261089b565b5060208301518482036020860152610bde82826108ba565b9150506040830151610bf360408601826108f2565b506060830151610c0660608601826108f2565b508091505092915050565b5f6020820190508181035f830152610c298184610bb1565b905092915050565b7f4e487b71000000000000000000000000000000000000000000000000000000005f52602260045260245ffd5b5f6002820490506001821680610c7557607f821691505b602082108103610c8857610c87610c31565b5b50919050565b7f547765657420697320746f6f206c6f6e672062726f21210000000000000000005f82015250565b5f610cc260178361076e565b9150610ccd82610c8e565b602082019050919050565b5f6020820190508181035f830152610cef81610cb6565b9050919050565b5f819050815f5260205f209050919050565b5f6020601f8301049050919050565b5f82821b905092915050565b5f60088302610d527fffffffffffffffffffffffffffffffffffffffffffffffffffffffffffffffff82610d17565b610d5c8683610d17565b95508019841693508086168417925050509392505050565b5f819050919050565b5f610d97610d92610d8d846106e4565b610d74565b6106e4565b9050919050565b5f819050919050565b610db083610d7d565b610dc4610dbc82610d9e565b848454610d23565b825550505050565b5f90565b610dd8610dcc565b610de3818484610da7565b505050565b5b81811015610e0657610dfb5f82610dd0565b600181019050610de9565b5050565b601f821115610e4b57610e1c81610cf6565b610e2584610d08565b81016020851015610e34578190505b610e48610e4085610d08565b830182610de8565b50505b505050565b5f82821c905092915050565b5f610e6b5f1984600802610e50565b1980831691505092915050565b5f610e838383610e5c565b9150826002028217905092915050565b610e9c82610764565b67ffffffffffffffff811115610eb557610eb4610a1b565b5b610ebf8254610c5e565b610eca828285610e0a565b5f60209050601f831160018114610efb575f8415610ee9578287015190505b610ef38582610e78565b865550610f5a565b601f198416610f0986610cf6565b5f5b82811015610f3057848901518255600182019150602085019450602081019050610f0b565b86831015610f4d5784890151610f49601f891682610e5c565b8355505b6001600288020188555050505b505050505050565b7f4e487b71000000000000000000000000000000000000000000000000000000005f52603260045260245ffdfea26469706673582212201c69227745675fbc614a1fdaac274c0b515c2109731a86a69ebde1b748e3a02264736f6c63430008160033",
					"opcodes": "PUSH1 0x80 PUSH1 0x40 MSTORE CALLVALUE DUP1 ISZERO PUSH2 0xF JUMPI PUSH0 DUP1 REVERT JUMPDEST POP PUSH2 0xFC5 DUP1 PUSH2 0x1D PUSH0 CODECOPY PUSH0 RETURN INVALID PUSH1 0x80 PUSH1 0x40 MSTORE CALLVALUE DUP1 ISZERO PUSH2 0xF JUMPI PUSH0 DUP1 REVERT JUMPDEST POP PUSH1 0x4 CALLDATASIZE LT PUSH2 0x4A JUMPI PUSH0 CALLDATALOAD PUSH1 0xE0 SHR DUP1 PUSH4 0x5A1B4A9 EQ PUSH2 0x4E JUMPI DUP1 PUSH4 0x12E7EE1C EQ PUSH2 0x81 JUMPI DUP1 PUSH4 0x7C9CD2BC EQ PUSH2 0xB1 JUMPI DUP1 PUSH4 0xC3AD5ECB EQ PUSH2 0xCD JUMPI JUMPDEST PUSH0 DUP1 REVERT JUMPDEST PUSH2 0x68 PUSH1 0x4 DUP1 CALLDATASIZE SUB DUP2 ADD SWAP1 PUSH2 0x63 SWAP2 SWAP1 PUSH2 0x717 JUMP JUMPDEST PUSH2 0xFD JUMP JUMPDEST PUSH1 0x40 MLOAD PUSH2 0x78 SWAP5 SWAP4 SWAP3 SWAP2 SWAP1 PUSH2 0x7FD JUMP JUMPDEST PUSH1 0x40 MLOAD DUP1 SWAP2 SUB SWAP1 RETURN JUMPDEST PUSH2 0x9B PUSH1 0x4 DUP1 CALLDATASIZE SUB DUP2 ADD SWAP1 PUSH2 0x96 SWAP2 SWAP1 PUSH2 0x847 JUMP JUMPDEST PUSH2 0x1E7 JUMP JUMPDEST PUSH1 0x40 MLOAD PUSH2 0xA8 SWAP2 SWAP1 PUSH2 0x9F3 JUMP JUMPDEST PUSH1 0x40 MLOAD DUP1 SWAP2 SUB SWAP1 RETURN JUMPDEST PUSH2 0xCB PUSH1 0x4 DUP1 CALLDATASIZE SUB DUP2 ADD SWAP1 PUSH2 0xC6 SWAP2 SWAP1 PUSH2 0xB3F JUMP JUMPDEST PUSH2 0x377 JUMP JUMPDEST STOP JUMPDEST PUSH2 0xE7 PUSH1 0x4 DUP1 CALLDATASIZE SUB DUP2 ADD SWAP1 PUSH2 0xE2 SWAP2 SWAP1 PUSH2 0xB86 JUMP JUMPDEST PUSH2 0x4D2 JUMP JUMPDEST PUSH1 0x40 MLOAD PUSH2 0xF4 SWAP2 SWAP1 PUSH2 0xC11 JUMP JUMPDEST PUSH1 0x40 MLOAD DUP1 SWAP2 SUB SWAP1 RETURN JUMPDEST PUSH0 PUSH1 0x20 MSTORE DUP2 PUSH0 MSTORE PUSH1 0x40 PUSH0 KECCAK256 DUP2 DUP2 SLOAD DUP2 LT PUSH2 0x115 JUMPI PUSH0 DUP1 REVERT JUMPDEST SWAP1 PUSH0 MSTORE PUSH1 0x20 PUSH0 KECCAK256 SWAP1 PUSH1 0x4 MUL ADD PUSH0 SWAP2 POP SWAP2 POP POP DUP1 PUSH0 ADD PUSH0 SWAP1 SLOAD SWAP1 PUSH2 0x100 EXP SWAP1 DIV PUSH20 0xFFFFFFFFFFFFFFFFFFFFFFFFFFFFFFFFFFFFFFFF AND SWAP1 DUP1 PUSH1 0x1 ADD DUP1 SLOAD PUSH2 0x15A SWAP1 PUSH2 0xC5E JUMP JUMPDEST DUP1 PUSH1 0x1F ADD PUSH1 0x20 DUP1 SWAP2 DIV MUL PUSH1 0x20 ADD PUSH1 0x40 MLOAD SWAP1 DUP2 ADD PUSH1 0x40 MSTORE DUP1 SWAP3 SWAP2 SWAP1 DUP2 DUP2 MSTORE PUSH1 0x20 ADD DUP3 DUP1 SLOAD PUSH2 0x186 SWAP1 PUSH2 0xC5E JUMP JUMPDEST DUP1 ISZERO PUSH2 0x1D1 JUMPI DUP1 PUSH1 0x1F LT PUSH2 0x1A8 JUMPI PUSH2 0x100 DUP1 DUP4 SLOAD DIV MUL DUP4 MSTORE SWAP2 PUSH1 0x20 ADD SWAP2 PUSH2 0x1D1 JUMP JUMPDEST DUP3 ADD SWAP2 SWAP1 PUSH0 MSTORE PUSH1 0x20 PUSH0 KECCAK256 SWAP1 JUMPDEST DUP2 SLOAD DUP2 MSTORE SWAP1 PUSH1 0x1 ADD SWAP1 PUSH1 0x20 ADD DUP1 DUP4 GT PUSH2 0x1B4 JUMPI DUP3 SWAP1 SUB PUSH1 0x1F AND DUP3 ADD SWAP2 JUMPDEST POP POP POP POP POP SWAP1 DUP1 PUSH1 0x2 ADD SLOAD SWAP1 DUP1 PUSH1 0x3 ADD SLOAD SWAP1 POP DUP5 JUMP JUMPDEST PUSH1 0x60 PUSH0 DUP1 DUP4 PUSH20 0xFFFFFFFFFFFFFFFFFFFFFFFFFFFFFFFFFFFFFFFF AND PUSH20 0xFFFFFFFFFFFFFFFFFFFFFFFFFFFFFFFFFFFFFFFF AND DUP2 MSTORE PUSH1 0x20 ADD SWAP1 DUP2 MSTORE PUSH1 0x20 ADD PUSH0 KECCAK256 DUP1 SLOAD DUP1 PUSH1 0x20 MUL PUSH1 0x20 ADD PUSH1 0x40 MLOAD SWAP1 DUP2 ADD PUSH1 0x40 MSTORE DUP1 SWAP3 SWAP2 SWAP1 DUP2 DUP2 MSTORE PUSH1 0x20 ADD PUSH0 SWAP1 JUMPDEST DUP3 DUP3 LT ISZERO PUSH2 0x36C JUMPI DUP4 DUP3 SWAP1 PUSH0 MSTORE PUSH1 0x20 PUSH0 KECCAK256 SWAP1 PUSH1 0x4 MUL ADD PUSH1 0x40 MLOAD DUP1 PUSH1 0x80 ADD PUSH1 0x40 MSTORE SWAP1 DUP2 PUSH0 DUP3 ADD PUSH0 SWAP1 SLOAD SWAP1 PUSH2 0x100 EXP SWAP1 DIV PUSH20 0xFFFFFFFFFFFFFFFFFFFFFFFFFFFFFFFFFFFFFFFF AND PUSH20 0xFFFFFFFFFFFFFFFFFFFFFFFFFFFFFFFFFFFFFFFF AND PUSH20 0xFFFFFFFFFFFFFFFFFFFFFFFFFFFFFFFFFFFFFFFF AND DUP2 MSTORE PUSH1 0x20 ADD PUSH1 0x1 DUP3 ADD DUP1 SLOAD PUSH2 0x2C9 SWAP1 PUSH2 0xC5E JUMP JUMPDEST DUP1 PUSH1 0x1F ADD PUSH1 0x20 DUP1 SWAP2 DIV MUL PUSH1 0x20 ADD PUSH1 0x40 MLOAD SWAP1 DUP2 ADD PUSH1 0x40 MSTORE DUP1 SWAP3 SWAP2 SWAP1 DUP2 DUP2 MSTORE PUSH1 0x20 ADD DUP3 DUP1 SLOAD PUSH2 0x2F5 SWAP1 PUSH2 0xC5E JUMP JUMPDEST DUP1 ISZERO PUSH2 0x340 JUMPI DUP1 PUSH1 0x1F LT PUSH2 0x317 JUMPI PUSH2 0x100 DUP1 DUP4 SLOAD DIV MUL DUP4 MSTORE SWAP2 PUSH1 0x20 ADD SWAP2 PUSH2 0x340 JUMP JUMPDEST DUP3 ADD SWAP2 SWAP1 PUSH0 MSTORE PUSH1 0x20 PUSH0 KECCAK256 SWAP1 JUMPDEST DUP2 SLOAD DUP2 MSTORE SWAP1 PUSH1 0x1 ADD SWAP1 PUSH1 0x20 ADD DUP1 DUP4 GT PUSH2 0x323 JUMPI DUP3 SWAP1 SUB PUSH1 0x1F AND DUP3 ADD SWAP2 JUMPDEST POP POP POP POP POP DUP2 MSTORE PUSH1 0x20 ADD PUSH1 0x2 DUP3 ADD SLOAD DUP2 MSTORE PUSH1 0x20 ADD PUSH1 0x3 DUP3 ADD SLOAD DUP2 MSTORE POP POP DUP2 MSTORE PUSH1 0x20 ADD SWAP1 PUSH1 0x1 ADD SWAP1 PUSH2 0x244 JUMP JUMPDEST POP POP POP POP SWAP1 POP SWAP2 SWAP1 POP JUMP JUMPDEST PUSH2 0x118 PUSH2 0xFFFF AND DUP2 MLOAD GT ISZERO PUSH2 0x3C1 JUMPI PUSH1 0x40 MLOAD PUSH32 0x8C379A000000000000000000000000000000000000000000000000000000000 DUP2 MSTORE PUSH1 0x4 ADD PUSH2 0x3B8 SWAP1 PUSH2 0xCD8 JUMP JUMPDEST PUSH1 0x40 MLOAD DUP1 SWAP2 SUB SWAP1 REVERT JUMPDEST PUSH0 PUSH1 0x40 MLOAD DUP1 PUSH1 0x80 ADD PUSH1 0x40 MSTORE DUP1 CALLER PUSH20 0xFFFFFFFFFFFFFFFFFFFFFFFFFFFFFFFFFFFFFFFF AND DUP2 MSTORE PUSH1 0x20 ADD DUP4 DUP2 MSTORE PUSH1 0x20 ADD TIMESTAMP DUP2 MSTORE PUSH1 0x20 ADD PUSH0 DUP2 MSTORE POP SWAP1 POP PUSH0 DUP1 CALLER PUSH20 0xFFFFFFFFFFFFFFFFFFFFFFFFFFFFFFFFFFFFFFFF AND PUSH20 0xFFFFFFFFFFFFFFFFFFFFFFFFFFFFFFFFFFFFFFFF AND DUP2 MSTORE PUSH1 0x20 ADD SWAP1 DUP2 MSTORE PUSH1 0x20 ADD PUSH0 KECCAK256 DUP2 SWAP1 DUP1 PUSH1 0x1 DUP2 SLOAD ADD DUP1 DUP3 SSTORE DUP1 SWAP2 POP POP PUSH1 0x1 SWAP1 SUB SWAP1 PUSH0 MSTORE PUSH1 0x20 PUSH0 KECCAK256 SWAP1 PUSH1 0x4 MUL ADD PUSH0 SWAP1 SWAP2 SWAP1 SWAP2 SWAP1 SWAP2 POP PUSH0 DUP3 ADD MLOAD DUP2 PUSH0 ADD PUSH0 PUSH2 0x100 EXP DUP2 SLOAD DUP2 PUSH20 0xFFFFFFFFFFFFFFFFFFFFFFFFFFFFFFFFFFFFFFFF MUL NOT AND SWAP1 DUP4 PUSH20 0xFFFFFFFFFFFFFFFFFFFFFFFFFFFFFFFFFFFFFFFF AND MUL OR SWAP1 SSTORE POP PUSH1 0x20 DUP3 ADD MLOAD DUP2 PUSH1 0x1 ADD SWAP1 DUP2 PUSH2 0x4B7 SWAP2 SWAP1 PUSH2 0xE93 JUMP JUMPDEST POP PUSH1 0x40 DUP3 ADD MLOAD DUP2 PUSH1 0x2 ADD SSTORE PUSH1 0x60 DUP3 ADD MLOAD DUP2 PUSH1 0x3 ADD SSTORE POP POP POP POP JUMP JUMPDEST PUSH2 0x4DA PUSH2 0x63E JUMP JUMPDEST PUSH0 DUP1 CALLER PUSH20 0xFFFFFFFFFFFFFFFFFFFFFFFFFFFFFFFFFFFFFFFF AND PUSH20 0xFFFFFFFFFFFFFFFFFFFFFFFFFFFFFFFFFFFFFFFF AND DUP2 MSTORE PUSH1 0x20 ADD SWAP1 DUP2 MSTORE PUSH1 0x20 ADD PUSH0 KECCAK256 DUP3 DUP2 SLOAD DUP2 LT PUSH2 0x528 JUMPI PUSH2 0x527 PUSH2 0xF62 JUMP JUMPDEST JUMPDEST SWAP1 PUSH0 MSTORE PUSH1 0x20 PUSH0 KECCAK256 SWAP1 PUSH1 0x4 MUL ADD PUSH1 0x40 MLOAD DUP1 PUSH1 0x80 ADD PUSH1 0x40 MSTORE SWAP1 DUP2 PUSH0 DUP3 ADD PUSH0 SWAP1 SLOAD SWAP1 PUSH2 0x100 EXP SWAP1 DIV PUSH20 0xFFFFFFFFFFFFFFFFFFFFFFFFFFFFFFFFFFFFFFFF AND PUSH20 0xFFFFFFFFFFFFFFFFFFFFFFFFFFFFFFFFFFFFFFFF AND PUSH20 0xFFFFFFFFFFFFFFFFFFFFFFFFFFFFFFFFFFFFFFFF AND DUP2 MSTORE PUSH1 0x20 ADD PUSH1 0x1 DUP3 ADD DUP1 SLOAD PUSH2 0x5A3 SWAP1 PUSH2 0xC5E JUMP JUMPDEST DUP1 PUSH1 0x1F ADD PUSH1 0x20 DUP1 SWAP2 DIV MUL PUSH1 0x20 ADD PUSH1 0x40 MLOAD SWAP1 DUP2 ADD PUSH1 0x40 MSTORE DUP1 SWAP3 SWAP2 SWAP1 DUP2 DUP2 MSTORE PUSH1 0x20 ADD DUP3 DUP1 SLOAD PUSH2 0x5CF SWAP1 PUSH2 0xC5E JUMP JUMPDEST DUP1 ISZERO PUSH2 0x61A JUMPI DUP1 PUSH1 0x1F LT PUSH2 0x5F1 JUMPI PUSH2 0x100 DUP1 DUP4 SLOAD DIV MUL DUP4 MSTORE SWAP2 PUSH1 0x20 ADD SWAP2 PUSH2 0x61A JUMP JUMPDEST DUP3 ADD SWAP2 SWAP1 PUSH0 MSTORE PUSH1 0x20 PUSH0 KECCAK256 SWAP1 JUMPDEST DUP2 SLOAD DUP2 MSTORE SWAP1 PUSH1 0x1 ADD SWAP1 PUSH1 0x20 ADD DUP1 DUP4 GT PUSH2 0x5FD JUMPI DUP3 SWAP1 SUB PUSH1 0x1F AND DUP3 ADD SWAP2 JUMPDEST POP POP POP POP POP DUP2 MSTORE PUSH1 0x20 ADD PUSH1 0x2 DUP3 ADD SLOAD DUP2 MSTORE PUSH1 0x20 ADD PUSH1 0x3 DUP3 ADD SLOAD DUP2 MSTORE POP POP SWAP1 POP SWAP2 SWAP1 POP JUMP JUMPDEST PUSH1 0x40 MLOAD DUP1 PUSH1 0x80 ADD PUSH1 0x40 MSTORE DUP1 PUSH0 PUSH20 0xFFFFFFFFFFFFFFFFFFFFFFFFFFFFFFFFFFFFFFFF AND DUP2 MSTORE PUSH1 0x20 ADD PUSH1 0x60 DUP2 MSTORE PUSH1 0x20 ADD PUSH0 DUP2 MSTORE PUSH1 0x20 ADD PUSH0 DUP2 MSTORE POP SWAP1 JUMP JUMPDEST PUSH0 PUSH1 0x40 MLOAD SWAP1 POP SWAP1 JUMP JUMPDEST PUSH0 DUP1 REVERT JUMPDEST PUSH0 DUP1 REVERT JUMPDEST PUSH0 PUSH20 0xFFFFFFFFFFFFFFFFFFFFFFFFFFFFFFFFFFFFFFFF DUP3 AND SWAP1 POP SWAP2 SWAP1 POP JUMP JUMPDEST PUSH0 PUSH2 0x6B3 DUP3 PUSH2 0x68A JUMP JUMPDEST SWAP1 POP SWAP2 SWAP1 POP JUMP JUMPDEST PUSH2 0x6C3 DUP2 PUSH2 0x6A9 JUMP JUMPDEST DUP2 EQ PUSH2 0x6CD JUMPI PUSH0 DUP1 REVERT JUMPDEST POP JUMP JUMPDEST PUSH0 DUP2 CALLDATALOAD SWAP1 POP PUSH2 0x6DE DUP2 PUSH2 0x6BA JUMP JUMPDEST SWAP3 SWAP2 POP POP JUMP JUMPDEST PUSH0 DUP2 SWAP1 POP SWAP2 SWAP1 POP JUMP JUMPDEST PUSH2 0x6F6 DUP2 PUSH2 0x6E4 JUMP JUMPDEST DUP2 EQ PUSH2 0x700 JUMPI PUSH0 DUP1 REVERT JUMPDEST POP JUMP JUMPDEST PUSH0 DUP2 CALLDATALOAD SWAP1 POP PUSH2 0x711 DUP2 PUSH2 0x6ED JUMP JUMPDEST SWAP3 SWAP2 POP POP JUMP JUMPDEST PUSH0 DUP1 PUSH1 0x40 DUP4 DUP6 SUB SLT ISZERO PUSH2 0x72D JUMPI PUSH2 0x72C PUSH2 0x682 JUMP JUMPDEST JUMPDEST PUSH0 PUSH2 0x73A DUP6 DUP3 DUP7 ADD PUSH2 0x6D0 JUMP JUMPDEST SWAP3 POP POP PUSH1 0x20 PUSH2 0x74B DUP6 DUP3 DUP7 ADD PUSH2 0x703 JUMP JUMPDEST SWAP2 POP POP SWAP3 POP SWAP3 SWAP1 POP JUMP JUMPDEST PUSH2 0x75E DUP2 PUSH2 0x6A9 JUMP JUMPDEST DUP3 MSTORE POP POP JUMP JUMPDEST PUSH0 DUP2 MLOAD SWAP1 POP SWAP2 SWAP1 POP JUMP JUMPDEST PUSH0 DUP3 DUP3 MSTORE PUSH1 0x20 DUP3 ADD SWAP1 POP SWAP3 SWAP2 POP POP JUMP JUMPDEST PUSH0 JUMPDEST DUP4 DUP2 LT ISZERO PUSH2 0x79B JUMPI DUP1 DUP3 ADD MLOAD DUP2 DUP5 ADD MSTORE PUSH1 0x20 DUP2 ADD SWAP1 POP PUSH2 0x780 JUMP JUMPDEST PUSH0 DUP5 DUP5 ADD MSTORE POP POP POP POP JUMP JUMPDEST PUSH0 PUSH1 0x1F NOT PUSH1 0x1F DUP4 ADD AND SWAP1 POP SWAP2 SWAP1 POP JUMP JUMPDEST PUSH0 PUSH2 0x7C0 DUP3 PUSH2 0x764 JUMP JUMPDEST PUSH2 0x7CA DUP2 DUP6 PUSH2 0x76E JUMP JUMPDEST SWAP4 POP PUSH2 0x7DA DUP2 DUP6 PUSH1 0x20 DUP7 ADD PUSH2 0x77E JUMP JUMPDEST PUSH2 0x7E3 DUP2 PUSH2 0x7A6 JUMP JUMPDEST DUP5 ADD SWAP2 POP POP SWAP3 SWAP2 POP POP JUMP JUMPDEST PUSH2 0x7F7 DUP2 PUSH2 0x6E4 JUMP JUMPDEST DUP3 MSTORE POP POP JUMP JUMPDEST PUSH0 PUSH1 0x80 DUP3 ADD SWAP1 POP PUSH2 0x810 PUSH0 DUP4 ADD DUP8 PUSH2 0x755 JUMP JUMPDEST DUP2 DUP2 SUB PUSH1 0x20 DUP4 ADD MSTORE PUSH2 0x822 DUP2 DUP7 PUSH2 0x7B6 JUMP JUMPDEST SWAP1 POP PUSH2 0x831 PUSH1 0x40 DUP4 ADD DUP6 PUSH2 0x7EE JUMP JUMPDEST PUSH2 0x83E PUSH1 0x60 DUP4 ADD DUP5 PUSH2 0x7EE JUMP JUMPDEST SWAP6 SWAP5 POP POP POP POP POP JUMP JUMPDEST PUSH0 PUSH1 0x20 DUP3 DUP5 SUB SLT ISZERO PUSH2 0x85C JUMPI PUSH2 0x85B PUSH2 0x682 JUMP JUMPDEST JUMPDEST PUSH0 PUSH2 0x869 DUP5 DUP3 DUP6 ADD PUSH2 0x6D0 JUMP JUMPDEST SWAP2 POP POP SWAP3 SWAP2 POP POP JUMP JUMPDEST PUSH0 DUP2 MLOAD SWAP1 POP SWAP2 SWAP1 POP JUMP JUMPDEST PUSH0 DUP3 DUP3 MSTORE PUSH1 0x20 DUP3 ADD SWAP1 POP SWAP3 SWAP2 POP POP JUMP JUMPDEST PUSH0 DUP2 SWAP1 POP PUSH1 0x20 DUP3 ADD SWAP1 POP SWAP2 SWAP1 POP JUMP JUMPDEST PUSH2 0x8A4 DUP2 PUSH2 0x6A9 JUMP JUMPDEST DUP3 MSTORE POP POP JUMP JUMPDEST PUSH0 DUP3 DUP3 MSTORE PUSH1 0x20 DUP3 ADD SWAP1 POP SWAP3 SWAP2 POP POP JUMP JUMPDEST PUSH0 PUSH2 0x8C4 DUP3 PUSH2 0x764 JUMP JUMPDEST PUSH2 0x8CE DUP2 DUP6 PUSH2 0x8AA JUMP JUMPDEST SWAP4 POP PUSH2 0x8DE DUP2 DUP6 PUSH1 0x20 DUP7 ADD PUSH2 0x77E JUMP JUMPDEST PUSH2 0x8E7 DUP2 PUSH2 0x7A6 JUMP JUMPDEST DUP5 ADD SWAP2 POP POP SWAP3 SWAP2 POP POP JUMP JUMPDEST PUSH2 0x8FB DUP2 PUSH2 0x6E4 JUMP JUMPDEST DUP3 MSTORE POP POP JUMP JUMPDEST PUSH0 PUSH1 0x80 DUP4 ADD PUSH0 DUP4 ADD MLOAD PUSH2 0x916 PUSH0 DUP7 ADD DUP3 PUSH2 0x89B JUMP JUMPDEST POP PUSH1 0x20 DUP4 ADD MLOAD DUP5 DUP3 SUB PUSH1 0x20 DUP7 ADD MSTORE PUSH2 0x92E DUP3 DUP3 PUSH2 0x8BA JUMP JUMPDEST SWAP2 POP POP PUSH1 0x40 DUP4 ADD MLOAD PUSH2 0x943 PUSH1 0x40 DUP7 ADD DUP3 PUSH2 0x8F2 JUMP JUMPDEST POP PUSH1 0x60 DUP4 ADD MLOAD PUSH2 0x956 PUSH1 0x60 DUP7 ADD DUP3 PUSH2 0x8F2 JUMP JUMPDEST POP DUP1 SWAP2 POP POP SWAP3 SWAP2 POP POP JUMP JUMPDEST PUSH0 PUSH2 0x96C DUP4 DUP4 PUSH2 0x901 JUMP JUMPDEST SWAP1 POP SWAP3 SWAP2 POP POP JUMP JUMPDEST PUSH0 PUSH1 0x20 DUP3 ADD SWAP1 POP SWAP2 SWAP1 POP JUMP JUMPDEST PUSH0 PUSH2 0x98A DUP3 PUSH2 0x872 JUMP JUMPDEST PUSH2 0x994 DUP2 DUP6 PUSH2 0x87C JUMP JUMPDEST SWAP4 POP DUP4 PUSH1 0x20 DUP3 MUL DUP6 ADD PUSH2 0x9A6 DUP6 PUSH2 0x88C JUMP JUMPDEST DUP1 PUSH0 JUMPDEST DUP6 DUP2 LT ISZERO PUSH2 0x9E1 JUMPI DUP5 DUP5 SUB DUP10 MSTORE DUP2 MLOAD PUSH2 0x9C2 DUP6 DUP3 PUSH2 0x961 JUMP JUMPDEST SWAP5 POP PUSH2 0x9CD DUP4 PUSH2 0x974 JUMP JUMPDEST SWAP3 POP PUSH1 0x20 DUP11 ADD SWAP10 POP POP PUSH1 0x1 DUP2 ADD SWAP1 POP PUSH2 0x9A9 JUMP JUMPDEST POP DUP3 SWAP8 POP DUP8 SWAP6 POP POP POP POP POP POP SWAP3 SWAP2 POP POP JUMP JUMPDEST PUSH0 PUSH1 0x20 DUP3 ADD SWAP1 POP DUP2 DUP2 SUB PUSH0 DUP4 ADD MSTORE PUSH2 0xA0B DUP2 DUP5 PUSH2 0x980 JUMP JUMPDEST SWAP1 POP SWAP3 SWAP2 POP POP JUMP JUMPDEST PUSH0 DUP1 REVERT JUMPDEST PUSH0 DUP1 REVERT JUMPDEST PUSH32 0x4E487B7100000000000000000000000000000000000000000000000000000000 PUSH0 MSTORE PUSH1 0x41 PUSH1 0x4 MSTORE PUSH1 0x24 PUSH0 REVERT JUMPDEST PUSH2 0xA51 DUP3 PUSH2 0x7A6 JUMP JUMPDEST DUP2 ADD DUP2 DUP2 LT PUSH8 0xFFFFFFFFFFFFFFFF DUP3 GT OR ISZERO PUSH2 0xA70 JUMPI PUSH2 0xA6F PUSH2 0xA1B JUMP JUMPDEST JUMPDEST DUP1 PUSH1 0x40 MSTORE POP POP POP JUMP JUMPDEST PUSH0 PUSH2 0xA82 PUSH2 0x679 JUMP JUMPDEST SWAP1 POP PUSH2 0xA8E DUP3 DUP3 PUSH2 0xA48 JUMP JUMPDEST SWAP2 SWAP1 POP JUMP JUMPDEST PUSH0 PUSH8 0xFFFFFFFFFFFFFFFF DUP3 GT ISZERO PUSH2 0xAAD JUMPI PUSH2 0xAAC PUSH2 0xA1B JUMP JUMPDEST JUMPDEST PUSH2 0xAB6 DUP3 PUSH2 0x7A6 JUMP JUMPDEST SWAP1 POP PUSH1 0x20 DUP2 ADD SWAP1 POP SWAP2 SWAP1 POP JUMP JUMPDEST DUP3 DUP2 DUP4 CALLDATACOPY PUSH0 DUP4 DUP4 ADD MSTORE POP POP POP JUMP JUMPDEST PUSH0 PUSH2 0xAE3 PUSH2 0xADE DUP5 PUSH2 0xA93 JUMP JUMPDEST PUSH2 0xA79 JUMP JUMPDEST SWAP1 POP DUP3 DUP2 MSTORE PUSH1 0x20 DUP2 ADD DUP5 DUP5 DUP5 ADD GT ISZERO PUSH2 0xAFF JUMPI PUSH2 0xAFE PUSH2 0xA17 JUMP JUMPDEST JUMPDEST PUSH2 0xB0A DUP5 DUP3 DUP6 PUSH2 0xAC3 JUMP JUMPDEST POP SWAP4 SWAP3 POP POP POP JUMP JUMPDEST PUSH0 DUP3 PUSH1 0x1F DUP4 ADD SLT PUSH2 0xB26 JUMPI PUSH2 0xB25 PUSH2 0xA13 JUMP JUMPDEST JUMPDEST DUP2 CALLDATALOAD PUSH2 0xB36 DUP5 DUP3 PUSH1 0x20 DUP7 ADD PUSH2 0xAD1 JUMP JUMPDEST SWAP2 POP POP SWAP3 SWAP2 POP POP JUMP JUMPDEST PUSH0 PUSH1 0x20 DUP3 DUP5 SUB SLT ISZERO PUSH2 0xB54 JUMPI PUSH2 0xB53 PUSH2 0x682 JUMP JUMPDEST JUMPDEST PUSH0 DUP3 ADD CALLDATALOAD PUSH8 0xFFFFFFFFFFFFFFFF DUP2 GT ISZERO PUSH2 0xB71 JUMPI PUSH2 0xB70 PUSH2 0x686 JUMP JUMPDEST JUMPDEST PUSH2 0xB7D DUP5 DUP3 DUP6 ADD PUSH2 0xB12 JUMP JUMPDEST SWAP2 POP POP SWAP3 SWAP2 POP POP JUMP JUMPDEST PUSH0 PUSH1 0x20 DUP3 DUP5 SUB SLT ISZERO PUSH2 0xB9B JUMPI PUSH2 0xB9A PUSH2 0x682 JUMP JUMPDEST JUMPDEST PUSH0 PUSH2 0xBA8 DUP5 DUP3 DUP6 ADD PUSH2 0x703 JUMP JUMPDEST SWAP2 POP POP SWAP3 SWAP2 POP POP JUMP JUMPDEST PUSH0 PUSH1 0x80 DUP4 ADD PUSH0 DUP4 ADD MLOAD PUSH2 0xBC6 PUSH0 DUP7 ADD DUP3 PUSH2 0x89B JUMP JUMPDEST POP PUSH1 0x20 DUP4 ADD MLOAD DUP5 DUP3 SUB PUSH1 0x20 DUP7 ADD MSTORE PUSH2 0xBDE DUP3 DUP3 PUSH2 0x8BA JUMP JUMPDEST SWAP2 POP POP PUSH1 0x40 DUP4 ADD MLOAD PUSH2 0xBF3 PUSH1 0x40 DUP7 ADD DUP3 PUSH2 0x8F2 JUMP JUMPDEST POP PUSH1 0x60 DUP4 ADD MLOAD PUSH2 0xC06 PUSH1 0x60 DUP7 ADD DUP3 PUSH2 0x8F2 JUMP JUMPDEST POP DUP1 SWAP2 POP POP SWAP3 SWAP2 POP POP JUMP JUMPDEST PUSH0 PUSH1 0x20 DUP3 ADD SWAP1 POP DUP2 DUP2 SUB PUSH0 DUP4 ADD MSTORE PUSH2 0xC29 DUP2 DUP5 PUSH2 0xBB1 JUMP JUMPDEST SWAP1 POP SWAP3 SWAP2 POP POP JUMP JUMPDEST PUSH32 0x4E487B7100000000000000000000000000000000000000000000000000000000 PUSH0 MSTORE PUSH1 0x22 PUSH1 0x4 MSTORE PUSH1 0x24 PUSH0 REVERT JUMPDEST PUSH0 PUSH1 0x2 DUP3 DIV SWAP1 POP PUSH1 0x1 DUP3 AND DUP1 PUSH2 0xC75 JUMPI PUSH1 0x7F DUP3 AND SWAP2 POP JUMPDEST PUSH1 0x20 DUP3 LT DUP2 SUB PUSH2 0xC88 JUMPI PUSH2 0xC87 PUSH2 0xC31 JUMP JUMPDEST JUMPDEST POP SWAP2 SWAP1 POP JUMP JUMPDEST PUSH32 0x547765657420697320746F6F206C6F6E672062726F2121000000000000000000 PUSH0 DUP3 ADD MSTORE POP JUMP JUMPDEST PUSH0 PUSH2 0xCC2 PUSH1 0x17 DUP4 PUSH2 0x76E JUMP JUMPDEST SWAP2 POP PUSH2 0xCCD DUP3 PUSH2 0xC8E JUMP JUMPDEST PUSH1 0x20 DUP3 ADD SWAP1 POP SWAP2 SWAP1 POP JUMP JUMPDEST PUSH0 PUSH1 0x20 DUP3 ADD SWAP1 POP DUP2 DUP2 SUB PUSH0 DUP4 ADD MSTORE PUSH2 0xCEF DUP2 PUSH2 0xCB6 JUMP JUMPDEST SWAP1 POP SWAP2 SWAP1 POP JUMP JUMPDEST PUSH0 DUP2 SWAP1 POP DUP2 PUSH0 MSTORE PUSH1 0x20 PUSH0 KECCAK256 SWAP1 POP SWAP2 SWAP1 POP JUMP JUMPDEST PUSH0 PUSH1 0x20 PUSH1 0x1F DUP4 ADD DIV SWAP1 POP SWAP2 SWAP1 POP JUMP JUMPDEST PUSH0 DUP3 DUP3 SHL SWAP1 POP SWAP3 SWAP2 POP POP JUMP JUMPDEST PUSH0 PUSH1 0x8 DUP4 MUL PUSH2 0xD52 PUSH32 0xFFFFFFFFFFFFFFFFFFFFFFFFFFFFFFFFFFFFFFFFFFFFFFFFFFFFFFFFFFFFFFFF DUP3 PUSH2 0xD17 JUMP JUMPDEST PUSH2 0xD5C DUP7 DUP4 PUSH2 0xD17 JUMP JUMPDEST SWAP6 POP DUP1 NOT DUP5 AND SWAP4 POP DUP1 DUP7 AND DUP5 OR SWAP3 POP POP POP SWAP4 SWAP3 POP POP POP JUMP JUMPDEST PUSH0 DUP2 SWAP1 POP SWAP2 SWAP1 POP JUMP JUMPDEST PUSH0 PUSH2 0xD97 PUSH2 0xD92 PUSH2 0xD8D DUP5 PUSH2 0x6E4 JUMP JUMPDEST PUSH2 0xD74 JUMP JUMPDEST PUSH2 0x6E4 JUMP JUMPDEST SWAP1 POP SWAP2 SWAP1 POP JUMP JUMPDEST PUSH0 DUP2 SWAP1 POP SWAP2 SWAP1 POP JUMP JUMPDEST PUSH2 0xDB0 DUP4 PUSH2 0xD7D JUMP JUMPDEST PUSH2 0xDC4 PUSH2 0xDBC DUP3 PUSH2 0xD9E JUMP JUMPDEST DUP5 DUP5 SLOAD PUSH2 0xD23 JUMP JUMPDEST DUP3 SSTORE POP POP POP POP JUMP JUMPDEST PUSH0 SWAP1 JUMP JUMPDEST PUSH2 0xDD8 PUSH2 0xDCC JUMP JUMPDEST PUSH2 0xDE3 DUP2 DUP5 DUP5 PUSH2 0xDA7 JUMP JUMPDEST POP POP POP JUMP JUMPDEST JUMPDEST DUP2 DUP2 LT ISZERO PUSH2 0xE06 JUMPI PUSH2 0xDFB PUSH0 DUP3 PUSH2 0xDD0 JUMP JUMPDEST PUSH1 0x1 DUP2 ADD SWAP1 POP PUSH2 0xDE9 JUMP JUMPDEST POP POP JUMP JUMPDEST PUSH1 0x1F DUP3 GT ISZERO PUSH2 0xE4B JUMPI PUSH2 0xE1C DUP2 PUSH2 0xCF6 JUMP JUMPDEST PUSH2 0xE25 DUP5 PUSH2 0xD08 JUMP JUMPDEST DUP2 ADD PUSH1 0x20 DUP6 LT ISZERO PUSH2 0xE34 JUMPI DUP2 SWAP1 POP JUMPDEST PUSH2 0xE48 PUSH2 0xE40 DUP6 PUSH2 0xD08 JUMP JUMPDEST DUP4 ADD DUP3 PUSH2 0xDE8 JUMP JUMPDEST POP POP JUMPDEST POP POP POP JUMP JUMPDEST PUSH0 DUP3 DUP3 SHR SWAP1 POP SWAP3 SWAP2 POP POP JUMP JUMPDEST PUSH0 PUSH2 0xE6B PUSH0 NOT DUP5 PUSH1 0x8 MUL PUSH2 0xE50 JUMP JUMPDEST NOT DUP1 DUP4 AND SWAP2 POP POP SWAP3 SWAP2 POP POP JUMP JUMPDEST PUSH0 PUSH2 0xE83 DUP4 DUP4 PUSH2 0xE5C JUMP JUMPDEST SWAP2 POP DUP3 PUSH1 0x2 MUL DUP3 OR SWAP1 POP SWAP3 SWAP2 POP POP JUMP JUMPDEST PUSH2 0xE9C DUP3 PUSH2 0x764 JUMP JUMPDEST PUSH8 0xFFFFFFFFFFFFFFFF DUP2 GT ISZERO PUSH2 0xEB5 JUMPI PUSH2 0xEB4 PUSH2 0xA1B JUMP JUMPDEST JUMPDEST PUSH2 0xEBF DUP3 SLOAD PUSH2 0xC5E JUMP JUMPDEST PUSH2 0xECA DUP3 DUP3 DUP6 PUSH2 0xE0A JUMP JUMPDEST PUSH0 PUSH1 0x20 SWAP1 POP PUSH1 0x1F DUP4 GT PUSH1 0x1 DUP2 EQ PUSH2 0xEFB JUMPI PUSH0 DUP5 ISZERO PUSH2 0xEE9 JUMPI DUP3 DUP8 ADD MLOAD SWAP1 POP JUMPDEST PUSH2 0xEF3 DUP6 DUP3 PUSH2 0xE78 JUMP JUMPDEST DUP7 SSTORE POP PUSH2 0xF5A JUMP JUMPDEST PUSH1 0x1F NOT DUP5 AND PUSH2 0xF09 DUP7 PUSH2 0xCF6 JUMP JUMPDEST PUSH0 JUMPDEST DUP3 DUP2 LT ISZERO PUSH2 0xF30 JUMPI DUP5 DUP10 ADD MLOAD DUP3 SSTORE PUSH1 0x1 DUP3 ADD SWAP2 POP PUSH1 0x20 DUP6 ADD SWAP5 POP PUSH1 0x20 DUP2 ADD SWAP1 POP PUSH2 0xF0B JUMP JUMPDEST DUP7 DUP4 LT ISZERO PUSH2 0xF4D JUMPI DUP5 DUP10 ADD MLOAD PUSH2 0xF49 PUSH1 0x1F DUP10 AND DUP3 PUSH2 0xE5C JUMP JUMPDEST DUP4 SSTORE POP JUMPDEST PUSH1 0x1 PUSH1 0x2 DUP9 MUL ADD DUP9 SSTORE POP POP POP JUMPDEST POP POP POP POP POP POP JUMP JUMPDEST PUSH32 0x4E487B7100000000000000000000000000000000000000000000000000000000 PUSH0 MSTORE PUSH1 0x32 PUSH1 0x4 MSTORE PUSH1 0x24 PUSH0 REVERT INVALID LOG2 PUSH5 0x6970667358 0x22 SLT KECCAK256 SHR PUSH10 0x227745675FBC614A1FDA 0xAC 0x27 0x4C SIGNEXTEND MLOAD 0x5C 0x21 MULMOD PUSH20 0x1A86A69EBDE1B748E3A02264736F6C6343000816 STOP CALLER "
				},
				"gasEstimates": {
					"creation": {
						"codeDepositCost": "807400",
						"executionCost": "842",
						"totalCost": "808242"
					},
					"external": {
						"createTweet(string)": "infinite",
						"getAllTweets(address)": "infinite",
						"getTweet(uint256)": "infinite",
						"tweets(address,uint256)": "infinite"
					}
				},
				"methodIdentifiers": {
					"createTweet(string)": "7c9cd2bc",
					"getAllTweets(address)": "12e7ee1c",
					"getTweet(uint256)": "c3ad5ecb",
					"tweets(address,uint256)": "05a1b4a9"
				}
			},
			"storageLayout": {
				"storage": [
					{
						"astId": 19,
						"contract": "Twitter_3.sol:Twitter",
						"label": "tweets",
						"offset": 0,
						"slot": "0",
						"type": "t_mapping(t_address,t_array(t_struct(Tweet)13_storage)dyn_storage)"
					}
				],
				"types": {
					"t_address": {
						"encoding": "inplace",
						"label": "address",
						"numberOfBytes": "20"
					},
					"t_array(t_struct(Tweet)13_storage)dyn_storage": {
						"base": "t_struct(Tweet)13_storage",
						"encoding": "dynamic_array",
						"label": "struct Twitter.Tweet[]",
						"numberOfBytes": "32"
					},
					"t_mapping(t_address,t_array(t_struct(Tweet)13_storage)dyn_storage)": {
						"encoding": "mapping",
						"key": "t_address",
						"label": "mapping(address => struct Twitter.Tweet[])",
						"numberOfBytes": "32",
						"value": "t_array(t_struct(Tweet)13_storage)dyn_storage"
					},
					"t_string_storage": {
						"encoding": "bytes",
						"label": "string",
						"numberOfBytes": "32"
					},
					"t_struct(Tweet)13_storage": {
						"encoding": "inplace",
						"label": "struct Twitter.Tweet",
						"members": [
							{
								"astId": 6,
								"contract": "Twitter_3.sol:Twitter",
								"label": "author",
								"offset": 0,
								"slot": "0",
								"type": "t_address"
							},
							{
								"astId": 8,
								"contract": "Twitter_3.sol:Twitter",
								"label": "content",
								"offset": 0,
								"slot": "1",
								"type": "t_string_storage"
							},
							{
								"astId": 10,
								"contract": "Twitter_3.sol:Twitter",
								"label": "timestamp",
								"offset": 0,
								"slot": "2",
								"type": "t_uint256"
							},
							{
								"astId": 12,
								"contract": "Twitter_3.sol:Twitter",
								"label": "likes",
								"offset": 0,
								"slot": "3",
								"type": "t_uint256"
							}
						],
						"numberOfBytes": "128"
					},
					"t_uint256": {
						"encoding": "inplace",
						"label": "uint256",
						"numberOfBytes": "32"
					}
				}
			},
			"userdoc": {
				"kind": "user",
				"methods": {},
				"version": 1
			}
		}
	}
}