{
	"Twitter_2.sol": {
		"Twitter": {
			"abi": [
				{
					"inputs": [
						{
							"internalType": "string",
							"name": "_tweet",
							"type": "string"
						}
					],
					"name": "createTweet",
					"outputs": [],
					"stateMutability": "nonpayable",
					"type": "function"
				},
				{
					"inputs": [
						{
							"internalType": "address",
							"name": "_owner",
							"type": "address"
						}
					],
					"name": "getAllTweets",
					"outputs": [
						{
							"components": [
								{
									"internalType": "address",
									"name": "author",
									"type": "address"
								},
								{
									"internalType": "string",
									"name": "content",
									"type": "string"
								},
								{
									"internalType": "uint256",
									"name": "timestamp",
									"type": "uint256"
								},
								{
									"internalType": "uint256",
									"name": "likes",
									"type": "uint256"
								}
							],
							"internalType": "struct Twitter.Tweet[]",
							"name": "",
							"type": "tuple[]"
						}
					],
					"stateMutability": "view",
					"type": "function"
				},
				{
					"inputs": [
						{
							"internalType": "address",
							"name": "_owner",
							"type": "address"
						},
						{
							"internalType": "uint256",
							"name": "_i",
							"type": "uint256"
						}
					],
					"name": "getTweet",
					"outputs": [
						{
							"components": [
								{
									"internalType": "address",
									"name": "author",
									"type": "address"
								},
								{
									"internalType": "string",
									"name": "content",
									"type": "string"
								},
								{
									"internalType": "uint256",
									"name": "timestamp",
									"type": "uint256"
								},
								{
									"internalType": "uint256",
									"name": "likes",
									"type": "uint256"
								}
							],
							"internalType": "struct Twitter.Tweet",
							"name": "",
							"type": "tuple"
						}
					],
					"stateMutability": "view",
					"type": "function"
				},
				{
					"inputs": [
						{
							"internalType": "address",
							"name": "",
							"type": "address"
						},
						{
							"internalType": "uint256",
							"name": "",
							"type": "uint256"
						}
					],
					"name": "tweets",
					"outputs": [
						{
							"internalType": "address",
							"name": "author",
							"type": "address"
						},
						{
							"internalType": "string",
							"name": "content",
							"type": "string"
						},
						{
							"internalType": "uint256",
							"name": "timestamp",
							"type": "uint256"
						},
						{
							"internalType": "uint256",
							"name": "likes",
							"type": "uint256"
						}
					],
					"stateMutability": "view",
					"type": "function"
				}
			],
			"devdoc": {
				"kind": "dev",
				"methods": {},
				"version": 1
			},
			"evm": {
				"assembly": "    /* \"Twitter_2.sol\":178:1023  contract Twitter {... */\n  mstore(0x40, 0x80)\n  callvalue\n  dup1\n  iszero\n  tag_1\n  jumpi\n  0x00\n  dup1\n  revert\ntag_1:\n  pop\n  dataSize(sub_0)\n  dup1\n  dataOffset(sub_0)\n  0x00\n  codecopy\n  0x00\n  return\nstop\n\nsub_0: assembly {\n        /* \"Twitter_2.sol\":178:1023  contract Twitter {... */\n      mstore(0x40, 0x80)\n      callvalue\n      dup1\n      iszero\n      tag_1\n      jumpi\n      0x00\n      dup1\n      revert\n    tag_1:\n      pop\n      jumpi(tag_2, lt(calldatasize, 0x04))\n      shr(0xe0, calldataload(0x00))\n      dup1\n      0x05a1b4a9\n      eq\n      tag_3\n      jumpi\n      dup1\n      0x112f54e3\n      eq\n      tag_4\n      jumpi\n      dup1\n      0x12e7ee1c\n      eq\n      tag_5\n      jumpi\n      dup1\n      0x7c9cd2bc\n      eq\n      tag_6\n      jumpi\n    tag_2:\n      0x00\n      dup1\n      revert\n        /* \"Twitter_2.sol\":361:402  mapping(address => Tweet[]) public tweets */\n    tag_3:\n      tag_7\n      0x04\n      dup1\n      calldatasize\n      sub\n      dup2\n      add\n      swap1\n      tag_8\n      swap2\n      swap1\n      tag_9\n      jump\t// in\n    tag_8:\n      tag_10\n      jump\t// in\n    tag_7:\n      mload(0x40)\n      tag_11\n      swap5\n      swap4\n      swap3\n      swap2\n      swap1\n      tag_12\n      jump\t// in\n    tag_11:\n      mload(0x40)\n      dup1\n      swap2\n      sub\n      swap1\n      return\n        /* \"Twitter_2.sol\":703:897  function getTweet(address _owner, uint256 _i) public view returns (Tweet memory) {... */\n    tag_4:\n      tag_13\n      0x04\n      dup1\n      calldatasize\n      sub\n      dup2\n      add\n      swap1\n      tag_14\n      swap2\n      swap1\n      tag_9\n      jump\t// in\n    tag_14:\n      tag_15\n      jump\t// in\n    tag_13:\n      mload(0x40)\n      tag_16\n      swap2\n      swap1\n      tag_17\n      jump\t// in\n    tag_16:\n      mload(0x40)\n      dup1\n      swap2\n      sub\n      swap1\n      return\n        /* \"Twitter_2.sol\":905:1020  function getAllTweets(address _owner) public view returns (Tweet[] memory) {... */\n    tag_5:\n      tag_18\n      0x04\n      dup1\n      calldatasize\n      sub\n      dup2\n      add\n      swap1\n      tag_19\n      swap2\n      swap1\n      tag_20\n      jump\t// in\n    tag_19:\n      tag_21\n      jump\t// in\n    tag_18:\n      mload(0x40)\n      tag_22\n      swap2\n      swap1\n      tag_23\n      jump\t// in\n    tag_22:\n      mload(0x40)\n      dup1\n      swap2\n      sub\n      swap1\n      return\n        /* \"Twitter_2.sol\":411:695  function createTweet(string memory _tweet) public {... */\n    tag_6:\n      tag_24\n      0x04\n      dup1\n      calldatasize\n      sub\n      dup2\n      add\n      swap1\n      tag_25\n      swap2\n      swap1\n      tag_26\n      jump\t// in\n    tag_25:\n      tag_27\n      jump\t// in\n    tag_24:\n      stop\n        /* \"Twitter_2.sol\":361:402  mapping(address => Tweet[]) public tweets */\n    tag_10:\n      mstore(0x20, 0x00)\n      dup2\n      0x00\n      mstore\n      keccak256(0x00, 0x40)\n      dup2\n      dup2\n      sload\n      dup2\n      lt\n      tag_28\n      jumpi\n      0x00\n      dup1\n      revert\n    tag_28:\n      swap1\n      0x00\n      mstore\n      keccak256(0x00, 0x20)\n      swap1\n      0x04\n      mul\n      add\n      0x00\n      swap2\n      pop\n      swap2\n      pop\n      pop\n      dup1\n      0x00\n      add\n      0x00\n      swap1\n      sload\n      swap1\n      0x0100\n      exp\n      swap1\n      div\n      0xffffffffffffffffffffffffffffffffffffffff\n      and\n      swap1\n      dup1\n      0x01\n      add\n      dup1\n      sload\n      tag_30\n      swap1\n      tag_31\n      jump\t// in\n    tag_30:\n      dup1\n      0x1f\n      add\n      0x20\n      dup1\n      swap2\n      div\n      mul\n      0x20\n      add\n      mload(0x40)\n      swap1\n      dup2\n      add\n      0x40\n      mstore\n      dup1\n      swap3\n      swap2\n      swap1\n      dup2\n      dup2\n      mstore\n      0x20\n      add\n      dup3\n      dup1\n      sload\n      tag_32\n      swap1\n      tag_31\n      jump\t// in\n    tag_32:\n      dup1\n      iszero\n      tag_33\n      jumpi\n      dup1\n      0x1f\n      lt\n      tag_34\n      jumpi\n      0x0100\n      dup1\n      dup4\n      sload\n      div\n      mul\n      dup4\n      mstore\n      swap2\n      0x20\n      add\n      swap2\n      jump(tag_33)\n    tag_34:\n      dup3\n      add\n      swap2\n      swap1\n      0x00\n      mstore\n      keccak256(0x00, 0x20)\n      swap1\n    tag_35:\n      dup2\n      sload\n      dup2\n      mstore\n      swap1\n      0x01\n      add\n      swap1\n      0x20\n      add\n      dup1\n      dup4\n      gt\n      tag_35\n      jumpi\n      dup3\n      swap1\n      sub\n      0x1f\n      and\n      dup3\n      add\n      swap2\n    tag_33:\n      pop\n      pop\n      pop\n      pop\n      pop\n      swap1\n      dup1\n      0x02\n      add\n      sload\n      swap1\n      dup1\n      0x03\n      add\n      sload\n      swap1\n      pop\n      dup5\n      jump\t// out\n        /* \"Twitter_2.sol\":703:897  function getTweet(address _owner, uint256 _i) public view returns (Tweet memory) {... */\n    tag_15:\n        /* \"Twitter_2.sol\":770:782  Tweet memory */\n      tag_36\n      tag_37\n      jump\t// in\n    tag_36:\n        /* \"Twitter_2.sol\":808:814  tweets */\n      0x00\n        /* \"Twitter_2.sol\":808:822  tweets[_owner] */\n      dup1\n        /* \"Twitter_2.sol\":815:821  _owner */\n      dup5\n        /* \"Twitter_2.sol\":808:822  tweets[_owner] */\n      0xffffffffffffffffffffffffffffffffffffffff\n      and\n      0xffffffffffffffffffffffffffffffffffffffff\n      and\n      dup2\n      mstore\n      0x20\n      add\n      swap1\n      dup2\n      mstore\n      0x20\n      add\n      0x00\n      keccak256\n        /* \"Twitter_2.sol\":808:829  tweets[_owner].length */\n      dup1\n      sload\n      swap1\n      pop\n        /* \"Twitter_2.sol\":803:805  _i */\n      dup3\n        /* \"Twitter_2.sol\":803:829  _i < tweets[_owner].length */\n      lt\n        /* \"Twitter_2.sol\":795:853  require(_i < tweets[_owner].length, \"Index out of bounds\") */\n      tag_39\n      jumpi\n      mload(0x40)\n      0x08c379a000000000000000000000000000000000000000000000000000000000\n      dup2\n      mstore\n      0x04\n      add\n      tag_40\n      swap1\n      tag_41\n      jump\t// in\n    tag_40:\n      mload(0x40)\n      dup1\n      swap2\n      sub\n      swap1\n      revert\n    tag_39:\n        /* \"Twitter_2.sol\":871:877  tweets */\n      0x00\n        /* \"Twitter_2.sol\":871:885  tweets[_owner] */\n      dup1\n        /* \"Twitter_2.sol\":878:884  _owner */\n      dup5\n        /* \"Twitter_2.sol\":871:885  tweets[_owner] */\n      0xffffffffffffffffffffffffffffffffffffffff\n      and\n      0xffffffffffffffffffffffffffffffffffffffff\n      and\n      dup2\n      mstore\n      0x20\n      add\n      swap1\n      dup2\n      mstore\n      0x20\n      add\n      0x00\n      keccak256\n        /* \"Twitter_2.sol\":886:888  _i */\n      dup3\n        /* \"Twitter_2.sol\":871:889  tweets[_owner][_i] */\n      dup2\n      sload\n      dup2\n      lt\n      tag_42\n      jumpi\n      tag_43\n      tag_44\n      jump\t// in\n    tag_43:\n    tag_42:\n      swap1\n      0x00\n      mstore\n      keccak256(0x00, 0x20)\n      swap1\n      0x04\n      mul\n      add\n        /* \"Twitter_2.sol\":864:889  return tweets[_owner][_i] */\n      mload(0x40)\n      dup1\n      0x80\n      add\n      0x40\n      mstore\n      swap1\n      dup2\n      0x00\n      dup3\n      add\n      0x00\n      swap1\n      sload\n      swap1\n      0x0100\n      exp\n      swap1\n      div\n      0xffffffffffffffffffffffffffffffffffffffff\n      and\n      0xffffffffffffffffffffffffffffffffffffffff\n      and\n      0xffffffffffffffffffffffffffffffffffffffff\n      and\n      dup2\n      mstore\n      0x20\n      add\n      0x01\n      dup3\n      add\n      dup1\n      sload\n      tag_46\n      swap1\n      tag_31\n      jump\t// in\n    tag_46:\n      dup1\n      0x1f\n      add\n      0x20\n      dup1\n      swap2\n      div\n      mul\n      0x20\n      add\n      mload(0x40)\n      swap1\n      dup2\n      add\n      0x40\n      mstore\n      dup1\n      swap3\n      swap2\n      swap1\n      dup2\n      dup2\n      mstore\n      0x20\n      add\n      dup3\n      dup1\n      sload\n      tag_47\n      swap1\n      tag_31\n      jump\t// in\n    tag_47:\n      dup1\n      iszero\n      tag_48\n      jumpi\n      dup1\n      0x1f\n      lt\n      tag_49\n      jumpi\n      0x0100\n      dup1\n      dup4\n      sload\n      div\n      mul\n      dup4\n      mstore\n      swap2\n      0x20\n      add\n      swap2\n      jump(tag_48)\n    tag_49:\n      dup3\n      add\n      swap2\n      swap1\n      0x00\n      mstore\n      keccak256(0x00, 0x20)\n      swap1\n    tag_50:\n      dup2\n      sload\n      dup2\n      mstore\n      swap1\n      0x01\n      add\n      swap1\n      0x20\n      add\n      dup1\n      dup4\n      gt\n      tag_50\n      jumpi\n      dup3\n      swap1\n      sub\n      0x1f\n      and\n      dup3\n      add\n      swap2\n    tag_48:\n      pop\n      pop\n      pop\n      pop\n      pop\n      dup2\n      mstore\n      0x20\n      add\n      0x02\n      dup3\n      add\n      sload\n      dup2\n      mstore\n      0x20\n      add\n      0x03\n      dup3\n      add\n      sload\n      dup2\n      mstore\n      pop\n      pop\n      swap1\n      pop\n        /* \"Twitter_2.sol\":703:897  function getTweet(address _owner, uint256 _i) public view returns (Tweet memory) {... */\n      swap3\n      swap2\n      pop\n      pop\n      jump\t// out\n        /* \"Twitter_2.sol\":905:1020  function getAllTweets(address _owner) public view returns (Tweet[] memory) {... */\n    tag_21:\n        /* \"Twitter_2.sol\":964:978  Tweet[] memory */\n      0x60\n        /* \"Twitter_2.sol\":998:1004  tweets */\n      0x00\n        /* \"Twitter_2.sol\":998:1012  tweets[_owner] */\n      dup1\n        /* \"Twitter_2.sol\":1005:1011  _owner */\n      dup4\n        /* \"Twitter_2.sol\":998:1012  tweets[_owner] */\n      0xffffffffffffffffffffffffffffffffffffffff\n      and\n      0xffffffffffffffffffffffffffffffffffffffff\n      and\n      dup2\n      mstore\n      0x20\n      add\n      swap1\n      dup2\n      mstore\n      0x20\n      add\n      0x00\n      keccak256\n        /* \"Twitter_2.sol\":991:1012  return tweets[_owner] */\n      dup1\n      sload\n      dup1\n      0x20\n      mul\n      0x20\n      add\n      mload(0x40)\n      swap1\n      dup2\n      add\n      0x40\n      mstore\n      dup1\n      swap3\n      swap2\n      swap1\n      dup2\n      dup2\n      mstore\n      0x20\n      add\n      0x00\n      swap1\n    tag_52:\n      dup3\n      dup3\n      lt\n      iszero\n      tag_53\n      jumpi\n      dup4\n      dup3\n      swap1\n      0x00\n      mstore\n      keccak256(0x00, 0x20)\n      swap1\n      0x04\n      mul\n      add\n      mload(0x40)\n      dup1\n      0x80\n      add\n      0x40\n      mstore\n      swap1\n      dup2\n      0x00\n      dup3\n      add\n      0x00\n      swap1\n      sload\n      swap1\n      0x0100\n      exp\n      swap1\n      div\n      0xffffffffffffffffffffffffffffffffffffffff\n      and\n      0xffffffffffffffffffffffffffffffffffffffff\n      and\n      0xffffffffffffffffffffffffffffffffffffffff\n      and\n      dup2\n      mstore\n      0x20\n      add\n      0x01\n      dup3\n      add\n      dup1\n      sload\n      tag_55\n      swap1\n      tag_31\n      jump\t// in\n    tag_55:\n      dup1\n      0x1f\n      add\n      0x20\n      dup1\n      swap2\n      div\n      mul\n      0x20\n      add\n      mload(0x40)\n      swap1\n      dup2\n      add\n      0x40\n      mstore\n      dup1\n      swap3\n      swap2\n      swap1\n      dup2\n      dup2\n      mstore\n      0x20\n      add\n      dup3\n      dup1\n      sload\n      tag_56\n      swap1\n      tag_31\n      jump\t// in\n    tag_56:\n      dup1\n      iszero\n      tag_57\n      jumpi\n      dup1\n      0x1f\n      lt\n      tag_58\n      jumpi\n      0x0100\n      dup1\n      dup4\n      sload\n      div\n      mul\n      dup4\n      mstore\n      swap2\n      0x20\n      add\n      swap2\n      jump(tag_57)\n    tag_58:\n      dup3\n      add\n      swap2\n      swap1\n      0x00\n      mstore\n      keccak256(0x00, 0x20)\n      swap1\n    tag_59:\n      dup2\n      sload\n      dup2\n      mstore\n      swap1\n      0x01\n      add\n      swap1\n      0x20\n      add\n      dup1\n      dup4\n      gt\n      tag_59\n      jumpi\n      dup3\n      swap1\n      sub\n      0x1f\n      and\n      dup3\n      add\n      swap2\n    tag_57:\n      pop\n      pop\n      pop\n      pop\n      pop\n      dup2\n      mstore\n      0x20\n      add\n      0x02\n      dup3\n      add\n      sload\n      dup2\n      mstore\n      0x20\n      add\n      0x03\n      dup3\n      add\n      sload\n      dup2\n      mstore\n      pop\n      pop\n      dup2\n      mstore\n      0x20\n      add\n      swap1\n      0x01\n      add\n      swap1\n      jump(tag_52)\n    tag_53:\n      pop\n      pop\n      pop\n      pop\n      swap1\n      pop\n        /* \"Twitter_2.sol\":905:1020  function getAllTweets(address _owner) public view returns (Tweet[] memory) {... */\n      swap2\n      swap1\n      pop\n      jump\t// out\n        /* \"Twitter_2.sol\":411:695  function createTweet(string memory _tweet) public {... */\n    tag_27:\n        /* \"Twitter_2.sol\":472:493  Tweet memory newTweet */\n      0x00\n        /* \"Twitter_2.sol\":496:641  Tweet({... */\n      mload(0x40)\n      dup1\n      0x80\n      add\n      0x40\n      mstore\n      dup1\n        /* \"Twitter_2.sol\":525:535  msg.sender */\n      caller\n        /* \"Twitter_2.sol\":496:641  Tweet({... */\n      0xffffffffffffffffffffffffffffffffffffffff\n      and\n      dup2\n      mstore\n      0x20\n      add\n        /* \"Twitter_2.sol\":559:565  _tweet */\n      dup4\n        /* \"Twitter_2.sol\":496:641  Tweet({... */\n      dup2\n      mstore\n      0x20\n      add\n        /* \"Twitter_2.sol\":591:606  block.timestamp */\n      timestamp\n        /* \"Twitter_2.sol\":496:641  Tweet({... */\n      dup2\n      mstore\n      0x20\n      add\n        /* \"Twitter_2.sol\":628:629  0 */\n      0x00\n        /* \"Twitter_2.sol\":496:641  Tweet({... */\n      dup2\n      mstore\n      pop\n        /* \"Twitter_2.sol\":472:641  Tweet memory newTweet = Tweet({... */\n      swap1\n      pop\n        /* \"Twitter_2.sol\":654:660  tweets */\n      0x00\n        /* \"Twitter_2.sol\":654:672  tweets[msg.sender] */\n      dup1\n        /* \"Twitter_2.sol\":661:671  msg.sender */\n      caller\n        /* \"Twitter_2.sol\":654:672  tweets[msg.sender] */\n      0xffffffffffffffffffffffffffffffffffffffff\n      and\n      0xffffffffffffffffffffffffffffffffffffffff\n      and\n      dup2\n      mstore\n      0x20\n      add\n      swap1\n      dup2\n      mstore\n      0x20\n      add\n      0x00\n      keccak256\n        /* \"Twitter_2.sol\":678:686  newTweet */\n      dup2\n        /* \"Twitter_2.sol\":654:687  tweets[msg.sender].push(newTweet) */\n      swap1\n      dup1\n      0x01\n      dup2\n      sload\n      add\n      dup1\n      dup3\n      sstore\n      dup1\n      swap2\n      pop\n      pop\n      0x01\n      swap1\n      sub\n      swap1\n      0x00\n      mstore\n      keccak256(0x00, 0x20)\n      swap1\n      0x04\n      mul\n      add\n      0x00\n      swap1\n      swap2\n      swap1\n      swap2\n      swap1\n      swap2\n      pop\n      0x00\n      dup3\n      add\n      mload\n      dup2\n      0x00\n      add\n      exp(0x0100, 0x00)\n      dup2\n      sload\n      dup2\n      0xffffffffffffffffffffffffffffffffffffffff\n      mul\n      not\n      and\n      swap1\n      dup4\n      0xffffffffffffffffffffffffffffffffffffffff\n      and\n      mul\n      or\n      swap1\n      sstore\n      pop\n      0x20\n      dup3\n      add\n      mload\n      dup2\n      0x01\n      add\n      swap1\n      dup2\n      tag_62\n      swap2\n      swap1\n      tag_63\n      jump\t// in\n    tag_62:\n      pop\n      0x40\n      dup3\n      add\n      mload\n      dup2\n      0x02\n      add\n      sstore\n      0x60\n      dup3\n      add\n      mload\n      dup2\n      0x03\n      add\n      sstore\n      pop\n      pop\n        /* \"Twitter_2.sol\":461:695  {... */\n      pop\n        /* \"Twitter_2.sol\":411:695  function createTweet(string memory _tweet) public {... */\n      pop\n      jump\t// out\n    tag_37:\n      mload(0x40)\n      dup1\n      0x80\n      add\n      0x40\n      mstore\n      dup1\n      and(0xffffffffffffffffffffffffffffffffffffffff, 0x00)\n      dup2\n      mstore\n      0x20\n      add\n      0x60\n      dup2\n      mstore\n      0x20\n      add\n      0x00\n      dup2\n      mstore\n      0x20\n      add\n      0x00\n      dup2\n      mstore\n      pop\n      swap1\n      jump\t// out\n        /* \"#utility.yul\":7:82   */\n    tag_64:\n        /* \"#utility.yul\":40:46   */\n      0x00\n        /* \"#utility.yul\":73:75   */\n      0x40\n        /* \"#utility.yul\":67:76   */\n      mload\n        /* \"#utility.yul\":57:76   */\n      swap1\n      pop\n        /* \"#utility.yul\":7:82   */\n      swap1\n      jump\t// out\n        /* \"#utility.yul\":88:205   */\n    tag_65:\n        /* \"#utility.yul\":197:198   */\n      0x00\n        /* \"#utility.yul\":194:195   */\n      dup1\n        /* \"#utility.yul\":187:199   */\n      revert\n        /* \"#utility.yul\":211:328   */\n    tag_66:\n        /* \"#utility.yul\":320:321   */\n      0x00\n        /* \"#utility.yul\":317:318   */\n      dup1\n        /* \"#utility.yul\":310:322   */\n      revert\n        /* \"#utility.yul\":334:460   */\n    tag_67:\n        /* \"#utility.yul\":371:378   */\n      0x00\n        /* \"#utility.yul\":411:453   */\n      0xffffffffffffffffffffffffffffffffffffffff\n        /* \"#utility.yul\":404:409   */\n      dup3\n        /* \"#utility.yul\":400:454   */\n      and\n        /* \"#utility.yul\":389:454   */\n      swap1\n      pop\n        /* \"#utility.yul\":334:460   */\n      swap2\n      swap1\n      pop\n      jump\t// out\n        /* \"#utility.yul\":466:562   */\n    tag_68:\n        /* \"#utility.yul\":503:510   */\n      0x00\n        /* \"#utility.yul\":532:556   */\n      tag_126\n        /* \"#utility.yul\":550:555   */\n      dup3\n        /* \"#utility.yul\":532:556   */\n      tag_67\n      jump\t// in\n    tag_126:\n        /* \"#utility.yul\":521:556   */\n      swap1\n      pop\n        /* \"#utility.yul\":466:562   */\n      swap2\n      swap1\n      pop\n      jump\t// out\n        /* \"#utility.yul\":568:690   */\n    tag_69:\n        /* \"#utility.yul\":641:665   */\n      tag_128\n        /* \"#utility.yul\":659:664   */\n      dup2\n        /* \"#utility.yul\":641:665   */\n      tag_68\n      jump\t// in\n    tag_128:\n        /* \"#utility.yul\":634:639   */\n      dup2\n        /* \"#utility.yul\":631:666   */\n      eq\n        /* \"#utility.yul\":621:684   */\n      tag_129\n      jumpi\n        /* \"#utility.yul\":680:681   */\n      0x00\n        /* \"#utility.yul\":677:678   */\n      dup1\n        /* \"#utility.yul\":670:682   */\n      revert\n        /* \"#utility.yul\":621:684   */\n    tag_129:\n        /* \"#utility.yul\":568:690   */\n      pop\n      jump\t// out\n        /* \"#utility.yul\":696:835   */\n    tag_70:\n        /* \"#utility.yul\":742:747   */\n      0x00\n        /* \"#utility.yul\":780:786   */\n      dup2\n        /* \"#utility.yul\":767:787   */\n      calldataload\n        /* \"#utility.yul\":758:787   */\n      swap1\n      pop\n        /* \"#utility.yul\":796:829   */\n      tag_131\n        /* \"#utility.yul\":823:828   */\n      dup2\n        /* \"#utility.yul\":796:829   */\n      tag_69\n      jump\t// in\n    tag_131:\n        /* \"#utility.yul\":696:835   */\n      swap3\n      swap2\n      pop\n      pop\n      jump\t// out\n        /* \"#utility.yul\":841:918   */\n    tag_71:\n        /* \"#utility.yul\":878:885   */\n      0x00\n        /* \"#utility.yul\":907:912   */\n      dup2\n        /* \"#utility.yul\":896:912   */\n      swap1\n      pop\n        /* \"#utility.yul\":841:918   */\n      swap2\n      swap1\n      pop\n      jump\t// out\n        /* \"#utility.yul\":924:1046   */\n    tag_72:\n        /* \"#utility.yul\":997:1021   */\n      tag_134\n        /* \"#utility.yul\":1015:1020   */\n      dup2\n        /* \"#utility.yul\":997:1021   */\n      tag_71\n      jump\t// in\n    tag_134:\n        /* \"#utility.yul\":990:995   */\n      dup2\n        /* \"#utility.yul\":987:1022   */\n      eq\n        /* \"#utility.yul\":977:1040   */\n      tag_135\n      jumpi\n        /* \"#utility.yul\":1036:1037   */\n      0x00\n        /* \"#utility.yul\":1033:1034   */\n      dup1\n        /* \"#utility.yul\":1026:1038   */\n      revert\n        /* \"#utility.yul\":977:1040   */\n    tag_135:\n        /* \"#utility.yul\":924:1046   */\n      pop\n      jump\t// out\n        /* \"#utility.yul\":1052:1191   */\n    tag_73:\n        /* \"#utility.yul\":1098:1103   */\n      0x00\n        /* \"#utility.yul\":1136:1142   */\n      dup2\n        /* \"#utility.yul\":1123:1143   */\n      calldataload\n        /* \"#utility.yul\":1114:1143   */\n      swap1\n      pop\n        /* \"#utility.yul\":1152:1185   */\n      tag_137\n        /* \"#utility.yul\":1179:1184   */\n      dup2\n        /* \"#utility.yul\":1152:1185   */\n      tag_72\n      jump\t// in\n    tag_137:\n        /* \"#utility.yul\":1052:1191   */\n      swap3\n      swap2\n      pop\n      pop\n      jump\t// out\n        /* \"#utility.yul\":1197:1671   */\n    tag_9:\n        /* \"#utility.yul\":1265:1271   */\n      0x00\n        /* \"#utility.yul\":1273:1279   */\n      dup1\n        /* \"#utility.yul\":1322:1324   */\n      0x40\n        /* \"#utility.yul\":1310:1319   */\n      dup4\n        /* \"#utility.yul\":1301:1308   */\n      dup6\n        /* \"#utility.yul\":1297:1320   */\n      sub\n        /* \"#utility.yul\":1293:1325   */\n      slt\n        /* \"#utility.yul\":1290:1409   */\n      iszero\n      tag_139\n      jumpi\n        /* \"#utility.yul\":1328:1407   */\n      tag_140\n      tag_65\n      jump\t// in\n    tag_140:\n        /* \"#utility.yul\":1290:1409   */\n    tag_139:\n        /* \"#utility.yul\":1448:1449   */\n      0x00\n        /* \"#utility.yul\":1473:1526   */\n      tag_141\n        /* \"#utility.yul\":1518:1525   */\n      dup6\n        /* \"#utility.yul\":1509:1515   */\n      dup3\n        /* \"#utility.yul\":1498:1507   */\n      dup7\n        /* \"#utility.yul\":1494:1516   */\n      add\n        /* \"#utility.yul\":1473:1526   */\n      tag_70\n      jump\t// in\n    tag_141:\n        /* \"#utility.yul\":1463:1526   */\n      swap3\n      pop\n        /* \"#utility.yul\":1419:1536   */\n      pop\n        /* \"#utility.yul\":1575:1577   */\n      0x20\n        /* \"#utility.yul\":1601:1654   */\n      tag_142\n        /* \"#utility.yul\":1646:1653   */\n      dup6\n        /* \"#utility.yul\":1637:1643   */\n      dup3\n        /* \"#utility.yul\":1626:1635   */\n      dup7\n        /* \"#utility.yul\":1622:1644   */\n      add\n        /* \"#utility.yul\":1601:1654   */\n      tag_73\n      jump\t// in\n    tag_142:\n        /* \"#utility.yul\":1591:1654   */\n      swap2\n      pop\n        /* \"#utility.yul\":1546:1664   */\n      pop\n        /* \"#utility.yul\":1197:1671   */\n      swap3\n      pop\n      swap3\n      swap1\n      pop\n      jump\t// out\n        /* \"#utility.yul\":1677:1795   */\n    tag_74:\n        /* \"#utility.yul\":1764:1788   */\n      tag_144\n        /* \"#utility.yul\":1782:1787   */\n      dup2\n        /* \"#utility.yul\":1764:1788   */\n      tag_68\n      jump\t// in\n    tag_144:\n        /* \"#utility.yul\":1759:1762   */\n      dup3\n        /* \"#utility.yul\":1752:1789   */\n      mstore\n        /* \"#utility.yul\":1677:1795   */\n      pop\n      pop\n      jump\t// out\n        /* \"#utility.yul\":1801:1900   */\n    tag_75:\n        /* \"#utility.yul\":1853:1859   */\n      0x00\n        /* \"#utility.yul\":1887:1892   */\n      dup2\n        /* \"#utility.yul\":1881:1893   */\n      mload\n        /* \"#utility.yul\":1871:1893   */\n      swap1\n      pop\n        /* \"#utility.yul\":1801:1900   */\n      swap2\n      swap1\n      pop\n      jump\t// out\n        /* \"#utility.yul\":1906:2075   */\n    tag_76:\n        /* \"#utility.yul\":1990:2001   */\n      0x00\n        /* \"#utility.yul\":2024:2030   */\n      dup3\n        /* \"#utility.yul\":2019:2022   */\n      dup3\n        /* \"#utility.yul\":2012:2031   */\n      mstore\n        /* \"#utility.yul\":2064:2068   */\n      0x20\n        /* \"#utility.yul\":2059:2062   */\n      dup3\n        /* \"#utility.yul\":2055:2069   */\n      add\n        /* \"#utility.yul\":2040:2069   */\n      swap1\n      pop\n        /* \"#utility.yul\":1906:2075   */\n      swap3\n      swap2\n      pop\n      pop\n      jump\t// out\n        /* \"#utility.yul\":2081:2327   */\n    tag_77:\n        /* \"#utility.yul\":2162:2163   */\n      0x00\n        /* \"#utility.yul\":2172:2285   */\n    tag_148:\n        /* \"#utility.yul\":2186:2192   */\n      dup4\n        /* \"#utility.yul\":2183:2184   */\n      dup2\n        /* \"#utility.yul\":2180:2193   */\n      lt\n        /* \"#utility.yul\":2172:2285   */\n      iszero\n      tag_150\n      jumpi\n        /* \"#utility.yul\":2271:2272   */\n      dup1\n        /* \"#utility.yul\":2266:2269   */\n      dup3\n        /* \"#utility.yul\":2262:2273   */\n      add\n        /* \"#utility.yul\":2256:2274   */\n      mload\n        /* \"#utility.yul\":2252:2253   */\n      dup2\n        /* \"#utility.yul\":2247:2250   */\n      dup5\n        /* \"#utility.yul\":2243:2254   */\n      add\n        /* \"#utility.yul\":2236:2275   */\n      mstore\n        /* \"#utility.yul\":2208:2210   */\n      0x20\n        /* \"#utility.yul\":2205:2206   */\n      dup2\n        /* \"#utility.yul\":2201:2211   */\n      add\n        /* \"#utility.yul\":2196:2211   */\n      swap1\n      pop\n        /* \"#utility.yul\":2172:2285   */\n      jump(tag_148)\n    tag_150:\n        /* \"#utility.yul\":2319:2320   */\n      0x00\n        /* \"#utility.yul\":2310:2316   */\n      dup5\n        /* \"#utility.yul\":2305:2308   */\n      dup5\n        /* \"#utility.yul\":2301:2317   */\n      add\n        /* \"#utility.yul\":2294:2321   */\n      mstore\n        /* \"#utility.yul\":2143:2327   */\n      pop\n        /* \"#utility.yul\":2081:2327   */\n      pop\n      pop\n      pop\n      jump\t// out\n        /* \"#utility.yul\":2333:2435   */\n    tag_78:\n        /* \"#utility.yul\":2374:2380   */\n      0x00\n        /* \"#utility.yul\":2425:2427   */\n      0x1f\n        /* \"#utility.yul\":2421:2428   */\n      not\n        /* \"#utility.yul\":2416:2418   */\n      0x1f\n        /* \"#utility.yul\":2409:2414   */\n      dup4\n        /* \"#utility.yul\":2405:2419   */\n      add\n        /* \"#utility.yul\":2401:2429   */\n      and\n        /* \"#utility.yul\":2391:2429   */\n      swap1\n      pop\n        /* \"#utility.yul\":2333:2435   */\n      swap2\n      swap1\n      pop\n      jump\t// out\n        /* \"#utility.yul\":2441:2818   */\n    tag_79:\n        /* \"#utility.yul\":2529:2532   */\n      0x00\n        /* \"#utility.yul\":2557:2596   */\n      tag_153\n        /* \"#utility.yul\":2590:2595   */\n      dup3\n        /* \"#utility.yul\":2557:2596   */\n      tag_75\n      jump\t// in\n    tag_153:\n        /* \"#utility.yul\":2612:2683   */\n      tag_154\n        /* \"#utility.yul\":2676:2682   */\n      dup2\n        /* \"#utility.yul\":2671:2674   */\n      dup6\n        /* \"#utility.yul\":2612:2683   */\n      tag_76\n      jump\t// in\n    tag_154:\n        /* \"#utility.yul\":2605:2683   */\n      swap4\n      pop\n        /* \"#utility.yul\":2692:2757   */\n      tag_155\n        /* \"#utility.yul\":2750:2756   */\n      dup2\n        /* \"#utility.yul\":2745:2748   */\n      dup6\n        /* \"#utility.yul\":2738:2742   */\n      0x20\n        /* \"#utility.yul\":2731:2736   */\n      dup7\n        /* \"#utility.yul\":2727:2743   */\n      add\n        /* \"#utility.yul\":2692:2757   */\n      tag_77\n      jump\t// in\n    tag_155:\n        /* \"#utility.yul\":2782:2811   */\n      tag_156\n        /* \"#utility.yul\":2804:2810   */\n      dup2\n        /* \"#utility.yul\":2782:2811   */\n      tag_78\n      jump\t// in\n    tag_156:\n        /* \"#utility.yul\":2777:2780   */\n      dup5\n        /* \"#utility.yul\":2773:2812   */\n      add\n        /* \"#utility.yul\":2766:2812   */\n      swap2\n      pop\n        /* \"#utility.yul\":2533:2818   */\n      pop\n        /* \"#utility.yul\":2441:2818   */\n      swap3\n      swap2\n      pop\n      pop\n      jump\t// out\n        /* \"#utility.yul\":2824:2942   */\n    tag_80:\n        /* \"#utility.yul\":2911:2935   */\n      tag_158\n        /* \"#utility.yul\":2929:2934   */\n      dup2\n        /* \"#utility.yul\":2911:2935   */\n      tag_71\n      jump\t// in\n    tag_158:\n        /* \"#utility.yul\":2906:2909   */\n      dup3\n        /* \"#utility.yul\":2899:2936   */\n      mstore\n        /* \"#utility.yul\":2824:2942   */\n      pop\n      pop\n      jump\t// out\n        /* \"#utility.yul\":2948:3592   */\n    tag_12:\n        /* \"#utility.yul\":3145:3149   */\n      0x00\n        /* \"#utility.yul\":3183:3186   */\n      0x80\n        /* \"#utility.yul\":3172:3181   */\n      dup3\n        /* \"#utility.yul\":3168:3187   */\n      add\n        /* \"#utility.yul\":3160:3187   */\n      swap1\n      pop\n        /* \"#utility.yul\":3197:3268   */\n      tag_160\n        /* \"#utility.yul\":3265:3266   */\n      0x00\n        /* \"#utility.yul\":3254:3263   */\n      dup4\n        /* \"#utility.yul\":3250:3267   */\n      add\n        /* \"#utility.yul\":3241:3247   */\n      dup8\n        /* \"#utility.yul\":3197:3268   */\n      tag_74\n      jump\t// in\n    tag_160:\n        /* \"#utility.yul\":3315:3324   */\n      dup2\n        /* \"#utility.yul\":3309:3313   */\n      dup2\n        /* \"#utility.yul\":3305:3325   */\n      sub\n        /* \"#utility.yul\":3300:3302   */\n      0x20\n        /* \"#utility.yul\":3289:3298   */\n      dup4\n        /* \"#utility.yul\":3285:3303   */\n      add\n        /* \"#utility.yul\":3278:3326   */\n      mstore\n        /* \"#utility.yul\":3343:3421   */\n      tag_161\n        /* \"#utility.yul\":3416:3420   */\n      dup2\n        /* \"#utility.yul\":3407:3413   */\n      dup7\n        /* \"#utility.yul\":3343:3421   */\n      tag_79\n      jump\t// in\n    tag_161:\n        /* \"#utility.yul\":3335:3421   */\n      swap1\n      pop\n        /* \"#utility.yul\":3431:3503   */\n      tag_162\n        /* \"#utility.yul\":3499:3501   */\n      0x40\n        /* \"#utility.yul\":3488:3497   */\n      dup4\n        /* \"#utility.yul\":3484:3502   */\n      add\n        /* \"#utility.yul\":3475:3481   */\n      dup6\n        /* \"#utility.yul\":3431:3503   */\n      tag_80\n      jump\t// in\n    tag_162:\n        /* \"#utility.yul\":3513:3585   */\n      tag_163\n        /* \"#utility.yul\":3581:3583   */\n      0x60\n        /* \"#utility.yul\":3570:3579   */\n      dup4\n        /* \"#utility.yul\":3566:3584   */\n      add\n        /* \"#utility.yul\":3557:3563   */\n      dup5\n        /* \"#utility.yul\":3513:3585   */\n      tag_80\n      jump\t// in\n    tag_163:\n        /* \"#utility.yul\":2948:3592   */\n      swap6\n      swap5\n      pop\n      pop\n      pop\n      pop\n      pop\n      jump\t// out\n        /* \"#utility.yul\":3598:3706   */\n    tag_81:\n        /* \"#utility.yul\":3675:3699   */\n      tag_165\n        /* \"#utility.yul\":3693:3698   */\n      dup2\n        /* \"#utility.yul\":3675:3699   */\n      tag_68\n      jump\t// in\n    tag_165:\n        /* \"#utility.yul\":3670:3673   */\n      dup3\n        /* \"#utility.yul\":3663:3700   */\n      mstore\n        /* \"#utility.yul\":3598:3706   */\n      pop\n      pop\n      jump\t// out\n        /* \"#utility.yul\":3712:3871   */\n    tag_82:\n        /* \"#utility.yul\":3786:3797   */\n      0x00\n        /* \"#utility.yul\":3820:3826   */\n      dup3\n        /* \"#utility.yul\":3815:3818   */\n      dup3\n        /* \"#utility.yul\":3808:3827   */\n      mstore\n        /* \"#utility.yul\":3860:3864   */\n      0x20\n        /* \"#utility.yul\":3855:3858   */\n      dup3\n        /* \"#utility.yul\":3851:3865   */\n      add\n        /* \"#utility.yul\":3836:3865   */\n      swap1\n      pop\n        /* \"#utility.yul\":3712:3871   */\n      swap3\n      swap2\n      pop\n      pop\n      jump\t// out\n        /* \"#utility.yul\":3877:4234   */\n    tag_83:\n        /* \"#utility.yul\":3955:3958   */\n      0x00\n        /* \"#utility.yul\":3983:4022   */\n      tag_168\n        /* \"#utility.yul\":4016:4021   */\n      dup3\n        /* \"#utility.yul\":3983:4022   */\n      tag_75\n      jump\t// in\n    tag_168:\n        /* \"#utility.yul\":4038:4099   */\n      tag_169\n        /* \"#utility.yul\":4092:4098   */\n      dup2\n        /* \"#utility.yul\":4087:4090   */\n      dup6\n        /* \"#utility.yul\":4038:4099   */\n      tag_82\n      jump\t// in\n    tag_169:\n        /* \"#utility.yul\":4031:4099   */\n      swap4\n      pop\n        /* \"#utility.yul\":4108:4173   */\n      tag_170\n        /* \"#utility.yul\":4166:4172   */\n      dup2\n        /* \"#utility.yul\":4161:4164   */\n      dup6\n        /* \"#utility.yul\":4154:4158   */\n      0x20\n        /* \"#utility.yul\":4147:4152   */\n      dup7\n        /* \"#utility.yul\":4143:4159   */\n      add\n        /* \"#utility.yul\":4108:4173   */\n      tag_77\n      jump\t// in\n    tag_170:\n        /* \"#utility.yul\":4198:4227   */\n      tag_171\n        /* \"#utility.yul\":4220:4226   */\n      dup2\n        /* \"#utility.yul\":4198:4227   */\n      tag_78\n      jump\t// in\n    tag_171:\n        /* \"#utility.yul\":4193:4196   */\n      dup5\n        /* \"#utility.yul\":4189:4228   */\n      add\n        /* \"#utility.yul\":4182:4228   */\n      swap2\n      pop\n        /* \"#utility.yul\":3959:4234   */\n      pop\n        /* \"#utility.yul\":3877:4234   */\n      swap3\n      swap2\n      pop\n      pop\n      jump\t// out\n        /* \"#utility.yul\":4240:4348   */\n    tag_84:\n        /* \"#utility.yul\":4317:4341   */\n      tag_173\n        /* \"#utility.yul\":4335:4340   */\n      dup2\n        /* \"#utility.yul\":4317:4341   */\n      tag_71\n      jump\t// in\n    tag_173:\n        /* \"#utility.yul\":4312:4315   */\n      dup3\n        /* \"#utility.yul\":4305:4342   */\n      mstore\n        /* \"#utility.yul\":4240:4348   */\n      pop\n      pop\n      jump\t// out\n        /* \"#utility.yul\":4406:5363   */\n    tag_85:\n        /* \"#utility.yul\":4517:4520   */\n      0x00\n        /* \"#utility.yul\":4553:4557   */\n      0x80\n        /* \"#utility.yul\":4548:4551   */\n      dup4\n        /* \"#utility.yul\":4544:4558   */\n      add\n        /* \"#utility.yul\":4642:4646   */\n      0x00\n        /* \"#utility.yul\":4635:4640   */\n      dup4\n        /* \"#utility.yul\":4631:4647   */\n      add\n        /* \"#utility.yul\":4625:4648   */\n      mload\n        /* \"#utility.yul\":4661:4724   */\n      tag_175\n        /* \"#utility.yul\":4718:4722   */\n      0x00\n        /* \"#utility.yul\":4713:4716   */\n      dup7\n        /* \"#utility.yul\":4709:4723   */\n      add\n        /* \"#utility.yul\":4695:4707   */\n      dup3\n        /* \"#utility.yul\":4661:4724   */\n      tag_81\n      jump\t// in\n    tag_175:\n        /* \"#utility.yul\":4568:4734   */\n      pop\n        /* \"#utility.yul\":4819:4823   */\n      0x20\n        /* \"#utility.yul\":4812:4817   */\n      dup4\n        /* \"#utility.yul\":4808:4824   */\n      add\n        /* \"#utility.yul\":4802:4825   */\n      mload\n        /* \"#utility.yul\":4872:4875   */\n      dup5\n        /* \"#utility.yul\":4866:4870   */\n      dup3\n        /* \"#utility.yul\":4862:4876   */\n      sub\n        /* \"#utility.yul\":4855:4859   */\n      0x20\n        /* \"#utility.yul\":4850:4853   */\n      dup7\n        /* \"#utility.yul\":4846:4860   */\n      add\n        /* \"#utility.yul\":4839:4877   */\n      mstore\n        /* \"#utility.yul\":4898:4971   */\n      tag_176\n        /* \"#utility.yul\":4966:4970   */\n      dup3\n        /* \"#utility.yul\":4952:4964   */\n      dup3\n        /* \"#utility.yul\":4898:4971   */\n      tag_83\n      jump\t// in\n    tag_176:\n        /* \"#utility.yul\":4890:4971   */\n      swap2\n      pop\n        /* \"#utility.yul\":4744:4982   */\n      pop\n        /* \"#utility.yul\":5069:5073   */\n      0x40\n        /* \"#utility.yul\":5062:5067   */\n      dup4\n        /* \"#utility.yul\":5058:5074   */\n      add\n        /* \"#utility.yul\":5052:5075   */\n      mload\n        /* \"#utility.yul\":5088:5151   */\n      tag_177\n        /* \"#utility.yul\":5145:5149   */\n      0x40\n        /* \"#utility.yul\":5140:5143   */\n      dup7\n        /* \"#utility.yul\":5136:5150   */\n      add\n        /* \"#utility.yul\":5122:5134   */\n      dup3\n        /* \"#utility.yul\":5088:5151   */\n      tag_84\n      jump\t// in\n    tag_177:\n        /* \"#utility.yul\":4992:5161   */\n      pop\n        /* \"#utility.yul\":5244:5248   */\n      0x60\n        /* \"#utility.yul\":5237:5242   */\n      dup4\n        /* \"#utility.yul\":5233:5249   */\n      add\n        /* \"#utility.yul\":5227:5250   */\n      mload\n        /* \"#utility.yul\":5263:5326   */\n      tag_178\n        /* \"#utility.yul\":5320:5324   */\n      0x60\n        /* \"#utility.yul\":5315:5318   */\n      dup7\n        /* \"#utility.yul\":5311:5325   */\n      add\n        /* \"#utility.yul\":5297:5309   */\n      dup3\n        /* \"#utility.yul\":5263:5326   */\n      tag_84\n      jump\t// in\n    tag_178:\n        /* \"#utility.yul\":5171:5336   */\n      pop\n        /* \"#utility.yul\":5353:5357   */\n      dup1\n        /* \"#utility.yul\":5346:5357   */\n      swap2\n      pop\n        /* \"#utility.yul\":4522:5363   */\n      pop\n        /* \"#utility.yul\":4406:5363   */\n      swap3\n      swap2\n      pop\n      pop\n      jump\t// out\n        /* \"#utility.yul\":5369:5726   */\n    tag_17:\n        /* \"#utility.yul\":5504:5508   */\n      0x00\n        /* \"#utility.yul\":5542:5544   */\n      0x20\n        /* \"#utility.yul\":5531:5540   */\n      dup3\n        /* \"#utility.yul\":5527:5545   */\n      add\n        /* \"#utility.yul\":5519:5545   */\n      swap1\n      pop\n        /* \"#utility.yul\":5591:5600   */\n      dup2\n        /* \"#utility.yul\":5585:5589   */\n      dup2\n        /* \"#utility.yul\":5581:5601   */\n      sub\n        /* \"#utility.yul\":5577:5578   */\n      0x00\n        /* \"#utility.yul\":5566:5575   */\n      dup4\n        /* \"#utility.yul\":5562:5579   */\n      add\n        /* \"#utility.yul\":5555:5602   */\n      mstore\n        /* \"#utility.yul\":5619:5719   */\n      tag_180\n        /* \"#utility.yul\":5714:5718   */\n      dup2\n        /* \"#utility.yul\":5705:5711   */\n      dup5\n        /* \"#utility.yul\":5619:5719   */\n      tag_85\n      jump\t// in\n    tag_180:\n        /* \"#utility.yul\":5611:5719   */\n      swap1\n      pop\n        /* \"#utility.yul\":5369:5726   */\n      swap3\n      swap2\n      pop\n      pop\n      jump\t// out\n        /* \"#utility.yul\":5732:6061   */\n    tag_20:\n        /* \"#utility.yul\":5791:5797   */\n      0x00\n        /* \"#utility.yul\":5840:5842   */\n      0x20\n        /* \"#utility.yul\":5828:5837   */\n      dup3\n        /* \"#utility.yul\":5819:5826   */\n      dup5\n        /* \"#utility.yul\":5815:5838   */\n      sub\n        /* \"#utility.yul\":5811:5843   */\n      slt\n        /* \"#utility.yul\":5808:5927   */\n      iszero\n      tag_182\n      jumpi\n        /* \"#utility.yul\":5846:5925   */\n      tag_183\n      tag_65\n      jump\t// in\n    tag_183:\n        /* \"#utility.yul\":5808:5927   */\n    tag_182:\n        /* \"#utility.yul\":5966:5967   */\n      0x00\n        /* \"#utility.yul\":5991:6044   */\n      tag_184\n        /* \"#utility.yul\":6036:6043   */\n      dup5\n        /* \"#utility.yul\":6027:6033   */\n      dup3\n        /* \"#utility.yul\":6016:6025   */\n      dup6\n        /* \"#utility.yul\":6012:6034   */\n      add\n        /* \"#utility.yul\":5991:6044   */\n      tag_70\n      jump\t// in\n    tag_184:\n        /* \"#utility.yul\":5981:6044   */\n      swap2\n      pop\n        /* \"#utility.yul\":5937:6054   */\n      pop\n        /* \"#utility.yul\":5732:6061   */\n      swap3\n      swap2\n      pop\n      pop\n      jump\t// out\n        /* \"#utility.yul\":6067:6202   */\n    tag_86:\n        /* \"#utility.yul\":6155:6161   */\n      0x00\n        /* \"#utility.yul\":6189:6194   */\n      dup2\n        /* \"#utility.yul\":6183:6195   */\n      mload\n        /* \"#utility.yul\":6173:6195   */\n      swap1\n      pop\n        /* \"#utility.yul\":6067:6202   */\n      swap2\n      swap1\n      pop\n      jump\t// out\n        /* \"#utility.yul\":6208:6413   */\n    tag_87:\n        /* \"#utility.yul\":6328:6339   */\n      0x00\n        /* \"#utility.yul\":6362:6368   */\n      dup3\n        /* \"#utility.yul\":6357:6360   */\n      dup3\n        /* \"#utility.yul\":6350:6369   */\n      mstore\n        /* \"#utility.yul\":6402:6406   */\n      0x20\n        /* \"#utility.yul\":6397:6400   */\n      dup3\n        /* \"#utility.yul\":6393:6407   */\n      add\n        /* \"#utility.yul\":6378:6407   */\n      swap1\n      pop\n        /* \"#utility.yul\":6208:6413   */\n      swap3\n      swap2\n      pop\n      pop\n      jump\t// out\n        /* \"#utility.yul\":6419:6572   */\n    tag_88:\n        /* \"#utility.yul\":6507:6511   */\n      0x00\n        /* \"#utility.yul\":6530:6533   */\n      dup2\n        /* \"#utility.yul\":6522:6533   */\n      swap1\n      pop\n        /* \"#utility.yul\":6560:6564   */\n      0x20\n        /* \"#utility.yul\":6555:6558   */\n      dup3\n        /* \"#utility.yul\":6551:6565   */\n      add\n        /* \"#utility.yul\":6543:6565   */\n      swap1\n      pop\n        /* \"#utility.yul\":6419:6572   */\n      swap2\n      swap1\n      pop\n      jump\t// out\n        /* \"#utility.yul\":6630:7577   */\n    tag_89:\n        /* \"#utility.yul\":6731:6734   */\n      0x00\n        /* \"#utility.yul\":6767:6771   */\n      0x80\n        /* \"#utility.yul\":6762:6765   */\n      dup4\n        /* \"#utility.yul\":6758:6772   */\n      add\n        /* \"#utility.yul\":6856:6860   */\n      0x00\n        /* \"#utility.yul\":6849:6854   */\n      dup4\n        /* \"#utility.yul\":6845:6861   */\n      add\n        /* \"#utility.yul\":6839:6862   */\n      mload\n        /* \"#utility.yul\":6875:6938   */\n      tag_189\n        /* \"#utility.yul\":6932:6936   */\n      0x00\n        /* \"#utility.yul\":6927:6930   */\n      dup7\n        /* \"#utility.yul\":6923:6937   */\n      add\n        /* \"#utility.yul\":6909:6921   */\n      dup3\n        /* \"#utility.yul\":6875:6938   */\n      tag_81\n      jump\t// in\n    tag_189:\n        /* \"#utility.yul\":6782:6948   */\n      pop\n        /* \"#utility.yul\":7033:7037   */\n      0x20\n        /* \"#utility.yul\":7026:7031   */\n      dup4\n        /* \"#utility.yul\":7022:7038   */\n      add\n        /* \"#utility.yul\":7016:7039   */\n      mload\n        /* \"#utility.yul\":7086:7089   */\n      dup5\n        /* \"#utility.yul\":7080:7084   */\n      dup3\n        /* \"#utility.yul\":7076:7090   */\n      sub\n        /* \"#utility.yul\":7069:7073   */\n      0x20\n        /* \"#utility.yul\":7064:7067   */\n      dup7\n        /* \"#utility.yul\":7060:7074   */\n      add\n        /* \"#utility.yul\":7053:7091   */\n      mstore\n        /* \"#utility.yul\":7112:7185   */\n      tag_190\n        /* \"#utility.yul\":7180:7184   */\n      dup3\n        /* \"#utility.yul\":7166:7178   */\n      dup3\n        /* \"#utility.yul\":7112:7185   */\n      tag_83\n      jump\t// in\n    tag_190:\n        /* \"#utility.yul\":7104:7185   */\n      swap2\n      pop\n        /* \"#utility.yul\":6958:7196   */\n      pop\n        /* \"#utility.yul\":7283:7287   */\n      0x40\n        /* \"#utility.yul\":7276:7281   */\n      dup4\n        /* \"#utility.yul\":7272:7288   */\n      add\n        /* \"#utility.yul\":7266:7289   */\n      mload\n        /* \"#utility.yul\":7302:7365   */\n      tag_191\n        /* \"#utility.yul\":7359:7363   */\n      0x40\n        /* \"#utility.yul\":7354:7357   */\n      dup7\n        /* \"#utility.yul\":7350:7364   */\n      add\n        /* \"#utility.yul\":7336:7348   */\n      dup3\n        /* \"#utility.yul\":7302:7365   */\n      tag_84\n      jump\t// in\n    tag_191:\n        /* \"#utility.yul\":7206:7375   */\n      pop\n        /* \"#utility.yul\":7458:7462   */\n      0x60\n        /* \"#utility.yul\":7451:7456   */\n      dup4\n        /* \"#utility.yul\":7447:7463   */\n      add\n        /* \"#utility.yul\":7441:7464   */\n      mload\n        /* \"#utility.yul\":7477:7540   */\n      tag_192\n        /* \"#utility.yul\":7534:7538   */\n      0x60\n        /* \"#utility.yul\":7529:7532   */\n      dup7\n        /* \"#utility.yul\":7525:7539   */\n      add\n        /* \"#utility.yul\":7511:7523   */\n      dup3\n        /* \"#utility.yul\":7477:7540   */\n      tag_84\n      jump\t// in\n    tag_192:\n        /* \"#utility.yul\":7385:7550   */\n      pop\n        /* \"#utility.yul\":7567:7571   */\n      dup1\n        /* \"#utility.yul\":7560:7571   */\n      swap2\n      pop\n        /* \"#utility.yul\":6736:7577   */\n      pop\n        /* \"#utility.yul\":6630:7577   */\n      swap3\n      swap2\n      pop\n      pop\n      jump\t// out\n        /* \"#utility.yul\":7583:7823   */\n    tag_90:\n        /* \"#utility.yul\":7694:7704   */\n      0x00\n        /* \"#utility.yul\":7729:7817   */\n      tag_194\n        /* \"#utility.yul\":7813:7816   */\n      dup4\n        /* \"#utility.yul\":7805:7811   */\n      dup4\n        /* \"#utility.yul\":7729:7817   */\n      tag_89\n      jump\t// in\n    tag_194:\n        /* \"#utility.yul\":7715:7817   */\n      swap1\n      pop\n        /* \"#utility.yul\":7583:7823   */\n      swap3\n      swap2\n      pop\n      pop\n      jump\t// out\n        /* \"#utility.yul\":7829:7963   */\n    tag_91:\n        /* \"#utility.yul\":7920:7924   */\n      0x00\n        /* \"#utility.yul\":7952:7956   */\n      0x20\n        /* \"#utility.yul\":7947:7950   */\n      dup3\n        /* \"#utility.yul\":7943:7957   */\n      add\n        /* \"#utility.yul\":7935:7957   */\n      swap1\n      pop\n        /* \"#utility.yul\":7829:7963   */\n      swap2\n      swap1\n      pop\n      jump\t// out\n        /* \"#utility.yul\":8025:9104   */\n    tag_92:\n        /* \"#utility.yul\":8186:8189   */\n      0x00\n        /* \"#utility.yul\":8215:8290   */\n      tag_197\n        /* \"#utility.yul\":8284:8289   */\n      dup3\n        /* \"#utility.yul\":8215:8290   */\n      tag_86\n      jump\t// in\n    tag_197:\n        /* \"#utility.yul\":8306:8413   */\n      tag_198\n        /* \"#utility.yul\":8406:8412   */\n      dup2\n        /* \"#utility.yul\":8401:8404   */\n      dup6\n        /* \"#utility.yul\":8306:8413   */\n      tag_87\n      jump\t// in\n    tag_198:\n        /* \"#utility.yul\":8299:8413   */\n      swap4\n      pop\n        /* \"#utility.yul\":8439:8442   */\n      dup4\n        /* \"#utility.yul\":8484:8488   */\n      0x20\n        /* \"#utility.yul\":8476:8482   */\n      dup3\n        /* \"#utility.yul\":8472:8489   */\n      mul\n        /* \"#utility.yul\":8467:8470   */\n      dup6\n        /* \"#utility.yul\":8463:8490   */\n      add\n        /* \"#utility.yul\":8514:8591   */\n      tag_199\n        /* \"#utility.yul\":8585:8590   */\n      dup6\n        /* \"#utility.yul\":8514:8591   */\n      tag_88\n      jump\t// in\n    tag_199:\n        /* \"#utility.yul\":8614:8621   */\n      dup1\n        /* \"#utility.yul\":8645:8646   */\n      0x00\n        /* \"#utility.yul\":8630:9059   */\n    tag_200:\n        /* \"#utility.yul\":8655:8661   */\n      dup6\n        /* \"#utility.yul\":8652:8653   */\n      dup2\n        /* \"#utility.yul\":8649:8662   */\n      lt\n        /* \"#utility.yul\":8630:9059   */\n      iszero\n      tag_202\n      jumpi\n        /* \"#utility.yul\":8726:8735   */\n      dup5\n        /* \"#utility.yul\":8720:8724   */\n      dup5\n        /* \"#utility.yul\":8716:8736   */\n      sub\n        /* \"#utility.yul\":8711:8714   */\n      dup10\n        /* \"#utility.yul\":8704:8737   */\n      mstore\n        /* \"#utility.yul\":8777:8783   */\n      dup2\n        /* \"#utility.yul\":8771:8784   */\n      mload\n        /* \"#utility.yul\":8805:8911   */\n      tag_203\n        /* \"#utility.yul\":8906:8910   */\n      dup6\n        /* \"#utility.yul\":8891:8904   */\n      dup3\n        /* \"#utility.yul\":8805:8911   */\n      tag_90\n      jump\t// in\n    tag_203:\n        /* \"#utility.yul\":8797:8911   */\n      swap5\n      pop\n        /* \"#utility.yul\":8934:9015   */\n      tag_204\n        /* \"#utility.yul\":9008:9014   */\n      dup4\n        /* \"#utility.yul\":8934:9015   */\n      tag_91\n      jump\t// in\n    tag_204:\n        /* \"#utility.yul\":8924:9015   */\n      swap3\n      pop\n        /* \"#utility.yul\":9044:9048   */\n      0x20\n        /* \"#utility.yul\":9039:9042   */\n      dup11\n        /* \"#utility.yul\":9035:9049   */\n      add\n        /* \"#utility.yul\":9028:9049   */\n      swap10\n      pop\n        /* \"#utility.yul\":8690:9059   */\n      pop\n        /* \"#utility.yul\":8677:8678   */\n      0x01\n        /* \"#utility.yul\":8674:8675   */\n      dup2\n        /* \"#utility.yul\":8670:8679   */\n      add\n        /* \"#utility.yul\":8665:8679   */\n      swap1\n      pop\n        /* \"#utility.yul\":8630:9059   */\n      jump(tag_200)\n    tag_202:\n        /* \"#utility.yul\":8634:8648   */\n      pop\n        /* \"#utility.yul\":9075:9079   */\n      dup3\n        /* \"#utility.yul\":9068:9079   */\n      swap8\n      pop\n        /* \"#utility.yul\":9095:9098   */\n      dup8\n        /* \"#utility.yul\":9088:9098   */\n      swap6\n      pop\n        /* \"#utility.yul\":8191:9104   */\n      pop\n      pop\n      pop\n      pop\n      pop\n        /* \"#utility.yul\":8025:9104   */\n      swap3\n      swap2\n      pop\n      pop\n      jump\t// out\n        /* \"#utility.yul\":9110:9567   */\n    tag_23:\n        /* \"#utility.yul\":9295:9299   */\n      0x00\n        /* \"#utility.yul\":9333:9335   */\n      0x20\n        /* \"#utility.yul\":9322:9331   */\n      dup3\n        /* \"#utility.yul\":9318:9336   */\n      add\n        /* \"#utility.yul\":9310:9336   */\n      swap1\n      pop\n        /* \"#utility.yul\":9382:9391   */\n      dup2\n        /* \"#utility.yul\":9376:9380   */\n      dup2\n        /* \"#utility.yul\":9372:9392   */\n      sub\n        /* \"#utility.yul\":9368:9369   */\n      0x00\n        /* \"#utility.yul\":9357:9366   */\n      dup4\n        /* \"#utility.yul\":9353:9370   */\n      add\n        /* \"#utility.yul\":9346:9393   */\n      mstore\n        /* \"#utility.yul\":9410:9560   */\n      tag_206\n        /* \"#utility.yul\":9555:9559   */\n      dup2\n        /* \"#utility.yul\":9546:9552   */\n      dup5\n        /* \"#utility.yul\":9410:9560   */\n      tag_92\n      jump\t// in\n    tag_206:\n        /* \"#utility.yul\":9402:9560   */\n      swap1\n      pop\n        /* \"#utility.yul\":9110:9567   */\n      swap3\n      swap2\n      pop\n      pop\n      jump\t// out\n        /* \"#utility.yul\":9573:9690   */\n    tag_93:\n        /* \"#utility.yul\":9682:9683   */\n      0x00\n        /* \"#utility.yul\":9679:9680   */\n      dup1\n        /* \"#utility.yul\":9672:9684   */\n      revert\n        /* \"#utility.yul\":9696:9813   */\n    tag_94:\n        /* \"#utility.yul\":9805:9806   */\n      0x00\n        /* \"#utility.yul\":9802:9803   */\n      dup1\n        /* \"#utility.yul\":9795:9807   */\n      revert\n        /* \"#utility.yul\":9819:9999   */\n    tag_95:\n        /* \"#utility.yul\":9867:9944   */\n      0x4e487b7100000000000000000000000000000000000000000000000000000000\n        /* \"#utility.yul\":9864:9865   */\n      0x00\n        /* \"#utility.yul\":9857:9945   */\n      mstore\n        /* \"#utility.yul\":9964:9968   */\n      0x41\n        /* \"#utility.yul\":9961:9962   */\n      0x04\n        /* \"#utility.yul\":9954:9969   */\n      mstore\n        /* \"#utility.yul\":9988:9992   */\n      0x24\n        /* \"#utility.yul\":9985:9986   */\n      0x00\n        /* \"#utility.yul\":9978:9993   */\n      revert\n        /* \"#utility.yul\":10005:10286   */\n    tag_96:\n        /* \"#utility.yul\":10088:10115   */\n      tag_211\n        /* \"#utility.yul\":10110:10114   */\n      dup3\n        /* \"#utility.yul\":10088:10115   */\n      tag_78\n      jump\t// in\n    tag_211:\n        /* \"#utility.yul\":10080:10086   */\n      dup2\n        /* \"#utility.yul\":10076:10116   */\n      add\n        /* \"#utility.yul\":10218:10224   */\n      dup2\n        /* \"#utility.yul\":10206:10216   */\n      dup2\n        /* \"#utility.yul\":10203:10225   */\n      lt\n        /* \"#utility.yul\":10182:10200   */\n      0xffffffffffffffff\n        /* \"#utility.yul\":10170:10180   */\n      dup3\n        /* \"#utility.yul\":10167:10201   */\n      gt\n        /* \"#utility.yul\":10164:10226   */\n      or\n        /* \"#utility.yul\":10161:10249   */\n      iszero\n      tag_212\n      jumpi\n        /* \"#utility.yul\":10229:10247   */\n      tag_213\n      tag_95\n      jump\t// in\n    tag_213:\n        /* \"#utility.yul\":10161:10249   */\n    tag_212:\n        /* \"#utility.yul\":10269:10279   */\n      dup1\n        /* \"#utility.yul\":10265:10267   */\n      0x40\n        /* \"#utility.yul\":10258:10280   */\n      mstore\n        /* \"#utility.yul\":10048:10286   */\n      pop\n        /* \"#utility.yul\":10005:10286   */\n      pop\n      pop\n      jump\t// out\n        /* \"#utility.yul\":10292:10421   */\n    tag_97:\n        /* \"#utility.yul\":10326:10332   */\n      0x00\n        /* \"#utility.yul\":10353:10373   */\n      tag_215\n      tag_64\n      jump\t// in\n    tag_215:\n        /* \"#utility.yul\":10343:10373   */\n      swap1\n      pop\n        /* \"#utility.yul\":10382:10415   */\n      tag_216\n        /* \"#utility.yul\":10410:10414   */\n      dup3\n        /* \"#utility.yul\":10402:10408   */\n      dup3\n        /* \"#utility.yul\":10382:10415   */\n      tag_96\n      jump\t// in\n    tag_216:\n        /* \"#utility.yul\":10292:10421   */\n      swap2\n      swap1\n      pop\n      jump\t// out\n        /* \"#utility.yul\":10427:10735   */\n    tag_98:\n        /* \"#utility.yul\":10489:10493   */\n      0x00\n        /* \"#utility.yul\":10579:10597   */\n      0xffffffffffffffff\n        /* \"#utility.yul\":10571:10577   */\n      dup3\n        /* \"#utility.yul\":10568:10598   */\n      gt\n        /* \"#utility.yul\":10565:10621   */\n      iszero\n      tag_218\n      jumpi\n        /* \"#utility.yul\":10601:10619   */\n      tag_219\n      tag_95\n      jump\t// in\n    tag_219:\n        /* \"#utility.yul\":10565:10621   */\n    tag_218:\n        /* \"#utility.yul\":10639:10668   */\n      tag_220\n        /* \"#utility.yul\":10661:10667   */\n      dup3\n        /* \"#utility.yul\":10639:10668   */\n      tag_78\n      jump\t// in\n    tag_220:\n        /* \"#utility.yul\":10631:10668   */\n      swap1\n      pop\n        /* \"#utility.yul\":10723:10727   */\n      0x20\n        /* \"#utility.yul\":10717:10721   */\n      dup2\n        /* \"#utility.yul\":10713:10728   */\n      add\n        /* \"#utility.yul\":10705:10728   */\n      swap1\n      pop\n        /* \"#utility.yul\":10427:10735   */\n      swap2\n      swap1\n      pop\n      jump\t// out\n        /* \"#utility.yul\":10741:10887   */\n    tag_99:\n        /* \"#utility.yul\":10838:10844   */\n      dup3\n        /* \"#utility.yul\":10833:10836   */\n      dup2\n        /* \"#utility.yul\":10828:10831   */\n      dup4\n        /* \"#utility.yul\":10815:10845   */\n      calldatacopy\n        /* \"#utility.yul\":10879:10880   */\n      0x00\n        /* \"#utility.yul\":10870:10876   */\n      dup4\n        /* \"#utility.yul\":10865:10868   */\n      dup4\n        /* \"#utility.yul\":10861:10877   */\n      add\n        /* \"#utility.yul\":10854:10881   */\n      mstore\n        /* \"#utility.yul\":10741:10887   */\n      pop\n      pop\n      pop\n      jump\t// out\n        /* \"#utility.yul\":10893:11318   */\n    tag_100:\n        /* \"#utility.yul\":10971:10976   */\n      0x00\n        /* \"#utility.yul\":10996:11062   */\n      tag_223\n        /* \"#utility.yul\":11012:11061   */\n      tag_224\n        /* \"#utility.yul\":11054:11060   */\n      dup5\n        /* \"#utility.yul\":11012:11061   */\n      tag_98\n      jump\t// in\n    tag_224:\n        /* \"#utility.yul\":10996:11062   */\n      tag_97\n      jump\t// in\n    tag_223:\n        /* \"#utility.yul\":10987:11062   */\n      swap1\n      pop\n        /* \"#utility.yul\":11085:11091   */\n      dup3\n        /* \"#utility.yul\":11078:11083   */\n      dup2\n        /* \"#utility.yul\":11071:11092   */\n      mstore\n        /* \"#utility.yul\":11123:11127   */\n      0x20\n        /* \"#utility.yul\":11116:11121   */\n      dup2\n        /* \"#utility.yul\":11112:11128   */\n      add\n        /* \"#utility.yul\":11161:11164   */\n      dup5\n        /* \"#utility.yul\":11152:11158   */\n      dup5\n        /* \"#utility.yul\":11147:11150   */\n      dup5\n        /* \"#utility.yul\":11143:11159   */\n      add\n        /* \"#utility.yul\":11140:11165   */\n      gt\n        /* \"#utility.yul\":11137:11249   */\n      iszero\n      tag_225\n      jumpi\n        /* \"#utility.yul\":11168:11247   */\n      tag_226\n      tag_94\n      jump\t// in\n    tag_226:\n        /* \"#utility.yul\":11137:11249   */\n    tag_225:\n        /* \"#utility.yul\":11258:11312   */\n      tag_227\n        /* \"#utility.yul\":11305:11311   */\n      dup5\n        /* \"#utility.yul\":11300:11303   */\n      dup3\n        /* \"#utility.yul\":11295:11298   */\n      dup6\n        /* \"#utility.yul\":11258:11312   */\n      tag_99\n      jump\t// in\n    tag_227:\n        /* \"#utility.yul\":10977:11318   */\n      pop\n        /* \"#utility.yul\":10893:11318   */\n      swap4\n      swap3\n      pop\n      pop\n      pop\n      jump\t// out\n        /* \"#utility.yul\":11338:11678   */\n    tag_101:\n        /* \"#utility.yul\":11394:11399   */\n      0x00\n        /* \"#utility.yul\":11443:11446   */\n      dup3\n        /* \"#utility.yul\":11436:11440   */\n      0x1f\n        /* \"#utility.yul\":11428:11434   */\n      dup4\n        /* \"#utility.yul\":11424:11441   */\n      add\n        /* \"#utility.yul\":11420:11447   */\n      slt\n        /* \"#utility.yul\":11410:11532   */\n      tag_229\n      jumpi\n        /* \"#utility.yul\":11451:11530   */\n      tag_230\n      tag_93\n      jump\t// in\n    tag_230:\n        /* \"#utility.yul\":11410:11532   */\n    tag_229:\n        /* \"#utility.yul\":11568:11574   */\n      dup2\n        /* \"#utility.yul\":11555:11575   */\n      calldataload\n        /* \"#utility.yul\":11593:11672   */\n      tag_231\n        /* \"#utility.yul\":11668:11671   */\n      dup5\n        /* \"#utility.yul\":11660:11666   */\n      dup3\n        /* \"#utility.yul\":11653:11657   */\n      0x20\n        /* \"#utility.yul\":11645:11651   */\n      dup7\n        /* \"#utility.yul\":11641:11658   */\n      add\n        /* \"#utility.yul\":11593:11672   */\n      tag_100\n      jump\t// in\n    tag_231:\n        /* \"#utility.yul\":11584:11672   */\n      swap2\n      pop\n        /* \"#utility.yul\":11400:11678   */\n      pop\n        /* \"#utility.yul\":11338:11678   */\n      swap3\n      swap2\n      pop\n      pop\n      jump\t// out\n        /* \"#utility.yul\":11684:12193   */\n    tag_26:\n        /* \"#utility.yul\":11753:11759   */\n      0x00\n        /* \"#utility.yul\":11802:11804   */\n      0x20\n        /* \"#utility.yul\":11790:11799   */\n      dup3\n        /* \"#utility.yul\":11781:11788   */\n      dup5\n        /* \"#utility.yul\":11777:11800   */\n      sub\n        /* \"#utility.yul\":11773:11805   */\n      slt\n        /* \"#utility.yul\":11770:11889   */\n      iszero\n      tag_233\n      jumpi\n        /* \"#utility.yul\":11808:11887   */\n      tag_234\n      tag_65\n      jump\t// in\n    tag_234:\n        /* \"#utility.yul\":11770:11889   */\n    tag_233:\n        /* \"#utility.yul\":11956:11957   */\n      0x00\n        /* \"#utility.yul\":11945:11954   */\n      dup3\n        /* \"#utility.yul\":11941:11958   */\n      add\n        /* \"#utility.yul\":11928:11959   */\n      calldataload\n        /* \"#utility.yul\":11986:12004   */\n      0xffffffffffffffff\n        /* \"#utility.yul\":11978:11984   */\n      dup2\n        /* \"#utility.yul\":11975:12005   */\n      gt\n        /* \"#utility.yul\":11972:12089   */\n      iszero\n      tag_235\n      jumpi\n        /* \"#utility.yul\":12008:12087   */\n      tag_236\n      tag_66\n      jump\t// in\n    tag_236:\n        /* \"#utility.yul\":11972:12089   */\n    tag_235:\n        /* \"#utility.yul\":12113:12176   */\n      tag_237\n        /* \"#utility.yul\":12168:12175   */\n      dup5\n        /* \"#utility.yul\":12159:12165   */\n      dup3\n        /* \"#utility.yul\":12148:12157   */\n      dup6\n        /* \"#utility.yul\":12144:12166   */\n      add\n        /* \"#utility.yul\":12113:12176   */\n      tag_101\n      jump\t// in\n    tag_237:\n        /* \"#utility.yul\":12103:12176   */\n      swap2\n      pop\n        /* \"#utility.yul\":11899:12186   */\n      pop\n        /* \"#utility.yul\":11684:12193   */\n      swap3\n      swap2\n      pop\n      pop\n      jump\t// out\n        /* \"#utility.yul\":12199:12379   */\n    tag_102:\n        /* \"#utility.yul\":12247:12324   */\n      0x4e487b7100000000000000000000000000000000000000000000000000000000\n        /* \"#utility.yul\":12244:12245   */\n      0x00\n        /* \"#utility.yul\":12237:12325   */\n      mstore\n        /* \"#utility.yul\":12344:12348   */\n      0x22\n        /* \"#utility.yul\":12341:12342   */\n      0x04\n        /* \"#utility.yul\":12334:12349   */\n      mstore\n        /* \"#utility.yul\":12368:12372   */\n      0x24\n        /* \"#utility.yul\":12365:12366   */\n      0x00\n        /* \"#utility.yul\":12358:12373   */\n      revert\n        /* \"#utility.yul\":12385:12705   */\n    tag_31:\n        /* \"#utility.yul\":12429:12435   */\n      0x00\n        /* \"#utility.yul\":12466:12467   */\n      0x02\n        /* \"#utility.yul\":12460:12464   */\n      dup3\n        /* \"#utility.yul\":12456:12468   */\n      div\n        /* \"#utility.yul\":12446:12468   */\n      swap1\n      pop\n        /* \"#utility.yul\":12513:12514   */\n      0x01\n        /* \"#utility.yul\":12507:12511   */\n      dup3\n        /* \"#utility.yul\":12503:12515   */\n      and\n        /* \"#utility.yul\":12534:12552   */\n      dup1\n        /* \"#utility.yul\":12524:12605   */\n      tag_240\n      jumpi\n        /* \"#utility.yul\":12590:12594   */\n      0x7f\n        /* \"#utility.yul\":12582:12588   */\n      dup3\n        /* \"#utility.yul\":12578:12595   */\n      and\n        /* \"#utility.yul\":12568:12595   */\n      swap2\n      pop\n        /* \"#utility.yul\":12524:12605   */\n    tag_240:\n        /* \"#utility.yul\":12652:12654   */\n      0x20\n        /* \"#utility.yul\":12644:12650   */\n      dup3\n        /* \"#utility.yul\":12641:12655   */\n      lt\n        /* \"#utility.yul\":12621:12639   */\n      dup2\n        /* \"#utility.yul\":12618:12656   */\n      sub\n        /* \"#utility.yul\":12615:12699   */\n      tag_241\n      jumpi\n        /* \"#utility.yul\":12671:12689   */\n      tag_242\n      tag_102\n      jump\t// in\n    tag_242:\n        /* \"#utility.yul\":12615:12699   */\n    tag_241:\n        /* \"#utility.yul\":12436:12705   */\n      pop\n        /* \"#utility.yul\":12385:12705   */\n      swap2\n      swap1\n      pop\n      jump\t// out\n        /* \"#utility.yul\":12711:12880   */\n    tag_103:\n        /* \"#utility.yul\":12851:12872   */\n      0x496e646578206f7574206f6620626f756e647300000000000000000000000000\n        /* \"#utility.yul\":12847:12848   */\n      0x00\n        /* \"#utility.yul\":12839:12845   */\n      dup3\n        /* \"#utility.yul\":12835:12849   */\n      add\n        /* \"#utility.yul\":12828:12873   */\n      mstore\n        /* \"#utility.yul\":12711:12880   */\n      pop\n      jump\t// out\n        /* \"#utility.yul\":12886:13252   */\n    tag_104:\n        /* \"#utility.yul\":13028:13031   */\n      0x00\n        /* \"#utility.yul\":13049:13116   */\n      tag_245\n        /* \"#utility.yul\":13113:13115   */\n      0x13\n        /* \"#utility.yul\":13108:13111   */\n      dup4\n        /* \"#utility.yul\":13049:13116   */\n      tag_76\n      jump\t// in\n    tag_245:\n        /* \"#utility.yul\":13042:13116   */\n      swap2\n      pop\n        /* \"#utility.yul\":13125:13218   */\n      tag_246\n        /* \"#utility.yul\":13214:13217   */\n      dup3\n        /* \"#utility.yul\":13125:13218   */\n      tag_103\n      jump\t// in\n    tag_246:\n        /* \"#utility.yul\":13243:13245   */\n      0x20\n        /* \"#utility.yul\":13238:13241   */\n      dup3\n        /* \"#utility.yul\":13234:13246   */\n      add\n        /* \"#utility.yul\":13227:13246   */\n      swap1\n      pop\n        /* \"#utility.yul\":12886:13252   */\n      swap2\n      swap1\n      pop\n      jump\t// out\n        /* \"#utility.yul\":13258:13677   */\n    tag_41:\n        /* \"#utility.yul\":13424:13428   */\n      0x00\n        /* \"#utility.yul\":13462:13464   */\n      0x20\n        /* \"#utility.yul\":13451:13460   */\n      dup3\n        /* \"#utility.yul\":13447:13465   */\n      add\n        /* \"#utility.yul\":13439:13465   */\n      swap1\n      pop\n        /* \"#utility.yul\":13511:13520   */\n      dup2\n        /* \"#utility.yul\":13505:13509   */\n      dup2\n        /* \"#utility.yul\":13501:13521   */\n      sub\n        /* \"#utility.yul\":13497:13498   */\n      0x00\n        /* \"#utility.yul\":13486:13495   */\n      dup4\n        /* \"#utility.yul\":13482:13499   */\n      add\n        /* \"#utility.yul\":13475:13522   */\n      mstore\n        /* \"#utility.yul\":13539:13670   */\n      tag_248\n        /* \"#utility.yul\":13665:13669   */\n      dup2\n        /* \"#utility.yul\":13539:13670   */\n      tag_104\n      jump\t// in\n    tag_248:\n        /* \"#utility.yul\":13531:13670   */\n      swap1\n      pop\n        /* \"#utility.yul\":13258:13677   */\n      swap2\n      swap1\n      pop\n      jump\t// out\n        /* \"#utility.yul\":13683:13863   */\n    tag_44:\n        /* \"#utility.yul\":13731:13808   */\n      0x4e487b7100000000000000000000000000000000000000000000000000000000\n        /* \"#utility.yul\":13728:13729   */\n      0x00\n        /* \"#utility.yul\":13721:13809   */\n      mstore\n        /* \"#utility.yul\":13828:13832   */\n      0x32\n        /* \"#utility.yul\":13825:13826   */\n      0x04\n        /* \"#utility.yul\":13818:13833   */\n      mstore\n        /* \"#utility.yul\":13852:13856   */\n      0x24\n        /* \"#utility.yul\":13849:13850   */\n      0x00\n        /* \"#utility.yul\":13842:13857   */\n      revert\n        /* \"#utility.yul\":13869:14010   */\n    tag_105:\n        /* \"#utility.yul\":13918:13922   */\n      0x00\n        /* \"#utility.yul\":13941:13944   */\n      dup2\n        /* \"#utility.yul\":13933:13944   */\n      swap1\n      pop\n        /* \"#utility.yul\":13964:13967   */\n      dup2\n        /* \"#utility.yul\":13961:13962   */\n      0x00\n        /* \"#utility.yul\":13954:13968   */\n      mstore\n        /* \"#utility.yul\":13998:14002   */\n      0x20\n        /* \"#utility.yul\":13995:13996   */\n      0x00\n        /* \"#utility.yul\":13985:14003   */\n      keccak256\n        /* \"#utility.yul\":13977:14003   */\n      swap1\n      pop\n        /* \"#utility.yul\":13869:14010   */\n      swap2\n      swap1\n      pop\n      jump\t// out\n        /* \"#utility.yul\":14016:14109   */\n    tag_106:\n        /* \"#utility.yul\":14053:14059   */\n      0x00\n        /* \"#utility.yul\":14100:14102   */\n      0x20\n        /* \"#utility.yul\":14095:14097   */\n      0x1f\n        /* \"#utility.yul\":14088:14093   */\n      dup4\n        /* \"#utility.yul\":14084:14098   */\n      add\n        /* \"#utility.yul\":14080:14103   */\n      div\n        /* \"#utility.yul\":14070:14103   */\n      swap1\n      pop\n        /* \"#utility.yul\":14016:14109   */\n      swap2\n      swap1\n      pop\n      jump\t// out\n        /* \"#utility.yul\":14115:14222   */\n    tag_107:\n        /* \"#utility.yul\":14159:14167   */\n      0x00\n        /* \"#utility.yul\":14209:14214   */\n      dup3\n        /* \"#utility.yul\":14203:14207   */\n      dup3\n        /* \"#utility.yul\":14199:14215   */\n      shl\n        /* \"#utility.yul\":14178:14215   */\n      swap1\n      pop\n        /* \"#utility.yul\":14115:14222   */\n      swap3\n      swap2\n      pop\n      pop\n      jump\t// out\n        /* \"#utility.yul\":14228:14621   */\n    tag_108:\n        /* \"#utility.yul\":14297:14303   */\n      0x00\n        /* \"#utility.yul\":14347:14348   */\n      0x08\n        /* \"#utility.yul\":14335:14345   */\n      dup4\n        /* \"#utility.yul\":14331:14349   */\n      mul\n        /* \"#utility.yul\":14370:14467   */\n      tag_254\n        /* \"#utility.yul\":14400:14466   */\n      0xffffffffffffffffffffffffffffffffffffffffffffffffffffffffffffffff\n        /* \"#utility.yul\":14389:14398   */\n      dup3\n        /* \"#utility.yul\":14370:14467   */\n      tag_107\n      jump\t// in\n    tag_254:\n        /* \"#utility.yul\":14488:14527   */\n      tag_255\n        /* \"#utility.yul\":14518:14526   */\n      dup7\n        /* \"#utility.yul\":14507:14516   */\n      dup4\n        /* \"#utility.yul\":14488:14527   */\n      tag_107\n      jump\t// in\n    tag_255:\n        /* \"#utility.yul\":14476:14527   */\n      swap6\n      pop\n        /* \"#utility.yul\":14560:14564   */\n      dup1\n        /* \"#utility.yul\":14556:14565   */\n      not\n        /* \"#utility.yul\":14549:14554   */\n      dup5\n        /* \"#utility.yul\":14545:14566   */\n      and\n        /* \"#utility.yul\":14536:14566   */\n      swap4\n      pop\n        /* \"#utility.yul\":14609:14613   */\n      dup1\n        /* \"#utility.yul\":14599:14607   */\n      dup7\n        /* \"#utility.yul\":14595:14614   */\n      and\n        /* \"#utility.yul\":14588:14593   */\n      dup5\n        /* \"#utility.yul\":14585:14615   */\n      or\n        /* \"#utility.yul\":14575:14615   */\n      swap3\n      pop\n        /* \"#utility.yul\":14304:14621   */\n      pop\n      pop\n        /* \"#utility.yul\":14228:14621   */\n      swap4\n      swap3\n      pop\n      pop\n      pop\n      jump\t// out\n        /* \"#utility.yul\":14627:14687   */\n    tag_109:\n        /* \"#utility.yul\":14655:14658   */\n      0x00\n        /* \"#utility.yul\":14676:14681   */\n      dup2\n        /* \"#utility.yul\":14669:14681   */\n      swap1\n      pop\n        /* \"#utility.yul\":14627:14687   */\n      swap2\n      swap1\n      pop\n      jump\t// out\n        /* \"#utility.yul\":14693:14835   */\n    tag_110:\n        /* \"#utility.yul\":14743:14752   */\n      0x00\n        /* \"#utility.yul\":14776:14829   */\n      tag_258\n        /* \"#utility.yul\":14794:14828   */\n      tag_259\n        /* \"#utility.yul\":14803:14827   */\n      tag_260\n        /* \"#utility.yul\":14821:14826   */\n      dup5\n        /* \"#utility.yul\":14803:14827   */\n      tag_71\n      jump\t// in\n    tag_260:\n        /* \"#utility.yul\":14794:14828   */\n      tag_109\n      jump\t// in\n    tag_259:\n        /* \"#utility.yul\":14776:14829   */\n      tag_71\n      jump\t// in\n    tag_258:\n        /* \"#utility.yul\":14763:14829   */\n      swap1\n      pop\n        /* \"#utility.yul\":14693:14835   */\n      swap2\n      swap1\n      pop\n      jump\t// out\n        /* \"#utility.yul\":14841:14916   */\n    tag_111:\n        /* \"#utility.yul\":14884:14887   */\n      0x00\n        /* \"#utility.yul\":14905:14910   */\n      dup2\n        /* \"#utility.yul\":14898:14910   */\n      swap1\n      pop\n        /* \"#utility.yul\":14841:14916   */\n      swap2\n      swap1\n      pop\n      jump\t// out\n        /* \"#utility.yul\":14922:15191   */\n    tag_112:\n        /* \"#utility.yul\":15032:15071   */\n      tag_263\n        /* \"#utility.yul\":15063:15070   */\n      dup4\n        /* \"#utility.yul\":15032:15071   */\n      tag_110\n      jump\t// in\n    tag_263:\n        /* \"#utility.yul\":15093:15184   */\n      tag_264\n        /* \"#utility.yul\":15142:15183   */\n      tag_265\n        /* \"#utility.yul\":15166:15182   */\n      dup3\n        /* \"#utility.yul\":15142:15183   */\n      tag_111\n      jump\t// in\n    tag_265:\n        /* \"#utility.yul\":15134:15140   */\n      dup5\n        /* \"#utility.yul\":15127:15131   */\n      dup5\n        /* \"#utility.yul\":15121:15132   */\n      sload\n        /* \"#utility.yul\":15093:15184   */\n      tag_108\n      jump\t// in\n    tag_264:\n        /* \"#utility.yul\":15087:15091   */\n      dup3\n        /* \"#utility.yul\":15080:15185   */\n      sstore\n        /* \"#utility.yul\":14998:15191   */\n      pop\n        /* \"#utility.yul\":14922:15191   */\n      pop\n      pop\n      pop\n      jump\t// out\n        /* \"#utility.yul\":15197:15270   */\n    tag_113:\n        /* \"#utility.yul\":15242:15245   */\n      0x00\n        /* \"#utility.yul\":15197:15270   */\n      swap1\n      jump\t// out\n        /* \"#utility.yul\":15276:15465   */\n    tag_114:\n        /* \"#utility.yul\":15353:15385   */\n      tag_268\n      tag_113\n      jump\t// in\n    tag_268:\n        /* \"#utility.yul\":15394:15459   */\n      tag_269\n        /* \"#utility.yul\":15452:15458   */\n      dup2\n        /* \"#utility.yul\":15444:15450   */\n      dup5\n        /* \"#utility.yul\":15438:15442   */\n      dup5\n        /* \"#utility.yul\":15394:15459   */\n      tag_112\n      jump\t// in\n    tag_269:\n        /* \"#utility.yul\":15329:15465   */\n      pop\n        /* \"#utility.yul\":15276:15465   */\n      pop\n      pop\n      jump\t// out\n        /* \"#utility.yul\":15471:15657   */\n    tag_115:\n        /* \"#utility.yul\":15531:15651   */\n    tag_271:\n        /* \"#utility.yul\":15548:15551   */\n      dup2\n        /* \"#utility.yul\":15541:15546   */\n      dup2\n        /* \"#utility.yul\":15538:15552   */\n      lt\n        /* \"#utility.yul\":15531:15651   */\n      iszero\n      tag_273\n      jumpi\n        /* \"#utility.yul\":15602:15641   */\n      tag_274\n        /* \"#utility.yul\":15639:15640   */\n      0x00\n        /* \"#utility.yul\":15632:15637   */\n      dup3\n        /* \"#utility.yul\":15602:15641   */\n      tag_114\n      jump\t// in\n    tag_274:\n        /* \"#utility.yul\":15575:15576   */\n      0x01\n        /* \"#utility.yul\":15568:15573   */\n      dup2\n        /* \"#utility.yul\":15564:15577   */\n      add\n        /* \"#utility.yul\":15555:15577   */\n      swap1\n      pop\n        /* \"#utility.yul\":15531:15651   */\n      jump(tag_271)\n    tag_273:\n        /* \"#utility.yul\":15471:15657   */\n      pop\n      pop\n      jump\t// out\n        /* \"#utility.yul\":15663:16206   */\n    tag_116:\n        /* \"#utility.yul\":15764:15766   */\n      0x1f\n        /* \"#utility.yul\":15759:15762   */\n      dup3\n        /* \"#utility.yul\":15756:15767   */\n      gt\n        /* \"#utility.yul\":15753:16199   */\n      iszero\n      tag_276\n      jumpi\n        /* \"#utility.yul\":15798:15836   */\n      tag_277\n        /* \"#utility.yul\":15830:15835   */\n      dup2\n        /* \"#utility.yul\":15798:15836   */\n      tag_105\n      jump\t// in\n    tag_277:\n        /* \"#utility.yul\":15882:15911   */\n      tag_278\n        /* \"#utility.yul\":15900:15910   */\n      dup5\n        /* \"#utility.yul\":15882:15911   */\n      tag_106\n      jump\t// in\n    tag_278:\n        /* \"#utility.yul\":15872:15880   */\n      dup2\n        /* \"#utility.yul\":15868:15912   */\n      add\n        /* \"#utility.yul\":16065:16067   */\n      0x20\n        /* \"#utility.yul\":16053:16063   */\n      dup6\n        /* \"#utility.yul\":16050:16068   */\n      lt\n        /* \"#utility.yul\":16047:16096   */\n      iszero\n      tag_279\n      jumpi\n        /* \"#utility.yul\":16086:16094   */\n      dup2\n        /* \"#utility.yul\":16071:16094   */\n      swap1\n      pop\n        /* \"#utility.yul\":16047:16096   */\n    tag_279:\n        /* \"#utility.yul\":16109:16189   */\n      tag_280\n        /* \"#utility.yul\":16165:16187   */\n      tag_281\n        /* \"#utility.yul\":16183:16186   */\n      dup6\n        /* \"#utility.yul\":16165:16187   */\n      tag_106\n      jump\t// in\n    tag_281:\n        /* \"#utility.yul\":16155:16163   */\n      dup4\n        /* \"#utility.yul\":16151:16188   */\n      add\n        /* \"#utility.yul\":16138:16149   */\n      dup3\n        /* \"#utility.yul\":16109:16189   */\n      tag_115\n      jump\t// in\n    tag_280:\n        /* \"#utility.yul\":15768:16199   */\n      pop\n      pop\n        /* \"#utility.yul\":15753:16199   */\n    tag_276:\n        /* \"#utility.yul\":15663:16206   */\n      pop\n      pop\n      pop\n      jump\t// out\n        /* \"#utility.yul\":16212:16329   */\n    tag_117:\n        /* \"#utility.yul\":16266:16274   */\n      0x00\n        /* \"#utility.yul\":16316:16321   */\n      dup3\n        /* \"#utility.yul\":16310:16314   */\n      dup3\n        /* \"#utility.yul\":16306:16322   */\n      shr\n        /* \"#utility.yul\":16285:16322   */\n      swap1\n      pop\n        /* \"#utility.yul\":16212:16329   */\n      swap3\n      swap2\n      pop\n      pop\n      jump\t// out\n        /* \"#utility.yul\":16335:16504   */\n    tag_118:\n        /* \"#utility.yul\":16379:16385   */\n      0x00\n        /* \"#utility.yul\":16412:16463   */\n      tag_284\n        /* \"#utility.yul\":16460:16461   */\n      0x00\n        /* \"#utility.yul\":16456:16462   */\n      not\n        /* \"#utility.yul\":16448:16453   */\n      dup5\n        /* \"#utility.yul\":16445:16446   */\n      0x08\n        /* \"#utility.yul\":16441:16454   */\n      mul\n        /* \"#utility.yul\":16412:16463   */\n      tag_117\n      jump\t// in\n    tag_284:\n        /* \"#utility.yul\":16408:16464   */\n      not\n        /* \"#utility.yul\":16493:16497   */\n      dup1\n        /* \"#utility.yul\":16487:16491   */\n      dup4\n        /* \"#utility.yul\":16483:16498   */\n      and\n        /* \"#utility.yul\":16473:16498   */\n      swap2\n      pop\n        /* \"#utility.yul\":16386:16504   */\n      pop\n        /* \"#utility.yul\":16335:16504   */\n      swap3\n      swap2\n      pop\n      pop\n      jump\t// out\n        /* \"#utility.yul\":16509:16804   */\n    tag_119:\n        /* \"#utility.yul\":16585:16589   */\n      0x00\n        /* \"#utility.yul\":16731:16760   */\n      tag_286\n        /* \"#utility.yul\":16756:16759   */\n      dup4\n        /* \"#utility.yul\":16750:16754   */\n      dup4\n        /* \"#utility.yul\":16731:16760   */\n      tag_118\n      jump\t// in\n    tag_286:\n        /* \"#utility.yul\":16723:16760   */\n      swap2\n      pop\n        /* \"#utility.yul\":16793:16796   */\n      dup3\n        /* \"#utility.yul\":16790:16791   */\n      0x02\n        /* \"#utility.yul\":16786:16797   */\n      mul\n        /* \"#utility.yul\":16780:16784   */\n      dup3\n        /* \"#utility.yul\":16777:16798   */\n      or\n        /* \"#utility.yul\":16769:16798   */\n      swap1\n      pop\n        /* \"#utility.yul\":16509:16804   */\n      swap3\n      swap2\n      pop\n      pop\n      jump\t// out\n        /* \"#utility.yul\":16809:18204   */\n    tag_63:\n        /* \"#utility.yul\":16926:16963   */\n      tag_288\n        /* \"#utility.yul\":16959:16962   */\n      dup3\n        /* \"#utility.yul\":16926:16963   */\n      tag_75\n      jump\t// in\n    tag_288:\n        /* \"#utility.yul\":17028:17046   */\n      0xffffffffffffffff\n        /* \"#utility.yul\":17020:17026   */\n      dup2\n        /* \"#utility.yul\":17017:17047   */\n      gt\n        /* \"#utility.yul\":17014:17070   */\n      iszero\n      tag_289\n      jumpi\n        /* \"#utility.yul\":17050:17068   */\n      tag_290\n      tag_95\n      jump\t// in\n    tag_290:\n        /* \"#utility.yul\":17014:17070   */\n    tag_289:\n        /* \"#utility.yul\":17094:17132   */\n      tag_291\n        /* \"#utility.yul\":17126:17130   */\n      dup3\n        /* \"#utility.yul\":17120:17131   */\n      sload\n        /* \"#utility.yul\":17094:17132   */\n      tag_31\n      jump\t// in\n    tag_291:\n        /* \"#utility.yul\":17179:17246   */\n      tag_292\n        /* \"#utility.yul\":17239:17245   */\n      dup3\n        /* \"#utility.yul\":17231:17237   */\n      dup3\n        /* \"#utility.yul\":17225:17229   */\n      dup6\n        /* \"#utility.yul\":17179:17246   */\n      tag_116\n      jump\t// in\n    tag_292:\n        /* \"#utility.yul\":17273:17274   */\n      0x00\n        /* \"#utility.yul\":17297:17301   */\n      0x20\n        /* \"#utility.yul\":17284:17301   */\n      swap1\n      pop\n        /* \"#utility.yul\":17329:17331   */\n      0x1f\n        /* \"#utility.yul\":17321:17327   */\n      dup4\n        /* \"#utility.yul\":17318:17332   */\n      gt\n        /* \"#utility.yul\":17346:17347   */\n      0x01\n        /* \"#utility.yul\":17341:17959   */\n      dup2\n      eq\n      tag_294\n      jumpi\n        /* \"#utility.yul\":18003:18004   */\n      0x00\n        /* \"#utility.yul\":18020:18026   */\n      dup5\n        /* \"#utility.yul\":18017:18094   */\n      iszero\n      tag_295\n      jumpi\n        /* \"#utility.yul\":18069:18078   */\n      dup3\n        /* \"#utility.yul\":18064:18067   */\n      dup8\n        /* \"#utility.yul\":18060:18079   */\n      add\n        /* \"#utility.yul\":18054:18080   */\n      mload\n        /* \"#utility.yul\":18045:18080   */\n      swap1\n      pop\n        /* \"#utility.yul\":18017:18094   */\n    tag_295:\n        /* \"#utility.yul\":18120:18187   */\n      tag_296\n        /* \"#utility.yul\":18180:18186   */\n      dup6\n        /* \"#utility.yul\":18173:18178   */\n      dup3\n        /* \"#utility.yul\":18120:18187   */\n      tag_119\n      jump\t// in\n    tag_296:\n        /* \"#utility.yul\":18114:18118   */\n      dup7\n        /* \"#utility.yul\":18107:18188   */\n      sstore\n        /* \"#utility.yul\":17976:18198   */\n      pop\n        /* \"#utility.yul\":17311:18198   */\n      jump(tag_293)\n        /* \"#utility.yul\":17341:17959   */\n    tag_294:\n        /* \"#utility.yul\":17393:17397   */\n      0x1f\n        /* \"#utility.yul\":17389:17398   */\n      not\n        /* \"#utility.yul\":17381:17387   */\n      dup5\n        /* \"#utility.yul\":17377:17399   */\n      and\n        /* \"#utility.yul\":17427:17464   */\n      tag_297\n        /* \"#utility.yul\":17459:17463   */\n      dup7\n        /* \"#utility.yul\":17427:17464   */\n      tag_105\n      jump\t// in\n    tag_297:\n        /* \"#utility.yul\":17486:17487   */\n      0x00\n        /* \"#utility.yul\":17500:17708   */\n    tag_298:\n        /* \"#utility.yul\":17514:17521   */\n      dup3\n        /* \"#utility.yul\":17511:17512   */\n      dup2\n        /* \"#utility.yul\":17508:17522   */\n      lt\n        /* \"#utility.yul\":17500:17708   */\n      iszero\n      tag_300\n      jumpi\n        /* \"#utility.yul\":17593:17602   */\n      dup5\n        /* \"#utility.yul\":17588:17591   */\n      dup10\n        /* \"#utility.yul\":17584:17603   */\n      add\n        /* \"#utility.yul\":17578:17604   */\n      mload\n        /* \"#utility.yul\":17570:17576   */\n      dup3\n        /* \"#utility.yul\":17563:17605   */\n      sstore\n        /* \"#utility.yul\":17644:17645   */\n      0x01\n        /* \"#utility.yul\":17636:17642   */\n      dup3\n        /* \"#utility.yul\":17632:17646   */\n      add\n        /* \"#utility.yul\":17622:17646   */\n      swap2\n      pop\n        /* \"#utility.yul\":17691:17693   */\n      0x20\n        /* \"#utility.yul\":17680:17689   */\n      dup6\n        /* \"#utility.yul\":17676:17694   */\n      add\n        /* \"#utility.yul\":17663:17694   */\n      swap5\n      pop\n        /* \"#utility.yul\":17537:17541   */\n      0x20\n        /* \"#utility.yul\":17534:17535   */\n      dup2\n        /* \"#utility.yul\":17530:17542   */\n      add\n        /* \"#utility.yul\":17525:17542   */\n      swap1\n      pop\n        /* \"#utility.yul\":17500:17708   */\n      jump(tag_298)\n    tag_300:\n        /* \"#utility.yul\":17736:17742   */\n      dup7\n        /* \"#utility.yul\":17727:17734   */\n      dup4\n        /* \"#utility.yul\":17724:17743   */\n      lt\n        /* \"#utility.yul\":17721:17900   */\n      iszero\n      tag_301\n      jumpi\n        /* \"#utility.yul\":17794:17803   */\n      dup5\n        /* \"#utility.yul\":17789:17792   */\n      dup10\n        /* \"#utility.yul\":17785:17804   */\n      add\n        /* \"#utility.yul\":17779:17805   */\n      mload\n        /* \"#utility.yul\":17837:17885   */\n      tag_302\n        /* \"#utility.yul\":17879:17883   */\n      0x1f\n        /* \"#utility.yul\":17871:17877   */\n      dup10\n        /* \"#utility.yul\":17867:17884   */\n      and\n        /* \"#utility.yul\":17856:17865   */\n      dup3\n        /* \"#utility.yul\":17837:17885   */\n      tag_118\n      jump\t// in\n    tag_302:\n        /* \"#utility.yul\":17829:17835   */\n      dup4\n        /* \"#utility.yul\":17822:17886   */\n      sstore\n        /* \"#utility.yul\":17744:17900   */\n      pop\n        /* \"#utility.yul\":17721:17900   */\n    tag_301:\n        /* \"#utility.yul\":17946:17947   */\n      0x01\n        /* \"#utility.yul\":17942:17943   */\n      0x02\n        /* \"#utility.yul\":17934:17940   */\n      dup9\n        /* \"#utility.yul\":17930:17944   */\n      mul\n        /* \"#utility.yul\":17926:17948   */\n      add\n        /* \"#utility.yul\":17920:17924   */\n      dup9\n        /* \"#utility.yul\":17913:17949   */\n      sstore\n        /* \"#utility.yul\":17348:17959   */\n      pop\n      pop\n      pop\n        /* \"#utility.yul\":17311:18198   */\n    tag_293:\n      pop\n        /* \"#utility.yul\":16901:18204   */\n      pop\n      pop\n      pop\n        /* \"#utility.yul\":16809:18204   */\n      pop\n      pop\n      jump\t// out\n\n    auxdata: 0xa26469706673582212200cc05a6c2adbe545d1a651e5c8ed9ddf41847ea29e815e4fb30202fbf683281e64736f6c63430008160033\n}\n",
				"bytecode": {
					"linkReferences": {},
					"object": "608060405234801561000f575f80fd5b50610fd28061001d5f395ff3fe608060405234801561000f575f80fd5b506004361061004a575f3560e01c806305a1b4a91461004e578063112f54e31461008157806312e7ee1c146100b15780637c9cd2bc146100e1575b5f80fd5b6100686004803603810190610063919061074f565b6100fd565b6040516100789493929190610835565b60405180910390f35b61009b6004803603810190610096919061074f565b6101e7565b6040516100a89190610945565b60405180910390f35b6100cb60048036038101906100c69190610965565b6103d5565b6040516100d89190610aab565b60405180910390f35b6100fb60048036038101906100f69190610bf7565b610565565b005b5f602052815f5260405f208181548110610115575f80fd5b905f5260205f2090600402015f9150915050805f015f9054906101000a900473ffffffffffffffffffffffffffffffffffffffff169080600101805461015a90610c6b565b80601f016020809104026020016040519081016040528092919081815260200182805461018690610c6b565b80156101d15780601f106101a8576101008083540402835291602001916101d1565b820191905f5260205f20905b8154815290600101906020018083116101b457829003601f168201915b5050505050908060020154908060030154905084565b6101ef610676565b5f808473ffffffffffffffffffffffffffffffffffffffff1673ffffffffffffffffffffffffffffffffffffffff1681526020019081526020015f20805490508210610270576040517f08c379a000000000000000000000000000000000000000000000000000000000815260040161026790610ce5565b60405180910390fd5b5f808473ffffffffffffffffffffffffffffffffffffffff1673ffffffffffffffffffffffffffffffffffffffff1681526020019081526020015f2082815481106102be576102bd610d03565b5b905f5260205f2090600402016040518060800160405290815f82015f9054906101000a900473ffffffffffffffffffffffffffffffffffffffff1673ffffffffffffffffffffffffffffffffffffffff1673ffffffffffffffffffffffffffffffffffffffff16815260200160018201805461033990610c6b565b80601f016020809104026020016040519081016040528092919081815260200182805461036590610c6b565b80156103b05780601f10610387576101008083540402835291602001916103b0565b820191905f5260205f20905b81548152906001019060200180831161039357829003601f168201915b5050505050815260200160028201548152602001600382015481525050905092915050565b60605f808373ffffffffffffffffffffffffffffffffffffffff1673ffffffffffffffffffffffffffffffffffffffff1681526020019081526020015f20805480602002602001604051908101604052809291908181526020015f905b8282101561055a578382905f5260205f2090600402016040518060800160405290815f82015f9054906101000a900473ffffffffffffffffffffffffffffffffffffffff1673ffffffffffffffffffffffffffffffffffffffff1673ffffffffffffffffffffffffffffffffffffffff1681526020016001820180546104b790610c6b565b80601f01602080910402602001604051908101604052809291908181526020018280546104e390610c6b565b801561052e5780601f106105055761010080835404028352916020019161052e565b820191905f5260205f20905b81548152906001019060200180831161051157829003601f168201915b505050505081526020016002820154815260200160038201548152505081526020019060010190610432565b505050509050919050565b5f60405180608001604052803373ffffffffffffffffffffffffffffffffffffffff1681526020018381526020014281526020015f81525090505f803373ffffffffffffffffffffffffffffffffffffffff1673ffffffffffffffffffffffffffffffffffffffff1681526020019081526020015f2081908060018154018082558091505060019003905f5260205f2090600402015f909190919091505f820151815f015f6101000a81548173ffffffffffffffffffffffffffffffffffffffff021916908373ffffffffffffffffffffffffffffffffffffffff160217905550602082015181600101908161065b9190610ecd565b50604082015181600201556060820151816003015550505050565b60405180608001604052805f73ffffffffffffffffffffffffffffffffffffffff168152602001606081526020015f81526020015f81525090565b5f604051905090565b5f80fd5b5f80fd5b5f73ffffffffffffffffffffffffffffffffffffffff82169050919050565b5f6106eb826106c2565b9050919050565b6106fb816106e1565b8114610705575f80fd5b50565b5f81359050610716816106f2565b92915050565b5f819050919050565b61072e8161071c565b8114610738575f80fd5b50565b5f8135905061074981610725565b92915050565b5f8060408385031215610765576107646106ba565b5b5f61077285828601610708565b92505060206107838582860161073b565b9150509250929050565b610796816106e1565b82525050565b5f81519050919050565b5f82825260208201905092915050565b5f5b838110156107d35780820151818401526020810190506107b8565b5f8484015250505050565b5f601f19601f8301169050919050565b5f6107f88261079c565b61080281856107a6565b93506108128185602086016107b6565b61081b816107de565b840191505092915050565b61082f8161071c565b82525050565b5f6080820190506108485f83018761078d565b818103602083015261085a81866107ee565b90506108696040830185610826565b6108766060830184610826565b95945050505050565b610888816106e1565b82525050565b5f82825260208201905092915050565b5f6108a88261079c565b6108b2818561088e565b93506108c28185602086016107b6565b6108cb816107de565b840191505092915050565b6108df8161071c565b82525050565b5f608083015f8301516108fa5f86018261087f565b5060208301518482036020860152610912828261089e565b915050604083015161092760408601826108d6565b50606083015161093a60608601826108d6565b508091505092915050565b5f6020820190508181035f83015261095d81846108e5565b905092915050565b5f6020828403121561097a576109796106ba565b5b5f61098784828501610708565b91505092915050565b5f81519050919050565b5f82825260208201905092915050565b5f819050602082019050919050565b5f608083015f8301516109ce5f86018261087f565b50602083015184820360208601526109e6828261089e565b91505060408301516109fb60408601826108d6565b506060830151610a0e60608601826108d6565b508091505092915050565b5f610a2483836109b9565b905092915050565b5f602082019050919050565b5f610a4282610990565b610a4c818561099a565b935083602082028501610a5e856109aa565b805f5b85811015610a995784840389528151610a7a8582610a19565b9450610a8583610a2c565b925060208a01995050600181019050610a61565b50829750879550505050505092915050565b5f6020820190508181035f830152610ac38184610a38565b905092915050565b5f80fd5b5f80fd5b7f4e487b71000000000000000000000000000000000000000000000000000000005f52604160045260245ffd5b610b09826107de565b810181811067ffffffffffffffff82111715610b2857610b27610ad3565b5b80604052505050565b5f610b3a6106b1565b9050610b468282610b00565b919050565b5f67ffffffffffffffff821115610b6557610b64610ad3565b5b610b6e826107de565b9050602081019050919050565b828183375f83830152505050565b5f610b9b610b9684610b4b565b610b31565b905082815260208101848484011115610bb757610bb6610acf565b5b610bc2848285610b7b565b509392505050565b5f82601f830112610bde57610bdd610acb565b5b8135610bee848260208601610b89565b91505092915050565b5f60208284031215610c0c57610c0b6106ba565b5b5f82013567ffffffffffffffff811115610c2957610c286106be565b5b610c3584828501610bca565b91505092915050565b7f4e487b71000000000000000000000000000000000000000000000000000000005f52602260045260245ffd5b5f6002820490506001821680610c8257607f821691505b602082108103610c9557610c94610c3e565b5b50919050565b7f496e646578206f7574206f6620626f756e6473000000000000000000000000005f82015250565b5f610ccf6013836107a6565b9150610cda82610c9b565b602082019050919050565b5f6020820190508181035f830152610cfc81610cc3565b9050919050565b7f4e487b71000000000000000000000000000000000000000000000000000000005f52603260045260245ffd5b5f819050815f5260205f209050919050565b5f6020601f8301049050919050565b5f82821b905092915050565b5f60088302610d8c7fffffffffffffffffffffffffffffffffffffffffffffffffffffffffffffffff82610d51565b610d968683610d51565b95508019841693508086168417925050509392505050565b5f819050919050565b5f610dd1610dcc610dc78461071c565b610dae565b61071c565b9050919050565b5f819050919050565b610dea83610db7565b610dfe610df682610dd8565b848454610d5d565b825550505050565b5f90565b610e12610e06565b610e1d818484610de1565b505050565b5b81811015610e4057610e355f82610e0a565b600181019050610e23565b5050565b601f821115610e8557610e5681610d30565b610e5f84610d42565b81016020851015610e6e578190505b610e82610e7a85610d42565b830182610e22565b50505b505050565b5f82821c905092915050565b5f610ea55f1984600802610e8a565b1980831691505092915050565b5f610ebd8383610e96565b9150826002028217905092915050565b610ed68261079c565b67ffffffffffffffff811115610eef57610eee610ad3565b5b610ef98254610c6b565b610f04828285610e44565b5f60209050601f831160018114610f35575f8415610f23578287015190505b610f2d8582610eb2565b865550610f94565b601f198416610f4386610d30565b5f5b82811015610f6a57848901518255600182019150602085019450602081019050610f45565b86831015610f875784890151610f83601f891682610e96565b8355505b6001600288020188555050505b50505050505056fea26469706673582212200cc05a6c2adbe545d1a651e5c8ed9ddf41847ea29e815e4fb30202fbf683281e64736f6c63430008160033",
					"opcodes": "PUSH1 0x80 PUSH1 0x40 MSTORE CALLVALUE DUP1 ISZERO PUSH2 0xF JUMPI PUSH0 DUP1 REVERT JUMPDEST POP PUSH2 0xFD2 DUP1 PUSH2 0x1D PUSH0 CODECOPY PUSH0 RETURN INVALID PUSH1 0x80 PUSH1 0x40 MSTORE CALLVALUE DUP1 ISZERO PUSH2 0xF JUMPI PUSH0 DUP1 REVERT JUMPDEST POP PUSH1 0x4 CALLDATASIZE LT PUSH2 0x4A JUMPI PUSH0 CALLDATALOAD PUSH1 0xE0 SHR DUP1 PUSH4 0x5A1B4A9 EQ PUSH2 0x4E JUMPI DUP1 PUSH4 0x112F54E3 EQ PUSH2 0x81 JUMPI DUP1 PUSH4 0x12E7EE1C EQ PUSH2 0xB1 JUMPI DUP1 PUSH4 0x7C9CD2BC EQ PUSH2 0xE1 JUMPI JUMPDEST PUSH0 DUP1 REVERT JUMPDEST PUSH2 0x68 PUSH1 0x4 DUP1 CALLDATASIZE SUB DUP2 ADD SWAP1 PUSH2 0x63 SWAP2 SWAP1 PUSH2 0x74F JUMP JUMPDEST PUSH2 0xFD JUMP JUMPDEST PUSH1 0x40 MLOAD PUSH2 0x78 SWAP5 SWAP4 SWAP3 SWAP2 SWAP1 PUSH2 0x835 JUMP JUMPDEST PUSH1 0x40 MLOAD DUP1 SWAP2 SUB SWAP1 RETURN JUMPDEST PUSH2 0x9B PUSH1 0x4 DUP1 CALLDATASIZE SUB DUP2 ADD SWAP1 PUSH2 0x96 SWAP2 SWAP1 PUSH2 0x74F JUMP JUMPDEST PUSH2 0x1E7 JUMP JUMPDEST PUSH1 0x40 MLOAD PUSH2 0xA8 SWAP2 SWAP1 PUSH2 0x945 JUMP JUMPDEST PUSH1 0x40 MLOAD DUP1 SWAP2 SUB SWAP1 RETURN JUMPDEST PUSH2 0xCB PUSH1 0x4 DUP1 CALLDATASIZE SUB DUP2 ADD SWAP1 PUSH2 0xC6 SWAP2 SWAP1 PUSH2 0x965 JUMP JUMPDEST PUSH2 0x3D5 JUMP JUMPDEST PUSH1 0x40 MLOAD PUSH2 0xD8 SWAP2 SWAP1 PUSH2 0xAAB JUMP JUMPDEST PUSH1 0x40 MLOAD DUP1 SWAP2 SUB SWAP1 RETURN JUMPDEST PUSH2 0xFB PUSH1 0x4 DUP1 CALLDATASIZE SUB DUP2 ADD SWAP1 PUSH2 0xF6 SWAP2 SWAP1 PUSH2 0xBF7 JUMP JUMPDEST PUSH2 0x565 JUMP JUMPDEST STOP JUMPDEST PUSH0 PUSH1 0x20 MSTORE DUP2 PUSH0 MSTORE PUSH1 0x40 PUSH0 KECCAK256 DUP2 DUP2 SLOAD DUP2 LT PUSH2 0x115 JUMPI PUSH0 DUP1 REVERT JUMPDEST SWAP1 PUSH0 MSTORE PUSH1 0x20 PUSH0 KECCAK256 SWAP1 PUSH1 0x4 MUL ADD PUSH0 SWAP2 POP SWAP2 POP POP DUP1 PUSH0 ADD PUSH0 SWAP1 SLOAD SWAP1 PUSH2 0x100 EXP SWAP1 DIV PUSH20 0xFFFFFFFFFFFFFFFFFFFFFFFFFFFFFFFFFFFFFFFF AND SWAP1 DUP1 PUSH1 0x1 ADD DUP1 SLOAD PUSH2 0x15A SWAP1 PUSH2 0xC6B JUMP JUMPDEST DUP1 PUSH1 0x1F ADD PUSH1 0x20 DUP1 SWAP2 DIV MUL PUSH1 0x20 ADD PUSH1 0x40 MLOAD SWAP1 DUP2 ADD PUSH1 0x40 MSTORE DUP1 SWAP3 SWAP2 SWAP1 DUP2 DUP2 MSTORE PUSH1 0x20 ADD DUP3 DUP1 SLOAD PUSH2 0x186 SWAP1 PUSH2 0xC6B JUMP JUMPDEST DUP1 ISZERO PUSH2 0x1D1 JUMPI DUP1 PUSH1 0x1F LT PUSH2 0x1A8 JUMPI PUSH2 0x100 DUP1 DUP4 SLOAD DIV MUL DUP4 MSTORE SWAP2 PUSH1 0x20 ADD SWAP2 PUSH2 0x1D1 JUMP JUMPDEST DUP3 ADD SWAP2 SWAP1 PUSH0 MSTORE PUSH1 0x20 PUSH0 KECCAK256 SWAP1 JUMPDEST DUP2 SLOAD DUP2 MSTORE SWAP1 PUSH1 0x1 ADD SWAP1 PUSH1 0x20 ADD DUP1 DUP4 GT PUSH2 0x1B4 JUMPI DUP3 SWAP1 SUB PUSH1 0x1F AND DUP3 ADD SWAP2 JUMPDEST POP POP POP POP POP SWAP1 DUP1 PUSH1 0x2 ADD SLOAD SWAP1 DUP1 PUSH1 0x3 ADD SLOAD SWAP1 POP DUP5 JUMP JUMPDEST PUSH2 0x1EF PUSH2 0x676 JUMP JUMPDEST PUSH0 DUP1 DUP5 PUSH20 0xFFFFFFFFFFFFFFFFFFFFFFFFFFFFFFFFFFFFFFFF AND PUSH20 0xFFFFFFFFFFFFFFFFFFFFFFFFFFFFFFFFFFFFFFFF AND DUP2 MSTORE PUSH1 0x20 ADD SWAP1 DUP2 MSTORE PUSH1 0x20 ADD PUSH0 KECCAK256 DUP1 SLOAD SWAP1 POP DUP3 LT PUSH2 0x270 JUMPI PUSH1 0x40 MLOAD PUSH32 0x8C379A000000000000000000000000000000000000000000000000000000000 DUP2 MSTORE PUSH1 0x4 ADD PUSH2 0x267 SWAP1 PUSH2 0xCE5 JUMP JUMPDEST PUSH1 0x40 MLOAD DUP1 SWAP2 SUB SWAP1 REVERT JUMPDEST PUSH0 DUP1 DUP5 PUSH20 0xFFFFFFFFFFFFFFFFFFFFFFFFFFFFFFFFFFFFFFFF AND PUSH20 0xFFFFFFFFFFFFFFFFFFFFFFFFFFFFFFFFFFFFFFFF AND DUP2 MSTORE PUSH1 0x20 ADD SWAP1 DUP2 MSTORE PUSH1 0x20 ADD PUSH0 KECCAK256 DUP3 DUP2 SLOAD DUP2 LT PUSH2 0x2BE JUMPI PUSH2 0x2BD PUSH2 0xD03 JUMP JUMPDEST JUMPDEST SWAP1 PUSH0 MSTORE PUSH1 0x20 PUSH0 KECCAK256 SWAP1 PUSH1 0x4 MUL ADD PUSH1 0x40 MLOAD DUP1 PUSH1 0x80 ADD PUSH1 0x40 MSTORE SWAP1 DUP2 PUSH0 DUP3 ADD PUSH0 SWAP1 SLOAD SWAP1 PUSH2 0x100 EXP SWAP1 DIV PUSH20 0xFFFFFFFFFFFFFFFFFFFFFFFFFFFFFFFFFFFFFFFF AND PUSH20 0xFFFFFFFFFFFFFFFFFFFFFFFFFFFFFFFFFFFFFFFF AND PUSH20 0xFFFFFFFFFFFFFFFFFFFFFFFFFFFFFFFFFFFFFFFF AND DUP2 MSTORE PUSH1 0x20 ADD PUSH1 0x1 DUP3 ADD DUP1 SLOAD PUSH2 0x339 SWAP1 PUSH2 0xC6B JUMP JUMPDEST DUP1 PUSH1 0x1F ADD PUSH1 0x20 DUP1 SWAP2 DIV MUL PUSH1 0x20 ADD PUSH1 0x40 MLOAD SWAP1 DUP2 ADD PUSH1 0x40 MSTORE DUP1 SWAP3 SWAP2 SWAP1 DUP2 DUP2 MSTORE PUSH1 0x20 ADD DUP3 DUP1 SLOAD PUSH2 0x365 SWAP1 PUSH2 0xC6B JUMP JUMPDEST DUP1 ISZERO PUSH2 0x3B0 JUMPI DUP1 PUSH1 0x1F LT PUSH2 0x387 JUMPI PUSH2 0x100 DUP1 DUP4 SLOAD DIV MUL DUP4 MSTORE SWAP2 PUSH1 0x20 ADD SWAP2 PUSH2 0x3B0 JUMP JUMPDEST DUP3 ADD SWAP2 SWAP1 PUSH0 MSTORE PUSH1 0x20 PUSH0 KECCAK256 SWAP1 JUMPDEST DUP2 SLOAD DUP2 MSTORE SWAP1 PUSH1 0x1 ADD SWAP1 PUSH1 0x20 ADD DUP1 DUP4 GT PUSH2 0x393 JUMPI DUP3 SWAP1 SUB PUSH1 0x1F AND DUP3 ADD SWAP2 JUMPDEST POP POP POP POP POP DUP2 MSTORE PUSH1 0x20 ADD PUSH1 0x2 DUP3 ADD SLOAD DUP2 MSTORE PUSH1 0x20 ADD PUSH1 0x3 DUP3 ADD SLOAD DUP2 MSTORE POP POP SWAP1 POP SWAP3 SWAP2 POP POP JUMP JUMPDEST PUSH1 0x60 PUSH0 DUP1 DUP4 PUSH20 0xFFFFFFFFFFFFFFFFFFFFFFFFFFFFFFFFFFFFFFFF AND PUSH20 0xFFFFFFFFFFFFFFFFFFFFFFFFFFFFFFFFFFFFFFFF AND DUP2 MSTORE PUSH1 0x20 ADD SWAP1 DUP2 MSTORE PUSH1 0x20 ADD PUSH0 KECCAK256 DUP1 SLOAD DUP1 PUSH1 0x20 MUL PUSH1 0x20 ADD PUSH1 0x40 MLOAD SWAP1 DUP2 ADD PUSH1 0x40 MSTORE DUP1 SWAP3 SWAP2 SWAP1 DUP2 DUP2 MSTORE PUSH1 0x20 ADD PUSH0 SWAP1 JUMPDEST DUP3 DUP3 LT ISZERO PUSH2 0x55A JUMPI DUP4 DUP3 SWAP1 PUSH0 MSTORE PUSH1 0x20 PUSH0 KECCAK256 SWAP1 PUSH1 0x4 MUL ADD PUSH1 0x40 MLOAD DUP1 PUSH1 0x80 ADD PUSH1 0x40 MSTORE SWAP1 DUP2 PUSH0 DUP3 ADD PUSH0 SWAP1 SLOAD SWAP1 PUSH2 0x100 EXP SWAP1 DIV PUSH20 0xFFFFFFFFFFFFFFFFFFFFFFFFFFFFFFFFFFFFFFFF AND PUSH20 0xFFFFFFFFFFFFFFFFFFFFFFFFFFFFFFFFFFFFFFFF AND PUSH20 0xFFFFFFFFFFFFFFFFFFFFFFFFFFFFFFFFFFFFFFFF AND DUP2 MSTORE PUSH1 0x20 ADD PUSH1 0x1 DUP3 ADD DUP1 SLOAD PUSH2 0x4B7 SWAP1 PUSH2 0xC6B JUMP JUMPDEST DUP1 PUSH1 0x1F ADD PUSH1 0x20 DUP1 SWAP2 DIV MUL PUSH1 0x20 ADD PUSH1 0x40 MLOAD SWAP1 DUP2 ADD PUSH1 0x40 MSTORE DUP1 SWAP3 SWAP2 SWAP1 DUP2 DUP2 MSTORE PUSH1 0x20 ADD DUP3 DUP1 SLOAD PUSH2 0x4E3 SWAP1 PUSH2 0xC6B JUMP JUMPDEST DUP1 ISZERO PUSH2 0x52E JUMPI DUP1 PUSH1 0x1F LT PUSH2 0x505 JUMPI PUSH2 0x100 DUP1 DUP4 SLOAD DIV MUL DUP4 MSTORE SWAP2 PUSH1 0x20 ADD SWAP2 PUSH2 0x52E JUMP JUMPDEST DUP3 ADD SWAP2 SWAP1 PUSH0 MSTORE PUSH1 0x20 PUSH0 KECCAK256 SWAP1 JUMPDEST DUP2 SLOAD DUP2 MSTORE SWAP1 PUSH1 0x1 ADD SWAP1 PUSH1 0x20 ADD DUP1 DUP4 GT PUSH2 0x511 JUMPI DUP3 SWAP1 SUB PUSH1 0x1F AND DUP3 ADD SWAP2 JUMPDEST POP POP POP POP POP DUP2 MSTORE PUSH1 0x20 ADD PUSH1 0x2 DUP3 ADD SLOAD DUP2 MSTORE PUSH1 0x20 ADD PUSH1 0x3 DUP3 ADD SLOAD DUP2 MSTORE POP POP DUP2 MSTORE PUSH1 0x20 ADD SWAP1 PUSH1 0x1 ADD SWAP1 PUSH2 0x432 JUMP JUMPDEST POP POP POP POP SWAP1 POP SWAP2 SWAP1 POP JUMP JUMPDEST PUSH0 PUSH1 0x40 MLOAD DUP1 PUSH1 0x80 ADD PUSH1 0x40 MSTORE DUP1 CALLER PUSH20 0xFFFFFFFFFFFFFFFFFFFFFFFFFFFFFFFFFFFFFFFF AND DUP2 MSTORE PUSH1 0x20 ADD DUP4 DUP2 MSTORE PUSH1 0x20 ADD TIMESTAMP DUP2 MSTORE PUSH1 0x20 ADD PUSH0 DUP2 MSTORE POP SWAP1 POP PUSH0 DUP1 CALLER PUSH20 0xFFFFFFFFFFFFFFFFFFFFFFFFFFFFFFFFFFFFFFFF AND PUSH20 0xFFFFFFFFFFFFFFFFFFFFFFFFFFFFFFFFFFFFFFFF AND DUP2 MSTORE PUSH1 0x20 ADD SWAP1 DUP2 MSTORE PUSH1 0x20 ADD PUSH0 KECCAK256 DUP2 SWAP1 DUP1 PUSH1 0x1 DUP2 SLOAD ADD DUP1 DUP3 SSTORE DUP1 SWAP2 POP POP PUSH1 0x1 SWAP1 SUB SWAP1 PUSH0 MSTORE PUSH1 0x20 PUSH0 KECCAK256 SWAP1 PUSH1 0x4 MUL ADD PUSH0 SWAP1 SWAP2 SWAP1 SWAP2 SWAP1 SWAP2 POP PUSH0 DUP3 ADD MLOAD DUP2 PUSH0 ADD PUSH0 PUSH2 0x100 EXP DUP2 SLOAD DUP2 PUSH20 0xFFFFFFFFFFFFFFFFFFFFFFFFFFFFFFFFFFFFFFFF MUL NOT AND SWAP1 DUP4 PUSH20 0xFFFFFFFFFFFFFFFFFFFFFFFFFFFFFFFFFFFFFFFF AND MUL OR SWAP1 SSTORE POP PUSH1 0x20 DUP3 ADD MLOAD DUP2 PUSH1 0x1 ADD SWAP1 DUP2 PUSH2 0x65B SWAP2 SWAP1 PUSH2 0xECD JUMP JUMPDEST POP PUSH1 0x40 DUP3 ADD MLOAD DUP2 PUSH1 0x2 ADD SSTORE PUSH1 0x60 DUP3 ADD MLOAD DUP2 PUSH1 0x3 ADD SSTORE POP POP POP POP JUMP JUMPDEST PUSH1 0x40 MLOAD DUP1 PUSH1 0x80 ADD PUSH1 0x40 MSTORE DUP1 PUSH0 PUSH20 0xFFFFFFFFFFFFFFFFFFFFFFFFFFFFFFFFFFFFFFFF AND DUP2 MSTORE PUSH1 0x20 ADD PUSH1 0x60 DUP2 MSTORE PUSH1 0x20 ADD PUSH0 DUP2 MSTORE PUSH1 0x20 ADD PUSH0 DUP2 MSTORE POP SWAP1 JUMP JUMPDEST PUSH0 PUSH1 0x40 MLOAD SWAP1 POP SWAP1 JUMP JUMPDEST PUSH0 DUP1 REVERT JUMPDEST PUSH0 DUP1 REVERT JUMPDEST PUSH0 PUSH20 0xFFFFFFFFFFFFFFFFFFFFFFFFFFFFFFFFFFFFFFFF DUP3 AND SWAP1 POP SWAP2 SWAP1 POP JUMP JUMPDEST PUSH0 PUSH2 0x6EB DUP3 PUSH2 0x6C2 JUMP JUMPDEST SWAP1 POP SWAP2 SWAP1 POP JUMP JUMPDEST PUSH2 0x6FB DUP2 PUSH2 0x6E1 JUMP JUMPDEST DUP2 EQ PUSH2 0x705 JUMPI PUSH0 DUP1 REVERT JUMPDEST POP JUMP JUMPDEST PUSH0 DUP2 CALLDATALOAD SWAP1 POP PUSH2 0x716 DUP2 PUSH2 0x6F2 JUMP JUMPDEST SWAP3 SWAP2 POP POP JUMP JUMPDEST PUSH0 DUP2 SWAP1 POP SWAP2 SWAP1 POP JUMP JUMPDEST PUSH2 0x72E DUP2 PUSH2 0x71C JUMP JUMPDEST DUP2 EQ PUSH2 0x738 JUMPI PUSH0 DUP1 REVERT JUMPDEST POP JUMP JUMPDEST PUSH0 DUP2 CALLDATALOAD SWAP1 POP PUSH2 0x749 DUP2 PUSH2 0x725 JUMP JUMPDEST SWAP3 SWAP2 POP POP JUMP JUMPDEST PUSH0 DUP1 PUSH1 0x40 DUP4 DUP6 SUB SLT ISZERO PUSH2 0x765 JUMPI PUSH2 0x764 PUSH2 0x6BA JUMP JUMPDEST JUMPDEST PUSH0 PUSH2 0x772 DUP6 DUP3 DUP7 ADD PUSH2 0x708 JUMP JUMPDEST SWAP3 POP POP PUSH1 0x20 PUSH2 0x783 DUP6 DUP3 DUP7 ADD PUSH2 0x73B JUMP JUMPDEST SWAP2 POP POP SWAP3 POP SWAP3 SWAP1 POP JUMP JUMPDEST PUSH2 0x796 DUP2 PUSH2 0x6E1 JUMP JUMPDEST DUP3 MSTORE POP POP JUMP JUMPDEST PUSH0 DUP2 MLOAD SWAP1 POP SWAP2 SWAP1 POP JUMP JUMPDEST PUSH0 DUP3 DUP3 MSTORE PUSH1 0x20 DUP3 ADD SWAP1 POP SWAP3 SWAP2 POP POP JUMP JUMPDEST PUSH0 JUMPDEST DUP4 DUP2 LT ISZERO PUSH2 0x7D3 JUMPI DUP1 DUP3 ADD MLOAD DUP2 DUP5 ADD MSTORE PUSH1 0x20 DUP2 ADD SWAP1 POP PUSH2 0x7B8 JUMP JUMPDEST PUSH0 DUP5 DUP5 ADD MSTORE POP POP POP POP JUMP JUMPDEST PUSH0 PUSH1 0x1F NOT PUSH1 0x1F DUP4 ADD AND SWAP1 POP SWAP2 SWAP1 POP JUMP JUMPDEST PUSH0 PUSH2 0x7F8 DUP3 PUSH2 0x79C JUMP JUMPDEST PUSH2 0x802 DUP2 DUP6 PUSH2 0x7A6 JUMP JUMPDEST SWAP4 POP PUSH2 0x812 DUP2 DUP6 PUSH1 0x20 DUP7 ADD PUSH2 0x7B6 JUMP JUMPDEST PUSH2 0x81B DUP2 PUSH2 0x7DE JUMP JUMPDEST DUP5 ADD SWAP2 POP POP SWAP3 SWAP2 POP POP JUMP JUMPDEST PUSH2 0x82F DUP2 PUSH2 0x71C JUMP JUMPDEST DUP3 MSTORE POP POP JUMP JUMPDEST PUSH0 PUSH1 0x80 DUP3 ADD SWAP1 POP PUSH2 0x848 PUSH0 DUP4 ADD DUP8 PUSH2 0x78D JUMP JUMPDEST DUP2 DUP2 SUB PUSH1 0x20 DUP4 ADD MSTORE PUSH2 0x85A DUP2 DUP7 PUSH2 0x7EE JUMP JUMPDEST SWAP1 POP PUSH2 0x869 PUSH1 0x40 DUP4 ADD DUP6 PUSH2 0x826 JUMP JUMPDEST PUSH2 0x876 PUSH1 0x60 DUP4 ADD DUP5 PUSH2 0x826 JUMP JUMPDEST SWAP6 SWAP5 POP POP POP POP POP JUMP JUMPDEST PUSH2 0x888 DUP2 PUSH2 0x6E1 JUMP JUMPDEST DUP3 MSTORE POP POP JUMP JUMPDEST PUSH0 DUP3 DUP3 MSTORE PUSH1 0x20 DUP3 ADD SWAP1 POP SWAP3 SWAP2 POP POP JUMP JUMPDEST PUSH0 PUSH2 0x8A8 DUP3 PUSH2 0x79C JUMP JUMPDEST PUSH2 0x8B2 DUP2 DUP6 PUSH2 0x88E JUMP JUMPDEST SWAP4 POP PUSH2 0x8C2 DUP2 DUP6 PUSH1 0x20 DUP7 ADD PUSH2 0x7B6 JUMP JUMPDEST PUSH2 0x8CB DUP2 PUSH2 0x7DE JUMP JUMPDEST DUP5 ADD SWAP2 POP POP SWAP3 SWAP2 POP POP JUMP JUMPDEST PUSH2 0x8DF DUP2 PUSH2 0x71C JUMP JUMPDEST DUP3 MSTORE POP POP JUMP JUMPDEST PUSH0 PUSH1 0x80 DUP4 ADD PUSH0 DUP4 ADD MLOAD PUSH2 0x8FA PUSH0 DUP7 ADD DUP3 PUSH2 0x87F JUMP JUMPDEST POP PUSH1 0x20 DUP4 ADD MLOAD DUP5 DUP3 SUB PUSH1 0x20 DUP7 ADD MSTORE PUSH2 0x912 DUP3 DUP3 PUSH2 0x89E JUMP JUMPDEST SWAP2 POP POP PUSH1 0x40 DUP4 ADD MLOAD PUSH2 0x927 PUSH1 0x40 DUP7 ADD DUP3 PUSH2 0x8D6 JUMP JUMPDEST POP PUSH1 0x60 DUP4 ADD MLOAD PUSH2 0x93A PUSH1 0x60 DUP7 ADD DUP3 PUSH2 0x8D6 JUMP JUMPDEST POP DUP1 SWAP2 POP POP SWAP3 SWAP2 POP POP JUMP JUMPDEST PUSH0 PUSH1 0x20 DUP3 ADD SWAP1 POP DUP2 DUP2 SUB PUSH0 DUP4 ADD MSTORE PUSH2 0x95D DUP2 DUP5 PUSH2 0x8E5 JUMP JUMPDEST SWAP1 POP SWAP3 SWAP2 POP POP JUMP JUMPDEST PUSH0 PUSH1 0x20 DUP3 DUP5 SUB SLT ISZERO PUSH2 0x97A JUMPI PUSH2 0x979 PUSH2 0x6BA JUMP JUMPDEST JUMPDEST PUSH0 PUSH2 0x987 DUP5 DUP3 DUP6 ADD PUSH2 0x708 JUMP JUMPDEST SWAP2 POP POP SWAP3 SWAP2 POP POP JUMP JUMPDEST PUSH0 DUP2 MLOAD SWAP1 POP SWAP2 SWAP1 POP JUMP JUMPDEST PUSH0 DUP3 DUP3 MSTORE PUSH1 0x20 DUP3 ADD SWAP1 POP SWAP3 SWAP2 POP POP JUMP JUMPDEST PUSH0 DUP2 SWAP1 POP PUSH1 0x20 DUP3 ADD SWAP1 POP SWAP2 SWAP1 POP JUMP JUMPDEST PUSH0 PUSH1 0x80 DUP4 ADD PUSH0 DUP4 ADD MLOAD PUSH2 0x9CE PUSH0 DUP7 ADD DUP3 PUSH2 0x87F JUMP JUMPDEST POP PUSH1 0x20 DUP4 ADD MLOAD DUP5 DUP3 SUB PUSH1 0x20 DUP7 ADD MSTORE PUSH2 0x9E6 DUP3 DUP3 PUSH2 0x89E JUMP JUMPDEST SWAP2 POP POP PUSH1 0x40 DUP4 ADD MLOAD PUSH2 0x9FB PUSH1 0x40 DUP7 ADD DUP3 PUSH2 0x8D6 JUMP JUMPDEST POP PUSH1 0x60 DUP4 ADD MLOAD PUSH2 0xA0E PUSH1 0x60 DUP7 ADD DUP3 PUSH2 0x8D6 JUMP JUMPDEST POP DUP1 SWAP2 POP POP SWAP3 SWAP2 POP POP JUMP JUMPDEST PUSH0 PUSH2 0xA24 DUP4 DUP4 PUSH2 0x9B9 JUMP JUMPDEST SWAP1 POP SWAP3 SWAP2 POP POP JUMP JUMPDEST PUSH0 PUSH1 0x20 DUP3 ADD SWAP1 POP SWAP2 SWAP1 POP JUMP JUMPDEST PUSH0 PUSH2 0xA42 DUP3 PUSH2 0x990 JUMP JUMPDEST PUSH2 0xA4C DUP2 DUP6 PUSH2 0x99A JUMP JUMPDEST SWAP4 POP DUP4 PUSH1 0x20 DUP3 MUL DUP6 ADD PUSH2 0xA5E DUP6 PUSH2 0x9AA JUMP JUMPDEST DUP1 PUSH0 JUMPDEST DUP6 DUP2 LT ISZERO PUSH2 0xA99 JUMPI DUP5 DUP5 SUB DUP10 MSTORE DUP2 MLOAD PUSH2 0xA7A DUP6 DUP3 PUSH2 0xA19 JUMP JUMPDEST SWAP5 POP PUSH2 0xA85 DUP4 PUSH2 0xA2C JUMP JUMPDEST SWAP3 POP PUSH1 0x20 DUP11 ADD SWAP10 POP POP PUSH1 0x1 DUP2 ADD SWAP1 POP PUSH2 0xA61 JUMP JUMPDEST POP DUP3 SWAP8 POP DUP8 SWAP6 POP POP POP POP POP POP SWAP3 SWAP2 POP POP JUMP JUMPDEST PUSH0 PUSH1 0x20 DUP3 ADD SWAP1 POP DUP2 DUP2 SUB PUSH0 DUP4 ADD MSTORE PUSH2 0xAC3 DUP2 DUP5 PUSH2 0xA38 JUMP JUMPDEST SWAP1 POP SWAP3 SWAP2 POP POP JUMP JUMPDEST PUSH0 DUP1 REVERT JUMPDEST PUSH0 DUP1 REVERT JUMPDEST PUSH32 0x4E487B7100000000000000000000000000000000000000000000000000000000 PUSH0 MSTORE PUSH1 0x41 PUSH1 0x4 MSTORE PUSH1 0x24 PUSH0 REVERT JUMPDEST PUSH2 0xB09 DUP3 PUSH2 0x7DE JUMP JUMPDEST DUP2 ADD DUP2 DUP2 LT PUSH8 0xFFFFFFFFFFFFFFFF DUP3 GT OR ISZERO PUSH2 0xB28 JUMPI PUSH2 0xB27 PUSH2 0xAD3 JUMP JUMPDEST JUMPDEST DUP1 PUSH1 0x40 MSTORE POP POP POP JUMP JUMPDEST PUSH0 PUSH2 0xB3A PUSH2 0x6B1 JUMP JUMPDEST SWAP1 POP PUSH2 0xB46 DUP3 DUP3 PUSH2 0xB00 JUMP JUMPDEST SWAP2 SWAP1 POP JUMP JUMPDEST PUSH0 PUSH8 0xFFFFFFFFFFFFFFFF DUP3 GT ISZERO PUSH2 0xB65 JUMPI PUSH2 0xB64 PUSH2 0xAD3 JUMP JUMPDEST JUMPDEST PUSH2 0xB6E DUP3 PUSH2 0x7DE JUMP JUMPDEST SWAP1 POP PUSH1 0x20 DUP2 ADD SWAP1 POP SWAP2 SWAP1 POP JUMP JUMPDEST DUP3 DUP2 DUP4 CALLDATACOPY PUSH0 DUP4 DUP4 ADD MSTORE POP POP POP JUMP JUMPDEST PUSH0 PUSH2 0xB9B PUSH2 0xB96 DUP5 PUSH2 0xB4B JUMP JUMPDEST PUSH2 0xB31 JUMP JUMPDEST SWAP1 POP DUP3 DUP2 MSTORE PUSH1 0x20 DUP2 ADD DUP5 DUP5 DUP5 ADD GT ISZERO PUSH2 0xBB7 JUMPI PUSH2 0xBB6 PUSH2 0xACF JUMP JUMPDEST JUMPDEST PUSH2 0xBC2 DUP5 DUP3 DUP6 PUSH2 0xB7B JUMP JUMPDEST POP SWAP4 SWAP3 POP POP POP JUMP JUMPDEST PUSH0 DUP3 PUSH1 0x1F DUP4 ADD SLT PUSH2 0xBDE JUMPI PUSH2 0xBDD PUSH2 0xACB JUMP JUMPDEST JUMPDEST DUP2 CALLDATALOAD PUSH2 0xBEE DUP5 DUP3 PUSH1 0x20 DUP7 ADD PUSH2 0xB89 JUMP JUMPDEST SWAP2 POP POP SWAP3 SWAP2 POP POP JUMP JUMPDEST PUSH0 PUSH1 0x20 DUP3 DUP5 SUB SLT ISZERO PUSH2 0xC0C JUMPI PUSH2 0xC0B PUSH2 0x6BA JUMP JUMPDEST JUMPDEST PUSH0 DUP3 ADD CALLDATALOAD PUSH8 0xFFFFFFFFFFFFFFFF DUP2 GT ISZERO PUSH2 0xC29 JUMPI PUSH2 0xC28 PUSH2 0x6BE JUMP JUMPDEST JUMPDEST PUSH2 0xC35 DUP5 DUP3 DUP6 ADD PUSH2 0xBCA JUMP JUMPDEST SWAP2 POP POP SWAP3 SWAP2 POP POP JUMP JUMPDEST PUSH32 0x4E487B7100000000000000000000000000000000000000000000000000000000 PUSH0 MSTORE PUSH1 0x22 PUSH1 0x4 MSTORE PUSH1 0x24 PUSH0 REVERT JUMPDEST PUSH0 PUSH1 0x2 DUP3 DIV SWAP1 POP PUSH1 0x1 DUP3 AND DUP1 PUSH2 0xC82 JUMPI PUSH1 0x7F DUP3 AND SWAP2 POP JUMPDEST PUSH1 0x20 DUP3 LT DUP2 SUB PUSH2 0xC95 JUMPI PUSH2 0xC94 PUSH2 0xC3E JUMP JUMPDEST JUMPDEST POP SWAP2 SWAP1 POP JUMP JUMPDEST PUSH32 0x496E646578206F7574206F6620626F756E647300000000000000000000000000 PUSH0 DUP3 ADD MSTORE POP JUMP JUMPDEST PUSH0 PUSH2 0xCCF PUSH1 0x13 DUP4 PUSH2 0x7A6 JUMP JUMPDEST SWAP2 POP PUSH2 0xCDA DUP3 PUSH2 0xC9B JUMP JUMPDEST PUSH1 0x20 DUP3 ADD SWAP1 POP SWAP2 SWAP1 POP JUMP JUMPDEST PUSH0 PUSH1 0x20 DUP3 ADD SWAP1 POP DUP2 DUP2 SUB PUSH0 DUP4 ADD MSTORE PUSH2 0xCFC DUP2 PUSH2 0xCC3 JUMP JUMPDEST SWAP1 POP SWAP2 SWAP1 POP JUMP JUMPDEST PUSH32 0x4E487B7100000000000000000000000000000000000000000000000000000000 PUSH0 MSTORE PUSH1 0x32 PUSH1 0x4 MSTORE PUSH1 0x24 PUSH0 REVERT JUMPDEST PUSH0 DUP2 SWAP1 POP DUP2 PUSH0 MSTORE PUSH1 0x20 PUSH0 KECCAK256 SWAP1 POP SWAP2 SWAP1 POP JUMP JUMPDEST PUSH0 PUSH1 0x20 PUSH1 0x1F DUP4 ADD DIV SWAP1 POP SWAP2 SWAP1 POP JUMP JUMPDEST PUSH0 DUP3 DUP3 SHL SWAP1 POP SWAP3 SWAP2 POP POP JUMP JUMPDEST PUSH0 PUSH1 0x8 DUP4 MUL PUSH2 0xD8C PUSH32 0xFFFFFFFFFFFFFFFFFFFFFFFFFFFFFFFFFFFFFFFFFFFFFFFFFFFFFFFFFFFFFFFF DUP3 PUSH2 0xD51 JUMP JUMPDEST PUSH2 0xD96 DUP7 DUP4 PUSH2 0xD51 JUMP JUMPDEST SWAP6 POP DUP1 NOT DUP5 AND SWAP4 POP DUP1 DUP7 AND DUP5 OR SWAP3 POP POP POP SWAP4 SWAP3 POP POP POP JUMP JUMPDEST PUSH0 DUP2 SWAP1 POP SWAP2 SWAP1 POP JUMP JUMPDEST PUSH0 PUSH2 0xDD1 PUSH2 0xDCC PUSH2 0xDC7 DUP5 PUSH2 0x71C JUMP JUMPDEST PUSH2 0xDAE JUMP JUMPDEST PUSH2 0x71C JUMP JUMPDEST SWAP1 POP SWAP2 SWAP1 POP JUMP JUMPDEST PUSH0 DUP2 SWAP1 POP SWAP2 SWAP1 POP JUMP JUMPDEST PUSH2 0xDEA DUP4 PUSH2 0xDB7 JUMP JUMPDEST PUSH2 0xDFE PUSH2 0xDF6 DUP3 PUSH2 0xDD8 JUMP JUMPDEST DUP5 DUP5 SLOAD PUSH2 0xD5D JUMP JUMPDEST DUP3 SSTORE POP POP POP POP JUMP JUMPDEST PUSH0 SWAP1 JUMP JUMPDEST PUSH2 0xE12 PUSH2 0xE06 JUMP JUMPDEST PUSH2 0xE1D DUP2 DUP5 DUP5 PUSH2 0xDE1 JUMP JUMPDEST POP POP POP JUMP JUMPDEST JUMPDEST DUP2 DUP2 LT ISZERO PUSH2 0xE40 JUMPI PUSH2 0xE35 PUSH0 DUP3 PUSH2 0xE0A JUMP JUMPDEST PUSH1 0x1 DUP2 ADD SWAP1 POP PUSH2 0xE23 JUMP JUMPDEST POP POP JUMP JUMPDEST PUSH1 0x1F DUP3 GT ISZERO PUSH2 0xE85 JUMPI PUSH2 0xE56 DUP2 PUSH2 0xD30 JUMP JUMPDEST PUSH2 0xE5F DUP5 PUSH2 0xD42 JUMP JUMPDEST DUP2 ADD PUSH1 0x20 DUP6 LT ISZERO PUSH2 0xE6E JUMPI DUP2 SWAP1 POP JUMPDEST PUSH2 0xE82 PUSH2 0xE7A DUP6 PUSH2 0xD42 JUMP JUMPDEST DUP4 ADD DUP3 PUSH2 0xE22 JUMP JUMPDEST POP POP JUMPDEST POP POP POP JUMP JUMPDEST PUSH0 DUP3 DUP3 SHR SWAP1 POP SWAP3 SWAP2 POP POP JUMP JUMPDEST PUSH0 PUSH2 0xEA5 PUSH0 NOT DUP5 PUSH1 0x8 MUL PUSH2 0xE8A JUMP JUMPDEST NOT DUP1 DUP4 AND SWAP2 POP POP SWAP3 SWAP2 POP POP JUMP JUMPDEST PUSH0 PUSH2 0xEBD DUP4 DUP4 PUSH2 0xE96 JUMP JUMPDEST SWAP2 POP DUP3 PUSH1 0x2 MUL DUP3 OR SWAP1 POP SWAP3 SWAP2 POP POP JUMP JUMPDEST PUSH2 0xED6 DUP3 PUSH2 0x79C JUMP JUMPDEST PUSH8 0xFFFFFFFFFFFFFFFF DUP2 GT ISZERO PUSH2 0xEEF JUMPI PUSH2 0xEEE PUSH2 0xAD3 JUMP JUMPDEST JUMPDEST PUSH2 0xEF9 DUP3 SLOAD PUSH2 0xC6B JUMP JUMPDEST PUSH2 0xF04 DUP3 DUP3 DUP6 PUSH2 0xE44 JUMP JUMPDEST PUSH0 PUSH1 0x20 SWAP1 POP PUSH1 0x1F DUP4 GT PUSH1 0x1 DUP2 EQ PUSH2 0xF35 JUMPI PUSH0 DUP5 ISZERO PUSH2 0xF23 JUMPI DUP3 DUP8 ADD MLOAD SWAP1 POP JUMPDEST PUSH2 0xF2D DUP6 DUP3 PUSH2 0xEB2 JUMP JUMPDEST DUP7 SSTORE POP PUSH2 0xF94 JUMP JUMPDEST PUSH1 0x1F NOT DUP5 AND PUSH2 0xF43 DUP7 PUSH2 0xD30 JUMP JUMPDEST PUSH0 JUMPDEST DUP3 DUP2 LT ISZERO PUSH2 0xF6A JUMPI DUP5 DUP10 ADD MLOAD DUP3 SSTORE PUSH1 0x1 DUP3 ADD SWAP2 POP PUSH1 0x20 DUP6 ADD SWAP5 POP PUSH1 0x20 DUP2 ADD SWAP1 POP PUSH2 0xF45 JUMP JUMPDEST DUP7 DUP4 LT ISZERO PUSH2 0xF87 JUMPI DUP5 DUP10 ADD MLOAD PUSH2 0xF83 PUSH1 0x1F DUP10 AND DUP3 PUSH2 0xE96 JUMP JUMPDEST DUP4 SSTORE POP JUMPDEST PUSH1 0x1 PUSH1 0x2 DUP9 MUL ADD DUP9 SSTORE POP POP POP JUMPDEST POP POP POP POP POP POP JUMP INVALID LOG2 PUSH5 0x6970667358 0x22 SLT KECCAK256 0xC 0xC0 GAS PUSH13 0x2ADBE545D1A651E5C8ED9DDF41 DUP5 PUSH31 0xA29E815E4FB30202FBF683281E64736F6C6343000816003300000000000000 "
				},
				"gasEstimates": {
					"creation": {
						"codeDepositCost": "810000",
						"executionCost": "842",
						"totalCost": "810842"
					},
					"external": {
						"createTweet(string)": "infinite",
						"getAllTweets(address)": "infinite",
						"getTweet(address,uint256)": "infinite",
						"tweets(address,uint256)": "infinite"
					}
				},
				"methodIdentifiers": {
					"createTweet(string)": "7c9cd2bc",
					"getAllTweets(address)": "12e7ee1c",
					"getTweet(address,uint256)": "112f54e3",
					"tweets(address,uint256)": "05a1b4a9"
				}
			},
			"storageLayout": {
				"storage": [
					{
						"astId": 16,
						"contract": "Twitter_2.sol:Twitter",
						"label": "tweets",
						"offset": 0,
						"slot": "0",
						"type": "t_mapping(t_address,t_array(t_struct(Tweet)10_storage)dyn_storage)"
					}
				],
				"types": {
					"t_address": {
						"encoding": "inplace",
						"label": "address",
						"numberOfBytes": "20"
					},
					"t_array(t_struct(Tweet)10_storage)dyn_storage": {
						"base": "t_struct(Tweet)10_storage",
						"encoding": "dynamic_array",
						"label": "struct Twitter.Tweet[]",
						"numberOfBytes": "32"
					},
					"t_mapping(t_address,t_array(t_struct(Tweet)10_storage)dyn_storage)": {
						"encoding": "mapping",
						"key": "t_address",
						"label": "mapping(address => struct Twitter.Tweet[])",
						"numberOfBytes": "32",
						"value": "t_array(t_struct(Tweet)10_storage)dyn_storage"
					},
					"t_string_storage": {
						"encoding": "bytes",
						"label": "string",
						"numberOfBytes": "32"
					},
					"t_struct(Tweet)10_storage": {
						"encoding": "inplace",
						"label": "struct Twitter.Tweet",
						"members": [
							{
								"astId": 3,
								"contract": "Twitter_2.sol:Twitter",
								"label": "author",
								"offset": 0,
								"slot": "0",
								"type": "t_address"
							},
							{
								"astId": 5,
								"contract": "Twitter_2.sol:Twitter",
								"label": "content",
								"offset": 0,
								"slot": "1",
								"type": "t_string_storage"
							},
							{
								"astId": 7,
								"contract": "Twitter_2.sol:Twitter",
								"label": "timestamp",
								"offset": 0,
								"slot": "2",
								"type": "t_uint256"
							},
							{
								"astId": 9,
								"contract": "Twitter_2.sol:Twitter",
								"label": "likes",
								"offset": 0,
								"slot": "3",
								"type": "t_uint256"
							}
						],
						"numberOfBytes": "128"
					},
					"t_uint256": {
						"encoding": "inplace",
						"label": "uint256",
						"numberOfBytes": "32"
					}
				}
			},
			"userdoc": {
				"kind": "user",
				"methods": {},
				"version": 1
			}
		}
	}
}