{
	"Buyer-Seller.sol": {
		"SupplyChainContract": {
			"abi": [
				{
					"inputs": [
						{
							"internalType": "address",
							"name": "_seller",
							"type": "address"
						}
					],
					"stateMutability": "nonpayable",
					"type": "constructor"
				},
				{
					"anonymous": false,
					"inputs": [
						{
							"indexed": false,
							"internalType": "uint256",
							"name": "orderId",
							"type": "uint256"
						}
					],
					"name": "OrderDelivered",
					"type": "event"
				},
				{
					"anonymous": false,
					"inputs": [
						{
							"indexed": false,
							"internalType": "uint256",
							"name": "orderId",
							"type": "uint256"
						},
						{
							"indexed": false,
							"internalType": "string",
							"name": "product",
							"type": "string"
						},
						{
							"indexed": false,
							"internalType": "uint256",
							"name": "quantity",
							"type": "uint256"
						}
					],
					"name": "OrderPlaced",
					"type": "event"
				},
				{
					"anonymous": false,
					"inputs": [
						{
							"indexed": false,
							"internalType": "uint256",
							"name": "orderId",
							"type": "uint256"
						}
					],
					"name": "OrderShipped",
					"type": "event"
				},
				{
					"inputs": [],
					"name": "buyer",
					"outputs": [
						{
							"internalType": "address",
							"name": "",
							"type": "address"
						}
					],
					"stateMutability": "view",
					"type": "function"
				},
				{
					"inputs": [
						{
							"internalType": "uint256",
							"name": "_orderId",
							"type": "uint256"
						}
					],
					"name": "deliverOrder",
					"outputs": [],
					"stateMutability": "nonpayable",
					"type": "function"
				},
				{
					"inputs": [],
					"name": "orderCount",
					"outputs": [
						{
							"internalType": "uint256",
							"name": "",
							"type": "uint256"
						}
					],
					"stateMutability": "view",
					"type": "function"
				},
				{
					"inputs": [
						{
							"internalType": "uint256",
							"name": "",
							"type": "uint256"
						}
					],
					"name": "orders",
					"outputs": [
						{
							"internalType": "uint256",
							"name": "orderId",
							"type": "uint256"
						},
						{
							"internalType": "string",
							"name": "product",
							"type": "string"
						},
						{
							"internalType": "uint256",
							"name": "quantity",
							"type": "uint256"
						},
						{
							"internalType": "enum SupplyChainContract.OrderStatus",
							"name": "status",
							"type": "uint8"
						}
					],
					"stateMutability": "view",
					"type": "function"
				},
				{
					"inputs": [
						{
							"internalType": "string",
							"name": "_product",
							"type": "string"
						},
						{
							"internalType": "uint256",
							"name": "_quantity",
							"type": "uint256"
						}
					],
					"name": "placeOrder",
					"outputs": [],
					"stateMutability": "nonpayable",
					"type": "function"
				},
				{
					"inputs": [],
					"name": "seller",
					"outputs": [
						{
							"internalType": "address",
							"name": "",
							"type": "address"
						}
					],
					"stateMutability": "view",
					"type": "function"
				},
				{
					"inputs": [
						{
							"internalType": "uint256",
							"name": "_orderId",
							"type": "uint256"
						}
					],
					"name": "shipOrder",
					"outputs": [],
					"stateMutability": "nonpayable",
					"type": "function"
				}
			],
			"devdoc": {
				"kind": "dev",
				"methods": {},
				"version": 1
			},
			"evm": {
				"assembly": "    /* \"Buyer-Seller.sol\":61:2104  contract SupplyChainContract {... */\n  mstore(0x40, 0x80)\n    /* \"Buyer-Seller.sol\":1157:1250  constructor(address _seller) {... */\n  callvalue\n  dup1\n  iszero\n  tag_1\n  jumpi\n  0x00\n  dup1\n  revert\ntag_1:\n  pop\n  mload(0x40)\n  sub(codesize, bytecodeSize)\n  dup1\n  bytecodeSize\n  dup4\n  codecopy\n  dup2\n  dup2\n  add\n  0x40\n  mstore\n  dup2\n  add\n  swap1\n  tag_2\n  swap2\n  swap1\n  tag_3\n  jump\t// in\ntag_2:\n    /* \"Buyer-Seller.sol\":1205:1215  msg.sender */\n  caller\n    /* \"Buyer-Seller.sol\":1197:1202  buyer */\n  0x00\n  dup1\n    /* \"Buyer-Seller.sol\":1197:1215  buyer = msg.sender */\n  0x0100\n  exp\n  dup2\n  sload\n  dup2\n  0xffffffffffffffffffffffffffffffffffffffff\n  mul\n  not\n  and\n  swap1\n  dup4\n  0xffffffffffffffffffffffffffffffffffffffff\n  and\n  mul\n  or\n  swap1\n  sstore\n  pop\n    /* \"Buyer-Seller.sol\":1235:1242  _seller */\n  dup1\n    /* \"Buyer-Seller.sol\":1226:1232  seller */\n  0x01\n  0x00\n    /* \"Buyer-Seller.sol\":1226:1242  seller = _seller */\n  0x0100\n  exp\n  dup2\n  sload\n  dup2\n  0xffffffffffffffffffffffffffffffffffffffff\n  mul\n  not\n  and\n  swap1\n  dup4\n  0xffffffffffffffffffffffffffffffffffffffff\n  and\n  mul\n  or\n  swap1\n  sstore\n  pop\n    /* \"Buyer-Seller.sol\":1157:1250  constructor(address _seller) {... */\n  pop\n    /* \"Buyer-Seller.sol\":61:2104  contract SupplyChainContract {... */\n  jump(tag_6)\n    /* \"#utility.yul\":88:205   */\ntag_8:\n    /* \"#utility.yul\":197:198   */\n  0x00\n    /* \"#utility.yul\":194:195   */\n  dup1\n    /* \"#utility.yul\":187:199   */\n  revert\n    /* \"#utility.yul\":334:460   */\ntag_10:\n    /* \"#utility.yul\":371:378   */\n  0x00\n    /* \"#utility.yul\":411:453   */\n  0xffffffffffffffffffffffffffffffffffffffff\n    /* \"#utility.yul\":404:409   */\n  dup3\n    /* \"#utility.yul\":400:454   */\n  and\n    /* \"#utility.yul\":389:454   */\n  swap1\n  pop\n    /* \"#utility.yul\":334:460   */\n  swap2\n  swap1\n  pop\n  jump\t// out\n    /* \"#utility.yul\":466:562   */\ntag_11:\n    /* \"#utility.yul\":503:510   */\n  0x00\n    /* \"#utility.yul\":532:556   */\n  tag_20\n    /* \"#utility.yul\":550:555   */\n  dup3\n    /* \"#utility.yul\":532:556   */\n  tag_10\n  jump\t// in\ntag_20:\n    /* \"#utility.yul\":521:556   */\n  swap1\n  pop\n    /* \"#utility.yul\":466:562   */\n  swap2\n  swap1\n  pop\n  jump\t// out\n    /* \"#utility.yul\":568:690   */\ntag_12:\n    /* \"#utility.yul\":641:665   */\n  tag_22\n    /* \"#utility.yul\":659:664   */\n  dup2\n    /* \"#utility.yul\":641:665   */\n  tag_11\n  jump\t// in\ntag_22:\n    /* \"#utility.yul\":634:639   */\n  dup2\n    /* \"#utility.yul\":631:666   */\n  eq\n    /* \"#utility.yul\":621:684   */\n  tag_23\n  jumpi\n    /* \"#utility.yul\":680:681   */\n  0x00\n    /* \"#utility.yul\":677:678   */\n  dup1\n    /* \"#utility.yul\":670:682   */\n  revert\n    /* \"#utility.yul\":621:684   */\ntag_23:\n    /* \"#utility.yul\":568:690   */\n  pop\n  jump\t// out\n    /* \"#utility.yul\":696:839   */\ntag_13:\n    /* \"#utility.yul\":753:758   */\n  0x00\n    /* \"#utility.yul\":784:790   */\n  dup2\n    /* \"#utility.yul\":778:791   */\n  mload\n    /* \"#utility.yul\":769:791   */\n  swap1\n  pop\n    /* \"#utility.yul\":800:833   */\n  tag_25\n    /* \"#utility.yul\":827:832   */\n  dup2\n    /* \"#utility.yul\":800:833   */\n  tag_12\n  jump\t// in\ntag_25:\n    /* \"#utility.yul\":696:839   */\n  swap3\n  swap2\n  pop\n  pop\n  jump\t// out\n    /* \"#utility.yul\":845:1196   */\ntag_3:\n    /* \"#utility.yul\":915:921   */\n  0x00\n    /* \"#utility.yul\":964:966   */\n  0x20\n    /* \"#utility.yul\":952:961   */\n  dup3\n    /* \"#utility.yul\":943:950   */\n  dup5\n    /* \"#utility.yul\":939:962   */\n  sub\n    /* \"#utility.yul\":935:967   */\n  slt\n    /* \"#utility.yul\":932:1051   */\n  iszero\n  tag_27\n  jumpi\n    /* \"#utility.yul\":970:1049   */\n  tag_28\n  tag_8\n  jump\t// in\ntag_28:\n    /* \"#utility.yul\":932:1051   */\ntag_27:\n    /* \"#utility.yul\":1090:1091   */\n  0x00\n    /* \"#utility.yul\":1115:1179   */\n  tag_29\n    /* \"#utility.yul\":1171:1178   */\n  dup5\n    /* \"#utility.yul\":1162:1168   */\n  dup3\n    /* \"#utility.yul\":1151:1160   */\n  dup6\n    /* \"#utility.yul\":1147:1169   */\n  add\n    /* \"#utility.yul\":1115:1179   */\n  tag_13\n  jump\t// in\ntag_29:\n    /* \"#utility.yul\":1105:1179   */\n  swap2\n  pop\n    /* \"#utility.yul\":1061:1189   */\n  pop\n    /* \"#utility.yul\":845:1196   */\n  swap3\n  swap2\n  pop\n  pop\n  jump\t// out\n    /* \"Buyer-Seller.sol\":61:2104  contract SupplyChainContract {... */\ntag_6:\n  dataSize(sub_0)\n  dup1\n  dataOffset(sub_0)\n  0x00\n  codecopy\n  0x00\n  return\nstop\n\nsub_0: assembly {\n        /* \"Buyer-Seller.sol\":61:2104  contract SupplyChainContract {... */\n      mstore(0x40, 0x80)\n      callvalue\n      dup1\n      iszero\n      tag_1\n      jumpi\n      0x00\n      dup1\n      revert\n    tag_1:\n      pop\n      jumpi(tag_2, lt(calldatasize, 0x04))\n      shr(0xe0, calldataload(0x00))\n      dup1\n      0x7150d8ae\n      gt\n      tag_10\n      jumpi\n      dup1\n      0x7150d8ae\n      eq\n      tag_6\n      jumpi\n      dup1\n      0xa1b6e836\n      eq\n      tag_7\n      jumpi\n      dup1\n      0xa85c38ef\n      eq\n      tag_8\n      jumpi\n      dup1\n      0xddff5e7d\n      eq\n      tag_9\n      jumpi\n      jump(tag_2)\n    tag_10:\n      dup1\n      0x08551a53\n      eq\n      tag_3\n      jumpi\n      dup1\n      0x194c302c\n      eq\n      tag_4\n      jumpi\n      dup1\n      0x2453ffa8\n      eq\n      tag_5\n      jumpi\n    tag_2:\n      0x00\n      dup1\n      revert\n        /* \"Buyer-Seller.sol\":124:145  address public seller */\n    tag_3:\n      tag_11\n      tag_12\n      jump\t// in\n    tag_11:\n      mload(0x40)\n      tag_13\n      swap2\n      swap1\n      tag_14\n      jump\t// in\n    tag_13:\n      mload(0x40)\n      dup1\n      swap2\n      sub\n      swap1\n      return\n        /* \"Buyer-Seller.sol\":1665:1876  function shipOrder(uint256 _orderId) external onlySeller orderExists(_orderId) orderNotDelivered(_orderId) {... */\n    tag_4:\n      tag_15\n      0x04\n      dup1\n      calldatasize\n      sub\n      dup2\n      add\n      swap1\n      tag_16\n      swap2\n      swap1\n      tag_17\n      jump\t// in\n    tag_16:\n      tag_18\n      jump\t// in\n    tag_15:\n      stop\n        /* \"Buyer-Seller.sol\":392:417  uint256 public orderCount */\n    tag_5:\n      tag_19\n      tag_20\n      jump\t// in\n    tag_19:\n      mload(0x40)\n      tag_21\n      swap2\n      swap1\n      tag_22\n      jump\t// in\n    tag_21:\n      mload(0x40)\n      dup1\n      swap2\n      sub\n      swap1\n      return\n        /* \"Buyer-Seller.sol\":97:117  address public buyer */\n    tag_6:\n      tag_23\n      tag_24\n      jump\t// in\n    tag_23:\n      mload(0x40)\n      tag_25\n      swap2\n      swap1\n      tag_14\n      jump\t// in\n    tag_25:\n      mload(0x40)\n      dup1\n      swap2\n      sub\n      swap1\n      return\n        /* \"Buyer-Seller.sol\":1258:1657  function placeOrder(string memory _product, uint256 _quantity) external onlyBuyer {... */\n    tag_7:\n      tag_26\n      0x04\n      dup1\n      calldatasize\n      sub\n      dup2\n      add\n      swap1\n      tag_27\n      swap2\n      swap1\n      tag_28\n      jump\t// in\n    tag_27:\n      tag_29\n      jump\t// in\n    tag_26:\n      stop\n        /* \"Buyer-Seller.sol\":346:385  mapping(uint256 => Order) public orders */\n    tag_8:\n      tag_30\n      0x04\n      dup1\n      calldatasize\n      sub\n      dup2\n      add\n      swap1\n      tag_31\n      swap2\n      swap1\n      tag_17\n      jump\t// in\n    tag_31:\n      tag_32\n      jump\t// in\n    tag_30:\n      mload(0x40)\n      tag_33\n      swap5\n      swap4\n      swap3\n      swap2\n      swap1\n      tag_34\n      jump\t// in\n    tag_33:\n      mload(0x40)\n      dup1\n      swap2\n      sub\n      swap1\n      return\n        /* \"Buyer-Seller.sol\":1884:2101  function deliverOrder(uint256 _orderId) external onlyBuyer orderExists(_orderId) orderNotDelivered(_orderId) {... */\n    tag_9:\n      tag_35\n      0x04\n      dup1\n      calldatasize\n      sub\n      dup2\n      add\n      swap1\n      tag_36\n      swap2\n      swap1\n      tag_17\n      jump\t// in\n    tag_36:\n      tag_37\n      jump\t// in\n    tag_35:\n      stop\n        /* \"Buyer-Seller.sol\":124:145  address public seller */\n    tag_12:\n      0x01\n      0x00\n      swap1\n      sload\n      swap1\n      0x0100\n      exp\n      swap1\n      div\n      0xffffffffffffffffffffffffffffffffffffffff\n      and\n      dup2\n      jump\t// out\n        /* \"Buyer-Seller.sol\":1665:1876  function shipOrder(uint256 _orderId) external onlySeller orderExists(_orderId) orderNotDelivered(_orderId) {... */\n    tag_18:\n        /* \"Buyer-Seller.sol\":769:775  seller */\n      0x01\n      0x00\n      swap1\n      sload\n      swap1\n      0x0100\n      exp\n      swap1\n      div\n      0xffffffffffffffffffffffffffffffffffffffff\n      and\n        /* \"Buyer-Seller.sol\":755:775  msg.sender == seller */\n      0xffffffffffffffffffffffffffffffffffffffff\n      and\n        /* \"Buyer-Seller.sol\":755:765  msg.sender */\n      caller\n        /* \"Buyer-Seller.sol\":755:775  msg.sender == seller */\n      0xffffffffffffffffffffffffffffffffffffffff\n      and\n      eq\n        /* \"Buyer-Seller.sol\":747:814  require(msg.sender == seller, \"Only seller can call this function\") */\n      tag_39\n      jumpi\n      mload(0x40)\n      0x08c379a000000000000000000000000000000000000000000000000000000000\n      dup2\n      mstore\n      0x04\n      add\n      tag_40\n      swap1\n      tag_41\n      jump\t// in\n    tag_40:\n      mload(0x40)\n      dup1\n      swap2\n      sub\n      swap1\n      revert\n    tag_39:\n        /* \"Buyer-Seller.sol\":1734:1742  _orderId */\n      dup1\n        /* \"Buyer-Seller.sol\":928:936  _orderId */\n      dup1\n        /* \"Buyer-Seller.sol\":900:906  orders */\n      0x02\n        /* \"Buyer-Seller.sol\":900:916  orders[_orderId] */\n      0x00\n        /* \"Buyer-Seller.sol\":907:915  _orderId */\n      dup4\n        /* \"Buyer-Seller.sol\":900:916  orders[_orderId] */\n      dup2\n      mstore\n      0x20\n      add\n      swap1\n      dup2\n      mstore\n      0x20\n      add\n      0x00\n      keccak256\n        /* \"Buyer-Seller.sol\":900:924  orders[_orderId].orderId */\n      0x00\n      add\n      sload\n        /* \"Buyer-Seller.sol\":900:936  orders[_orderId].orderId == _orderId */\n      eq\n        /* \"Buyer-Seller.sol\":892:961  require(orders[_orderId].orderId == _orderId, \"Order does not exist\") */\n      tag_43\n      jumpi\n      mload(0x40)\n      0x08c379a000000000000000000000000000000000000000000000000000000000\n      dup2\n      mstore\n      0x04\n      add\n      tag_44\n      swap1\n      tag_45\n      jump\t// in\n    tag_44:\n      mload(0x40)\n      dup1\n      swap2\n      sub\n      swap1\n      revert\n    tag_43:\n        /* \"Buyer-Seller.sol\":1762:1770  _orderId */\n      dup2\n        /* \"Buyer-Seller.sol\":1080:1101  OrderStatus.Delivered */\n      0x02\n        /* \"Buyer-Seller.sol\":1053:1101  orders[_orderId].status != OrderStatus.Delivered */\n      dup1\n      dup2\n      gt\n      iszero\n      tag_47\n      jumpi\n      tag_48\n      tag_49\n      jump\t// in\n    tag_48:\n    tag_47:\n        /* \"Buyer-Seller.sol\":1053:1059  orders */\n      0x02\n        /* \"Buyer-Seller.sol\":1053:1069  orders[_orderId] */\n      0x00\n        /* \"Buyer-Seller.sol\":1060:1068  _orderId */\n      dup4\n        /* \"Buyer-Seller.sol\":1053:1069  orders[_orderId] */\n      dup2\n      mstore\n      0x20\n      add\n      swap1\n      dup2\n      mstore\n      0x20\n      add\n      0x00\n      keccak256\n        /* \"Buyer-Seller.sol\":1053:1076  orders[_orderId].status */\n      0x03\n      add\n      0x00\n      swap1\n      sload\n      swap1\n      0x0100\n      exp\n      swap1\n      div\n      0xff\n      and\n        /* \"Buyer-Seller.sol\":1053:1101  orders[_orderId].status != OrderStatus.Delivered */\n      0x02\n      dup2\n      gt\n      iszero\n      tag_50\n      jumpi\n      tag_51\n      tag_49\n      jump\t// in\n    tag_51:\n    tag_50:\n      sub\n        /* \"Buyer-Seller.sol\":1045:1129  require(orders[_orderId].status != OrderStatus.Delivered, \"Order already delivered\") */\n      tag_52\n      jumpi\n      mload(0x40)\n      0x08c379a000000000000000000000000000000000000000000000000000000000\n      dup2\n      mstore\n      0x04\n      add\n      tag_53\n      swap1\n      tag_54\n      jump\t// in\n    tag_53:\n      mload(0x40)\n      dup1\n      swap2\n      sub\n      swap1\n      revert\n    tag_52:\n        /* \"Buyer-Seller.sol\":1809:1828  OrderStatus.Shipped */\n      0x01\n        /* \"Buyer-Seller.sol\":1783:1789  orders */\n      0x02\n        /* \"Buyer-Seller.sol\":1783:1799  orders[_orderId] */\n      0x00\n        /* \"Buyer-Seller.sol\":1790:1798  _orderId */\n      dup6\n        /* \"Buyer-Seller.sol\":1783:1799  orders[_orderId] */\n      dup2\n      mstore\n      0x20\n      add\n      swap1\n      dup2\n      mstore\n      0x20\n      add\n      0x00\n      keccak256\n        /* \"Buyer-Seller.sol\":1783:1806  orders[_orderId].status */\n      0x03\n      add\n      0x00\n        /* \"Buyer-Seller.sol\":1783:1828  orders[_orderId].status = OrderStatus.Shipped */\n      0x0100\n      exp\n      dup2\n      sload\n      dup2\n      0xff\n      mul\n      not\n      and\n      swap1\n      dup4\n      0x02\n      dup2\n      gt\n      iszero\n      tag_56\n      jumpi\n      tag_57\n      tag_49\n      jump\t// in\n    tag_57:\n    tag_56:\n      mul\n      or\n      swap1\n      sstore\n      pop\n        /* \"Buyer-Seller.sol\":1846:1868  OrderShipped(_orderId) */\n      0xe3ce5f36666aec295b2ed1a858caf4782066e5e8c1a5a5da7ba6551b14fcfdcb\n        /* \"Buyer-Seller.sol\":1859:1867  _orderId */\n      dup4\n        /* \"Buyer-Seller.sol\":1846:1868  OrderShipped(_orderId) */\n      mload(0x40)\n      tag_58\n      swap2\n      swap1\n      tag_22\n      jump\t// in\n    tag_58:\n      mload(0x40)\n      dup1\n      swap2\n      sub\n      swap1\n      log1\n        /* \"Buyer-Seller.sol\":972:973  _ */\n      pop\n        /* \"Buyer-Seller.sol\":825:826  _ */\n      pop\n        /* \"Buyer-Seller.sol\":1665:1876  function shipOrder(uint256 _orderId) external onlySeller orderExists(_orderId) orderNotDelivered(_orderId) {... */\n      pop\n      jump\t// out\n        /* \"Buyer-Seller.sol\":392:417  uint256 public orderCount */\n    tag_20:\n      sload(0x03)\n      dup2\n      jump\t// out\n        /* \"Buyer-Seller.sol\":97:117  address public buyer */\n    tag_24:\n      0x00\n      dup1\n      sload\n      swap1\n      0x0100\n      exp\n      swap1\n      div\n      0xffffffffffffffffffffffffffffffffffffffff\n      and\n      dup2\n      jump\t// out\n        /* \"Buyer-Seller.sol\":1258:1657  function placeOrder(string memory _product, uint256 _quantity) external onlyBuyer {... */\n    tag_29:\n        /* \"Buyer-Seller.sol\":643:648  buyer */\n      0x00\n      dup1\n      sload\n      swap1\n      0x0100\n      exp\n      swap1\n      div\n      0xffffffffffffffffffffffffffffffffffffffff\n      and\n        /* \"Buyer-Seller.sol\":629:648  msg.sender == buyer */\n      0xffffffffffffffffffffffffffffffffffffffff\n      and\n        /* \"Buyer-Seller.sol\":629:639  msg.sender */\n      caller\n        /* \"Buyer-Seller.sol\":629:648  msg.sender == buyer */\n      0xffffffffffffffffffffffffffffffffffffffff\n      and\n      eq\n        /* \"Buyer-Seller.sol\":621:686  require(msg.sender == buyer, \"Only buyer can call this function\") */\n      tag_60\n      jumpi\n      mload(0x40)\n      0x08c379a000000000000000000000000000000000000000000000000000000000\n      dup2\n      mstore\n      0x04\n      add\n      tag_61\n      swap1\n      tag_62\n      jump\t// in\n    tag_61:\n      mload(0x40)\n      dup1\n      swap2\n      sub\n      swap1\n      revert\n    tag_60:\n        /* \"Buyer-Seller.sol\":1351:1361  orderCount */\n      0x03\n      0x00\n        /* \"Buyer-Seller.sol\":1351:1363  orderCount++ */\n      dup2\n      sload\n      dup1\n      swap3\n      swap2\n      swap1\n      tag_64\n      swap1\n      tag_65\n      jump\t// in\n    tag_64:\n      swap2\n      swap1\n      pop\n      sstore\n      pop\n        /* \"Buyer-Seller.sol\":1374:1389  uint256 orderId */\n      0x00\n        /* \"Buyer-Seller.sol\":1392:1402  orderCount */\n      sload(0x03)\n        /* \"Buyer-Seller.sol\":1374:1402  uint256 orderId = orderCount */\n      swap1\n      pop\n        /* \"Buyer-Seller.sol\":1433:1590  Order({... */\n      mload(0x40)\n      dup1\n      0x80\n      add\n      0x40\n      mstore\n      dup1\n        /* \"Buyer-Seller.sol\":1463:1470  orderId */\n      dup3\n        /* \"Buyer-Seller.sol\":1433:1590  Order({... */\n      dup2\n      mstore\n      0x20\n      add\n        /* \"Buyer-Seller.sol\":1494:1502  _product */\n      dup5\n        /* \"Buyer-Seller.sol\":1433:1590  Order({... */\n      dup2\n      mstore\n      0x20\n      add\n        /* \"Buyer-Seller.sol\":1527:1536  _quantity */\n      dup4\n        /* \"Buyer-Seller.sol\":1433:1590  Order({... */\n      dup2\n      mstore\n      0x20\n      add\n        /* \"Buyer-Seller.sol\":1559:1578  OrderStatus.Created */\n      0x00\n        /* \"Buyer-Seller.sol\":1433:1590  Order({... */\n      0x02\n      dup2\n      gt\n      iszero\n      tag_66\n      jumpi\n      tag_67\n      tag_49\n      jump\t// in\n    tag_67:\n    tag_66:\n      dup2\n      mstore\n      pop\n        /* \"Buyer-Seller.sol\":1415:1421  orders */\n      0x02\n        /* \"Buyer-Seller.sol\":1415:1430  orders[orderId] */\n      0x00\n        /* \"Buyer-Seller.sol\":1422:1429  orderId */\n      dup4\n        /* \"Buyer-Seller.sol\":1415:1430  orders[orderId] */\n      dup2\n      mstore\n      0x20\n      add\n      swap1\n      dup2\n      mstore\n      0x20\n      add\n      0x00\n      keccak256\n        /* \"Buyer-Seller.sol\":1415:1590  orders[orderId] = Order({... */\n      0x00\n      dup3\n      add\n      mload\n      dup2\n      0x00\n      add\n      sstore\n      0x20\n      dup3\n      add\n      mload\n      dup2\n      0x01\n      add\n      swap1\n      dup2\n      tag_68\n      swap2\n      swap1\n      tag_69\n      jump\t// in\n    tag_68:\n      pop\n      0x40\n      dup3\n      add\n      mload\n      dup2\n      0x02\n      add\n      sstore\n      0x60\n      dup3\n      add\n      mload\n      dup2\n      0x03\n      add\n      exp(0x0100, 0x00)\n      dup2\n      sload\n      dup2\n      0xff\n      mul\n      not\n      and\n      swap1\n      dup4\n      0x02\n      dup2\n      gt\n      iszero\n      tag_70\n      jumpi\n      tag_71\n      tag_49\n      jump\t// in\n    tag_71:\n    tag_70:\n      mul\n      or\n      swap1\n      sstore\n      pop\n      swap1\n      pop\n      pop\n        /* \"Buyer-Seller.sol\":1608:1649  OrderPlaced(orderId, _product, _quantity) */\n      0x8b2b34c1a6cc0257df37f3e22eb86769e489dfa35b9e8173be566f447e66c00b\n        /* \"Buyer-Seller.sol\":1620:1627  orderId */\n      dup2\n        /* \"Buyer-Seller.sol\":1629:1637  _product */\n      dup5\n        /* \"Buyer-Seller.sol\":1639:1648  _quantity */\n      dup5\n        /* \"Buyer-Seller.sol\":1608:1649  OrderPlaced(orderId, _product, _quantity) */\n      mload(0x40)\n      tag_72\n      swap4\n      swap3\n      swap2\n      swap1\n      tag_73\n      jump\t// in\n    tag_72:\n      mload(0x40)\n      dup1\n      swap2\n      sub\n      swap1\n      log1\n        /* \"Buyer-Seller.sol\":1340:1657  {... */\n      pop\n        /* \"Buyer-Seller.sol\":1258:1657  function placeOrder(string memory _product, uint256 _quantity) external onlyBuyer {... */\n      pop\n      pop\n      jump\t// out\n        /* \"Buyer-Seller.sol\":346:385  mapping(uint256 => Order) public orders */\n    tag_32:\n      mstore(0x20, 0x02)\n      dup1\n      0x00\n      mstore\n      keccak256(0x00, 0x40)\n      0x00\n      swap2\n      pop\n      swap1\n      pop\n      dup1\n      0x00\n      add\n      sload\n      swap1\n      dup1\n      0x01\n      add\n      dup1\n      sload\n      tag_74\n      swap1\n      tag_75\n      jump\t// in\n    tag_74:\n      dup1\n      0x1f\n      add\n      0x20\n      dup1\n      swap2\n      div\n      mul\n      0x20\n      add\n      mload(0x40)\n      swap1\n      dup2\n      add\n      0x40\n      mstore\n      dup1\n      swap3\n      swap2\n      swap1\n      dup2\n      dup2\n      mstore\n      0x20\n      add\n      dup3\n      dup1\n      sload\n      tag_76\n      swap1\n      tag_75\n      jump\t// in\n    tag_76:\n      dup1\n      iszero\n      tag_77\n      jumpi\n      dup1\n      0x1f\n      lt\n      tag_78\n      jumpi\n      0x0100\n      dup1\n      dup4\n      sload\n      div\n      mul\n      dup4\n      mstore\n      swap2\n      0x20\n      add\n      swap2\n      jump(tag_77)\n    tag_78:\n      dup3\n      add\n      swap2\n      swap1\n      0x00\n      mstore\n      keccak256(0x00, 0x20)\n      swap1\n    tag_79:\n      dup2\n      sload\n      dup2\n      mstore\n      swap1\n      0x01\n      add\n      swap1\n      0x20\n      add\n      dup1\n      dup4\n      gt\n      tag_79\n      jumpi\n      dup3\n      swap1\n      sub\n      0x1f\n      and\n      dup3\n      add\n      swap2\n    tag_77:\n      pop\n      pop\n      pop\n      pop\n      pop\n      swap1\n      dup1\n      0x02\n      add\n      sload\n      swap1\n      dup1\n      0x03\n      add\n      0x00\n      swap1\n      sload\n      swap1\n      0x0100\n      exp\n      swap1\n      div\n      0xff\n      and\n      swap1\n      pop\n      dup5\n      jump\t// out\n        /* \"Buyer-Seller.sol\":1884:2101  function deliverOrder(uint256 _orderId) external onlyBuyer orderExists(_orderId) orderNotDelivered(_orderId) {... */\n    tag_37:\n        /* \"Buyer-Seller.sol\":643:648  buyer */\n      0x00\n      dup1\n      sload\n      swap1\n      0x0100\n      exp\n      swap1\n      div\n      0xffffffffffffffffffffffffffffffffffffffff\n      and\n        /* \"Buyer-Seller.sol\":629:648  msg.sender == buyer */\n      0xffffffffffffffffffffffffffffffffffffffff\n      and\n        /* \"Buyer-Seller.sol\":629:639  msg.sender */\n      caller\n        /* \"Buyer-Seller.sol\":629:648  msg.sender == buyer */\n      0xffffffffffffffffffffffffffffffffffffffff\n      and\n      eq\n        /* \"Buyer-Seller.sol\":621:686  require(msg.sender == buyer, \"Only buyer can call this function\") */\n      tag_81\n      jumpi\n      mload(0x40)\n      0x08c379a000000000000000000000000000000000000000000000000000000000\n      dup2\n      mstore\n      0x04\n      add\n      tag_82\n      swap1\n      tag_62\n      jump\t// in\n    tag_82:\n      mload(0x40)\n      dup1\n      swap2\n      sub\n      swap1\n      revert\n    tag_81:\n        /* \"Buyer-Seller.sol\":1955:1963  _orderId */\n      dup1\n        /* \"Buyer-Seller.sol\":928:936  _orderId */\n      dup1\n        /* \"Buyer-Seller.sol\":900:906  orders */\n      0x02\n        /* \"Buyer-Seller.sol\":900:916  orders[_orderId] */\n      0x00\n        /* \"Buyer-Seller.sol\":907:915  _orderId */\n      dup4\n        /* \"Buyer-Seller.sol\":900:916  orders[_orderId] */\n      dup2\n      mstore\n      0x20\n      add\n      swap1\n      dup2\n      mstore\n      0x20\n      add\n      0x00\n      keccak256\n        /* \"Buyer-Seller.sol\":900:924  orders[_orderId].orderId */\n      0x00\n      add\n      sload\n        /* \"Buyer-Seller.sol\":900:936  orders[_orderId].orderId == _orderId */\n      eq\n        /* \"Buyer-Seller.sol\":892:961  require(orders[_orderId].orderId == _orderId, \"Order does not exist\") */\n      tag_84\n      jumpi\n      mload(0x40)\n      0x08c379a000000000000000000000000000000000000000000000000000000000\n      dup2\n      mstore\n      0x04\n      add\n      tag_85\n      swap1\n      tag_45\n      jump\t// in\n    tag_85:\n      mload(0x40)\n      dup1\n      swap2\n      sub\n      swap1\n      revert\n    tag_84:\n        /* \"Buyer-Seller.sol\":1983:1991  _orderId */\n      dup2\n        /* \"Buyer-Seller.sol\":1080:1101  OrderStatus.Delivered */\n      0x02\n        /* \"Buyer-Seller.sol\":1053:1101  orders[_orderId].status != OrderStatus.Delivered */\n      dup1\n      dup2\n      gt\n      iszero\n      tag_87\n      jumpi\n      tag_88\n      tag_49\n      jump\t// in\n    tag_88:\n    tag_87:\n        /* \"Buyer-Seller.sol\":1053:1059  orders */\n      0x02\n        /* \"Buyer-Seller.sol\":1053:1069  orders[_orderId] */\n      0x00\n        /* \"Buyer-Seller.sol\":1060:1068  _orderId */\n      dup4\n        /* \"Buyer-Seller.sol\":1053:1069  orders[_orderId] */\n      dup2\n      mstore\n      0x20\n      add\n      swap1\n      dup2\n      mstore\n      0x20\n      add\n      0x00\n      keccak256\n        /* \"Buyer-Seller.sol\":1053:1076  orders[_orderId].status */\n      0x03\n      add\n      0x00\n      swap1\n      sload\n      swap1\n      0x0100\n      exp\n      swap1\n      div\n      0xff\n      and\n        /* \"Buyer-Seller.sol\":1053:1101  orders[_orderId].status != OrderStatus.Delivered */\n      0x02\n      dup2\n      gt\n      iszero\n      tag_89\n      jumpi\n      tag_90\n      tag_49\n      jump\t// in\n    tag_90:\n    tag_89:\n      sub\n        /* \"Buyer-Seller.sol\":1045:1129  require(orders[_orderId].status != OrderStatus.Delivered, \"Order already delivered\") */\n      tag_91\n      jumpi\n      mload(0x40)\n      0x08c379a000000000000000000000000000000000000000000000000000000000\n      dup2\n      mstore\n      0x04\n      add\n      tag_92\n      swap1\n      tag_54\n      jump\t// in\n    tag_92:\n      mload(0x40)\n      dup1\n      swap2\n      sub\n      swap1\n      revert\n    tag_91:\n        /* \"Buyer-Seller.sol\":2030:2051  OrderStatus.Delivered */\n      0x02\n        /* \"Buyer-Seller.sol\":2004:2010  orders */\n      dup1\n        /* \"Buyer-Seller.sol\":2004:2020  orders[_orderId] */\n      0x00\n        /* \"Buyer-Seller.sol\":2011:2019  _orderId */\n      dup6\n        /* \"Buyer-Seller.sol\":2004:2020  orders[_orderId] */\n      dup2\n      mstore\n      0x20\n      add\n      swap1\n      dup2\n      mstore\n      0x20\n      add\n      0x00\n      keccak256\n        /* \"Buyer-Seller.sol\":2004:2027  orders[_orderId].status */\n      0x03\n      add\n      0x00\n        /* \"Buyer-Seller.sol\":2004:2051  orders[_orderId].status = OrderStatus.Delivered */\n      0x0100\n      exp\n      dup2\n      sload\n      dup2\n      0xff\n      mul\n      not\n      and\n      swap1\n      dup4\n      0x02\n      dup2\n      gt\n      iszero\n      tag_94\n      jumpi\n      tag_95\n      tag_49\n      jump\t// in\n    tag_95:\n    tag_94:\n      mul\n      or\n      swap1\n      sstore\n      pop\n        /* \"Buyer-Seller.sol\":2069:2093  OrderDelivered(_orderId) */\n      0xe21fe02c1589242b30be2057f54fd54b7ddc463695d19ffdb54f9ebb0584f24a\n        /* \"Buyer-Seller.sol\":2084:2092  _orderId */\n      dup4\n        /* \"Buyer-Seller.sol\":2069:2093  OrderDelivered(_orderId) */\n      mload(0x40)\n      tag_96\n      swap2\n      swap1\n      tag_22\n      jump\t// in\n    tag_96:\n      mload(0x40)\n      dup1\n      swap2\n      sub\n      swap1\n      log1\n        /* \"Buyer-Seller.sol\":972:973  _ */\n      pop\n        /* \"Buyer-Seller.sol\":697:698  _ */\n      pop\n        /* \"Buyer-Seller.sol\":1884:2101  function deliverOrder(uint256 _orderId) external onlyBuyer orderExists(_orderId) orderNotDelivered(_orderId) {... */\n      pop\n      jump\t// out\n        /* \"#utility.yul\":7:133   */\n    tag_97:\n        /* \"#utility.yul\":44:51   */\n      0x00\n        /* \"#utility.yul\":84:126   */\n      0xffffffffffffffffffffffffffffffffffffffff\n        /* \"#utility.yul\":77:82   */\n      dup3\n        /* \"#utility.yul\":73:127   */\n      and\n        /* \"#utility.yul\":62:127   */\n      swap1\n      pop\n        /* \"#utility.yul\":7:133   */\n      swap2\n      swap1\n      pop\n      jump\t// out\n        /* \"#utility.yul\":139:235   */\n    tag_98:\n        /* \"#utility.yul\":176:183   */\n      0x00\n        /* \"#utility.yul\":205:229   */\n      tag_153\n        /* \"#utility.yul\":223:228   */\n      dup3\n        /* \"#utility.yul\":205:229   */\n      tag_97\n      jump\t// in\n    tag_153:\n        /* \"#utility.yul\":194:229   */\n      swap1\n      pop\n        /* \"#utility.yul\":139:235   */\n      swap2\n      swap1\n      pop\n      jump\t// out\n        /* \"#utility.yul\":241:359   */\n    tag_99:\n        /* \"#utility.yul\":328:352   */\n      tag_155\n        /* \"#utility.yul\":346:351   */\n      dup2\n        /* \"#utility.yul\":328:352   */\n      tag_98\n      jump\t// in\n    tag_155:\n        /* \"#utility.yul\":323:326   */\n      dup3\n        /* \"#utility.yul\":316:353   */\n      mstore\n        /* \"#utility.yul\":241:359   */\n      pop\n      pop\n      jump\t// out\n        /* \"#utility.yul\":365:587   */\n    tag_14:\n        /* \"#utility.yul\":458:462   */\n      0x00\n        /* \"#utility.yul\":496:498   */\n      0x20\n        /* \"#utility.yul\":485:494   */\n      dup3\n        /* \"#utility.yul\":481:499   */\n      add\n        /* \"#utility.yul\":473:499   */\n      swap1\n      pop\n        /* \"#utility.yul\":509:580   */\n      tag_157\n        /* \"#utility.yul\":577:578   */\n      0x00\n        /* \"#utility.yul\":566:575   */\n      dup4\n        /* \"#utility.yul\":562:579   */\n      add\n        /* \"#utility.yul\":553:559   */\n      dup5\n        /* \"#utility.yul\":509:580   */\n      tag_99\n      jump\t// in\n    tag_157:\n        /* \"#utility.yul\":365:587   */\n      swap3\n      swap2\n      pop\n      pop\n      jump\t// out\n        /* \"#utility.yul\":593:668   */\n    tag_100:\n        /* \"#utility.yul\":626:632   */\n      0x00\n        /* \"#utility.yul\":659:661   */\n      0x40\n        /* \"#utility.yul\":653:662   */\n      mload\n        /* \"#utility.yul\":643:662   */\n      swap1\n      pop\n        /* \"#utility.yul\":593:668   */\n      swap1\n      jump\t// out\n        /* \"#utility.yul\":674:791   */\n    tag_101:\n        /* \"#utility.yul\":783:784   */\n      0x00\n        /* \"#utility.yul\":780:781   */\n      dup1\n        /* \"#utility.yul\":773:785   */\n      revert\n        /* \"#utility.yul\":797:914   */\n    tag_102:\n        /* \"#utility.yul\":906:907   */\n      0x00\n        /* \"#utility.yul\":903:904   */\n      dup1\n        /* \"#utility.yul\":896:908   */\n      revert\n        /* \"#utility.yul\":920:997   */\n    tag_103:\n        /* \"#utility.yul\":957:964   */\n      0x00\n        /* \"#utility.yul\":986:991   */\n      dup2\n        /* \"#utility.yul\":975:991   */\n      swap1\n      pop\n        /* \"#utility.yul\":920:997   */\n      swap2\n      swap1\n      pop\n      jump\t// out\n        /* \"#utility.yul\":1003:1125   */\n    tag_104:\n        /* \"#utility.yul\":1076:1100   */\n      tag_163\n        /* \"#utility.yul\":1094:1099   */\n      dup2\n        /* \"#utility.yul\":1076:1100   */\n      tag_103\n      jump\t// in\n    tag_163:\n        /* \"#utility.yul\":1069:1074   */\n      dup2\n        /* \"#utility.yul\":1066:1101   */\n      eq\n        /* \"#utility.yul\":1056:1119   */\n      tag_164\n      jumpi\n        /* \"#utility.yul\":1115:1116   */\n      0x00\n        /* \"#utility.yul\":1112:1113   */\n      dup1\n        /* \"#utility.yul\":1105:1117   */\n      revert\n        /* \"#utility.yul\":1056:1119   */\n    tag_164:\n        /* \"#utility.yul\":1003:1125   */\n      pop\n      jump\t// out\n        /* \"#utility.yul\":1131:1270   */\n    tag_105:\n        /* \"#utility.yul\":1177:1182   */\n      0x00\n        /* \"#utility.yul\":1215:1221   */\n      dup2\n        /* \"#utility.yul\":1202:1222   */\n      calldataload\n        /* \"#utility.yul\":1193:1222   */\n      swap1\n      pop\n        /* \"#utility.yul\":1231:1264   */\n      tag_166\n        /* \"#utility.yul\":1258:1263   */\n      dup2\n        /* \"#utility.yul\":1231:1264   */\n      tag_104\n      jump\t// in\n    tag_166:\n        /* \"#utility.yul\":1131:1270   */\n      swap3\n      swap2\n      pop\n      pop\n      jump\t// out\n        /* \"#utility.yul\":1276:1605   */\n    tag_17:\n        /* \"#utility.yul\":1335:1341   */\n      0x00\n        /* \"#utility.yul\":1384:1386   */\n      0x20\n        /* \"#utility.yul\":1372:1381   */\n      dup3\n        /* \"#utility.yul\":1363:1370   */\n      dup5\n        /* \"#utility.yul\":1359:1382   */\n      sub\n        /* \"#utility.yul\":1355:1387   */\n      slt\n        /* \"#utility.yul\":1352:1471   */\n      iszero\n      tag_168\n      jumpi\n        /* \"#utility.yul\":1390:1469   */\n      tag_169\n      tag_101\n      jump\t// in\n    tag_169:\n        /* \"#utility.yul\":1352:1471   */\n    tag_168:\n        /* \"#utility.yul\":1510:1511   */\n      0x00\n        /* \"#utility.yul\":1535:1588   */\n      tag_170\n        /* \"#utility.yul\":1580:1587   */\n      dup5\n        /* \"#utility.yul\":1571:1577   */\n      dup3\n        /* \"#utility.yul\":1560:1569   */\n      dup6\n        /* \"#utility.yul\":1556:1578   */\n      add\n        /* \"#utility.yul\":1535:1588   */\n      tag_105\n      jump\t// in\n    tag_170:\n        /* \"#utility.yul\":1525:1588   */\n      swap2\n      pop\n        /* \"#utility.yul\":1481:1598   */\n      pop\n        /* \"#utility.yul\":1276:1605   */\n      swap3\n      swap2\n      pop\n      pop\n      jump\t// out\n        /* \"#utility.yul\":1611:1729   */\n    tag_106:\n        /* \"#utility.yul\":1698:1722   */\n      tag_172\n        /* \"#utility.yul\":1716:1721   */\n      dup2\n        /* \"#utility.yul\":1698:1722   */\n      tag_103\n      jump\t// in\n    tag_172:\n        /* \"#utility.yul\":1693:1696   */\n      dup3\n        /* \"#utility.yul\":1686:1723   */\n      mstore\n        /* \"#utility.yul\":1611:1729   */\n      pop\n      pop\n      jump\t// out\n        /* \"#utility.yul\":1735:1957   */\n    tag_22:\n        /* \"#utility.yul\":1828:1832   */\n      0x00\n        /* \"#utility.yul\":1866:1868   */\n      0x20\n        /* \"#utility.yul\":1855:1864   */\n      dup3\n        /* \"#utility.yul\":1851:1869   */\n      add\n        /* \"#utility.yul\":1843:1869   */\n      swap1\n      pop\n        /* \"#utility.yul\":1879:1950   */\n      tag_174\n        /* \"#utility.yul\":1947:1948   */\n      0x00\n        /* \"#utility.yul\":1936:1945   */\n      dup4\n        /* \"#utility.yul\":1932:1949   */\n      add\n        /* \"#utility.yul\":1923:1929   */\n      dup5\n        /* \"#utility.yul\":1879:1950   */\n      tag_106\n      jump\t// in\n    tag_174:\n        /* \"#utility.yul\":1735:1957   */\n      swap3\n      swap2\n      pop\n      pop\n      jump\t// out\n        /* \"#utility.yul\":1963:2080   */\n    tag_107:\n        /* \"#utility.yul\":2072:2073   */\n      0x00\n        /* \"#utility.yul\":2069:2070   */\n      dup1\n        /* \"#utility.yul\":2062:2074   */\n      revert\n        /* \"#utility.yul\":2086:2203   */\n    tag_108:\n        /* \"#utility.yul\":2195:2196   */\n      0x00\n        /* \"#utility.yul\":2192:2193   */\n      dup1\n        /* \"#utility.yul\":2185:2197   */\n      revert\n        /* \"#utility.yul\":2209:2311   */\n    tag_109:\n        /* \"#utility.yul\":2250:2256   */\n      0x00\n        /* \"#utility.yul\":2301:2303   */\n      0x1f\n        /* \"#utility.yul\":2297:2304   */\n      not\n        /* \"#utility.yul\":2292:2294   */\n      0x1f\n        /* \"#utility.yul\":2285:2290   */\n      dup4\n        /* \"#utility.yul\":2281:2295   */\n      add\n        /* \"#utility.yul\":2277:2305   */\n      and\n        /* \"#utility.yul\":2267:2305   */\n      swap1\n      pop\n        /* \"#utility.yul\":2209:2311   */\n      swap2\n      swap1\n      pop\n      jump\t// out\n        /* \"#utility.yul\":2317:2497   */\n    tag_110:\n        /* \"#utility.yul\":2365:2442   */\n      0x4e487b7100000000000000000000000000000000000000000000000000000000\n        /* \"#utility.yul\":2362:2363   */\n      0x00\n        /* \"#utility.yul\":2355:2443   */\n      mstore\n        /* \"#utility.yul\":2462:2466   */\n      0x41\n        /* \"#utility.yul\":2459:2460   */\n      0x04\n        /* \"#utility.yul\":2452:2467   */\n      mstore\n        /* \"#utility.yul\":2486:2490   */\n      0x24\n        /* \"#utility.yul\":2483:2484   */\n      0x00\n        /* \"#utility.yul\":2476:2491   */\n      revert\n        /* \"#utility.yul\":2503:2784   */\n    tag_111:\n        /* \"#utility.yul\":2586:2613   */\n      tag_180\n        /* \"#utility.yul\":2608:2612   */\n      dup3\n        /* \"#utility.yul\":2586:2613   */\n      tag_109\n      jump\t// in\n    tag_180:\n        /* \"#utility.yul\":2578:2584   */\n      dup2\n        /* \"#utility.yul\":2574:2614   */\n      add\n        /* \"#utility.yul\":2716:2722   */\n      dup2\n        /* \"#utility.yul\":2704:2714   */\n      dup2\n        /* \"#utility.yul\":2701:2723   */\n      lt\n        /* \"#utility.yul\":2680:2698   */\n      0xffffffffffffffff\n        /* \"#utility.yul\":2668:2678   */\n      dup3\n        /* \"#utility.yul\":2665:2699   */\n      gt\n        /* \"#utility.yul\":2662:2724   */\n      or\n        /* \"#utility.yul\":2659:2747   */\n      iszero\n      tag_181\n      jumpi\n        /* \"#utility.yul\":2727:2745   */\n      tag_182\n      tag_110\n      jump\t// in\n    tag_182:\n        /* \"#utility.yul\":2659:2747   */\n    tag_181:\n        /* \"#utility.yul\":2767:2777   */\n      dup1\n        /* \"#utility.yul\":2763:2765   */\n      0x40\n        /* \"#utility.yul\":2756:2778   */\n      mstore\n        /* \"#utility.yul\":2546:2784   */\n      pop\n        /* \"#utility.yul\":2503:2784   */\n      pop\n      pop\n      jump\t// out\n        /* \"#utility.yul\":2790:2919   */\n    tag_112:\n        /* \"#utility.yul\":2824:2830   */\n      0x00\n        /* \"#utility.yul\":2851:2871   */\n      tag_184\n      tag_100\n      jump\t// in\n    tag_184:\n        /* \"#utility.yul\":2841:2871   */\n      swap1\n      pop\n        /* \"#utility.yul\":2880:2913   */\n      tag_185\n        /* \"#utility.yul\":2908:2912   */\n      dup3\n        /* \"#utility.yul\":2900:2906   */\n      dup3\n        /* \"#utility.yul\":2880:2913   */\n      tag_111\n      jump\t// in\n    tag_185:\n        /* \"#utility.yul\":2790:2919   */\n      swap2\n      swap1\n      pop\n      jump\t// out\n        /* \"#utility.yul\":2925:3233   */\n    tag_113:\n        /* \"#utility.yul\":2987:2991   */\n      0x00\n        /* \"#utility.yul\":3077:3095   */\n      0xffffffffffffffff\n        /* \"#utility.yul\":3069:3075   */\n      dup3\n        /* \"#utility.yul\":3066:3096   */\n      gt\n        /* \"#utility.yul\":3063:3119   */\n      iszero\n      tag_187\n      jumpi\n        /* \"#utility.yul\":3099:3117   */\n      tag_188\n      tag_110\n      jump\t// in\n    tag_188:\n        /* \"#utility.yul\":3063:3119   */\n    tag_187:\n        /* \"#utility.yul\":3137:3166   */\n      tag_189\n        /* \"#utility.yul\":3159:3165   */\n      dup3\n        /* \"#utility.yul\":3137:3166   */\n      tag_109\n      jump\t// in\n    tag_189:\n        /* \"#utility.yul\":3129:3166   */\n      swap1\n      pop\n        /* \"#utility.yul\":3221:3225   */\n      0x20\n        /* \"#utility.yul\":3215:3219   */\n      dup2\n        /* \"#utility.yul\":3211:3226   */\n      add\n        /* \"#utility.yul\":3203:3226   */\n      swap1\n      pop\n        /* \"#utility.yul\":2925:3233   */\n      swap2\n      swap1\n      pop\n      jump\t// out\n        /* \"#utility.yul\":3239:3385   */\n    tag_114:\n        /* \"#utility.yul\":3336:3342   */\n      dup3\n        /* \"#utility.yul\":3331:3334   */\n      dup2\n        /* \"#utility.yul\":3326:3329   */\n      dup4\n        /* \"#utility.yul\":3313:3343   */\n      calldatacopy\n        /* \"#utility.yul\":3377:3378   */\n      0x00\n        /* \"#utility.yul\":3368:3374   */\n      dup4\n        /* \"#utility.yul\":3363:3366   */\n      dup4\n        /* \"#utility.yul\":3359:3375   */\n      add\n        /* \"#utility.yul\":3352:3379   */\n      mstore\n        /* \"#utility.yul\":3239:3385   */\n      pop\n      pop\n      pop\n      jump\t// out\n        /* \"#utility.yul\":3391:3816   */\n    tag_115:\n        /* \"#utility.yul\":3469:3474   */\n      0x00\n        /* \"#utility.yul\":3494:3560   */\n      tag_192\n        /* \"#utility.yul\":3510:3559   */\n      tag_193\n        /* \"#utility.yul\":3552:3558   */\n      dup5\n        /* \"#utility.yul\":3510:3559   */\n      tag_113\n      jump\t// in\n    tag_193:\n        /* \"#utility.yul\":3494:3560   */\n      tag_112\n      jump\t// in\n    tag_192:\n        /* \"#utility.yul\":3485:3560   */\n      swap1\n      pop\n        /* \"#utility.yul\":3583:3589   */\n      dup3\n        /* \"#utility.yul\":3576:3581   */\n      dup2\n        /* \"#utility.yul\":3569:3590   */\n      mstore\n        /* \"#utility.yul\":3621:3625   */\n      0x20\n        /* \"#utility.yul\":3614:3619   */\n      dup2\n        /* \"#utility.yul\":3610:3626   */\n      add\n        /* \"#utility.yul\":3659:3662   */\n      dup5\n        /* \"#utility.yul\":3650:3656   */\n      dup5\n        /* \"#utility.yul\":3645:3648   */\n      dup5\n        /* \"#utility.yul\":3641:3657   */\n      add\n        /* \"#utility.yul\":3638:3663   */\n      gt\n        /* \"#utility.yul\":3635:3747   */\n      iszero\n      tag_194\n      jumpi\n        /* \"#utility.yul\":3666:3745   */\n      tag_195\n      tag_108\n      jump\t// in\n    tag_195:\n        /* \"#utility.yul\":3635:3747   */\n    tag_194:\n        /* \"#utility.yul\":3756:3810   */\n      tag_196\n        /* \"#utility.yul\":3803:3809   */\n      dup5\n        /* \"#utility.yul\":3798:3801   */\n      dup3\n        /* \"#utility.yul\":3793:3796   */\n      dup6\n        /* \"#utility.yul\":3756:3810   */\n      tag_114\n      jump\t// in\n    tag_196:\n        /* \"#utility.yul\":3475:3816   */\n      pop\n        /* \"#utility.yul\":3391:3816   */\n      swap4\n      swap3\n      pop\n      pop\n      pop\n      jump\t// out\n        /* \"#utility.yul\":3836:4176   */\n    tag_116:\n        /* \"#utility.yul\":3892:3897   */\n      0x00\n        /* \"#utility.yul\":3941:3944   */\n      dup3\n        /* \"#utility.yul\":3934:3938   */\n      0x1f\n        /* \"#utility.yul\":3926:3932   */\n      dup4\n        /* \"#utility.yul\":3922:3939   */\n      add\n        /* \"#utility.yul\":3918:3945   */\n      slt\n        /* \"#utility.yul\":3908:4030   */\n      tag_198\n      jumpi\n        /* \"#utility.yul\":3949:4028   */\n      tag_199\n      tag_107\n      jump\t// in\n    tag_199:\n        /* \"#utility.yul\":3908:4030   */\n    tag_198:\n        /* \"#utility.yul\":4066:4072   */\n      dup2\n        /* \"#utility.yul\":4053:4073   */\n      calldataload\n        /* \"#utility.yul\":4091:4170   */\n      tag_200\n        /* \"#utility.yul\":4166:4169   */\n      dup5\n        /* \"#utility.yul\":4158:4164   */\n      dup3\n        /* \"#utility.yul\":4151:4155   */\n      0x20\n        /* \"#utility.yul\":4143:4149   */\n      dup7\n        /* \"#utility.yul\":4139:4156   */\n      add\n        /* \"#utility.yul\":4091:4170   */\n      tag_115\n      jump\t// in\n    tag_200:\n        /* \"#utility.yul\":4082:4170   */\n      swap2\n      pop\n        /* \"#utility.yul\":3898:4176   */\n      pop\n        /* \"#utility.yul\":3836:4176   */\n      swap3\n      swap2\n      pop\n      pop\n      jump\t// out\n        /* \"#utility.yul\":4182:4836   */\n    tag_28:\n        /* \"#utility.yul\":4260:4266   */\n      0x00\n        /* \"#utility.yul\":4268:4274   */\n      dup1\n        /* \"#utility.yul\":4317:4319   */\n      0x40\n        /* \"#utility.yul\":4305:4314   */\n      dup4\n        /* \"#utility.yul\":4296:4303   */\n      dup6\n        /* \"#utility.yul\":4292:4315   */\n      sub\n        /* \"#utility.yul\":4288:4320   */\n      slt\n        /* \"#utility.yul\":4285:4404   */\n      iszero\n      tag_202\n      jumpi\n        /* \"#utility.yul\":4323:4402   */\n      tag_203\n      tag_101\n      jump\t// in\n    tag_203:\n        /* \"#utility.yul\":4285:4404   */\n    tag_202:\n        /* \"#utility.yul\":4471:4472   */\n      0x00\n        /* \"#utility.yul\":4460:4469   */\n      dup4\n        /* \"#utility.yul\":4456:4473   */\n      add\n        /* \"#utility.yul\":4443:4474   */\n      calldataload\n        /* \"#utility.yul\":4501:4519   */\n      0xffffffffffffffff\n        /* \"#utility.yul\":4493:4499   */\n      dup2\n        /* \"#utility.yul\":4490:4520   */\n      gt\n        /* \"#utility.yul\":4487:4604   */\n      iszero\n      tag_204\n      jumpi\n        /* \"#utility.yul\":4523:4602   */\n      tag_205\n      tag_102\n      jump\t// in\n    tag_205:\n        /* \"#utility.yul\":4487:4604   */\n    tag_204:\n        /* \"#utility.yul\":4628:4691   */\n      tag_206\n        /* \"#utility.yul\":4683:4690   */\n      dup6\n        /* \"#utility.yul\":4674:4680   */\n      dup3\n        /* \"#utility.yul\":4663:4672   */\n      dup7\n        /* \"#utility.yul\":4659:4681   */\n      add\n        /* \"#utility.yul\":4628:4691   */\n      tag_116\n      jump\t// in\n    tag_206:\n        /* \"#utility.yul\":4618:4691   */\n      swap3\n      pop\n        /* \"#utility.yul\":4414:4701   */\n      pop\n        /* \"#utility.yul\":4740:4742   */\n      0x20\n        /* \"#utility.yul\":4766:4819   */\n      tag_207\n        /* \"#utility.yul\":4811:4818   */\n      dup6\n        /* \"#utility.yul\":4802:4808   */\n      dup3\n        /* \"#utility.yul\":4791:4800   */\n      dup7\n        /* \"#utility.yul\":4787:4809   */\n      add\n        /* \"#utility.yul\":4766:4819   */\n      tag_105\n      jump\t// in\n    tag_207:\n        /* \"#utility.yul\":4756:4819   */\n      swap2\n      pop\n        /* \"#utility.yul\":4711:4829   */\n      pop\n        /* \"#utility.yul\":4182:4836   */\n      swap3\n      pop\n      swap3\n      swap1\n      pop\n      jump\t// out\n        /* \"#utility.yul\":4842:4941   */\n    tag_117:\n        /* \"#utility.yul\":4894:4900   */\n      0x00\n        /* \"#utility.yul\":4928:4933   */\n      dup2\n        /* \"#utility.yul\":4922:4934   */\n      mload\n        /* \"#utility.yul\":4912:4934   */\n      swap1\n      pop\n        /* \"#utility.yul\":4842:4941   */\n      swap2\n      swap1\n      pop\n      jump\t// out\n        /* \"#utility.yul\":4947:5116   */\n    tag_118:\n        /* \"#utility.yul\":5031:5042   */\n      0x00\n        /* \"#utility.yul\":5065:5071   */\n      dup3\n        /* \"#utility.yul\":5060:5063   */\n      dup3\n        /* \"#utility.yul\":5053:5072   */\n      mstore\n        /* \"#utility.yul\":5105:5109   */\n      0x20\n        /* \"#utility.yul\":5100:5103   */\n      dup3\n        /* \"#utility.yul\":5096:5110   */\n      add\n        /* \"#utility.yul\":5081:5110   */\n      swap1\n      pop\n        /* \"#utility.yul\":4947:5116   */\n      swap3\n      swap2\n      pop\n      pop\n      jump\t// out\n        /* \"#utility.yul\":5122:5368   */\n    tag_119:\n        /* \"#utility.yul\":5203:5204   */\n      0x00\n        /* \"#utility.yul\":5213:5326   */\n    tag_211:\n        /* \"#utility.yul\":5227:5233   */\n      dup4\n        /* \"#utility.yul\":5224:5225   */\n      dup2\n        /* \"#utility.yul\":5221:5234   */\n      lt\n        /* \"#utility.yul\":5213:5326   */\n      iszero\n      tag_213\n      jumpi\n        /* \"#utility.yul\":5312:5313   */\n      dup1\n        /* \"#utility.yul\":5307:5310   */\n      dup3\n        /* \"#utility.yul\":5303:5314   */\n      add\n        /* \"#utility.yul\":5297:5315   */\n      mload\n        /* \"#utility.yul\":5293:5294   */\n      dup2\n        /* \"#utility.yul\":5288:5291   */\n      dup5\n        /* \"#utility.yul\":5284:5295   */\n      add\n        /* \"#utility.yul\":5277:5316   */\n      mstore\n        /* \"#utility.yul\":5249:5251   */\n      0x20\n        /* \"#utility.yul\":5246:5247   */\n      dup2\n        /* \"#utility.yul\":5242:5252   */\n      add\n        /* \"#utility.yul\":5237:5252   */\n      swap1\n      pop\n        /* \"#utility.yul\":5213:5326   */\n      jump(tag_211)\n    tag_213:\n        /* \"#utility.yul\":5360:5361   */\n      0x00\n        /* \"#utility.yul\":5351:5357   */\n      dup5\n        /* \"#utility.yul\":5346:5349   */\n      dup5\n        /* \"#utility.yul\":5342:5358   */\n      add\n        /* \"#utility.yul\":5335:5362   */\n      mstore\n        /* \"#utility.yul\":5184:5368   */\n      pop\n        /* \"#utility.yul\":5122:5368   */\n      pop\n      pop\n      pop\n      jump\t// out\n        /* \"#utility.yul\":5374:5751   */\n    tag_120:\n        /* \"#utility.yul\":5462:5465   */\n      0x00\n        /* \"#utility.yul\":5490:5529   */\n      tag_215\n        /* \"#utility.yul\":5523:5528   */\n      dup3\n        /* \"#utility.yul\":5490:5529   */\n      tag_117\n      jump\t// in\n    tag_215:\n        /* \"#utility.yul\":5545:5616   */\n      tag_216\n        /* \"#utility.yul\":5609:5615   */\n      dup2\n        /* \"#utility.yul\":5604:5607   */\n      dup6\n        /* \"#utility.yul\":5545:5616   */\n      tag_118\n      jump\t// in\n    tag_216:\n        /* \"#utility.yul\":5538:5616   */\n      swap4\n      pop\n        /* \"#utility.yul\":5625:5690   */\n      tag_217\n        /* \"#utility.yul\":5683:5689   */\n      dup2\n        /* \"#utility.yul\":5678:5681   */\n      dup6\n        /* \"#utility.yul\":5671:5675   */\n      0x20\n        /* \"#utility.yul\":5664:5669   */\n      dup7\n        /* \"#utility.yul\":5660:5676   */\n      add\n        /* \"#utility.yul\":5625:5690   */\n      tag_119\n      jump\t// in\n    tag_217:\n        /* \"#utility.yul\":5715:5744   */\n      tag_218\n        /* \"#utility.yul\":5737:5743   */\n      dup2\n        /* \"#utility.yul\":5715:5744   */\n      tag_109\n      jump\t// in\n    tag_218:\n        /* \"#utility.yul\":5710:5713   */\n      dup5\n        /* \"#utility.yul\":5706:5745   */\n      add\n        /* \"#utility.yul\":5699:5745   */\n      swap2\n      pop\n        /* \"#utility.yul\":5466:5751   */\n      pop\n        /* \"#utility.yul\":5374:5751   */\n      swap3\n      swap2\n      pop\n      pop\n      jump\t// out\n        /* \"#utility.yul\":5757:5937   */\n    tag_49:\n        /* \"#utility.yul\":5805:5882   */\n      0x4e487b7100000000000000000000000000000000000000000000000000000000\n        /* \"#utility.yul\":5802:5803   */\n      0x00\n        /* \"#utility.yul\":5795:5883   */\n      mstore\n        /* \"#utility.yul\":5902:5906   */\n      0x21\n        /* \"#utility.yul\":5899:5900   */\n      0x04\n        /* \"#utility.yul\":5892:5907   */\n      mstore\n        /* \"#utility.yul\":5926:5930   */\n      0x24\n        /* \"#utility.yul\":5923:5924   */\n      0x00\n        /* \"#utility.yul\":5916:5931   */\n      revert\n        /* \"#utility.yul\":5943:6061   */\n    tag_121:\n        /* \"#utility.yul\":6029:6030   */\n      0x03\n        /* \"#utility.yul\":6022:6027   */\n      dup2\n        /* \"#utility.yul\":6019:6031   */\n      lt\n        /* \"#utility.yul\":6009:6055   */\n      tag_221\n      jumpi\n        /* \"#utility.yul\":6035:6053   */\n      tag_222\n      tag_49\n      jump\t// in\n    tag_222:\n        /* \"#utility.yul\":6009:6055   */\n    tag_221:\n        /* \"#utility.yul\":5943:6061   */\n      pop\n      jump\t// out\n        /* \"#utility.yul\":6067:6204   */\n    tag_122:\n        /* \"#utility.yul\":6117:6124   */\n      0x00\n        /* \"#utility.yul\":6146:6151   */\n      dup2\n        /* \"#utility.yul\":6135:6151   */\n      swap1\n      pop\n        /* \"#utility.yul\":6152:6198   */\n      tag_224\n        /* \"#utility.yul\":6192:6197   */\n      dup3\n        /* \"#utility.yul\":6152:6198   */\n      tag_121\n      jump\t// in\n    tag_224:\n        /* \"#utility.yul\":6067:6204   */\n      swap2\n      swap1\n      pop\n      jump\t// out\n        /* \"#utility.yul\":6210:6347   */\n    tag_123:\n        /* \"#utility.yul\":6271:6280   */\n      0x00\n        /* \"#utility.yul\":6304:6341   */\n      tag_226\n        /* \"#utility.yul\":6335:6340   */\n      dup3\n        /* \"#utility.yul\":6304:6341   */\n      tag_122\n      jump\t// in\n    tag_226:\n        /* \"#utility.yul\":6291:6341   */\n      swap1\n      pop\n        /* \"#utility.yul\":6210:6347   */\n      swap2\n      swap1\n      pop\n      jump\t// out\n        /* \"#utility.yul\":6353:6506   */\n    tag_124:\n        /* \"#utility.yul\":6451:6499   */\n      tag_228\n        /* \"#utility.yul\":6493:6498   */\n      dup2\n        /* \"#utility.yul\":6451:6499   */\n      tag_123\n      jump\t// in\n    tag_228:\n        /* \"#utility.yul\":6446:6449   */\n      dup3\n        /* \"#utility.yul\":6439:6500   */\n      mstore\n        /* \"#utility.yul\":6353:6506   */\n      pop\n      pop\n      jump\t// out\n        /* \"#utility.yul\":6512:7178   */\n    tag_34:\n        /* \"#utility.yul\":6720:6724   */\n      0x00\n        /* \"#utility.yul\":6758:6761   */\n      0x80\n        /* \"#utility.yul\":6747:6756   */\n      dup3\n        /* \"#utility.yul\":6743:6762   */\n      add\n        /* \"#utility.yul\":6735:6762   */\n      swap1\n      pop\n        /* \"#utility.yul\":6772:6843   */\n      tag_230\n        /* \"#utility.yul\":6840:6841   */\n      0x00\n        /* \"#utility.yul\":6829:6838   */\n      dup4\n        /* \"#utility.yul\":6825:6842   */\n      add\n        /* \"#utility.yul\":6816:6822   */\n      dup8\n        /* \"#utility.yul\":6772:6843   */\n      tag_106\n      jump\t// in\n    tag_230:\n        /* \"#utility.yul\":6890:6899   */\n      dup2\n        /* \"#utility.yul\":6884:6888   */\n      dup2\n        /* \"#utility.yul\":6880:6900   */\n      sub\n        /* \"#utility.yul\":6875:6877   */\n      0x20\n        /* \"#utility.yul\":6864:6873   */\n      dup4\n        /* \"#utility.yul\":6860:6878   */\n      add\n        /* \"#utility.yul\":6853:6901   */\n      mstore\n        /* \"#utility.yul\":6918:6996   */\n      tag_231\n        /* \"#utility.yul\":6991:6995   */\n      dup2\n        /* \"#utility.yul\":6982:6988   */\n      dup7\n        /* \"#utility.yul\":6918:6996   */\n      tag_120\n      jump\t// in\n    tag_231:\n        /* \"#utility.yul\":6910:6996   */\n      swap1\n      pop\n        /* \"#utility.yul\":7006:7078   */\n      tag_232\n        /* \"#utility.yul\":7074:7076   */\n      0x40\n        /* \"#utility.yul\":7063:7072   */\n      dup4\n        /* \"#utility.yul\":7059:7077   */\n      add\n        /* \"#utility.yul\":7050:7056   */\n      dup6\n        /* \"#utility.yul\":7006:7078   */\n      tag_106\n      jump\t// in\n    tag_232:\n        /* \"#utility.yul\":7088:7171   */\n      tag_233\n        /* \"#utility.yul\":7167:7169   */\n      0x60\n        /* \"#utility.yul\":7156:7165   */\n      dup4\n        /* \"#utility.yul\":7152:7170   */\n      add\n        /* \"#utility.yul\":7143:7149   */\n      dup5\n        /* \"#utility.yul\":7088:7171   */\n      tag_124\n      jump\t// in\n    tag_233:\n        /* \"#utility.yul\":6512:7178   */\n      swap6\n      swap5\n      pop\n      pop\n      pop\n      pop\n      pop\n      jump\t// out\n        /* \"#utility.yul\":7184:7405   */\n    tag_125:\n        /* \"#utility.yul\":7324:7358   */\n      0x4f6e6c792073656c6c65722063616e2063616c6c20746869732066756e637469\n        /* \"#utility.yul\":7320:7321   */\n      0x00\n        /* \"#utility.yul\":7312:7318   */\n      dup3\n        /* \"#utility.yul\":7308:7322   */\n      add\n        /* \"#utility.yul\":7301:7359   */\n      mstore\n        /* \"#utility.yul\":7393:7397   */\n      0x6f6e000000000000000000000000000000000000000000000000000000000000\n        /* \"#utility.yul\":7388:7390   */\n      0x20\n        /* \"#utility.yul\":7380:7386   */\n      dup3\n        /* \"#utility.yul\":7376:7391   */\n      add\n        /* \"#utility.yul\":7369:7398   */\n      mstore\n        /* \"#utility.yul\":7184:7405   */\n      pop\n      jump\t// out\n        /* \"#utility.yul\":7411:7777   */\n    tag_126:\n        /* \"#utility.yul\":7553:7556   */\n      0x00\n        /* \"#utility.yul\":7574:7641   */\n      tag_236\n        /* \"#utility.yul\":7638:7640   */\n      0x22\n        /* \"#utility.yul\":7633:7636   */\n      dup4\n        /* \"#utility.yul\":7574:7641   */\n      tag_118\n      jump\t// in\n    tag_236:\n        /* \"#utility.yul\":7567:7641   */\n      swap2\n      pop\n        /* \"#utility.yul\":7650:7743   */\n      tag_237\n        /* \"#utility.yul\":7739:7742   */\n      dup3\n        /* \"#utility.yul\":7650:7743   */\n      tag_125\n      jump\t// in\n    tag_237:\n        /* \"#utility.yul\":7768:7770   */\n      0x40\n        /* \"#utility.yul\":7763:7766   */\n      dup3\n        /* \"#utility.yul\":7759:7771   */\n      add\n        /* \"#utility.yul\":7752:7771   */\n      swap1\n      pop\n        /* \"#utility.yul\":7411:7777   */\n      swap2\n      swap1\n      pop\n      jump\t// out\n        /* \"#utility.yul\":7783:8202   */\n    tag_41:\n        /* \"#utility.yul\":7949:7953   */\n      0x00\n        /* \"#utility.yul\":7987:7989   */\n      0x20\n        /* \"#utility.yul\":7976:7985   */\n      dup3\n        /* \"#utility.yul\":7972:7990   */\n      add\n        /* \"#utility.yul\":7964:7990   */\n      swap1\n      pop\n        /* \"#utility.yul\":8036:8045   */\n      dup2\n        /* \"#utility.yul\":8030:8034   */\n      dup2\n        /* \"#utility.yul\":8026:8046   */\n      sub\n        /* \"#utility.yul\":8022:8023   */\n      0x00\n        /* \"#utility.yul\":8011:8020   */\n      dup4\n        /* \"#utility.yul\":8007:8024   */\n      add\n        /* \"#utility.yul\":8000:8047   */\n      mstore\n        /* \"#utility.yul\":8064:8195   */\n      tag_239\n        /* \"#utility.yul\":8190:8194   */\n      dup2\n        /* \"#utility.yul\":8064:8195   */\n      tag_126\n      jump\t// in\n    tag_239:\n        /* \"#utility.yul\":8056:8195   */\n      swap1\n      pop\n        /* \"#utility.yul\":7783:8202   */\n      swap2\n      swap1\n      pop\n      jump\t// out\n        /* \"#utility.yul\":8208:8378   */\n    tag_127:\n        /* \"#utility.yul\":8348:8370   */\n      0x4f7264657220646f6573206e6f74206578697374000000000000000000000000\n        /* \"#utility.yul\":8344:8345   */\n      0x00\n        /* \"#utility.yul\":8336:8342   */\n      dup3\n        /* \"#utility.yul\":8332:8346   */\n      add\n        /* \"#utility.yul\":8325:8371   */\n      mstore\n        /* \"#utility.yul\":8208:8378   */\n      pop\n      jump\t// out\n        /* \"#utility.yul\":8384:8750   */\n    tag_128:\n        /* \"#utility.yul\":8526:8529   */\n      0x00\n        /* \"#utility.yul\":8547:8614   */\n      tag_242\n        /* \"#utility.yul\":8611:8613   */\n      0x14\n        /* \"#utility.yul\":8606:8609   */\n      dup4\n        /* \"#utility.yul\":8547:8614   */\n      tag_118\n      jump\t// in\n    tag_242:\n        /* \"#utility.yul\":8540:8614   */\n      swap2\n      pop\n        /* \"#utility.yul\":8623:8716   */\n      tag_243\n        /* \"#utility.yul\":8712:8715   */\n      dup3\n        /* \"#utility.yul\":8623:8716   */\n      tag_127\n      jump\t// in\n    tag_243:\n        /* \"#utility.yul\":8741:8743   */\n      0x20\n        /* \"#utility.yul\":8736:8739   */\n      dup3\n        /* \"#utility.yul\":8732:8744   */\n      add\n        /* \"#utility.yul\":8725:8744   */\n      swap1\n      pop\n        /* \"#utility.yul\":8384:8750   */\n      swap2\n      swap1\n      pop\n      jump\t// out\n        /* \"#utility.yul\":8756:9175   */\n    tag_45:\n        /* \"#utility.yul\":8922:8926   */\n      0x00\n        /* \"#utility.yul\":8960:8962   */\n      0x20\n        /* \"#utility.yul\":8949:8958   */\n      dup3\n        /* \"#utility.yul\":8945:8963   */\n      add\n        /* \"#utility.yul\":8937:8963   */\n      swap1\n      pop\n        /* \"#utility.yul\":9009:9018   */\n      dup2\n        /* \"#utility.yul\":9003:9007   */\n      dup2\n        /* \"#utility.yul\":8999:9019   */\n      sub\n        /* \"#utility.yul\":8995:8996   */\n      0x00\n        /* \"#utility.yul\":8984:8993   */\n      dup4\n        /* \"#utility.yul\":8980:8997   */\n      add\n        /* \"#utility.yul\":8973:9020   */\n      mstore\n        /* \"#utility.yul\":9037:9168   */\n      tag_245\n        /* \"#utility.yul\":9163:9167   */\n      dup2\n        /* \"#utility.yul\":9037:9168   */\n      tag_128\n      jump\t// in\n    tag_245:\n        /* \"#utility.yul\":9029:9168   */\n      swap1\n      pop\n        /* \"#utility.yul\":8756:9175   */\n      swap2\n      swap1\n      pop\n      jump\t// out\n        /* \"#utility.yul\":9181:9354   */\n    tag_129:\n        /* \"#utility.yul\":9321:9346   */\n      0x4f7264657220616c72656164792064656c697665726564000000000000000000\n        /* \"#utility.yul\":9317:9318   */\n      0x00\n        /* \"#utility.yul\":9309:9315   */\n      dup3\n        /* \"#utility.yul\":9305:9319   */\n      add\n        /* \"#utility.yul\":9298:9347   */\n      mstore\n        /* \"#utility.yul\":9181:9354   */\n      pop\n      jump\t// out\n        /* \"#utility.yul\":9360:9726   */\n    tag_130:\n        /* \"#utility.yul\":9502:9505   */\n      0x00\n        /* \"#utility.yul\":9523:9590   */\n      tag_248\n        /* \"#utility.yul\":9587:9589   */\n      0x17\n        /* \"#utility.yul\":9582:9585   */\n      dup4\n        /* \"#utility.yul\":9523:9590   */\n      tag_118\n      jump\t// in\n    tag_248:\n        /* \"#utility.yul\":9516:9590   */\n      swap2\n      pop\n        /* \"#utility.yul\":9599:9692   */\n      tag_249\n        /* \"#utility.yul\":9688:9691   */\n      dup3\n        /* \"#utility.yul\":9599:9692   */\n      tag_129\n      jump\t// in\n    tag_249:\n        /* \"#utility.yul\":9717:9719   */\n      0x20\n        /* \"#utility.yul\":9712:9715   */\n      dup3\n        /* \"#utility.yul\":9708:9720   */\n      add\n        /* \"#utility.yul\":9701:9720   */\n      swap1\n      pop\n        /* \"#utility.yul\":9360:9726   */\n      swap2\n      swap1\n      pop\n      jump\t// out\n        /* \"#utility.yul\":9732:10151   */\n    tag_54:\n        /* \"#utility.yul\":9898:9902   */\n      0x00\n        /* \"#utility.yul\":9936:9938   */\n      0x20\n        /* \"#utility.yul\":9925:9934   */\n      dup3\n        /* \"#utility.yul\":9921:9939   */\n      add\n        /* \"#utility.yul\":9913:9939   */\n      swap1\n      pop\n        /* \"#utility.yul\":9985:9994   */\n      dup2\n        /* \"#utility.yul\":9979:9983   */\n      dup2\n        /* \"#utility.yul\":9975:9995   */\n      sub\n        /* \"#utility.yul\":9971:9972   */\n      0x00\n        /* \"#utility.yul\":9960:9969   */\n      dup4\n        /* \"#utility.yul\":9956:9973   */\n      add\n        /* \"#utility.yul\":9949:9996   */\n      mstore\n        /* \"#utility.yul\":10013:10144   */\n      tag_251\n        /* \"#utility.yul\":10139:10143   */\n      dup2\n        /* \"#utility.yul\":10013:10144   */\n      tag_130\n      jump\t// in\n    tag_251:\n        /* \"#utility.yul\":10005:10144   */\n      swap1\n      pop\n        /* \"#utility.yul\":9732:10151   */\n      swap2\n      swap1\n      pop\n      jump\t// out\n        /* \"#utility.yul\":10157:10377   */\n    tag_131:\n        /* \"#utility.yul\":10297:10331   */\n      0x4f6e6c792062757965722063616e2063616c6c20746869732066756e6374696f\n        /* \"#utility.yul\":10293:10294   */\n      0x00\n        /* \"#utility.yul\":10285:10291   */\n      dup3\n        /* \"#utility.yul\":10281:10295   */\n      add\n        /* \"#utility.yul\":10274:10332   */\n      mstore\n        /* \"#utility.yul\":10366:10369   */\n      0x6e00000000000000000000000000000000000000000000000000000000000000\n        /* \"#utility.yul\":10361:10363   */\n      0x20\n        /* \"#utility.yul\":10353:10359   */\n      dup3\n        /* \"#utility.yul\":10349:10364   */\n      add\n        /* \"#utility.yul\":10342:10370   */\n      mstore\n        /* \"#utility.yul\":10157:10377   */\n      pop\n      jump\t// out\n        /* \"#utility.yul\":10383:10749   */\n    tag_132:\n        /* \"#utility.yul\":10525:10528   */\n      0x00\n        /* \"#utility.yul\":10546:10613   */\n      tag_254\n        /* \"#utility.yul\":10610:10612   */\n      0x21\n        /* \"#utility.yul\":10605:10608   */\n      dup4\n        /* \"#utility.yul\":10546:10613   */\n      tag_118\n      jump\t// in\n    tag_254:\n        /* \"#utility.yul\":10539:10613   */\n      swap2\n      pop\n        /* \"#utility.yul\":10622:10715   */\n      tag_255\n        /* \"#utility.yul\":10711:10714   */\n      dup3\n        /* \"#utility.yul\":10622:10715   */\n      tag_131\n      jump\t// in\n    tag_255:\n        /* \"#utility.yul\":10740:10742   */\n      0x40\n        /* \"#utility.yul\":10735:10738   */\n      dup3\n        /* \"#utility.yul\":10731:10743   */\n      add\n        /* \"#utility.yul\":10724:10743   */\n      swap1\n      pop\n        /* \"#utility.yul\":10383:10749   */\n      swap2\n      swap1\n      pop\n      jump\t// out\n        /* \"#utility.yul\":10755:11174   */\n    tag_62:\n        /* \"#utility.yul\":10921:10925   */\n      0x00\n        /* \"#utility.yul\":10959:10961   */\n      0x20\n        /* \"#utility.yul\":10948:10957   */\n      dup3\n        /* \"#utility.yul\":10944:10962   */\n      add\n        /* \"#utility.yul\":10936:10962   */\n      swap1\n      pop\n        /* \"#utility.yul\":11008:11017   */\n      dup2\n        /* \"#utility.yul\":11002:11006   */\n      dup2\n        /* \"#utility.yul\":10998:11018   */\n      sub\n        /* \"#utility.yul\":10994:10995   */\n      0x00\n        /* \"#utility.yul\":10983:10992   */\n      dup4\n        /* \"#utility.yul\":10979:10996   */\n      add\n        /* \"#utility.yul\":10972:11019   */\n      mstore\n        /* \"#utility.yul\":11036:11167   */\n      tag_257\n        /* \"#utility.yul\":11162:11166   */\n      dup2\n        /* \"#utility.yul\":11036:11167   */\n      tag_132\n      jump\t// in\n    tag_257:\n        /* \"#utility.yul\":11028:11167   */\n      swap1\n      pop\n        /* \"#utility.yul\":10755:11174   */\n      swap2\n      swap1\n      pop\n      jump\t// out\n        /* \"#utility.yul\":11180:11360   */\n    tag_133:\n        /* \"#utility.yul\":11228:11305   */\n      0x4e487b7100000000000000000000000000000000000000000000000000000000\n        /* \"#utility.yul\":11225:11226   */\n      0x00\n        /* \"#utility.yul\":11218:11306   */\n      mstore\n        /* \"#utility.yul\":11325:11329   */\n      0x11\n        /* \"#utility.yul\":11322:11323   */\n      0x04\n        /* \"#utility.yul\":11315:11330   */\n      mstore\n        /* \"#utility.yul\":11349:11353   */\n      0x24\n        /* \"#utility.yul\":11346:11347   */\n      0x00\n        /* \"#utility.yul\":11339:11354   */\n      revert\n        /* \"#utility.yul\":11366:11599   */\n    tag_65:\n        /* \"#utility.yul\":11405:11408   */\n      0x00\n        /* \"#utility.yul\":11428:11452   */\n      tag_260\n        /* \"#utility.yul\":11446:11451   */\n      dup3\n        /* \"#utility.yul\":11428:11452   */\n      tag_103\n      jump\t// in\n    tag_260:\n        /* \"#utility.yul\":11419:11452   */\n      swap2\n      pop\n        /* \"#utility.yul\":11474:11540   */\n      0xffffffffffffffffffffffffffffffffffffffffffffffffffffffffffffffff\n        /* \"#utility.yul\":11467:11472   */\n      dup3\n        /* \"#utility.yul\":11464:11541   */\n      sub\n        /* \"#utility.yul\":11461:11564   */\n      tag_261\n      jumpi\n        /* \"#utility.yul\":11544:11562   */\n      tag_262\n      tag_133\n      jump\t// in\n    tag_262:\n        /* \"#utility.yul\":11461:11564   */\n    tag_261:\n        /* \"#utility.yul\":11591:11592   */\n      0x01\n        /* \"#utility.yul\":11584:11589   */\n      dup3\n        /* \"#utility.yul\":11580:11593   */\n      add\n        /* \"#utility.yul\":11573:11593   */\n      swap1\n      pop\n        /* \"#utility.yul\":11366:11599   */\n      swap2\n      swap1\n      pop\n      jump\t// out\n        /* \"#utility.yul\":11605:11785   */\n    tag_134:\n        /* \"#utility.yul\":11653:11730   */\n      0x4e487b7100000000000000000000000000000000000000000000000000000000\n        /* \"#utility.yul\":11650:11651   */\n      0x00\n        /* \"#utility.yul\":11643:11731   */\n      mstore\n        /* \"#utility.yul\":11750:11754   */\n      0x22\n        /* \"#utility.yul\":11747:11748   */\n      0x04\n        /* \"#utility.yul\":11740:11755   */\n      mstore\n        /* \"#utility.yul\":11774:11778   */\n      0x24\n        /* \"#utility.yul\":11771:11772   */\n      0x00\n        /* \"#utility.yul\":11764:11779   */\n      revert\n        /* \"#utility.yul\":11791:12111   */\n    tag_75:\n        /* \"#utility.yul\":11835:11841   */\n      0x00\n        /* \"#utility.yul\":11872:11873   */\n      0x02\n        /* \"#utility.yul\":11866:11870   */\n      dup3\n        /* \"#utility.yul\":11862:11874   */\n      div\n        /* \"#utility.yul\":11852:11874   */\n      swap1\n      pop\n        /* \"#utility.yul\":11919:11920   */\n      0x01\n        /* \"#utility.yul\":11913:11917   */\n      dup3\n        /* \"#utility.yul\":11909:11921   */\n      and\n        /* \"#utility.yul\":11940:11958   */\n      dup1\n        /* \"#utility.yul\":11930:12011   */\n      tag_265\n      jumpi\n        /* \"#utility.yul\":11996:12000   */\n      0x7f\n        /* \"#utility.yul\":11988:11994   */\n      dup3\n        /* \"#utility.yul\":11984:12001   */\n      and\n        /* \"#utility.yul\":11974:12001   */\n      swap2\n      pop\n        /* \"#utility.yul\":11930:12011   */\n    tag_265:\n        /* \"#utility.yul\":12058:12060   */\n      0x20\n        /* \"#utility.yul\":12050:12056   */\n      dup3\n        /* \"#utility.yul\":12047:12061   */\n      lt\n        /* \"#utility.yul\":12027:12045   */\n      dup2\n        /* \"#utility.yul\":12024:12062   */\n      sub\n        /* \"#utility.yul\":12021:12105   */\n      tag_266\n      jumpi\n        /* \"#utility.yul\":12077:12095   */\n      tag_267\n      tag_134\n      jump\t// in\n    tag_267:\n        /* \"#utility.yul\":12021:12105   */\n    tag_266:\n        /* \"#utility.yul\":11842:12111   */\n      pop\n        /* \"#utility.yul\":11791:12111   */\n      swap2\n      swap1\n      pop\n      jump\t// out\n        /* \"#utility.yul\":12117:12258   */\n    tag_135:\n        /* \"#utility.yul\":12166:12170   */\n      0x00\n        /* \"#utility.yul\":12189:12192   */\n      dup2\n        /* \"#utility.yul\":12181:12192   */\n      swap1\n      pop\n        /* \"#utility.yul\":12212:12215   */\n      dup2\n        /* \"#utility.yul\":12209:12210   */\n      0x00\n        /* \"#utility.yul\":12202:12216   */\n      mstore\n        /* \"#utility.yul\":12246:12250   */\n      0x20\n        /* \"#utility.yul\":12243:12244   */\n      0x00\n        /* \"#utility.yul\":12233:12251   */\n      keccak256\n        /* \"#utility.yul\":12225:12251   */\n      swap1\n      pop\n        /* \"#utility.yul\":12117:12258   */\n      swap2\n      swap1\n      pop\n      jump\t// out\n        /* \"#utility.yul\":12264:12357   */\n    tag_136:\n        /* \"#utility.yul\":12301:12307   */\n      0x00\n        /* \"#utility.yul\":12348:12350   */\n      0x20\n        /* \"#utility.yul\":12343:12345   */\n      0x1f\n        /* \"#utility.yul\":12336:12341   */\n      dup4\n        /* \"#utility.yul\":12332:12346   */\n      add\n        /* \"#utility.yul\":12328:12351   */\n      div\n        /* \"#utility.yul\":12318:12351   */\n      swap1\n      pop\n        /* \"#utility.yul\":12264:12357   */\n      swap2\n      swap1\n      pop\n      jump\t// out\n        /* \"#utility.yul\":12363:12470   */\n    tag_137:\n        /* \"#utility.yul\":12407:12415   */\n      0x00\n        /* \"#utility.yul\":12457:12462   */\n      dup3\n        /* \"#utility.yul\":12451:12455   */\n      dup3\n        /* \"#utility.yul\":12447:12463   */\n      shl\n        /* \"#utility.yul\":12426:12463   */\n      swap1\n      pop\n        /* \"#utility.yul\":12363:12470   */\n      swap3\n      swap2\n      pop\n      pop\n      jump\t// out\n        /* \"#utility.yul\":12476:12869   */\n    tag_138:\n        /* \"#utility.yul\":12545:12551   */\n      0x00\n        /* \"#utility.yul\":12595:12596   */\n      0x08\n        /* \"#utility.yul\":12583:12593   */\n      dup4\n        /* \"#utility.yul\":12579:12597   */\n      mul\n        /* \"#utility.yul\":12618:12715   */\n      tag_272\n        /* \"#utility.yul\":12648:12714   */\n      0xffffffffffffffffffffffffffffffffffffffffffffffffffffffffffffffff\n        /* \"#utility.yul\":12637:12646   */\n      dup3\n        /* \"#utility.yul\":12618:12715   */\n      tag_137\n      jump\t// in\n    tag_272:\n        /* \"#utility.yul\":12736:12775   */\n      tag_273\n        /* \"#utility.yul\":12766:12774   */\n      dup7\n        /* \"#utility.yul\":12755:12764   */\n      dup4\n        /* \"#utility.yul\":12736:12775   */\n      tag_137\n      jump\t// in\n    tag_273:\n        /* \"#utility.yul\":12724:12775   */\n      swap6\n      pop\n        /* \"#utility.yul\":12808:12812   */\n      dup1\n        /* \"#utility.yul\":12804:12813   */\n      not\n        /* \"#utility.yul\":12797:12802   */\n      dup5\n        /* \"#utility.yul\":12793:12814   */\n      and\n        /* \"#utility.yul\":12784:12814   */\n      swap4\n      pop\n        /* \"#utility.yul\":12857:12861   */\n      dup1\n        /* \"#utility.yul\":12847:12855   */\n      dup7\n        /* \"#utility.yul\":12843:12862   */\n      and\n        /* \"#utility.yul\":12836:12841   */\n      dup5\n        /* \"#utility.yul\":12833:12863   */\n      or\n        /* \"#utility.yul\":12823:12863   */\n      swap3\n      pop\n        /* \"#utility.yul\":12552:12869   */\n      pop\n      pop\n        /* \"#utility.yul\":12476:12869   */\n      swap4\n      swap3\n      pop\n      pop\n      pop\n      jump\t// out\n        /* \"#utility.yul\":12875:12935   */\n    tag_139:\n        /* \"#utility.yul\":12903:12906   */\n      0x00\n        /* \"#utility.yul\":12924:12929   */\n      dup2\n        /* \"#utility.yul\":12917:12929   */\n      swap1\n      pop\n        /* \"#utility.yul\":12875:12935   */\n      swap2\n      swap1\n      pop\n      jump\t// out\n        /* \"#utility.yul\":12941:13083   */\n    tag_140:\n        /* \"#utility.yul\":12991:13000   */\n      0x00\n        /* \"#utility.yul\":13024:13077   */\n      tag_276\n        /* \"#utility.yul\":13042:13076   */\n      tag_277\n        /* \"#utility.yul\":13051:13075   */\n      tag_278\n        /* \"#utility.yul\":13069:13074   */\n      dup5\n        /* \"#utility.yul\":13051:13075   */\n      tag_103\n      jump\t// in\n    tag_278:\n        /* \"#utility.yul\":13042:13076   */\n      tag_139\n      jump\t// in\n    tag_277:\n        /* \"#utility.yul\":13024:13077   */\n      tag_103\n      jump\t// in\n    tag_276:\n        /* \"#utility.yul\":13011:13077   */\n      swap1\n      pop\n        /* \"#utility.yul\":12941:13083   */\n      swap2\n      swap1\n      pop\n      jump\t// out\n        /* \"#utility.yul\":13089:13164   */\n    tag_141:\n        /* \"#utility.yul\":13132:13135   */\n      0x00\n        /* \"#utility.yul\":13153:13158   */\n      dup2\n        /* \"#utility.yul\":13146:13158   */\n      swap1\n      pop\n        /* \"#utility.yul\":13089:13164   */\n      swap2\n      swap1\n      pop\n      jump\t// out\n        /* \"#utility.yul\":13170:13439   */\n    tag_142:\n        /* \"#utility.yul\":13280:13319   */\n      tag_281\n        /* \"#utility.yul\":13311:13318   */\n      dup4\n        /* \"#utility.yul\":13280:13319   */\n      tag_140\n      jump\t// in\n    tag_281:\n        /* \"#utility.yul\":13341:13432   */\n      tag_282\n        /* \"#utility.yul\":13390:13431   */\n      tag_283\n        /* \"#utility.yul\":13414:13430   */\n      dup3\n        /* \"#utility.yul\":13390:13431   */\n      tag_141\n      jump\t// in\n    tag_283:\n        /* \"#utility.yul\":13382:13388   */\n      dup5\n        /* \"#utility.yul\":13375:13379   */\n      dup5\n        /* \"#utility.yul\":13369:13380   */\n      sload\n        /* \"#utility.yul\":13341:13432   */\n      tag_138\n      jump\t// in\n    tag_282:\n        /* \"#utility.yul\":13335:13339   */\n      dup3\n        /* \"#utility.yul\":13328:13433   */\n      sstore\n        /* \"#utility.yul\":13246:13439   */\n      pop\n        /* \"#utility.yul\":13170:13439   */\n      pop\n      pop\n      pop\n      jump\t// out\n        /* \"#utility.yul\":13445:13518   */\n    tag_143:\n        /* \"#utility.yul\":13490:13493   */\n      0x00\n        /* \"#utility.yul\":13445:13518   */\n      swap1\n      jump\t// out\n        /* \"#utility.yul\":13524:13713   */\n    tag_144:\n        /* \"#utility.yul\":13601:13633   */\n      tag_286\n      tag_143\n      jump\t// in\n    tag_286:\n        /* \"#utility.yul\":13642:13707   */\n      tag_287\n        /* \"#utility.yul\":13700:13706   */\n      dup2\n        /* \"#utility.yul\":13692:13698   */\n      dup5\n        /* \"#utility.yul\":13686:13690   */\n      dup5\n        /* \"#utility.yul\":13642:13707   */\n      tag_142\n      jump\t// in\n    tag_287:\n        /* \"#utility.yul\":13577:13713   */\n      pop\n        /* \"#utility.yul\":13524:13713   */\n      pop\n      pop\n      jump\t// out\n        /* \"#utility.yul\":13719:13905   */\n    tag_145:\n        /* \"#utility.yul\":13779:13899   */\n    tag_289:\n        /* \"#utility.yul\":13796:13799   */\n      dup2\n        /* \"#utility.yul\":13789:13794   */\n      dup2\n        /* \"#utility.yul\":13786:13800   */\n      lt\n        /* \"#utility.yul\":13779:13899   */\n      iszero\n      tag_291\n      jumpi\n        /* \"#utility.yul\":13850:13889   */\n      tag_292\n        /* \"#utility.yul\":13887:13888   */\n      0x00\n        /* \"#utility.yul\":13880:13885   */\n      dup3\n        /* \"#utility.yul\":13850:13889   */\n      tag_144\n      jump\t// in\n    tag_292:\n        /* \"#utility.yul\":13823:13824   */\n      0x01\n        /* \"#utility.yul\":13816:13821   */\n      dup2\n        /* \"#utility.yul\":13812:13825   */\n      add\n        /* \"#utility.yul\":13803:13825   */\n      swap1\n      pop\n        /* \"#utility.yul\":13779:13899   */\n      jump(tag_289)\n    tag_291:\n        /* \"#utility.yul\":13719:13905   */\n      pop\n      pop\n      jump\t// out\n        /* \"#utility.yul\":13911:14454   */\n    tag_146:\n        /* \"#utility.yul\":14012:14014   */\n      0x1f\n        /* \"#utility.yul\":14007:14010   */\n      dup3\n        /* \"#utility.yul\":14004:14015   */\n      gt\n        /* \"#utility.yul\":14001:14447   */\n      iszero\n      tag_294\n      jumpi\n        /* \"#utility.yul\":14046:14084   */\n      tag_295\n        /* \"#utility.yul\":14078:14083   */\n      dup2\n        /* \"#utility.yul\":14046:14084   */\n      tag_135\n      jump\t// in\n    tag_295:\n        /* \"#utility.yul\":14130:14159   */\n      tag_296\n        /* \"#utility.yul\":14148:14158   */\n      dup5\n        /* \"#utility.yul\":14130:14159   */\n      tag_136\n      jump\t// in\n    tag_296:\n        /* \"#utility.yul\":14120:14128   */\n      dup2\n        /* \"#utility.yul\":14116:14160   */\n      add\n        /* \"#utility.yul\":14313:14315   */\n      0x20\n        /* \"#utility.yul\":14301:14311   */\n      dup6\n        /* \"#utility.yul\":14298:14316   */\n      lt\n        /* \"#utility.yul\":14295:14344   */\n      iszero\n      tag_297\n      jumpi\n        /* \"#utility.yul\":14334:14342   */\n      dup2\n        /* \"#utility.yul\":14319:14342   */\n      swap1\n      pop\n        /* \"#utility.yul\":14295:14344   */\n    tag_297:\n        /* \"#utility.yul\":14357:14437   */\n      tag_298\n        /* \"#utility.yul\":14413:14435   */\n      tag_299\n        /* \"#utility.yul\":14431:14434   */\n      dup6\n        /* \"#utility.yul\":14413:14435   */\n      tag_136\n      jump\t// in\n    tag_299:\n        /* \"#utility.yul\":14403:14411   */\n      dup4\n        /* \"#utility.yul\":14399:14436   */\n      add\n        /* \"#utility.yul\":14386:14397   */\n      dup3\n        /* \"#utility.yul\":14357:14437   */\n      tag_145\n      jump\t// in\n    tag_298:\n        /* \"#utility.yul\":14016:14447   */\n      pop\n      pop\n        /* \"#utility.yul\":14001:14447   */\n    tag_294:\n        /* \"#utility.yul\":13911:14454   */\n      pop\n      pop\n      pop\n      jump\t// out\n        /* \"#utility.yul\":14460:14577   */\n    tag_147:\n        /* \"#utility.yul\":14514:14522   */\n      0x00\n        /* \"#utility.yul\":14564:14569   */\n      dup3\n        /* \"#utility.yul\":14558:14562   */\n      dup3\n        /* \"#utility.yul\":14554:14570   */\n      shr\n        /* \"#utility.yul\":14533:14570   */\n      swap1\n      pop\n        /* \"#utility.yul\":14460:14577   */\n      swap3\n      swap2\n      pop\n      pop\n      jump\t// out\n        /* \"#utility.yul\":14583:14752   */\n    tag_148:\n        /* \"#utility.yul\":14627:14633   */\n      0x00\n        /* \"#utility.yul\":14660:14711   */\n      tag_302\n        /* \"#utility.yul\":14708:14709   */\n      0x00\n        /* \"#utility.yul\":14704:14710   */\n      not\n        /* \"#utility.yul\":14696:14701   */\n      dup5\n        /* \"#utility.yul\":14693:14694   */\n      0x08\n        /* \"#utility.yul\":14689:14702   */\n      mul\n        /* \"#utility.yul\":14660:14711   */\n      tag_147\n      jump\t// in\n    tag_302:\n        /* \"#utility.yul\":14656:14712   */\n      not\n        /* \"#utility.yul\":14741:14745   */\n      dup1\n        /* \"#utility.yul\":14735:14739   */\n      dup4\n        /* \"#utility.yul\":14731:14746   */\n      and\n        /* \"#utility.yul\":14721:14746   */\n      swap2\n      pop\n        /* \"#utility.yul\":14634:14752   */\n      pop\n        /* \"#utility.yul\":14583:14752   */\n      swap3\n      swap2\n      pop\n      pop\n      jump\t// out\n        /* \"#utility.yul\":14757:15052   */\n    tag_149:\n        /* \"#utility.yul\":14833:14837   */\n      0x00\n        /* \"#utility.yul\":14979:15008   */\n      tag_304\n        /* \"#utility.yul\":15004:15007   */\n      dup4\n        /* \"#utility.yul\":14998:15002   */\n      dup4\n        /* \"#utility.yul\":14979:15008   */\n      tag_148\n      jump\t// in\n    tag_304:\n        /* \"#utility.yul\":14971:15008   */\n      swap2\n      pop\n        /* \"#utility.yul\":15041:15044   */\n      dup3\n        /* \"#utility.yul\":15038:15039   */\n      0x02\n        /* \"#utility.yul\":15034:15045   */\n      mul\n        /* \"#utility.yul\":15028:15032   */\n      dup3\n        /* \"#utility.yul\":15025:15046   */\n      or\n        /* \"#utility.yul\":15017:15046   */\n      swap1\n      pop\n        /* \"#utility.yul\":14757:15052   */\n      swap3\n      swap2\n      pop\n      pop\n      jump\t// out\n        /* \"#utility.yul\":15057:16452   */\n    tag_69:\n        /* \"#utility.yul\":15174:15211   */\n      tag_306\n        /* \"#utility.yul\":15207:15210   */\n      dup3\n        /* \"#utility.yul\":15174:15211   */\n      tag_117\n      jump\t// in\n    tag_306:\n        /* \"#utility.yul\":15276:15294   */\n      0xffffffffffffffff\n        /* \"#utility.yul\":15268:15274   */\n      dup2\n        /* \"#utility.yul\":15265:15295   */\n      gt\n        /* \"#utility.yul\":15262:15318   */\n      iszero\n      tag_307\n      jumpi\n        /* \"#utility.yul\":15298:15316   */\n      tag_308\n      tag_110\n      jump\t// in\n    tag_308:\n        /* \"#utility.yul\":15262:15318   */\n    tag_307:\n        /* \"#utility.yul\":15342:15380   */\n      tag_309\n        /* \"#utility.yul\":15374:15378   */\n      dup3\n        /* \"#utility.yul\":15368:15379   */\n      sload\n        /* \"#utility.yul\":15342:15380   */\n      tag_75\n      jump\t// in\n    tag_309:\n        /* \"#utility.yul\":15427:15494   */\n      tag_310\n        /* \"#utility.yul\":15487:15493   */\n      dup3\n        /* \"#utility.yul\":15479:15485   */\n      dup3\n        /* \"#utility.yul\":15473:15477   */\n      dup6\n        /* \"#utility.yul\":15427:15494   */\n      tag_146\n      jump\t// in\n    tag_310:\n        /* \"#utility.yul\":15521:15522   */\n      0x00\n        /* \"#utility.yul\":15545:15549   */\n      0x20\n        /* \"#utility.yul\":15532:15549   */\n      swap1\n      pop\n        /* \"#utility.yul\":15577:15579   */\n      0x1f\n        /* \"#utility.yul\":15569:15575   */\n      dup4\n        /* \"#utility.yul\":15566:15580   */\n      gt\n        /* \"#utility.yul\":15594:15595   */\n      0x01\n        /* \"#utility.yul\":15589:16207   */\n      dup2\n      eq\n      tag_312\n      jumpi\n        /* \"#utility.yul\":16251:16252   */\n      0x00\n        /* \"#utility.yul\":16268:16274   */\n      dup5\n        /* \"#utility.yul\":16265:16342   */\n      iszero\n      tag_313\n      jumpi\n        /* \"#utility.yul\":16317:16326   */\n      dup3\n        /* \"#utility.yul\":16312:16315   */\n      dup8\n        /* \"#utility.yul\":16308:16327   */\n      add\n        /* \"#utility.yul\":16302:16328   */\n      mload\n        /* \"#utility.yul\":16293:16328   */\n      swap1\n      pop\n        /* \"#utility.yul\":16265:16342   */\n    tag_313:\n        /* \"#utility.yul\":16368:16435   */\n      tag_314\n        /* \"#utility.yul\":16428:16434   */\n      dup6\n        /* \"#utility.yul\":16421:16426   */\n      dup3\n        /* \"#utility.yul\":16368:16435   */\n      tag_149\n      jump\t// in\n    tag_314:\n        /* \"#utility.yul\":16362:16366   */\n      dup7\n        /* \"#utility.yul\":16355:16436   */\n      sstore\n        /* \"#utility.yul\":16224:16446   */\n      pop\n        /* \"#utility.yul\":15559:16446   */\n      jump(tag_311)\n        /* \"#utility.yul\":15589:16207   */\n    tag_312:\n        /* \"#utility.yul\":15641:15645   */\n      0x1f\n        /* \"#utility.yul\":15637:15646   */\n      not\n        /* \"#utility.yul\":15629:15635   */\n      dup5\n        /* \"#utility.yul\":15625:15647   */\n      and\n        /* \"#utility.yul\":15675:15712   */\n      tag_315\n        /* \"#utility.yul\":15707:15711   */\n      dup7\n        /* \"#utility.yul\":15675:15712   */\n      tag_135\n      jump\t// in\n    tag_315:\n        /* \"#utility.yul\":15734:15735   */\n      0x00\n        /* \"#utility.yul\":15748:15956   */\n    tag_316:\n        /* \"#utility.yul\":15762:15769   */\n      dup3\n        /* \"#utility.yul\":15759:15760   */\n      dup2\n        /* \"#utility.yul\":15756:15770   */\n      lt\n        /* \"#utility.yul\":15748:15956   */\n      iszero\n      tag_318\n      jumpi\n        /* \"#utility.yul\":15841:15850   */\n      dup5\n        /* \"#utility.yul\":15836:15839   */\n      dup10\n        /* \"#utility.yul\":15832:15851   */\n      add\n        /* \"#utility.yul\":15826:15852   */\n      mload\n        /* \"#utility.yul\":15818:15824   */\n      dup3\n        /* \"#utility.yul\":15811:15853   */\n      sstore\n        /* \"#utility.yul\":15892:15893   */\n      0x01\n        /* \"#utility.yul\":15884:15890   */\n      dup3\n        /* \"#utility.yul\":15880:15894   */\n      add\n        /* \"#utility.yul\":15870:15894   */\n      swap2\n      pop\n        /* \"#utility.yul\":15939:15941   */\n      0x20\n        /* \"#utility.yul\":15928:15937   */\n      dup6\n        /* \"#utility.yul\":15924:15942   */\n      add\n        /* \"#utility.yul\":15911:15942   */\n      swap5\n      pop\n        /* \"#utility.yul\":15785:15789   */\n      0x20\n        /* \"#utility.yul\":15782:15783   */\n      dup2\n        /* \"#utility.yul\":15778:15790   */\n      add\n        /* \"#utility.yul\":15773:15790   */\n      swap1\n      pop\n        /* \"#utility.yul\":15748:15956   */\n      jump(tag_316)\n    tag_318:\n        /* \"#utility.yul\":15984:15990   */\n      dup7\n        /* \"#utility.yul\":15975:15982   */\n      dup4\n        /* \"#utility.yul\":15972:15991   */\n      lt\n        /* \"#utility.yul\":15969:16148   */\n      iszero\n      tag_319\n      jumpi\n        /* \"#utility.yul\":16042:16051   */\n      dup5\n        /* \"#utility.yul\":16037:16040   */\n      dup10\n        /* \"#utility.yul\":16033:16052   */\n      add\n        /* \"#utility.yul\":16027:16053   */\n      mload\n        /* \"#utility.yul\":16085:16133   */\n      tag_320\n        /* \"#utility.yul\":16127:16131   */\n      0x1f\n        /* \"#utility.yul\":16119:16125   */\n      dup10\n        /* \"#utility.yul\":16115:16132   */\n      and\n        /* \"#utility.yul\":16104:16113   */\n      dup3\n        /* \"#utility.yul\":16085:16133   */\n      tag_148\n      jump\t// in\n    tag_320:\n        /* \"#utility.yul\":16077:16083   */\n      dup4\n        /* \"#utility.yul\":16070:16134   */\n      sstore\n        /* \"#utility.yul\":15992:16148   */\n      pop\n        /* \"#utility.yul\":15969:16148   */\n    tag_319:\n        /* \"#utility.yul\":16194:16195   */\n      0x01\n        /* \"#utility.yul\":16190:16191   */\n      0x02\n        /* \"#utility.yul\":16182:16188   */\n      dup9\n        /* \"#utility.yul\":16178:16192   */\n      mul\n        /* \"#utility.yul\":16174:16196   */\n      add\n        /* \"#utility.yul\":16168:16172   */\n      dup9\n        /* \"#utility.yul\":16161:16197   */\n      sstore\n        /* \"#utility.yul\":15596:16207   */\n      pop\n      pop\n      pop\n        /* \"#utility.yul\":15559:16446   */\n    tag_311:\n      pop\n        /* \"#utility.yul\":15149:16452   */\n      pop\n      pop\n      pop\n        /* \"#utility.yul\":15057:16452   */\n      pop\n      pop\n      jump\t// out\n        /* \"#utility.yul\":16458:16991   */\n    tag_73:\n        /* \"#utility.yul\":16627:16631   */\n      0x00\n        /* \"#utility.yul\":16665:16667   */\n      0x60\n        /* \"#utility.yul\":16654:16663   */\n      dup3\n        /* \"#utility.yul\":16650:16668   */\n      add\n        /* \"#utility.yul\":16642:16668   */\n      swap1\n      pop\n        /* \"#utility.yul\":16678:16749   */\n      tag_322\n        /* \"#utility.yul\":16746:16747   */\n      0x00\n        /* \"#utility.yul\":16735:16744   */\n      dup4\n        /* \"#utility.yul\":16731:16748   */\n      add\n        /* \"#utility.yul\":16722:16728   */\n      dup7\n        /* \"#utility.yul\":16678:16749   */\n      tag_106\n      jump\t// in\n    tag_322:\n        /* \"#utility.yul\":16796:16805   */\n      dup2\n        /* \"#utility.yul\":16790:16794   */\n      dup2\n        /* \"#utility.yul\":16786:16806   */\n      sub\n        /* \"#utility.yul\":16781:16783   */\n      0x20\n        /* \"#utility.yul\":16770:16779   */\n      dup4\n        /* \"#utility.yul\":16766:16784   */\n      add\n        /* \"#utility.yul\":16759:16807   */\n      mstore\n        /* \"#utility.yul\":16824:16902   */\n      tag_323\n        /* \"#utility.yul\":16897:16901   */\n      dup2\n        /* \"#utility.yul\":16888:16894   */\n      dup6\n        /* \"#utility.yul\":16824:16902   */\n      tag_120\n      jump\t// in\n    tag_323:\n        /* \"#utility.yul\":16816:16902   */\n      swap1\n      pop\n        /* \"#utility.yul\":16912:16984   */\n      tag_324\n        /* \"#utility.yul\":16980:16982   */\n      0x40\n        /* \"#utility.yul\":16969:16978   */\n      dup4\n        /* \"#utility.yul\":16965:16983   */\n      add\n        /* \"#utility.yul\":16956:16962   */\n      dup5\n        /* \"#utility.yul\":16912:16984   */\n      tag_106\n      jump\t// in\n    tag_324:\n        /* \"#utility.yul\":16458:16991   */\n      swap5\n      swap4\n      pop\n      pop\n      pop\n      pop\n      jump\t// out\n\n    auxdata: 0xa26469706673582212204b3faeba4da281174501ecf851aeebcee39f7a67aac14812f451da23195ff11464736f6c63430008160033\n}\n",
				"bytecode": {
					"linkReferences": {},
					"object": "608060405234801562000010575f80fd5b506040516200126f3803806200126f833981810160405281019062000036919062000121565b335f806101000a81548173ffffffffffffffffffffffffffffffffffffffff021916908373ffffffffffffffffffffffffffffffffffffffff1602179055508060015f6101000a81548173ffffffffffffffffffffffffffffffffffffffff021916908373ffffffffffffffffffffffffffffffffffffffff1602179055505062000151565b5f80fd5b5f73ffffffffffffffffffffffffffffffffffffffff82169050919050565b5f620000eb82620000c0565b9050919050565b620000fd81620000df565b811462000108575f80fd5b50565b5f815190506200011b81620000f2565b92915050565b5f60208284031215620001395762000138620000bc565b5b5f62000148848285016200010b565b91505092915050565b611110806200015f5f395ff3fe608060405234801561000f575f80fd5b506004361061007b575f3560e01c80637150d8ae116100595780637150d8ae146100d7578063a1b6e836146100f5578063a85c38ef14610111578063ddff5e7d146101445761007b565b806308551a531461007f578063194c302c1461009d5780632453ffa8146100b9575b5f80fd5b610087610160565b60405161009491906107f8565b60405180910390f35b6100b760048036038101906100b29190610855565b610185565b005b6100c1610369565b6040516100ce919061088f565b60405180910390f35b6100df61036f565b6040516100ec91906107f8565b60405180910390f35b61010f600480360381019061010a91906109e4565b610392565b005b61012b60048036038101906101269190610855565b61051a565b60405161013b9493929190610b2b565b60405180910390f35b61015e60048036038101906101599190610855565b6105d8565b005b60015f9054906101000a900473ffffffffffffffffffffffffffffffffffffffff1681565b60015f9054906101000a900473ffffffffffffffffffffffffffffffffffffffff1673ffffffffffffffffffffffffffffffffffffffff163373ffffffffffffffffffffffffffffffffffffffff1614610214576040517f08c379a000000000000000000000000000000000000000000000000000000000815260040161020b90610be5565b60405180910390fd5b808060025f8381526020019081526020015f205f01541461026a576040517f08c379a000000000000000000000000000000000000000000000000000000000815260040161026190610c4d565b60405180910390fd5b8160028081111561027e5761027d610ab8565b5b60025f8381526020019081526020015f206003015f9054906101000a900460ff1660028111156102b1576102b0610ab8565b5b036102f1576040517f08c379a00000000000000000000000000000000000000000000000000000000081526004016102e890610cb5565b60405180910390fd5b600160025f8581526020019081526020015f206003015f6101000a81548160ff0219169083600281111561032857610327610ab8565b5b02179055507fe3ce5f36666aec295b2ed1a858caf4782066e5e8c1a5a5da7ba6551b14fcfdcb8360405161035c919061088f565b60405180910390a1505050565b60035481565b5f8054906101000a900473ffffffffffffffffffffffffffffffffffffffff1681565b5f8054906101000a900473ffffffffffffffffffffffffffffffffffffffff1673ffffffffffffffffffffffffffffffffffffffff163373ffffffffffffffffffffffffffffffffffffffff161461041f576040517f08c379a000000000000000000000000000000000000000000000000000000000815260040161041690610d43565b60405180910390fd5b60035f81548092919061043190610d8e565b91905055505f600354905060405180608001604052808281526020018481526020018381526020015f600281111561046c5761046b610ab8565b5b81525060025f8381526020019081526020015f205f820151815f0155602082015181600101908161049d9190610fcf565b50604082015181600201556060820151816003015f6101000a81548160ff021916908360028111156104d2576104d1610ab8565b5b02179055509050507f8b2b34c1a6cc0257df37f3e22eb86769e489dfa35b9e8173be566f447e66c00b81848460405161050d9392919061109e565b60405180910390a1505050565b6002602052805f5260405f205f91509050805f01549080600101805461053f90610e02565b80601f016020809104026020016040519081016040528092919081815260200182805461056b90610e02565b80156105b65780601f1061058d576101008083540402835291602001916105b6565b820191905f5260205f20905b81548152906001019060200180831161059957829003601f168201915b505050505090806002015490806003015f9054906101000a900460ff16905084565b5f8054906101000a900473ffffffffffffffffffffffffffffffffffffffff1673ffffffffffffffffffffffffffffffffffffffff163373ffffffffffffffffffffffffffffffffffffffff1614610665576040517f08c379a000000000000000000000000000000000000000000000000000000000815260040161065c90610d43565b60405180910390fd5b808060025f8381526020019081526020015f205f0154146106bb576040517f08c379a00000000000000000000000000000000000000000000000000000000081526004016106b290610c4d565b60405180910390fd5b816002808111156106cf576106ce610ab8565b5b60025f8381526020019081526020015f206003015f9054906101000a900460ff16600281111561070257610701610ab8565b5b03610742576040517f08c379a000000000000000000000000000000000000000000000000000000000815260040161073990610cb5565b60405180910390fd5b6002805f8581526020019081526020015f206003015f6101000a81548160ff0219169083600281111561077857610777610ab8565b5b02179055507fe21fe02c1589242b30be2057f54fd54b7ddc463695d19ffdb54f9ebb0584f24a836040516107ac919061088f565b60405180910390a1505050565b5f73ffffffffffffffffffffffffffffffffffffffff82169050919050565b5f6107e2826107b9565b9050919050565b6107f2816107d8565b82525050565b5f60208201905061080b5f8301846107e9565b92915050565b5f604051905090565b5f80fd5b5f80fd5b5f819050919050565b61083481610822565b811461083e575f80fd5b50565b5f8135905061084f8161082b565b92915050565b5f6020828403121561086a5761086961081a565b5b5f61087784828501610841565b91505092915050565b61088981610822565b82525050565b5f6020820190506108a25f830184610880565b92915050565b5f80fd5b5f80fd5b5f601f19601f8301169050919050565b7f4e487b71000000000000000000000000000000000000000000000000000000005f52604160045260245ffd5b6108f6826108b0565b810181811067ffffffffffffffff82111715610915576109146108c0565b5b80604052505050565b5f610927610811565b905061093382826108ed565b919050565b5f67ffffffffffffffff821115610952576109516108c0565b5b61095b826108b0565b9050602081019050919050565b828183375f83830152505050565b5f61098861098384610938565b61091e565b9050828152602081018484840111156109a4576109a36108ac565b5b6109af848285610968565b509392505050565b5f82601f8301126109cb576109ca6108a8565b5b81356109db848260208601610976565b91505092915050565b5f80604083850312156109fa576109f961081a565b5b5f83013567ffffffffffffffff811115610a1757610a1661081e565b5b610a23858286016109b7565b9250506020610a3485828601610841565b9150509250929050565b5f81519050919050565b5f82825260208201905092915050565b5f5b83811015610a75578082015181840152602081019050610a5a565b5f8484015250505050565b5f610a8a82610a3e565b610a948185610a48565b9350610aa4818560208601610a58565b610aad816108b0565b840191505092915050565b7f4e487b71000000000000000000000000000000000000000000000000000000005f52602160045260245ffd5b60038110610af657610af5610ab8565b5b50565b5f819050610b0682610ae5565b919050565b5f610b1582610af9565b9050919050565b610b2581610b0b565b82525050565b5f608082019050610b3e5f830187610880565b8181036020830152610b508186610a80565b9050610b5f6040830185610880565b610b6c6060830184610b1c565b95945050505050565b7f4f6e6c792073656c6c65722063616e2063616c6c20746869732066756e6374695f8201527f6f6e000000000000000000000000000000000000000000000000000000000000602082015250565b5f610bcf602283610a48565b9150610bda82610b75565b604082019050919050565b5f6020820190508181035f830152610bfc81610bc3565b9050919050565b7f4f7264657220646f6573206e6f742065786973740000000000000000000000005f82015250565b5f610c37601483610a48565b9150610c4282610c03565b602082019050919050565b5f6020820190508181035f830152610c6481610c2b565b9050919050565b7f4f7264657220616c72656164792064656c6976657265640000000000000000005f82015250565b5f610c9f601783610a48565b9150610caa82610c6b565b602082019050919050565b5f6020820190508181035f830152610ccc81610c93565b9050919050565b7f4f6e6c792062757965722063616e2063616c6c20746869732066756e6374696f5f8201527f6e00000000000000000000000000000000000000000000000000000000000000602082015250565b5f610d2d602183610a48565b9150610d3882610cd3565b604082019050919050565b5f6020820190508181035f830152610d5a81610d21565b9050919050565b7f4e487b71000000000000000000000000000000000000000000000000000000005f52601160045260245ffd5b5f610d9882610822565b91507fffffffffffffffffffffffffffffffffffffffffffffffffffffffffffffffff8203610dca57610dc9610d61565b5b600182019050919050565b7f4e487b71000000000000000000000000000000000000000000000000000000005f52602260045260245ffd5b5f6002820490506001821680610e1957607f821691505b602082108103610e2c57610e2b610dd5565b5b50919050565b5f819050815f5260205f209050919050565b5f6020601f8301049050919050565b5f82821b905092915050565b5f60088302610e8e7fffffffffffffffffffffffffffffffffffffffffffffffffffffffffffffffff82610e53565b610e988683610e53565b95508019841693508086168417925050509392505050565b5f819050919050565b5f610ed3610ece610ec984610822565b610eb0565b610822565b9050919050565b5f819050919050565b610eec83610eb9565b610f00610ef882610eda565b848454610e5f565b825550505050565b5f90565b610f14610f08565b610f1f818484610ee3565b505050565b5b81811015610f4257610f375f82610f0c565b600181019050610f25565b5050565b601f821115610f8757610f5881610e32565b610f6184610e44565b81016020851015610f70578190505b610f84610f7c85610e44565b830182610f24565b50505b505050565b5f82821c905092915050565b5f610fa75f1984600802610f8c565b1980831691505092915050565b5f610fbf8383610f98565b9150826002028217905092915050565b610fd882610a3e565b67ffffffffffffffff811115610ff157610ff06108c0565b5b610ffb8254610e02565b611006828285610f46565b5f60209050601f831160018114611037575f8415611025578287015190505b61102f8582610fb4565b865550611096565b601f19841661104586610e32565b5f5b8281101561106c57848901518255600182019150602085019450602081019050611047565b868310156110895784890151611085601f891682610f98565b8355505b6001600288020188555050505b505050505050565b5f6060820190506110b15f830186610880565b81810360208301526110c38185610a80565b90506110d26040830184610880565b94935050505056fea26469706673582212204b3faeba4da281174501ecf851aeebcee39f7a67aac14812f451da23195ff11464736f6c63430008160033",
					"opcodes": "PUSH1 0x80 PUSH1 0x40 MSTORE CALLVALUE DUP1 ISZERO PUSH3 0x10 JUMPI PUSH0 DUP1 REVERT JUMPDEST POP PUSH1 0x40 MLOAD PUSH3 0x126F CODESIZE SUB DUP1 PUSH3 0x126F DUP4 CODECOPY DUP2 DUP2 ADD PUSH1 0x40 MSTORE DUP2 ADD SWAP1 PUSH3 0x36 SWAP2 SWAP1 PUSH3 0x121 JUMP JUMPDEST CALLER PUSH0 DUP1 PUSH2 0x100 EXP DUP2 SLOAD DUP2 PUSH20 0xFFFFFFFFFFFFFFFFFFFFFFFFFFFFFFFFFFFFFFFF MUL NOT AND SWAP1 DUP4 PUSH20 0xFFFFFFFFFFFFFFFFFFFFFFFFFFFFFFFFFFFFFFFF AND MUL OR SWAP1 SSTORE POP DUP1 PUSH1 0x1 PUSH0 PUSH2 0x100 EXP DUP2 SLOAD DUP2 PUSH20 0xFFFFFFFFFFFFFFFFFFFFFFFFFFFFFFFFFFFFFFFF MUL NOT AND SWAP1 DUP4 PUSH20 0xFFFFFFFFFFFFFFFFFFFFFFFFFFFFFFFFFFFFFFFF AND MUL OR SWAP1 SSTORE POP POP PUSH3 0x151 JUMP JUMPDEST PUSH0 DUP1 REVERT JUMPDEST PUSH0 PUSH20 0xFFFFFFFFFFFFFFFFFFFFFFFFFFFFFFFFFFFFFFFF DUP3 AND SWAP1 POP SWAP2 SWAP1 POP JUMP JUMPDEST PUSH0 PUSH3 0xEB DUP3 PUSH3 0xC0 JUMP JUMPDEST SWAP1 POP SWAP2 SWAP1 POP JUMP JUMPDEST PUSH3 0xFD DUP2 PUSH3 0xDF JUMP JUMPDEST DUP2 EQ PUSH3 0x108 JUMPI PUSH0 DUP1 REVERT JUMPDEST POP JUMP JUMPDEST PUSH0 DUP2 MLOAD SWAP1 POP PUSH3 0x11B DUP2 PUSH3 0xF2 JUMP JUMPDEST SWAP3 SWAP2 POP POP JUMP JUMPDEST PUSH0 PUSH1 0x20 DUP3 DUP5 SUB SLT ISZERO PUSH3 0x139 JUMPI PUSH3 0x138 PUSH3 0xBC JUMP JUMPDEST JUMPDEST PUSH0 PUSH3 0x148 DUP5 DUP3 DUP6 ADD PUSH3 0x10B JUMP JUMPDEST SWAP2 POP POP SWAP3 SWAP2 POP POP JUMP JUMPDEST PUSH2 0x1110 DUP1 PUSH3 0x15F PUSH0 CODECOPY PUSH0 RETURN INVALID PUSH1 0x80 PUSH1 0x40 MSTORE CALLVALUE DUP1 ISZERO PUSH2 0xF JUMPI PUSH0 DUP1 REVERT JUMPDEST POP PUSH1 0x4 CALLDATASIZE LT PUSH2 0x7B JUMPI PUSH0 CALLDATALOAD PUSH1 0xE0 SHR DUP1 PUSH4 0x7150D8AE GT PUSH2 0x59 JUMPI DUP1 PUSH4 0x7150D8AE EQ PUSH2 0xD7 JUMPI DUP1 PUSH4 0xA1B6E836 EQ PUSH2 0xF5 JUMPI DUP1 PUSH4 0xA85C38EF EQ PUSH2 0x111 JUMPI DUP1 PUSH4 0xDDFF5E7D EQ PUSH2 0x144 JUMPI PUSH2 0x7B JUMP JUMPDEST DUP1 PUSH4 0x8551A53 EQ PUSH2 0x7F JUMPI DUP1 PUSH4 0x194C302C EQ PUSH2 0x9D JUMPI DUP1 PUSH4 0x2453FFA8 EQ PUSH2 0xB9 JUMPI JUMPDEST PUSH0 DUP1 REVERT JUMPDEST PUSH2 0x87 PUSH2 0x160 JUMP JUMPDEST PUSH1 0x40 MLOAD PUSH2 0x94 SWAP2 SWAP1 PUSH2 0x7F8 JUMP JUMPDEST PUSH1 0x40 MLOAD DUP1 SWAP2 SUB SWAP1 RETURN JUMPDEST PUSH2 0xB7 PUSH1 0x4 DUP1 CALLDATASIZE SUB DUP2 ADD SWAP1 PUSH2 0xB2 SWAP2 SWAP1 PUSH2 0x855 JUMP JUMPDEST PUSH2 0x185 JUMP JUMPDEST STOP JUMPDEST PUSH2 0xC1 PUSH2 0x369 JUMP JUMPDEST PUSH1 0x40 MLOAD PUSH2 0xCE SWAP2 SWAP1 PUSH2 0x88F JUMP JUMPDEST PUSH1 0x40 MLOAD DUP1 SWAP2 SUB SWAP1 RETURN JUMPDEST PUSH2 0xDF PUSH2 0x36F JUMP JUMPDEST PUSH1 0x40 MLOAD PUSH2 0xEC SWAP2 SWAP1 PUSH2 0x7F8 JUMP JUMPDEST PUSH1 0x40 MLOAD DUP1 SWAP2 SUB SWAP1 RETURN JUMPDEST PUSH2 0x10F PUSH1 0x4 DUP1 CALLDATASIZE SUB DUP2 ADD SWAP1 PUSH2 0x10A SWAP2 SWAP1 PUSH2 0x9E4 JUMP JUMPDEST PUSH2 0x392 JUMP JUMPDEST STOP JUMPDEST PUSH2 0x12B PUSH1 0x4 DUP1 CALLDATASIZE SUB DUP2 ADD SWAP1 PUSH2 0x126 SWAP2 SWAP1 PUSH2 0x855 JUMP JUMPDEST PUSH2 0x51A JUMP JUMPDEST PUSH1 0x40 MLOAD PUSH2 0x13B SWAP5 SWAP4 SWAP3 SWAP2 SWAP1 PUSH2 0xB2B JUMP JUMPDEST PUSH1 0x40 MLOAD DUP1 SWAP2 SUB SWAP1 RETURN JUMPDEST PUSH2 0x15E PUSH1 0x4 DUP1 CALLDATASIZE SUB DUP2 ADD SWAP1 PUSH2 0x159 SWAP2 SWAP1 PUSH2 0x855 JUMP JUMPDEST PUSH2 0x5D8 JUMP JUMPDEST STOP JUMPDEST PUSH1 0x1 PUSH0 SWAP1 SLOAD SWAP1 PUSH2 0x100 EXP SWAP1 DIV PUSH20 0xFFFFFFFFFFFFFFFFFFFFFFFFFFFFFFFFFFFFFFFF AND DUP2 JUMP JUMPDEST PUSH1 0x1 PUSH0 SWAP1 SLOAD SWAP1 PUSH2 0x100 EXP SWAP1 DIV PUSH20 0xFFFFFFFFFFFFFFFFFFFFFFFFFFFFFFFFFFFFFFFF AND PUSH20 0xFFFFFFFFFFFFFFFFFFFFFFFFFFFFFFFFFFFFFFFF AND CALLER PUSH20 0xFFFFFFFFFFFFFFFFFFFFFFFFFFFFFFFFFFFFFFFF AND EQ PUSH2 0x214 JUMPI PUSH1 0x40 MLOAD PUSH32 0x8C379A000000000000000000000000000000000000000000000000000000000 DUP2 MSTORE PUSH1 0x4 ADD PUSH2 0x20B SWAP1 PUSH2 0xBE5 JUMP JUMPDEST PUSH1 0x40 MLOAD DUP1 SWAP2 SUB SWAP1 REVERT JUMPDEST DUP1 DUP1 PUSH1 0x2 PUSH0 DUP4 DUP2 MSTORE PUSH1 0x20 ADD SWAP1 DUP2 MSTORE PUSH1 0x20 ADD PUSH0 KECCAK256 PUSH0 ADD SLOAD EQ PUSH2 0x26A JUMPI PUSH1 0x40 MLOAD PUSH32 0x8C379A000000000000000000000000000000000000000000000000000000000 DUP2 MSTORE PUSH1 0x4 ADD PUSH2 0x261 SWAP1 PUSH2 0xC4D JUMP JUMPDEST PUSH1 0x40 MLOAD DUP1 SWAP2 SUB SWAP1 REVERT JUMPDEST DUP2 PUSH1 0x2 DUP1 DUP2 GT ISZERO PUSH2 0x27E JUMPI PUSH2 0x27D PUSH2 0xAB8 JUMP JUMPDEST JUMPDEST PUSH1 0x2 PUSH0 DUP4 DUP2 MSTORE PUSH1 0x20 ADD SWAP1 DUP2 MSTORE PUSH1 0x20 ADD PUSH0 KECCAK256 PUSH1 0x3 ADD PUSH0 SWAP1 SLOAD SWAP1 PUSH2 0x100 EXP SWAP1 DIV PUSH1 0xFF AND PUSH1 0x2 DUP2 GT ISZERO PUSH2 0x2B1 JUMPI PUSH2 0x2B0 PUSH2 0xAB8 JUMP JUMPDEST JUMPDEST SUB PUSH2 0x2F1 JUMPI PUSH1 0x40 MLOAD PUSH32 0x8C379A000000000000000000000000000000000000000000000000000000000 DUP2 MSTORE PUSH1 0x4 ADD PUSH2 0x2E8 SWAP1 PUSH2 0xCB5 JUMP JUMPDEST PUSH1 0x40 MLOAD DUP1 SWAP2 SUB SWAP1 REVERT JUMPDEST PUSH1 0x1 PUSH1 0x2 PUSH0 DUP6 DUP2 MSTORE PUSH1 0x20 ADD SWAP1 DUP2 MSTORE PUSH1 0x20 ADD PUSH0 KECCAK256 PUSH1 0x3 ADD PUSH0 PUSH2 0x100 EXP DUP2 SLOAD DUP2 PUSH1 0xFF MUL NOT AND SWAP1 DUP4 PUSH1 0x2 DUP2 GT ISZERO PUSH2 0x328 JUMPI PUSH2 0x327 PUSH2 0xAB8 JUMP JUMPDEST JUMPDEST MUL OR SWAP1 SSTORE POP PUSH32 0xE3CE5F36666AEC295B2ED1A858CAF4782066E5E8C1A5A5DA7BA6551B14FCFDCB DUP4 PUSH1 0x40 MLOAD PUSH2 0x35C SWAP2 SWAP1 PUSH2 0x88F JUMP JUMPDEST PUSH1 0x40 MLOAD DUP1 SWAP2 SUB SWAP1 LOG1 POP POP POP JUMP JUMPDEST PUSH1 0x3 SLOAD DUP2 JUMP JUMPDEST PUSH0 DUP1 SLOAD SWAP1 PUSH2 0x100 EXP SWAP1 DIV PUSH20 0xFFFFFFFFFFFFFFFFFFFFFFFFFFFFFFFFFFFFFFFF AND DUP2 JUMP JUMPDEST PUSH0 DUP1 SLOAD SWAP1 PUSH2 0x100 EXP SWAP1 DIV PUSH20 0xFFFFFFFFFFFFFFFFFFFFFFFFFFFFFFFFFFFFFFFF AND PUSH20 0xFFFFFFFFFFFFFFFFFFFFFFFFFFFFFFFFFFFFFFFF AND CALLER PUSH20 0xFFFFFFFFFFFFFFFFFFFFFFFFFFFFFFFFFFFFFFFF AND EQ PUSH2 0x41F JUMPI PUSH1 0x40 MLOAD PUSH32 0x8C379A000000000000000000000000000000000000000000000000000000000 DUP2 MSTORE PUSH1 0x4 ADD PUSH2 0x416 SWAP1 PUSH2 0xD43 JUMP JUMPDEST PUSH1 0x40 MLOAD DUP1 SWAP2 SUB SWAP1 REVERT JUMPDEST PUSH1 0x3 PUSH0 DUP2 SLOAD DUP1 SWAP3 SWAP2 SWAP1 PUSH2 0x431 SWAP1 PUSH2 0xD8E JUMP JUMPDEST SWAP2 SWAP1 POP SSTORE POP PUSH0 PUSH1 0x3 SLOAD SWAP1 POP PUSH1 0x40 MLOAD DUP1 PUSH1 0x80 ADD PUSH1 0x40 MSTORE DUP1 DUP3 DUP2 MSTORE PUSH1 0x20 ADD DUP5 DUP2 MSTORE PUSH1 0x20 ADD DUP4 DUP2 MSTORE PUSH1 0x20 ADD PUSH0 PUSH1 0x2 DUP2 GT ISZERO PUSH2 0x46C JUMPI PUSH2 0x46B PUSH2 0xAB8 JUMP JUMPDEST JUMPDEST DUP2 MSTORE POP PUSH1 0x2 PUSH0 DUP4 DUP2 MSTORE PUSH1 0x20 ADD SWAP1 DUP2 MSTORE PUSH1 0x20 ADD PUSH0 KECCAK256 PUSH0 DUP3 ADD MLOAD DUP2 PUSH0 ADD SSTORE PUSH1 0x20 DUP3 ADD MLOAD DUP2 PUSH1 0x1 ADD SWAP1 DUP2 PUSH2 0x49D SWAP2 SWAP1 PUSH2 0xFCF JUMP JUMPDEST POP PUSH1 0x40 DUP3 ADD MLOAD DUP2 PUSH1 0x2 ADD SSTORE PUSH1 0x60 DUP3 ADD MLOAD DUP2 PUSH1 0x3 ADD PUSH0 PUSH2 0x100 EXP DUP2 SLOAD DUP2 PUSH1 0xFF MUL NOT AND SWAP1 DUP4 PUSH1 0x2 DUP2 GT ISZERO PUSH2 0x4D2 JUMPI PUSH2 0x4D1 PUSH2 0xAB8 JUMP JUMPDEST JUMPDEST MUL OR SWAP1 SSTORE POP SWAP1 POP POP PUSH32 0x8B2B34C1A6CC0257DF37F3E22EB86769E489DFA35B9E8173BE566F447E66C00B DUP2 DUP5 DUP5 PUSH1 0x40 MLOAD PUSH2 0x50D SWAP4 SWAP3 SWAP2 SWAP1 PUSH2 0x109E JUMP JUMPDEST PUSH1 0x40 MLOAD DUP1 SWAP2 SUB SWAP1 LOG1 POP POP POP JUMP JUMPDEST PUSH1 0x2 PUSH1 0x20 MSTORE DUP1 PUSH0 MSTORE PUSH1 0x40 PUSH0 KECCAK256 PUSH0 SWAP2 POP SWAP1 POP DUP1 PUSH0 ADD SLOAD SWAP1 DUP1 PUSH1 0x1 ADD DUP1 SLOAD PUSH2 0x53F SWAP1 PUSH2 0xE02 JUMP JUMPDEST DUP1 PUSH1 0x1F ADD PUSH1 0x20 DUP1 SWAP2 DIV MUL PUSH1 0x20 ADD PUSH1 0x40 MLOAD SWAP1 DUP2 ADD PUSH1 0x40 MSTORE DUP1 SWAP3 SWAP2 SWAP1 DUP2 DUP2 MSTORE PUSH1 0x20 ADD DUP3 DUP1 SLOAD PUSH2 0x56B SWAP1 PUSH2 0xE02 JUMP JUMPDEST DUP1 ISZERO PUSH2 0x5B6 JUMPI DUP1 PUSH1 0x1F LT PUSH2 0x58D JUMPI PUSH2 0x100 DUP1 DUP4 SLOAD DIV MUL DUP4 MSTORE SWAP2 PUSH1 0x20 ADD SWAP2 PUSH2 0x5B6 JUMP JUMPDEST DUP3 ADD SWAP2 SWAP1 PUSH0 MSTORE PUSH1 0x20 PUSH0 KECCAK256 SWAP1 JUMPDEST DUP2 SLOAD DUP2 MSTORE SWAP1 PUSH1 0x1 ADD SWAP1 PUSH1 0x20 ADD DUP1 DUP4 GT PUSH2 0x599 JUMPI DUP3 SWAP1 SUB PUSH1 0x1F AND DUP3 ADD SWAP2 JUMPDEST POP POP POP POP POP SWAP1 DUP1 PUSH1 0x2 ADD SLOAD SWAP1 DUP1 PUSH1 0x3 ADD PUSH0 SWAP1 SLOAD SWAP1 PUSH2 0x100 EXP SWAP1 DIV PUSH1 0xFF AND SWAP1 POP DUP5 JUMP JUMPDEST PUSH0 DUP1 SLOAD SWAP1 PUSH2 0x100 EXP SWAP1 DIV PUSH20 0xFFFFFFFFFFFFFFFFFFFFFFFFFFFFFFFFFFFFFFFF AND PUSH20 0xFFFFFFFFFFFFFFFFFFFFFFFFFFFFFFFFFFFFFFFF AND CALLER PUSH20 0xFFFFFFFFFFFFFFFFFFFFFFFFFFFFFFFFFFFFFFFF AND EQ PUSH2 0x665 JUMPI PUSH1 0x40 MLOAD PUSH32 0x8C379A000000000000000000000000000000000000000000000000000000000 DUP2 MSTORE PUSH1 0x4 ADD PUSH2 0x65C SWAP1 PUSH2 0xD43 JUMP JUMPDEST PUSH1 0x40 MLOAD DUP1 SWAP2 SUB SWAP1 REVERT JUMPDEST DUP1 DUP1 PUSH1 0x2 PUSH0 DUP4 DUP2 MSTORE PUSH1 0x20 ADD SWAP1 DUP2 MSTORE PUSH1 0x20 ADD PUSH0 KECCAK256 PUSH0 ADD SLOAD EQ PUSH2 0x6BB JUMPI PUSH1 0x40 MLOAD PUSH32 0x8C379A000000000000000000000000000000000000000000000000000000000 DUP2 MSTORE PUSH1 0x4 ADD PUSH2 0x6B2 SWAP1 PUSH2 0xC4D JUMP JUMPDEST PUSH1 0x40 MLOAD DUP1 SWAP2 SUB SWAP1 REVERT JUMPDEST DUP2 PUSH1 0x2 DUP1 DUP2 GT ISZERO PUSH2 0x6CF JUMPI PUSH2 0x6CE PUSH2 0xAB8 JUMP JUMPDEST JUMPDEST PUSH1 0x2 PUSH0 DUP4 DUP2 MSTORE PUSH1 0x20 ADD SWAP1 DUP2 MSTORE PUSH1 0x20 ADD PUSH0 KECCAK256 PUSH1 0x3 ADD PUSH0 SWAP1 SLOAD SWAP1 PUSH2 0x100 EXP SWAP1 DIV PUSH1 0xFF AND PUSH1 0x2 DUP2 GT ISZERO PUSH2 0x702 JUMPI PUSH2 0x701 PUSH2 0xAB8 JUMP JUMPDEST JUMPDEST SUB PUSH2 0x742 JUMPI PUSH1 0x40 MLOAD PUSH32 0x8C379A000000000000000000000000000000000000000000000000000000000 DUP2 MSTORE PUSH1 0x4 ADD PUSH2 0x739 SWAP1 PUSH2 0xCB5 JUMP JUMPDEST PUSH1 0x40 MLOAD DUP1 SWAP2 SUB SWAP1 REVERT JUMPDEST PUSH1 0x2 DUP1 PUSH0 DUP6 DUP2 MSTORE PUSH1 0x20 ADD SWAP1 DUP2 MSTORE PUSH1 0x20 ADD PUSH0 KECCAK256 PUSH1 0x3 ADD PUSH0 PUSH2 0x100 EXP DUP2 SLOAD DUP2 PUSH1 0xFF MUL NOT AND SWAP1 DUP4 PUSH1 0x2 DUP2 GT ISZERO PUSH2 0x778 JUMPI PUSH2 0x777 PUSH2 0xAB8 JUMP JUMPDEST JUMPDEST MUL OR SWAP1 SSTORE POP PUSH32 0xE21FE02C1589242B30BE2057F54FD54B7DDC463695D19FFDB54F9EBB0584F24A DUP4 PUSH1 0x40 MLOAD PUSH2 0x7AC SWAP2 SWAP1 PUSH2 0x88F JUMP JUMPDEST PUSH1 0x40 MLOAD DUP1 SWAP2 SUB SWAP1 LOG1 POP POP POP JUMP JUMPDEST PUSH0 PUSH20 0xFFFFFFFFFFFFFFFFFFFFFFFFFFFFFFFFFFFFFFFF DUP3 AND SWAP1 POP SWAP2 SWAP1 POP JUMP JUMPDEST PUSH0 PUSH2 0x7E2 DUP3 PUSH2 0x7B9 JUMP JUMPDEST SWAP1 POP SWAP2 SWAP1 POP JUMP JUMPDEST PUSH2 0x7F2 DUP2 PUSH2 0x7D8 JUMP JUMPDEST DUP3 MSTORE POP POP JUMP JUMPDEST PUSH0 PUSH1 0x20 DUP3 ADD SWAP1 POP PUSH2 0x80B PUSH0 DUP4 ADD DUP5 PUSH2 0x7E9 JUMP JUMPDEST SWAP3 SWAP2 POP POP JUMP JUMPDEST PUSH0 PUSH1 0x40 MLOAD SWAP1 POP SWAP1 JUMP JUMPDEST PUSH0 DUP1 REVERT JUMPDEST PUSH0 DUP1 REVERT JUMPDEST PUSH0 DUP2 SWAP1 POP SWAP2 SWAP1 POP JUMP JUMPDEST PUSH2 0x834 DUP2 PUSH2 0x822 JUMP JUMPDEST DUP2 EQ PUSH2 0x83E JUMPI PUSH0 DUP1 REVERT JUMPDEST POP JUMP JUMPDEST PUSH0 DUP2 CALLDATALOAD SWAP1 POP PUSH2 0x84F DUP2 PUSH2 0x82B JUMP JUMPDEST SWAP3 SWAP2 POP POP JUMP JUMPDEST PUSH0 PUSH1 0x20 DUP3 DUP5 SUB SLT ISZERO PUSH2 0x86A JUMPI PUSH2 0x869 PUSH2 0x81A JUMP JUMPDEST JUMPDEST PUSH0 PUSH2 0x877 DUP5 DUP3 DUP6 ADD PUSH2 0x841 JUMP JUMPDEST SWAP2 POP POP SWAP3 SWAP2 POP POP JUMP JUMPDEST PUSH2 0x889 DUP2 PUSH2 0x822 JUMP JUMPDEST DUP3 MSTORE POP POP JUMP JUMPDEST PUSH0 PUSH1 0x20 DUP3 ADD SWAP1 POP PUSH2 0x8A2 PUSH0 DUP4 ADD DUP5 PUSH2 0x880 JUMP JUMPDEST SWAP3 SWAP2 POP POP JUMP JUMPDEST PUSH0 DUP1 REVERT JUMPDEST PUSH0 DUP1 REVERT JUMPDEST PUSH0 PUSH1 0x1F NOT PUSH1 0x1F DUP4 ADD AND SWAP1 POP SWAP2 SWAP1 POP JUMP JUMPDEST PUSH32 0x4E487B7100000000000000000000000000000000000000000000000000000000 PUSH0 MSTORE PUSH1 0x41 PUSH1 0x4 MSTORE PUSH1 0x24 PUSH0 REVERT JUMPDEST PUSH2 0x8F6 DUP3 PUSH2 0x8B0 JUMP JUMPDEST DUP2 ADD DUP2 DUP2 LT PUSH8 0xFFFFFFFFFFFFFFFF DUP3 GT OR ISZERO PUSH2 0x915 JUMPI PUSH2 0x914 PUSH2 0x8C0 JUMP JUMPDEST JUMPDEST DUP1 PUSH1 0x40 MSTORE POP POP POP JUMP JUMPDEST PUSH0 PUSH2 0x927 PUSH2 0x811 JUMP JUMPDEST SWAP1 POP PUSH2 0x933 DUP3 DUP3 PUSH2 0x8ED JUMP JUMPDEST SWAP2 SWAP1 POP JUMP JUMPDEST PUSH0 PUSH8 0xFFFFFFFFFFFFFFFF DUP3 GT ISZERO PUSH2 0x952 JUMPI PUSH2 0x951 PUSH2 0x8C0 JUMP JUMPDEST JUMPDEST PUSH2 0x95B DUP3 PUSH2 0x8B0 JUMP JUMPDEST SWAP1 POP PUSH1 0x20 DUP2 ADD SWAP1 POP SWAP2 SWAP1 POP JUMP JUMPDEST DUP3 DUP2 DUP4 CALLDATACOPY PUSH0 DUP4 DUP4 ADD MSTORE POP POP POP JUMP JUMPDEST PUSH0 PUSH2 0x988 PUSH2 0x983 DUP5 PUSH2 0x938 JUMP JUMPDEST PUSH2 0x91E JUMP JUMPDEST SWAP1 POP DUP3 DUP2 MSTORE PUSH1 0x20 DUP2 ADD DUP5 DUP5 DUP5 ADD GT ISZERO PUSH2 0x9A4 JUMPI PUSH2 0x9A3 PUSH2 0x8AC JUMP JUMPDEST JUMPDEST PUSH2 0x9AF DUP5 DUP3 DUP6 PUSH2 0x968 JUMP JUMPDEST POP SWAP4 SWAP3 POP POP POP JUMP JUMPDEST PUSH0 DUP3 PUSH1 0x1F DUP4 ADD SLT PUSH2 0x9CB JUMPI PUSH2 0x9CA PUSH2 0x8A8 JUMP JUMPDEST JUMPDEST DUP2 CALLDATALOAD PUSH2 0x9DB DUP5 DUP3 PUSH1 0x20 DUP7 ADD PUSH2 0x976 JUMP JUMPDEST SWAP2 POP POP SWAP3 SWAP2 POP POP JUMP JUMPDEST PUSH0 DUP1 PUSH1 0x40 DUP4 DUP6 SUB SLT ISZERO PUSH2 0x9FA JUMPI PUSH2 0x9F9 PUSH2 0x81A JUMP JUMPDEST JUMPDEST PUSH0 DUP4 ADD CALLDATALOAD PUSH8 0xFFFFFFFFFFFFFFFF DUP2 GT ISZERO PUSH2 0xA17 JUMPI PUSH2 0xA16 PUSH2 0x81E JUMP JUMPDEST JUMPDEST PUSH2 0xA23 DUP6 DUP3 DUP7 ADD PUSH2 0x9B7 JUMP JUMPDEST SWAP3 POP POP PUSH1 0x20 PUSH2 0xA34 DUP6 DUP3 DUP7 ADD PUSH2 0x841 JUMP JUMPDEST SWAP2 POP POP SWAP3 POP SWAP3 SWAP1 POP JUMP JUMPDEST PUSH0 DUP2 MLOAD SWAP1 POP SWAP2 SWAP1 POP JUMP JUMPDEST PUSH0 DUP3 DUP3 MSTORE PUSH1 0x20 DUP3 ADD SWAP1 POP SWAP3 SWAP2 POP POP JUMP JUMPDEST PUSH0 JUMPDEST DUP4 DUP2 LT ISZERO PUSH2 0xA75 JUMPI DUP1 DUP3 ADD MLOAD DUP2 DUP5 ADD MSTORE PUSH1 0x20 DUP2 ADD SWAP1 POP PUSH2 0xA5A JUMP JUMPDEST PUSH0 DUP5 DUP5 ADD MSTORE POP POP POP POP JUMP JUMPDEST PUSH0 PUSH2 0xA8A DUP3 PUSH2 0xA3E JUMP JUMPDEST PUSH2 0xA94 DUP2 DUP6 PUSH2 0xA48 JUMP JUMPDEST SWAP4 POP PUSH2 0xAA4 DUP2 DUP6 PUSH1 0x20 DUP7 ADD PUSH2 0xA58 JUMP JUMPDEST PUSH2 0xAAD DUP2 PUSH2 0x8B0 JUMP JUMPDEST DUP5 ADD SWAP2 POP POP SWAP3 SWAP2 POP POP JUMP JUMPDEST PUSH32 0x4E487B7100000000000000000000000000000000000000000000000000000000 PUSH0 MSTORE PUSH1 0x21 PUSH1 0x4 MSTORE PUSH1 0x24 PUSH0 REVERT JUMPDEST PUSH1 0x3 DUP2 LT PUSH2 0xAF6 JUMPI PUSH2 0xAF5 PUSH2 0xAB8 JUMP JUMPDEST JUMPDEST POP JUMP JUMPDEST PUSH0 DUP2 SWAP1 POP PUSH2 0xB06 DUP3 PUSH2 0xAE5 JUMP JUMPDEST SWAP2 SWAP1 POP JUMP JUMPDEST PUSH0 PUSH2 0xB15 DUP3 PUSH2 0xAF9 JUMP JUMPDEST SWAP1 POP SWAP2 SWAP1 POP JUMP JUMPDEST PUSH2 0xB25 DUP2 PUSH2 0xB0B JUMP JUMPDEST DUP3 MSTORE POP POP JUMP JUMPDEST PUSH0 PUSH1 0x80 DUP3 ADD SWAP1 POP PUSH2 0xB3E PUSH0 DUP4 ADD DUP8 PUSH2 0x880 JUMP JUMPDEST DUP2 DUP2 SUB PUSH1 0x20 DUP4 ADD MSTORE PUSH2 0xB50 DUP2 DUP7 PUSH2 0xA80 JUMP JUMPDEST SWAP1 POP PUSH2 0xB5F PUSH1 0x40 DUP4 ADD DUP6 PUSH2 0x880 JUMP JUMPDEST PUSH2 0xB6C PUSH1 0x60 DUP4 ADD DUP5 PUSH2 0xB1C JUMP JUMPDEST SWAP6 SWAP5 POP POP POP POP POP JUMP JUMPDEST PUSH32 0x4F6E6C792073656C6C65722063616E2063616C6C20746869732066756E637469 PUSH0 DUP3 ADD MSTORE PUSH32 0x6F6E000000000000000000000000000000000000000000000000000000000000 PUSH1 0x20 DUP3 ADD MSTORE POP JUMP JUMPDEST PUSH0 PUSH2 0xBCF PUSH1 0x22 DUP4 PUSH2 0xA48 JUMP JUMPDEST SWAP2 POP PUSH2 0xBDA DUP3 PUSH2 0xB75 JUMP JUMPDEST PUSH1 0x40 DUP3 ADD SWAP1 POP SWAP2 SWAP1 POP JUMP JUMPDEST PUSH0 PUSH1 0x20 DUP3 ADD SWAP1 POP DUP2 DUP2 SUB PUSH0 DUP4 ADD MSTORE PUSH2 0xBFC DUP2 PUSH2 0xBC3 JUMP JUMPDEST SWAP1 POP SWAP2 SWAP1 POP JUMP JUMPDEST PUSH32 0x4F7264657220646F6573206E6F74206578697374000000000000000000000000 PUSH0 DUP3 ADD MSTORE POP JUMP JUMPDEST PUSH0 PUSH2 0xC37 PUSH1 0x14 DUP4 PUSH2 0xA48 JUMP JUMPDEST SWAP2 POP PUSH2 0xC42 DUP3 PUSH2 0xC03 JUMP JUMPDEST PUSH1 0x20 DUP3 ADD SWAP1 POP SWAP2 SWAP1 POP JUMP JUMPDEST PUSH0 PUSH1 0x20 DUP3 ADD SWAP1 POP DUP2 DUP2 SUB PUSH0 DUP4 ADD MSTORE PUSH2 0xC64 DUP2 PUSH2 0xC2B JUMP JUMPDEST SWAP1 POP SWAP2 SWAP1 POP JUMP JUMPDEST PUSH32 0x4F7264657220616C72656164792064656C697665726564000000000000000000 PUSH0 DUP3 ADD MSTORE POP JUMP JUMPDEST PUSH0 PUSH2 0xC9F PUSH1 0x17 DUP4 PUSH2 0xA48 JUMP JUMPDEST SWAP2 POP PUSH2 0xCAA DUP3 PUSH2 0xC6B JUMP JUMPDEST PUSH1 0x20 DUP3 ADD SWAP1 POP SWAP2 SWAP1 POP JUMP JUMPDEST PUSH0 PUSH1 0x20 DUP3 ADD SWAP1 POP DUP2 DUP2 SUB PUSH0 DUP4 ADD MSTORE PUSH2 0xCCC DUP2 PUSH2 0xC93 JUMP JUMPDEST SWAP1 POP SWAP2 SWAP1 POP JUMP JUMPDEST PUSH32 0x4F6E6C792062757965722063616E2063616C6C20746869732066756E6374696F PUSH0 DUP3 ADD MSTORE PUSH32 0x6E00000000000000000000000000000000000000000000000000000000000000 PUSH1 0x20 DUP3 ADD MSTORE POP JUMP JUMPDEST PUSH0 PUSH2 0xD2D PUSH1 0x21 DUP4 PUSH2 0xA48 JUMP JUMPDEST SWAP2 POP PUSH2 0xD38 DUP3 PUSH2 0xCD3 JUMP JUMPDEST PUSH1 0x40 DUP3 ADD SWAP1 POP SWAP2 SWAP1 POP JUMP JUMPDEST PUSH0 PUSH1 0x20 DUP3 ADD SWAP1 POP DUP2 DUP2 SUB PUSH0 DUP4 ADD MSTORE PUSH2 0xD5A DUP2 PUSH2 0xD21 JUMP JUMPDEST SWAP1 POP SWAP2 SWAP1 POP JUMP JUMPDEST PUSH32 0x4E487B7100000000000000000000000000000000000000000000000000000000 PUSH0 MSTORE PUSH1 0x11 PUSH1 0x4 MSTORE PUSH1 0x24 PUSH0 REVERT JUMPDEST PUSH0 PUSH2 0xD98 DUP3 PUSH2 0x822 JUMP JUMPDEST SWAP2 POP PUSH32 0xFFFFFFFFFFFFFFFFFFFFFFFFFFFFFFFFFFFFFFFFFFFFFFFFFFFFFFFFFFFFFFFF DUP3 SUB PUSH2 0xDCA JUMPI PUSH2 0xDC9 PUSH2 0xD61 JUMP JUMPDEST JUMPDEST PUSH1 0x1 DUP3 ADD SWAP1 POP SWAP2 SWAP1 POP JUMP JUMPDEST PUSH32 0x4E487B7100000000000000000000000000000000000000000000000000000000 PUSH0 MSTORE PUSH1 0x22 PUSH1 0x4 MSTORE PUSH1 0x24 PUSH0 REVERT JUMPDEST PUSH0 PUSH1 0x2 DUP3 DIV SWAP1 POP PUSH1 0x1 DUP3 AND DUP1 PUSH2 0xE19 JUMPI PUSH1 0x7F DUP3 AND SWAP2 POP JUMPDEST PUSH1 0x20 DUP3 LT DUP2 SUB PUSH2 0xE2C JUMPI PUSH2 0xE2B PUSH2 0xDD5 JUMP JUMPDEST JUMPDEST POP SWAP2 SWAP1 POP JUMP JUMPDEST PUSH0 DUP2 SWAP1 POP DUP2 PUSH0 MSTORE PUSH1 0x20 PUSH0 KECCAK256 SWAP1 POP SWAP2 SWAP1 POP JUMP JUMPDEST PUSH0 PUSH1 0x20 PUSH1 0x1F DUP4 ADD DIV SWAP1 POP SWAP2 SWAP1 POP JUMP JUMPDEST PUSH0 DUP3 DUP3 SHL SWAP1 POP SWAP3 SWAP2 POP POP JUMP JUMPDEST PUSH0 PUSH1 0x8 DUP4 MUL PUSH2 0xE8E PUSH32 0xFFFFFFFFFFFFFFFFFFFFFFFFFFFFFFFFFFFFFFFFFFFFFFFFFFFFFFFFFFFFFFFF DUP3 PUSH2 0xE53 JUMP JUMPDEST PUSH2 0xE98 DUP7 DUP4 PUSH2 0xE53 JUMP JUMPDEST SWAP6 POP DUP1 NOT DUP5 AND SWAP4 POP DUP1 DUP7 AND DUP5 OR SWAP3 POP POP POP SWAP4 SWAP3 POP POP POP JUMP JUMPDEST PUSH0 DUP2 SWAP1 POP SWAP2 SWAP1 POP JUMP JUMPDEST PUSH0 PUSH2 0xED3 PUSH2 0xECE PUSH2 0xEC9 DUP5 PUSH2 0x822 JUMP JUMPDEST PUSH2 0xEB0 JUMP JUMPDEST PUSH2 0x822 JUMP JUMPDEST SWAP1 POP SWAP2 SWAP1 POP JUMP JUMPDEST PUSH0 DUP2 SWAP1 POP SWAP2 SWAP1 POP JUMP JUMPDEST PUSH2 0xEEC DUP4 PUSH2 0xEB9 JUMP JUMPDEST PUSH2 0xF00 PUSH2 0xEF8 DUP3 PUSH2 0xEDA JUMP JUMPDEST DUP5 DUP5 SLOAD PUSH2 0xE5F JUMP JUMPDEST DUP3 SSTORE POP POP POP POP JUMP JUMPDEST PUSH0 SWAP1 JUMP JUMPDEST PUSH2 0xF14 PUSH2 0xF08 JUMP JUMPDEST PUSH2 0xF1F DUP2 DUP5 DUP5 PUSH2 0xEE3 JUMP JUMPDEST POP POP POP JUMP JUMPDEST JUMPDEST DUP2 DUP2 LT ISZERO PUSH2 0xF42 JUMPI PUSH2 0xF37 PUSH0 DUP3 PUSH2 0xF0C JUMP JUMPDEST PUSH1 0x1 DUP2 ADD SWAP1 POP PUSH2 0xF25 JUMP JUMPDEST POP POP JUMP JUMPDEST PUSH1 0x1F DUP3 GT ISZERO PUSH2 0xF87 JUMPI PUSH2 0xF58 DUP2 PUSH2 0xE32 JUMP JUMPDEST PUSH2 0xF61 DUP5 PUSH2 0xE44 JUMP JUMPDEST DUP2 ADD PUSH1 0x20 DUP6 LT ISZERO PUSH2 0xF70 JUMPI DUP2 SWAP1 POP JUMPDEST PUSH2 0xF84 PUSH2 0xF7C DUP6 PUSH2 0xE44 JUMP JUMPDEST DUP4 ADD DUP3 PUSH2 0xF24 JUMP JUMPDEST POP POP JUMPDEST POP POP POP JUMP JUMPDEST PUSH0 DUP3 DUP3 SHR SWAP1 POP SWAP3 SWAP2 POP POP JUMP JUMPDEST PUSH0 PUSH2 0xFA7 PUSH0 NOT DUP5 PUSH1 0x8 MUL PUSH2 0xF8C JUMP JUMPDEST NOT DUP1 DUP4 AND SWAP2 POP POP SWAP3 SWAP2 POP POP JUMP JUMPDEST PUSH0 PUSH2 0xFBF DUP4 DUP4 PUSH2 0xF98 JUMP JUMPDEST SWAP2 POP DUP3 PUSH1 0x2 MUL DUP3 OR SWAP1 POP SWAP3 SWAP2 POP POP JUMP JUMPDEST PUSH2 0xFD8 DUP3 PUSH2 0xA3E JUMP JUMPDEST PUSH8 0xFFFFFFFFFFFFFFFF DUP2 GT ISZERO PUSH2 0xFF1 JUMPI PUSH2 0xFF0 PUSH2 0x8C0 JUMP JUMPDEST JUMPDEST PUSH2 0xFFB DUP3 SLOAD PUSH2 0xE02 JUMP JUMPDEST PUSH2 0x1006 DUP3 DUP3 DUP6 PUSH2 0xF46 JUMP JUMPDEST PUSH0 PUSH1 0x20 SWAP1 POP PUSH1 0x1F DUP4 GT PUSH1 0x1 DUP2 EQ PUSH2 0x1037 JUMPI PUSH0 DUP5 ISZERO PUSH2 0x1025 JUMPI DUP3 DUP8 ADD MLOAD SWAP1 POP JUMPDEST PUSH2 0x102F DUP6 DUP3 PUSH2 0xFB4 JUMP JUMPDEST DUP7 SSTORE POP PUSH2 0x1096 JUMP JUMPDEST PUSH1 0x1F NOT DUP5 AND PUSH2 0x1045 DUP7 PUSH2 0xE32 JUMP JUMPDEST PUSH0 JUMPDEST DUP3 DUP2 LT ISZERO PUSH2 0x106C JUMPI DUP5 DUP10 ADD MLOAD DUP3 SSTORE PUSH1 0x1 DUP3 ADD SWAP2 POP PUSH1 0x20 DUP6 ADD SWAP5 POP PUSH1 0x20 DUP2 ADD SWAP1 POP PUSH2 0x1047 JUMP JUMPDEST DUP7 DUP4 LT ISZERO PUSH2 0x1089 JUMPI DUP5 DUP10 ADD MLOAD PUSH2 0x1085 PUSH1 0x1F DUP10 AND DUP3 PUSH2 0xF98 JUMP JUMPDEST DUP4 SSTORE POP JUMPDEST PUSH1 0x1 PUSH1 0x2 DUP9 MUL ADD DUP9 SSTORE POP POP POP JUMPDEST POP POP POP POP POP POP JUMP JUMPDEST PUSH0 PUSH1 0x60 DUP3 ADD SWAP1 POP PUSH2 0x10B1 PUSH0 DUP4 ADD DUP7 PUSH2 0x880 JUMP JUMPDEST DUP2 DUP2 SUB PUSH1 0x20 DUP4 ADD MSTORE PUSH2 0x10C3 DUP2 DUP6 PUSH2 0xA80 JUMP JUMPDEST SWAP1 POP PUSH2 0x10D2 PUSH1 0x40 DUP4 ADD DUP5 PUSH2 0x880 JUMP JUMPDEST SWAP5 SWAP4 POP POP POP POP JUMP INVALID LOG2 PUSH5 0x6970667358 0x22 SLT KECCAK256 0x4B EXTCODEHASH 0xAE 0xBA 0x4D LOG2 DUP2 OR GASLIMIT ADD 0xEC 0xF8 MLOAD 0xAE 0xEB 0xCE 0xE3 SWAP16 PUSH27 0x67AAC14812F451DA23195FF11464736F6C63430008160033000000 "
				},
				"gasEstimates": {
					"creation": {
						"codeDepositCost": "873600",
						"executionCost": "infinite",
						"totalCost": "infinite"
					},
					"external": {
						"buyer()": "2505",
						"deliverOrder(uint256)": "infinite",
						"orderCount()": "2470",
						"orders(uint256)": "infinite",
						"placeOrder(string,uint256)": "infinite",
						"seller()": "2509",
						"shipOrder(uint256)": "infinite"
					}
				},
				"methodIdentifiers": {
					"buyer()": "7150d8ae",
					"deliverOrder(uint256)": "ddff5e7d",
					"orderCount()": "2453ffa8",
					"orders(uint256)": "a85c38ef",
					"placeOrder(string,uint256)": "a1b6e836",
					"seller()": "08551a53",
					"shipOrder(uint256)": "194c302c"
				}
			},
			"storageLayout": {
				"storage": [
					{
						"astId": 3,
						"contract": "Buyer-Seller.sol:SupplyChainContract",
						"label": "buyer",
						"offset": 0,
						"slot": "0",
						"type": "t_address"
					},
					{
						"astId": 5,
						"contract": "Buyer-Seller.sol:SupplyChainContract",
						"label": "seller",
						"offset": 0,
						"slot": "1",
						"type": "t_address"
					},
					{
						"astId": 24,
						"contract": "Buyer-Seller.sol:SupplyChainContract",
						"label": "orders",
						"offset": 0,
						"slot": "2",
						"type": "t_mapping(t_uint256,t_struct(Order)19_storage)"
					},
					{
						"astId": 26,
						"contract": "Buyer-Seller.sol:SupplyChainContract",
						"label": "orderCount",
						"offset": 0,
						"slot": "3",
						"type": "t_uint256"
					}
				],
				"types": {
					"t_address": {
						"encoding": "inplace",
						"label": "address",
						"numberOfBytes": "20"
					},
					"t_enum(OrderStatus)9": {
						"encoding": "inplace",
						"label": "enum SupplyChainContract.OrderStatus",
						"numberOfBytes": "1"
					},
					"t_mapping(t_uint256,t_struct(Order)19_storage)": {
						"encoding": "mapping",
						"key": "t_uint256",
						"label": "mapping(uint256 => struct SupplyChainContract.Order)",
						"numberOfBytes": "32",
						"value": "t_struct(Order)19_storage"
					},
					"t_string_storage": {
						"encoding": "bytes",
						"label": "string",
						"numberOfBytes": "32"
					},
					"t_struct(Order)19_storage": {
						"encoding": "inplace",
						"label": "struct SupplyChainContract.Order",
						"members": [
							{
								"astId": 11,
								"contract": "Buyer-Seller.sol:SupplyChainContract",
								"label": "orderId",
								"offset": 0,
								"slot": "0",
								"type": "t_uint256"
							},
							{
								"astId": 13,
								"contract": "Buyer-Seller.sol:SupplyChainContract",
								"label": "product",
								"offset": 0,
								"slot": "1",
								"type": "t_string_storage"
							},
							{
								"astId": 15,
								"contract": "Buyer-Seller.sol:SupplyChainContract",
								"label": "quantity",
								"offset": 0,
								"slot": "2",
								"type": "t_uint256"
							},
							{
								"astId": 18,
								"contract": "Buyer-Seller.sol:SupplyChainContract",
								"label": "status",
								"offset": 0,
								"slot": "3",
								"type": "t_enum(OrderStatus)9"
							}
						],
						"numberOfBytes": "128"
					},
					"t_uint256": {
						"encoding": "inplace",
						"label": "uint256",
						"numberOfBytes": "32"
					}
				}
			},
			"userdoc": {
				"kind": "user",
				"methods": {},
				"version": 1
			}
		}
	}
}